{
  "address": "0x4fc10c71D5cfA7a9B0e28926a9f2CdB42BCf4B6b",
  "abi": [
    {
      "anonymous": false,
      "inputs": [
        {
          "indexed": true,
          "internalType": "uint256",
          "name": "tokenId",
          "type": "uint256"
        },
        {
          "indexed": false,
          "internalType": "uint256",
          "name": "nativeAmount",
          "type": "uint256"
        }
      ],
      "name": "ClaimNativeDrop",
      "type": "event"
    },
    {
      "anonymous": false,
      "inputs": [
        {
          "indexed": true,
          "internalType": "uint256",
          "name": "tokenId",
          "type": "uint256"
        },
        {
          "indexed": false,
          "internalType": "uint256",
          "name": "rebornAmount",
          "type": "uint256"
        }
      ],
      "name": "ClaimRebornDrop",
      "type": "event"
    },
    {
      "anonymous": false,
      "inputs": [
        {
          "components": [
            {
              "internalType": "uint8",
              "name": "_dropOn",
              "type": "uint8"
            },
            {
              "internalType": "uint40",
              "name": "_rebornDropInterval",
              "type": "uint40"
            },
            {
              "internalType": "uint40",
              "name": "_nativeDropInterval",
              "type": "uint40"
            },
            {
              "internalType": "uint40",
              "name": "_rebornDropLastUpdate",
              "type": "uint40"
            },
            {
              "internalType": "uint40",
              "name": "_nativeDropLastUpdate",
              "type": "uint40"
            },
            {
              "internalType": "uint16",
              "name": "_nativeDropRatio",
              "type": "uint16"
            },
            {
              "internalType": "uint72",
              "name": "_rebornDropEthAmount",
              "type": "uint72"
            }
          ],
          "indexed": false,
          "internalType": "struct PortalLib.AirdropConf",
          "name": "conf",
          "type": "tuple"
        }
      ],
      "name": "NewDropConf",
      "type": "event"
    },
    {
      "inputs": [],
      "name": "PERCENTAGE_BASE",
      "outputs": [
        {
          "internalType": "uint256",
          "name": "",
          "type": "uint256"
        }
      ],
      "stateMutability": "view",
      "type": "function"
    },
    {
      "inputs": [],
      "name": "PERSHARE_BASE",
      "outputs": [
        {
          "internalType": "uint256",
          "name": "",
          "type": "uint256"
        }
      ],
      "stateMutability": "view",
      "type": "function"
    }
  ],
  "transactionHash": "0xf160a38be6e4016ac9753fcfd7139430ab4ed57443bdf978e6fc10cfad1cab13",
  "args": [],
  "numDeployments": 2,
  "solcInputHash": "6364906470134ddbd404daf75e43d15d",
  "bytecode": "0x610ceb61003a600b82828239805160001a60731461002d57634e487b7160e01b600052600060045260246000fd5b30600052607381538281f3fe73000000000000000000000000000000000000000030146080604052600436106100875760003560e01c8063a6a348b311610065578063a6a348b3146100df578063c4deddb414610101578063c8410c5f14610121578063d4166eb01461014157600080fd5b806337bd75211461008c5780635cb931f2146100ae57806387c13943146100d6575b600080fd5b61009b678ac7230489e8000081565b6040519081526020015b60405180910390f35b6100c16100bc3660046109ca565b610161565b604080519283526020830191909152016100a5565b61009b61271081565b8180156100eb57600080fd5b506100ff6100fa366004610a0c565b61021d565b005b81801561010d57600080fd5b506100ff61011c3660046109ca565b610487565b81801561012d57600080fd5b506100ff61013c366004610a0c565b6105c2565b81801561014d57600080fd5b506100ff61015c366004610b23565b610841565b60008381526020838152604080832033845284835281842087855290925282206004810154600280830154908401548354869594939291678ac7230489e80000916101ac9190610b76565b6101b69190610ba3565b6101c09190610bb7565b6101ca9190610bca565b935080600301548160010154678ac7230489e80000846001015484600001546101f39190610b76565b6101fd9190610ba3565b6102079190610bb7565b6102119190610bca565b92505050935093915050565b82546000906102499064ffffffffff61010082048116916b010000000000000000000000900416610bdd565b64ffffffffff1642119050801561047f5760005b606481101561043357600086828151811061027a5761027a610c02565b602002602001015190508060000361029457505050610481565b600081815260208690526040812087549091906102df9077010000000000000000000000000000000000000000000000900468ffffffffffffffffff16670de0b6b3a7640000610c18565b825468ffffffffffffffffff919091169150678ac7230489e800006064610307846055610b76565b6103119190610ba3565b61031b9190610b76565b6103259190610ba3565b8260010160008282546103389190610bca565b90915550506040517f6352211e000000000000000000000000000000000000000000000000000000008152600481018490526000903090636352211e90602401602060405180830381865afa158015610395573d6000803e3d6000fd5b505050506040513d601f19601f820116820180604052508101906103b99190610c45565b73ffffffffffffffffffffffffffffffffffffffff8116600090815260208981526040808320888452909152902090915060646103f784600f610b76565b6104019190610ba3565b8160030160008282546104149190610bca565b925050819055505050505050808061042b90610c69565b91505061025d565b5061043d426109ac565b845464ffffffffff919091166b010000000000000000000000027fffffffffffffffffffffffffffffffff0000000000ffffffffffffffffffffff9091161784555b505b50505050565b6000838152602083815260408083203384528483528184208785529092528220600481015460028083015490840154835494959394678ac7230489e80000916104cf91610b76565b6104d99190610ba3565b6104e39190610bb7565b6104ed9190610bca565b9050678ac7230489e800008360020154836000015461050c9190610b76565b6105169190610ba3565b600283015560018301548254678ac7230489e800009161053591610b76565b61053f9190610ba3565b60018301556000600483015580156105ba57604051339082156108fc029083906000818181858888f1935050505015801561057e573d6000803e3d6000fd5b50857f977611d1e64f932f9f8044d7efd60da79eff6751ab692c5bdf02dc0c4520a0d6826040516105b191815260200190565b60405180910390a25b505050505050565b82546000906105f89064ffffffffff66010000000000008204811691700100000000000000000000000000000000900416610bdd565b64ffffffffff1642119050801561047f5760005b60648110156107ea57600086828151811061062957610629610c02565b602002602001015190508060000361064357505050610481565b6000818152602086905260408120875490919060c8906106819047907501000000000000000000000000000000000000000000900461ffff16610b76565b61068c906003610b76565b6106969190610ba3565b8254909150612710678ac7230489e8000060646106b4856055610b76565b6106be9190610ba3565b6106c89190610b76565b6106d29190610ba3565b6106dc9190610ba3565b8260020160008282546106ef9190610bca565b90915550506040517f6352211e000000000000000000000000000000000000000000000000000000008152600481018490526000903090636352211e90602401602060405180830381865afa15801561074c573d6000803e3d6000fd5b505050506040513d601f19601f820116820180604052508101906107709190610c45565b73ffffffffffffffffffffffffffffffffffffffff8116600090815260208981526040808320888452909152902090915060646107ae84600f610b76565b6107b89190610ba3565b8160040160008282546107cb9190610bca565b92505081905550505050505080806107e290610c69565b91505061060c565b506107f4426109ac565b845464ffffffffff91909116700100000000000000000000000000000000027fffffffffffffffffffffff0000000000ffffffffffffffffffffffffffffffff9091161784555050505050565b6000848152602083815260408083203384528483528184208885529092528220600381015460018083015490840154835494959394678ac7230489e800009161088991610b76565b6108939190610ba3565b61089d9190610bb7565b6108a79190610bca565b9050678ac7230489e80000836001015483600001546108c69190610b76565b6108d09190610ba3565b6001830155600060038301558015610969576040517f21670f220000000000000000000000000000000000000000000000000000000081523360048201526024810182905273ffffffffffffffffffffffffffffffffffffffff8716906321670f2290604401600060405180830381600087803b15801561095057600080fd5b505af1158015610964573d6000803e3d6000fd5b505050505b867f9bef5f4c3851b330ed02d5134476009fa312bd6b6d015b7351e0308c74481e228260405161099b91815260200190565b60405180910390a250505050505050565b60006109ba610e1083610ca1565b6109c49083610bb7565b92915050565b6000806000606084860312156109df57600080fd5b505081359360208301359350604090920135919050565b634e487b7160e01b600052604160045260246000fd5b60008060008060808587031215610a2257600080fd5b843567ffffffffffffffff80821115610a3a57600080fd5b818701915087601f830112610a4e57600080fd5b8135602082821115610a6257610a626109f6565b8160051b6040517fffffffffffffffffffffffffffffffffffffffffffffffffffffffffffffffe0603f83011681018181108682111715610aa557610aa56109f6565b60405292835281830193508481018201928b841115610ac357600080fd5b948201945b83861015610ae157853585529482019493820193610ac8565b9b918a01359a505060408901359860600135975095505050505050565b73ffffffffffffffffffffffffffffffffffffffff81168114610b2057600080fd5b50565b60008060008060808587031215610b3957600080fd5b843593506020850135610b4b81610afe565b93969395505050506040820135916060013590565b634e487b7160e01b600052601160045260246000fd5b80820281158282048414176109c4576109c4610b60565b634e487b7160e01b600052601260045260246000fd5b600082610bb257610bb2610b8d565b500490565b818103818111156109c4576109c4610b60565b808201808211156109c4576109c4610b60565b64ffffffffff818116838216019080821115610bfb57610bfb610b60565b5092915050565b634e487b7160e01b600052603260045260246000fd5b68ffffffffffffffffff818116838216028082169190828114610c3d57610c3d610b60565b505092915050565b600060208284031215610c5757600080fd5b8151610c6281610afe565b9392505050565b60007fffffffffffffffffffffffffffffffffffffffffffffffffffffffffffffffff8203610c9a57610c9a610b60565b5060010190565b600082610cb057610cb0610b8d565b50069056fea26469706673582212209e1915856937ca7d5cbe7645190eeae77b500d42168664a09a623d30e6b4859f64736f6c63430008110033",
  "devdoc": {
    "kind": "dev",
    "methods": {
      "_calculatePoolDrop(uint256,mapping(uint256 => PortalLib.Pool) storage,mapping(address => mapping(uint256 => PortalLib.Portfolio)) storage)": {
        "details": "calculate drop from a pool"
      }
    },
    "version": 1
  },
  "userdoc": {
    "kind": "user",
    "methods": {},
    "version": 1
  },
  "storageLayout": {
    "storage": [],
    "types": null
  }
}