{
  "address": "0xb2B402783fE851e9Cf4073E267D7632386FB4964",
  "abi": [
    {
      "anonymous": false,
      "inputs": [
        {
          "indexed": true,
          "internalType": "uint256",
          "name": "tokenId",
          "type": "uint256"
        },
        {
          "indexed": false,
          "internalType": "uint256",
          "name": "nativeAmount",
          "type": "uint256"
        }
      ],
      "name": "ClaimNativeDrop",
      "type": "event"
    },
    {
      "anonymous": false,
      "inputs": [
        {
          "indexed": true,
          "internalType": "uint256",
          "name": "tokenId",
          "type": "uint256"
        },
        {
          "indexed": false,
          "internalType": "uint256",
          "name": "rebornAmount",
          "type": "uint256"
        }
      ],
      "name": "ClaimRebornDrop",
      "type": "event"
    },
    {
      "anonymous": false,
      "inputs": [
        {
          "indexed": true,
          "internalType": "uint256",
          "name": "tokenId",
          "type": "uint256"
        }
      ],
      "name": "DropNative",
      "type": "event"
    },
    {
      "anonymous": false,
      "inputs": [
        {
          "indexed": true,
          "internalType": "uint256",
          "name": "tokenId",
          "type": "uint256"
        }
      ],
      "name": "DropReborn",
      "type": "event"
    },
    {
      "anonymous": false,
      "inputs": [
        {
          "components": [
            {
              "internalType": "uint8",
              "name": "_dropOn",
              "type": "uint8"
            },
            {
              "internalType": "uint40",
              "name": "_rebornDropInterval",
              "type": "uint40"
            },
            {
              "internalType": "uint40",
              "name": "_nativeDropInterval",
              "type": "uint40"
            },
            {
              "internalType": "uint40",
              "name": "_rebornDropLastUpdate",
              "type": "uint40"
            },
            {
              "internalType": "uint40",
              "name": "_nativeDropLastUpdate",
              "type": "uint40"
            },
            {
              "internalType": "uint16",
              "name": "_nativeTopDropRatio",
              "type": "uint16"
            },
            {
              "internalType": "uint16",
              "name": "_nativeRaffleDropRatio",
              "type": "uint16"
            },
            {
              "internalType": "uint16",
              "name": "_rebornTopEthAmount",
              "type": "uint16"
            },
            {
              "internalType": "uint40",
              "name": "_rebornRaffleEthAmount",
              "type": "uint40"
            }
          ],
          "indexed": false,
          "internalType": "struct PortalLib.AirdropConf",
          "name": "conf",
          "type": "tuple"
        }
      ],
      "name": "NewDropConf",
      "type": "event"
    },
    {
      "anonymous": false,
      "inputs": [
        {
          "components": [
            {
              "internalType": "bytes32",
              "name": "keyHash",
              "type": "bytes32"
            },
            {
              "internalType": "uint64",
              "name": "s_subscriptionId",
              "type": "uint64"
            },
            {
              "internalType": "uint32",
              "name": "callbackGasLimit",
              "type": "uint32"
            },
            {
              "internalType": "uint32",
              "name": "numWords",
              "type": "uint32"
            },
            {
              "internalType": "uint16",
              "name": "requestConfirmations",
              "type": "uint16"
            }
          ],
          "indexed": false,
          "internalType": "struct PortalLib.VrfConf",
          "name": "conf",
          "type": "tuple"
        }
      ],
      "name": "NewVrfConf",
      "type": "event"
    },
    {
      "anonymous": false,
      "inputs": [
        {
          "indexed": true,
          "internalType": "address",
          "name": "user",
          "type": "address"
        },
        {
          "indexed": true,
          "internalType": "address",
          "name": "ref1",
          "type": "address"
        },
        {
          "indexed": false,
          "internalType": "uint256",
          "name": "amount1",
          "type": "uint256"
        },
        {
          "indexed": true,
          "internalType": "address",
          "name": "ref2",
          "type": "address"
        },
        {
          "indexed": false,
          "internalType": "uint256",
          "name": "amount2",
          "type": "uint256"
        },
        {
          "indexed": false,
          "internalType": "enum PortalLib.RewardType",
          "name": "rewardType",
          "type": "uint8"
        }
      ],
      "name": "ReferReward",
      "type": "event"
    },
    {
      "anonymous": false,
      "inputs": [
        {
          "indexed": false,
          "internalType": "address",
          "name": "signer",
          "type": "address"
        },
        {
          "indexed": false,
          "internalType": "bool",
          "name": "valid",
          "type": "bool"
        }
      ],
      "name": "SignerUpdate",
      "type": "event"
    },
    {
      "inputs": [],
      "name": "PERCENTAGE_BASE",
      "outputs": [
        {
          "internalType": "uint256",
          "name": "",
          "type": "uint256"
        }
      ],
      "stateMutability": "view",
      "type": "function"
    },
    {
      "inputs": [],
      "name": "PERSHARE_BASE",
      "outputs": [
        {
          "internalType": "uint256",
          "name": "",
          "type": "uint256"
        }
      ],
      "stateMutability": "view",
      "type": "function"
    }
  ],
  "transactionHash": "0x87c30e810b9a85aed67ee2332cc213978fa42be9c82abac64c704b582ace1691",
  "args": [],
  "numDeployments": 13,
  "solcInputHash": "a5541e35a57d658e92f5e94b7e5d2d42",
  "bytecode": "0x611a4461003a600b82828239805160001a60731461002d57634e487b7160e01b600052600060045260246000fd5b30600052607381538281f3fe730000000000000000000000000000000000000000301460806040526004361061010a5760003560e01c80635cb931f2116100a1578063b8de8a6d11610070578063b8de8a6d146102ac578063c6533a53146102cc578063d2703860146102df578063dea23a78146102ff57600080fd5b80635cb931f21461023b578063649605331461026357806387c1394314610283578063a79c9ca21461028c57600080fd5b806337a8f5a5116100dd57806337a8f5a51461019157806337bd7521146101b15780633f3ccdf9146101d3578063539556721461021b57600080fd5b80631747e0771461010f57806328a05801146101315780632c1affcc146101515780633039061114610171575b600080fd5b81801561011b57600080fd5b5061012f61012a36600461149c565b61031f565b005b81801561013d57600080fd5b5061012f61014c36600461159a565b6103b7565b81801561015d57600080fd5b5061012f61016c366004611606565b610584565b81801561017d57600080fd5b5061012f61018c36600461163e565b6106df565b81801561019d57600080fd5b5061012f6101ac36600461167d565b6107de565b6101c0678ac7230489e8000081565b6040519081526020015b60405180910390f35b6101e66101e13660046116cf565b610934565b6040516101ca94939291906001600160a01b039485168152602081019390935292166040820152606081019190915260800190565b81801561022757600080fd5b5061012f610236366004611721565b610a8f565b61024e610249366004611743565b610bb5565b604080519283526020830191909152016101ca565b81801561026f57600080fd5b5061012f61027e366004611721565b610c7e565b6101c061271081565b81801561029857600080fd5b5061012f6102a736600461176f565b610cd4565b8180156102b857600080fd5b5061012f6102c736600461159a565b610eb1565b61024e6102da3660046117bd565b611074565b8180156102eb57600080fd5b5061012f6102fa36600461176f565b6110e5565b81801561030b57600080fd5b5061012f61031a366004611859565b6112c2565b6000816001811115610333576103336118d3565b0361035a57835461ffff838116620100000263ffffffff19909216908516171784556103b1565b600181600181111561036e5761036e6118d3565b036103b157835461ffff83811666010000000000000267ffff00000000000019918616640100000000029190911667ffffffff0000000019909216919091171784555b50505050565b60005b845181101561057d5760008582815181106103d7576103d76118e9565b60200260200101519050806000036103f05750506103b1565b6000818152602085905260408120805490910361040f575050506103b1565b855460009061043490600160d81b900464ffffffffff16670de0b6b3a7640000611915565b8254909150610444906005611915565b678ac7230489e80000610458836004611915565b6104629190611915565b61046c9190611932565b82600101600082825461047f9190611954565b90915550506040516331a9108f60e11b8152600481018490526000903090636352211e90602401602060405180830381865afa1580156104c3573d6000803e3d6000fd5b505050506040513d601f19601f820116820180604052508101906104e79190611967565b6001600160a01b03811660009081526020888152604080832088845290915290209091506005610518846001611915565b6105229190611932565b8160030160008282546105359190611954565b909155505060405185907f9fd4c13f699772815e03d8da4431b66adadda41e17f3ff4faa8372cfe878810c90600090a2505050505080806105759061198b565b9150506103ba565b5050505050565b600083815260208281526040808320338452600185018352818420878552909252822080549192909190036105ba575050505050565b600081600301548260010154678ac7230489e80000856001015485600001546105e39190611915565b6105ed9190611932565b6105f791906119a4565b6106019190611954565b9050678ac7230489e80000836001015483600001546106209190611915565b61062a9190611932565b600183015560006003830155801561069d576040516310b3879160e11b8152336004820152602481018290526001600160a01b038616906321670f2290604401600060405180830381600087803b15801561068457600080fd5b505af1158015610698573d6000803e3d6000fd5b505050505b857f9bef5f4c3851b330ed02d5134476009fa312bd6b6d015b7351e0308c74481e22826040516106cf91815260200190565b60405180910390a2505050505050565b6000806000806106f3888888886000610934565b9350935093509350600083111561073c576040516001600160a01b0385169084156108fc029085906000818181858888f1935050505015801561073a573d6000803e3d6000fd5b505b801561077a576040516001600160a01b0383169082156108fc029083906000818181858888f19350505050158015610778573d6000803e3d6000fd5b505b816001600160a01b0316846001600160a01b0316876001600160a01b03167fba677d62d32cf3ca7ea533245a2128ce25fdbee9811bd67751f522b18e98db4e868560006040516107cc939291906119b7565b60405180910390a45050505050505050565b6000806000806107f2898988886001610934565b93509350935093506000831115610866576040516310b3879160e11b81526001600160a01b038581166004830152602482018590528816906321670f2290604401600060405180830381600087803b15801561084d57600080fd5b505af1158015610861573d6000803e3d6000fd5b505050505b80156108cf576040516310b3879160e11b81526001600160a01b038381166004830152602482018390528816906321670f2290604401600060405180830381600087803b1580156108b657600080fd5b505af11580156108ca573d6000803e3d6000fd5b505050505b816001600160a01b0316846001600160a01b0316876001600160a01b03167fba677d62d32cf3ca7ea533245a2128ce25fdbee9811bd67751f522b18e98db4e86856001604051610921939291906119b7565b60405180910390a4505050505050505050565b6001600160a01b0380841660009081526020879052604080822054831680835290822054909216818085600181111561096f5761096f6118d3565b036109e9576001600160a01b038416156109a6578754612710906109979061ffff1688611915565b6109a19190611932565b6109a9565b60005b92506001600160a01b038216156109e3578754612710906109d49062010000900461ffff1688611915565b6109de9190611932565b6109e6565b60005b90505b60018560018111156109fd576109fd6118d3565b03610a83576001600160a01b03841615610a3c57875461271090610a2d90640100000000900461ffff1688611915565b610a379190611932565b610a3f565b60005b92506001600160a01b03821615610a7d57875461271090610a6e906601000000000000900461ffff1688611915565b610a789190611932565b610a80565b60005b90505b95509550955095915050565b60008281526020828152604080832033845260018501835281842086855290925282208054919290919003610ac45750505050565b600081600401548260020154678ac7230489e8000085600201548560000154610aed9190611915565b610af79190611932565b610b0191906119a4565b610b0b9190611954565b9050678ac7230489e8000083600201548360000154610b2a9190611915565b610b349190611932565b600283015560006004830155801561057d57604051339082156108fc029083906000818181858888f19350505050158015610b73573d6000803e3d6000fd5b50847f977611d1e64f932f9f8044d7efd60da79eff6751ab692c5bdf02dc0c4520a0d682604051610ba691815260200190565b60405180910390a25050505050565b60008381526020838152604080832033845284835281842087855290925282208054839291908303610be8575050610c76565b6004810154600280830154908401548354678ac7230489e8000091610c0c91611915565b610c169190611932565b610c2091906119a4565b610c2a9190611954565b935080600301548160010154678ac7230489e8000084600101548460000154610c539190611915565b610c5d9190611932565b610c6791906119a4565b610c719190611954565b925050505b935093915050565b60028201548154678ac7230489e8000091610c9891611915565b610ca29190611932565b600282015560018201548154678ac7230489e8000091610cc191611915565b610ccb9190611932565b60019091015550565b60005b83518110156103b1576000848281518110610cf457610cf46118e9565b6020026020010151905080600003610d0d575050505050565b60008181526020849052604081208054909103610d2c57505050505050565b845460009061271090610d4b904790600160b81b900461ffff16611915565b610d559190611932565b8254909150610d676127106005611915565b610d719190611915565b678ac7230489e80000610d85836004611915565b610d8f9190611915565b610d999190611932565b826002016000828254610dac9190611954565b90915550506040516331a9108f60e11b8152600481018490526000903090636352211e90602401602060405180830381865afa158015610df0573d6000803e3d6000fd5b505050506040513d601f19601f82011682018060405250810190610e149190611967565b6001600160a01b0381166000908152600180890160209081526040808420898552909152909120919250600590610e4c908590611915565b610e569190611932565b816004016000828254610e699190611954565b909155505060405185907f6afe587305f85465821058331ef6a91df73bb1219f66861004e8dbfd91318d7690600090a250505050508080610ea99061198b565b915050610cd7565b60005b845181101561057d576000858281518110610ed157610ed16118e9565b6020026020010151905080600003610eea5750506103b1565b60008181526020859052604081208054909103610f09575050506103b1565b8554600090610f2b90600160c81b900461ffff16670de0b6b3a7640000611915565b8254909150610f3b906005611915565b678ac7230489e80000610f4f836004611915565b610f599190611915565b610f639190611932565b826001016000828254610f769190611954565b90915550506040516331a9108f60e11b8152600481018490526000903090636352211e90602401602060405180830381865afa158015610fba573d6000803e3d6000fd5b505050506040513d601f19601f82011682018060405250810190610fde9190611967565b6001600160a01b0381166000908152602088815260408083208884529091529020909150600561100f846001611915565b6110199190611932565b81600301600082825461102c9190611954565b909155505060405185907f9fd4c13f699772815e03d8da4431b66adadda41e17f3ff4faa8372cfe878810c90600090a25050505050808061106c9061198b565b915050610eb4565b60008060005b83518110156110dc576000806110aa86848151811061109b5761109b6118e9565b60200260200101518989610bb5565b90925090506110b98286611954565b94506110c58185611954565b9350505080806110d49061198b565b91505061107a565b50935093915050565b60005b83518110156103b1576000848281518110611105576111056118e9565b602002602001015190508060000361111e575050505050565b6000818152602084905260408120805490910361113d57505050505050565b84546000906127109061115c904790600160a81b900461ffff16611915565b6111669190611932565b82549091506111786127106005611915565b6111829190611915565b678ac7230489e80000611196836004611915565b6111a09190611915565b6111aa9190611932565b8260020160008282546111bd9190611954565b90915550506040516331a9108f60e11b8152600481018490526000903090636352211e90602401602060405180830381865afa158015611201573d6000803e3d6000fd5b505050506040513d601f19601f820116820180604052508101906112259190611967565b6001600160a01b038116600090815260018089016020908152604080842089855290915290912091925060059061125d908590611915565b6112679190611932565b81600401600082825461127a9190611954565b909155505060405185907f6afe587305f85465821058331ef6a91df73bb1219f66861004e8dbfd91318d7690600090a2505050505080806112ba9061198b565b9150506110e8565b60005b8381101561139c5760018660008787858181106112e4576112e46118e9565b90506020020160208101906112f991906119f1565b6001600160a01b031681526020810191909152604001600020805460ff19169115159190911790557fc648f6265408cc54c0dc26d24ba51dfc9f35ce1a63baa2228f65d93aaf11cc67858583818110611354576113546118e9565b905060200201602081019061136991906119f1565b604080516001600160a01b039092168252600160208301520160405180910390a1806113948161198b565b9150506112c5565b5060005b8181101561146e578560008484848181106113bd576113bd6118e9565b90506020020160208101906113d291906119f1565b6001600160a01b031681526020810191909152604001600020805460ff191690557fc648f6265408cc54c0dc26d24ba51dfc9f35ce1a63baa2228f65d93aaf11cc67838383818110611426576114266118e9565b905060200201602081019061143b91906119f1565b604080516001600160a01b039092168252600060208301520160405180910390a1806114668161198b565b9150506113a0565b505050505050565b803561ffff8116811461148857600080fd5b919050565b80356002811061148857600080fd5b600080600080608085870312156114b257600080fd5b843593506114c260208601611476565b92506114d060408601611476565b91506114de6060860161148d565b905092959194509250565b634e487b7160e01b600052604160045260246000fd5b600082601f83011261151057600080fd5b8135602067ffffffffffffffff8083111561152d5761152d6114e9565b8260051b604051601f19603f83011681018181108482111715611552576115526114e9565b60405293845285810183019383810192508785111561157057600080fd5b83870191505b8482101561158f57813583529183019190830190611576565b979650505050505050565b600080600080608085870312156115b057600080fd5b843567ffffffffffffffff8111156115c757600080fd5b6115d3878288016114ff565b97602087013597506040870135966060013595509350505050565b6001600160a01b038116811461160357600080fd5b50565b60008060006060848603121561161b57600080fd5b83359250602084013561162d816115ee565b929592945050506040919091013590565b6000806000806080858703121561165457600080fd5b8435935060208501359250604085013561166d816115ee565b9396929550929360600135925050565b600080600080600060a0868803121561169557600080fd5b853594506020860135935060408601356116ae816115ee565b925060608601356116be816115ee565b949793965091946080013592915050565b600080600080600060a086880312156116e757600080fd5b85359450602086013593506040860135611700816115ee565b9250606086013591506117156080870161148d565b90509295509295909350565b6000806040838503121561173457600080fd5b50508035926020909101359150565b60008060006060848603121561175857600080fd5b505081359360208301359350604090920135919050565b60008060006060848603121561178457600080fd5b833567ffffffffffffffff81111561179b57600080fd5b6117a7868287016114ff565b9660208601359650604090950135949350505050565b6000806000606084860312156117d257600080fd5b8335925060208401359150604084013567ffffffffffffffff8111156117f757600080fd5b611803868287016114ff565b9150509250925092565b60008083601f84011261181f57600080fd5b50813567ffffffffffffffff81111561183757600080fd5b6020830191508360208260051b850101111561185257600080fd5b9250929050565b60008060008060006060868803121561187157600080fd5b85359450602086013567ffffffffffffffff8082111561189057600080fd5b61189c89838a0161180d565b909650945060408801359150808211156118b557600080fd5b506118c28882890161180d565b969995985093965092949392505050565b634e487b7160e01b600052602160045260246000fd5b634e487b7160e01b600052603260045260246000fd5b634e487b7160e01b600052601160045260246000fd5b808202811582820484141761192c5761192c6118ff565b92915050565b60008261194f57634e487b7160e01b600052601260045260246000fd5b500490565b8082018082111561192c5761192c6118ff565b60006020828403121561197957600080fd5b8151611984816115ee565b9392505050565b60006001820161199d5761199d6118ff565b5060010190565b8181038181111561192c5761192c6118ff565b8381526020810183905260608101600283106119e357634e487b7160e01b600052602160045260246000fd5b826040830152949350505050565b600060208284031215611a0357600080fd5b8135611984816115ee56fea2646970667358221220cfc1769b48d8efc3715f1f6af5dffb3bd831bfe0cc1d08b8efdd8ae9c23f76d064736f6c63430008110033",
  "devdoc": {
    "kind": "dev",
    "methods": {
      "_calculatePoolDrop(uint256,mapping(uint256 => PortalLib.Pool) storage,mapping(address => mapping(uint256 => PortalLib.Portfolio)) storage)": {
        "details": "calculate drop from a pool"
      },
      "_calculateReferReward(mapping(address => address) storage,PortalLib.ReferrerRewardFees storage,address,uint256,PortalLib.RewardType)": {
        "details": "returns referrer and referer reward",
        "returns": {
          "ref1": " level1 of referrer. direct referrer",
          "ref1Reward": " level 1 referrer reward",
          "ref2": " level2 of referrer. referrer's referrer",
          "ref2Reward": " level 2 referrer reward"
        }
      },
      "_pendingDrop(mapping(uint256 => PortalLib.Pool) storage,mapping(address => mapping(uint256 => PortalLib.Portfolio)) storage,uint256[])": {
        "details": "read pending reward from specific pool",
        "params": {
          "tokenIds": "tokenId array of the pools"
        }
      },
      "_sendRewardToRefs(mapping(address => address) storage,PortalLib.ReferrerRewardFees storage,address,uint256)": {
        "details": "send NativeToken to referrers"
      },
      "_setReferrerRewardFee(PortalLib.ReferrerRewardFees storage,uint16,uint16,PortalLib.RewardType)": {
        "details": "set percentage of referrer reward",
        "params": {
          "rewardType": "0: incarnate reward 1: engrave reward"
        }
      },
      "_updateSigners(mapping(address => bool) storage,address[],address[])": {
        "details": "update signers",
        "params": {
          "toAdd": "list of to be added signer",
          "toRemove": "list of to be removed signer"
        }
      },
      "_vaultRewardToRefs(mapping(address => address) storage,PortalLib.ReferrerRewardFees storage,RewardVault,address,uint256)": {
        "details": "vault $REBORN token to referrers"
      }
    },
    "version": 1
  },
  "userdoc": {
    "kind": "user",
    "methods": {
      "_setReferrerRewardFee(PortalLib.ReferrerRewardFees storage,uint16,uint16,PortalLib.RewardType)": {
        "notice": "mul 100 when set. eg: 8% -> 800 18%-> 1800"
      }
    },
    "version": 1
  },
  "storageLayout": {
    "storage": [],
    "types": null
  }
}