{
  "address": "0x0c3CAD0eA02f0C1BE5C8A711cbd2aF3699008F24",
  "abi": [
    {
      "inputs": [],
      "name": "CallerNotOwner",
      "type": "error"
    },
    {
      "inputs": [],
      "name": "CallerNotPendingOwner",
      "type": "error"
    },
    {
      "inputs": [],
      "name": "DropOff",
      "type": "error"
    },
    {
      "inputs": [],
      "name": "InsufficientAmount",
      "type": "error"
    },
    {
      "inputs": [],
      "name": "NotSetBurnPoolAddress",
      "type": "error"
    },
    {
      "inputs": [],
      "name": "NotSigner",
      "type": "error"
    },
    {
      "inputs": [
        {
          "internalType": "address",
          "name": "have",
          "type": "address"
        },
        {
          "internalType": "address",
          "name": "want",
          "type": "address"
        }
      ],
      "name": "OnlyCoordinatorCanFulfill",
      "type": "error"
    },
    {
      "inputs": [],
      "name": "OnlySimulatedBackend",
      "type": "error"
    },
    {
      "inputs": [],
      "name": "SameSeed",
      "type": "error"
    },
    {
      "inputs": [],
      "name": "ZeroAddressCoordinatorSet",
      "type": "error"
    },
    {
      "inputs": [],
      "name": "ZeroAddressOwnerSet",
      "type": "error"
    },
    {
      "inputs": [],
      "name": "ZeroAddressSet",
      "type": "error"
    },
    {
      "anonymous": false,
      "inputs": [
        {
          "indexed": false,
          "internalType": "address",
          "name": "previousAdmin",
          "type": "address"
        },
        {
          "indexed": false,
          "internalType": "address",
          "name": "newAdmin",
          "type": "address"
        }
      ],
      "name": "AdminChanged",
      "type": "event"
    },
    {
      "anonymous": false,
      "inputs": [
        {
          "indexed": true,
          "internalType": "address",
          "name": "owner",
          "type": "address"
        },
        {
          "indexed": true,
          "internalType": "address",
          "name": "approved",
          "type": "address"
        },
        {
          "indexed": true,
          "internalType": "uint256",
          "name": "tokenId",
          "type": "uint256"
        }
      ],
      "name": "Approval",
      "type": "event"
    },
    {
      "anonymous": false,
      "inputs": [
        {
          "indexed": true,
          "internalType": "address",
          "name": "owner",
          "type": "address"
        },
        {
          "indexed": true,
          "internalType": "address",
          "name": "operator",
          "type": "address"
        },
        {
          "indexed": false,
          "internalType": "bool",
          "name": "approved",
          "type": "bool"
        }
      ],
      "name": "ApprovalForAll",
      "type": "event"
    },
    {
      "anonymous": false,
      "inputs": [
        {
          "indexed": true,
          "internalType": "address",
          "name": "user",
          "type": "address"
        },
        {
          "indexed": false,
          "internalType": "uint256",
          "name": "amount",
          "type": "uint256"
        }
      ],
      "name": "Baptise",
      "type": "event"
    },
    {
      "anonymous": false,
      "inputs": [
        {
          "indexed": true,
          "internalType": "address",
          "name": "beacon",
          "type": "address"
        }
      ],
      "name": "BeaconUpgraded",
      "type": "event"
    },
    {
      "anonymous": false,
      "inputs": [
        {
          "indexed": true,
          "internalType": "address",
          "name": "account",
          "type": "address"
        },
        {
          "indexed": false,
          "internalType": "uint256",
          "name": "tokenId",
          "type": "uint256"
        },
        {
          "indexed": false,
          "internalType": "uint256",
          "name": "amount",
          "type": "uint256"
        }
      ],
      "name": "DecreaseFromPool",
      "type": "event"
    },
    {
      "anonymous": false,
      "inputs": [
        {
          "indexed": false,
          "internalType": "uint256[]",
          "name": "tokenIds",
          "type": "uint256[]"
        }
      ],
      "name": "Drop",
      "type": "event"
    },
    {
      "anonymous": false,
      "inputs": [
        {
          "indexed": true,
          "internalType": "address",
          "name": "user",
          "type": "address"
        },
        {
          "indexed": true,
          "internalType": "uint256",
          "name": "tokenId",
          "type": "uint256"
        },
        {
          "indexed": false,
          "internalType": "uint256",
          "name": "amount",
          "type": "uint256"
        }
      ],
      "name": "Dry",
      "type": "event"
    },
    {
      "anonymous": false,
      "inputs": [
        {
          "indexed": true,
          "internalType": "bytes32",
          "name": "seed",
          "type": "bytes32"
        },
        {
          "indexed": true,
          "internalType": "address",
          "name": "user",
          "type": "address"
        },
        {
          "indexed": true,
          "internalType": "uint256",
          "name": "tokenId",
          "type": "uint256"
        },
        {
          "indexed": false,
          "internalType": "uint256",
          "name": "score",
          "type": "uint256"
        },
        {
          "indexed": false,
          "internalType": "uint256",
          "name": "reward",
          "type": "uint256"
        }
      ],
      "name": "Engrave",
      "type": "event"
    },
    {
      "anonymous": false,
      "inputs": [
        {
          "indexed": true,
          "internalType": "address",
          "name": "user",
          "type": "address"
        },
        {
          "indexed": true,
          "internalType": "uint256",
          "name": "talentPrice",
          "type": "uint256"
        },
        {
          "indexed": true,
          "internalType": "uint256",
          "name": "PropertyPrice",
          "type": "uint256"
        },
        {
          "indexed": false,
          "internalType": "uint256",
          "name": "soupPrice",
          "type": "uint256"
        }
      ],
      "name": "Incarnate",
      "type": "event"
    },
    {
      "anonymous": false,
      "inputs": [
        {
          "indexed": true,
          "internalType": "address",
          "name": "account",
          "type": "address"
        },
        {
          "indexed": false,
          "internalType": "uint256",
          "name": "tokenId",
          "type": "uint256"
        },
        {
          "indexed": false,
          "internalType": "uint256",
          "name": "amount",
          "type": "uint256"
        }
      ],
      "name": "IncreaseToPool",
      "type": "event"
    },
    {
      "anonymous": false,
      "inputs": [
        {
          "indexed": true,
          "internalType": "address",
          "name": "user",
          "type": "address"
        },
        {
          "indexed": true,
          "internalType": "uint256",
          "name": "tokenId",
          "type": "uint256"
        },
        {
          "indexed": false,
          "internalType": "uint256",
          "name": "amount",
          "type": "uint256"
        }
      ],
      "name": "Infuse",
      "type": "event"
    },
    {
      "anonymous": false,
      "inputs": [
        {
          "indexed": false,
          "internalType": "uint8",
          "name": "version",
          "type": "uint8"
        }
      ],
      "name": "Initialized",
      "type": "event"
    },
    {
      "anonymous": false,
      "inputs": [
        {
          "indexed": false,
          "internalType": "uint256",
          "name": "",
          "type": "uint256"
        }
      ],
      "name": "NewSeason",
      "type": "event"
    },
    {
      "anonymous": false,
      "inputs": [
        {
          "indexed": false,
          "internalType": "uint256",
          "name": "price",
          "type": "uint256"
        }
      ],
      "name": "NewSoupPrice",
      "type": "event"
    },
    {
      "anonymous": false,
      "inputs": [
        {
          "indexed": true,
          "internalType": "address",
          "name": "previousOwner",
          "type": "address"
        },
        {
          "indexed": true,
          "internalType": "address",
          "name": "newOwner",
          "type": "address"
        }
      ],
      "name": "OwnershipTransferred",
      "type": "event"
    },
    {
      "anonymous": false,
      "inputs": [
        {
          "indexed": false,
          "internalType": "address",
          "name": "account",
          "type": "address"
        }
      ],
      "name": "Paused",
      "type": "event"
    },
    {
      "anonymous": false,
      "inputs": [
        {
          "indexed": false,
          "internalType": "address",
          "name": "referee",
          "type": "address"
        },
        {
          "indexed": false,
          "internalType": "address",
          "name": "referrer",
          "type": "address"
        }
      ],
      "name": "Refer",
      "type": "event"
    },
    {
      "anonymous": false,
      "inputs": [
        {
          "indexed": true,
          "internalType": "address",
          "name": "from",
          "type": "address"
        },
        {
          "indexed": true,
          "internalType": "address",
          "name": "to",
          "type": "address"
        },
        {
          "indexed": true,
          "internalType": "uint256",
          "name": "tokenId",
          "type": "uint256"
        }
      ],
      "name": "Transfer",
      "type": "event"
    },
    {
      "anonymous": false,
      "inputs": [
        {
          "indexed": false,
          "internalType": "address",
          "name": "account",
          "type": "address"
        }
      ],
      "name": "Unpaused",
      "type": "event"
    },
    {
      "anonymous": false,
      "inputs": [
        {
          "indexed": true,
          "internalType": "address",
          "name": "implementation",
          "type": "address"
        }
      ],
      "name": "Upgraded",
      "type": "event"
    },
    {
      "inputs": [
        {
          "internalType": "address",
          "name": "to",
          "type": "address"
        },
        {
          "internalType": "uint256",
          "name": "tokenId",
          "type": "uint256"
        }
      ],
      "name": "approve",
      "outputs": [],
      "stateMutability": "nonpayable",
      "type": "function"
    },
    {
      "inputs": [
        {
          "internalType": "address",
          "name": "owner",
          "type": "address"
        }
      ],
      "name": "balanceOf",
      "outputs": [
        {
          "internalType": "uint256",
          "name": "",
          "type": "uint256"
        }
      ],
      "stateMutability": "view",
      "type": "function"
    },
    {
      "inputs": [
        {
          "internalType": "address",
          "name": "user",
          "type": "address"
        },
        {
          "internalType": "uint256",
          "name": "amount",
          "type": "uint256"
        }
      ],
      "name": "baptise",
      "outputs": [],
      "stateMutability": "nonpayable",
      "type": "function"
    },
    {
      "inputs": [
        {
          "internalType": "uint256",
          "name": "amount",
          "type": "uint256"
        }
      ],
      "name": "burnFromBurnPool",
      "outputs": [],
      "stateMutability": "nonpayable",
      "type": "function"
    },
    {
      "inputs": [],
      "name": "burnPool",
      "outputs": [
        {
          "internalType": "address",
          "name": "",
          "type": "address"
        }
      ],
      "stateMutability": "view",
      "type": "function"
    },
    {
      "inputs": [
        {
          "internalType": "address",
          "name": "account",
          "type": "address"
        },
        {
          "internalType": "uint256",
          "name": "amount",
          "type": "uint256"
        },
        {
          "internalType": "enum PortalLib.RewardType",
          "name": "rewardType",
          "type": "uint8"
        }
      ],
      "name": "calculateReferReward",
      "outputs": [
        {
          "internalType": "address",
          "name": "ref1",
          "type": "address"
        },
        {
          "internalType": "uint256",
          "name": "ref1Reward",
          "type": "uint256"
        },
        {
          "internalType": "address",
          "name": "ref2",
          "type": "address"
        },
        {
          "internalType": "uint256",
          "name": "ref2Reward",
          "type": "uint256"
        }
      ],
      "stateMutability": "view",
      "type": "function"
    },
    {
      "inputs": [
        {
          "internalType": "bytes",
          "name": "",
          "type": "bytes"
        }
      ],
      "name": "checkUpkeep",
      "outputs": [
        {
          "internalType": "bool",
          "name": "upkeepNeeded",
          "type": "bool"
        },
        {
          "internalType": "bytes",
          "name": "performData",
          "type": "bytes"
        }
      ],
      "stateMutability": "view",
      "type": "function"
    },
    {
      "inputs": [
        {
          "internalType": "uint256[]",
          "name": "tokenIds",
          "type": "uint256[]"
        }
      ],
      "name": "claimDrops",
      "outputs": [],
      "stateMutability": "nonpayable",
      "type": "function"
    },
    {
      "inputs": [
        {
          "internalType": "uint256[]",
          "name": "tokenIds",
          "type": "uint256[]"
        }
      ],
      "name": "claimNativeDrops",
      "outputs": [],
      "stateMutability": "nonpayable",
      "type": "function"
    },
    {
      "inputs": [],
      "name": "claimOwnership",
      "outputs": [],
      "stateMutability": "nonpayable",
      "type": "function"
    },
    {
      "inputs": [
        {
          "internalType": "uint256[]",
          "name": "tokenIds",
          "type": "uint256[]"
        }
      ],
      "name": "claimRebornDrops",
      "outputs": [],
      "stateMutability": "nonpayable",
      "type": "function"
    },
    {
      "inputs": [
        {
          "internalType": "bytes32",
          "name": "seed",
          "type": "bytes32"
        },
        {
          "internalType": "address",
          "name": "user",
          "type": "address"
        },
        {
          "internalType": "uint256",
          "name": "reward",
          "type": "uint256"
        },
        {
          "internalType": "uint256",
          "name": "score",
          "type": "uint256"
        },
        {
          "internalType": "uint256",
          "name": "age",
          "type": "uint256"
        },
        {
          "internalType": "uint256",
          "name": "cost",
          "type": "uint256"
        },
        {
          "internalType": "string",
          "name": "creatorName",
          "type": "string"
        }
      ],
      "name": "engrave",
      "outputs": [],
      "stateMutability": "nonpayable",
      "type": "function"
    },
    {
      "inputs": [
        {
          "internalType": "uint256",
          "name": "tokenId",
          "type": "uint256"
        }
      ],
      "name": "flattenRewardDebt",
      "outputs": [],
      "stateMutability": "nonpayable",
      "type": "function"
    },
    {
      "inputs": [
        {
          "internalType": "uint256",
          "name": "tokenId",
          "type": "uint256"
        }
      ],
      "name": "getApproved",
      "outputs": [
        {
          "internalType": "address",
          "name": "",
          "type": "address"
        }
      ],
      "stateMutability": "view",
      "type": "function"
    },
    {
      "inputs": [],
      "name": "getDropConf",
      "outputs": [
        {
          "components": [
            {
              "internalType": "uint8",
              "name": "_dropOn",
              "type": "uint8"
            },
            {
              "internalType": "uint40",
              "name": "_rebornDropInterval",
              "type": "uint40"
            },
            {
              "internalType": "uint40",
              "name": "_nativeDropInterval",
              "type": "uint40"
            },
            {
              "internalType": "uint40",
              "name": "_rebornDropLastUpdate",
              "type": "uint40"
            },
            {
              "internalType": "uint40",
              "name": "_nativeDropLastUpdate",
              "type": "uint40"
            },
            {
              "internalType": "uint16",
              "name": "_nativeTopDropRatio",
              "type": "uint16"
            },
            {
              "internalType": "uint16",
              "name": "_nativeRaffleDropRatio",
              "type": "uint16"
            },
            {
              "internalType": "uint16",
              "name": "_rebornTopEthAmount",
              "type": "uint16"
            },
            {
              "internalType": "uint40",
              "name": "_rebornRaffleEthAmount",
              "type": "uint40"
            }
          ],
          "internalType": "struct PortalLib.AirdropConf",
          "name": "",
          "type": "tuple"
        }
      ],
      "stateMutability": "view",
      "type": "function"
    },
    {
      "inputs": [
        {
          "internalType": "uint256",
          "name": "tokenId",
          "type": "uint256"
        }
      ],
      "name": "getPool",
      "outputs": [
        {
          "components": [
            {
              "internalType": "uint256",
              "name": "totalAmount",
              "type": "uint256"
            },
            {
              "internalType": "uint256",
              "name": "accRebornPerShare",
              "type": "uint256"
            },
            {
              "internalType": "uint256",
              "name": "accNativePerShare",
              "type": "uint256"
            },
            {
              "internalType": "uint256",
              "name": "epoch",
              "type": "uint256"
            },
            {
              "internalType": "uint256",
              "name": "lastUpdated",
              "type": "uint256"
            }
          ],
          "internalType": "struct PortalLib.Pool",
          "name": "",
          "type": "tuple"
        }
      ],
      "stateMutability": "view",
      "type": "function"
    },
    {
      "inputs": [
        {
          "internalType": "address",
          "name": "user",
          "type": "address"
        },
        {
          "internalType": "uint256",
          "name": "tokenId",
          "type": "uint256"
        }
      ],
      "name": "getPortfolio",
      "outputs": [
        {
          "components": [
            {
              "internalType": "uint256",
              "name": "accumulativeAmount",
              "type": "uint256"
            },
            {
              "internalType": "uint256",
              "name": "rebornRewardDebt",
              "type": "uint256"
            },
            {
              "internalType": "uint256",
              "name": "nativeRewardDebt",
              "type": "uint256"
            },
            {
              "internalType": "uint256",
              "name": "pendingOwnerRebornReward",
              "type": "uint256"
            },
            {
              "internalType": "uint256",
              "name": "pendingOwernNativeReward",
              "type": "uint256"
            }
          ],
          "internalType": "struct PortalLib.Portfolio",
          "name": "",
          "type": "tuple"
        }
      ],
      "stateMutability": "view",
      "type": "function"
    },
    {
      "inputs": [
        {
          "internalType": "address",
          "name": "account",
          "type": "address"
        }
      ],
      "name": "getRerferrers",
      "outputs": [
        {
          "internalType": "address",
          "name": "referrer1",
          "type": "address"
        },
        {
          "internalType": "address",
          "name": "referrer2",
          "type": "address"
        }
      ],
      "stateMutability": "view",
      "type": "function"
    },
    {
      "inputs": [
        {
          "components": [
            {
              "internalType": "uint256",
              "name": "talentPrice",
              "type": "uint256"
            },
            {
              "internalType": "uint256",
              "name": "propertyPrice",
              "type": "uint256"
            }
          ],
          "internalType": "struct IRebornDefination.Innate",
          "name": "innate",
          "type": "tuple"
        },
        {
          "internalType": "address",
          "name": "referrer",
          "type": "address"
        },
        {
          "internalType": "uint256",
          "name": "_soupPrice",
          "type": "uint256"
        }
      ],
      "name": "incarnate",
      "outputs": [],
      "stateMutability": "payable",
      "type": "function"
    },
    {
      "inputs": [
        {
          "internalType": "uint256",
          "name": "tokenId",
          "type": "uint256"
        },
        {
          "internalType": "uint256",
          "name": "amount",
          "type": "uint256"
        },
        {
          "internalType": "uint256",
          "name": "permitAmount",
          "type": "uint256"
        },
        {
          "internalType": "uint256",
          "name": "deadline",
          "type": "uint256"
        },
        {
          "internalType": "bytes32",
          "name": "r",
          "type": "bytes32"
        },
        {
          "internalType": "bytes32",
          "name": "s",
          "type": "bytes32"
        },
        {
          "internalType": "uint8",
          "name": "v",
          "type": "uint8"
        }
      ],
      "name": "infuse",
      "outputs": [],
      "stateMutability": "nonpayable",
      "type": "function"
    },
    {
      "inputs": [
        {
          "internalType": "uint256",
          "name": "tokenId",
          "type": "uint256"
        },
        {
          "internalType": "uint256",
          "name": "amount",
          "type": "uint256"
        }
      ],
      "name": "infuse",
      "outputs": [],
      "stateMutability": "nonpayable",
      "type": "function"
    },
    {
      "inputs": [
        {
          "internalType": "contract RBT",
          "name": "rebornToken_",
          "type": "address"
        },
        {
          "internalType": "address",
          "name": "owner_",
          "type": "address"
        },
        {
          "internalType": "string",
          "name": "name_",
          "type": "string"
        },
        {
          "internalType": "string",
          "name": "symbol_",
          "type": "string"
        },
        {
          "internalType": "address",
          "name": "_vrfCoordinator",
          "type": "address"
        }
      ],
      "name": "initialize",
      "outputs": [],
      "stateMutability": "nonpayable",
      "type": "function"
    },
    {
      "inputs": [
        {
          "internalType": "address",
          "name": "owner",
          "type": "address"
        },
        {
          "internalType": "address",
          "name": "operator",
          "type": "address"
        }
      ],
      "name": "isApprovedForAll",
      "outputs": [
        {
          "internalType": "bool",
          "name": "",
          "type": "bool"
        }
      ],
      "stateMutability": "view",
      "type": "function"
    },
    {
      "inputs": [],
      "name": "name",
      "outputs": [
        {
          "internalType": "string",
          "name": "",
          "type": "string"
        }
      ],
      "stateMutability": "view",
      "type": "function"
    },
    {
      "inputs": [],
      "name": "owner",
      "outputs": [
        {
          "internalType": "address",
          "name": "",
          "type": "address"
        }
      ],
      "stateMutability": "view",
      "type": "function"
    },
    {
      "inputs": [
        {
          "internalType": "uint256",
          "name": "tokenId",
          "type": "uint256"
        }
      ],
      "name": "ownerOf",
      "outputs": [
        {
          "internalType": "address",
          "name": "",
          "type": "address"
        }
      ],
      "stateMutability": "view",
      "type": "function"
    },
    {
      "inputs": [],
      "name": "pause",
      "outputs": [],
      "stateMutability": "nonpayable",
      "type": "function"
    },
    {
      "inputs": [],
      "name": "paused",
      "outputs": [
        {
          "internalType": "bool",
          "name": "",
          "type": "bool"
        }
      ],
      "stateMutability": "view",
      "type": "function"
    },
    {
      "inputs": [
        {
          "internalType": "uint256[]",
          "name": "tokenIds",
          "type": "uint256[]"
        }
      ],
      "name": "pendingDrop",
      "outputs": [
        {
          "internalType": "uint256",
          "name": "pNative",
          "type": "uint256"
        },
        {
          "internalType": "uint256",
          "name": "pReborn",
          "type": "uint256"
        }
      ],
      "stateMutability": "view",
      "type": "function"
    },
    {
      "inputs": [],
      "name": "pendingOwner",
      "outputs": [
        {
          "internalType": "address",
          "name": "",
          "type": "address"
        }
      ],
      "stateMutability": "view",
      "type": "function"
    },
    {
      "inputs": [
        {
          "internalType": "bytes",
          "name": "performData",
          "type": "bytes"
        }
      ],
      "name": "performUpkeep",
      "outputs": [],
      "stateMutability": "nonpayable",
      "type": "function"
    },
    {
      "inputs": [],
      "name": "proxiableUUID",
      "outputs": [
        {
          "internalType": "bytes32",
          "name": "",
          "type": "bytes32"
        }
      ],
      "stateMutability": "view",
      "type": "function"
    },
    {
      "inputs": [
        {
          "internalType": "uint256",
          "name": "requestId",
          "type": "uint256"
        },
        {
          "internalType": "uint256[]",
          "name": "randomWords",
          "type": "uint256[]"
        }
      ],
      "name": "rawFulfillRandomWords",
      "outputs": [],
      "stateMutability": "nonpayable",
      "type": "function"
    },
    {
      "inputs": [],
      "name": "rebornToken",
      "outputs": [
        {
          "internalType": "contract RBT",
          "name": "",
          "type": "address"
        }
      ],
      "stateMutability": "view",
      "type": "function"
    },
    {
      "inputs": [
        {
          "internalType": "address",
          "name": "",
          "type": "address"
        }
      ],
      "name": "referrals",
      "outputs": [
        {
          "internalType": "address",
          "name": "",
          "type": "address"
        }
      ],
      "stateMutability": "view",
      "type": "function"
    },
    {
      "inputs": [],
      "name": "renounceOwnership",
      "outputs": [],
      "stateMutability": "nonpayable",
      "type": "function"
    },
    {
      "inputs": [],
      "name": "rewardFees",
      "outputs": [
        {
          "internalType": "uint16",
          "name": "incarnateRef1Fee",
          "type": "uint16"
        },
        {
          "internalType": "uint16",
          "name": "incarnateRef2Fee",
          "type": "uint16"
        },
        {
          "internalType": "uint16",
          "name": "vaultRef1Fee",
          "type": "uint16"
        },
        {
          "internalType": "uint16",
          "name": "vaultRef2Fee",
          "type": "uint16"
        },
        {
          "internalType": "uint192",
          "name": "_slotPlaceholder",
          "type": "uint192"
        }
      ],
      "stateMutability": "view",
      "type": "function"
    },
    {
      "inputs": [
        {
          "internalType": "address",
          "name": "from",
          "type": "address"
        },
        {
          "internalType": "address",
          "name": "to",
          "type": "address"
        },
        {
          "internalType": "uint256",
          "name": "tokenId",
          "type": "uint256"
        }
      ],
      "name": "safeTransferFrom",
      "outputs": [],
      "stateMutability": "nonpayable",
      "type": "function"
    },
    {
      "inputs": [
        {
          "internalType": "address",
          "name": "from",
          "type": "address"
        },
        {
          "internalType": "address",
          "name": "to",
          "type": "address"
        },
        {
          "internalType": "uint256",
          "name": "tokenId",
          "type": "uint256"
        },
        {
          "internalType": "bytes",
          "name": "data",
          "type": "bytes"
        }
      ],
      "name": "safeTransferFrom",
      "outputs": [],
      "stateMutability": "nonpayable",
      "type": "function"
    },
    {
      "inputs": [
        {
          "internalType": "bytes32",
          "name": "seed",
          "type": "bytes32"
        }
      ],
      "name": "seedExists",
      "outputs": [
        {
          "internalType": "bool",
          "name": "",
          "type": "bool"
        }
      ],
      "stateMutability": "view",
      "type": "function"
    },
    {
      "inputs": [
        {
          "internalType": "address",
          "name": "operator",
          "type": "address"
        },
        {
          "internalType": "bool",
          "name": "approved",
          "type": "bool"
        }
      ],
      "name": "setApprovalForAll",
      "outputs": [],
      "stateMutability": "nonpayable",
      "type": "function"
    },
    {
      "inputs": [
        {
          "internalType": "address",
          "name": "burnPool_",
          "type": "address"
        }
      ],
      "name": "setBurnPool",
      "outputs": [],
      "stateMutability": "nonpayable",
      "type": "function"
    },
    {
      "inputs": [
        {
          "components": [
            {
              "internalType": "uint8",
              "name": "_dropOn",
              "type": "uint8"
            },
            {
              "internalType": "uint40",
              "name": "_rebornDropInterval",
              "type": "uint40"
            },
            {
              "internalType": "uint40",
              "name": "_nativeDropInterval",
              "type": "uint40"
            },
            {
              "internalType": "uint40",
              "name": "_rebornDropLastUpdate",
              "type": "uint40"
            },
            {
              "internalType": "uint40",
              "name": "_nativeDropLastUpdate",
              "type": "uint40"
            },
            {
              "internalType": "uint16",
              "name": "_nativeTopDropRatio",
              "type": "uint16"
            },
            {
              "internalType": "uint16",
              "name": "_nativeRaffleDropRatio",
              "type": "uint16"
            },
            {
              "internalType": "uint16",
              "name": "_rebornTopEthAmount",
              "type": "uint16"
            },
            {
              "internalType": "uint40",
              "name": "_rebornRaffleEthAmount",
              "type": "uint40"
            }
          ],
          "internalType": "struct PortalLib.AirdropConf",
          "name": "conf",
          "type": "tuple"
        }
      ],
      "name": "setDropConf",
      "outputs": [],
      "stateMutability": "nonpayable",
      "type": "function"
    },
    {
      "inputs": [
        {
          "internalType": "uint16",
          "name": "refL1Fee",
          "type": "uint16"
        },
        {
          "internalType": "uint16",
          "name": "refL2Fee",
          "type": "uint16"
        },
        {
          "internalType": "enum PortalLib.RewardType",
          "name": "rewardType",
          "type": "uint8"
        }
      ],
      "name": "setReferrerRewardFee",
      "outputs": [],
      "stateMutability": "nonpayable",
      "type": "function"
    },
    {
      "inputs": [
        {
          "internalType": "contract RewardVault",
          "name": "vault_",
          "type": "address"
        }
      ],
      "name": "setVault",
      "outputs": [],
      "stateMutability": "nonpayable",
      "type": "function"
    },
    {
      "inputs": [
        {
          "components": [
            {
              "internalType": "bytes32",
              "name": "keyHash",
              "type": "bytes32"
            },
            {
              "internalType": "uint64",
              "name": "s_subscriptionId",
              "type": "uint64"
            },
            {
              "internalType": "uint32",
              "name": "callbackGasLimit",
              "type": "uint32"
            },
            {
              "internalType": "uint32",
              "name": "numWords",
              "type": "uint32"
            },
            {
              "internalType": "uint16",
              "name": "requestConfirmations",
              "type": "uint16"
            }
          ],
          "internalType": "struct PortalLib.VrfConf",
          "name": "conf",
          "type": "tuple"
        }
      ],
      "name": "setVrfConf",
      "outputs": [],
      "stateMutability": "nonpayable",
      "type": "function"
    },
    {
      "inputs": [
        {
          "internalType": "address",
          "name": "",
          "type": "address"
        }
      ],
      "name": "signers",
      "outputs": [
        {
          "internalType": "bool",
          "name": "",
          "type": "bool"
        }
      ],
      "stateMutability": "view",
      "type": "function"
    },
    {
      "inputs": [
        {
          "internalType": "bytes4",
          "name": "interfaceId",
          "type": "bytes4"
        }
      ],
      "name": "supportsInterface",
      "outputs": [
        {
          "internalType": "bool",
          "name": "",
          "type": "bool"
        }
      ],
      "stateMutability": "view",
      "type": "function"
    },
    {
      "inputs": [
        {
          "internalType": "uint256",
          "name": "fromTokenId",
          "type": "uint256"
        },
        {
          "internalType": "uint256",
          "name": "toTokenId",
          "type": "uint256"
        },
        {
          "internalType": "uint256",
          "name": "amount",
          "type": "uint256"
        }
      ],
      "name": "switchPool",
      "outputs": [],
      "stateMutability": "nonpayable",
      "type": "function"
    },
    {
      "inputs": [],
      "name": "symbol",
      "outputs": [
        {
          "internalType": "string",
          "name": "",
          "type": "string"
        }
      ],
      "stateMutability": "view",
      "type": "function"
    },
    {
      "inputs": [],
      "name": "toNextSeason",
      "outputs": [],
      "stateMutability": "nonpayable",
      "type": "function"
    },
    {
      "inputs": [
        {
          "internalType": "uint256",
          "name": "tokenId",
          "type": "uint256"
        }
      ],
      "name": "tokenURI",
      "outputs": [
        {
          "internalType": "string",
          "name": "",
          "type": "string"
        }
      ],
      "stateMutability": "view",
      "type": "function"
    },
    {
      "inputs": [
        {
          "internalType": "address",
          "name": "from",
          "type": "address"
        },
        {
          "internalType": "address",
          "name": "to",
          "type": "address"
        },
        {
          "internalType": "uint256",
          "name": "tokenId",
          "type": "uint256"
        }
      ],
      "name": "transferFrom",
      "outputs": [],
      "stateMutability": "nonpayable",
      "type": "function"
    },
    {
      "inputs": [
        {
          "internalType": "address",
          "name": "newOwner",
          "type": "address"
        },
        {
          "internalType": "bool",
          "name": "direct",
          "type": "bool"
        }
      ],
      "name": "transferOwnership",
      "outputs": [],
      "stateMutability": "nonpayable",
      "type": "function"
    },
    {
      "inputs": [],
      "name": "unPause",
      "outputs": [],
      "stateMutability": "nonpayable",
      "type": "function"
    },
    {
      "inputs": [
        {
          "internalType": "address[]",
          "name": "toAdd",
          "type": "address[]"
        },
        {
          "internalType": "address[]",
          "name": "toRemove",
          "type": "address[]"
        }
      ],
      "name": "updateSigners",
      "outputs": [],
      "stateMutability": "nonpayable",
      "type": "function"
    },
    {
      "inputs": [
        {
          "internalType": "address",
          "name": "newImplementation",
          "type": "address"
        }
      ],
      "name": "upgradeTo",
      "outputs": [],
      "stateMutability": "nonpayable",
      "type": "function"
    },
    {
      "inputs": [
        {
          "internalType": "address",
          "name": "newImplementation",
          "type": "address"
        },
        {
          "internalType": "bytes",
          "name": "data",
          "type": "bytes"
        }
      ],
      "name": "upgradeToAndCall",
      "outputs": [],
      "stateMutability": "payable",
      "type": "function"
    },
    {
      "inputs": [],
      "name": "vault",
      "outputs": [
        {
          "internalType": "contract RewardVault",
          "name": "",
          "type": "address"
        }
      ],
      "stateMutability": "view",
      "type": "function"
    },
    {
      "inputs": [
        {
          "internalType": "uint256",
          "name": "amount",
          "type": "uint256"
        }
      ],
      "name": "withdrawNativeToken",
      "outputs": [],
      "stateMutability": "nonpayable",
      "type": "function"
    },
    {
      "inputs": [
        {
          "internalType": "address",
          "name": "to",
          "type": "address"
        }
      ],
      "name": "withdrawVault",
      "outputs": [],
      "stateMutability": "nonpayable",
      "type": "function"
    }
  ],
  "transactionHash": "0xa9708b14170927deb45406c27ba50a7f5205e5efcc737f71e14a40dfb856c860",
  "args": [],
  "numDeployments": 16,
  "solcInputHash": "2d2ed35dc101d5cd9b44626a5bcdbbc9",
  "bytecode": "0x60a06040523060805234801561001457600080fd5b50608051615fa66200004d6000396000818161183701528181611877015281816119ce01528181611a0e0152611a9d0152615fa66000f3fe6080604052600436106103a25760003560e01c806370a08231116101e7578063a54b2a731161010d578063c87b56dd116100a0578063e985e9c51161006f578063e985e9c514610cb8578063f7b188a514610d02578063fbd7823514610d17578063fbfa77cf14610d3757600080fd5b8063c87b56dd14610c3a578063db64008114610c5a578063e30c397814610c7a578063e4421be214610c9857600080fd5b8063b88d4fde116100dc578063b88d4fde14610b81578063b9e53a9f14610ba1578063c3b82b8d14610bb4578063c417db6914610bd457600080fd5b8063a54b2a7314610b0b578063a94466c014610b2c578063afd5f74714610b4c578063b242e53414610b6157600080fd5b80638da5cb5b116101855780639aab85e5116101545780639aab85e514610a745780639ca423b314610a945780639d21504214610acb578063a22cb46514610aeb57600080fd5b80638da5cb5b14610a01578063918c49e414610a1f5780639208b21e14610a3f57806395d89b4114610a5f57600080fd5b806376f7a9fc116101c157806376f7a9fc1461098c578063802e9cfa146109ac5780638456cb59146109cc5780638d47a30d146109e157600080fd5b806370a0823114610927578063715018a614610947578063736c0d5b1461095c57600080fd5b8063350b2369116102cc5780634f1ef2861161026a578063603d080011610239578063603d0800146108995780636352211e146108b95780636817031b146108d95780636e04ff0d146108f957600080fd5b80634f1ef2861461082a57806352d1902d1461083d57806358c7a063146108605780635c975abb1461088057600080fd5b806339c17502116102a657806339c17502146106db57806342842e0e146107d55780634585e33b146107f55780634e71e0c81461081557600080fd5b8063350b23691461067b578063362925c21461069b5780633659cfe6146106bb57600080fd5b806316a065c61161034457806323b872dd1161031357806323b872dd1461055a578063282753381461057a5780632bf8e8f61461059a57806332eb808a1461062657600080fd5b806316a065c6146104da57806317e0f252146104fa5780631fe543e31461051a57806320dfe3c61461053a57600080fd5b8063081812fc11610380578063081812fc1461042b578063095ea7b3146104635780630aaef802146104855780630e357a6e146104ba57600080fd5b806301ffc9a7146103a7578063068bcd8d146103dc57806306fdde0314610409575b600080fd5b3480156103b357600080fd5b506103c76103c2366004614996565b610d58565b60405190151581526020015b60405180910390f35b3480156103e857600080fd5b506103fc6103f73660046149b3565b610daa565b6040516103d391906149cc565b34801561041557600080fd5b5061041e610e38565b6040516103d39190614a55565b34801561043757600080fd5b5061044b6104463660046149b3565b610ecb565b6040516001600160a01b0390911681526020016103d3565b34801561046f57600080fd5b5061048361047e366004614a7d565b610ef3565b005b34801561049157600080fd5b506104a56104a0366004614b7d565b61100d565b604080519283526020830191909152016103d3565b3480156104c657600080fd5b506103fc6104d5366004614a7d565b6110a6565b3480156104e657600080fd5b5060fc5461044b906001600160a01b031681565b34801561050657600080fd5b506104836105153660046149b3565b611146565b34801561052657600080fd5b50610483610535366004614bb1565b6111a2565b34801561054657600080fd5b50610483610555366004614c38565b6111ee565b34801561056657600080fd5b50610483610575366004614cbd565b611525565b34801561058657600080fd5b50610483610595366004614d42565b611556565b3480156105a657600080fd5b50610103546105e89061ffff808216916201000081048216916401000000008204811691600160301b810490911690600160401b90046001600160c01b031685565b6040805161ffff968716815294861660208601529285169284019290925290921660608201526001600160c01b03909116608082015260a0016103d3565b34801561063257600080fd5b50610646610641366004614d97565b61159c565b6040516103d394939291906001600160a01b039485168152602081019390935292166040820152606081019190915260800190565b34801561068757600080fd5b50610483610696366004614dd5565b611637565b3480156106a757600080fd5b506104836106b6366004614eb8565b6116d8565b3480156106c757600080fd5b506104836106d6366004614f55565b61182d565b3480156106e757600080fd5b506107c86040805161012081018252600080825260208201819052918101829052606081018290526080810182905260a0810182905260c0810182905260e081018290526101008101919091525060408051610120810182526101065460ff8116825264ffffffffff61010080830482166020850152600160301b8304821694840194909452600160581b820481166060840152600160801b82048116608084015261ffff600160a81b8304811660a0850152600160b81b8304811660c0850152600160c81b83041660e0840152600160d81b909104169181019190915290565b6040516103d39190614f72565b3480156107e157600080fd5b506104836107f0366004614cbd565b61190c565b34801561080157600080fd5b5061048361081036600461503c565b611927565b34801561082157600080fd5b5061048361198f565b610483610838366004615071565b6119c4565b34801561084957600080fd5b50610852611a90565b6040519081526020016103d3565b34801561086c57600080fd5b5061048361087b366004614a7d565b611b43565b34801561088c57600080fd5b506101945460ff166103c7565b3480156108a557600080fd5b506104836108b4366004614f55565b611c01565b3480156108c557600080fd5b5061044b6108d43660046149b3565b611c76565b3480156108e557600080fd5b506104836108f4366004614f55565b611cd7565b34801561090557600080fd5b5061091961091436600461503c565b611d25565b6040516103d39291906150b6565b34801561093357600080fd5b50610852610942366004614f55565b611fb6565b34801561095357600080fd5b5061048361203d565b34801561096857600080fd5b506103c7610977366004614f55565b60fd6020526000908152604090205460ff1681565b34801561099857600080fd5b506104836109a73660046150d1565b612072565b3480156109b857600080fd5b506104836109c7366004614f55565b6120e8565b3480156109d857600080fd5b50610483612177565b3480156109ed57600080fd5b506104836109fc366004614d42565b6121aa565b348015610a0d57600080fd5b506033546001600160a01b031661044b565b348015610a2b57600080fd5b50610483610a3a3660046150f9565b612287565b348015610a4b57600080fd5b50610483610a5a366004615174565b6122b8565b348015610a6b57600080fd5b5061041e61234e565b348015610a8057600080fd5b50610483610a8f3660046149b3565b61235e565b348015610aa057600080fd5b5061044b610aaf366004614f55565b610102602052600090815260409020546001600160a01b031681565b348015610ad757600080fd5b50610483610ae63660046151b2565b6123bb565b348015610af757600080fd5b50610483610b063660046151d2565b612426565b348015610b1757600080fd5b506101075461044b906001600160a01b031681565b348015610b3857600080fd5b50610483610b473660046149b3565b612431565b348015610b5857600080fd5b506104836124a7565b348015610b6d57600080fd5b50610483610b7c3660046151d2565b612530565b348015610b8d57600080fd5b50610483610b9c36600461520b565b6125b0565b610483610baf366004615276565b6125e2565b348015610bc057600080fd5b50610483610bcf3660046152f0565b612610565b348015610be057600080fd5b50610c1a610bef366004614f55565b6001600160a01b03908116600090815261010260205260408082205483168083529120549092911690565b604080516001600160a01b039384168152929091166020830152016103d3565b348015610c4657600080fd5b5061041e610c553660046149b3565b61263e565b348015610c6657600080fd5b50610483610c75366004614d42565b6126c1565b348015610c8657600080fd5b506034546001600160a01b031661044b565b348015610ca457600080fd5b50610483610cb336600461531c565b61278c565b348015610cc457600080fd5b506103c7610cd336600461533e565b6001600160a01b0391821660009081526101356020908152604080832093909416825291909152205460ff1690565b348015610d0e57600080fd5b506104836127a7565b348015610d2357600080fd5b506103c7610d323660046149b3565b6127da565b348015610d4357600080fd5b506101045461044b906001600160a01b031681565b60006001600160e01b031982166380ac58cd60e01b1480610d8957506001600160e01b03198216635b5e139f60e01b145b80610da457506301ffc9a760e01b6001600160e01b03198316145b92915050565b610ddc6040518060a0016040528060008152602001600081526020016000815260200160008152602001600081525090565b5060fb5460009081526101016020908152604080832093835292815290829020825160a0810184528154815260018201549281019290925260028101549282019290925260038201546060820152600490910154608082015290565b60606101308054610e489061536c565b80601f0160208091040260200160405190810160405280929190818152602001828054610e749061536c565b8015610ec15780601f10610e9657610100808354040283529160200191610ec1565b820191906000526020600020905b815481529060010190602001808311610ea457829003601f168201915b5050505050905090565b6000610ed6826127fe565b50600090815261013460205260409020546001600160a01b031690565b6000610efe82611c76565b9050806001600160a01b0316836001600160a01b031603610f705760405162461bcd60e51b815260206004820152602160248201527f4552433732313a20617070726f76616c20746f2063757272656e74206f776e656044820152603960f91b60648201526084015b60405180910390fd5b336001600160a01b0382161480610f8c5750610f8c8133610cd3565b610ffe5760405162461bcd60e51b815260206004820152603d60248201527f4552433732313a20617070726f76652063616c6c6572206973206e6f7420746f60448201527f6b656e206f776e6572206f7220617070726f76656420666f7220616c6c0000006064820152608401610f67565b611008838361285e565b505050565b60fb5460009081526101016020526040808220905163c6533a5360e01b815282917310aB092D106ec57303262C382B3eAAb1D20e1D119163c6533a539161105d91600182019088906004016153db565b6040805180830381865af4158015611079573d6000803e3d6000fd5b505050506040513d601f19601f8201168201806040525081019061109d91906153fa565b91509150915091565b6110d86040518060a0016040528060008152602001600081526020016000815260200160008152602001600081525090565b5060fb546000908152610101602090815260408083206001600160a01b038616845260019081018352818420858552835292819020815160a0810183528154815293810154928401929092526002820154908301526003810154606083015260040154608082015292915050565b6033546001600160a01b0316331461117157604051632e6c18c960e11b815260040160405180910390fd5b604051339082156108fc029083906000818181858888f1935050505015801561119e573d6000803e3d6000fd5b5050565b6101c6546001600160a01b031633146111e4576101c65460405163073e64fd60e21b81523360048201526001600160a01b039091166024820152604401610f67565b61119e82826128cd565b6111f6612953565b6111fe612983565b600888901c60009081526101056020526040902054600160ff8a161b161561123957604051630490d63160e01b815260040160405180910390fd5b600888901c6000908152610105602052604081208054600160ff8c161b17905561126b46670de0b6b3a7640000615434565b60ff6000815461127a9061544b565b91829055506112899190615464565b60408051610120810182528b81526001600160a01b038b16602080830182905261ffff8a1683850152600091825260fe9052918220805493945090926060840192906112da9063ffffffff16615477565b91906101000a81548163ffffffff021916908363ffffffff160217905563ffffffff168152602001600065ffffffffffff168152602001856001600160801b03168152602001886001600160801b0316815260200187815260200184848080601f016020809104026020016040519081016040528093929190818152602001838380828437600092018290525093909452505083815261010060208181526040928390208551815590850151600182018054948701516060880151608089015165ffffffffffff16600160d01b026001600160d01b0363ffffffff909216600160b01b02919091166001600160b01b0361ffff909316600160a01b026001600160b01b03199098166001600160a01b03909516949094179690961716919091179390931790925560a084015160c08501516001600160801b03908116600160801b02911617600283015560e08401516003830155830151909150600482019061144390826154e0565b5090505061145188826129ca565b610104546040516310b3879160e11b81526001600160a01b038a81166004830152602482018a9052909116906321670f2290604401600060405180830381600087803b1580156114a057600080fd5b505af11580156114b4573d6000803e3d6000fd5b505050506114c281876129e4565b6114cc8888612a66565b80886001600160a01b03168a7faf1bba31184b4d13e4f756b22fc2755d77b6ad147f10a7b12ea6afa58a2ca5f6898b604051611512929190918252602082015260400190565b60405180910390a4505050505050505050565b61152f3382612aca565b61154b5760405162461bcd60e51b8152600401610f679061559f565b611008838383612b4a565b61155e612983565b60005b818110156110085761158a83838381811061157e5761157e6155ec565b90506020020135612cbe565b806115948161544b565b915050611561565b6000806000807310aB092D106ec57303262C382B3eAAb1D20e1D11633f3ccdf96101026101038a8a8a6040518663ffffffff1660e01b81526004016115e595949392919061563a565b608060405180830381865af4158015611602573d6000803e3d6000fd5b505050506040513d601f19601f820116820180604052508101906116269190615675565b935093509350935093509350935093565b6033546001600160a01b0316331461166257604051632e6c18c960e11b815260040160405180910390fd5b604051631bd4474f60e31b81527310aB092D106ec57303262C382B3eAAb1D20e1D119063dea23a78906116a29060fd9088908890889088906004016156fc565b60006040518083038186803b1580156116ba57600080fd5b505af41580156116ce573d6000803e3d6000fd5b5050505050505050565b600054610100900460ff16158080156116f85750600054600160ff909116105b806117125750303b158015611712575060005460ff166001145b6117755760405162461bcd60e51b815260206004820152602e60248201527f496e697469616c697a61626c653a20636f6e747261637420697320616c72656160448201526d191e481a5b9a5d1a585b1a5e995960921b6064820152608401610f67565b6000805460ff191660011790558015611798576000805461ff0019166101001790555b60fc80546001600160a01b0319166001600160a01b0388161790556117bc85612df1565b6117c68484612e21565b6117ce612e52565b6117d6612e81565b6117df82612eb0565b8015611825576000805461ff0019169055604051600181527f7f26b83ff96e1f2b6a682f133852f6798a09c465da95921460cefb38474024989060200160405180910390a15b505050505050565b6001600160a01b037f00000000000000000000000000000000000000000000000000000000000000001630036118755760405162461bcd60e51b8152600401610f6790615735565b7f00000000000000000000000000000000000000000000000000000000000000006001600160a01b03166118be600080516020615f2a833981519152546001600160a01b031690565b6001600160a01b0316146118e45760405162461bcd60e51b8152600401610f6790615781565b6118ed81612f21565b6040805160008082526020820190925261190991839190612f4c565b50565b611008838383604051806020016040528060008152506125b0565b61192f612983565b60008061193e8385018561531c565b9150915081600103611957576119526130b7565b611989565b8160020361196757611952613206565b81600303611978576119528161334e565b816004036119895761198981613589565b50505050565b6034546001600160a01b031633146119ba576040516305e05b4b60e31b815260040160405180910390fd5b6119c2613772565b565b6001600160a01b037f0000000000000000000000000000000000000000000000000000000000000000163003611a0c5760405162461bcd60e51b8152600401610f6790615735565b7f00000000000000000000000000000000000000000000000000000000000000006001600160a01b0316611a55600080516020615f2a833981519152546001600160a01b031690565b6001600160a01b031614611a7b5760405162461bcd60e51b8152600401610f6790615781565b611a8482612f21565b61119e82826001612f4c565b6000306001600160a01b037f00000000000000000000000000000000000000000000000000000000000000001614611b305760405162461bcd60e51b815260206004820152603860248201527f555550535570677261646561626c653a206d757374206e6f742062652063616c60448201527f6c6564207468726f7567682064656c656761746563616c6c00000000000000006064820152608401610f67565b50600080516020615f2a83398151915290565b611b4b612953565b611b53612983565b610104546040516310b3879160e11b81526001600160a01b03848116600483015260248201849052909116906321670f2290604401600060405180830381600087803b158015611ba257600080fd5b505af1158015611bb6573d6000803e3d6000fd5b50505050816001600160a01b03167f7a0984e898d33e4bf6ad9f851bfab5517683d3dae5b57ed58fa8c7152d822e3282604051611bf591815260200190565b60405180910390a25050565b6033546001600160a01b03163314611c2c57604051632e6c18c960e11b815260040160405180910390fd5b6001600160a01b038116611c5357604051630ae8f22360e21b815260040160405180910390fd5b61010780546001600160a01b0319166001600160a01b0392909216919091179055565b600081815261013260205260408120546001600160a01b031680610da45760405162461bcd60e51b8152602060048201526018602482015277115490cdcc8c4e881a5b9d985b1a59081d1bdad95b88125160421b6044820152606401610f67565b6033546001600160a01b03163314611d0257604051632e6c18c960e11b815260040160405180910390fd5b61010480546001600160a01b0319166001600160a01b0392909216919091179055565b6101065460009060609060ff16600103611faf5761010654611d5c9064ffffffffff6101008204811691600160581b9004166157cd565b64ffffffffff16421115611d9d57604080516001602082018190526000928201929092529092506060015b6040516020818303038152906040529050611faf565b61010654611dc29064ffffffffff600160301b8204811691600160801b9004166157cd565b64ffffffffff16421115611df057604080516002602082015260009181019190915260019250606001611d87565b60006040516305f739f960e21b815261010b6004820152730A1B039faD9Df98aef44a9603BA94A33f51e94fD906317dce7e490602401602060405180830381865af4158015611e43573d6000803e3d6000fd5b505050506040513d601f19601f82011682018060405250810190611e6791906157f2565b811015611fad5760405163c9c3102d60e01b815261010b600482015260248101829052600090730A1B039faD9Df98aef44a9603BA94A33f51e94fD9063c9c3102d90604401602060405180830381865af4158015611ec9573d6000803e3d6000fd5b505050506040513d601f19601f82011682018060405250810190611eed91906157f2565b60019450905083600082815261010a60205260409020546301000000900460ff166002811115611f1f57611f1f615602565b03611f4e5760408051600360208201529081018290526060016040516020818303038152906040529250611fa6565b6002600082815261010a60205260409020546301000000900460ff166002811115611f7b57611f7b615602565b03611fa657604080516004602082015290810182905260600160405160208183030381529060405292505b5050611faf565b505b9250929050565b60006001600160a01b0382166120205760405162461bcd60e51b815260206004820152602960248201527f4552433732313a2061646472657373207a65726f206973206e6f7420612076616044820152683634b21037bbb732b960b91b6064820152608401610f67565b506001600160a01b03166000908152610133602052604090205490565b6033546001600160a01b0316331461206857604051632e6c18c960e11b815260040160405180910390fd5b6119c260006137db565b6033546001600160a01b0316331461209d57604051632e6c18c960e11b815260040160405180910390fd5b806101066120ab8282615838565b9050507f75dab8e449fbbb96e7a6aba10424f40cd398bf158f0be1270be90389a3eeef7e816040516120dd91906159ed565b60405180910390a150565b6033546001600160a01b0316331461211357604051632e6c18c960e11b815260040160405180910390fd5b610104546040516350e0278760e11b81526001600160a01b0383811660048301529091169063a1c04f0e906024015b600060405180830381600087803b15801561215c57600080fd5b505af1158015612170573d6000803e3d6000fd5b5050505050565b6033546001600160a01b031633146121a257604051632e6c18c960e11b815260040160405180910390fd5b6119c2613851565b6121b2612983565b60005b81811015611008577310aB092D106ec57303262C382B3eAAb1D20e1D1163d4166eb08484848181106121e9576121e96155ec565b6101045460fb5460009081526101016020908152604091829020915160e088901b6001600160e01b031916815293029094013560048301526001600160a01b0316602482015260448101839052600190920160648301525060840160006040518083038186803b15801561225c57600080fd5b505af4158015612270573d6000803e3d6000fd5b50505050808061227f9061544b565b9150506121b5565b61228f612983565b61229887612cbe565b6122a585858585856138a7565b6122af8787613936565b50505050505050565b6033546001600160a01b031633146122e357604051632e6c18c960e11b815260040160405180910390fd5b604051631747e07760e01b81527310aB092D106ec57303262C382B3eAAb1D20e1D1190631747e077906123229061010390879087908790600401615ac0565b60006040518083038186803b15801561233a57600080fd5b505af41580156122af573d6000803e3d6000fd5b60606101318054610e489061536c565b6033546001600160a01b0316331461238957604051632e6c18c960e11b815260040160405180910390fd5b61010754604051630852cd8d60e31b8152600481018390526001600160a01b03909116906342966c6890602401612142565b6033546001600160a01b031633146123e657604051632e6c18c960e11b815260040160405180910390fd5b806101086123f48282615b0d565b9050507f3510c45fb24ce728b56d5136c57163ff69e25ab31ac04a1264387c7acff6c41e816040516120dd9190615ba9565b61119e3383836139fc565b60fb5460009081526101016020908152604080832084845280835281842033855260019091018352818420858552909252918290209151636496053360e01b815260048101829052602481018390529091907310aB092D106ec57303262C382B3eAAb1D20e1D1190636496053390604401612322565b6033546001600160a01b031633146124d257604051632e6c18c960e11b815260040160405180910390fd5b600160fb60008282546124e59190615464565b909155506124f39050613851565b7f3bf8992b1ca7018d446bcf1d45dc7a62e50decf5248434be4194aef15446338060fb5460405161252691815260200190565b60405180910390a1565b6033546001600160a01b0316331461255b57604051632e6c18c960e11b815260040160405180910390fd5b6001600160a01b03821661258257604051633aafecb360e21b815260040160405180910390fd5b80156125915761119e826137db565b603480546001600160a01b0319166001600160a01b0384161790555050565b6125ba3383612aca565b6125d65760405162461bcd60e51b8152600401610f679061559f565b61198984848484613acb565b6125ea612983565b6125f2613afe565b6125fb82613b59565b6126058382613c03565b611008600161016255565b612618612983565b61262183612cbe565b61262a82612cbe565b6126348382613cd6565b6110088282613def565b604051632f8218bd60e21b815261010060048201526024810182905260609073C1BEbC49c835baF377A34E69C87EBe940643e39F9063be0862f490604401600060405180830381865af4158015612699573d6000803e3d6000fd5b505050506040513d6000823e601f3d908101601f19168201604052610da49190810190615c1c565b6126c9612983565b60005b81811015611008577310aB092D106ec57303262C382B3eAAb1D20e1D1163c4deddb4848484818110612700576127006155ec565b60fb5460009081526101016020908152604091829020915160e087901b6001600160e01b0319168152920290930135600482015260248101839052600190920160448301525060640160006040518083038186803b15801561276157600080fd5b505af4158015612775573d6000803e3d6000fd5b5050505080806127849061544b565b9150506126cc565b612794612983565b61279d82612cbe565b61119e8282613936565b6033546001600160a01b031633146127d257604051632e6c18c960e11b815260040160405180910390fd5b6119c2613e54565b600881901c60009081526101056020526040812054600160ff84161b161515610da4565b600081815261013260205260409020546001600160a01b03166119095760405162461bcd60e51b8152602060048201526018602482015277115490cdcc8c4e881a5b9d985b1a59081d1bdad95b88125160421b6044820152606401610f67565b60008181526101346020526040902080546001600160a01b0319166001600160a01b038416908117909155819061289482611c76565b6001600160a01b03167f8c5be1e5ebec7d5bd14f71427d1e84f3dd0314c0f7b2291e5b200ac8c7c3b92560405160405180910390a45050565b600082815261010a602052604090205460ff161580156129015750600082815261010a6020526040902054610100900460ff165b1561119e57600082815261010a60209081526040909120825161292c92600190920191840190614920565b50600082815261010a60205260409020805460ff1916600117905561119e61010b83613e8e565b33600090815260fd602052604090205460ff166119c25760405163143606b960e31b815260040160405180910390fd5b6101945460ff16156119c25760405162461bcd60e51b815260206004820152601060248201526f14185d5cd8589b194e881c185d5cd95960821b6044820152606401610f67565b61119e828260405180602001604052806000815250613ed1565b60fb5460009081526101016020526040908190209051636ebb252160e11b81526004810191909152602481018390526044810182905273A1Aa4713da58E9709838f5eF065d40734fb476969063dd764a42906064015b60006040518083038186803b158015612a5257600080fd5b505af4158015611825573d6000803e3d6000fd5b610104546040516337a8f5a560e01b8152610102600482015261010360248201526001600160a01b0391821660448201529083166064820152608481018290527310aB092D106ec57303262C382B3eAAb1D20e1D11906337a8f5a59060a401612a3a565b600080612ad683611c76565b9050806001600160a01b0316846001600160a01b03161480612b1e57506001600160a01b038082166000908152610135602090815260408083209388168352929052205460ff165b80612b425750836001600160a01b0316612b3784610ecb565b6001600160a01b0316145b949350505050565b826001600160a01b0316612b5d82611c76565b6001600160a01b031614612b835760405162461bcd60e51b8152600401610f6790615c89565b6001600160a01b038216612be55760405162461bcd60e51b8152602060048201526024808201527f4552433732313a207472616e7366657220746f20746865207a65726f206164646044820152637265737360e01b6064820152608401610f67565b612bf28383836001613f04565b826001600160a01b0316612c0582611c76565b6001600160a01b031614612c2b5760405162461bcd60e51b8152600401610f6790615c89565b60008181526101346020908152604080832080546001600160a01b03199081169091556001600160a01b03878116808652610133855283862080546000190190559087168086528386208054600101905586865261013290945282852080549092168417909155905184937fddf252ad1be2c89b69c2b068fc378daa952ba7f163c4a11628f55a4df523b3ef91a4505050565b612cc6613afe565b60fb5460009081526101016020526040908190209051633137b76d60e21b81526004810183905260248101829052600190910160448201527310aB092D106ec57303262C382B3eAAb1D20e1D119063c4deddb49060640160006040518083038186803b158015612d3557600080fd5b505af4158015612d49573d6000803e3d6000fd5b50506101045460fb5460009081526101016020526040908190209051630d4166eb60e41b8152600481018690526001600160a01b0390921660248301526044820181905260010160648201527310aB092D106ec57303262C382B3eAAb1D20e1D11925063d4166eb0915060840160006040518083038186803b158015612dce57600080fd5b505af4158015612de2573d6000803e3d6000fd5b50505050611909600161016255565b600054610100900460ff16612e185760405162461bcd60e51b8152600401610f6790615cce565b61190981613f8e565b600054610100900460ff16612e485760405162461bcd60e51b8152600401610f6790615cce565b61119e8282613fbe565b600054610100900460ff16612e795760405162461bcd60e51b8152600401610f6790615cce565b6119c2614000565b600054610100900460ff16612ea85760405162461bcd60e51b8152600401610f6790615cce565b6119c2614027565b600054610100900460ff16612ed75760405162461bcd60e51b8152600401610f6790615cce565b6001600160a01b038116612efe57604051630cee34c560e11b815260040160405180910390fd5b6101c680546001600160a01b0319166001600160a01b0392909216919091179055565b6033546001600160a01b0316331461190957604051632e6c18c960e11b815260040160405180910390fd5b7f4910fdfa16fed3260ed0e7147f7cc6da11a60208b5b9406d12a635614ffd91435460ff1615612f7f576110088361405b565b826001600160a01b03166352d1902d6040518163ffffffff1660e01b8152600401602060405180830381865afa925050508015612fd9575060408051601f3d908101601f19168201909252612fd6918101906157f2565b60015b61303c5760405162461bcd60e51b815260206004820152602e60248201527f45524331393637557067726164653a206e657720696d706c656d656e7461746960448201526d6f6e206973206e6f74205555505360901b6064820152608401610f67565b600080516020615f2a83398151915281146130ab5760405162461bcd60e51b815260206004820152602960248201527f45524331393637557067726164653a20756e737570706f727465642070726f786044820152681a58589b195555525160ba1b6064820152608401610f67565b506110088383836140f7565b6101065460ff166000036130de5760405163a397eb4760e01b815260040160405180910390fd5b6130e74261411c565b610106805464ffffffffff92909216600160581b0264ffffffffff60581b199092169190911790556101c65461010854610109546040516305d3b1d360e41b815260048101929092526001600160401b038116602483015261ffff600160801b820416604483015263ffffffff600160401b820481166064840152600160601b9091041660848201526000916001600160a01b031690635d3b1d309060a4016020604051808303816000875af11580156131a5573d6000803e3d6000fd5b505050506040513d601f19601f820116820180604052508101906131c991906157f2565b600081815261010a60205260409020805461010061ff001982168117835592935060019263ff00ff0019909116176301000000835b021790555050565b6101065460ff1660000361322d5760405163a397eb4760e01b815260040160405180910390fd5b6132364261411c565b610106805464ffffffffff60801b1916600160801b64ffffffffff9390931683021790556101c65461010854610109546040516305d3b1d360e41b815260048101929092526001600160401b038116602483015292830461ffff166044820152600160401b830463ffffffff9081166064830152600160601b90930490921660848301526000916001600160a01b0390911690635d3b1d309060a4016020604051808303816000875af11580156132f1573d6000803e3d6000fd5b505050506040513d601f19601f8201168201806040525081019061331591906157f2565b600081815261010a60205260409020805461010061ff001982168117835592935060029263ff00ff0019909116176301000000836131fe565b6101065460ff166000036133755760405163a397eb4760e01b815260040160405180910390fd5b6000613381600a614134565b90506000613391600a605a6141d3565b60fb546000908152610101602052604090819020905163b8de8a6d60e01b81529192507310aB092D106ec57303262C382B3eAAb1D20e1D119163b8de8a6d916133e7918691610106916001820190600401615d19565b60006040518083038186803b1580156133ff57600080fd5b505af4158015613413573d6000803e3d6000fd5b5060009250600a91506134239050565b60405190808252806020026020018201604052801561344c578160200160208202803683370190505b50600085815261010a60205260408120805462ff00001916620100001781559192505b60018201548110156134ef5783605a836001018381548110613493576134936155ec565b90600052602060002001546134a89190615d5e565b815181106134b8576134b86155ec565b60200260200101518382815181106134d2576134d26155ec565b6020908102919091010152806134e78161544b565b91505061346f565b5060fb54600090815261010160205260409081902090516328a0580160e01b81527310aB092D106ec57303262C382B3eAAb1D20e1D11916328a058019161354491869161010691906001820190600401615d19565b60006040518083038186803b15801561355c57600080fd5b505af4158015613570573d6000803e3d6000fd5b505050506121708561010b61427990919063ffffffff16565b6101065460ff166000036135b05760405163a397eb4760e01b815260040160405180910390fd5b60006135bc600a614134565b905060006135cc600a605a6141d3565b60fb546000908152610101602052604090819020905163069381c360e51b81529192507310aB092D106ec57303262C382B3eAAb1D20e1D119163d27038609161361d91869161010691600401615d72565b60006040518083038186803b15801561363557600080fd5b505af4158015613649573d6000803e3d6000fd5b5060009250600a91506136599050565b604051908082528060200260200182016040528015613682578160200160208202803683370190505b50600085815261010a60205260408120805462ff00001916620100001781559192505b600a8110156137225783605a8360010183815481106136c6576136c66155ec565b90600052602060002001546136db9190615d5e565b815181106136eb576136eb6155ec565b6020026020010151838281518110613705576137056155ec565b60209081029190910101528061371a8161544b565b9150506136a5565b5060fb54600090815261010160205260409081902090516353ce4e5160e11b81527310aB092D106ec57303262C382B3eAAb1D20e1D119163a79c9ca2916135449186916101069190600401615d72565b6033546034546040516001600160a01b03928316929091169082907f8be0079c531659141344cd1fd0a4f28419497f9722a3daafe3b4186f6b6457e090600090a35060348054603380546001600160a01b03199081166001600160a01b03841617909155169055565b7fb53127684a568b3173ae13b9f8a6016e243e63b6e8ee1178d6a717850b5d6103819055603380546001600160a01b038084166001600160a01b0319831681179093556040519116919082907f8be0079c531659141344cd1fd0a4f28419497f9722a3daafe3b4186f6b6457e090600090a35050565b613859612983565b610194805460ff191660011790557f62e78cea01bee320cd4e420270b5ea74000d11b0c9f74754ebdbfc544b05a25861388f3390565b6040516001600160a01b039091168152602001612526565b60fc5460405163d505accf60e01b8152336004820152306024820152604481018790526064810186905260ff8316608482015260a4810185905260c481018490526001600160a01b039091169063d505accf9060e401600060405180830381600087803b15801561391757600080fd5b505af115801561392b573d6000803e3d6000fd5b505050505050505050565b60fc54610107546040516323b872dd60e01b81523360048201526001600160a01b039182166024820152604481018490529116906323b872dd906064016020604051808303816000875af1158015613992573d6000803e3d6000fd5b505050506040513d601f19601f820116820180604052508101906139b69190615d97565b506139c18282614312565b604051818152829033907f58c7b3bf0b0e168048426c1e9443a72696526292ca664e18b11f934cd6cfbbf39060200160405180910390a35050565b816001600160a01b0316836001600160a01b031603613a5d5760405162461bcd60e51b815260206004820152601960248201527f4552433732313a20617070726f766520746f2063616c6c6572000000000000006044820152606401610f67565b6001600160a01b0383811660008181526101356020908152604080832094871680845294825291829020805460ff191686151590811790915591519182527f17307eab39ab6107e8899845ad3d59bd9653f200f220920489ca2b5937696c31910160405180910390a3505050565b613ad6848484612b4a565b613ae284848484614401565b6119895760405162461bcd60e51b8152600401610f6790615db4565b60026101625403613b515760405162461bcd60e51b815260206004820152601f60248201527f5265656e7472616e637947756172643a207265656e7472616e742063616c6c006044820152606401610f67565b600261016255565b33600090815261010260205260409020546001600160a01b0316158015613b8857506001600160a01b03811615155b8015613b9d57506001600160a01b0381163314155b1561190957336000818152610102602090815260409182902080546001600160a01b0319166001600160a01b0386169081179091558251938452908301527f677cd8c8ce12dc7827579d65be5e6efa74b6ac9ab04ac43d4648dc85d328c2ae91016120dd565b6020820151825160009190613c189084615464565b613c229190615464565b905080341015613c4557604051632ca2f52b60e11b815260040160405180910390fd5b336108fc613c538334615e06565b6040518115909202916000818181858888f19350505050158015613c7b573d6000803e3d6000fd5b50613c863382614502565b6020830151835160405133907f617b1a2bf0533cea0c5dd46104e1d48f8b290fc7d7360dba0182dbf07a00e46a90613cc19087815260200190565b60405180910390a4505050565b600161016255565b60fb5460009081526101016020908152604080832033845260018101835281842086855283528184209252822081549192909184918491613d18908490615e06565b9091555050805483908290600090613d31908490615e06565b9091555050604051636496053360e01b815260048101829052602481018390527310aB092D106ec57303262C382B3eAAb1D20e1D119063649605339060440160006040518083038186803b158015613d8857600080fd5b505af4158015613d9c573d6000803e3d6000fd5b50505050613dae848260000154614559565b604080518581526020810185905233917fe6907eb8ffc12ac27891b5560db15647cae89e2b344f0c34c63bb6f1d4249cff910160405180910390a250505050565b60006064613dfe83605f615434565b613e089190615e19565b9050613e148382614312565b604080518481526020810183905233917f7e9ecb928e58cb1d1c8cda62ae789939f9f184616eb26ef72e801f98b6ef556a910160405180910390a2505050565b613e5c6145c7565b610194805460ff191690557f5db9ee0a495bf2e6ff9c91a7834c1ba4fdd244a5e8aa4e537bd38aeae4b073aa3361388f565b6002820180546000908152602084815260408083208590558354858452600180880190935290832081905590929190613ec8908490615464565b90915550505050565b613edb8383614611565b613ee86000848484614401565b6110085760405162461bcd60e51b8152600401610f6790615db4565b6001811115611989576001600160a01b03841615613f4b576001600160a01b0384166000908152610133602052604081208054839290613f45908490615e06565b90915550505b6001600160a01b03831615611989576001600160a01b0383166000908152610133602052604081208054839290613f83908490615464565b909155505050505050565b600054610100900460ff16613fb55760405162461bcd60e51b8152600401610f6790615cce565b611909816137db565b600054610100900460ff16613fe55760405162461bcd60e51b8152600401610f6790615cce565b610130613ff283826154e0565b5061013161100882826154e0565b600054610100900460ff16613cce5760405162461bcd60e51b8152600401610f6790615cce565b600054610100900460ff1661404e5760405162461bcd60e51b8152600401610f6790615cce565b610194805460ff19169055565b6001600160a01b0381163b6140c85760405162461bcd60e51b815260206004820152602d60248201527f455243313936373a206e657720696d706c656d656e746174696f6e206973206e60448201526c1bdd08184818dbdb9d1c9858dd609a1b6064820152608401610f67565b600080516020615f2a83398151915280546001600160a01b0319166001600160a01b0392909216919091179055565b614100836147ae565b60008251118061410d5750805b156110085761198983836147ee565b600061412a610e1083615d5e565b610da49083615e06565b60fb54600090815261010160205260408082209051634d63fffd60e01b81526002909101600482015260248101919091526044810182905260609073bb65762c83A6eE29471AF61d62d36Fb6f400400390634d63fffd90606401600060405180830381865af41580156141ab573d6000803e3d6000fd5b505050506040513d6000823e601f3d908101601f19168201604052610da49190810190615e2d565b60fb5460009081526101016020526040908190209051634d63fffd60e01b815260029091016004820152602481018390526044810182905260609073bb65762c83A6eE29471AF61d62d36Fb6f400400390634d63fffd90606401600060405180830381865af415801561424a573d6000803e3d6000fd5b505050506040513d6000823e601f3d908101601f191682016040526142729190810190615e2d565b9392505050565b60008181526001808401602052604082205460028501549092859290916142a09190615e06565b81526020808201929092526040908101600090812054848252868452828220558481526001808701909352908120819055600285015485926142e191615e06565b81526020019081526020016000206000905560018360020160008282546143089190615e06565b9091555050505050565b60fb546000908152610101602090815260408083203384526001018252808320858452909152812080549091839183919061434e908490615464565b909155505060fb546000908152610101602090815260408083208684529091528120805490918491839190614384908490615464565b9091555050604051636496053360e01b815260048101829052602481018390527310aB092D106ec57303262C382B3eAAb1D20e1D119063649605339060440160006040518083038186803b1580156143db57600080fd5b505af41580156143ef573d6000803e3d6000fd5b50505050611989848260000154614559565b60006001600160a01b0384163b156144f757604051630a85bd0160e11b81526001600160a01b0385169063150b7a0290614445903390899088908890600401615ebd565b6020604051808303816000875af1925050508015614480575060408051601f3d908101601f1916820190925261447d91810190615ef0565b60015b6144dd573d8080156144ae576040519150601f19603f3d011682016040523d82523d6000602084013e6144b3565b606091505b5080516000036144d55760405162461bcd60e51b8152600401610f6790615db4565b805181602001fd5b6001600160e01b031916630a85bd0160e11b149050612b42565b506001949350505050565b604051633039061160e01b8152610102600482015261010360248201526001600160a01b0383166044820152606481018290527310aB092D106ec57303262C382B3eAAb1D20e1D1190633039061190608401612a3a565b60fb54600090815261010160205260409081902090516311b7263f60e21b8152600282016004820152600d82016024820152600c9091016044820152606481018390526084810182905273A1Aa4713da58E9709838f5eF065d40734fb47696906346dc98fc9060a401612a3a565b6101945460ff166119c25760405162461bcd60e51b815260206004820152601460248201527314185d5cd8589b194e881b9bdd081c185d5cd95960621b6044820152606401610f67565b6001600160a01b0382166146675760405162461bcd60e51b815260206004820181905260248201527f4552433732313a206d696e7420746f20746865207a65726f20616464726573736044820152606401610f67565b600081815261013260205260409020546001600160a01b0316156146cd5760405162461bcd60e51b815260206004820152601c60248201527f4552433732313a20746f6b656e20616c7265616479206d696e746564000000006044820152606401610f67565b6146db600083836001613f04565b600081815261013260205260409020546001600160a01b0316156147415760405162461bcd60e51b815260206004820152601c60248201527f4552433732313a20746f6b656e20616c7265616479206d696e746564000000006044820152606401610f67565b6001600160a01b0382166000818152610133602090815260408083208054600101905584835261013290915280822080546001600160a01b0319168417905551839291907fddf252ad1be2c89b69c2b068fc378daa952ba7f163c4a11628f55a4df523b3ef908290a45050565b6147b78161405b565b6040516001600160a01b038216907fbc7cd75a20ee27fd9adebab32041f755214dbc6bffa90cc0225b39da2e5c2d3b90600090a250565b60606001600160a01b0383163b6148565760405162461bcd60e51b815260206004820152602660248201527f416464726573733a2064656c65676174652063616c6c20746f206e6f6e2d636f6044820152651b9d1c9858dd60d21b6064820152608401610f67565b600080846001600160a01b0316846040516148719190615f0d565b600060405180830381855af49150503d80600081146148ac576040519150601f19603f3d011682016040523d82523d6000602084013e6148b1565b606091505b50915091506148d98282604051806060016040528060278152602001615f4a602791396148e2565b95945050505050565b606083156148f1575081614272565b61427283838151156149065781518083602001fd5b8060405162461bcd60e51b8152600401610f679190614a55565b82805482825590600052602060002090810192821561495b579160200282015b8281111561495b578251825591602001919060010190614940565b5061496792915061496b565b5090565b5b80821115614967576000815560010161496c565b6001600160e01b03198116811461190957600080fd5b6000602082840312156149a857600080fd5b813561427281614980565b6000602082840312156149c557600080fd5b5035919050565b60a08101610da4828480518252602081015160208301526040810151604083015260608101516060830152608081015160808301525050565b60005b83811015614a20578181015183820152602001614a08565b50506000910152565b60008151808452614a41816020860160208601614a05565b601f01601f19169290920160200192915050565b6020815260006142726020830184614a29565b6001600160a01b038116811461190957600080fd5b60008060408385031215614a9057600080fd5b8235614a9b81614a68565b946020939093013593505050565b634e487b7160e01b600052604160045260246000fd5b604051601f8201601f191681016001600160401b0381118282101715614ae757614ae7614aa9565b604052919050565b60006001600160401b03821115614b0857614b08614aa9565b5060051b60200190565b600082601f830112614b2357600080fd5b81356020614b38614b3383614aef565b614abf565b82815260059290921b84018101918181019086841115614b5757600080fd5b8286015b84811015614b725780358352918301918301614b5b565b509695505050505050565b600060208284031215614b8f57600080fd5b81356001600160401b03811115614ba557600080fd5b612b4284828501614b12565b60008060408385031215614bc457600080fd5b8235915060208301356001600160401b03811115614be157600080fd5b614bed85828601614b12565b9150509250929050565b60008083601f840112614c0957600080fd5b5081356001600160401b03811115614c2057600080fd5b602083019150836020828501011115611faf57600080fd5b60008060008060008060008060e0898b031215614c5457600080fd5b883597506020890135614c6681614a68565b965060408901359550606089013594506080890135935060a0890135925060c08901356001600160401b03811115614c9d57600080fd5b614ca98b828c01614bf7565b999c989b5096995094979396929594505050565b600080600060608486031215614cd257600080fd5b8335614cdd81614a68565b92506020840135614ced81614a68565b929592945050506040919091013590565b60008083601f840112614d1057600080fd5b5081356001600160401b03811115614d2757600080fd5b6020830191508360208260051b8501011115611faf57600080fd5b60008060208385031215614d5557600080fd5b82356001600160401b03811115614d6b57600080fd5b614d7785828601614cfe565b90969095509350505050565b803560028110614d9257600080fd5b919050565b600080600060608486031215614dac57600080fd5b8335614db781614a68565b925060208401359150614dcc60408501614d83565b90509250925092565b60008060008060408587031215614deb57600080fd5b84356001600160401b0380821115614e0257600080fd5b614e0e88838901614cfe565b90965094506020870135915080821115614e2757600080fd5b50614e3487828801614cfe565b95989497509550505050565b60006001600160401b03821115614e5957614e59614aa9565b50601f01601f191660200190565b600082601f830112614e7857600080fd5b8135614e86614b3382614e40565b818152846020838601011115614e9b57600080fd5b816020850160208301376000918101602001919091529392505050565b600080600080600060a08688031215614ed057600080fd5b8535614edb81614a68565b94506020860135614eeb81614a68565b935060408601356001600160401b0380821115614f0757600080fd5b614f1389838a01614e67565b94506060880135915080821115614f2957600080fd5b50614f3688828901614e67565b9250506080860135614f4781614a68565b809150509295509295909350565b600060208284031215614f6757600080fd5b813561427281614a68565b60006101208201905060ff835116825264ffffffffff60208401511660208301526040830151614fab604084018264ffffffffff169052565b506060830151614fc4606084018264ffffffffff169052565b506080830151614fdd608084018264ffffffffff169052565b5060a0830151614ff360a084018261ffff169052565b5060c083015161500960c084018261ffff169052565b5060e083015161501f60e084018261ffff169052565b506101008381015164ffffffffff8116848301525b505092915050565b6000806020838503121561504f57600080fd5b82356001600160401b0381111561506557600080fd5b614d7785828601614bf7565b6000806040838503121561508457600080fd5b823561508f81614a68565b915060208301356001600160401b038111156150aa57600080fd5b614bed85828601614e67565b8215158152604060208201526000612b426040830184614a29565b600061012082840312156150e457600080fd5b50919050565b60ff8116811461190957600080fd5b600080600080600080600060e0888a03121561511457600080fd5b873596506020880135955060408801359450606088013593506080880135925060a0880135915060c0880135615149816150ea565b8091505092959891949750929550565b61ffff8116811461190957600080fd5b8035614d9281615159565b60008060006060848603121561518957600080fd5b833561519481615159565b925060208401356151a481615159565b9150614dcc60408501614d83565b600060a082840312156150e457600080fd5b801515811461190957600080fd5b600080604083850312156151e557600080fd5b82356151f081614a68565b91506020830135615200816151c4565b809150509250929050565b6000806000806080858703121561522157600080fd5b843561522c81614a68565b9350602085013561523c81614a68565b92506040850135915060608501356001600160401b0381111561525e57600080fd5b61526a87828801614e67565b91505092959194509250565b6000806000838503608081121561528c57600080fd5b604081121561529a57600080fd5b50604051604081018181106001600160401b03821117156152bd576152bd614aa9565b604090815285358252602080870135908301529093508401356152df81614a68565b929592945050506060919091013590565b60008060006060848603121561530557600080fd5b505081359360208301359350604090920135919050565b6000806040838503121561532f57600080fd5b50508035926020909101359150565b6000806040838503121561535157600080fd5b823561535c81614a68565b9150602083013561520081614a68565b600181811c9082168061538057607f821691505b6020821081036150e457634e487b7160e01b600052602260045260246000fd5b600081518084526020808501945080840160005b838110156153d0578151875295820195908201906001016153b4565b509495945050505050565b8381528260208201526060604082015260006148d960608301846153a0565b6000806040838503121561540d57600080fd5b505080516020909101519092909150565b634e487b7160e01b600052601160045260246000fd5b8082028115828204841417610da457610da461541e565b60006001820161545d5761545d61541e565b5060010190565b80820180821115610da457610da461541e565b600063ffffffff8083168181036154905761549061541e565b6001019392505050565b601f82111561100857600081815260208120601f850160051c810160208610156154c15750805b601f850160051c820191505b81811015611825578281556001016154cd565b81516001600160401b038111156154f9576154f9614aa9565b61550d81615507845461536c565b8461549a565b602080601f831160018114615542576000841561552a5750858301515b600019600386901b1c1916600185901b178555611825565b600085815260208120601f198616915b8281101561557157888601518255948401946001909101908401615552565b508582101561558f5787850151600019600388901b60f8161c191681555b5050505050600190811b01905550565b6020808252602d908201527f4552433732313a2063616c6c6572206973206e6f7420746f6b656e206f776e6560408201526c1c881bdc88185c1c1c9bdd9959609a1b606082015260800190565b634e487b7160e01b600052603260045260246000fd5b634e487b7160e01b600052602160045260246000fd5b6002811061563657634e487b7160e01b600052602160045260246000fd5b9052565b858152602081018590526001600160a01b03841660408201526060810183905260a0810161566b6080830184615618565b9695505050505050565b6000806000806080858703121561568b57600080fd5b845161569681614a68565b6020860151604087015191955093506156ae81614a68565b6060959095015193969295505050565b8183526000602080850194508260005b858110156153d05781356156e181614a68565b6001600160a01b0316875295820195908201906001016156ce565b8581526060602082015260006157166060830186886156be565b82810360408401526157298185876156be565b98975050505050505050565b6020808252602c908201527f46756e6374696f6e206d7573742062652063616c6c6564207468726f7567682060408201526b19195b1959d85d1958d85b1b60a21b606082015260800190565b6020808252602c908201527f46756e6374696f6e206d7573742062652063616c6c6564207468726f7567682060408201526b6163746976652070726f787960a01b606082015260800190565b64ffffffffff8181168382160190808211156157eb576157eb61541e565b5092915050565b60006020828403121561580457600080fd5b5051919050565b64ffffffffff8116811461190957600080fd5b60008135610da48161580b565b60008135610da481615159565b8135615843816150ea565b60ff8116905081548160ff19821617835560208401356158628161580b565b65ffffffffff008160081b168365ffffffffffff198416171784555050506158b761588f6040840161581e565b82546affffffffff000000000000191660309190911b6affffffffff00000000000016178255565b6158ec6158c66060840161581e565b82805464ffffffffff60581b191660589290921b64ffffffffff60581b16919091179055565b6159216158fb6080840161581e565b82805464ffffffffff60801b191660809290921b64ffffffffff60801b16919091179055565b61595061593060a0840161582b565b82805461ffff60a81b191660a89290921b61ffff60a81b16919091179055565b61597f61595f60c0840161582b565b82805461ffff60b81b191660b89290921b61ffff60b81b16919091179055565b6159ae61598e60e0840161582b565b82805461ffff60c81b191660c89290921b61ffff60c81b16919091179055565b61119e6159be610100840161581e565b8280546001600160d81b031660d89290921b6001600160d81b031916919091179055565b8035614d928161580b565b610120810182356159fd816150ea565b60ff168252615a0e602084016159e2565b64ffffffffff166020830152615a26604084016159e2565b64ffffffffff166040830152615a3e606084016159e2565b64ffffffffff166060830152615a56608084016159e2565b64ffffffffff166080830152615a6e60a08401615169565b61ffff1660a0830152615a8360c08401615169565b61ffff1660c0830152615a9860e08401615169565b61ffff1660e0830152610100615aaf8482016159e2565b64ffffffffff811684830152615034565b84815261ffff848116602083015283166040820152608081016148d96060830184615618565b6001600160401b038116811461190957600080fd5b63ffffffff8116811461190957600080fd5b81358155600181016020830135615b2381615ae6565b81546040850135615b3381615afb565b6060860135615b4181615afb565b6080870135615b4f81615159565b61ffff60801b8160801b166001600160401b03861671ffffffffffffffffffffffffffffffffffff198616176bffffffff00000000000000008560401b161763ffffffff60601b8460601b16171786555050505050505050565b8135815260a081016020830135615bbf81615ae6565b6001600160401b031660208301526040830135615bdb81615afb565b63ffffffff9081166040840152606084013590615bf782615afb565b1660608301526080830135615c0b81615159565b61ffff811660808401525092915050565b600060208284031215615c2e57600080fd5b81516001600160401b03811115615c4457600080fd5b8201601f81018413615c5557600080fd5b8051615c63614b3382614e40565b818152856020838501011115615c7857600080fd5b6148d9826020830160208601614a05565b60208082526025908201527f4552433732313a207472616e736665722066726f6d20696e636f72726563742060408201526437bbb732b960d91b606082015260800190565b6020808252602b908201527f496e697469616c697a61626c653a20636f6e7472616374206973206e6f74206960408201526a6e697469616c697a696e6760a81b606082015260800190565b608081526000615d2c60808301876153a0565b6020830195909552506040810192909252606090910152919050565b634e487b7160e01b600052601260045260246000fd5b600082615d6d57615d6d615d48565b500690565b606081526000615d8560608301866153a0565b60208301949094525060400152919050565b600060208284031215615da957600080fd5b8151614272816151c4565b60208082526032908201527f4552433732313a207472616e7366657220746f206e6f6e20455243373231526560408201527131b2b4bb32b91034b6b83632b6b2b73a32b960711b606082015260800190565b81810381811115610da457610da461541e565b600082615e2857615e28615d48565b500490565b60006020808385031215615e4057600080fd5b82516001600160401b03811115615e5657600080fd5b8301601f81018513615e6757600080fd5b8051615e75614b3382614aef565b81815260059190911b82018301908381019087831115615e9457600080fd5b928401925b82841015615eb257835182529284019290840190615e99565b979650505050505050565b6001600160a01b038581168252841660208201526040810183905260806060820181905260009061566b90830184614a29565b600060208284031215615f0257600080fd5b815161427281614980565b60008251615f1f818460208701614a05565b919091019291505056fe360894a13ba1a3210667c828492db98dca3e2076cc3735a920a3ca505d382bbc416464726573733a206c6f772d6c6576656c2064656c65676174652063616c6c206661696c6564a264697066735822122056d391b6dbf1dd58f868f3c5b3143cf8b3042cbc102f38f97257ba289e21936c64736f6c63430008110033",
  "deployedBytecode": "0x6080604052600436106103a25760003560e01c806370a08231116101e7578063a54b2a731161010d578063c87b56dd116100a0578063e985e9c51161006f578063e985e9c514610cb8578063f7b188a514610d02578063fbd7823514610d17578063fbfa77cf14610d3757600080fd5b8063c87b56dd14610c3a578063db64008114610c5a578063e30c397814610c7a578063e4421be214610c9857600080fd5b8063b88d4fde116100dc578063b88d4fde14610b81578063b9e53a9f14610ba1578063c3b82b8d14610bb4578063c417db6914610bd457600080fd5b8063a54b2a7314610b0b578063a94466c014610b2c578063afd5f74714610b4c578063b242e53414610b6157600080fd5b80638da5cb5b116101855780639aab85e5116101545780639aab85e514610a745780639ca423b314610a945780639d21504214610acb578063a22cb46514610aeb57600080fd5b80638da5cb5b14610a01578063918c49e414610a1f5780639208b21e14610a3f57806395d89b4114610a5f57600080fd5b806376f7a9fc116101c157806376f7a9fc1461098c578063802e9cfa146109ac5780638456cb59146109cc5780638d47a30d146109e157600080fd5b806370a0823114610927578063715018a614610947578063736c0d5b1461095c57600080fd5b8063350b2369116102cc5780634f1ef2861161026a578063603d080011610239578063603d0800146108995780636352211e146108b95780636817031b146108d95780636e04ff0d146108f957600080fd5b80634f1ef2861461082a57806352d1902d1461083d57806358c7a063146108605780635c975abb1461088057600080fd5b806339c17502116102a657806339c17502146106db57806342842e0e146107d55780634585e33b146107f55780634e71e0c81461081557600080fd5b8063350b23691461067b578063362925c21461069b5780633659cfe6146106bb57600080fd5b806316a065c61161034457806323b872dd1161031357806323b872dd1461055a578063282753381461057a5780632bf8e8f61461059a57806332eb808a1461062657600080fd5b806316a065c6146104da57806317e0f252146104fa5780631fe543e31461051a57806320dfe3c61461053a57600080fd5b8063081812fc11610380578063081812fc1461042b578063095ea7b3146104635780630aaef802146104855780630e357a6e146104ba57600080fd5b806301ffc9a7146103a7578063068bcd8d146103dc57806306fdde0314610409575b600080fd5b3480156103b357600080fd5b506103c76103c2366004614996565b610d58565b60405190151581526020015b60405180910390f35b3480156103e857600080fd5b506103fc6103f73660046149b3565b610daa565b6040516103d391906149cc565b34801561041557600080fd5b5061041e610e38565b6040516103d39190614a55565b34801561043757600080fd5b5061044b6104463660046149b3565b610ecb565b6040516001600160a01b0390911681526020016103d3565b34801561046f57600080fd5b5061048361047e366004614a7d565b610ef3565b005b34801561049157600080fd5b506104a56104a0366004614b7d565b61100d565b604080519283526020830191909152016103d3565b3480156104c657600080fd5b506103fc6104d5366004614a7d565b6110a6565b3480156104e657600080fd5b5060fc5461044b906001600160a01b031681565b34801561050657600080fd5b506104836105153660046149b3565b611146565b34801561052657600080fd5b50610483610535366004614bb1565b6111a2565b34801561054657600080fd5b50610483610555366004614c38565b6111ee565b34801561056657600080fd5b50610483610575366004614cbd565b611525565b34801561058657600080fd5b50610483610595366004614d42565b611556565b3480156105a657600080fd5b50610103546105e89061ffff808216916201000081048216916401000000008204811691600160301b810490911690600160401b90046001600160c01b031685565b6040805161ffff968716815294861660208601529285169284019290925290921660608201526001600160c01b03909116608082015260a0016103d3565b34801561063257600080fd5b50610646610641366004614d97565b61159c565b6040516103d394939291906001600160a01b039485168152602081019390935292166040820152606081019190915260800190565b34801561068757600080fd5b50610483610696366004614dd5565b611637565b3480156106a757600080fd5b506104836106b6366004614eb8565b6116d8565b3480156106c757600080fd5b506104836106d6366004614f55565b61182d565b3480156106e757600080fd5b506107c86040805161012081018252600080825260208201819052918101829052606081018290526080810182905260a0810182905260c0810182905260e081018290526101008101919091525060408051610120810182526101065460ff8116825264ffffffffff61010080830482166020850152600160301b8304821694840194909452600160581b820481166060840152600160801b82048116608084015261ffff600160a81b8304811660a0850152600160b81b8304811660c0850152600160c81b83041660e0840152600160d81b909104169181019190915290565b6040516103d39190614f72565b3480156107e157600080fd5b506104836107f0366004614cbd565b61190c565b34801561080157600080fd5b5061048361081036600461503c565b611927565b34801561082157600080fd5b5061048361198f565b610483610838366004615071565b6119c4565b34801561084957600080fd5b50610852611a90565b6040519081526020016103d3565b34801561086c57600080fd5b5061048361087b366004614a7d565b611b43565b34801561088c57600080fd5b506101945460ff166103c7565b3480156108a557600080fd5b506104836108b4366004614f55565b611c01565b3480156108c557600080fd5b5061044b6108d43660046149b3565b611c76565b3480156108e557600080fd5b506104836108f4366004614f55565b611cd7565b34801561090557600080fd5b5061091961091436600461503c565b611d25565b6040516103d39291906150b6565b34801561093357600080fd5b50610852610942366004614f55565b611fb6565b34801561095357600080fd5b5061048361203d565b34801561096857600080fd5b506103c7610977366004614f55565b60fd6020526000908152604090205460ff1681565b34801561099857600080fd5b506104836109a73660046150d1565b612072565b3480156109b857600080fd5b506104836109c7366004614f55565b6120e8565b3480156109d857600080fd5b50610483612177565b3480156109ed57600080fd5b506104836109fc366004614d42565b6121aa565b348015610a0d57600080fd5b506033546001600160a01b031661044b565b348015610a2b57600080fd5b50610483610a3a3660046150f9565b612287565b348015610a4b57600080fd5b50610483610a5a366004615174565b6122b8565b348015610a6b57600080fd5b5061041e61234e565b348015610a8057600080fd5b50610483610a8f3660046149b3565b61235e565b348015610aa057600080fd5b5061044b610aaf366004614f55565b610102602052600090815260409020546001600160a01b031681565b348015610ad757600080fd5b50610483610ae63660046151b2565b6123bb565b348015610af757600080fd5b50610483610b063660046151d2565b612426565b348015610b1757600080fd5b506101075461044b906001600160a01b031681565b348015610b3857600080fd5b50610483610b473660046149b3565b612431565b348015610b5857600080fd5b506104836124a7565b348015610b6d57600080fd5b50610483610b7c3660046151d2565b612530565b348015610b8d57600080fd5b50610483610b9c36600461520b565b6125b0565b610483610baf366004615276565b6125e2565b348015610bc057600080fd5b50610483610bcf3660046152f0565b612610565b348015610be057600080fd5b50610c1a610bef366004614f55565b6001600160a01b03908116600090815261010260205260408082205483168083529120549092911690565b604080516001600160a01b039384168152929091166020830152016103d3565b348015610c4657600080fd5b5061041e610c553660046149b3565b61263e565b348015610c6657600080fd5b50610483610c75366004614d42565b6126c1565b348015610c8657600080fd5b506034546001600160a01b031661044b565b348015610ca457600080fd5b50610483610cb336600461531c565b61278c565b348015610cc457600080fd5b506103c7610cd336600461533e565b6001600160a01b0391821660009081526101356020908152604080832093909416825291909152205460ff1690565b348015610d0e57600080fd5b506104836127a7565b348015610d2357600080fd5b506103c7610d323660046149b3565b6127da565b348015610d4357600080fd5b506101045461044b906001600160a01b031681565b60006001600160e01b031982166380ac58cd60e01b1480610d8957506001600160e01b03198216635b5e139f60e01b145b80610da457506301ffc9a760e01b6001600160e01b03198316145b92915050565b610ddc6040518060a0016040528060008152602001600081526020016000815260200160008152602001600081525090565b5060fb5460009081526101016020908152604080832093835292815290829020825160a0810184528154815260018201549281019290925260028101549282019290925260038201546060820152600490910154608082015290565b60606101308054610e489061536c565b80601f0160208091040260200160405190810160405280929190818152602001828054610e749061536c565b8015610ec15780601f10610e9657610100808354040283529160200191610ec1565b820191906000526020600020905b815481529060010190602001808311610ea457829003601f168201915b5050505050905090565b6000610ed6826127fe565b50600090815261013460205260409020546001600160a01b031690565b6000610efe82611c76565b9050806001600160a01b0316836001600160a01b031603610f705760405162461bcd60e51b815260206004820152602160248201527f4552433732313a20617070726f76616c20746f2063757272656e74206f776e656044820152603960f91b60648201526084015b60405180910390fd5b336001600160a01b0382161480610f8c5750610f8c8133610cd3565b610ffe5760405162461bcd60e51b815260206004820152603d60248201527f4552433732313a20617070726f76652063616c6c6572206973206e6f7420746f60448201527f6b656e206f776e6572206f7220617070726f76656420666f7220616c6c0000006064820152608401610f67565b611008838361285e565b505050565b60fb5460009081526101016020526040808220905163c6533a5360e01b8152829173__$bf3a140bdbff42a6137d0acc0952596ca5$__9163c6533a539161105d91600182019088906004016153db565b6040805180830381865af4158015611079573d6000803e3d6000fd5b505050506040513d601f19601f8201168201806040525081019061109d91906153fa565b91509150915091565b6110d86040518060a0016040528060008152602001600081526020016000815260200160008152602001600081525090565b5060fb546000908152610101602090815260408083206001600160a01b038616845260019081018352818420858552835292819020815160a0810183528154815293810154928401929092526002820154908301526003810154606083015260040154608082015292915050565b6033546001600160a01b0316331461117157604051632e6c18c960e11b815260040160405180910390fd5b604051339082156108fc029083906000818181858888f1935050505015801561119e573d6000803e3d6000fd5b5050565b6101c6546001600160a01b031633146111e4576101c65460405163073e64fd60e21b81523360048201526001600160a01b039091166024820152604401610f67565b61119e82826128cd565b6111f6612953565b6111fe612983565b600888901c60009081526101056020526040902054600160ff8a161b161561123957604051630490d63160e01b815260040160405180910390fd5b600888901c6000908152610105602052604081208054600160ff8c161b17905561126b46670de0b6b3a7640000615434565b60ff6000815461127a9061544b565b91829055506112899190615464565b60408051610120810182528b81526001600160a01b038b16602080830182905261ffff8a1683850152600091825260fe9052918220805493945090926060840192906112da9063ffffffff16615477565b91906101000a81548163ffffffff021916908363ffffffff160217905563ffffffff168152602001600065ffffffffffff168152602001856001600160801b03168152602001886001600160801b0316815260200187815260200184848080601f016020809104026020016040519081016040528093929190818152602001838380828437600092018290525093909452505083815261010060208181526040928390208551815590850151600182018054948701516060880151608089015165ffffffffffff16600160d01b026001600160d01b0363ffffffff909216600160b01b02919091166001600160b01b0361ffff909316600160a01b026001600160b01b03199098166001600160a01b03909516949094179690961716919091179390931790925560a084015160c08501516001600160801b03908116600160801b02911617600283015560e08401516003830155830151909150600482019061144390826154e0565b5090505061145188826129ca565b610104546040516310b3879160e11b81526001600160a01b038a81166004830152602482018a9052909116906321670f2290604401600060405180830381600087803b1580156114a057600080fd5b505af11580156114b4573d6000803e3d6000fd5b505050506114c281876129e4565b6114cc8888612a66565b80886001600160a01b03168a7faf1bba31184b4d13e4f756b22fc2755d77b6ad147f10a7b12ea6afa58a2ca5f6898b604051611512929190918252602082015260400190565b60405180910390a4505050505050505050565b61152f3382612aca565b61154b5760405162461bcd60e51b8152600401610f679061559f565b611008838383612b4a565b61155e612983565b60005b818110156110085761158a83838381811061157e5761157e6155ec565b90506020020135612cbe565b806115948161544b565b915050611561565b60008060008073__$bf3a140bdbff42a6137d0acc0952596ca5$__633f3ccdf96101026101038a8a8a6040518663ffffffff1660e01b81526004016115e595949392919061563a565b608060405180830381865af4158015611602573d6000803e3d6000fd5b505050506040513d601f19601f820116820180604052508101906116269190615675565b935093509350935093509350935093565b6033546001600160a01b0316331461166257604051632e6c18c960e11b815260040160405180910390fd5b604051631bd4474f60e31b815273__$bf3a140bdbff42a6137d0acc0952596ca5$__9063dea23a78906116a29060fd9088908890889088906004016156fc565b60006040518083038186803b1580156116ba57600080fd5b505af41580156116ce573d6000803e3d6000fd5b5050505050505050565b600054610100900460ff16158080156116f85750600054600160ff909116105b806117125750303b158015611712575060005460ff166001145b6117755760405162461bcd60e51b815260206004820152602e60248201527f496e697469616c697a61626c653a20636f6e747261637420697320616c72656160448201526d191e481a5b9a5d1a585b1a5e995960921b6064820152608401610f67565b6000805460ff191660011790558015611798576000805461ff0019166101001790555b60fc80546001600160a01b0319166001600160a01b0388161790556117bc85612df1565b6117c68484612e21565b6117ce612e52565b6117d6612e81565b6117df82612eb0565b8015611825576000805461ff0019169055604051600181527f7f26b83ff96e1f2b6a682f133852f6798a09c465da95921460cefb38474024989060200160405180910390a15b505050505050565b6001600160a01b037f00000000000000000000000000000000000000000000000000000000000000001630036118755760405162461bcd60e51b8152600401610f6790615735565b7f00000000000000000000000000000000000000000000000000000000000000006001600160a01b03166118be600080516020615f2a833981519152546001600160a01b031690565b6001600160a01b0316146118e45760405162461bcd60e51b8152600401610f6790615781565b6118ed81612f21565b6040805160008082526020820190925261190991839190612f4c565b50565b611008838383604051806020016040528060008152506125b0565b61192f612983565b60008061193e8385018561531c565b9150915081600103611957576119526130b7565b611989565b8160020361196757611952613206565b81600303611978576119528161334e565b816004036119895761198981613589565b50505050565b6034546001600160a01b031633146119ba576040516305e05b4b60e31b815260040160405180910390fd5b6119c2613772565b565b6001600160a01b037f0000000000000000000000000000000000000000000000000000000000000000163003611a0c5760405162461bcd60e51b8152600401610f6790615735565b7f00000000000000000000000000000000000000000000000000000000000000006001600160a01b0316611a55600080516020615f2a833981519152546001600160a01b031690565b6001600160a01b031614611a7b5760405162461bcd60e51b8152600401610f6790615781565b611a8482612f21565b61119e82826001612f4c565b6000306001600160a01b037f00000000000000000000000000000000000000000000000000000000000000001614611b305760405162461bcd60e51b815260206004820152603860248201527f555550535570677261646561626c653a206d757374206e6f742062652063616c60448201527f6c6564207468726f7567682064656c656761746563616c6c00000000000000006064820152608401610f67565b50600080516020615f2a83398151915290565b611b4b612953565b611b53612983565b610104546040516310b3879160e11b81526001600160a01b03848116600483015260248201849052909116906321670f2290604401600060405180830381600087803b158015611ba257600080fd5b505af1158015611bb6573d6000803e3d6000fd5b50505050816001600160a01b03167f7a0984e898d33e4bf6ad9f851bfab5517683d3dae5b57ed58fa8c7152d822e3282604051611bf591815260200190565b60405180910390a25050565b6033546001600160a01b03163314611c2c57604051632e6c18c960e11b815260040160405180910390fd5b6001600160a01b038116611c5357604051630ae8f22360e21b815260040160405180910390fd5b61010780546001600160a01b0319166001600160a01b0392909216919091179055565b600081815261013260205260408120546001600160a01b031680610da45760405162461bcd60e51b8152602060048201526018602482015277115490cdcc8c4e881a5b9d985b1a59081d1bdad95b88125160421b6044820152606401610f67565b6033546001600160a01b03163314611d0257604051632e6c18c960e11b815260040160405180910390fd5b61010480546001600160a01b0319166001600160a01b0392909216919091179055565b6101065460009060609060ff16600103611faf5761010654611d5c9064ffffffffff6101008204811691600160581b9004166157cd565b64ffffffffff16421115611d9d57604080516001602082018190526000928201929092529092506060015b6040516020818303038152906040529050611faf565b61010654611dc29064ffffffffff600160301b8204811691600160801b9004166157cd565b64ffffffffff16421115611df057604080516002602082015260009181019190915260019250606001611d87565b60006040516305f739f960e21b815261010b600482015273__$f445361e8b50888b0b8cee3fd4db50a783$__906317dce7e490602401602060405180830381865af4158015611e43573d6000803e3d6000fd5b505050506040513d601f19601f82011682018060405250810190611e6791906157f2565b811015611fad5760405163c9c3102d60e01b815261010b60048201526024810182905260009073__$f445361e8b50888b0b8cee3fd4db50a783$__9063c9c3102d90604401602060405180830381865af4158015611ec9573d6000803e3d6000fd5b505050506040513d601f19601f82011682018060405250810190611eed91906157f2565b60019450905083600082815261010a60205260409020546301000000900460ff166002811115611f1f57611f1f615602565b03611f4e5760408051600360208201529081018290526060016040516020818303038152906040529250611fa6565b6002600082815261010a60205260409020546301000000900460ff166002811115611f7b57611f7b615602565b03611fa657604080516004602082015290810182905260600160405160208183030381529060405292505b5050611faf565b505b9250929050565b60006001600160a01b0382166120205760405162461bcd60e51b815260206004820152602960248201527f4552433732313a2061646472657373207a65726f206973206e6f7420612076616044820152683634b21037bbb732b960b91b6064820152608401610f67565b506001600160a01b03166000908152610133602052604090205490565b6033546001600160a01b0316331461206857604051632e6c18c960e11b815260040160405180910390fd5b6119c260006137db565b6033546001600160a01b0316331461209d57604051632e6c18c960e11b815260040160405180910390fd5b806101066120ab8282615838565b9050507f75dab8e449fbbb96e7a6aba10424f40cd398bf158f0be1270be90389a3eeef7e816040516120dd91906159ed565b60405180910390a150565b6033546001600160a01b0316331461211357604051632e6c18c960e11b815260040160405180910390fd5b610104546040516350e0278760e11b81526001600160a01b0383811660048301529091169063a1c04f0e906024015b600060405180830381600087803b15801561215c57600080fd5b505af1158015612170573d6000803e3d6000fd5b5050505050565b6033546001600160a01b031633146121a257604051632e6c18c960e11b815260040160405180910390fd5b6119c2613851565b6121b2612983565b60005b818110156110085773__$bf3a140bdbff42a6137d0acc0952596ca5$__63d4166eb08484848181106121e9576121e96155ec565b6101045460fb5460009081526101016020908152604091829020915160e088901b6001600160e01b031916815293029094013560048301526001600160a01b0316602482015260448101839052600190920160648301525060840160006040518083038186803b15801561225c57600080fd5b505af4158015612270573d6000803e3d6000fd5b50505050808061227f9061544b565b9150506121b5565b61228f612983565b61229887612cbe565b6122a585858585856138a7565b6122af8787613936565b50505050505050565b6033546001600160a01b031633146122e357604051632e6c18c960e11b815260040160405180910390fd5b604051631747e07760e01b815273__$bf3a140bdbff42a6137d0acc0952596ca5$__90631747e077906123229061010390879087908790600401615ac0565b60006040518083038186803b15801561233a57600080fd5b505af41580156122af573d6000803e3d6000fd5b60606101318054610e489061536c565b6033546001600160a01b0316331461238957604051632e6c18c960e11b815260040160405180910390fd5b61010754604051630852cd8d60e31b8152600481018390526001600160a01b03909116906342966c6890602401612142565b6033546001600160a01b031633146123e657604051632e6c18c960e11b815260040160405180910390fd5b806101086123f48282615b0d565b9050507f3510c45fb24ce728b56d5136c57163ff69e25ab31ac04a1264387c7acff6c41e816040516120dd9190615ba9565b61119e3383836139fc565b60fb5460009081526101016020908152604080832084845280835281842033855260019091018352818420858552909252918290209151636496053360e01b8152600481018290526024810183905290919073__$bf3a140bdbff42a6137d0acc0952596ca5$__90636496053390604401612322565b6033546001600160a01b031633146124d257604051632e6c18c960e11b815260040160405180910390fd5b600160fb60008282546124e59190615464565b909155506124f39050613851565b7f3bf8992b1ca7018d446bcf1d45dc7a62e50decf5248434be4194aef15446338060fb5460405161252691815260200190565b60405180910390a1565b6033546001600160a01b0316331461255b57604051632e6c18c960e11b815260040160405180910390fd5b6001600160a01b03821661258257604051633aafecb360e21b815260040160405180910390fd5b80156125915761119e826137db565b603480546001600160a01b0319166001600160a01b0384161790555050565b6125ba3383612aca565b6125d65760405162461bcd60e51b8152600401610f679061559f565b61198984848484613acb565b6125ea612983565b6125f2613afe565b6125fb82613b59565b6126058382613c03565b611008600161016255565b612618612983565b61262183612cbe565b61262a82612cbe565b6126348382613cd6565b6110088282613def565b604051632f8218bd60e21b815261010060048201526024810182905260609073__$3cbd271f598b36a387d6c3d3bdc78254b5$__9063be0862f490604401600060405180830381865af4158015612699573d6000803e3d6000fd5b505050506040513d6000823e601f3d908101601f19168201604052610da49190810190615c1c565b6126c9612983565b60005b818110156110085773__$bf3a140bdbff42a6137d0acc0952596ca5$__63c4deddb4848484818110612700576127006155ec565b60fb5460009081526101016020908152604091829020915160e087901b6001600160e01b0319168152920290930135600482015260248101839052600190920160448301525060640160006040518083038186803b15801561276157600080fd5b505af4158015612775573d6000803e3d6000fd5b5050505080806127849061544b565b9150506126cc565b612794612983565b61279d82612cbe565b61119e8282613936565b6033546001600160a01b031633146127d257604051632e6c18c960e11b815260040160405180910390fd5b6119c2613e54565b600881901c60009081526101056020526040812054600160ff84161b161515610da4565b600081815261013260205260409020546001600160a01b03166119095760405162461bcd60e51b8152602060048201526018602482015277115490cdcc8c4e881a5b9d985b1a59081d1bdad95b88125160421b6044820152606401610f67565b60008181526101346020526040902080546001600160a01b0319166001600160a01b038416908117909155819061289482611c76565b6001600160a01b03167f8c5be1e5ebec7d5bd14f71427d1e84f3dd0314c0f7b2291e5b200ac8c7c3b92560405160405180910390a45050565b600082815261010a602052604090205460ff161580156129015750600082815261010a6020526040902054610100900460ff165b1561119e57600082815261010a60209081526040909120825161292c92600190920191840190614920565b50600082815261010a60205260409020805460ff1916600117905561119e61010b83613e8e565b33600090815260fd602052604090205460ff166119c25760405163143606b960e31b815260040160405180910390fd5b6101945460ff16156119c25760405162461bcd60e51b815260206004820152601060248201526f14185d5cd8589b194e881c185d5cd95960821b6044820152606401610f67565b61119e828260405180602001604052806000815250613ed1565b60fb5460009081526101016020526040908190209051636ebb252160e11b81526004810191909152602481018390526044810182905273__$b6aef517fe05d85bc7364998255804b986$__9063dd764a42906064015b60006040518083038186803b158015612a5257600080fd5b505af4158015611825573d6000803e3d6000fd5b610104546040516337a8f5a560e01b8152610102600482015261010360248201526001600160a01b03918216604482015290831660648201526084810182905273__$bf3a140bdbff42a6137d0acc0952596ca5$__906337a8f5a59060a401612a3a565b600080612ad683611c76565b9050806001600160a01b0316846001600160a01b03161480612b1e57506001600160a01b038082166000908152610135602090815260408083209388168352929052205460ff165b80612b425750836001600160a01b0316612b3784610ecb565b6001600160a01b0316145b949350505050565b826001600160a01b0316612b5d82611c76565b6001600160a01b031614612b835760405162461bcd60e51b8152600401610f6790615c89565b6001600160a01b038216612be55760405162461bcd60e51b8152602060048201526024808201527f4552433732313a207472616e7366657220746f20746865207a65726f206164646044820152637265737360e01b6064820152608401610f67565b612bf28383836001613f04565b826001600160a01b0316612c0582611c76565b6001600160a01b031614612c2b5760405162461bcd60e51b8152600401610f6790615c89565b60008181526101346020908152604080832080546001600160a01b03199081169091556001600160a01b03878116808652610133855283862080546000190190559087168086528386208054600101905586865261013290945282852080549092168417909155905184937fddf252ad1be2c89b69c2b068fc378daa952ba7f163c4a11628f55a4df523b3ef91a4505050565b612cc6613afe565b60fb5460009081526101016020526040908190209051633137b76d60e21b815260048101839052602481018290526001909101604482015273__$bf3a140bdbff42a6137d0acc0952596ca5$__9063c4deddb49060640160006040518083038186803b158015612d3557600080fd5b505af4158015612d49573d6000803e3d6000fd5b50506101045460fb5460009081526101016020526040908190209051630d4166eb60e41b8152600481018690526001600160a01b03909216602483015260448201819052600101606482015273__$bf3a140bdbff42a6137d0acc0952596ca5$__925063d4166eb0915060840160006040518083038186803b158015612dce57600080fd5b505af4158015612de2573d6000803e3d6000fd5b50505050611909600161016255565b600054610100900460ff16612e185760405162461bcd60e51b8152600401610f6790615cce565b61190981613f8e565b600054610100900460ff16612e485760405162461bcd60e51b8152600401610f6790615cce565b61119e8282613fbe565b600054610100900460ff16612e795760405162461bcd60e51b8152600401610f6790615cce565b6119c2614000565b600054610100900460ff16612ea85760405162461bcd60e51b8152600401610f6790615cce565b6119c2614027565b600054610100900460ff16612ed75760405162461bcd60e51b8152600401610f6790615cce565b6001600160a01b038116612efe57604051630cee34c560e11b815260040160405180910390fd5b6101c680546001600160a01b0319166001600160a01b0392909216919091179055565b6033546001600160a01b0316331461190957604051632e6c18c960e11b815260040160405180910390fd5b7f4910fdfa16fed3260ed0e7147f7cc6da11a60208b5b9406d12a635614ffd91435460ff1615612f7f576110088361405b565b826001600160a01b03166352d1902d6040518163ffffffff1660e01b8152600401602060405180830381865afa925050508015612fd9575060408051601f3d908101601f19168201909252612fd6918101906157f2565b60015b61303c5760405162461bcd60e51b815260206004820152602e60248201527f45524331393637557067726164653a206e657720696d706c656d656e7461746960448201526d6f6e206973206e6f74205555505360901b6064820152608401610f67565b600080516020615f2a83398151915281146130ab5760405162461bcd60e51b815260206004820152602960248201527f45524331393637557067726164653a20756e737570706f727465642070726f786044820152681a58589b195555525160ba1b6064820152608401610f67565b506110088383836140f7565b6101065460ff166000036130de5760405163a397eb4760e01b815260040160405180910390fd5b6130e74261411c565b610106805464ffffffffff92909216600160581b0264ffffffffff60581b199092169190911790556101c65461010854610109546040516305d3b1d360e41b815260048101929092526001600160401b038116602483015261ffff600160801b820416604483015263ffffffff600160401b820481166064840152600160601b9091041660848201526000916001600160a01b031690635d3b1d309060a4016020604051808303816000875af11580156131a5573d6000803e3d6000fd5b505050506040513d601f19601f820116820180604052508101906131c991906157f2565b600081815261010a60205260409020805461010061ff001982168117835592935060019263ff00ff0019909116176301000000835b021790555050565b6101065460ff1660000361322d5760405163a397eb4760e01b815260040160405180910390fd5b6132364261411c565b610106805464ffffffffff60801b1916600160801b64ffffffffff9390931683021790556101c65461010854610109546040516305d3b1d360e41b815260048101929092526001600160401b038116602483015292830461ffff166044820152600160401b830463ffffffff9081166064830152600160601b90930490921660848301526000916001600160a01b0390911690635d3b1d309060a4016020604051808303816000875af11580156132f1573d6000803e3d6000fd5b505050506040513d601f19601f8201168201806040525081019061331591906157f2565b600081815261010a60205260409020805461010061ff001982168117835592935060029263ff00ff0019909116176301000000836131fe565b6101065460ff166000036133755760405163a397eb4760e01b815260040160405180910390fd5b6000613381600a614134565b90506000613391600a605a6141d3565b60fb546000908152610101602052604090819020905163b8de8a6d60e01b815291925073__$bf3a140bdbff42a6137d0acc0952596ca5$__9163b8de8a6d916133e7918691610106916001820190600401615d19565b60006040518083038186803b1580156133ff57600080fd5b505af4158015613413573d6000803e3d6000fd5b5060009250600a91506134239050565b60405190808252806020026020018201604052801561344c578160200160208202803683370190505b50600085815261010a60205260408120805462ff00001916620100001781559192505b60018201548110156134ef5783605a836001018381548110613493576134936155ec565b90600052602060002001546134a89190615d5e565b815181106134b8576134b86155ec565b60200260200101518382815181106134d2576134d26155ec565b6020908102919091010152806134e78161544b565b91505061346f565b5060fb54600090815261010160205260409081902090516328a0580160e01b815273__$bf3a140bdbff42a6137d0acc0952596ca5$__916328a058019161354491869161010691906001820190600401615d19565b60006040518083038186803b15801561355c57600080fd5b505af4158015613570573d6000803e3d6000fd5b505050506121708561010b61427990919063ffffffff16565b6101065460ff166000036135b05760405163a397eb4760e01b815260040160405180910390fd5b60006135bc600a614134565b905060006135cc600a605a6141d3565b60fb546000908152610101602052604090819020905163069381c360e51b815291925073__$bf3a140bdbff42a6137d0acc0952596ca5$__9163d27038609161361d91869161010691600401615d72565b60006040518083038186803b15801561363557600080fd5b505af4158015613649573d6000803e3d6000fd5b5060009250600a91506136599050565b604051908082528060200260200182016040528015613682578160200160208202803683370190505b50600085815261010a60205260408120805462ff00001916620100001781559192505b600a8110156137225783605a8360010183815481106136c6576136c66155ec565b90600052602060002001546136db9190615d5e565b815181106136eb576136eb6155ec565b6020026020010151838281518110613705576137056155ec565b60209081029190910101528061371a8161544b565b9150506136a5565b5060fb54600090815261010160205260409081902090516353ce4e5160e11b815273__$bf3a140bdbff42a6137d0acc0952596ca5$__9163a79c9ca2916135449186916101069190600401615d72565b6033546034546040516001600160a01b03928316929091169082907f8be0079c531659141344cd1fd0a4f28419497f9722a3daafe3b4186f6b6457e090600090a35060348054603380546001600160a01b03199081166001600160a01b03841617909155169055565b7fb53127684a568b3173ae13b9f8a6016e243e63b6e8ee1178d6a717850b5d6103819055603380546001600160a01b038084166001600160a01b0319831681179093556040519116919082907f8be0079c531659141344cd1fd0a4f28419497f9722a3daafe3b4186f6b6457e090600090a35050565b613859612983565b610194805460ff191660011790557f62e78cea01bee320cd4e420270b5ea74000d11b0c9f74754ebdbfc544b05a25861388f3390565b6040516001600160a01b039091168152602001612526565b60fc5460405163d505accf60e01b8152336004820152306024820152604481018790526064810186905260ff8316608482015260a4810185905260c481018490526001600160a01b039091169063d505accf9060e401600060405180830381600087803b15801561391757600080fd5b505af115801561392b573d6000803e3d6000fd5b505050505050505050565b60fc54610107546040516323b872dd60e01b81523360048201526001600160a01b039182166024820152604481018490529116906323b872dd906064016020604051808303816000875af1158015613992573d6000803e3d6000fd5b505050506040513d601f19601f820116820180604052508101906139b69190615d97565b506139c18282614312565b604051818152829033907f58c7b3bf0b0e168048426c1e9443a72696526292ca664e18b11f934cd6cfbbf39060200160405180910390a35050565b816001600160a01b0316836001600160a01b031603613a5d5760405162461bcd60e51b815260206004820152601960248201527f4552433732313a20617070726f766520746f2063616c6c6572000000000000006044820152606401610f67565b6001600160a01b0383811660008181526101356020908152604080832094871680845294825291829020805460ff191686151590811790915591519182527f17307eab39ab6107e8899845ad3d59bd9653f200f220920489ca2b5937696c31910160405180910390a3505050565b613ad6848484612b4a565b613ae284848484614401565b6119895760405162461bcd60e51b8152600401610f6790615db4565b60026101625403613b515760405162461bcd60e51b815260206004820152601f60248201527f5265656e7472616e637947756172643a207265656e7472616e742063616c6c006044820152606401610f67565b600261016255565b33600090815261010260205260409020546001600160a01b0316158015613b8857506001600160a01b03811615155b8015613b9d57506001600160a01b0381163314155b1561190957336000818152610102602090815260409182902080546001600160a01b0319166001600160a01b0386169081179091558251938452908301527f677cd8c8ce12dc7827579d65be5e6efa74b6ac9ab04ac43d4648dc85d328c2ae91016120dd565b6020820151825160009190613c189084615464565b613c229190615464565b905080341015613c4557604051632ca2f52b60e11b815260040160405180910390fd5b336108fc613c538334615e06565b6040518115909202916000818181858888f19350505050158015613c7b573d6000803e3d6000fd5b50613c863382614502565b6020830151835160405133907f617b1a2bf0533cea0c5dd46104e1d48f8b290fc7d7360dba0182dbf07a00e46a90613cc19087815260200190565b60405180910390a4505050565b600161016255565b60fb5460009081526101016020908152604080832033845260018101835281842086855283528184209252822081549192909184918491613d18908490615e06565b9091555050805483908290600090613d31908490615e06565b9091555050604051636496053360e01b8152600481018290526024810183905273__$bf3a140bdbff42a6137d0acc0952596ca5$__9063649605339060440160006040518083038186803b158015613d8857600080fd5b505af4158015613d9c573d6000803e3d6000fd5b50505050613dae848260000154614559565b604080518581526020810185905233917fe6907eb8ffc12ac27891b5560db15647cae89e2b344f0c34c63bb6f1d4249cff910160405180910390a250505050565b60006064613dfe83605f615434565b613e089190615e19565b9050613e148382614312565b604080518481526020810183905233917f7e9ecb928e58cb1d1c8cda62ae789939f9f184616eb26ef72e801f98b6ef556a910160405180910390a2505050565b613e5c6145c7565b610194805460ff191690557f5db9ee0a495bf2e6ff9c91a7834c1ba4fdd244a5e8aa4e537bd38aeae4b073aa3361388f565b6002820180546000908152602084815260408083208590558354858452600180880190935290832081905590929190613ec8908490615464565b90915550505050565b613edb8383614611565b613ee86000848484614401565b6110085760405162461bcd60e51b8152600401610f6790615db4565b6001811115611989576001600160a01b03841615613f4b576001600160a01b0384166000908152610133602052604081208054839290613f45908490615e06565b90915550505b6001600160a01b03831615611989576001600160a01b0383166000908152610133602052604081208054839290613f83908490615464565b909155505050505050565b600054610100900460ff16613fb55760405162461bcd60e51b8152600401610f6790615cce565b611909816137db565b600054610100900460ff16613fe55760405162461bcd60e51b8152600401610f6790615cce565b610130613ff283826154e0565b5061013161100882826154e0565b600054610100900460ff16613cce5760405162461bcd60e51b8152600401610f6790615cce565b600054610100900460ff1661404e5760405162461bcd60e51b8152600401610f6790615cce565b610194805460ff19169055565b6001600160a01b0381163b6140c85760405162461bcd60e51b815260206004820152602d60248201527f455243313936373a206e657720696d706c656d656e746174696f6e206973206e60448201526c1bdd08184818dbdb9d1c9858dd609a1b6064820152608401610f67565b600080516020615f2a83398151915280546001600160a01b0319166001600160a01b0392909216919091179055565b614100836147ae565b60008251118061410d5750805b156110085761198983836147ee565b600061412a610e1083615d5e565b610da49083615e06565b60fb54600090815261010160205260408082209051634d63fffd60e01b81526002909101600482015260248101919091526044810182905260609073__$69292ab8e6f98571d324d08d63c6dae4eb$__90634d63fffd90606401600060405180830381865af41580156141ab573d6000803e3d6000fd5b505050506040513d6000823e601f3d908101601f19168201604052610da49190810190615e2d565b60fb5460009081526101016020526040908190209051634d63fffd60e01b815260029091016004820152602481018390526044810182905260609073__$69292ab8e6f98571d324d08d63c6dae4eb$__90634d63fffd90606401600060405180830381865af415801561424a573d6000803e3d6000fd5b505050506040513d6000823e601f3d908101601f191682016040526142729190810190615e2d565b9392505050565b60008181526001808401602052604082205460028501549092859290916142a09190615e06565b81526020808201929092526040908101600090812054848252868452828220558481526001808701909352908120819055600285015485926142e191615e06565b81526020019081526020016000206000905560018360020160008282546143089190615e06565b9091555050505050565b60fb546000908152610101602090815260408083203384526001018252808320858452909152812080549091839183919061434e908490615464565b909155505060fb546000908152610101602090815260408083208684529091528120805490918491839190614384908490615464565b9091555050604051636496053360e01b8152600481018290526024810183905273__$bf3a140bdbff42a6137d0acc0952596ca5$__9063649605339060440160006040518083038186803b1580156143db57600080fd5b505af41580156143ef573d6000803e3d6000fd5b50505050611989848260000154614559565b60006001600160a01b0384163b156144f757604051630a85bd0160e11b81526001600160a01b0385169063150b7a0290614445903390899088908890600401615ebd565b6020604051808303816000875af1925050508015614480575060408051601f3d908101601f1916820190925261447d91810190615ef0565b60015b6144dd573d8080156144ae576040519150601f19603f3d011682016040523d82523d6000602084013e6144b3565b606091505b5080516000036144d55760405162461bcd60e51b8152600401610f6790615db4565b805181602001fd5b6001600160e01b031916630a85bd0160e11b149050612b42565b506001949350505050565b604051633039061160e01b8152610102600482015261010360248201526001600160a01b03831660448201526064810182905273__$bf3a140bdbff42a6137d0acc0952596ca5$__90633039061190608401612a3a565b60fb54600090815261010160205260409081902090516311b7263f60e21b8152600282016004820152600d82016024820152600c9091016044820152606481018390526084810182905273__$b6aef517fe05d85bc7364998255804b986$__906346dc98fc9060a401612a3a565b6101945460ff166119c25760405162461bcd60e51b815260206004820152601460248201527314185d5cd8589b194e881b9bdd081c185d5cd95960621b6044820152606401610f67565b6001600160a01b0382166146675760405162461bcd60e51b815260206004820181905260248201527f4552433732313a206d696e7420746f20746865207a65726f20616464726573736044820152606401610f67565b600081815261013260205260409020546001600160a01b0316156146cd5760405162461bcd60e51b815260206004820152601c60248201527f4552433732313a20746f6b656e20616c7265616479206d696e746564000000006044820152606401610f67565b6146db600083836001613f04565b600081815261013260205260409020546001600160a01b0316156147415760405162461bcd60e51b815260206004820152601c60248201527f4552433732313a20746f6b656e20616c7265616479206d696e746564000000006044820152606401610f67565b6001600160a01b0382166000818152610133602090815260408083208054600101905584835261013290915280822080546001600160a01b0319168417905551839291907fddf252ad1be2c89b69c2b068fc378daa952ba7f163c4a11628f55a4df523b3ef908290a45050565b6147b78161405b565b6040516001600160a01b038216907fbc7cd75a20ee27fd9adebab32041f755214dbc6bffa90cc0225b39da2e5c2d3b90600090a250565b60606001600160a01b0383163b6148565760405162461bcd60e51b815260206004820152602660248201527f416464726573733a2064656c65676174652063616c6c20746f206e6f6e2d636f6044820152651b9d1c9858dd60d21b6064820152608401610f67565b600080846001600160a01b0316846040516148719190615f0d565b600060405180830381855af49150503d80600081146148ac576040519150601f19603f3d011682016040523d82523d6000602084013e6148b1565b606091505b50915091506148d98282604051806060016040528060278152602001615f4a602791396148e2565b95945050505050565b606083156148f1575081614272565b61427283838151156149065781518083602001fd5b8060405162461bcd60e51b8152600401610f679190614a55565b82805482825590600052602060002090810192821561495b579160200282015b8281111561495b578251825591602001919060010190614940565b5061496792915061496b565b5090565b5b80821115614967576000815560010161496c565b6001600160e01b03198116811461190957600080fd5b6000602082840312156149a857600080fd5b813561427281614980565b6000602082840312156149c557600080fd5b5035919050565b60a08101610da4828480518252602081015160208301526040810151604083015260608101516060830152608081015160808301525050565b60005b83811015614a20578181015183820152602001614a08565b50506000910152565b60008151808452614a41816020860160208601614a05565b601f01601f19169290920160200192915050565b6020815260006142726020830184614a29565b6001600160a01b038116811461190957600080fd5b60008060408385031215614a9057600080fd5b8235614a9b81614a68565b946020939093013593505050565b634e487b7160e01b600052604160045260246000fd5b604051601f8201601f191681016001600160401b0381118282101715614ae757614ae7614aa9565b604052919050565b60006001600160401b03821115614b0857614b08614aa9565b5060051b60200190565b600082601f830112614b2357600080fd5b81356020614b38614b3383614aef565b614abf565b82815260059290921b84018101918181019086841115614b5757600080fd5b8286015b84811015614b725780358352918301918301614b5b565b509695505050505050565b600060208284031215614b8f57600080fd5b81356001600160401b03811115614ba557600080fd5b612b4284828501614b12565b60008060408385031215614bc457600080fd5b8235915060208301356001600160401b03811115614be157600080fd5b614bed85828601614b12565b9150509250929050565b60008083601f840112614c0957600080fd5b5081356001600160401b03811115614c2057600080fd5b602083019150836020828501011115611faf57600080fd5b60008060008060008060008060e0898b031215614c5457600080fd5b883597506020890135614c6681614a68565b965060408901359550606089013594506080890135935060a0890135925060c08901356001600160401b03811115614c9d57600080fd5b614ca98b828c01614bf7565b999c989b5096995094979396929594505050565b600080600060608486031215614cd257600080fd5b8335614cdd81614a68565b92506020840135614ced81614a68565b929592945050506040919091013590565b60008083601f840112614d1057600080fd5b5081356001600160401b03811115614d2757600080fd5b6020830191508360208260051b8501011115611faf57600080fd5b60008060208385031215614d5557600080fd5b82356001600160401b03811115614d6b57600080fd5b614d7785828601614cfe565b90969095509350505050565b803560028110614d9257600080fd5b919050565b600080600060608486031215614dac57600080fd5b8335614db781614a68565b925060208401359150614dcc60408501614d83565b90509250925092565b60008060008060408587031215614deb57600080fd5b84356001600160401b0380821115614e0257600080fd5b614e0e88838901614cfe565b90965094506020870135915080821115614e2757600080fd5b50614e3487828801614cfe565b95989497509550505050565b60006001600160401b03821115614e5957614e59614aa9565b50601f01601f191660200190565b600082601f830112614e7857600080fd5b8135614e86614b3382614e40565b818152846020838601011115614e9b57600080fd5b816020850160208301376000918101602001919091529392505050565b600080600080600060a08688031215614ed057600080fd5b8535614edb81614a68565b94506020860135614eeb81614a68565b935060408601356001600160401b0380821115614f0757600080fd5b614f1389838a01614e67565b94506060880135915080821115614f2957600080fd5b50614f3688828901614e67565b9250506080860135614f4781614a68565b809150509295509295909350565b600060208284031215614f6757600080fd5b813561427281614a68565b60006101208201905060ff835116825264ffffffffff60208401511660208301526040830151614fab604084018264ffffffffff169052565b506060830151614fc4606084018264ffffffffff169052565b506080830151614fdd608084018264ffffffffff169052565b5060a0830151614ff360a084018261ffff169052565b5060c083015161500960c084018261ffff169052565b5060e083015161501f60e084018261ffff169052565b506101008381015164ffffffffff8116848301525b505092915050565b6000806020838503121561504f57600080fd5b82356001600160401b0381111561506557600080fd5b614d7785828601614bf7565b6000806040838503121561508457600080fd5b823561508f81614a68565b915060208301356001600160401b038111156150aa57600080fd5b614bed85828601614e67565b8215158152604060208201526000612b426040830184614a29565b600061012082840312156150e457600080fd5b50919050565b60ff8116811461190957600080fd5b600080600080600080600060e0888a03121561511457600080fd5b873596506020880135955060408801359450606088013593506080880135925060a0880135915060c0880135615149816150ea565b8091505092959891949750929550565b61ffff8116811461190957600080fd5b8035614d9281615159565b60008060006060848603121561518957600080fd5b833561519481615159565b925060208401356151a481615159565b9150614dcc60408501614d83565b600060a082840312156150e457600080fd5b801515811461190957600080fd5b600080604083850312156151e557600080fd5b82356151f081614a68565b91506020830135615200816151c4565b809150509250929050565b6000806000806080858703121561522157600080fd5b843561522c81614a68565b9350602085013561523c81614a68565b92506040850135915060608501356001600160401b0381111561525e57600080fd5b61526a87828801614e67565b91505092959194509250565b6000806000838503608081121561528c57600080fd5b604081121561529a57600080fd5b50604051604081018181106001600160401b03821117156152bd576152bd614aa9565b604090815285358252602080870135908301529093508401356152df81614a68565b929592945050506060919091013590565b60008060006060848603121561530557600080fd5b505081359360208301359350604090920135919050565b6000806040838503121561532f57600080fd5b50508035926020909101359150565b6000806040838503121561535157600080fd5b823561535c81614a68565b9150602083013561520081614a68565b600181811c9082168061538057607f821691505b6020821081036150e457634e487b7160e01b600052602260045260246000fd5b600081518084526020808501945080840160005b838110156153d0578151875295820195908201906001016153b4565b509495945050505050565b8381528260208201526060604082015260006148d960608301846153a0565b6000806040838503121561540d57600080fd5b505080516020909101519092909150565b634e487b7160e01b600052601160045260246000fd5b8082028115828204841417610da457610da461541e565b60006001820161545d5761545d61541e565b5060010190565b80820180821115610da457610da461541e565b600063ffffffff8083168181036154905761549061541e565b6001019392505050565b601f82111561100857600081815260208120601f850160051c810160208610156154c15750805b601f850160051c820191505b81811015611825578281556001016154cd565b81516001600160401b038111156154f9576154f9614aa9565b61550d81615507845461536c565b8461549a565b602080601f831160018114615542576000841561552a5750858301515b600019600386901b1c1916600185901b178555611825565b600085815260208120601f198616915b8281101561557157888601518255948401946001909101908401615552565b508582101561558f5787850151600019600388901b60f8161c191681555b5050505050600190811b01905550565b6020808252602d908201527f4552433732313a2063616c6c6572206973206e6f7420746f6b656e206f776e6560408201526c1c881bdc88185c1c1c9bdd9959609a1b606082015260800190565b634e487b7160e01b600052603260045260246000fd5b634e487b7160e01b600052602160045260246000fd5b6002811061563657634e487b7160e01b600052602160045260246000fd5b9052565b858152602081018590526001600160a01b03841660408201526060810183905260a0810161566b6080830184615618565b9695505050505050565b6000806000806080858703121561568b57600080fd5b845161569681614a68565b6020860151604087015191955093506156ae81614a68565b6060959095015193969295505050565b8183526000602080850194508260005b858110156153d05781356156e181614a68565b6001600160a01b0316875295820195908201906001016156ce565b8581526060602082015260006157166060830186886156be565b82810360408401526157298185876156be565b98975050505050505050565b6020808252602c908201527f46756e6374696f6e206d7573742062652063616c6c6564207468726f7567682060408201526b19195b1959d85d1958d85b1b60a21b606082015260800190565b6020808252602c908201527f46756e6374696f6e206d7573742062652063616c6c6564207468726f7567682060408201526b6163746976652070726f787960a01b606082015260800190565b64ffffffffff8181168382160190808211156157eb576157eb61541e565b5092915050565b60006020828403121561580457600080fd5b5051919050565b64ffffffffff8116811461190957600080fd5b60008135610da48161580b565b60008135610da481615159565b8135615843816150ea565b60ff8116905081548160ff19821617835560208401356158628161580b565b65ffffffffff008160081b168365ffffffffffff198416171784555050506158b761588f6040840161581e565b82546affffffffff000000000000191660309190911b6affffffffff00000000000016178255565b6158ec6158c66060840161581e565b82805464ffffffffff60581b191660589290921b64ffffffffff60581b16919091179055565b6159216158fb6080840161581e565b82805464ffffffffff60801b191660809290921b64ffffffffff60801b16919091179055565b61595061593060a0840161582b565b82805461ffff60a81b191660a89290921b61ffff60a81b16919091179055565b61597f61595f60c0840161582b565b82805461ffff60b81b191660b89290921b61ffff60b81b16919091179055565b6159ae61598e60e0840161582b565b82805461ffff60c81b191660c89290921b61ffff60c81b16919091179055565b61119e6159be610100840161581e565b8280546001600160d81b031660d89290921b6001600160d81b031916919091179055565b8035614d928161580b565b610120810182356159fd816150ea565b60ff168252615a0e602084016159e2565b64ffffffffff166020830152615a26604084016159e2565b64ffffffffff166040830152615a3e606084016159e2565b64ffffffffff166060830152615a56608084016159e2565b64ffffffffff166080830152615a6e60a08401615169565b61ffff1660a0830152615a8360c08401615169565b61ffff1660c0830152615a9860e08401615169565b61ffff1660e0830152610100615aaf8482016159e2565b64ffffffffff811684830152615034565b84815261ffff848116602083015283166040820152608081016148d96060830184615618565b6001600160401b038116811461190957600080fd5b63ffffffff8116811461190957600080fd5b81358155600181016020830135615b2381615ae6565b81546040850135615b3381615afb565b6060860135615b4181615afb565b6080870135615b4f81615159565b61ffff60801b8160801b166001600160401b03861671ffffffffffffffffffffffffffffffffffff198616176bffffffff00000000000000008560401b161763ffffffff60601b8460601b16171786555050505050505050565b8135815260a081016020830135615bbf81615ae6565b6001600160401b031660208301526040830135615bdb81615afb565b63ffffffff9081166040840152606084013590615bf782615afb565b1660608301526080830135615c0b81615159565b61ffff811660808401525092915050565b600060208284031215615c2e57600080fd5b81516001600160401b03811115615c4457600080fd5b8201601f81018413615c5557600080fd5b8051615c63614b3382614e40565b818152856020838501011115615c7857600080fd5b6148d9826020830160208601614a05565b60208082526025908201527f4552433732313a207472616e736665722066726f6d20696e636f72726563742060408201526437bbb732b960d91b606082015260800190565b6020808252602b908201527f496e697469616c697a61626c653a20636f6e7472616374206973206e6f74206960408201526a6e697469616c697a696e6760a81b606082015260800190565b608081526000615d2c60808301876153a0565b6020830195909552506040810192909252606090910152919050565b634e487b7160e01b600052601260045260246000fd5b600082615d6d57615d6d615d48565b500690565b606081526000615d8560608301866153a0565b60208301949094525060400152919050565b600060208284031215615da957600080fd5b8151614272816151c4565b60208082526032908201527f4552433732313a207472616e7366657220746f206e6f6e20455243373231526560408201527131b2b4bb32b91034b6b83632b6b2b73a32b960711b606082015260800190565b81810381811115610da457610da461541e565b600082615e2857615e28615d48565b500490565b60006020808385031215615e4057600080fd5b82516001600160401b03811115615e5657600080fd5b8301601f81018513615e6757600080fd5b8051615e75614b3382614aef565b81815260059190911b82018301908381019087831115615e9457600080fd5b928401925b82841015615eb257835182529284019290840190615e99565b979650505050505050565b6001600160a01b038581168252841660208201526040810183905260806060820181905260009061566b90830184614a29565b600060208284031215615f0257600080fd5b815161427281614980565b60008251615f1f818460208701614a05565b919091019291505056fe360894a13ba1a3210667c828492db98dca3e2076cc3735a920a3ca505d382bbc416464726573733a206c6f772d6c6576656c2064656c65676174652063616c6c206661696c6564a264697066735822122056d391b6dbf1dd58f868f3c5b3143cf8b3042cbc102f38f97257ba289e21936c64736f6c63430008110033",
  "libraries": {
    "RenderEngine": "0x3F112674c61Cc3a67590eaE2999665b9Bb25dc93",
    "Renderer": "0xC1BEbC49c835baF377A34E69C87EBe940643e39F",
    "FastArray": "0x0A1B039faD9Df98aef44a9603BA94A33f51e94fD",
    "RankingRedBlackTree": "0x4b52CCE4f798d068773942621f2F5B1C3c4a36a2",
    "SingleRanking": "0xbb65762c83A6eE29471AF61d62d36Fb6f4004003",
    "DegenRank": "0xA1Aa4713da58E9709838f5eF065d40734fb47696",
    "PortalLib": "0x10aB092D106ec57303262C382B3eAAb1D20e1D11"
  },
  "devdoc": {
    "errors": {
      "DropOff()": [
        {
          "details": "revert when the drop is not on"
        }
      ],
      "InsufficientAmount()": [
        {
          "details": "revert when msg.value is insufficient"
        }
      ],
      "NotSetBurnPoolAddress()": [
        {
          "details": "revert if burnPool address not set when infuse"
        }
      ],
      "NotSigner()": [
        {
          "details": "revert when to caller is not signer"
        }
      ],
      "SameSeed()": [
        {
          "details": "revert when the random seed is duplicated"
        }
      ],
      "ZeroAddressSet()": [
        {
          "details": "revert when set ZeroAddress"
        }
      ]
    },
    "kind": "dev",
    "methods": {
      "approve(address,uint256)": {
        "details": "See {IERC721-approve}."
      },
      "balanceOf(address)": {
        "details": "See {IERC721-balanceOf}."
      },
      "baptise(address,uint256)": {
        "details": "reward for share the game",
        "params": {
          "amount": "amount for reward",
          "user": "user address"
        }
      },
      "burnFromBurnPool(uint256)": {
        "details": "burn $REBORN from burn pool",
        "params": {
          "amount": "burn from burn pool"
        }
      },
      "calculateReferReward(address,uint256,uint8)": {
        "details": "returns referrer and referer reward",
        "returns": {
          "ref1": " level1 of referrer. direct referrer",
          "ref1Reward": " level 1 referrer reward",
          "ref2": " level2 of referrer. referrer's referrer",
          "ref2Reward": " level 2 referrer reward"
        }
      },
      "checkUpkeep(bytes)": {
        "details": "checkUpkeep for chainlink automation"
      },
      "claimDrops(uint256[])": {
        "details": "user claim many pools' airdrop",
        "params": {
          "tokenIds": "pools' tokenId array to claim"
        }
      },
      "claimNativeDrops(uint256[])": {
        "details": "user claim many pools' native token airdrop",
        "params": {
          "tokenIds": "pools' tokenId array to claim"
        }
      },
      "claimOwnership()": {
        "details": "pending owner call this function to claim ownership"
      },
      "claimRebornDrops(uint256[])": {
        "details": "user claim many pools' reborn token airdrop",
        "params": {
          "tokenIds": "pools' tokenId array to claim"
        }
      },
      "engrave(bytes32,address,uint256,uint256,uint256,uint256,string)": {
        "details": "engrave the result on chain and reward",
        "params": {
          "cost": "user cost for this life",
          "reward": "$REBORN user earns, decimal 10^18",
          "score": "life score",
          "seed": "random seed in bytes32",
          "user": "user address"
        }
      },
      "flattenRewardDebt(uint256)": {
        "details": "use only in test environmentflatten Reward Debt, for fix in dev mode"
      },
      "getApproved(uint256)": {
        "details": "See {IERC721-getApproved}."
      },
      "getPool(uint256)": {
        "details": "read pool attribute"
      },
      "getPortfolio(address,uint256)": {
        "details": "read pool attribute"
      },
      "getRerferrers(address)": {
        "details": "referrer1: level1 of referrers referrer2: level2 of referrers"
      },
      "infuse(uint256,uint256)": {
        "details": "stake $REBORN on this tombstone",
        "params": {
          "amount": "stake amount, decimal 10^18",
          "tokenId": "tokenId of the life to stake"
        }
      },
      "infuse(uint256,uint256,uint256,uint256,bytes32,bytes32,uint8)": {
        "details": "stake $REBORN with permit",
        "params": {
          "amount": "amount of $REBORN to stake",
          "permitAmount": "amount of $REBORN to approve",
          "r": "r of signature",
          "s": "v of signature",
          "tokenId": "tokenId of the life to stake",
          "v": "v of signature"
        }
      },
      "isApprovedForAll(address,address)": {
        "details": "See {IERC721-isApprovedForAll}."
      },
      "name()": {
        "details": "See {IERC721Metadata-name}."
      },
      "owner()": {
        "details": "Returns the address of the current owner."
      },
      "ownerOf(uint256)": {
        "details": "See {IERC721-ownerOf}."
      },
      "paused()": {
        "details": "Returns true if the contract is paused, and false otherwise."
      },
      "pendingDrop(uint256[])": {
        "details": "read pending reward from specific pool",
        "params": {
          "tokenIds": "tokenId array of the pools"
        }
      },
      "pendingOwner()": {
        "details": "Return the address of the pending owner"
      },
      "performUpkeep(bytes)": {
        "details": "Upkeep perform of chainlink automation"
      },
      "proxiableUUID()": {
        "details": "Implementation of the ERC1822 {proxiableUUID} function. This returns the storage slot used by the implementation. It is used to validate the implementation's compatibility when performing an upgrade. IMPORTANT: A proxy pointing at a proxiable contract should not be considered proxiable itself, because this risks bricking a proxy that upgrades to it, by delegating to itself until out of gas. Thus it is critical that this function revert if invoked through a proxy. This is guaranteed by the `notDelegated` modifier."
      },
      "renounceOwnership()": {
        "details": "Leaves the contract without owner. It will not be possible to call `onlyOwner` functions anymore. Can only be called by the current owner. NOTE: Renouncing ownership will leave the contract without an owner, thereby removing any functionality that is only available to the owner."
      },
      "safeTransferFrom(address,address,uint256)": {
        "details": "See {IERC721-safeTransferFrom}."
      },
      "safeTransferFrom(address,address,uint256,bytes)": {
        "details": "See {IERC721-safeTransferFrom}."
      },
      "seedExists(bytes32)": {
        "details": "check whether the seed is used on-chain",
        "params": {
          "seed": "random seed in bytes32"
        }
      },
      "setApprovalForAll(address,bool)": {
        "details": "See {IERC721-setApprovalForAll}."
      },
      "setDropConf((uint8,uint40,uint40,uint40,uint40,uint16,uint16,uint16,uint40))": {
        "details": "set new airdrop config"
      },
      "setReferrerRewardFee(uint16,uint16,uint8)": {
        "details": "set percentage of referrer reward",
        "params": {
          "rewardType": "0: incarnate reward 1: engrave reward"
        }
      },
      "setVault(address)": {
        "details": "set vault",
        "params": {
          "vault_": "new vault address"
        }
      },
      "setVrfConf((bytes32,uint64,uint32,uint32,uint16))": {
        "details": "set new chainlink vrf v2 config"
      },
      "supportsInterface(bytes4)": {
        "details": "See {IERC165-supportsInterface}."
      },
      "switchPool(uint256,uint256,uint256)": {
        "details": "switch stake amount from poolFrom to poolTo",
        "params": {
          "amount": "amount to switch",
          "fromTokenId": "tokenId of from pool",
          "toTokenId": "tokenId of to pool"
        }
      },
      "symbol()": {
        "details": "See {IERC721Metadata-symbol}."
      },
      "toNextSeason()": {
        "details": "switch to next season, call by owner"
      },
      "tokenURI(uint256)": {
        "details": "See {IERC721Metadata-tokenURI}."
      },
      "transferFrom(address,address,uint256)": {
        "details": "See {IERC721-transferFrom}."
      },
      "transferOwnership(address,bool)": {
        "details": "Transfers ownership of the contract to a new account (`newOwner`). Can only be called by the current owner. Note If direct is false, it will set an pending owner and the OwnerShipTransferring only happens when the pending owner claim the ownership"
      },
      "updateSigners(address[],address[])": {
        "details": "update signers",
        "params": {
          "toAdd": "list of to be added signer",
          "toRemove": "list of to be removed signer"
        }
      },
      "upgradeTo(address)": {
        "details": "Upgrade the implementation of the proxy to `newImplementation`. Calls {_authorizeUpgrade}. Emits an {Upgraded} event."
      },
      "upgradeToAndCall(address,bytes)": {
        "details": "Upgrade the implementation of the proxy to `newImplementation`, and subsequently execute the function call encoded in `data`. Calls {_authorizeUpgrade}. Emits an {Upgraded} event."
      },
      "withdrawNativeToken(uint256)": {
        "details": "withdraw native token for reward distributionamount how much to withdraw"
      },
      "withdrawVault(address)": {
        "details": "withdraw token from vault",
        "params": {
          "to": "the address which owner withdraw token to"
        }
      }
    },
    "version": 1
  },
  "userdoc": {
    "kind": "user",
    "methods": {
      "getRerferrers(address)": {
        "notice": "A -> B -> C: B: level1 A: level2"
      },
      "setReferrerRewardFee(uint16,uint16,uint8)": {
        "notice": "mul 100 when set. eg: 8% -> 800 18%-> 1800"
      }
    },
    "version": 1
  },
  "storageLayout": {
    "storage": [
      {
        "astId": 549,
        "contract": "src/RebornPortal.sol:RebornPortal",
        "label": "_initialized",
        "offset": 0,
        "slot": "0",
        "type": "t_uint8"
      },
      {
        "astId": 552,
        "contract": "src/RebornPortal.sol:RebornPortal",
        "label": "_initializing",
        "offset": 1,
        "slot": "0",
        "type": "t_bool"
      },
      {
        "astId": 3596,
        "contract": "src/RebornPortal.sol:RebornPortal",
        "label": "__gap",
        "offset": 0,
        "slot": "1",
        "type": "t_array(t_uint256)50_storage"
      },
      {
        "astId": 8211,
        "contract": "src/RebornPortal.sol:RebornPortal",
        "label": "_owner",
        "offset": 0,
        "slot": "51",
        "type": "t_address"
      },
      {
        "astId": 8213,
        "contract": "src/RebornPortal.sol:RebornPortal",
        "label": "_pendingOwner",
        "offset": 0,
        "slot": "52",
        "type": "t_address"
      },
      {
        "astId": 8404,
        "contract": "src/RebornPortal.sol:RebornPortal",
        "label": "__gap",
        "offset": 0,
        "slot": "53",
        "type": "t_array(t_uint256)48_storage"
      },
      {
        "astId": 531,
        "contract": "src/RebornPortal.sol:RebornPortal",
        "label": "__gap",
        "offset": 0,
        "slot": "101",
        "type": "t_array(t_uint256)50_storage"
      },
      {
        "astId": 846,
        "contract": "src/RebornPortal.sol:RebornPortal",
        "label": "__gap",
        "offset": 0,
        "slot": "151",
        "type": "t_array(t_uint256)50_storage"
      },
      {
        "astId": 4460,
        "contract": "src/RebornPortal.sol:RebornPortal",
        "label": "__gap",
        "offset": 0,
        "slot": "201",
        "type": "t_array(t_uint256)50_storage"
      },
      {
        "astId": 12329,
        "contract": "src/RebornPortal.sol:RebornPortal",
        "label": "_season",
        "offset": 0,
        "slot": "251",
        "type": "t_uint256"
      },
      {
        "astId": 12332,
        "contract": "src/RebornPortal.sol:RebornPortal",
        "label": "rebornToken",
        "offset": 0,
        "slot": "252",
        "type": "t_contract(RBT)10317"
      },
      {
        "astId": 12336,
        "contract": "src/RebornPortal.sol:RebornPortal",
        "label": "signers",
        "offset": 0,
        "slot": "253",
        "type": "t_mapping(t_address,t_bool)"
      },
      {
        "astId": 12340,
        "contract": "src/RebornPortal.sol:RebornPortal",
        "label": "rounds",
        "offset": 0,
        "slot": "254",
        "type": "t_mapping(t_address,t_uint32)"
      },
      {
        "astId": 12342,
        "contract": "src/RebornPortal.sol:RebornPortal",
        "label": "idx",
        "offset": 0,
        "slot": "255",
        "type": "t_uint256"
      },
      {
        "astId": 12347,
        "contract": "src/RebornPortal.sol:RebornPortal",
        "label": "details",
        "offset": 0,
        "slot": "256",
        "type": "t_mapping(t_uint256,t_struct(LifeDetail)12933_storage)"
      },
      {
        "astId": 12352,
        "contract": "src/RebornPortal.sol:RebornPortal",
        "label": "_seasonData",
        "offset": 0,
        "slot": "257",
        "type": "t_mapping(t_uint256,t_struct(SeasonData)12963_storage)"
      },
      {
        "astId": 12356,
        "contract": "src/RebornPortal.sol:RebornPortal",
        "label": "referrals",
        "offset": 0,
        "slot": "258",
        "type": "t_mapping(t_address,t_address)"
      },
      {
        "astId": 12359,
        "contract": "src/RebornPortal.sol:RebornPortal",
        "label": "rewardFees",
        "offset": 0,
        "slot": "259",
        "type": "t_struct(ReferrerRewardFees)8724_storage"
      },
      {
        "astId": 12362,
        "contract": "src/RebornPortal.sol:RebornPortal",
        "label": "vault",
        "offset": 0,
        "slot": "260",
        "type": "t_contract(RewardVault)12758"
      },
      {
        "astId": 12365,
        "contract": "src/RebornPortal.sol:RebornPortal",
        "label": "_seeds",
        "offset": 0,
        "slot": "261",
        "type": "t_struct(BitMap)5346_storage"
      },
      {
        "astId": 12368,
        "contract": "src/RebornPortal.sol:RebornPortal",
        "label": "_dropConf",
        "offset": 0,
        "slot": "262",
        "type": "t_struct(AirdropConf)8766_storage"
      },
      {
        "astId": 12370,
        "contract": "src/RebornPortal.sol:RebornPortal",
        "label": "burnPool",
        "offset": 0,
        "slot": "263",
        "type": "t_address"
      },
      {
        "astId": 12373,
        "contract": "src/RebornPortal.sol:RebornPortal",
        "label": "_vrfConf",
        "offset": 0,
        "slot": "264",
        "type": "t_struct(VrfConf)8777_storage"
      },
      {
        "astId": 12378,
        "contract": "src/RebornPortal.sol:RebornPortal",
        "label": "_vrfRequests",
        "offset": 0,
        "slot": "266",
        "type": "t_mapping(t_uint256,t_struct(RequestStatus)12980_storage)"
      },
      {
        "astId": 12381,
        "contract": "src/RebornPortal.sol:RebornPortal",
        "label": "_pendingDrops",
        "offset": 0,
        "slot": "267",
        "type": "t_struct(Data)13300_storage"
      },
      {
        "astId": 12386,
        "contract": "src/RebornPortal.sol:RebornPortal",
        "label": "_gap",
        "offset": 0,
        "slot": "270",
        "type": "t_array(t_uint256)34_storage"
      },
      {
        "astId": 2169,
        "contract": "src/RebornPortal.sol:RebornPortal",
        "label": "_name",
        "offset": 0,
        "slot": "304",
        "type": "t_string_storage"
      },
      {
        "astId": 2171,
        "contract": "src/RebornPortal.sol:RebornPortal",
        "label": "_symbol",
        "offset": 0,
        "slot": "305",
        "type": "t_string_storage"
      },
      {
        "astId": 2175,
        "contract": "src/RebornPortal.sol:RebornPortal",
        "label": "_owners",
        "offset": 0,
        "slot": "306",
        "type": "t_mapping(t_uint256,t_address)"
      },
      {
        "astId": 2179,
        "contract": "src/RebornPortal.sol:RebornPortal",
        "label": "_balances",
        "offset": 0,
        "slot": "307",
        "type": "t_mapping(t_address,t_uint256)"
      },
      {
        "astId": 2183,
        "contract": "src/RebornPortal.sol:RebornPortal",
        "label": "_tokenApprovals",
        "offset": 0,
        "slot": "308",
        "type": "t_mapping(t_uint256,t_address)"
      },
      {
        "astId": 2189,
        "contract": "src/RebornPortal.sol:RebornPortal",
        "label": "_operatorApprovals",
        "offset": 0,
        "slot": "309",
        "type": "t_mapping(t_address,t_mapping(t_address,t_bool))"
      },
      {
        "astId": 3109,
        "contract": "src/RebornPortal.sol:RebornPortal",
        "label": "__gap",
        "offset": 0,
        "slot": "310",
        "type": "t_array(t_uint256)44_storage"
      },
      {
        "astId": 988,
        "contract": "src/RebornPortal.sol:RebornPortal",
        "label": "_status",
        "offset": 0,
        "slot": "354",
        "type": "t_uint256"
      },
      {
        "astId": 1046,
        "contract": "src/RebornPortal.sol:RebornPortal",
        "label": "__gap",
        "offset": 0,
        "slot": "355",
        "type": "t_array(t_uint256)49_storage"
      },
      {
        "astId": 868,
        "contract": "src/RebornPortal.sol:RebornPortal",
        "label": "_paused",
        "offset": 0,
        "slot": "404",
        "type": "t_bool"
      },
      {
        "astId": 973,
        "contract": "src/RebornPortal.sol:RebornPortal",
        "label": "__gap",
        "offset": 0,
        "slot": "405",
        "type": "t_array(t_uint256)49_storage"
      },
      {
        "astId": 16884,
        "contract": "src/RebornPortal.sol:RebornPortal",
        "label": "vrfCoordinator",
        "offset": 0,
        "slot": "454",
        "type": "t_address"
      },
      {
        "astId": 16888,
        "contract": "src/RebornPortal.sol:RebornPortal",
        "label": "__gap",
        "offset": 0,
        "slot": "455",
        "type": "t_array(t_uint256)49_storage"
      }
    ],
    "types": {
      "t_address": {
        "encoding": "inplace",
        "label": "address",
        "numberOfBytes": "20"
      },
      "t_array(t_uint256)34_storage": {
        "base": "t_uint256",
        "encoding": "inplace",
        "label": "uint256[34]",
        "numberOfBytes": "1088"
      },
      "t_array(t_uint256)44_storage": {
        "base": "t_uint256",
        "encoding": "inplace",
        "label": "uint256[44]",
        "numberOfBytes": "1408"
      },
      "t_array(t_uint256)48_storage": {
        "base": "t_uint256",
        "encoding": "inplace",
        "label": "uint256[48]",
        "numberOfBytes": "1536"
      },
      "t_array(t_uint256)49_storage": {
        "base": "t_uint256",
        "encoding": "inplace",
        "label": "uint256[49]",
        "numberOfBytes": "1568"
      },
      "t_array(t_uint256)50_storage": {
        "base": "t_uint256",
        "encoding": "inplace",
        "label": "uint256[50]",
        "numberOfBytes": "1600"
      },
      "t_array(t_uint256)dyn_storage": {
        "base": "t_uint256",
        "encoding": "dynamic_array",
        "label": "uint256[]",
        "numberOfBytes": "32"
      },
      "t_bool": {
        "encoding": "inplace",
        "label": "bool",
        "numberOfBytes": "1"
      },
      "t_bytes32": {
        "encoding": "inplace",
        "label": "bytes32",
        "numberOfBytes": "32"
      },
      "t_contract(RBT)10317": {
        "encoding": "inplace",
        "label": "contract RBT",
        "numberOfBytes": "20"
      },
      "t_contract(RewardVault)12758": {
        "encoding": "inplace",
        "label": "contract RewardVault",
        "numberOfBytes": "20"
      },
      "t_enum(AirdropVrfType)12967": {
        "encoding": "inplace",
        "label": "enum IRebornDefination.AirdropVrfType",
        "numberOfBytes": "1"
      },
      "t_mapping(t_address,t_address)": {
        "encoding": "mapping",
        "key": "t_address",
        "label": "mapping(address => address)",
        "numberOfBytes": "32",
        "value": "t_address"
      },
      "t_mapping(t_address,t_bool)": {
        "encoding": "mapping",
        "key": "t_address",
        "label": "mapping(address => bool)",
        "numberOfBytes": "32",
        "value": "t_bool"
      },
      "t_mapping(t_address,t_mapping(t_address,t_bool))": {
        "encoding": "mapping",
        "key": "t_address",
        "label": "mapping(address => mapping(address => bool))",
        "numberOfBytes": "32",
        "value": "t_mapping(t_address,t_bool)"
      },
      "t_mapping(t_address,t_mapping(t_uint256,t_struct(Portfolio)8747_storage))": {
        "encoding": "mapping",
        "key": "t_address",
        "label": "mapping(address => mapping(uint256 => struct PortalLib.Portfolio))",
        "numberOfBytes": "32",
        "value": "t_mapping(t_uint256,t_struct(Portfolio)8747_storage)"
      },
      "t_mapping(t_address,t_uint256)": {
        "encoding": "mapping",
        "key": "t_address",
        "label": "mapping(address => uint256)",
        "numberOfBytes": "32",
        "value": "t_uint256"
      },
      "t_mapping(t_address,t_uint32)": {
        "encoding": "mapping",
        "key": "t_address",
        "label": "mapping(address => uint32)",
        "numberOfBytes": "32",
        "value": "t_uint32"
      },
      "t_mapping(t_uint256,t_address)": {
        "encoding": "mapping",
        "key": "t_uint256",
        "label": "mapping(uint256 => address)",
        "numberOfBytes": "32",
        "value": "t_address"
      },
      "t_mapping(t_uint256,t_struct(Data)13300_storage)": {
        "encoding": "mapping",
        "key": "t_uint256",
        "label": "mapping(uint256 => struct FastArray.Data)",
        "numberOfBytes": "32",
        "value": "t_struct(Data)13300_storage"
      },
      "t_mapping(t_uint256,t_struct(LifeDetail)12933_storage)": {
        "encoding": "mapping",
        "key": "t_uint256",
        "label": "mapping(uint256 => struct IRebornDefination.LifeDetail)",
        "numberOfBytes": "32",
        "value": "t_struct(LifeDetail)12933_storage"
      },
      "t_mapping(t_uint256,t_struct(Node)13540_storage)": {
        "encoding": "mapping",
        "key": "t_uint256",
        "label": "mapping(uint256 => struct RankingRedBlackTree.Node)",
        "numberOfBytes": "32",
        "value": "t_struct(Node)13540_storage"
      },
      "t_mapping(t_uint256,t_struct(Pool)8735_storage)": {
        "encoding": "mapping",
        "key": "t_uint256",
        "label": "mapping(uint256 => struct PortalLib.Pool)",
        "numberOfBytes": "32",
        "value": "t_struct(Pool)8735_storage"
      },
      "t_mapping(t_uint256,t_struct(Portfolio)8747_storage)": {
        "encoding": "mapping",
        "key": "t_uint256",
        "label": "mapping(uint256 => struct PortalLib.Portfolio)",
        "numberOfBytes": "32",
        "value": "t_struct(Portfolio)8747_storage"
      },
      "t_mapping(t_uint256,t_struct(RequestStatus)12980_storage)": {
        "encoding": "mapping",
        "key": "t_uint256",
        "label": "mapping(uint256 => struct IRebornDefination.RequestStatus)",
        "numberOfBytes": "32",
        "value": "t_struct(RequestStatus)12980_storage"
      },
      "t_mapping(t_uint256,t_struct(SeasonData)12963_storage)": {
        "encoding": "mapping",
        "key": "t_uint256",
        "label": "mapping(uint256 => struct IRebornDefination.SeasonData)",
        "numberOfBytes": "32",
        "value": "t_struct(SeasonData)12963_storage"
      },
      "t_mapping(t_uint256,t_uint256)": {
        "encoding": "mapping",
        "key": "t_uint256",
        "label": "mapping(uint256 => uint256)",
        "numberOfBytes": "32",
        "value": "t_uint256"
      },
      "t_string_storage": {
        "encoding": "bytes",
        "label": "string",
        "numberOfBytes": "32"
      },
      "t_struct(AirdropConf)8766_storage": {
        "encoding": "inplace",
        "label": "struct PortalLib.AirdropConf",
        "members": [
          {
            "astId": 8749,
            "contract": "src/RebornPortal.sol:RebornPortal",
            "label": "_dropOn",
            "offset": 0,
            "slot": "0",
            "type": "t_uint8"
          },
          {
            "astId": 8751,
            "contract": "src/RebornPortal.sol:RebornPortal",
            "label": "_rebornDropInterval",
            "offset": 1,
            "slot": "0",
            "type": "t_uint40"
          },
          {
            "astId": 8753,
            "contract": "src/RebornPortal.sol:RebornPortal",
            "label": "_nativeDropInterval",
            "offset": 6,
            "slot": "0",
            "type": "t_uint40"
          },
          {
            "astId": 8755,
            "contract": "src/RebornPortal.sol:RebornPortal",
            "label": "_rebornDropLastUpdate",
            "offset": 11,
            "slot": "0",
            "type": "t_uint40"
          },
          {
            "astId": 8757,
            "contract": "src/RebornPortal.sol:RebornPortal",
            "label": "_nativeDropLastUpdate",
            "offset": 16,
            "slot": "0",
            "type": "t_uint40"
          },
          {
            "astId": 8759,
            "contract": "src/RebornPortal.sol:RebornPortal",
            "label": "_nativeTopDropRatio",
            "offset": 21,
            "slot": "0",
            "type": "t_uint16"
          },
          {
            "astId": 8761,
            "contract": "src/RebornPortal.sol:RebornPortal",
            "label": "_nativeRaffleDropRatio",
            "offset": 23,
            "slot": "0",
            "type": "t_uint16"
          },
          {
            "astId": 8763,
            "contract": "src/RebornPortal.sol:RebornPortal",
            "label": "_rebornTopEthAmount",
            "offset": 25,
            "slot": "0",
            "type": "t_uint16"
          },
          {
            "astId": 8765,
            "contract": "src/RebornPortal.sol:RebornPortal",
            "label": "_rebornRaffleEthAmount",
            "offset": 27,
            "slot": "0",
            "type": "t_uint40"
          }
        ],
        "numberOfBytes": "32"
      },
      "t_struct(BitMap)5346_storage": {
        "encoding": "inplace",
        "label": "struct BitMapsUpgradeable.BitMap",
        "members": [
          {
            "astId": 5345,
            "contract": "src/RebornPortal.sol:RebornPortal",
            "label": "_data",
            "offset": 0,
            "slot": "0",
            "type": "t_mapping(t_uint256,t_uint256)"
          }
        ],
        "numberOfBytes": "32"
      },
      "t_struct(Data)13300_storage": {
        "encoding": "inplace",
        "label": "struct FastArray.Data",
        "members": [
          {
            "astId": 13293,
            "contract": "src/RebornPortal.sol:RebornPortal",
            "label": "array",
            "offset": 0,
            "slot": "0",
            "type": "t_mapping(t_uint256,t_uint256)"
          },
          {
            "astId": 13297,
            "contract": "src/RebornPortal.sol:RebornPortal",
            "label": "indexMap",
            "offset": 0,
            "slot": "1",
            "type": "t_mapping(t_uint256,t_uint256)"
          },
          {
            "astId": 13299,
            "contract": "src/RebornPortal.sol:RebornPortal",
            "label": "length",
            "offset": 0,
            "slot": "2",
            "type": "t_uint256"
          }
        ],
        "numberOfBytes": "96"
      },
      "t_struct(Data)16367_storage": {
        "encoding": "inplace",
        "label": "struct SingleRanking.Data",
        "members": [
          {
            "astId": 16359,
            "contract": "src/RebornPortal.sol:RebornPortal",
            "label": "tree",
            "offset": 0,
            "slot": "0",
            "type": "t_struct(Tree)13550_storage"
          },
          {
            "astId": 16364,
            "contract": "src/RebornPortal.sol:RebornPortal",
            "label": "keys",
            "offset": 0,
            "slot": "3",
            "type": "t_mapping(t_uint256,t_struct(Data)13300_storage)"
          },
          {
            "astId": 16366,
            "contract": "src/RebornPortal.sol:RebornPortal",
            "label": "length",
            "offset": 0,
            "slot": "4",
            "type": "t_uint256"
          }
        ],
        "numberOfBytes": "160"
      },
      "t_struct(LifeDetail)12933_storage": {
        "encoding": "inplace",
        "label": "struct IRebornDefination.LifeDetail",
        "members": [
          {
            "astId": 12916,
            "contract": "src/RebornPortal.sol:RebornPortal",
            "label": "seed",
            "offset": 0,
            "slot": "0",
            "type": "t_bytes32"
          },
          {
            "astId": 12918,
            "contract": "src/RebornPortal.sol:RebornPortal",
            "label": "creator",
            "offset": 0,
            "slot": "1",
            "type": "t_address"
          },
          {
            "astId": 12920,
            "contract": "src/RebornPortal.sol:RebornPortal",
            "label": "age",
            "offset": 20,
            "slot": "1",
            "type": "t_uint16"
          },
          {
            "astId": 12922,
            "contract": "src/RebornPortal.sol:RebornPortal",
            "label": "round",
            "offset": 22,
            "slot": "1",
            "type": "t_uint32"
          },
          {
            "astId": 12924,
            "contract": "src/RebornPortal.sol:RebornPortal",
            "label": "nothing",
            "offset": 26,
            "slot": "1",
            "type": "t_uint48"
          },
          {
            "astId": 12926,
            "contract": "src/RebornPortal.sol:RebornPortal",
            "label": "cost",
            "offset": 0,
            "slot": "2",
            "type": "t_uint128"
          },
          {
            "astId": 12928,
            "contract": "src/RebornPortal.sol:RebornPortal",
            "label": "reward",
            "offset": 16,
            "slot": "2",
            "type": "t_uint128"
          },
          {
            "astId": 12930,
            "contract": "src/RebornPortal.sol:RebornPortal",
            "label": "score",
            "offset": 0,
            "slot": "3",
            "type": "t_uint256"
          },
          {
            "astId": 12932,
            "contract": "src/RebornPortal.sol:RebornPortal",
            "label": "creatorName",
            "offset": 0,
            "slot": "4",
            "type": "t_string_storage"
          }
        ],
        "numberOfBytes": "160"
      },
      "t_struct(Node)13540_storage": {
        "encoding": "inplace",
        "label": "struct RankingRedBlackTree.Node",
        "members": [
          {
            "astId": 13527,
            "contract": "src/RebornPortal.sol:RebornPortal",
            "label": "id",
            "offset": 0,
            "slot": "0",
            "type": "t_uint256"
          },
          {
            "astId": 13529,
            "contract": "src/RebornPortal.sol:RebornPortal",
            "label": "value",
            "offset": 0,
            "slot": "1",
            "type": "t_uint256"
          },
          {
            "astId": 13531,
            "contract": "src/RebornPortal.sol:RebornPortal",
            "label": "count",
            "offset": 0,
            "slot": "2",
            "type": "t_uint256"
          },
          {
            "astId": 13533,
            "contract": "src/RebornPortal.sol:RebornPortal",
            "label": "parent",
            "offset": 0,
            "slot": "3",
            "type": "t_uint256"
          },
          {
            "astId": 13535,
            "contract": "src/RebornPortal.sol:RebornPortal",
            "label": "left",
            "offset": 0,
            "slot": "4",
            "type": "t_uint256"
          },
          {
            "astId": 13537,
            "contract": "src/RebornPortal.sol:RebornPortal",
            "label": "right",
            "offset": 0,
            "slot": "5",
            "type": "t_uint256"
          },
          {
            "astId": 13539,
            "contract": "src/RebornPortal.sol:RebornPortal",
            "label": "red",
            "offset": 0,
            "slot": "6",
            "type": "t_bool"
          }
        ],
        "numberOfBytes": "224"
      },
      "t_struct(Pool)8735_storage": {
        "encoding": "inplace",
        "label": "struct PortalLib.Pool",
        "members": [
          {
            "astId": 8726,
            "contract": "src/RebornPortal.sol:RebornPortal",
            "label": "totalAmount",
            "offset": 0,
            "slot": "0",
            "type": "t_uint256"
          },
          {
            "astId": 8728,
            "contract": "src/RebornPortal.sol:RebornPortal",
            "label": "accRebornPerShare",
            "offset": 0,
            "slot": "1",
            "type": "t_uint256"
          },
          {
            "astId": 8730,
            "contract": "src/RebornPortal.sol:RebornPortal",
            "label": "accNativePerShare",
            "offset": 0,
            "slot": "2",
            "type": "t_uint256"
          },
          {
            "astId": 8732,
            "contract": "src/RebornPortal.sol:RebornPortal",
            "label": "epoch",
            "offset": 0,
            "slot": "3",
            "type": "t_uint256"
          },
          {
            "astId": 8734,
            "contract": "src/RebornPortal.sol:RebornPortal",
            "label": "lastUpdated",
            "offset": 0,
            "slot": "4",
            "type": "t_uint256"
          }
        ],
        "numberOfBytes": "160"
      },
      "t_struct(Portfolio)8747_storage": {
        "encoding": "inplace",
        "label": "struct PortalLib.Portfolio",
        "members": [
          {
            "astId": 8737,
            "contract": "src/RebornPortal.sol:RebornPortal",
            "label": "accumulativeAmount",
            "offset": 0,
            "slot": "0",
            "type": "t_uint256"
          },
          {
            "astId": 8739,
            "contract": "src/RebornPortal.sol:RebornPortal",
            "label": "rebornRewardDebt",
            "offset": 0,
            "slot": "1",
            "type": "t_uint256"
          },
          {
            "astId": 8741,
            "contract": "src/RebornPortal.sol:RebornPortal",
            "label": "nativeRewardDebt",
            "offset": 0,
            "slot": "2",
            "type": "t_uint256"
          },
          {
            "astId": 8744,
            "contract": "src/RebornPortal.sol:RebornPortal",
            "label": "pendingOwnerRebornReward",
            "offset": 0,
            "slot": "3",
            "type": "t_uint256"
          },
          {
            "astId": 8746,
            "contract": "src/RebornPortal.sol:RebornPortal",
            "label": "pendingOwernNativeReward",
            "offset": 0,
            "slot": "4",
            "type": "t_uint256"
          }
        ],
        "numberOfBytes": "160"
      },
      "t_struct(ReferrerRewardFees)8724_storage": {
        "encoding": "inplace",
        "label": "struct PortalLib.ReferrerRewardFees",
        "members": [
          {
            "astId": 8715,
            "contract": "src/RebornPortal.sol:RebornPortal",
            "label": "incarnateRef1Fee",
            "offset": 0,
            "slot": "0",
            "type": "t_uint16"
          },
          {
            "astId": 8717,
            "contract": "src/RebornPortal.sol:RebornPortal",
            "label": "incarnateRef2Fee",
            "offset": 2,
            "slot": "0",
            "type": "t_uint16"
          },
          {
            "astId": 8719,
            "contract": "src/RebornPortal.sol:RebornPortal",
            "label": "vaultRef1Fee",
            "offset": 4,
            "slot": "0",
            "type": "t_uint16"
          },
          {
            "astId": 8721,
            "contract": "src/RebornPortal.sol:RebornPortal",
            "label": "vaultRef2Fee",
            "offset": 6,
            "slot": "0",
            "type": "t_uint16"
          },
          {
            "astId": 8723,
            "contract": "src/RebornPortal.sol:RebornPortal",
            "label": "_slotPlaceholder",
            "offset": 8,
            "slot": "0",
            "type": "t_uint192"
          }
        ],
        "numberOfBytes": "32"
      },
      "t_struct(RequestStatus)12980_storage": {
        "encoding": "inplace",
        "label": "struct IRebornDefination.RequestStatus",
        "members": [
          {
            "astId": 12969,
            "contract": "src/RebornPortal.sol:RebornPortal",
            "label": "fulfilled",
            "offset": 0,
            "slot": "0",
            "type": "t_bool"
          },
          {
            "astId": 12971,
            "contract": "src/RebornPortal.sol:RebornPortal",
            "label": "exists",
            "offset": 1,
            "slot": "0",
            "type": "t_bool"
          },
          {
            "astId": 12973,
            "contract": "src/RebornPortal.sol:RebornPortal",
            "label": "executed",
            "offset": 2,
            "slot": "0",
            "type": "t_bool"
          },
          {
            "astId": 12976,
            "contract": "src/RebornPortal.sol:RebornPortal",
            "label": "t",
            "offset": 3,
            "slot": "0",
            "type": "t_enum(AirdropVrfType)12967"
          },
          {
            "astId": 12979,
            "contract": "src/RebornPortal.sol:RebornPortal",
            "label": "randomWords",
            "offset": 0,
            "slot": "1",
            "type": "t_array(t_uint256)dyn_storage"
          }
        ],
        "numberOfBytes": "64"
      },
      "t_struct(SeasonData)12963_storage": {
        "encoding": "inplace",
        "label": "struct IRebornDefination.SeasonData",
        "members": [
          {
            "astId": 12938,
            "contract": "src/RebornPortal.sol:RebornPortal",
            "label": "pools",
            "offset": 0,
            "slot": "0",
            "type": "t_mapping(t_uint256,t_struct(Pool)8735_storage)"
          },
          {
            "astId": 12946,
            "contract": "src/RebornPortal.sol:RebornPortal",
            "label": "portfolios",
            "offset": 0,
            "slot": "1",
            "type": "t_mapping(t_address,t_mapping(t_uint256,t_struct(Portfolio)8747_storage))"
          },
          {
            "astId": 12949,
            "contract": "src/RebornPortal.sol:RebornPortal",
            "label": "_tributeRank",
            "offset": 0,
            "slot": "2",
            "type": "t_struct(Data)16367_storage"
          },
          {
            "astId": 12952,
            "contract": "src/RebornPortal.sol:RebornPortal",
            "label": "_scoreRank",
            "offset": 0,
            "slot": "7",
            "type": "t_struct(Data)16367_storage"
          },
          {
            "astId": 12956,
            "contract": "src/RebornPortal.sol:RebornPortal",
            "label": "_oldStakeAmounts",
            "offset": 0,
            "slot": "12",
            "type": "t_mapping(t_uint256,t_uint256)"
          },
          {
            "astId": 12960,
            "contract": "src/RebornPortal.sol:RebornPortal",
            "label": "_isTopHundredScore",
            "offset": 0,
            "slot": "13",
            "type": "t_struct(BitMap)5346_storage"
          },
          {
            "astId": 12962,
            "contract": "src/RebornPortal.sol:RebornPortal",
            "label": "_minScore",
            "offset": 0,
            "slot": "14",
            "type": "t_uint256"
          }
        ],
        "numberOfBytes": "480"
      },
      "t_struct(Tree)13550_storage": {
        "encoding": "inplace",
        "label": "struct RankingRedBlackTree.Tree",
        "members": [
          {
            "astId": 13542,
            "contract": "src/RebornPortal.sol:RebornPortal",
            "label": "root",
            "offset": 0,
            "slot": "0",
            "type": "t_uint256"
          },
          {
            "astId": 13547,
            "contract": "src/RebornPortal.sol:RebornPortal",
            "label": "nodes",
            "offset": 0,
            "slot": "1",
            "type": "t_mapping(t_uint256,t_struct(Node)13540_storage)"
          },
          {
            "astId": 13549,
            "contract": "src/RebornPortal.sol:RebornPortal",
            "label": "counter",
            "offset": 0,
            "slot": "2",
            "type": "t_uint256"
          }
        ],
        "numberOfBytes": "96"
      },
      "t_struct(VrfConf)8777_storage": {
        "encoding": "inplace",
        "label": "struct PortalLib.VrfConf",
        "members": [
          {
            "astId": 8768,
            "contract": "src/RebornPortal.sol:RebornPortal",
            "label": "keyHash",
            "offset": 0,
            "slot": "0",
            "type": "t_bytes32"
          },
          {
            "astId": 8770,
            "contract": "src/RebornPortal.sol:RebornPortal",
            "label": "s_subscriptionId",
            "offset": 0,
            "slot": "1",
            "type": "t_uint64"
          },
          {
            "astId": 8772,
            "contract": "src/RebornPortal.sol:RebornPortal",
            "label": "callbackGasLimit",
            "offset": 8,
            "slot": "1",
            "type": "t_uint32"
          },
          {
            "astId": 8774,
            "contract": "src/RebornPortal.sol:RebornPortal",
            "label": "numWords",
            "offset": 12,
            "slot": "1",
            "type": "t_uint32"
          },
          {
            "astId": 8776,
            "contract": "src/RebornPortal.sol:RebornPortal",
            "label": "requestConfirmations",
            "offset": 16,
            "slot": "1",
            "type": "t_uint16"
          }
        ],
        "numberOfBytes": "64"
      },
      "t_uint128": {
        "encoding": "inplace",
        "label": "uint128",
        "numberOfBytes": "16"
      },
      "t_uint16": {
        "encoding": "inplace",
        "label": "uint16",
        "numberOfBytes": "2"
      },
      "t_uint192": {
        "encoding": "inplace",
        "label": "uint192",
        "numberOfBytes": "24"
      },
      "t_uint256": {
        "encoding": "inplace",
        "label": "uint256",
        "numberOfBytes": "32"
      },
      "t_uint32": {
        "encoding": "inplace",
        "label": "uint32",
        "numberOfBytes": "4"
      },
      "t_uint40": {
        "encoding": "inplace",
        "label": "uint40",
        "numberOfBytes": "5"
      },
      "t_uint48": {
        "encoding": "inplace",
        "label": "uint48",
        "numberOfBytes": "6"
      },
      "t_uint64": {
        "encoding": "inplace",
        "label": "uint64",
        "numberOfBytes": "8"
      },
      "t_uint8": {
        "encoding": "inplace",
        "label": "uint8",
        "numberOfBytes": "1"
      }
    }
  }
}