{
  "address": "0x8B8ea6ca0365B96e02c6c24A25c70c59f5962DaD",
  "abi": [
    {
      "inputs": [],
      "name": "AlreadEngraved",
      "type": "error"
    },
    {
      "inputs": [],
      "name": "InsufficientAmount",
      "type": "error"
    },
    {
      "inputs": [],
      "name": "NotSigner",
      "type": "error"
    },
    {
      "anonymous": false,
      "inputs": [
        {
          "indexed": false,
          "internalType": "address",
          "name": "previousAdmin",
          "type": "address"
        },
        {
          "indexed": false,
          "internalType": "address",
          "name": "newAdmin",
          "type": "address"
        }
      ],
      "name": "AdminChanged",
      "type": "event"
    },
    {
      "anonymous": false,
      "inputs": [
        {
          "indexed": true,
          "internalType": "address",
          "name": "owner",
          "type": "address"
        },
        {
          "indexed": true,
          "internalType": "address",
          "name": "approved",
          "type": "address"
        },
        {
          "indexed": true,
          "internalType": "uint256",
          "name": "tokenId",
          "type": "uint256"
        }
      ],
      "name": "Approval",
      "type": "event"
    },
    {
      "anonymous": false,
      "inputs": [
        {
          "indexed": true,
          "internalType": "address",
          "name": "owner",
          "type": "address"
        },
        {
          "indexed": true,
          "internalType": "address",
          "name": "operator",
          "type": "address"
        },
        {
          "indexed": false,
          "internalType": "bool",
          "name": "approved",
          "type": "bool"
        }
      ],
      "name": "ApprovalForAll",
      "type": "event"
    },
    {
      "anonymous": false,
      "inputs": [
        {
          "indexed": true,
          "internalType": "address",
          "name": "beacon",
          "type": "address"
        }
      ],
      "name": "BeaconUpgraded",
      "type": "event"
    },
    {
      "anonymous": false,
      "inputs": [
        {
          "indexed": false,
          "internalType": "address",
          "name": "user",
          "type": "address"
        },
        {
          "indexed": false,
          "internalType": "uint256",
          "name": "tokenId",
          "type": "uint256"
        },
        {
          "indexed": false,
          "internalType": "uint256",
          "name": "amount",
          "type": "uint256"
        }
      ],
      "name": "Dry",
      "type": "event"
    },
    {
      "anonymous": false,
      "inputs": [
        {
          "indexed": true,
          "internalType": "bytes32",
          "name": "seed",
          "type": "bytes32"
        },
        {
          "indexed": true,
          "internalType": "address",
          "name": "user",
          "type": "address"
        },
        {
          "indexed": true,
          "internalType": "uint256",
          "name": "tokenId",
          "type": "uint256"
        },
        {
          "indexed": false,
          "internalType": "uint256",
          "name": "score",
          "type": "uint256"
        },
        {
          "indexed": false,
          "internalType": "uint256",
          "name": "reward",
          "type": "uint256"
        }
      ],
      "name": "Engrave",
      "type": "event"
    },
    {
      "anonymous": false,
      "inputs": [
        {
          "indexed": true,
          "internalType": "address",
          "name": "user",
          "type": "address"
        },
        {
          "indexed": true,
          "internalType": "uint256",
          "name": "talentPoint",
          "type": "uint256"
        },
        {
          "indexed": true,
          "internalType": "uint256",
          "name": "PropertyPoint",
          "type": "uint256"
        },
        {
          "indexed": false,
          "internalType": "enum IRebornDefination.TALENT",
          "name": "talent",
          "type": "uint8"
        },
        {
          "indexed": false,
          "internalType": "enum IRebornDefination.PROPERTIES",
          "name": "properties",
          "type": "uint8"
        },
        {
          "indexed": false,
          "internalType": "uint256",
          "name": "indulgences",
          "type": "uint256"
        }
      ],
      "name": "Incarnate",
      "type": "event"
    },
    {
      "anonymous": false,
      "inputs": [
        {
          "indexed": false,
          "internalType": "address",
          "name": "user",
          "type": "address"
        },
        {
          "indexed": false,
          "internalType": "uint256",
          "name": "tokenId",
          "type": "uint256"
        },
        {
          "indexed": false,
          "internalType": "uint256",
          "name": "amount",
          "type": "uint256"
        }
      ],
      "name": "Infuse",
      "type": "event"
    },
    {
      "anonymous": false,
      "inputs": [
        {
          "indexed": false,
          "internalType": "uint8",
          "name": "version",
          "type": "uint8"
        }
      ],
      "name": "Initialized",
      "type": "event"
    },
    {
      "anonymous": false,
      "inputs": [
        {
          "indexed": false,
          "internalType": "uint256",
          "name": "price",
          "type": "uint256"
        }
      ],
      "name": "NewPricePoint",
      "type": "event"
    },
    {
      "anonymous": false,
      "inputs": [
        {
          "indexed": false,
          "internalType": "uint256",
          "name": "price",
          "type": "uint256"
        }
      ],
      "name": "NewSoupPrice",
      "type": "event"
    },
    {
      "anonymous": false,
      "inputs": [
        {
          "indexed": true,
          "internalType": "address",
          "name": "previousOwner",
          "type": "address"
        },
        {
          "indexed": true,
          "internalType": "address",
          "name": "newOwner",
          "type": "address"
        }
      ],
      "name": "OwnershipTransferred",
      "type": "event"
    },
    {
      "anonymous": false,
      "inputs": [
        {
          "indexed": false,
          "internalType": "address",
          "name": "signer",
          "type": "address"
        },
        {
          "indexed": false,
          "internalType": "bool",
          "name": "valid",
          "type": "bool"
        }
      ],
      "name": "SignerUpdate",
      "type": "event"
    },
    {
      "anonymous": false,
      "inputs": [
        {
          "indexed": true,
          "internalType": "address",
          "name": "from",
          "type": "address"
        },
        {
          "indexed": true,
          "internalType": "address",
          "name": "to",
          "type": "address"
        },
        {
          "indexed": true,
          "internalType": "uint256",
          "name": "tokenId",
          "type": "uint256"
        }
      ],
      "name": "Transfer",
      "type": "event"
    },
    {
      "anonymous": false,
      "inputs": [
        {
          "indexed": true,
          "internalType": "address",
          "name": "implementation",
          "type": "address"
        }
      ],
      "name": "Upgraded",
      "type": "event"
    },
    {
      "inputs": [
        {
          "internalType": "address",
          "name": "to",
          "type": "address"
        },
        {
          "internalType": "uint256",
          "name": "tokenId",
          "type": "uint256"
        }
      ],
      "name": "approve",
      "outputs": [],
      "stateMutability": "nonpayable",
      "type": "function"
    },
    {
      "inputs": [
        {
          "internalType": "address",
          "name": "owner",
          "type": "address"
        }
      ],
      "name": "balanceOf",
      "outputs": [
        {
          "internalType": "uint256",
          "name": "",
          "type": "uint256"
        }
      ],
      "stateMutability": "view",
      "type": "function"
    },
    {
      "inputs": [],
      "name": "claimOwnership",
      "outputs": [],
      "stateMutability": "nonpayable",
      "type": "function"
    },
    {
      "inputs": [
        {
          "internalType": "uint256",
          "name": "",
          "type": "uint256"
        }
      ],
      "name": "details",
      "outputs": [
        {
          "internalType": "bytes32",
          "name": "seed",
          "type": "bytes32"
        },
        {
          "internalType": "address",
          "name": "creator",
          "type": "address"
        },
        {
          "internalType": "uint16",
          "name": "age",
          "type": "uint16"
        },
        {
          "internalType": "uint16",
          "name": "round",
          "type": "uint16"
        },
        {
          "internalType": "uint64",
          "name": "nothing",
          "type": "uint64"
        },
        {
          "internalType": "uint128",
          "name": "cost",
          "type": "uint128"
        },
        {
          "internalType": "uint128",
          "name": "reward",
          "type": "uint128"
        }
      ],
      "stateMutability": "view",
      "type": "function"
    },
    {
      "inputs": [
        {
          "internalType": "uint256",
          "name": "tokenId",
          "type": "uint256"
        },
        {
          "internalType": "uint256",
          "name": "amount",
          "type": "uint256"
        }
      ],
      "name": "dry",
      "outputs": [],
      "stateMutability": "nonpayable",
      "type": "function"
    },
    {
      "inputs": [
        {
          "internalType": "bytes32",
          "name": "seed",
          "type": "bytes32"
        },
        {
          "internalType": "address",
          "name": "user",
          "type": "address"
        },
        {
          "internalType": "uint256",
          "name": "reward",
          "type": "uint256"
        },
        {
          "internalType": "uint256",
          "name": "score",
          "type": "uint256"
        },
        {
          "internalType": "uint256",
          "name": "age",
          "type": "uint256"
        },
        {
          "internalType": "uint256",
          "name": "locate",
          "type": "uint256"
        }
      ],
      "name": "engrave",
      "outputs": [],
      "stateMutability": "nonpayable",
      "type": "function"
    },
    {
      "inputs": [
        {
          "internalType": "uint256",
          "name": "value",
          "type": "uint256"
        }
      ],
      "name": "findLocation",
      "outputs": [
        {
          "internalType": "uint256",
          "name": "",
          "type": "uint256"
        }
      ],
      "stateMutability": "nonpayable",
      "type": "function"
    },
    {
      "inputs": [
        {
          "internalType": "uint256",
          "name": "tokenId",
          "type": "uint256"
        }
      ],
      "name": "getApproved",
      "outputs": [
        {
          "internalType": "address",
          "name": "",
          "type": "address"
        }
      ],
      "stateMutability": "view",
      "type": "function"
    },
    {
      "inputs": [
        {
          "internalType": "uint256",
          "name": "tokenId",
          "type": "uint256"
        }
      ],
      "name": "getPool",
      "outputs": [
        {
          "components": [
            {
              "internalType": "uint256",
              "name": "totalAmount",
              "type": "uint256"
            }
          ],
          "internalType": "struct IRebornDefination.Pool",
          "name": "",
          "type": "tuple"
        }
      ],
      "stateMutability": "view",
      "type": "function"
    },
    {
      "inputs": [],
      "name": "idx",
      "outputs": [
        {
          "internalType": "uint24",
          "name": "",
          "type": "uint24"
        }
      ],
      "stateMutability": "view",
      "type": "function"
    },
    {
      "inputs": [
        {
          "components": [
            {
              "internalType": "enum IRebornDefination.TALENT",
              "name": "talent",
              "type": "uint8"
            },
            {
              "internalType": "enum IRebornDefination.PROPERTIES",
              "name": "properties",
              "type": "uint8"
            }
          ],
          "internalType": "struct IRebornDefination.Innate",
          "name": "innate",
          "type": "tuple"
        },
        {
          "internalType": "uint256",
          "name": "amount",
          "type": "uint256"
        },
        {
          "internalType": "uint256",
          "name": "deadline",
          "type": "uint256"
        },
        {
          "internalType": "bytes32",
          "name": "r",
          "type": "bytes32"
        },
        {
          "internalType": "bytes32",
          "name": "s",
          "type": "bytes32"
        },
        {
          "internalType": "uint8",
          "name": "v",
          "type": "uint8"
        }
      ],
      "name": "incarnate",
      "outputs": [],
      "stateMutability": "payable",
      "type": "function"
    },
    {
      "inputs": [
        {
          "components": [
            {
              "internalType": "enum IRebornDefination.TALENT",
              "name": "talent",
              "type": "uint8"
            },
            {
              "internalType": "enum IRebornDefination.PROPERTIES",
              "name": "properties",
              "type": "uint8"
            }
          ],
          "internalType": "struct IRebornDefination.Innate",
          "name": "innate",
          "type": "tuple"
        }
      ],
      "name": "incarnate",
      "outputs": [],
      "stateMutability": "payable",
      "type": "function"
    },
    {
      "inputs": [
        {
          "internalType": "uint256",
          "name": "tokenId",
          "type": "uint256"
        },
        {
          "internalType": "uint256",
          "name": "amount",
          "type": "uint256"
        }
      ],
      "name": "infuse",
      "outputs": [],
      "stateMutability": "nonpayable",
      "type": "function"
    },
    {
      "inputs": [
        {
          "internalType": "string",
          "name": "name_",
          "type": "string"
        },
        {
          "internalType": "string",
          "name": "symbol_",
          "type": "string"
        }
      ],
      "name": "initAfterUpgrade",
      "outputs": [],
      "stateMutability": "nonpayable",
      "type": "function"
    },
    {
      "inputs": [
        {
          "internalType": "contract RBT",
          "name": "rebornToken_",
          "type": "address"
        },
        {
          "internalType": "uint256",
          "name": "soupPrice_",
          "type": "uint256"
        },
        {
          "internalType": "uint256",
          "name": "priceAndPoint_",
          "type": "uint256"
        },
        {
          "internalType": "address",
          "name": "owner_",
          "type": "address"
        },
        {
          "internalType": "string",
          "name": "name_",
          "type": "string"
        },
        {
          "internalType": "string",
          "name": "symbol_",
          "type": "string"
        }
      ],
      "name": "initialize",
      "outputs": [],
      "stateMutability": "nonpayable",
      "type": "function"
    },
    {
      "inputs": [
        {
          "internalType": "address",
          "name": "owner",
          "type": "address"
        },
        {
          "internalType": "address",
          "name": "operator",
          "type": "address"
        }
      ],
      "name": "isApprovedForAll",
      "outputs": [
        {
          "internalType": "bool",
          "name": "",
          "type": "bool"
        }
      ],
      "stateMutability": "view",
      "type": "function"
    },
    {
      "inputs": [],
      "name": "minScoreInRank",
      "outputs": [
        {
          "internalType": "uint256",
          "name": "",
          "type": "uint256"
        }
      ],
      "stateMutability": "view",
      "type": "function"
    },
    {
      "inputs": [],
      "name": "name",
      "outputs": [
        {
          "internalType": "string",
          "name": "",
          "type": "string"
        }
      ],
      "stateMutability": "view",
      "type": "function"
    },
    {
      "inputs": [],
      "name": "owner",
      "outputs": [
        {
          "internalType": "address",
          "name": "",
          "type": "address"
        }
      ],
      "stateMutability": "view",
      "type": "function"
    },
    {
      "inputs": [
        {
          "internalType": "uint256",
          "name": "tokenId",
          "type": "uint256"
        }
      ],
      "name": "ownerOf",
      "outputs": [
        {
          "internalType": "address",
          "name": "",
          "type": "address"
        }
      ],
      "stateMutability": "view",
      "type": "function"
    },
    {
      "inputs": [],
      "name": "pendingOwner",
      "outputs": [
        {
          "internalType": "address",
          "name": "",
          "type": "address"
        }
      ],
      "stateMutability": "view",
      "type": "function"
    },
    {
      "inputs": [
        {
          "internalType": "uint256",
          "name": "",
          "type": "uint256"
        }
      ],
      "name": "pools",
      "outputs": [
        {
          "internalType": "uint256",
          "name": "totalAmount",
          "type": "uint256"
        }
      ],
      "stateMutability": "view",
      "type": "function"
    },
    {
      "inputs": [
        {
          "internalType": "address",
          "name": "",
          "type": "address"
        },
        {
          "internalType": "uint256",
          "name": "",
          "type": "uint256"
        }
      ],
      "name": "portfolios",
      "outputs": [
        {
          "internalType": "uint256",
          "name": "accumulativeAmount",
          "type": "uint256"
        }
      ],
      "stateMutability": "view",
      "type": "function"
    },
    {
      "inputs": [
        {
          "internalType": "enum IRebornDefination.PROPERTIES",
          "name": "properties",
          "type": "uint8"
        }
      ],
      "name": "propertyPoint",
      "outputs": [
        {
          "internalType": "uint256",
          "name": "",
          "type": "uint256"
        }
      ],
      "stateMutability": "view",
      "type": "function"
    },
    {
      "inputs": [
        {
          "internalType": "enum IRebornDefination.PROPERTIES",
          "name": "properties",
          "type": "uint8"
        }
      ],
      "name": "propertyPrice",
      "outputs": [
        {
          "internalType": "uint256",
          "name": "",
          "type": "uint256"
        }
      ],
      "stateMutability": "view",
      "type": "function"
    },
    {
      "inputs": [],
      "name": "proxiableUUID",
      "outputs": [
        {
          "internalType": "bytes32",
          "name": "",
          "type": "bytes32"
        }
      ],
      "stateMutability": "view",
      "type": "function"
    },
    {
      "inputs": [],
      "name": "ranks",
      "outputs": [
        {
          "internalType": "bytes",
          "name": "_data",
          "type": "bytes"
        },
        {
          "internalType": "uint256",
          "name": "length",
          "type": "uint256"
        }
      ],
      "stateMutability": "view",
      "type": "function"
    },
    {
      "inputs": [],
      "name": "readRank",
      "outputs": [
        {
          "internalType": "uint24[]",
          "name": "rank",
          "type": "uint24[]"
        }
      ],
      "stateMutability": "nonpayable",
      "type": "function"
    },
    {
      "inputs": [],
      "name": "rebornToken",
      "outputs": [
        {
          "internalType": "contract RBT",
          "name": "",
          "type": "address"
        }
      ],
      "stateMutability": "view",
      "type": "function"
    },
    {
      "inputs": [],
      "name": "renounceOwnership",
      "outputs": [],
      "stateMutability": "nonpayable",
      "type": "function"
    },
    {
      "inputs": [
        {
          "internalType": "address",
          "name": "",
          "type": "address"
        }
      ],
      "name": "rounds",
      "outputs": [
        {
          "internalType": "uint16",
          "name": "",
          "type": "uint16"
        }
      ],
      "stateMutability": "view",
      "type": "function"
    },
    {
      "inputs": [
        {
          "internalType": "address",
          "name": "from",
          "type": "address"
        },
        {
          "internalType": "address",
          "name": "to",
          "type": "address"
        },
        {
          "internalType": "uint256",
          "name": "tokenId",
          "type": "uint256"
        }
      ],
      "name": "safeTransferFrom",
      "outputs": [],
      "stateMutability": "nonpayable",
      "type": "function"
    },
    {
      "inputs": [
        {
          "internalType": "address",
          "name": "from",
          "type": "address"
        },
        {
          "internalType": "address",
          "name": "to",
          "type": "address"
        },
        {
          "internalType": "uint256",
          "name": "tokenId",
          "type": "uint256"
        },
        {
          "internalType": "bytes",
          "name": "data",
          "type": "bytes"
        }
      ],
      "name": "safeTransferFrom",
      "outputs": [],
      "stateMutability": "nonpayable",
      "type": "function"
    },
    {
      "inputs": [
        {
          "internalType": "uint256",
          "name": "",
          "type": "uint256"
        }
      ],
      "name": "scores",
      "outputs": [
        {
          "internalType": "uint256",
          "name": "",
          "type": "uint256"
        }
      ],
      "stateMutability": "view",
      "type": "function"
    },
    {
      "inputs": [
        {
          "internalType": "address",
          "name": "operator",
          "type": "address"
        },
        {
          "internalType": "bool",
          "name": "approved",
          "type": "bool"
        }
      ],
      "name": "setApprovalForAll",
      "outputs": [],
      "stateMutability": "nonpayable",
      "type": "function"
    },
    {
      "inputs": [
        {
          "internalType": "uint256",
          "name": "pricePoint",
          "type": "uint256"
        }
      ],
      "name": "setPriceAndPoint",
      "outputs": [],
      "stateMutability": "nonpayable",
      "type": "function"
    },
    {
      "inputs": [
        {
          "internalType": "uint256",
          "name": "price",
          "type": "uint256"
        }
      ],
      "name": "setSoupPrice",
      "outputs": [],
      "stateMutability": "nonpayable",
      "type": "function"
    },
    {
      "inputs": [
        {
          "internalType": "address",
          "name": "",
          "type": "address"
        }
      ],
      "name": "signers",
      "outputs": [
        {
          "internalType": "bool",
          "name": "",
          "type": "bool"
        }
      ],
      "stateMutability": "view",
      "type": "function"
    },
    {
      "inputs": [],
      "name": "soupPrice",
      "outputs": [
        {
          "internalType": "uint256",
          "name": "",
          "type": "uint256"
        }
      ],
      "stateMutability": "view",
      "type": "function"
    },
    {
      "inputs": [
        {
          "internalType": "bytes4",
          "name": "interfaceId",
          "type": "bytes4"
        }
      ],
      "name": "supportsInterface",
      "outputs": [
        {
          "internalType": "bool",
          "name": "",
          "type": "bool"
        }
      ],
      "stateMutability": "view",
      "type": "function"
    },
    {
      "inputs": [],
      "name": "symbol",
      "outputs": [
        {
          "internalType": "string",
          "name": "",
          "type": "string"
        }
      ],
      "stateMutability": "view",
      "type": "function"
    },
    {
      "inputs": [
        {
          "internalType": "enum IRebornDefination.TALENT",
          "name": "talent",
          "type": "uint8"
        }
      ],
      "name": "talentPoint",
      "outputs": [
        {
          "internalType": "uint256",
          "name": "",
          "type": "uint256"
        }
      ],
      "stateMutability": "view",
      "type": "function"
    },
    {
      "inputs": [
        {
          "internalType": "enum IRebornDefination.TALENT",
          "name": "talent",
          "type": "uint8"
        }
      ],
      "name": "talentPrice",
      "outputs": [
        {
          "internalType": "uint256",
          "name": "",
          "type": "uint256"
        }
      ],
      "stateMutability": "view",
      "type": "function"
    },
    {
      "inputs": [
        {
          "internalType": "uint256",
          "name": "tokenId",
          "type": "uint256"
        }
      ],
      "name": "tokenURI",
      "outputs": [
        {
          "internalType": "string",
          "name": "",
          "type": "string"
        }
      ],
      "stateMutability": "view",
      "type": "function"
    },
    {
      "inputs": [
        {
          "internalType": "address",
          "name": "from",
          "type": "address"
        },
        {
          "internalType": "address",
          "name": "to",
          "type": "address"
        },
        {
          "internalType": "uint256",
          "name": "tokenId",
          "type": "uint256"
        }
      ],
      "name": "transferFrom",
      "outputs": [],
      "stateMutability": "nonpayable",
      "type": "function"
    },
    {
      "inputs": [
        {
          "internalType": "address",
          "name": "newOwner",
          "type": "address"
        },
        {
          "internalType": "bool",
          "name": "direct",
          "type": "bool"
        }
      ],
      "name": "transferOwnership",
      "outputs": [],
      "stateMutability": "nonpayable",
      "type": "function"
    },
    {
      "inputs": [
        {
          "internalType": "address[]",
          "name": "toAdd",
          "type": "address[]"
        },
        {
          "internalType": "address[]",
          "name": "toRemove",
          "type": "address[]"
        }
      ],
      "name": "updateSigners",
      "outputs": [],
      "stateMutability": "nonpayable",
      "type": "function"
    },
    {
      "inputs": [
        {
          "internalType": "address",
          "name": "newImplementation",
          "type": "address"
        }
      ],
      "name": "upgradeTo",
      "outputs": [],
      "stateMutability": "nonpayable",
      "type": "function"
    },
    {
      "inputs": [
        {
          "internalType": "address",
          "name": "newImplementation",
          "type": "address"
        },
        {
          "internalType": "bytes",
          "name": "data",
          "type": "bytes"
        }
      ],
      "name": "upgradeToAndCall",
      "outputs": [],
      "stateMutability": "payable",
      "type": "function"
    },
    {
      "inputs": [],
      "name": "withdrawAll",
      "outputs": [],
      "stateMutability": "nonpayable",
      "type": "function"
    }
  ],
  "transactionHash": "0xe40bc426bd631d38ae1f86a82173bc3df36f3cf6275871c07628281458c03787",
  "args": [],
  "numDeployments": 23,
  "solcInputHash": "1ed75503d0c918c757bc37a9d095bb43",
  "bytecode": "0x60a060405230608052662386f26fc1000060c9557a04020000000000000504030000000604020100000000231e19140f60ca5534801561003e57600080fd5b50608051614c0361007660003960008181611546015281816115dc01528181611762015281816117f801526118ef0152614c036000f3fe6080604052600436106103295760003560e01c8063736c0d5b116101a5578063ac4afa38116100ec578063c87b56dd11610095578063e4421be21161006f578063e4421be214610a80578063e4e3b32b14610aa0578063e985e9c514610ac0578063f11925d714610b0a57600080fd5b8063c87b56dd14610a2f578063dbcd0a5814610a4f578063e30c397814610a6257600080fd5b8063b88d4fde116100c6578063b88d4fde146109d6578063c208d41a146109f6578063c546286514610a0d57600080fd5b8063ac4afa3814610951578063b242e5341461097e578063b470a9b51461099e57600080fd5b8063853828b61161014e57806395d89b411161012857806395d89b41146107e4578063a005ec7a146107f9578063a22cb4651461093157600080fd5b8063853828b61461079e578063869bdf67146107b35780638da5cb5b146107c657600080fd5b80637cad554d1161017f5780637cad554d1461073e57806380619b611461075e578063829a1d091461077e57600080fd5b8063736c0d5b146106ba5780637447aa08146106ea578063795dbede1461070d57600080fd5b8063314b8dbd1161027457806352d1902d1161021d5780636352211e116101f75780636352211e1461064f578063670506e91461066f57806370a0823114610685578063715018a6146106a557600080fd5b806352d1902d146105d657806356fc2fa6146105eb57806360b127eb1461060b57600080fd5b806342842e0e1161024e57806342842e0e1461058e5780634e71e0c8146105ae5780634f1ef286146105c357600080fd5b8063314b8dbd1461052e578063350b23691461054e5780633659cfe61461056e57600080fd5b806316a065c6116102d65780631dae2436116102b05780631dae2436146104c057806323b872dd146104e05780632ee691a31461050057600080fd5b806316a065c614610452578063171d49521461047257806318ac12541461049257600080fd5b8063081812fc11610307578063081812fc146103d8578063095ea7b3146104105780630aeb55c81461043257600080fd5b806301ffc9a71461032e578063068bcd8d1461036357806306fdde03146103b6575b600080fd5b34801561033a57600080fd5b5061034e610349366004613f7c565b610b2a565b60405190151581526020015b60405180910390f35b34801561036f57600080fd5b506103a761037e366004613f99565b604080516020808201835260009182905292815260cf8352819020815192830190915254815290565b6040519051815260200161035a565b3480156103c257600080fd5b506103cb610c0f565b60405161035a9190614002565b3480156103e457600080fd5b506103f86103f3366004613f99565b610ca2565b6040516001600160a01b03909116815260200161035a565b34801561041c57600080fd5b5061043061042b36600461402a565b610cca565b005b34801561043e57600080fd5b5061043061044d366004614056565b610e1f565b34801561045e57600080fd5b5060cb546103f8906001600160a01b031681565b34801561047e57600080fd5b5061043061048d36600461416b565b611125565b34801561049e57600080fd5b506104b26104ad3660046141e3565b61119d565b60405190815260200161035a565b3480156104cc57600080fd5b506104306104db366004613f99565b6111de565b3480156104ec57600080fd5b506104306104fb3660046141fe565b611274565b34801561050c57600080fd5b506104b261051b366004613f99565b6101916020526000908152604090205481565b34801561053a57600080fd5b506104b26105493660046141e3565b6112fb565b34801561055a57600080fd5b5061043061056936600461428b565b61132d565b34801561057a57600080fd5b506104306105893660046142f7565b61153c565b34801561059a57600080fd5b506104306105a93660046141fe565b6116d9565b3480156105ba57600080fd5b506104306116f4565b6104306105d1366004614314565b611758565b3480156105e257600080fd5b506104b26118e2565b3480156105f757600080fd5b506104b2610606366004614369565b6119a7565b34801561061757600080fd5b5061063c6106263660046142f7565b60cd6020526000908152604090205461ffff1681565b60405161ffff909116815260200161035a565b34801561065b57600080fd5b506103f861066a366004613f99565b6119e8565b34801561067b57600080fd5b506104b260c95481565b34801561069157600080fd5b506104b26106a03660046142f7565b611a4e565b3480156106b157600080fd5b50610430611ae9565b3480156106c657600080fd5b5061034e6106d53660046142f7565b60cc6020526000908152604090205460ff1681565b3480156106f657600080fd5b506106ff611b4d565b60405161035a929190614384565b34801561071957600080fd5b506101935461072a9062ffffff1681565b60405162ffffff909116815260200161035a565b34801561074a57600080fd5b506104b2610759366004614369565b611be6565b34801561076a57600080fd5b506104306107793660046143a6565b611c15565b34801561078a57600080fd5b50610430610799366004614441565b611d88565b3480156107aa57600080fd5b50610430611eb9565b6104306107c13660046144c1565b612029565b3480156107d257600080fd5b506033546001600160a01b03166103f8565b3480156107f057600080fd5b506103cb612047565b34801561080557600080fd5b506108ce610814366004613f99565b60ce6020526000908152604090208054600182015460029092015490916001600160a01b0381169174010000000000000000000000000000000000000000820461ffff90811692760100000000000000000000000000000000000000000000810490911691780100000000000000000000000000000000000000000000000090910467ffffffffffffffff16906fffffffffffffffffffffffffffffffff8082169170010000000000000000000000000000000090041687565b604080519788526001600160a01b03909616602088015261ffff9485169587019590955292909116606085015267ffffffffffffffff1660808401526fffffffffffffffffffffffffffffffff90811660a08401521660c082015260e00161035a565b34801561093d57600080fd5b5061043061094c366004614532565b612057565b34801561095d57600080fd5b506104b261096c366004613f99565b60cf6020526000908152604090205481565b34801561098a57600080fd5b50610430610999366004614532565b612062565b3480156109aa57600080fd5b506104b26109b936600461402a565b60d060209081526000928352604080842090915290825290205481565b3480156109e257600080fd5b506104306109f136600461456b565b61214d565b348015610a0257600080fd5b506104b26101945481565b348015610a1957600080fd5b50610a226121db565b60405161035a91906145d7565b348015610a3b57600080fd5b506103cb610a4a366004613f99565b612294565b610430610a5d366004614620565b61244e565b348015610a6e57600080fd5b506034546001600160a01b03166103f8565b348015610a8c57600080fd5b50610430610a9b366004614441565b612457565b348015610aac57600080fd5b506104b2610abb366004613f99565b61258d565b348015610acc57600080fd5b5061034e610adb36600461463c565b6001600160a01b0391821660009081526101326020908152604080832093909416825291909152205460ff1690565b348015610b1657600080fd5b50610430610b25366004613f99565b612628565b60007fffffffff0000000000000000000000000000000000000000000000000000000082167f80ac58cd000000000000000000000000000000000000000000000000000000001480610bbd57507fffffffff0000000000000000000000000000000000000000000000000000000082167f5b5e139f00000000000000000000000000000000000000000000000000000000145b80610c0957507f01ffc9a7000000000000000000000000000000000000000000000000000000007fffffffff000000000000000000000000000000000000000000000000000000008316145b92915050565b606061012d8054610c1f9061466a565b80601f0160208091040260200160405190810160405280929190818152602001828054610c4b9061466a565b8015610c985780601f10610c6d57610100808354040283529160200191610c98565b820191906000526020600020905b815481529060010190602001808311610c7b57829003601f168201915b5050505050905090565b6000610cad826126b7565b50600090815261013160205260409020546001600160a01b031690565b6000610cd5826119e8565b9050806001600160a01b0316836001600160a01b031603610d635760405162461bcd60e51b815260206004820152602160248201527f4552433732313a20617070726f76616c20746f2063757272656e74206f776e6560448201527f720000000000000000000000000000000000000000000000000000000000000060648201526084015b60405180910390fd5b336001600160a01b0382161480610d9e57506001600160a01b03811660009081526101326020908152604080832033845290915290205460ff165b610e105760405162461bcd60e51b815260206004820152603d60248201527f4552433732313a20617070726f76652063616c6c6572206973206e6f7420746f60448201527f6b656e206f776e6572206f7220617070726f76656420666f7220616c6c0000006064820152608401610d5a565b610e1a838361271c565b505050565b33600090815260cc602052604090205460ff16610e68576040517fa1b035c800000000000000000000000000000000000000000000000000000000815260040160405180910390fd5b6000610e7384612798565b6040805160e0810182528981526001600160a01b0389166020808301829052600091825260cd90528281208054949550919392840192610eb69061ffff166146b4565b825461ffff9182166101009390930a83810290830219909116179092558252851660208201526000604082018190526060820152608001610eff670de0b6b3a7640000886146d5565b6fffffffffffffffffffffffffffffffff908116909152600083815260ce60209081526040918290208451815590840151600182018054938601516060870151608088015167ffffffffffffffff1678010000000000000000000000000000000000000000000000000277ffffffffffffffffffffffffffffffffffffffffffffffff61ffff928316760100000000000000000000000000000000000000000000021675ffffffffffffffffffffffffffffffffffffffffffff9290931674010000000000000000000000000000000000000000027fffffffffffffffffffff000000000000000000000000000000000000000000009097166001600160a01b03909516949094179590951794909416939093171790915560a083015160c090930151821670010000000000000000000000000000000002929091169190911760029091015561104f86826127f5565b60cb546040517f40c10f190000000000000000000000000000000000000000000000000000000081526001600160a01b03888116600483015260248201889052909116906340c10f1990604401600060405180830381600087803b1580156110b657600080fd5b505af11580156110ca573d6000803e3d6000fd5b5050505080866001600160a01b0316887faf1bba31184b4d13e4f756b22fc2755d77b6ad147f10a7b12ea6afa58a2ca5f68789604051611114929190918252602082015260400190565b60405180910390a450505050505050565b6033546001600160a01b0316331461117f5760405162461bcd60e51b815260206004820152601d60248201527f536166654f776e61626c653a2063616c6c6572206e6f74206f776e65720000006044820152606401610d5a565b611189828261280f565b611191612884565b6111996128f7565b5050565b60008160028111156111b1576111b16146f7565b6111bc90600861470d565b60ff1660c060ca54901c901c60ff16670de0b6b3a7640000610c099190614730565b6033546001600160a01b031633146112385760405162461bcd60e51b815260206004820152601d60248201527f536166654f776e61626c653a2063616c6c6572206e6f74206f776e65720000006044820152606401610d5a565b60ca8190556040518181527fbf50be4abd4aca220cd35d4969b029104c5ff54c7d5f9f2e9a7b97d1ea5ef13e906020015b60405180910390a150565b61127e338261296f565b6112f05760405162461bcd60e51b815260206004820152602d60248201527f4552433732313a2063616c6c6572206973206e6f7420746f6b656e206f776e6560448201527f72206f7220617070726f766564000000000000000000000000000000000000006064820152608401610d5a565b610e1a8383836129ee565b600081600281111561130f5761130f6146f7565b61131a90600861470d565b60ca5460801c60ff9182161c1692915050565b6033546001600160a01b031633146113875760405162461bcd60e51b815260206004820152601d60248201527f536166654f776e61626c653a2063616c6c6572206e6f74206f776e65720000006044820152606401610d5a565b60005b8381101561146257600160cc60008787858181106113aa576113aa614747565b90506020020160208101906113bf91906142f7565b6001600160a01b031681526020810191909152604001600020805460ff19169115159190911790557fc648f6265408cc54c0dc26d24ba51dfc9f35ce1a63baa2228f65d93aaf11cc6785858381811061141a5761141a614747565b905060200201602081019061142f91906142f7565b604080516001600160a01b039092168252600160208301520160405180910390a18061145a8161475d565b91505061138a565b5060005b818110156115355760cc600084848481811061148457611484614747565b905060200201602081019061149991906142f7565b6001600160a01b031681526020810191909152604001600020805460ff191690557fc648f6265408cc54c0dc26d24ba51dfc9f35ce1a63baa2228f65d93aaf11cc678383838181106114ed576114ed614747565b905060200201602081019061150291906142f7565b604080516001600160a01b039092168252600060208301520160405180910390a18061152d8161475d565b915050611466565b5050505050565b6001600160a01b037f00000000000000000000000000000000000000000000000000000000000000001630036115da5760405162461bcd60e51b815260206004820152602c60248201527f46756e6374696f6e206d7573742062652063616c6c6564207468726f7567682060448201527f64656c656761746563616c6c00000000000000000000000000000000000000006064820152608401610d5a565b7f00000000000000000000000000000000000000000000000000000000000000006001600160a01b03166116357f360894a13ba1a3210667c828492db98dca3e2076cc3735a920a3ca505d382bbc546001600160a01b031690565b6001600160a01b0316146116b15760405162461bcd60e51b815260206004820152602c60248201527f46756e6374696f6e206d7573742062652063616c6c6564207468726f7567682060448201527f6163746976652070726f787900000000000000000000000000000000000000006064820152608401610d5a565b6116ba81612c34565b604080516000808252602082019092526116d691839190612c8e565b50565b610e1a8383836040518060200160405280600081525061214d565b6034546001600160a01b0316331461174e5760405162461bcd60e51b815260206004820152601e60248201527f536166654f776e61626c653a2063616c6c657220213d2070656e64696e6700006044820152606401610d5a565b611756612e2e565b565b6001600160a01b037f00000000000000000000000000000000000000000000000000000000000000001630036117f65760405162461bcd60e51b815260206004820152602c60248201527f46756e6374696f6e206d7573742062652063616c6c6564207468726f7567682060448201527f64656c656761746563616c6c00000000000000000000000000000000000000006064820152608401610d5a565b7f00000000000000000000000000000000000000000000000000000000000000006001600160a01b03166118517f360894a13ba1a3210667c828492db98dca3e2076cc3735a920a3ca505d382bbc546001600160a01b031690565b6001600160a01b0316146118cd5760405162461bcd60e51b815260206004820152602c60248201527f46756e6374696f6e206d7573742062652063616c6c6564207468726f7567682060448201527f6163746976652070726f787900000000000000000000000000000000000000006064820152608401610d5a565b6118d682612c34565b61119982826001612c8e565b6000306001600160a01b037f000000000000000000000000000000000000000000000000000000000000000016146119825760405162461bcd60e51b815260206004820152603860248201527f555550535570677261646561626c653a206d757374206e6f742062652063616c60448201527f6c6564207468726f7567682064656c656761746563616c6c00000000000000006064820152608401610d5a565b507f360894a13ba1a3210667c828492db98dca3e2076cc3735a920a3ca505d382bbc90565b60008160048111156119bb576119bb6146f7565b6119c690600861470d565b60ff16604060ca54901c901c60ff16670de0b6b3a7640000610c099190614730565b600081815261012f60205260408120546001600160a01b031680610c095760405162461bcd60e51b815260206004820152601860248201527f4552433732313a20696e76616c696420746f6b656e20494400000000000000006044820152606401610d5a565b60006001600160a01b038216611acc5760405162461bcd60e51b815260206004820152602960248201527f4552433732313a2061646472657373207a65726f206973206e6f74206120766160448201527f6c6964206f776e657200000000000000000000000000000000000000000000006064820152608401610d5a565b506001600160a01b03166000908152610130602052604090205490565b6033546001600160a01b03163314611b435760405162461bcd60e51b815260206004820152601d60248201527f536166654f776e61626c653a2063616c6c6572206e6f74206f776e65720000006044820152606401610d5a565b6117566000612ea4565b61019580548190611b5d9061466a565b80601f0160208091040260200160405190810160405280929190818152602001828054611b899061466a565b8015611bd65780601f10611bab57610100808354040283529160200191611bd6565b820191906000526020600020905b815481529060010190602001808311611bb957829003601f168201915b5050505050908060010154905082565b6000816004811115611bfa57611bfa6146f7565b611c0590600861470d565b60ca5460ff9182161c1692915050565b600054610100900460ff1615808015611c355750600054600160ff909116105b80611c4f5750303b158015611c4f575060005460ff166001145b611cc15760405162461bcd60e51b815260206004820152602e60248201527f496e697469616c697a61626c653a20636f6e747261637420697320616c72656160448201527f647920696e697469616c697a65640000000000000000000000000000000000006064820152608401610d5a565b6000805460ff191660011790558015611ce4576000805461ff0019166101001790555b60cb805473ffffffffffffffffffffffffffffffffffffffff19166001600160a01b03891617905560c986905560ca859055611d1f84612f27565b611d29838361280f565b611d31612884565b611d396128f7565b8015611d7f576000805461ff0019169055604051600181527f7f26b83ff96e1f2b6a682f133852f6798a09c465da95921460cefb38474024989060200160405180910390a15b50505050505050565b600082815260cf60205260408120805490918391839190611daa908490614777565b909155505033600090815260d0602090815260408083208684529091528120805490918491839190611ddd908490614777565b909155505060cb546040517fa9059cbb000000000000000000000000000000000000000000000000000000008152336004820152602481018590526001600160a01b039091169063a9059cbb906044016020604051808303816000875af1158015611e4c573d6000803e3d6000fd5b505050506040513d601f19601f82011682018060405250810190611e70919061478a565b5060408051338152602081018690529081018490527f5c09e6483f1552208cf891fa28d135269484ad74a848ad491913fb4b386ffcf0906060015b60405180910390a150505050565b6033546001600160a01b03163314611f135760405162461bcd60e51b815260206004820152601d60248201527f536166654f776e61626c653a2063616c6c6572206e6f74206f776e65720000006044820152606401610d5a565b60cb546040517f70a082310000000000000000000000000000000000000000000000000000000081523060048201526001600160a01b039091169063a9059cbb90339083906370a0823190602401602060405180830381865afa158015611f7e573d6000803e3d6000fd5b505050506040513d601f19601f82011682018060405250810190611fa291906147a7565b6040517fffffffff0000000000000000000000000000000000000000000000000000000060e085901b1681526001600160a01b03909216600483015260248201526044016020604051808303816000875af1158015612005573d6000803e3d6000fd5b505050506040513d601f19601f820116820180604052508101906116d6919061478a565b6120368585858585612f9b565b61203f86613043565b505050505050565b606061012e8054610c1f9061466a565b6111993383836131ba565b6033546001600160a01b031633146120bc5760405162461bcd60e51b815260206004820152601d60248201527f536166654f776e61626c653a2063616c6c6572206e6f74206f776e65720000006044820152606401610d5a565b6001600160a01b0382166121125760405162461bcd60e51b815260206004820152601b60248201527f536166654f776e61626c653a206e6577206f776e6572206973203000000000006044820152606401610d5a565b80156121215761119982612ea4565b6034805473ffffffffffffffffffffffffffffffffffffffff19166001600160a01b0384161790555050565b612157338361296f565b6121c95760405162461bcd60e51b815260206004820152602d60248201527f4552433732313a2063616c6c6572206973206e6f7420746f6b656e206f776e6560448201527f72206f7220617070726f766564000000000000000000000000000000000000006064820152608401610d5a565b6121d584848484613289565b50505050565b606061228f6101956040518060400160405290816000820180546121fe9061466a565b80601f016020809104026020016040519081016040528092919081815260200182805461222a9061466a565b80156122775780601f1061224c57610100808354040283529160200191612277565b820191906000526020600020905b81548152906001019060200180831161225a57829003601f168201915b50505050508152602001600182015481525050613312565b905090565b606061229f826126b7565b610c096122aa610c0f565b6000848152610191602090815260408083205460ce90925291829020600181015460029091015492517fa48f184a00000000000000000000000000000000000000000000000000000000815260e060048083019190915260e48201527f7365656400000000000000000000000000000000000000000000000000000000610104820152602481019290925261ffff7601000000000000000000000000000000000000000000008204811660448401527401000000000000000000000000000000000000000082041660648301526001600160a01b031660848201526fffffffffffffffffffffffffffffffff80831660a483015270010000000000000000000000000000000090920490911660c482015261242990736Cc913AC77db058d9EE752Ad3450A0516b8356329063a48f184a9061012401600060405180830381865af41580156123fc573d6000803e3d6000fd5b505050506040513d6000823e601f3d908101601f1916820160405261242491908101906147c0565b6133c6565b60405160200161243a92919061482e565b6040516020818303038152906040526133c6565b6116d681613043565b612460826126b7565b60cb546040517f23b872dd000000000000000000000000000000000000000000000000000000008152336004820152306024820152604481018390526001600160a01b03909116906323b872dd906064016020604051808303816000875af11580156124d0573d6000803e3d6000fd5b505050506040513d601f19601f820116820180604052508101906124f4919061478a565b50600082815260cf60205260408120805490918391839190612517908490614925565b909155505033600090815260d060209081526040808320868452909152812080549091849183919061254a908490614925565b909155505060408051338152602081018690529081018490527f58c7b3bf0b0e168048426c1e9443a72696526292ca664e18b11f934cd6cfbbf390606001611eab565b6000806125b16101956040518060400160405290816000820180546121fe9061466a565b905060005b606481101561261e578361019160008484815181106125d7576125d7614747565b602002602001015162ffffff16815260200190815260200160002054101561260c57612604816001614925565b949350505050565b806126168161475d565b9150506125b6565b5060009392505050565b6033546001600160a01b031633146126825760405162461bcd60e51b815260206004820152601d60248201527f536166654f776e61626c653a2063616c6c6572206e6f74206f776e65720000006044820152606401610d5a565b60c98190556040518181527fae0c05ecd507ea9cded837adb5c433fa5e8c24ef117806d7050ec4432a743f1d90602001611269565b600081815261012f60205260409020546001600160a01b03166116d65760405162461bcd60e51b815260206004820152601860248201527f4552433732313a20696e76616c696420746f6b656e20494400000000000000006044820152606401610d5a565b600081815261013160205260409020805473ffffffffffffffffffffffffffffffffffffffff19166001600160a01b038416908117909155819061275f826119e8565b6001600160a01b03167f8c5be1e5ebec7d5bd14f71427d1e84f3dd0314c0f7b2291e5b200ac8c7c3b92560405160405180910390a45050565b6101938054600091839161019191849182906127b89062ffffff16614938565b825462ffffff9182166101009390930a83810290830219909116179092558252602082019290925260400160002091909155610193541692915050565b611199828260405180602001604052806000815250613519565b600054610100900460ff1661287a5760405162461bcd60e51b815260206004820152602b60248201527f496e697469616c697a61626c653a20636f6e7472616374206973206e6f74206960448201526a6e697469616c697a696e6760a81b6064820152608401610d5a565b61119982826135a2565b600054610100900460ff166128ef5760405162461bcd60e51b815260206004820152602b60248201527f496e697469616c697a61626c653a20636f6e7472616374206973206e6f74206960448201526a6e697469616c697a696e6760a81b6064820152608401610d5a565b611756613628565b600054610100900460ff166129625760405162461bcd60e51b815260206004820152602b60248201527f496e697469616c697a61626c653a20636f6e7472616374206973206e6f74206960448201526a6e697469616c697a696e6760a81b6064820152608401610d5a565b611756610195606461369b565b60008061297b836119e8565b9050806001600160a01b0316846001600160a01b031614806129c357506001600160a01b038082166000908152610132602090815260408083209388168352929052205460ff165b806126045750836001600160a01b03166129dc84610ca2565b6001600160a01b031614949350505050565b826001600160a01b0316612a01826119e8565b6001600160a01b031614612a7d5760405162461bcd60e51b815260206004820152602560248201527f4552433732313a207472616e736665722066726f6d20696e636f72726563742060448201527f6f776e65720000000000000000000000000000000000000000000000000000006064820152608401610d5a565b6001600160a01b038216612af85760405162461bcd60e51b8152602060048201526024808201527f4552433732313a207472616e7366657220746f20746865207a65726f2061646460448201527f72657373000000000000000000000000000000000000000000000000000000006064820152608401610d5a565b612b0583838360016136f9565b826001600160a01b0316612b18826119e8565b6001600160a01b031614612b945760405162461bcd60e51b815260206004820152602560248201527f4552433732313a207472616e736665722066726f6d20696e636f72726563742060448201527f6f776e65720000000000000000000000000000000000000000000000000000006064820152608401610d5a565b600081815261013160209081526040808320805473ffffffffffffffffffffffffffffffffffffffff199081169091556001600160a01b03878116808652610130855283862080546000190190559087168086528386208054600101905586865261012f90945282852080549092168417909155905184937fddf252ad1be2c89b69c2b068fc378daa952ba7f163c4a11628f55a4df523b3ef91a4505050565b6033546001600160a01b031633146116d65760405162461bcd60e51b815260206004820152601d60248201527f536166654f776e61626c653a2063616c6c6572206e6f74206f776e65720000006044820152606401610d5a565b7f4910fdfa16fed3260ed0e7147f7cc6da11a60208b5b9406d12a635614ffd91435460ff1615612cc157610e1a83613783565b826001600160a01b03166352d1902d6040518163ffffffff1660e01b8152600401602060405180830381865afa925050508015612d1b575060408051601f3d908101601f19168201909252612d18918101906147a7565b60015b612d8d5760405162461bcd60e51b815260206004820152602e60248201527f45524331393637557067726164653a206e657720696d706c656d656e7461746960448201527f6f6e206973206e6f7420555550530000000000000000000000000000000000006064820152608401610d5a565b7f360894a13ba1a3210667c828492db98dca3e2076cc3735a920a3ca505d382bbc8114612e225760405162461bcd60e51b815260206004820152602960248201527f45524331393637557067726164653a20756e737570706f727465642070726f7860448201527f6961626c655555494400000000000000000000000000000000000000000000006064820152608401610d5a565b50610e1a83838361384e565b6033546034546040516001600160a01b03928316929091169082907f8be0079c531659141344cd1fd0a4f28419497f9722a3daafe3b4186f6b6457e090600090a350603480546033805473ffffffffffffffffffffffffffffffffffffffff199081166001600160a01b03841617909155169055565b7fb53127684a568b3173ae13b9f8a6016e243e63b6e8ee1178d6a717850b5d6103819055603380546001600160a01b0380841673ffffffffffffffffffffffffffffffffffffffff19831681179093556040519116919082907f8be0079c531659141344cd1fd0a4f28419497f9722a3daafe3b4186f6b6457e090600090a35050565b600054610100900460ff16612f925760405162461bcd60e51b815260206004820152602b60248201527f496e697469616c697a61626c653a20636f6e7472616374206973206e6f74206960448201526a6e697469616c697a696e6760a81b6064820152608401610d5a565b6116d681613873565b60cb546040517fd505accf000000000000000000000000000000000000000000000000000000008152336004820152306024820152604481018790526064810186905260ff8316608482015260a4810185905260c481018490526001600160a01b039091169063d505accf9060e401600060405180830381600087803b15801561302457600080fd5b505af1158015613038573d6000803e3d6000fd5b505050505050505050565b60c95434101561307f576040517f5945ea5600000000000000000000000000000000000000000000000000000000815260040160405180910390fd5b60c95433906108fc906130929034614777565b6040518115909202916000818181858888f193505050501580156130ba573d6000803e3d6000fd5b5060006130ca82602001516119a7565b82516130d59061119d565b6130df9190614925565b60cb546040517f79cc6790000000000000000000000000000000000000000000000000000000008152336004820152602481018390529192506001600160a01b0316906379cc679090604401600060405180830381600087803b15801561314557600080fd5b505af1158015613159573d6000803e3d6000fd5b5050505061316a8260200151611be6565b8251613175906112fb565b8351602085015160405133927f87fb928ac5e68966565b76ad225a282c4bdac2194b64d495dfe59b91c963fd3a926131ae928890614950565b60405180910390a45050565b816001600160a01b0316836001600160a01b03160361321b5760405162461bcd60e51b815260206004820152601960248201527f4552433732313a20617070726f766520746f2063616c6c6572000000000000006044820152606401610d5a565b6001600160a01b0383811660008181526101326020908152604080832094871680845294825291829020805460ff191686151590811790915591519182527f17307eab39ab6107e8899845ad3d59bd9653f200f220920489ca2b5937696c31910160405180910390a3505050565b6132948484846129ee565b6132a0848484846138e7565b6121d55760405162461bcd60e51b815260206004820152603260248201527f4552433732313a207472616e7366657220746f206e6f6e20455243373231526560448201527f63656976657220696d706c656d656e74657200000000000000000000000000006064820152608401610d5a565b6060816020015167ffffffffffffffff811115613331576133316140a6565b60405190808252806020026020018201604052801561335a578160200160208202803683370190505b50905060005b82602001518163ffffffff1610156133c057613382838263ffffffff16613a88565b828263ffffffff168151811061339a5761339a614747565b62ffffff90921660209283029190910190910152806133b881614988565b915050613360565b50919050565b606081516000036133e557505060408051602081019091526000815290565b6000604051806060016040528060408152602001614b6760409139905060006003845160026134149190614925565b61341e91906146d5565b613429906004614730565b67ffffffffffffffff811115613441576134416140a6565b6040519080825280601f01601f19166020018201604052801561346b576020820181803683370190505b509050600182016020820185865187015b808210156134d7576003820191508151603f8160121c168501518453600184019350603f81600c1c168501518453600184019350603f8160061c168501518453600184019350603f811685015184535060018301925061347c565b50506003865106600181146134f357600281146135065761350e565b603d6001830353603d600283035361350e565b603d60018303535b509195945050505050565b6135238383613bb1565b61353060008484846138e7565b610e1a5760405162461bcd60e51b815260206004820152603260248201527f4552433732313a207472616e7366657220746f206e6f6e20455243373231526560448201527f63656976657220696d706c656d656e74657200000000000000000000000000006064820152608401610d5a565b600054610100900460ff1661360d5760405162461bcd60e51b815260206004820152602b60248201527f496e697469616c697a61626c653a20636f6e7472616374206973206e6f74206960448201526a6e697469616c697a696e6760a81b6064820152608401610d5a565b61012d61361a83826149e7565b5061012e610e1a82826149e7565b600054610100900460ff166136935760405162461bcd60e51b815260206004820152602b60248201527f496e697469616c697a61626c653a20636f6e7472616374206973206e6f74206960448201526a6e697469616c697a696e6760a81b6064820152608401610d5a565b600161015f55565b600182018190556136ed8167ffffffffffffffff8111156136be576136be6140a6565b6040519080825280602002602001820160405280156136e7578160200160208202803683370190505b50613d5b565b8290610e1a90826149e7565b60018111156121d5576001600160a01b03841615613740576001600160a01b038416600090815261013060205260408120805483929061373a908490614777565b90915550505b6001600160a01b038316156121d5576001600160a01b0383166000908152610130602052604081208054839290613778908490614925565b909155505050505050565b6001600160a01b0381163b6138005760405162461bcd60e51b815260206004820152602d60248201527f455243313936373a206e657720696d706c656d656e746174696f6e206973206e60448201527f6f74206120636f6e7472616374000000000000000000000000000000000000006064820152608401610d5a565b7f360894a13ba1a3210667c828492db98dca3e2076cc3735a920a3ca505d382bbc805473ffffffffffffffffffffffffffffffffffffffff19166001600160a01b0392909216919091179055565b61385783613db9565b6000825111806138645750805b15610e1a576121d58383613df9565b600054610100900460ff166138de5760405162461bcd60e51b815260206004820152602b60248201527f496e697469616c697a61626c653a20636f6e7472616374206973206e6f74206960448201526a6e697469616c697a696e6760a81b6064820152608401610d5a565b6116d681612ea4565b60006001600160a01b0384163b15613a7d576040517f150b7a020000000000000000000000000000000000000000000000000000000081526001600160a01b0385169063150b7a0290613944903390899088908890600401614aa7565b6020604051808303816000875af192505050801561397f575060408051601f3d908101601f1916820190925261397c91810190614ae3565b60015b613a32573d8080156139ad576040519150601f19603f3d011682016040523d82523d6000602084013e6139b2565b606091505b508051600003613a2a5760405162461bcd60e51b815260206004820152603260248201527f4552433732313a207472616e7366657220746f206e6f6e20455243373231526560448201527f63656976657220696d706c656d656e74657200000000000000000000000000006064820152608401610d5a565b805181602001fd5b7fffffffff00000000000000000000000000000000000000000000000000000000167f150b7a0200000000000000000000000000000000000000000000000000000000149050612604565b506001949350505050565b81516000908190613a9a846003614730565b81518110613aaa57613aaa614747565b016020015184517fff0000000000000000000000000000000000000000000000000000000000000090911690613ae1856003614730565b613aec906001614925565b81518110613afc57613afc614747565b016020015185517fff0000000000000000000000000000000000000000000000000000000000000090911690613b33866003614730565b613b3e906002614925565b81518110613b4e57613b4e614747565b016020908101516040517fff000000000000000000000000000000000000000000000000000000000000009485169281019290925291831660218201529116602282015260230160408051601f1981840301815291905260030151949350505050565b6001600160a01b038216613c075760405162461bcd60e51b815260206004820181905260248201527f4552433732313a206d696e7420746f20746865207a65726f20616464726573736044820152606401610d5a565b600081815261012f60205260409020546001600160a01b031615613c6d5760405162461bcd60e51b815260206004820152601c60248201527f4552433732313a20746f6b656e20616c7265616479206d696e746564000000006044820152606401610d5a565b613c7b6000838360016136f9565b600081815261012f60205260409020546001600160a01b031615613ce15760405162461bcd60e51b815260206004820152601c60248201527f4552433732313a20746f6b656e20616c7265616479206d696e746564000000006044820152606401610d5a565b6001600160a01b0382166000818152610130602090815260408083208054600101905584835261012f909152808220805473ffffffffffffffffffffffffffffffffffffffff19168417905551839291907fddf252ad1be2c89b69c2b068fc378daa952ba7f163c4a11628f55a4df523b3ef908290a45050565b606060005b82518110156133c05781838281518110613d7c57613d7c614747565b6020026020010151604051602001613d95929190614b00565b60405160208183030381529060405291508080613db19061475d565b915050613d60565b613dc281613783565b6040516001600160a01b038216907fbc7cd75a20ee27fd9adebab32041f755214dbc6bffa90cc0225b39da2e5c2d3b90600090a250565b60606001600160a01b0383163b613e785760405162461bcd60e51b815260206004820152602660248201527f416464726573733a2064656c65676174652063616c6c20746f206e6f6e2d636f60448201527f6e747261637400000000000000000000000000000000000000000000000000006064820152608401610d5a565b600080846001600160a01b031684604051613e939190614b4a565b600060405180830381855af49150503d8060008114613ece576040519150601f19603f3d011682016040523d82523d6000602084013e613ed3565b606091505b5091509150613efb8282604051806060016040528060278152602001614ba760279139613f04565b95945050505050565b60608315613f13575081613f1d565b613f1d8383613f24565b9392505050565b815115613f345781518083602001fd5b8060405162461bcd60e51b8152600401610d5a9190614002565b7fffffffff00000000000000000000000000000000000000000000000000000000811681146116d657600080fd5b600060208284031215613f8e57600080fd5b8135613f1d81613f4e565b600060208284031215613fab57600080fd5b5035919050565b60005b83811015613fcd578181015183820152602001613fb5565b50506000910152565b60008151808452613fee816020860160208601613fb2565b601f01601f19169290920160200192915050565b602081526000613f1d6020830184613fd6565b6001600160a01b03811681146116d657600080fd5b6000806040838503121561403d57600080fd5b823561404881614015565b946020939093013593505050565b60008060008060008060c0878903121561406f57600080fd5b86359550602087013561408181614015565b95989597505050506040840135936060810135936080820135935060a0909101359150565b634e487b7160e01b600052604160045260246000fd5b604051601f8201601f1916810167ffffffffffffffff811182821017156140e5576140e56140a6565b604052919050565b600067ffffffffffffffff821115614107576141076140a6565b50601f01601f191660200190565b600082601f83011261412657600080fd5b8135614139614134826140ed565b6140bc565b81815284602083860101111561414e57600080fd5b816020850160208301376000918101602001919091529392505050565b6000806040838503121561417e57600080fd5b823567ffffffffffffffff8082111561419657600080fd5b6141a286838701614115565b935060208501359150808211156141b857600080fd5b506141c585828601614115565b9150509250929050565b8035600381106141de57600080fd5b919050565b6000602082840312156141f557600080fd5b613f1d826141cf565b60008060006060848603121561421357600080fd5b833561421e81614015565b9250602084013561422e81614015565b929592945050506040919091013590565b60008083601f84011261425157600080fd5b50813567ffffffffffffffff81111561426957600080fd5b6020830191508360208260051b850101111561428457600080fd5b9250929050565b600080600080604085870312156142a157600080fd5b843567ffffffffffffffff808211156142b957600080fd5b6142c58883890161423f565b909650945060208701359150808211156142de57600080fd5b506142eb8782880161423f565b95989497509550505050565b60006020828403121561430957600080fd5b8135613f1d81614015565b6000806040838503121561432757600080fd5b823561433281614015565b9150602083013567ffffffffffffffff81111561434e57600080fd5b6141c585828601614115565b8035600581106141de57600080fd5b60006020828403121561437b57600080fd5b613f1d8261435a565b6040815260006143976040830185613fd6565b90508260208301529392505050565b60008060008060008060c087890312156143bf57600080fd5b86356143ca81614015565b9550602087013594506040870135935060608701356143e881614015565b9250608087013567ffffffffffffffff8082111561440557600080fd5b6144118a838b01614115565b935060a089013591508082111561442757600080fd5b5061443489828a01614115565b9150509295509295509295565b6000806040838503121561445457600080fd5b50508035926020909101359150565b60006040828403121561447557600080fd5b6040516040810181811067ffffffffffffffff82111715614498576144986140a6565b6040529050806144a7836141cf565b81526144b56020840161435a565b60208201525092915050565b60008060008060008060e087890312156144da57600080fd5b6144e48888614463565b955060408701359450606087013593506080870135925060a0870135915060c087013560ff8116811461451657600080fd5b809150509295509295509295565b80151581146116d657600080fd5b6000806040838503121561454557600080fd5b823561455081614015565b9150602083013561456081614524565b809150509250929050565b6000806000806080858703121561458157600080fd5b843561458c81614015565b9350602085013561459c81614015565b925060408501359150606085013567ffffffffffffffff8111156145bf57600080fd5b6145cb87828801614115565b91505092959194509250565b6020808252825182820181905260009190848201906040850190845b8181101561461457835162ffffff16835292840192918401916001016145f3565b50909695505050505050565b60006040828403121561463257600080fd5b613f1d8383614463565b6000806040838503121561464f57600080fd5b823561465a81614015565b9150602083013561456081614015565b600181811c9082168061467e57607f821691505b6020821081036133c057634e487b7160e01b600052602260045260246000fd5b634e487b7160e01b600052601160045260246000fd5b600061ffff8083168181036146cb576146cb61469e565b6001019392505050565b6000826146f257634e487b7160e01b600052601260045260246000fd5b500490565b634e487b7160e01b600052602160045260246000fd5b60ff81811683821602908116908181146147295761472961469e565b5092915050565b8082028115828204841417610c0957610c0961469e565b634e487b7160e01b600052603260045260246000fd5b600060001982036147705761477061469e565b5060010190565b81810381811115610c0957610c0961469e565b60006020828403121561479c57600080fd5b8151613f1d81614524565b6000602082840312156147b957600080fd5b5051919050565b6000602082840312156147d257600080fd5b815167ffffffffffffffff8111156147e957600080fd5b8201601f810184136147fa57600080fd5b8051614808614134826140ed565b81815285602083850101111561481d57600080fd5b613efb826020830160208601613fb2565b7f7b226e616d65223a20220000000000000000000000000000000000000000000081526000835161486681600a850160208801613fb2565b7f222c226465736372697074696f6e223a22000000000000000000000000000000600a918401918201527f222c22696d616765223a22000000000000000000000000000000000000000000601b8201527f646174613a696d6167652f7376672b786d6c3b6261736536342c000000000000602682015283516148ef816040840160208801613fb2565b7f227d00000000000000000000000000000000000000000000000000000000000060409290910191820152604201949350505050565b80820180821115610c0957610c0961469e565b600062ffffff8083168181036146cb576146cb61469e565b6060810160038510614964576149646146f7565b84825260058410614977576149776146f7565b602082019390935260400152919050565b600063ffffffff8083168181036146cb576146cb61469e565b601f821115610e1a57600081815260208120601f850160051c810160208610156149c85750805b601f850160051c820191505b8181101561203f578281556001016149d4565b815167ffffffffffffffff811115614a0157614a016140a6565b614a1581614a0f845461466a565b846149a1565b602080601f831160018114614a4a5760008415614a325750858301515b600019600386901b1c1916600185901b17855561203f565b600085815260208120601f198616915b82811015614a7957888601518255948401946001909101908401614a5a565b5085821015614a975787850151600019600388901b60f8161c191681555b5050505050600190811b01905550565b60006001600160a01b03808716835280861660208401525083604083015260806060830152614ad96080830184613fd6565b9695505050505050565b600060208284031215614af557600080fd5b8151613f1d81613f4e565b60008351614b12818460208801613fb2565b60e89390931b7fffffff0000000000000000000000000000000000000000000000000000000000169190920190815260030192915050565b60008251614b5c818460208701613fb2565b919091019291505056fe4142434445464748494a4b4c4d4e4f505152535455565758595a6162636465666768696a6b6c6d6e6f707172737475767778797a303132333435363738392b2f416464726573733a206c6f772d6c6576656c2064656c65676174652063616c6c206661696c6564a26469706673582212205ecfdcf0aa07f10e21f516a4f66fa9ad2d46627871fcd912549373bbef216f1864736f6c63430008110033",
  "deployedBytecode": "0x6080604052600436106103295760003560e01c8063736c0d5b116101a5578063ac4afa38116100ec578063c87b56dd11610095578063e4421be21161006f578063e4421be214610a80578063e4e3b32b14610aa0578063e985e9c514610ac0578063f11925d714610b0a57600080fd5b8063c87b56dd14610a2f578063dbcd0a5814610a4f578063e30c397814610a6257600080fd5b8063b88d4fde116100c6578063b88d4fde146109d6578063c208d41a146109f6578063c546286514610a0d57600080fd5b8063ac4afa3814610951578063b242e5341461097e578063b470a9b51461099e57600080fd5b8063853828b61161014e57806395d89b411161012857806395d89b41146107e4578063a005ec7a146107f9578063a22cb4651461093157600080fd5b8063853828b61461079e578063869bdf67146107b35780638da5cb5b146107c657600080fd5b80637cad554d1161017f5780637cad554d1461073e57806380619b611461075e578063829a1d091461077e57600080fd5b8063736c0d5b146106ba5780637447aa08146106ea578063795dbede1461070d57600080fd5b8063314b8dbd1161027457806352d1902d1161021d5780636352211e116101f75780636352211e1461064f578063670506e91461066f57806370a0823114610685578063715018a6146106a557600080fd5b806352d1902d146105d657806356fc2fa6146105eb57806360b127eb1461060b57600080fd5b806342842e0e1161024e57806342842e0e1461058e5780634e71e0c8146105ae5780634f1ef286146105c357600080fd5b8063314b8dbd1461052e578063350b23691461054e5780633659cfe61461056e57600080fd5b806316a065c6116102d65780631dae2436116102b05780631dae2436146104c057806323b872dd146104e05780632ee691a31461050057600080fd5b806316a065c614610452578063171d49521461047257806318ac12541461049257600080fd5b8063081812fc11610307578063081812fc146103d8578063095ea7b3146104105780630aeb55c81461043257600080fd5b806301ffc9a71461032e578063068bcd8d1461036357806306fdde03146103b6575b600080fd5b34801561033a57600080fd5b5061034e610349366004613f7c565b610b2a565b60405190151581526020015b60405180910390f35b34801561036f57600080fd5b506103a761037e366004613f99565b604080516020808201835260009182905292815260cf8352819020815192830190915254815290565b6040519051815260200161035a565b3480156103c257600080fd5b506103cb610c0f565b60405161035a9190614002565b3480156103e457600080fd5b506103f86103f3366004613f99565b610ca2565b6040516001600160a01b03909116815260200161035a565b34801561041c57600080fd5b5061043061042b36600461402a565b610cca565b005b34801561043e57600080fd5b5061043061044d366004614056565b610e1f565b34801561045e57600080fd5b5060cb546103f8906001600160a01b031681565b34801561047e57600080fd5b5061043061048d36600461416b565b611125565b34801561049e57600080fd5b506104b26104ad3660046141e3565b61119d565b60405190815260200161035a565b3480156104cc57600080fd5b506104306104db366004613f99565b6111de565b3480156104ec57600080fd5b506104306104fb3660046141fe565b611274565b34801561050c57600080fd5b506104b261051b366004613f99565b6101916020526000908152604090205481565b34801561053a57600080fd5b506104b26105493660046141e3565b6112fb565b34801561055a57600080fd5b5061043061056936600461428b565b61132d565b34801561057a57600080fd5b506104306105893660046142f7565b61153c565b34801561059a57600080fd5b506104306105a93660046141fe565b6116d9565b3480156105ba57600080fd5b506104306116f4565b6104306105d1366004614314565b611758565b3480156105e257600080fd5b506104b26118e2565b3480156105f757600080fd5b506104b2610606366004614369565b6119a7565b34801561061757600080fd5b5061063c6106263660046142f7565b60cd6020526000908152604090205461ffff1681565b60405161ffff909116815260200161035a565b34801561065b57600080fd5b506103f861066a366004613f99565b6119e8565b34801561067b57600080fd5b506104b260c95481565b34801561069157600080fd5b506104b26106a03660046142f7565b611a4e565b3480156106b157600080fd5b50610430611ae9565b3480156106c657600080fd5b5061034e6106d53660046142f7565b60cc6020526000908152604090205460ff1681565b3480156106f657600080fd5b506106ff611b4d565b60405161035a929190614384565b34801561071957600080fd5b506101935461072a9062ffffff1681565b60405162ffffff909116815260200161035a565b34801561074a57600080fd5b506104b2610759366004614369565b611be6565b34801561076a57600080fd5b506104306107793660046143a6565b611c15565b34801561078a57600080fd5b50610430610799366004614441565b611d88565b3480156107aa57600080fd5b50610430611eb9565b6104306107c13660046144c1565b612029565b3480156107d257600080fd5b506033546001600160a01b03166103f8565b3480156107f057600080fd5b506103cb612047565b34801561080557600080fd5b506108ce610814366004613f99565b60ce6020526000908152604090208054600182015460029092015490916001600160a01b0381169174010000000000000000000000000000000000000000820461ffff90811692760100000000000000000000000000000000000000000000810490911691780100000000000000000000000000000000000000000000000090910467ffffffffffffffff16906fffffffffffffffffffffffffffffffff8082169170010000000000000000000000000000000090041687565b604080519788526001600160a01b03909616602088015261ffff9485169587019590955292909116606085015267ffffffffffffffff1660808401526fffffffffffffffffffffffffffffffff90811660a08401521660c082015260e00161035a565b34801561093d57600080fd5b5061043061094c366004614532565b612057565b34801561095d57600080fd5b506104b261096c366004613f99565b60cf6020526000908152604090205481565b34801561098a57600080fd5b50610430610999366004614532565b612062565b3480156109aa57600080fd5b506104b26109b936600461402a565b60d060209081526000928352604080842090915290825290205481565b3480156109e257600080fd5b506104306109f136600461456b565b61214d565b348015610a0257600080fd5b506104b26101945481565b348015610a1957600080fd5b50610a226121db565b60405161035a91906145d7565b348015610a3b57600080fd5b506103cb610a4a366004613f99565b612294565b610430610a5d366004614620565b61244e565b348015610a6e57600080fd5b506034546001600160a01b03166103f8565b348015610a8c57600080fd5b50610430610a9b366004614441565b612457565b348015610aac57600080fd5b506104b2610abb366004613f99565b61258d565b348015610acc57600080fd5b5061034e610adb36600461463c565b6001600160a01b0391821660009081526101326020908152604080832093909416825291909152205460ff1690565b348015610b1657600080fd5b50610430610b25366004613f99565b612628565b60007fffffffff0000000000000000000000000000000000000000000000000000000082167f80ac58cd000000000000000000000000000000000000000000000000000000001480610bbd57507fffffffff0000000000000000000000000000000000000000000000000000000082167f5b5e139f00000000000000000000000000000000000000000000000000000000145b80610c0957507f01ffc9a7000000000000000000000000000000000000000000000000000000007fffffffff000000000000000000000000000000000000000000000000000000008316145b92915050565b606061012d8054610c1f9061466a565b80601f0160208091040260200160405190810160405280929190818152602001828054610c4b9061466a565b8015610c985780601f10610c6d57610100808354040283529160200191610c98565b820191906000526020600020905b815481529060010190602001808311610c7b57829003601f168201915b5050505050905090565b6000610cad826126b7565b50600090815261013160205260409020546001600160a01b031690565b6000610cd5826119e8565b9050806001600160a01b0316836001600160a01b031603610d635760405162461bcd60e51b815260206004820152602160248201527f4552433732313a20617070726f76616c20746f2063757272656e74206f776e6560448201527f720000000000000000000000000000000000000000000000000000000000000060648201526084015b60405180910390fd5b336001600160a01b0382161480610d9e57506001600160a01b03811660009081526101326020908152604080832033845290915290205460ff165b610e105760405162461bcd60e51b815260206004820152603d60248201527f4552433732313a20617070726f76652063616c6c6572206973206e6f7420746f60448201527f6b656e206f776e6572206f7220617070726f76656420666f7220616c6c0000006064820152608401610d5a565b610e1a838361271c565b505050565b33600090815260cc602052604090205460ff16610e68576040517fa1b035c800000000000000000000000000000000000000000000000000000000815260040160405180910390fd5b6000610e7384612798565b6040805160e0810182528981526001600160a01b0389166020808301829052600091825260cd90528281208054949550919392840192610eb69061ffff166146b4565b825461ffff9182166101009390930a83810290830219909116179092558252851660208201526000604082018190526060820152608001610eff670de0b6b3a7640000886146d5565b6fffffffffffffffffffffffffffffffff908116909152600083815260ce60209081526040918290208451815590840151600182018054938601516060870151608088015167ffffffffffffffff1678010000000000000000000000000000000000000000000000000277ffffffffffffffffffffffffffffffffffffffffffffffff61ffff928316760100000000000000000000000000000000000000000000021675ffffffffffffffffffffffffffffffffffffffffffff9290931674010000000000000000000000000000000000000000027fffffffffffffffffffff000000000000000000000000000000000000000000009097166001600160a01b03909516949094179590951794909416939093171790915560a083015160c090930151821670010000000000000000000000000000000002929091169190911760029091015561104f86826127f5565b60cb546040517f40c10f190000000000000000000000000000000000000000000000000000000081526001600160a01b03888116600483015260248201889052909116906340c10f1990604401600060405180830381600087803b1580156110b657600080fd5b505af11580156110ca573d6000803e3d6000fd5b5050505080866001600160a01b0316887faf1bba31184b4d13e4f756b22fc2755d77b6ad147f10a7b12ea6afa58a2ca5f68789604051611114929190918252602082015260400190565b60405180910390a450505050505050565b6033546001600160a01b0316331461117f5760405162461bcd60e51b815260206004820152601d60248201527f536166654f776e61626c653a2063616c6c6572206e6f74206f776e65720000006044820152606401610d5a565b611189828261280f565b611191612884565b6111996128f7565b5050565b60008160028111156111b1576111b16146f7565b6111bc90600861470d565b60ff1660c060ca54901c901c60ff16670de0b6b3a7640000610c099190614730565b6033546001600160a01b031633146112385760405162461bcd60e51b815260206004820152601d60248201527f536166654f776e61626c653a2063616c6c6572206e6f74206f776e65720000006044820152606401610d5a565b60ca8190556040518181527fbf50be4abd4aca220cd35d4969b029104c5ff54c7d5f9f2e9a7b97d1ea5ef13e906020015b60405180910390a150565b61127e338261296f565b6112f05760405162461bcd60e51b815260206004820152602d60248201527f4552433732313a2063616c6c6572206973206e6f7420746f6b656e206f776e6560448201527f72206f7220617070726f766564000000000000000000000000000000000000006064820152608401610d5a565b610e1a8383836129ee565b600081600281111561130f5761130f6146f7565b61131a90600861470d565b60ca5460801c60ff9182161c1692915050565b6033546001600160a01b031633146113875760405162461bcd60e51b815260206004820152601d60248201527f536166654f776e61626c653a2063616c6c6572206e6f74206f776e65720000006044820152606401610d5a565b60005b8381101561146257600160cc60008787858181106113aa576113aa614747565b90506020020160208101906113bf91906142f7565b6001600160a01b031681526020810191909152604001600020805460ff19169115159190911790557fc648f6265408cc54c0dc26d24ba51dfc9f35ce1a63baa2228f65d93aaf11cc6785858381811061141a5761141a614747565b905060200201602081019061142f91906142f7565b604080516001600160a01b039092168252600160208301520160405180910390a18061145a8161475d565b91505061138a565b5060005b818110156115355760cc600084848481811061148457611484614747565b905060200201602081019061149991906142f7565b6001600160a01b031681526020810191909152604001600020805460ff191690557fc648f6265408cc54c0dc26d24ba51dfc9f35ce1a63baa2228f65d93aaf11cc678383838181106114ed576114ed614747565b905060200201602081019061150291906142f7565b604080516001600160a01b039092168252600060208301520160405180910390a18061152d8161475d565b915050611466565b5050505050565b6001600160a01b037f00000000000000000000000000000000000000000000000000000000000000001630036115da5760405162461bcd60e51b815260206004820152602c60248201527f46756e6374696f6e206d7573742062652063616c6c6564207468726f7567682060448201527f64656c656761746563616c6c00000000000000000000000000000000000000006064820152608401610d5a565b7f00000000000000000000000000000000000000000000000000000000000000006001600160a01b03166116357f360894a13ba1a3210667c828492db98dca3e2076cc3735a920a3ca505d382bbc546001600160a01b031690565b6001600160a01b0316146116b15760405162461bcd60e51b815260206004820152602c60248201527f46756e6374696f6e206d7573742062652063616c6c6564207468726f7567682060448201527f6163746976652070726f787900000000000000000000000000000000000000006064820152608401610d5a565b6116ba81612c34565b604080516000808252602082019092526116d691839190612c8e565b50565b610e1a8383836040518060200160405280600081525061214d565b6034546001600160a01b0316331461174e5760405162461bcd60e51b815260206004820152601e60248201527f536166654f776e61626c653a2063616c6c657220213d2070656e64696e6700006044820152606401610d5a565b611756612e2e565b565b6001600160a01b037f00000000000000000000000000000000000000000000000000000000000000001630036117f65760405162461bcd60e51b815260206004820152602c60248201527f46756e6374696f6e206d7573742062652063616c6c6564207468726f7567682060448201527f64656c656761746563616c6c00000000000000000000000000000000000000006064820152608401610d5a565b7f00000000000000000000000000000000000000000000000000000000000000006001600160a01b03166118517f360894a13ba1a3210667c828492db98dca3e2076cc3735a920a3ca505d382bbc546001600160a01b031690565b6001600160a01b0316146118cd5760405162461bcd60e51b815260206004820152602c60248201527f46756e6374696f6e206d7573742062652063616c6c6564207468726f7567682060448201527f6163746976652070726f787900000000000000000000000000000000000000006064820152608401610d5a565b6118d682612c34565b61119982826001612c8e565b6000306001600160a01b037f000000000000000000000000000000000000000000000000000000000000000016146119825760405162461bcd60e51b815260206004820152603860248201527f555550535570677261646561626c653a206d757374206e6f742062652063616c60448201527f6c6564207468726f7567682064656c656761746563616c6c00000000000000006064820152608401610d5a565b507f360894a13ba1a3210667c828492db98dca3e2076cc3735a920a3ca505d382bbc90565b60008160048111156119bb576119bb6146f7565b6119c690600861470d565b60ff16604060ca54901c901c60ff16670de0b6b3a7640000610c099190614730565b600081815261012f60205260408120546001600160a01b031680610c095760405162461bcd60e51b815260206004820152601860248201527f4552433732313a20696e76616c696420746f6b656e20494400000000000000006044820152606401610d5a565b60006001600160a01b038216611acc5760405162461bcd60e51b815260206004820152602960248201527f4552433732313a2061646472657373207a65726f206973206e6f74206120766160448201527f6c6964206f776e657200000000000000000000000000000000000000000000006064820152608401610d5a565b506001600160a01b03166000908152610130602052604090205490565b6033546001600160a01b03163314611b435760405162461bcd60e51b815260206004820152601d60248201527f536166654f776e61626c653a2063616c6c6572206e6f74206f776e65720000006044820152606401610d5a565b6117566000612ea4565b61019580548190611b5d9061466a565b80601f0160208091040260200160405190810160405280929190818152602001828054611b899061466a565b8015611bd65780601f10611bab57610100808354040283529160200191611bd6565b820191906000526020600020905b815481529060010190602001808311611bb957829003601f168201915b5050505050908060010154905082565b6000816004811115611bfa57611bfa6146f7565b611c0590600861470d565b60ca5460ff9182161c1692915050565b600054610100900460ff1615808015611c355750600054600160ff909116105b80611c4f5750303b158015611c4f575060005460ff166001145b611cc15760405162461bcd60e51b815260206004820152602e60248201527f496e697469616c697a61626c653a20636f6e747261637420697320616c72656160448201527f647920696e697469616c697a65640000000000000000000000000000000000006064820152608401610d5a565b6000805460ff191660011790558015611ce4576000805461ff0019166101001790555b60cb805473ffffffffffffffffffffffffffffffffffffffff19166001600160a01b03891617905560c986905560ca859055611d1f84612f27565b611d29838361280f565b611d31612884565b611d396128f7565b8015611d7f576000805461ff0019169055604051600181527f7f26b83ff96e1f2b6a682f133852f6798a09c465da95921460cefb38474024989060200160405180910390a15b50505050505050565b600082815260cf60205260408120805490918391839190611daa908490614777565b909155505033600090815260d0602090815260408083208684529091528120805490918491839190611ddd908490614777565b909155505060cb546040517fa9059cbb000000000000000000000000000000000000000000000000000000008152336004820152602481018590526001600160a01b039091169063a9059cbb906044016020604051808303816000875af1158015611e4c573d6000803e3d6000fd5b505050506040513d601f19601f82011682018060405250810190611e70919061478a565b5060408051338152602081018690529081018490527f5c09e6483f1552208cf891fa28d135269484ad74a848ad491913fb4b386ffcf0906060015b60405180910390a150505050565b6033546001600160a01b03163314611f135760405162461bcd60e51b815260206004820152601d60248201527f536166654f776e61626c653a2063616c6c6572206e6f74206f776e65720000006044820152606401610d5a565b60cb546040517f70a082310000000000000000000000000000000000000000000000000000000081523060048201526001600160a01b039091169063a9059cbb90339083906370a0823190602401602060405180830381865afa158015611f7e573d6000803e3d6000fd5b505050506040513d601f19601f82011682018060405250810190611fa291906147a7565b6040517fffffffff0000000000000000000000000000000000000000000000000000000060e085901b1681526001600160a01b03909216600483015260248201526044016020604051808303816000875af1158015612005573d6000803e3d6000fd5b505050506040513d601f19601f820116820180604052508101906116d6919061478a565b6120368585858585612f9b565b61203f86613043565b505050505050565b606061012e8054610c1f9061466a565b6111993383836131ba565b6033546001600160a01b031633146120bc5760405162461bcd60e51b815260206004820152601d60248201527f536166654f776e61626c653a2063616c6c6572206e6f74206f776e65720000006044820152606401610d5a565b6001600160a01b0382166121125760405162461bcd60e51b815260206004820152601b60248201527f536166654f776e61626c653a206e6577206f776e6572206973203000000000006044820152606401610d5a565b80156121215761119982612ea4565b6034805473ffffffffffffffffffffffffffffffffffffffff19166001600160a01b0384161790555050565b612157338361296f565b6121c95760405162461bcd60e51b815260206004820152602d60248201527f4552433732313a2063616c6c6572206973206e6f7420746f6b656e206f776e6560448201527f72206f7220617070726f766564000000000000000000000000000000000000006064820152608401610d5a565b6121d584848484613289565b50505050565b606061228f6101956040518060400160405290816000820180546121fe9061466a565b80601f016020809104026020016040519081016040528092919081815260200182805461222a9061466a565b80156122775780601f1061224c57610100808354040283529160200191612277565b820191906000526020600020905b81548152906001019060200180831161225a57829003601f168201915b50505050508152602001600182015481525050613312565b905090565b606061229f826126b7565b610c096122aa610c0f565b6000848152610191602090815260408083205460ce90925291829020600181015460029091015492517fa48f184a00000000000000000000000000000000000000000000000000000000815260e060048083019190915260e48201527f7365656400000000000000000000000000000000000000000000000000000000610104820152602481019290925261ffff7601000000000000000000000000000000000000000000008204811660448401527401000000000000000000000000000000000000000082041660648301526001600160a01b031660848201526fffffffffffffffffffffffffffffffff80831660a483015270010000000000000000000000000000000090920490911660c48201526124299073__$bd4a62aa904e40a751e4c3f6355b6291ee$__9063a48f184a9061012401600060405180830381865af41580156123fc573d6000803e3d6000fd5b505050506040513d6000823e601f3d908101601f1916820160405261242491908101906147c0565b6133c6565b60405160200161243a92919061482e565b6040516020818303038152906040526133c6565b6116d681613043565b612460826126b7565b60cb546040517f23b872dd000000000000000000000000000000000000000000000000000000008152336004820152306024820152604481018390526001600160a01b03909116906323b872dd906064016020604051808303816000875af11580156124d0573d6000803e3d6000fd5b505050506040513d601f19601f820116820180604052508101906124f4919061478a565b50600082815260cf60205260408120805490918391839190612517908490614925565b909155505033600090815260d060209081526040808320868452909152812080549091849183919061254a908490614925565b909155505060408051338152602081018690529081018490527f58c7b3bf0b0e168048426c1e9443a72696526292ca664e18b11f934cd6cfbbf390606001611eab565b6000806125b16101956040518060400160405290816000820180546121fe9061466a565b905060005b606481101561261e578361019160008484815181106125d7576125d7614747565b602002602001015162ffffff16815260200190815260200160002054101561260c57612604816001614925565b949350505050565b806126168161475d565b9150506125b6565b5060009392505050565b6033546001600160a01b031633146126825760405162461bcd60e51b815260206004820152601d60248201527f536166654f776e61626c653a2063616c6c6572206e6f74206f776e65720000006044820152606401610d5a565b60c98190556040518181527fae0c05ecd507ea9cded837adb5c433fa5e8c24ef117806d7050ec4432a743f1d90602001611269565b600081815261012f60205260409020546001600160a01b03166116d65760405162461bcd60e51b815260206004820152601860248201527f4552433732313a20696e76616c696420746f6b656e20494400000000000000006044820152606401610d5a565b600081815261013160205260409020805473ffffffffffffffffffffffffffffffffffffffff19166001600160a01b038416908117909155819061275f826119e8565b6001600160a01b03167f8c5be1e5ebec7d5bd14f71427d1e84f3dd0314c0f7b2291e5b200ac8c7c3b92560405160405180910390a45050565b6101938054600091839161019191849182906127b89062ffffff16614938565b825462ffffff9182166101009390930a83810290830219909116179092558252602082019290925260400160002091909155610193541692915050565b611199828260405180602001604052806000815250613519565b600054610100900460ff1661287a5760405162461bcd60e51b815260206004820152602b60248201527f496e697469616c697a61626c653a20636f6e7472616374206973206e6f74206960448201526a6e697469616c697a696e6760a81b6064820152608401610d5a565b61119982826135a2565b600054610100900460ff166128ef5760405162461bcd60e51b815260206004820152602b60248201527f496e697469616c697a61626c653a20636f6e7472616374206973206e6f74206960448201526a6e697469616c697a696e6760a81b6064820152608401610d5a565b611756613628565b600054610100900460ff166129625760405162461bcd60e51b815260206004820152602b60248201527f496e697469616c697a61626c653a20636f6e7472616374206973206e6f74206960448201526a6e697469616c697a696e6760a81b6064820152608401610d5a565b611756610195606461369b565b60008061297b836119e8565b9050806001600160a01b0316846001600160a01b031614806129c357506001600160a01b038082166000908152610132602090815260408083209388168352929052205460ff165b806126045750836001600160a01b03166129dc84610ca2565b6001600160a01b031614949350505050565b826001600160a01b0316612a01826119e8565b6001600160a01b031614612a7d5760405162461bcd60e51b815260206004820152602560248201527f4552433732313a207472616e736665722066726f6d20696e636f72726563742060448201527f6f776e65720000000000000000000000000000000000000000000000000000006064820152608401610d5a565b6001600160a01b038216612af85760405162461bcd60e51b8152602060048201526024808201527f4552433732313a207472616e7366657220746f20746865207a65726f2061646460448201527f72657373000000000000000000000000000000000000000000000000000000006064820152608401610d5a565b612b0583838360016136f9565b826001600160a01b0316612b18826119e8565b6001600160a01b031614612b945760405162461bcd60e51b815260206004820152602560248201527f4552433732313a207472616e736665722066726f6d20696e636f72726563742060448201527f6f776e65720000000000000000000000000000000000000000000000000000006064820152608401610d5a565b600081815261013160209081526040808320805473ffffffffffffffffffffffffffffffffffffffff199081169091556001600160a01b03878116808652610130855283862080546000190190559087168086528386208054600101905586865261012f90945282852080549092168417909155905184937fddf252ad1be2c89b69c2b068fc378daa952ba7f163c4a11628f55a4df523b3ef91a4505050565b6033546001600160a01b031633146116d65760405162461bcd60e51b815260206004820152601d60248201527f536166654f776e61626c653a2063616c6c6572206e6f74206f776e65720000006044820152606401610d5a565b7f4910fdfa16fed3260ed0e7147f7cc6da11a60208b5b9406d12a635614ffd91435460ff1615612cc157610e1a83613783565b826001600160a01b03166352d1902d6040518163ffffffff1660e01b8152600401602060405180830381865afa925050508015612d1b575060408051601f3d908101601f19168201909252612d18918101906147a7565b60015b612d8d5760405162461bcd60e51b815260206004820152602e60248201527f45524331393637557067726164653a206e657720696d706c656d656e7461746960448201527f6f6e206973206e6f7420555550530000000000000000000000000000000000006064820152608401610d5a565b7f360894a13ba1a3210667c828492db98dca3e2076cc3735a920a3ca505d382bbc8114612e225760405162461bcd60e51b815260206004820152602960248201527f45524331393637557067726164653a20756e737570706f727465642070726f7860448201527f6961626c655555494400000000000000000000000000000000000000000000006064820152608401610d5a565b50610e1a83838361384e565b6033546034546040516001600160a01b03928316929091169082907f8be0079c531659141344cd1fd0a4f28419497f9722a3daafe3b4186f6b6457e090600090a350603480546033805473ffffffffffffffffffffffffffffffffffffffff199081166001600160a01b03841617909155169055565b7fb53127684a568b3173ae13b9f8a6016e243e63b6e8ee1178d6a717850b5d6103819055603380546001600160a01b0380841673ffffffffffffffffffffffffffffffffffffffff19831681179093556040519116919082907f8be0079c531659141344cd1fd0a4f28419497f9722a3daafe3b4186f6b6457e090600090a35050565b600054610100900460ff16612f925760405162461bcd60e51b815260206004820152602b60248201527f496e697469616c697a61626c653a20636f6e7472616374206973206e6f74206960448201526a6e697469616c697a696e6760a81b6064820152608401610d5a565b6116d681613873565b60cb546040517fd505accf000000000000000000000000000000000000000000000000000000008152336004820152306024820152604481018790526064810186905260ff8316608482015260a4810185905260c481018490526001600160a01b039091169063d505accf9060e401600060405180830381600087803b15801561302457600080fd5b505af1158015613038573d6000803e3d6000fd5b505050505050505050565b60c95434101561307f576040517f5945ea5600000000000000000000000000000000000000000000000000000000815260040160405180910390fd5b60c95433906108fc906130929034614777565b6040518115909202916000818181858888f193505050501580156130ba573d6000803e3d6000fd5b5060006130ca82602001516119a7565b82516130d59061119d565b6130df9190614925565b60cb546040517f79cc6790000000000000000000000000000000000000000000000000000000008152336004820152602481018390529192506001600160a01b0316906379cc679090604401600060405180830381600087803b15801561314557600080fd5b505af1158015613159573d6000803e3d6000fd5b5050505061316a8260200151611be6565b8251613175906112fb565b8351602085015160405133927f87fb928ac5e68966565b76ad225a282c4bdac2194b64d495dfe59b91c963fd3a926131ae928890614950565b60405180910390a45050565b816001600160a01b0316836001600160a01b03160361321b5760405162461bcd60e51b815260206004820152601960248201527f4552433732313a20617070726f766520746f2063616c6c6572000000000000006044820152606401610d5a565b6001600160a01b0383811660008181526101326020908152604080832094871680845294825291829020805460ff191686151590811790915591519182527f17307eab39ab6107e8899845ad3d59bd9653f200f220920489ca2b5937696c31910160405180910390a3505050565b6132948484846129ee565b6132a0848484846138e7565b6121d55760405162461bcd60e51b815260206004820152603260248201527f4552433732313a207472616e7366657220746f206e6f6e20455243373231526560448201527f63656976657220696d706c656d656e74657200000000000000000000000000006064820152608401610d5a565b6060816020015167ffffffffffffffff811115613331576133316140a6565b60405190808252806020026020018201604052801561335a578160200160208202803683370190505b50905060005b82602001518163ffffffff1610156133c057613382838263ffffffff16613a88565b828263ffffffff168151811061339a5761339a614747565b62ffffff90921660209283029190910190910152806133b881614988565b915050613360565b50919050565b606081516000036133e557505060408051602081019091526000815290565b6000604051806060016040528060408152602001614b6760409139905060006003845160026134149190614925565b61341e91906146d5565b613429906004614730565b67ffffffffffffffff811115613441576134416140a6565b6040519080825280601f01601f19166020018201604052801561346b576020820181803683370190505b509050600182016020820185865187015b808210156134d7576003820191508151603f8160121c168501518453600184019350603f81600c1c168501518453600184019350603f8160061c168501518453600184019350603f811685015184535060018301925061347c565b50506003865106600181146134f357600281146135065761350e565b603d6001830353603d600283035361350e565b603d60018303535b509195945050505050565b6135238383613bb1565b61353060008484846138e7565b610e1a5760405162461bcd60e51b815260206004820152603260248201527f4552433732313a207472616e7366657220746f206e6f6e20455243373231526560448201527f63656976657220696d706c656d656e74657200000000000000000000000000006064820152608401610d5a565b600054610100900460ff1661360d5760405162461bcd60e51b815260206004820152602b60248201527f496e697469616c697a61626c653a20636f6e7472616374206973206e6f74206960448201526a6e697469616c697a696e6760a81b6064820152608401610d5a565b61012d61361a83826149e7565b5061012e610e1a82826149e7565b600054610100900460ff166136935760405162461bcd60e51b815260206004820152602b60248201527f496e697469616c697a61626c653a20636f6e7472616374206973206e6f74206960448201526a6e697469616c697a696e6760a81b6064820152608401610d5a565b600161015f55565b600182018190556136ed8167ffffffffffffffff8111156136be576136be6140a6565b6040519080825280602002602001820160405280156136e7578160200160208202803683370190505b50613d5b565b8290610e1a90826149e7565b60018111156121d5576001600160a01b03841615613740576001600160a01b038416600090815261013060205260408120805483929061373a908490614777565b90915550505b6001600160a01b038316156121d5576001600160a01b0383166000908152610130602052604081208054839290613778908490614925565b909155505050505050565b6001600160a01b0381163b6138005760405162461bcd60e51b815260206004820152602d60248201527f455243313936373a206e657720696d706c656d656e746174696f6e206973206e60448201527f6f74206120636f6e7472616374000000000000000000000000000000000000006064820152608401610d5a565b7f360894a13ba1a3210667c828492db98dca3e2076cc3735a920a3ca505d382bbc805473ffffffffffffffffffffffffffffffffffffffff19166001600160a01b0392909216919091179055565b61385783613db9565b6000825111806138645750805b15610e1a576121d58383613df9565b600054610100900460ff166138de5760405162461bcd60e51b815260206004820152602b60248201527f496e697469616c697a61626c653a20636f6e7472616374206973206e6f74206960448201526a6e697469616c697a696e6760a81b6064820152608401610d5a565b6116d681612ea4565b60006001600160a01b0384163b15613a7d576040517f150b7a020000000000000000000000000000000000000000000000000000000081526001600160a01b0385169063150b7a0290613944903390899088908890600401614aa7565b6020604051808303816000875af192505050801561397f575060408051601f3d908101601f1916820190925261397c91810190614ae3565b60015b613a32573d8080156139ad576040519150601f19603f3d011682016040523d82523d6000602084013e6139b2565b606091505b508051600003613a2a5760405162461bcd60e51b815260206004820152603260248201527f4552433732313a207472616e7366657220746f206e6f6e20455243373231526560448201527f63656976657220696d706c656d656e74657200000000000000000000000000006064820152608401610d5a565b805181602001fd5b7fffffffff00000000000000000000000000000000000000000000000000000000167f150b7a0200000000000000000000000000000000000000000000000000000000149050612604565b506001949350505050565b81516000908190613a9a846003614730565b81518110613aaa57613aaa614747565b016020015184517fff0000000000000000000000000000000000000000000000000000000000000090911690613ae1856003614730565b613aec906001614925565b81518110613afc57613afc614747565b016020015185517fff0000000000000000000000000000000000000000000000000000000000000090911690613b33866003614730565b613b3e906002614925565b81518110613b4e57613b4e614747565b016020908101516040517fff000000000000000000000000000000000000000000000000000000000000009485169281019290925291831660218201529116602282015260230160408051601f1981840301815291905260030151949350505050565b6001600160a01b038216613c075760405162461bcd60e51b815260206004820181905260248201527f4552433732313a206d696e7420746f20746865207a65726f20616464726573736044820152606401610d5a565b600081815261012f60205260409020546001600160a01b031615613c6d5760405162461bcd60e51b815260206004820152601c60248201527f4552433732313a20746f6b656e20616c7265616479206d696e746564000000006044820152606401610d5a565b613c7b6000838360016136f9565b600081815261012f60205260409020546001600160a01b031615613ce15760405162461bcd60e51b815260206004820152601c60248201527f4552433732313a20746f6b656e20616c7265616479206d696e746564000000006044820152606401610d5a565b6001600160a01b0382166000818152610130602090815260408083208054600101905584835261012f909152808220805473ffffffffffffffffffffffffffffffffffffffff19168417905551839291907fddf252ad1be2c89b69c2b068fc378daa952ba7f163c4a11628f55a4df523b3ef908290a45050565b606060005b82518110156133c05781838281518110613d7c57613d7c614747565b6020026020010151604051602001613d95929190614b00565b60405160208183030381529060405291508080613db19061475d565b915050613d60565b613dc281613783565b6040516001600160a01b038216907fbc7cd75a20ee27fd9adebab32041f755214dbc6bffa90cc0225b39da2e5c2d3b90600090a250565b60606001600160a01b0383163b613e785760405162461bcd60e51b815260206004820152602660248201527f416464726573733a2064656c65676174652063616c6c20746f206e6f6e2d636f60448201527f6e747261637400000000000000000000000000000000000000000000000000006064820152608401610d5a565b600080846001600160a01b031684604051613e939190614b4a565b600060405180830381855af49150503d8060008114613ece576040519150601f19603f3d011682016040523d82523d6000602084013e613ed3565b606091505b5091509150613efb8282604051806060016040528060278152602001614ba760279139613f04565b95945050505050565b60608315613f13575081613f1d565b613f1d8383613f24565b9392505050565b815115613f345781518083602001fd5b8060405162461bcd60e51b8152600401610d5a9190614002565b7fffffffff00000000000000000000000000000000000000000000000000000000811681146116d657600080fd5b600060208284031215613f8e57600080fd5b8135613f1d81613f4e565b600060208284031215613fab57600080fd5b5035919050565b60005b83811015613fcd578181015183820152602001613fb5565b50506000910152565b60008151808452613fee816020860160208601613fb2565b601f01601f19169290920160200192915050565b602081526000613f1d6020830184613fd6565b6001600160a01b03811681146116d657600080fd5b6000806040838503121561403d57600080fd5b823561404881614015565b946020939093013593505050565b60008060008060008060c0878903121561406f57600080fd5b86359550602087013561408181614015565b95989597505050506040840135936060810135936080820135935060a0909101359150565b634e487b7160e01b600052604160045260246000fd5b604051601f8201601f1916810167ffffffffffffffff811182821017156140e5576140e56140a6565b604052919050565b600067ffffffffffffffff821115614107576141076140a6565b50601f01601f191660200190565b600082601f83011261412657600080fd5b8135614139614134826140ed565b6140bc565b81815284602083860101111561414e57600080fd5b816020850160208301376000918101602001919091529392505050565b6000806040838503121561417e57600080fd5b823567ffffffffffffffff8082111561419657600080fd5b6141a286838701614115565b935060208501359150808211156141b857600080fd5b506141c585828601614115565b9150509250929050565b8035600381106141de57600080fd5b919050565b6000602082840312156141f557600080fd5b613f1d826141cf565b60008060006060848603121561421357600080fd5b833561421e81614015565b9250602084013561422e81614015565b929592945050506040919091013590565b60008083601f84011261425157600080fd5b50813567ffffffffffffffff81111561426957600080fd5b6020830191508360208260051b850101111561428457600080fd5b9250929050565b600080600080604085870312156142a157600080fd5b843567ffffffffffffffff808211156142b957600080fd5b6142c58883890161423f565b909650945060208701359150808211156142de57600080fd5b506142eb8782880161423f565b95989497509550505050565b60006020828403121561430957600080fd5b8135613f1d81614015565b6000806040838503121561432757600080fd5b823561433281614015565b9150602083013567ffffffffffffffff81111561434e57600080fd5b6141c585828601614115565b8035600581106141de57600080fd5b60006020828403121561437b57600080fd5b613f1d8261435a565b6040815260006143976040830185613fd6565b90508260208301529392505050565b60008060008060008060c087890312156143bf57600080fd5b86356143ca81614015565b9550602087013594506040870135935060608701356143e881614015565b9250608087013567ffffffffffffffff8082111561440557600080fd5b6144118a838b01614115565b935060a089013591508082111561442757600080fd5b5061443489828a01614115565b9150509295509295509295565b6000806040838503121561445457600080fd5b50508035926020909101359150565b60006040828403121561447557600080fd5b6040516040810181811067ffffffffffffffff82111715614498576144986140a6565b6040529050806144a7836141cf565b81526144b56020840161435a565b60208201525092915050565b60008060008060008060e087890312156144da57600080fd5b6144e48888614463565b955060408701359450606087013593506080870135925060a0870135915060c087013560ff8116811461451657600080fd5b809150509295509295509295565b80151581146116d657600080fd5b6000806040838503121561454557600080fd5b823561455081614015565b9150602083013561456081614524565b809150509250929050565b6000806000806080858703121561458157600080fd5b843561458c81614015565b9350602085013561459c81614015565b925060408501359150606085013567ffffffffffffffff8111156145bf57600080fd5b6145cb87828801614115565b91505092959194509250565b6020808252825182820181905260009190848201906040850190845b8181101561461457835162ffffff16835292840192918401916001016145f3565b50909695505050505050565b60006040828403121561463257600080fd5b613f1d8383614463565b6000806040838503121561464f57600080fd5b823561465a81614015565b9150602083013561456081614015565b600181811c9082168061467e57607f821691505b6020821081036133c057634e487b7160e01b600052602260045260246000fd5b634e487b7160e01b600052601160045260246000fd5b600061ffff8083168181036146cb576146cb61469e565b6001019392505050565b6000826146f257634e487b7160e01b600052601260045260246000fd5b500490565b634e487b7160e01b600052602160045260246000fd5b60ff81811683821602908116908181146147295761472961469e565b5092915050565b8082028115828204841417610c0957610c0961469e565b634e487b7160e01b600052603260045260246000fd5b600060001982036147705761477061469e565b5060010190565b81810381811115610c0957610c0961469e565b60006020828403121561479c57600080fd5b8151613f1d81614524565b6000602082840312156147b957600080fd5b5051919050565b6000602082840312156147d257600080fd5b815167ffffffffffffffff8111156147e957600080fd5b8201601f810184136147fa57600080fd5b8051614808614134826140ed565b81815285602083850101111561481d57600080fd5b613efb826020830160208601613fb2565b7f7b226e616d65223a20220000000000000000000000000000000000000000000081526000835161486681600a850160208801613fb2565b7f222c226465736372697074696f6e223a22000000000000000000000000000000600a918401918201527f222c22696d616765223a22000000000000000000000000000000000000000000601b8201527f646174613a696d6167652f7376672b786d6c3b6261736536342c000000000000602682015283516148ef816040840160208801613fb2565b7f227d00000000000000000000000000000000000000000000000000000000000060409290910191820152604201949350505050565b80820180821115610c0957610c0961469e565b600062ffffff8083168181036146cb576146cb61469e565b6060810160038510614964576149646146f7565b84825260058410614977576149776146f7565b602082019390935260400152919050565b600063ffffffff8083168181036146cb576146cb61469e565b601f821115610e1a57600081815260208120601f850160051c810160208610156149c85750805b601f850160051c820191505b8181101561203f578281556001016149d4565b815167ffffffffffffffff811115614a0157614a016140a6565b614a1581614a0f845461466a565b846149a1565b602080601f831160018114614a4a5760008415614a325750858301515b600019600386901b1c1916600185901b17855561203f565b600085815260208120601f198616915b82811015614a7957888601518255948401946001909101908401614a5a565b5085821015614a975787850151600019600388901b60f8161c191681555b5050505050600190811b01905550565b60006001600160a01b03808716835280861660208401525083604083015260806060830152614ad96080830184613fd6565b9695505050505050565b600060208284031215614af557600080fd5b8151613f1d81613f4e565b60008351614b12818460208801613fb2565b60e89390931b7fffffff0000000000000000000000000000000000000000000000000000000000169190920190815260030192915050565b60008251614b5c818460208701613fb2565b919091019291505056fe4142434445464748494a4b4c4d4e4f505152535455565758595a6162636465666768696a6b6c6d6e6f707172737475767778797a303132333435363738392b2f416464726573733a206c6f772d6c6576656c2064656c65676174652063616c6c206661696c6564a26469706673582212205ecfdcf0aa07f10e21f516a4f66fa9ad2d46627871fcd912549373bbef216f1864736f6c63430008110033",
  "libraries": {
    "RenderEngine": "0x6Cc913AC77db058d9EE752Ad3450A0516b835632"
  },
  "devdoc": {
    "kind": "dev",
    "methods": {
      "approve(address,uint256)": {
        "details": "See {IERC721-approve}."
      },
      "balanceOf(address)": {
        "details": "See {IERC721-balanceOf}."
      },
      "claimOwnership()": {
        "details": "pending owner call this function to claim ownership"
      },
      "dry(uint256,uint256)": {
        "details": "degen get $REBORN back"
      },
      "engrave(bytes32,address,uint256,uint256,uint256,uint256)": {
        "details": "engrave the result on chain and reward",
        "params": {
          "seed": "uuid seed string without \"-\"  in bytes32"
        }
      },
      "findLocation(uint256)": {
        "details": "find the location in rank given a valueusually executed off-chain"
      },
      "getApproved(uint256)": {
        "details": "See {IERC721-getApproved}."
      },
      "getPool(uint256)": {
        "details": "read pool attribute"
      },
      "infuse(uint256,uint256)": {
        "details": "degen infuse $REBORN to tombstoneexpect for bliss"
      },
      "initAfterUpgrade(string,string)": {
        "details": "warning: only called onece during testabandoned in production"
      },
      "isApprovedForAll(address,address)": {
        "details": "See {IERC721-isApprovedForAll}."
      },
      "name()": {
        "details": "See {IERC721Metadata-name}."
      },
      "owner()": {
        "details": "Returns the address of the current owner."
      },
      "ownerOf(uint256)": {
        "details": "See {IERC721-ownerOf}."
      },
      "pendingOwner()": {
        "details": "Return the address of the pending owner"
      },
      "propertyPoint(uint8)": {
        "details": "calculate properties point for each property"
      },
      "propertyPrice(uint8)": {
        "details": "calculate properties price in $REBORN for each properties"
      },
      "proxiableUUID()": {
        "details": "Implementation of the ERC1822 {proxiableUUID} function. This returns the storage slot used by the implementation. It is used to validate the implementation's compatibility when performing an upgrade. IMPORTANT: A proxy pointing at a proxiable contract should not be considered proxiable itself, because this risks bricking a proxy that upgrades to it, by delegating to itself until out of gas. Thus it is critical that this function revert if invoked through a proxy. This is guaranteed by the `notDelegated` modifier."
      },
      "renounceOwnership()": {
        "details": "Leaves the contract without owner. It will not be possible to call `onlyOwner` functions anymore. Can only be called by the current owner. NOTE: Renouncing ownership will leave the contract without an owner, thereby removing any functionality that is only available to the owner."
      },
      "safeTransferFrom(address,address,uint256)": {
        "details": "See {IERC721-safeTransferFrom}."
      },
      "safeTransferFrom(address,address,uint256,bytes)": {
        "details": "See {IERC721-safeTransferFrom}."
      },
      "setApprovalForAll(address,bool)": {
        "details": "See {IERC721-setApprovalForAll}."
      },
      "setPriceAndPoint(uint256)": {
        "details": "set other price"
      },
      "setSoupPrice(uint256)": {
        "details": "set soup price"
      },
      "supportsInterface(bytes4)": {
        "details": "See {IERC165-supportsInterface}."
      },
      "symbol()": {
        "details": "See {IERC721Metadata-symbol}."
      },
      "talentPoint(uint8)": {
        "details": "calculate talent point for each talent"
      },
      "talentPrice(uint8)": {
        "details": "calculate talent price in $REBORN for each talent"
      },
      "tokenURI(uint256)": {
        "details": "See {IERC721Metadata-tokenURI}."
      },
      "transferFrom(address,address,uint256)": {
        "details": "See {IERC721-transferFrom}."
      },
      "transferOwnership(address,bool)": {
        "details": "Transfers ownership of the contract to a new account (`newOwner`). Can only be called by the current owner. Note If direct is false, it will set an pending owner and the OwnerShipTransferring only happens when the pending owner claim the ownership"
      },
      "updateSigners(address[],address[])": {
        "details": "update signer"
      },
      "upgradeTo(address)": {
        "details": "Upgrade the implementation of the proxy to `newImplementation`. Calls {_authorizeUpgrade}. Emits an {Upgraded} event."
      },
      "upgradeToAndCall(address,bytes)": {
        "details": "Upgrade the implementation of the proxy to `newImplementation`, and subsequently execute the function call encoded in `data`. Calls {_authorizeUpgrade}. Emits an {Upgraded} event."
      },
      "withdrawAll()": {
        "details": "withdraw all $REBORN, only called during development"
      }
    },
    "version": 1
  },
  "userdoc": {
    "kind": "user",
    "methods": {
      "incarnate((uint8,uint8))": {
        "notice": "init enter and buy "
      },
      "incarnate((uint8,uint8),uint256,uint256,bytes32,bytes32,uint8)": {
        "notice": "init enter and buy with permit signature "
      },
      "soupPrice()": {
        "notice": "you need buy a soup before reborn "
      }
    },
    "version": 1
  },
  "storageLayout": {
    "storage": [
      {
        "astId": 395,
        "contract": "src/RebornPortal.sol:RebornPortal",
        "label": "_initialized",
        "offset": 0,
        "slot": "0",
        "type": "t_uint8"
      },
      {
        "astId": 398,
        "contract": "src/RebornPortal.sol:RebornPortal",
        "label": "_initializing",
        "offset": 1,
        "slot": "0",
        "type": "t_bool"
      },
      {
        "astId": 3596,
        "contract": "src/RebornPortal.sol:RebornPortal",
        "label": "__gap",
        "offset": 0,
        "slot": "1",
        "type": "t_array(t_uint256)50_storage"
      },
      {
        "astId": 7164,
        "contract": "src/RebornPortal.sol:RebornPortal",
        "label": "_owner",
        "offset": 0,
        "slot": "51",
        "type": "t_address"
      },
      {
        "astId": 7166,
        "contract": "src/RebornPortal.sol:RebornPortal",
        "label": "_pendingOwner",
        "offset": 0,
        "slot": "52",
        "type": "t_address"
      },
      {
        "astId": 7354,
        "contract": "src/RebornPortal.sol:RebornPortal",
        "label": "__gap",
        "offset": 0,
        "slot": "53",
        "type": "t_array(t_uint256)48_storage"
      },
      {
        "astId": 377,
        "contract": "src/RebornPortal.sol:RebornPortal",
        "label": "__gap",
        "offset": 0,
        "slot": "101",
        "type": "t_array(t_uint256)50_storage"
      },
      {
        "astId": 692,
        "contract": "src/RebornPortal.sol:RebornPortal",
        "label": "__gap",
        "offset": 0,
        "slot": "151",
        "type": "t_array(t_uint256)50_storage"
      },
      {
        "astId": 8406,
        "contract": "src/RebornPortal.sol:RebornPortal",
        "label": "soupPrice",
        "offset": 0,
        "slot": "201",
        "type": "t_uint256"
      },
      {
        "astId": 8410,
        "contract": "src/RebornPortal.sol:RebornPortal",
        "label": "_priceAndPoint",
        "offset": 0,
        "slot": "202",
        "type": "t_uint256"
      },
      {
        "astId": 8413,
        "contract": "src/RebornPortal.sol:RebornPortal",
        "label": "rebornToken",
        "offset": 0,
        "slot": "203",
        "type": "t_contract(RBT)7557"
      },
      {
        "astId": 8417,
        "contract": "src/RebornPortal.sol:RebornPortal",
        "label": "signers",
        "offset": 0,
        "slot": "204",
        "type": "t_mapping(t_address,t_bool)"
      },
      {
        "astId": 8421,
        "contract": "src/RebornPortal.sol:RebornPortal",
        "label": "rounds",
        "offset": 0,
        "slot": "205",
        "type": "t_mapping(t_address,t_uint16)"
      },
      {
        "astId": 8426,
        "contract": "src/RebornPortal.sol:RebornPortal",
        "label": "details",
        "offset": 0,
        "slot": "206",
        "type": "t_mapping(t_uint256,t_struct(LifeDetail)8478_storage)"
      },
      {
        "astId": 8431,
        "contract": "src/RebornPortal.sol:RebornPortal",
        "label": "pools",
        "offset": 0,
        "slot": "207",
        "type": "t_mapping(t_uint256,t_struct(Pool)8481_storage)"
      },
      {
        "astId": 8438,
        "contract": "src/RebornPortal.sol:RebornPortal",
        "label": "portfolios",
        "offset": 0,
        "slot": "208",
        "type": "t_mapping(t_address,t_mapping(t_uint256,t_struct(Portfolio)8484_storage))"
      },
      {
        "astId": 8443,
        "contract": "src/RebornPortal.sol:RebornPortal",
        "label": "_gap",
        "offset": 0,
        "slot": "209",
        "type": "t_array(t_uint256)42_storage"
      },
      {
        "astId": 4460,
        "contract": "src/RebornPortal.sol:RebornPortal",
        "label": "__gap",
        "offset": 0,
        "slot": "251",
        "type": "t_array(t_uint256)50_storage"
      },
      {
        "astId": 2169,
        "contract": "src/RebornPortal.sol:RebornPortal",
        "label": "_name",
        "offset": 0,
        "slot": "301",
        "type": "t_string_storage"
      },
      {
        "astId": 2171,
        "contract": "src/RebornPortal.sol:RebornPortal",
        "label": "_symbol",
        "offset": 0,
        "slot": "302",
        "type": "t_string_storage"
      },
      {
        "astId": 2175,
        "contract": "src/RebornPortal.sol:RebornPortal",
        "label": "_owners",
        "offset": 0,
        "slot": "303",
        "type": "t_mapping(t_uint256,t_address)"
      },
      {
        "astId": 2179,
        "contract": "src/RebornPortal.sol:RebornPortal",
        "label": "_balances",
        "offset": 0,
        "slot": "304",
        "type": "t_mapping(t_address,t_uint256)"
      },
      {
        "astId": 2183,
        "contract": "src/RebornPortal.sol:RebornPortal",
        "label": "_tokenApprovals",
        "offset": 0,
        "slot": "305",
        "type": "t_mapping(t_uint256,t_address)"
      },
      {
        "astId": 2189,
        "contract": "src/RebornPortal.sol:RebornPortal",
        "label": "_operatorApprovals",
        "offset": 0,
        "slot": "306",
        "type": "t_mapping(t_address,t_mapping(t_address,t_bool))"
      },
      {
        "astId": 3109,
        "contract": "src/RebornPortal.sol:RebornPortal",
        "label": "__gap",
        "offset": 0,
        "slot": "307",
        "type": "t_array(t_uint256)44_storage"
      },
      {
        "astId": 707,
        "contract": "src/RebornPortal.sol:RebornPortal",
        "label": "_status",
        "offset": 0,
        "slot": "351",
        "type": "t_uint256"
      },
      {
        "astId": 765,
        "contract": "src/RebornPortal.sol:RebornPortal",
        "label": "__gap",
        "offset": 0,
        "slot": "352",
        "type": "t_array(t_uint256)49_storage"
      },
      {
        "astId": 8934,
        "contract": "src/RebornPortal.sol:RebornPortal",
        "label": "scores",
        "offset": 0,
        "slot": "401",
        "type": "t_mapping(t_uint256,t_uint256)"
      },
      {
        "astId": 8936,
        "contract": "src/RebornPortal.sol:RebornPortal",
        "label": "placeholder",
        "offset": 0,
        "slot": "402",
        "type": "t_uint256"
      },
      {
        "astId": 8942,
        "contract": "src/RebornPortal.sol:RebornPortal",
        "label": "idx",
        "offset": 0,
        "slot": "403",
        "type": "t_uint24"
      },
      {
        "astId": 8944,
        "contract": "src/RebornPortal.sol:RebornPortal",
        "label": "minScoreInRank",
        "offset": 0,
        "slot": "404",
        "type": "t_uint256"
      },
      {
        "astId": 8947,
        "contract": "src/RebornPortal.sol:RebornPortal",
        "label": "ranks",
        "offset": 0,
        "slot": "405",
        "type": "t_struct(Array)8658_storage"
      },
      {
        "astId": 8951,
        "contract": "src/RebornPortal.sol:RebornPortal",
        "label": "_gap",
        "offset": 0,
        "slot": "407",
        "type": "t_array(t_uint256)44_storage"
      }
    ],
    "types": {
      "t_address": {
        "encoding": "inplace",
        "label": "address",
        "numberOfBytes": "20"
      },
      "t_array(t_uint256)42_storage": {
        "base": "t_uint256",
        "encoding": "inplace",
        "label": "uint256[42]",
        "numberOfBytes": "1344"
      },
      "t_array(t_uint256)44_storage": {
        "base": "t_uint256",
        "encoding": "inplace",
        "label": "uint256[44]",
        "numberOfBytes": "1408"
      },
      "t_array(t_uint256)48_storage": {
        "base": "t_uint256",
        "encoding": "inplace",
        "label": "uint256[48]",
        "numberOfBytes": "1536"
      },
      "t_array(t_uint256)49_storage": {
        "base": "t_uint256",
        "encoding": "inplace",
        "label": "uint256[49]",
        "numberOfBytes": "1568"
      },
      "t_array(t_uint256)50_storage": {
        "base": "t_uint256",
        "encoding": "inplace",
        "label": "uint256[50]",
        "numberOfBytes": "1600"
      },
      "t_bool": {
        "encoding": "inplace",
        "label": "bool",
        "numberOfBytes": "1"
      },
      "t_bytes32": {
        "encoding": "inplace",
        "label": "bytes32",
        "numberOfBytes": "32"
      },
      "t_bytes_storage": {
        "encoding": "bytes",
        "label": "bytes",
        "numberOfBytes": "32"
      },
      "t_contract(RBT)7557": {
        "encoding": "inplace",
        "label": "contract RBT",
        "numberOfBytes": "20"
      },
      "t_mapping(t_address,t_bool)": {
        "encoding": "mapping",
        "key": "t_address",
        "label": "mapping(address => bool)",
        "numberOfBytes": "32",
        "value": "t_bool"
      },
      "t_mapping(t_address,t_mapping(t_address,t_bool))": {
        "encoding": "mapping",
        "key": "t_address",
        "label": "mapping(address => mapping(address => bool))",
        "numberOfBytes": "32",
        "value": "t_mapping(t_address,t_bool)"
      },
      "t_mapping(t_address,t_mapping(t_uint256,t_struct(Portfolio)8484_storage))": {
        "encoding": "mapping",
        "key": "t_address",
        "label": "mapping(address => mapping(uint256 => struct IRebornDefination.Portfolio))",
        "numberOfBytes": "32",
        "value": "t_mapping(t_uint256,t_struct(Portfolio)8484_storage)"
      },
      "t_mapping(t_address,t_uint16)": {
        "encoding": "mapping",
        "key": "t_address",
        "label": "mapping(address => uint16)",
        "numberOfBytes": "32",
        "value": "t_uint16"
      },
      "t_mapping(t_address,t_uint256)": {
        "encoding": "mapping",
        "key": "t_address",
        "label": "mapping(address => uint256)",
        "numberOfBytes": "32",
        "value": "t_uint256"
      },
      "t_mapping(t_uint256,t_address)": {
        "encoding": "mapping",
        "key": "t_uint256",
        "label": "mapping(uint256 => address)",
        "numberOfBytes": "32",
        "value": "t_address"
      },
      "t_mapping(t_uint256,t_struct(LifeDetail)8478_storage)": {
        "encoding": "mapping",
        "key": "t_uint256",
        "label": "mapping(uint256 => struct IRebornDefination.LifeDetail)",
        "numberOfBytes": "32",
        "value": "t_struct(LifeDetail)8478_storage"
      },
      "t_mapping(t_uint256,t_struct(Pool)8481_storage)": {
        "encoding": "mapping",
        "key": "t_uint256",
        "label": "mapping(uint256 => struct IRebornDefination.Pool)",
        "numberOfBytes": "32",
        "value": "t_struct(Pool)8481_storage"
      },
      "t_mapping(t_uint256,t_struct(Portfolio)8484_storage)": {
        "encoding": "mapping",
        "key": "t_uint256",
        "label": "mapping(uint256 => struct IRebornDefination.Portfolio)",
        "numberOfBytes": "32",
        "value": "t_struct(Portfolio)8484_storage"
      },
      "t_mapping(t_uint256,t_uint256)": {
        "encoding": "mapping",
        "key": "t_uint256",
        "label": "mapping(uint256 => uint256)",
        "numberOfBytes": "32",
        "value": "t_uint256"
      },
      "t_string_storage": {
        "encoding": "bytes",
        "label": "string",
        "numberOfBytes": "32"
      },
      "t_struct(Array)8658_storage": {
        "encoding": "inplace",
        "label": "struct CompactArray.Array",
        "members": [
          {
            "astId": 8655,
            "contract": "src/RebornPortal.sol:RebornPortal",
            "label": "_data",
            "offset": 0,
            "slot": "0",
            "type": "t_bytes_storage"
          },
          {
            "astId": 8657,
            "contract": "src/RebornPortal.sol:RebornPortal",
            "label": "length",
            "offset": 0,
            "slot": "1",
            "type": "t_uint256"
          }
        ],
        "numberOfBytes": "64"
      },
      "t_struct(LifeDetail)8478_storage": {
        "encoding": "inplace",
        "label": "struct IRebornDefination.LifeDetail",
        "members": [
          {
            "astId": 8465,
            "contract": "src/RebornPortal.sol:RebornPortal",
            "label": "seed",
            "offset": 0,
            "slot": "0",
            "type": "t_bytes32"
          },
          {
            "astId": 8467,
            "contract": "src/RebornPortal.sol:RebornPortal",
            "label": "creator",
            "offset": 0,
            "slot": "1",
            "type": "t_address"
          },
          {
            "astId": 8469,
            "contract": "src/RebornPortal.sol:RebornPortal",
            "label": "age",
            "offset": 20,
            "slot": "1",
            "type": "t_uint16"
          },
          {
            "astId": 8471,
            "contract": "src/RebornPortal.sol:RebornPortal",
            "label": "round",
            "offset": 22,
            "slot": "1",
            "type": "t_uint16"
          },
          {
            "astId": 8473,
            "contract": "src/RebornPortal.sol:RebornPortal",
            "label": "nothing",
            "offset": 24,
            "slot": "1",
            "type": "t_uint64"
          },
          {
            "astId": 8475,
            "contract": "src/RebornPortal.sol:RebornPortal",
            "label": "cost",
            "offset": 0,
            "slot": "2",
            "type": "t_uint128"
          },
          {
            "astId": 8477,
            "contract": "src/RebornPortal.sol:RebornPortal",
            "label": "reward",
            "offset": 16,
            "slot": "2",
            "type": "t_uint128"
          }
        ],
        "numberOfBytes": "96"
      },
      "t_struct(Pool)8481_storage": {
        "encoding": "inplace",
        "label": "struct IRebornDefination.Pool",
        "members": [
          {
            "astId": 8480,
            "contract": "src/RebornPortal.sol:RebornPortal",
            "label": "totalAmount",
            "offset": 0,
            "slot": "0",
            "type": "t_uint256"
          }
        ],
        "numberOfBytes": "32"
      },
      "t_struct(Portfolio)8484_storage": {
        "encoding": "inplace",
        "label": "struct IRebornDefination.Portfolio",
        "members": [
          {
            "astId": 8483,
            "contract": "src/RebornPortal.sol:RebornPortal",
            "label": "accumulativeAmount",
            "offset": 0,
            "slot": "0",
            "type": "t_uint256"
          }
        ],
        "numberOfBytes": "32"
      },
      "t_uint128": {
        "encoding": "inplace",
        "label": "uint128",
        "numberOfBytes": "16"
      },
      "t_uint16": {
        "encoding": "inplace",
        "label": "uint16",
        "numberOfBytes": "2"
      },
      "t_uint24": {
        "encoding": "inplace",
        "label": "uint24",
        "numberOfBytes": "3"
      },
      "t_uint256": {
        "encoding": "inplace",
        "label": "uint256",
        "numberOfBytes": "32"
      },
      "t_uint64": {
        "encoding": "inplace",
        "label": "uint64",
        "numberOfBytes": "8"
      },
      "t_uint8": {
        "encoding": "inplace",
        "label": "uint8",
        "numberOfBytes": "1"
      }
    }
  }
}