{
  "address": "0xB5B09DBA3ACeebE37CeC339C937B67b3Eb8e16FD",
  "abi": [
    {
      "inputs": [],
      "name": "InsufficientAmount",
      "type": "error"
    },
    {
      "inputs": [],
      "name": "NotSigner",
      "type": "error"
    },
    {
      "anonymous": false,
      "inputs": [
        {
          "indexed": false,
          "internalType": "address",
          "name": "previousAdmin",
          "type": "address"
        },
        {
          "indexed": false,
          "internalType": "address",
          "name": "newAdmin",
          "type": "address"
        }
      ],
      "name": "AdminChanged",
      "type": "event"
    },
    {
      "anonymous": false,
      "inputs": [
        {
          "indexed": true,
          "internalType": "address",
          "name": "owner",
          "type": "address"
        },
        {
          "indexed": true,
          "internalType": "address",
          "name": "approved",
          "type": "address"
        },
        {
          "indexed": true,
          "internalType": "uint256",
          "name": "tokenId",
          "type": "uint256"
        }
      ],
      "name": "Approval",
      "type": "event"
    },
    {
      "anonymous": false,
      "inputs": [
        {
          "indexed": true,
          "internalType": "address",
          "name": "owner",
          "type": "address"
        },
        {
          "indexed": true,
          "internalType": "address",
          "name": "operator",
          "type": "address"
        },
        {
          "indexed": false,
          "internalType": "bool",
          "name": "approved",
          "type": "bool"
        }
      ],
      "name": "ApprovalForAll",
      "type": "event"
    },
    {
      "anonymous": false,
      "inputs": [
        {
          "indexed": true,
          "internalType": "address",
          "name": "beacon",
          "type": "address"
        }
      ],
      "name": "BeaconUpgraded",
      "type": "event"
    },
    {
      "anonymous": false,
      "inputs": [
        {
          "indexed": false,
          "internalType": "address",
          "name": "user",
          "type": "address"
        },
        {
          "indexed": false,
          "internalType": "uint256",
          "name": "tokenId",
          "type": "uint256"
        },
        {
          "indexed": false,
          "internalType": "uint256",
          "name": "amount",
          "type": "uint256"
        }
      ],
      "name": "Dry",
      "type": "event"
    },
    {
      "anonymous": false,
      "inputs": [
        {
          "indexed": true,
          "internalType": "bytes32",
          "name": "seed",
          "type": "bytes32"
        },
        {
          "indexed": true,
          "internalType": "address",
          "name": "user",
          "type": "address"
        },
        {
          "indexed": true,
          "internalType": "uint256",
          "name": "score",
          "type": "uint256"
        },
        {
          "indexed": false,
          "internalType": "uint256",
          "name": "reward",
          "type": "uint256"
        }
      ],
      "name": "Engrave",
      "type": "event"
    },
    {
      "anonymous": false,
      "inputs": [
        {
          "indexed": true,
          "internalType": "address",
          "name": "user",
          "type": "address"
        },
        {
          "indexed": true,
          "internalType": "uint256",
          "name": "talentPoint",
          "type": "uint256"
        },
        {
          "indexed": true,
          "internalType": "uint256",
          "name": "PropertyPoint",
          "type": "uint256"
        },
        {
          "indexed": false,
          "internalType": "enum IRebornDefination.TALENT",
          "name": "talent",
          "type": "uint8"
        },
        {
          "indexed": false,
          "internalType": "enum IRebornDefination.PROPERTIES",
          "name": "properties",
          "type": "uint8"
        },
        {
          "indexed": false,
          "internalType": "uint256",
          "name": "indulgences",
          "type": "uint256"
        }
      ],
      "name": "Incarnate",
      "type": "event"
    },
    {
      "anonymous": false,
      "inputs": [
        {
          "indexed": false,
          "internalType": "address",
          "name": "user",
          "type": "address"
        },
        {
          "indexed": false,
          "internalType": "uint256",
          "name": "tokenId",
          "type": "uint256"
        },
        {
          "indexed": false,
          "internalType": "uint256",
          "name": "amount",
          "type": "uint256"
        }
      ],
      "name": "Infuse",
      "type": "event"
    },
    {
      "anonymous": false,
      "inputs": [
        {
          "indexed": false,
          "internalType": "uint8",
          "name": "version",
          "type": "uint8"
        }
      ],
      "name": "Initialized",
      "type": "event"
    },
    {
      "anonymous": false,
      "inputs": [
        {
          "indexed": false,
          "internalType": "uint256",
          "name": "price",
          "type": "uint256"
        }
      ],
      "name": "NewPricePoint",
      "type": "event"
    },
    {
      "anonymous": false,
      "inputs": [
        {
          "indexed": false,
          "internalType": "uint256",
          "name": "price",
          "type": "uint256"
        }
      ],
      "name": "NewSoupPrice",
      "type": "event"
    },
    {
      "anonymous": false,
      "inputs": [
        {
          "indexed": true,
          "internalType": "address",
          "name": "previousOwner",
          "type": "address"
        },
        {
          "indexed": true,
          "internalType": "address",
          "name": "newOwner",
          "type": "address"
        }
      ],
      "name": "OwnershipTransferred",
      "type": "event"
    },
    {
      "anonymous": false,
      "inputs": [
        {
          "indexed": false,
          "internalType": "address",
          "name": "signer",
          "type": "address"
        },
        {
          "indexed": false,
          "internalType": "bool",
          "name": "valid",
          "type": "bool"
        }
      ],
      "name": "SignerUpdate",
      "type": "event"
    },
    {
      "anonymous": false,
      "inputs": [
        {
          "indexed": true,
          "internalType": "address",
          "name": "from",
          "type": "address"
        },
        {
          "indexed": true,
          "internalType": "address",
          "name": "to",
          "type": "address"
        },
        {
          "indexed": true,
          "internalType": "uint256",
          "name": "tokenId",
          "type": "uint256"
        }
      ],
      "name": "Transfer",
      "type": "event"
    },
    {
      "anonymous": false,
      "inputs": [
        {
          "indexed": true,
          "internalType": "address",
          "name": "implementation",
          "type": "address"
        }
      ],
      "name": "Upgraded",
      "type": "event"
    },
    {
      "inputs": [
        {
          "internalType": "address",
          "name": "to",
          "type": "address"
        },
        {
          "internalType": "uint256",
          "name": "tokenId",
          "type": "uint256"
        }
      ],
      "name": "approve",
      "outputs": [],
      "stateMutability": "nonpayable",
      "type": "function"
    },
    {
      "inputs": [
        {
          "internalType": "address",
          "name": "owner",
          "type": "address"
        }
      ],
      "name": "balanceOf",
      "outputs": [
        {
          "internalType": "uint256",
          "name": "",
          "type": "uint256"
        }
      ],
      "stateMutability": "view",
      "type": "function"
    },
    {
      "inputs": [],
      "name": "claimOwnership",
      "outputs": [],
      "stateMutability": "nonpayable",
      "type": "function"
    },
    {
      "inputs": [
        {
          "internalType": "uint256",
          "name": "",
          "type": "uint256"
        }
      ],
      "name": "details",
      "outputs": [
        {
          "internalType": "bytes32",
          "name": "seed",
          "type": "bytes32"
        },
        {
          "internalType": "address",
          "name": "creator",
          "type": "address"
        },
        {
          "internalType": "uint16",
          "name": "age",
          "type": "uint16"
        },
        {
          "internalType": "uint16",
          "name": "round",
          "type": "uint16"
        },
        {
          "internalType": "uint64",
          "name": "nothing",
          "type": "uint64"
        },
        {
          "internalType": "uint128",
          "name": "cost",
          "type": "uint128"
        },
        {
          "internalType": "uint128",
          "name": "reward",
          "type": "uint128"
        }
      ],
      "stateMutability": "view",
      "type": "function"
    },
    {
      "inputs": [
        {
          "internalType": "uint256",
          "name": "tokenId",
          "type": "uint256"
        },
        {
          "internalType": "uint256",
          "name": "amount",
          "type": "uint256"
        }
      ],
      "name": "dry",
      "outputs": [],
      "stateMutability": "nonpayable",
      "type": "function"
    },
    {
      "inputs": [
        {
          "internalType": "bytes32",
          "name": "seed",
          "type": "bytes32"
        },
        {
          "internalType": "address",
          "name": "user",
          "type": "address"
        },
        {
          "internalType": "uint256",
          "name": "reward",
          "type": "uint256"
        },
        {
          "internalType": "uint256",
          "name": "score",
          "type": "uint256"
        },
        {
          "internalType": "uint256",
          "name": "age",
          "type": "uint256"
        },
        {
          "internalType": "uint256",
          "name": "locate",
          "type": "uint256"
        }
      ],
      "name": "engrave",
      "outputs": [],
      "stateMutability": "nonpayable",
      "type": "function"
    },
    {
      "inputs": [
        {
          "internalType": "uint256",
          "name": "value",
          "type": "uint256"
        }
      ],
      "name": "findLocation",
      "outputs": [
        {
          "internalType": "uint256",
          "name": "",
          "type": "uint256"
        }
      ],
      "stateMutability": "nonpayable",
      "type": "function"
    },
    {
      "inputs": [
        {
          "internalType": "uint256",
          "name": "tokenId",
          "type": "uint256"
        }
      ],
      "name": "getApproved",
      "outputs": [
        {
          "internalType": "address",
          "name": "",
          "type": "address"
        }
      ],
      "stateMutability": "view",
      "type": "function"
    },
    {
      "inputs": [
        {
          "internalType": "uint256",
          "name": "tokenId",
          "type": "uint256"
        }
      ],
      "name": "getPool",
      "outputs": [
        {
          "components": [
            {
              "internalType": "uint256",
              "name": "totalAmount",
              "type": "uint256"
            }
          ],
          "internalType": "struct IRebornDefination.Pool",
          "name": "",
          "type": "tuple"
        }
      ],
      "stateMutability": "view",
      "type": "function"
    },
    {
      "inputs": [
        {
          "components": [
            {
              "internalType": "enum IRebornDefination.TALENT",
              "name": "talent",
              "type": "uint8"
            },
            {
              "internalType": "enum IRebornDefination.PROPERTIES",
              "name": "properties",
              "type": "uint8"
            }
          ],
          "internalType": "struct IRebornDefination.Innate",
          "name": "innate",
          "type": "tuple"
        },
        {
          "internalType": "uint256",
          "name": "amount",
          "type": "uint256"
        },
        {
          "internalType": "uint256",
          "name": "deadline",
          "type": "uint256"
        },
        {
          "internalType": "bytes32",
          "name": "r",
          "type": "bytes32"
        },
        {
          "internalType": "bytes32",
          "name": "s",
          "type": "bytes32"
        },
        {
          "internalType": "uint8",
          "name": "v",
          "type": "uint8"
        }
      ],
      "name": "incarnate",
      "outputs": [],
      "stateMutability": "payable",
      "type": "function"
    },
    {
      "inputs": [
        {
          "components": [
            {
              "internalType": "enum IRebornDefination.TALENT",
              "name": "talent",
              "type": "uint8"
            },
            {
              "internalType": "enum IRebornDefination.PROPERTIES",
              "name": "properties",
              "type": "uint8"
            }
          ],
          "internalType": "struct IRebornDefination.Innate",
          "name": "innate",
          "type": "tuple"
        }
      ],
      "name": "incarnate",
      "outputs": [],
      "stateMutability": "payable",
      "type": "function"
    },
    {
      "inputs": [
        {
          "internalType": "uint256",
          "name": "tokenId",
          "type": "uint256"
        },
        {
          "internalType": "uint256",
          "name": "amount",
          "type": "uint256"
        }
      ],
      "name": "infuse",
      "outputs": [],
      "stateMutability": "nonpayable",
      "type": "function"
    },
    {
      "inputs": [
        {
          "internalType": "string",
          "name": "name_",
          "type": "string"
        },
        {
          "internalType": "string",
          "name": "symbol_",
          "type": "string"
        }
      ],
      "name": "initAfterUpgrade",
      "outputs": [],
      "stateMutability": "nonpayable",
      "type": "function"
    },
    {
      "inputs": [
        {
          "internalType": "contract IRebornToken",
          "name": "rebornToken_",
          "type": "address"
        },
        {
          "internalType": "uint256",
          "name": "soupPrice_",
          "type": "uint256"
        },
        {
          "internalType": "uint256",
          "name": "priceAndPoint_",
          "type": "uint256"
        },
        {
          "internalType": "address",
          "name": "owner_",
          "type": "address"
        },
        {
          "internalType": "string",
          "name": "name_",
          "type": "string"
        },
        {
          "internalType": "string",
          "name": "symbol_",
          "type": "string"
        }
      ],
      "name": "initialize",
      "outputs": [],
      "stateMutability": "nonpayable",
      "type": "function"
    },
    {
      "inputs": [
        {
          "internalType": "address",
          "name": "owner",
          "type": "address"
        },
        {
          "internalType": "address",
          "name": "operator",
          "type": "address"
        }
      ],
      "name": "isApprovedForAll",
      "outputs": [
        {
          "internalType": "bool",
          "name": "",
          "type": "bool"
        }
      ],
      "stateMutability": "view",
      "type": "function"
    },
    {
      "inputs": [],
      "name": "minScoreInRank",
      "outputs": [
        {
          "internalType": "uint256",
          "name": "",
          "type": "uint256"
        }
      ],
      "stateMutability": "view",
      "type": "function"
    },
    {
      "inputs": [],
      "name": "name",
      "outputs": [
        {
          "internalType": "string",
          "name": "",
          "type": "string"
        }
      ],
      "stateMutability": "view",
      "type": "function"
    },
    {
      "inputs": [],
      "name": "owner",
      "outputs": [
        {
          "internalType": "address",
          "name": "",
          "type": "address"
        }
      ],
      "stateMutability": "view",
      "type": "function"
    },
    {
      "inputs": [
        {
          "internalType": "uint256",
          "name": "tokenId",
          "type": "uint256"
        }
      ],
      "name": "ownerOf",
      "outputs": [
        {
          "internalType": "address",
          "name": "",
          "type": "address"
        }
      ],
      "stateMutability": "view",
      "type": "function"
    },
    {
      "inputs": [],
      "name": "pendingOwner",
      "outputs": [
        {
          "internalType": "address",
          "name": "",
          "type": "address"
        }
      ],
      "stateMutability": "view",
      "type": "function"
    },
    {
      "inputs": [
        {
          "internalType": "uint256",
          "name": "",
          "type": "uint256"
        }
      ],
      "name": "pools",
      "outputs": [
        {
          "internalType": "uint256",
          "name": "totalAmount",
          "type": "uint256"
        }
      ],
      "stateMutability": "view",
      "type": "function"
    },
    {
      "inputs": [
        {
          "internalType": "address",
          "name": "",
          "type": "address"
        },
        {
          "internalType": "uint256",
          "name": "",
          "type": "uint256"
        }
      ],
      "name": "portfolios",
      "outputs": [
        {
          "internalType": "uint256",
          "name": "accumulativeAmount",
          "type": "uint256"
        }
      ],
      "stateMutability": "view",
      "type": "function"
    },
    {
      "inputs": [
        {
          "internalType": "enum IRebornDefination.PROPERTIES",
          "name": "properties",
          "type": "uint8"
        }
      ],
      "name": "propertyPoint",
      "outputs": [
        {
          "internalType": "uint256",
          "name": "",
          "type": "uint256"
        }
      ],
      "stateMutability": "view",
      "type": "function"
    },
    {
      "inputs": [
        {
          "internalType": "enum IRebornDefination.PROPERTIES",
          "name": "properties",
          "type": "uint8"
        }
      ],
      "name": "propertyPrice",
      "outputs": [
        {
          "internalType": "uint256",
          "name": "",
          "type": "uint256"
        }
      ],
      "stateMutability": "view",
      "type": "function"
    },
    {
      "inputs": [],
      "name": "proxiableUUID",
      "outputs": [
        {
          "internalType": "bytes32",
          "name": "",
          "type": "bytes32"
        }
      ],
      "stateMutability": "view",
      "type": "function"
    },
    {
      "inputs": [],
      "name": "ranks",
      "outputs": [
        {
          "internalType": "bytes",
          "name": "_data",
          "type": "bytes"
        },
        {
          "internalType": "uint256",
          "name": "length",
          "type": "uint256"
        }
      ],
      "stateMutability": "view",
      "type": "function"
    },
    {
      "inputs": [],
      "name": "readRank",
      "outputs": [
        {
          "internalType": "uint24[]",
          "name": "rank",
          "type": "uint24[]"
        }
      ],
      "stateMutability": "nonpayable",
      "type": "function"
    },
    {
      "inputs": [],
      "name": "rebornToken",
      "outputs": [
        {
          "internalType": "contract IRebornToken",
          "name": "",
          "type": "address"
        }
      ],
      "stateMutability": "view",
      "type": "function"
    },
    {
      "inputs": [],
      "name": "renounceOwnership",
      "outputs": [],
      "stateMutability": "nonpayable",
      "type": "function"
    },
    {
      "inputs": [
        {
          "internalType": "address",
          "name": "",
          "type": "address"
        }
      ],
      "name": "rounds",
      "outputs": [
        {
          "internalType": "uint16",
          "name": "",
          "type": "uint16"
        }
      ],
      "stateMutability": "view",
      "type": "function"
    },
    {
      "inputs": [
        {
          "internalType": "address",
          "name": "from",
          "type": "address"
        },
        {
          "internalType": "address",
          "name": "to",
          "type": "address"
        },
        {
          "internalType": "uint256",
          "name": "tokenId",
          "type": "uint256"
        }
      ],
      "name": "safeTransferFrom",
      "outputs": [],
      "stateMutability": "nonpayable",
      "type": "function"
    },
    {
      "inputs": [
        {
          "internalType": "address",
          "name": "from",
          "type": "address"
        },
        {
          "internalType": "address",
          "name": "to",
          "type": "address"
        },
        {
          "internalType": "uint256",
          "name": "tokenId",
          "type": "uint256"
        },
        {
          "internalType": "bytes",
          "name": "data",
          "type": "bytes"
        }
      ],
      "name": "safeTransferFrom",
      "outputs": [],
      "stateMutability": "nonpayable",
      "type": "function"
    },
    {
      "inputs": [
        {
          "internalType": "address",
          "name": "operator",
          "type": "address"
        },
        {
          "internalType": "bool",
          "name": "approved",
          "type": "bool"
        }
      ],
      "name": "setApprovalForAll",
      "outputs": [],
      "stateMutability": "nonpayable",
      "type": "function"
    },
    {
      "inputs": [
        {
          "internalType": "uint256",
          "name": "pricePoint",
          "type": "uint256"
        }
      ],
      "name": "setPriceAndPoint",
      "outputs": [],
      "stateMutability": "nonpayable",
      "type": "function"
    },
    {
      "inputs": [
        {
          "internalType": "uint256",
          "name": "price",
          "type": "uint256"
        }
      ],
      "name": "setSoupPrice",
      "outputs": [],
      "stateMutability": "nonpayable",
      "type": "function"
    },
    {
      "inputs": [
        {
          "internalType": "address",
          "name": "",
          "type": "address"
        }
      ],
      "name": "signers",
      "outputs": [
        {
          "internalType": "bool",
          "name": "",
          "type": "bool"
        }
      ],
      "stateMutability": "view",
      "type": "function"
    },
    {
      "inputs": [],
      "name": "soupPrice",
      "outputs": [
        {
          "internalType": "uint256",
          "name": "",
          "type": "uint256"
        }
      ],
      "stateMutability": "view",
      "type": "function"
    },
    {
      "inputs": [
        {
          "internalType": "bytes4",
          "name": "interfaceId",
          "type": "bytes4"
        }
      ],
      "name": "supportsInterface",
      "outputs": [
        {
          "internalType": "bool",
          "name": "",
          "type": "bool"
        }
      ],
      "stateMutability": "view",
      "type": "function"
    },
    {
      "inputs": [],
      "name": "symbol",
      "outputs": [
        {
          "internalType": "string",
          "name": "",
          "type": "string"
        }
      ],
      "stateMutability": "view",
      "type": "function"
    },
    {
      "inputs": [
        {
          "internalType": "enum IRebornDefination.TALENT",
          "name": "talent",
          "type": "uint8"
        }
      ],
      "name": "talentPoint",
      "outputs": [
        {
          "internalType": "uint256",
          "name": "",
          "type": "uint256"
        }
      ],
      "stateMutability": "view",
      "type": "function"
    },
    {
      "inputs": [
        {
          "internalType": "enum IRebornDefination.TALENT",
          "name": "talent",
          "type": "uint8"
        }
      ],
      "name": "talentPrice",
      "outputs": [
        {
          "internalType": "uint256",
          "name": "",
          "type": "uint256"
        }
      ],
      "stateMutability": "view",
      "type": "function"
    },
    {
      "inputs": [
        {
          "internalType": "uint256",
          "name": "tokenId",
          "type": "uint256"
        }
      ],
      "name": "tokenURI",
      "outputs": [
        {
          "internalType": "string",
          "name": "",
          "type": "string"
        }
      ],
      "stateMutability": "view",
      "type": "function"
    },
    {
      "inputs": [
        {
          "internalType": "address",
          "name": "from",
          "type": "address"
        },
        {
          "internalType": "address",
          "name": "to",
          "type": "address"
        },
        {
          "internalType": "uint256",
          "name": "tokenId",
          "type": "uint256"
        }
      ],
      "name": "transferFrom",
      "outputs": [],
      "stateMutability": "nonpayable",
      "type": "function"
    },
    {
      "inputs": [
        {
          "internalType": "address",
          "name": "newOwner",
          "type": "address"
        },
        {
          "internalType": "bool",
          "name": "direct",
          "type": "bool"
        }
      ],
      "name": "transferOwnership",
      "outputs": [],
      "stateMutability": "nonpayable",
      "type": "function"
    },
    {
      "inputs": [
        {
          "internalType": "address[]",
          "name": "toAdd",
          "type": "address[]"
        },
        {
          "internalType": "address[]",
          "name": "toRemove",
          "type": "address[]"
        }
      ],
      "name": "updateSigners",
      "outputs": [],
      "stateMutability": "nonpayable",
      "type": "function"
    },
    {
      "inputs": [
        {
          "internalType": "address",
          "name": "newImplementation",
          "type": "address"
        }
      ],
      "name": "upgradeTo",
      "outputs": [],
      "stateMutability": "nonpayable",
      "type": "function"
    },
    {
      "inputs": [
        {
          "internalType": "address",
          "name": "newImplementation",
          "type": "address"
        },
        {
          "internalType": "bytes",
          "name": "data",
          "type": "bytes"
        }
      ],
      "name": "upgradeToAndCall",
      "outputs": [],
      "stateMutability": "payable",
      "type": "function"
    }
  ],
  "transactionHash": "0x7906d16d335983651ed4ad5b1b152414d130b4fd7b13ec8524cf59fbad881b21",
  "args": [],
  "numDeployments": 19,
  "solcInputHash": "73c3f893a7fedea903dbdfdf718aa98d",
  "bytecode": "0x60a060405230608052662386f26fc1000060c9557a04020000000000000504030000000604020100000000231e19140f60ca5534801561003e57600080fd5b50608051614a22610076600039600081816114bb01528181611551015281816116d70152818161176d01526118640152614a226000f3fe6080604052600436106103085760003560e01c8063715018a61161019a578063b242e534116100e1578063dbcd0a581161008a578063e4e3b32b11610064578063e4e3b32b14610a0b578063e985e9c514610a2b578063f11925d714610a7557600080fd5b8063dbcd0a58146109ba578063e30c3978146109cd578063e4421be2146109eb57600080fd5b8063c208d41a116100bb578063c208d41a14610961578063c546286514610978578063c87b56dd1461099a57600080fd5b8063b242e534146108e9578063b470a9b514610909578063b88d4fde1461094157600080fd5b8063869bdf6711610143578063a005ec7a1161011d578063a005ec7a14610764578063a22cb4651461089c578063ac4afa38146108bc57600080fd5b8063869bdf671461071e5780638da5cb5b1461073157806395d89b411461074f57600080fd5b80637cad554d116101745780637cad554d146106be57806380619b61146106de578063829a1d09146106fe57600080fd5b8063715018a614610656578063736c0d5b1461066b5780637447aa081461069b57600080fd5b8063314b8dbd1161025e57806352d1902d116102075780636352211e116101e15780636352211e14610600578063670506e91461062057806370a082311461063657600080fd5b806352d1902d1461058757806356fc2fa61461059c57806360b127eb146105bc57600080fd5b806342842e0e1161023857806342842e0e1461053f5780634e71e0c81461055f5780634f1ef2861461057457600080fd5b8063314b8dbd146104df578063350b2369146104ff5780633659cfe61461051f57600080fd5b80630aeb55c8116102c057806318ac12541161029a57806318ac1254146104715780631dae24361461049f57806323b872dd146104bf57600080fd5b80630aeb55c81461041157806316a065c614610431578063171d49521461045157600080fd5b806306fdde03116102f157806306fdde0314610395578063081812fc146103b7578063095ea7b3146103ef57600080fd5b806301ffc9a71461030d578063068bcd8d14610342575b600080fd5b34801561031957600080fd5b5061032d610328366004613d9b565b610a95565b60405190151581526020015b60405180910390f35b34801561034e57600080fd5b5061038661035d366004613db8565b604080516020808201835260009182905292815260cf8352819020815192830190915254815290565b60405190518152602001610339565b3480156103a157600080fd5b506103aa610b7a565b6040516103399190613e21565b3480156103c357600080fd5b506103d76103d2366004613db8565b610c0d565b6040516001600160a01b039091168152602001610339565b3480156103fb57600080fd5b5061040f61040a366004613e49565b610c35565b005b34801561041d57600080fd5b5061040f61042c366004613e75565b610d8a565b34801561043d57600080fd5b5060cb546103d7906001600160a01b031681565b34801561045d57600080fd5b5061040f61046c366004613f8a565b61109a565b34801561047d57600080fd5b5061049161048c366004614002565b611112565b604051908152602001610339565b3480156104ab57600080fd5b5061040f6104ba366004613db8565b611153565b3480156104cb57600080fd5b5061040f6104da36600461401d565b6111e9565b3480156104eb57600080fd5b506104916104fa366004614002565b611270565b34801561050b57600080fd5b5061040f61051a3660046140aa565b6112a2565b34801561052b57600080fd5b5061040f61053a366004614116565b6114b1565b34801561054b57600080fd5b5061040f61055a36600461401d565b61164e565b34801561056b57600080fd5b5061040f611669565b61040f610582366004614133565b6116cd565b34801561059357600080fd5b50610491611857565b3480156105a857600080fd5b506104916105b7366004614188565b61191c565b3480156105c857600080fd5b506105ed6105d7366004614116565b60cd6020526000908152604090205461ffff1681565b60405161ffff9091168152602001610339565b34801561060c57600080fd5b506103d761061b366004613db8565b61195d565b34801561062c57600080fd5b5061049160c95481565b34801561064257600080fd5b50610491610651366004614116565b6119c3565b34801561066257600080fd5b5061040f611a5e565b34801561067757600080fd5b5061032d610686366004614116565b60cc6020526000908152604090205460ff1681565b3480156106a757600080fd5b506106b0611ac2565b6040516103399291906141a3565b3480156106ca57600080fd5b506104916106d9366004614188565b611b5b565b3480156106ea57600080fd5b5061040f6106f93660046141c5565b611b8a565b34801561070a57600080fd5b5061040f610719366004614260565b611cfd565b61040f61072c3660046142e0565b611e2e565b34801561073d57600080fd5b506033546001600160a01b03166103d7565b34801561075b57600080fd5b506103aa611e4c565b34801561077057600080fd5b5061083961077f366004613db8565b60ce6020526000908152604090208054600182015460029092015490916001600160a01b0381169174010000000000000000000000000000000000000000820461ffff90811692760100000000000000000000000000000000000000000000810490911691780100000000000000000000000000000000000000000000000090910467ffffffffffffffff16906fffffffffffffffffffffffffffffffff8082169170010000000000000000000000000000000090041687565b604080519788526001600160a01b03909616602088015261ffff9485169587019590955292909116606085015267ffffffffffffffff1660808401526fffffffffffffffffffffffffffffffff90811660a08401521660c082015260e001610339565b3480156108a857600080fd5b5061040f6108b7366004614351565b611e5c565b3480156108c857600080fd5b506104916108d7366004613db8565b60cf6020526000908152604090205481565b3480156108f557600080fd5b5061040f610904366004614351565b611e67565b34801561091557600080fd5b50610491610924366004613e49565b60d060209081526000928352604080842090915290825290205481565b34801561094d57600080fd5b5061040f61095c36600461438a565b611f52565b34801561096d57600080fd5b506104916101955481565b34801561098457600080fd5b5061098d611fe0565b60405161033991906143f6565b3480156109a657600080fd5b506103aa6109b5366004613db8565b612099565b61040f6109c836600461443f565b612253565b3480156109d957600080fd5b506034546001600160a01b03166103d7565b3480156109f757600080fd5b5061040f610a06366004614260565b61225c565b348015610a1757600080fd5b50610491610a26366004613db8565b612392565b348015610a3757600080fd5b5061032d610a4636600461445b565b6001600160a01b0391821660009081526101326020908152604080832093909416825291909152205460ff1690565b348015610a8157600080fd5b5061040f610a90366004613db8565b61242d565b60007fffffffff0000000000000000000000000000000000000000000000000000000082167f80ac58cd000000000000000000000000000000000000000000000000000000001480610b2857507fffffffff0000000000000000000000000000000000000000000000000000000082167f5b5e139f00000000000000000000000000000000000000000000000000000000145b80610b7457507f01ffc9a7000000000000000000000000000000000000000000000000000000007fffffffff000000000000000000000000000000000000000000000000000000008316145b92915050565b606061012d8054610b8a90614489565b80601f0160208091040260200160405190810160405280929190818152602001828054610bb690614489565b8015610c035780601f10610bd857610100808354040283529160200191610c03565b820191906000526020600020905b815481529060010190602001808311610be657829003601f168201915b5050505050905090565b6000610c18826124bc565b50600090815261013160205260409020546001600160a01b031690565b6000610c408261195d565b9050806001600160a01b0316836001600160a01b031603610cce5760405162461bcd60e51b815260206004820152602160248201527f4552433732313a20617070726f76616c20746f2063757272656e74206f776e6560448201527f720000000000000000000000000000000000000000000000000000000000000060648201526084015b60405180910390fd5b336001600160a01b0382161480610d0957506001600160a01b03811660009081526101326020908152604080832033845290915290205460ff165b610d7b5760405162461bcd60e51b815260206004820152603d60248201527f4552433732313a20617070726f76652063616c6c6572206973206e6f7420746f60448201527f6b656e206f776e6572206f7220617070726f76656420666f7220616c6c0000006064820152608401610cc5565b610d858383612521565b505050565b33600090815260cc602052604090205460ff16610dd3576040517fa1b035c800000000000000000000000000000000000000000000000000000000815260040160405180910390fd5b6000610ddf848361259d565b6040805160e0810182528981526001600160a01b0389166020808301829052600091825260cd90528281208054949550919392840192610e229061ffff166144d3565b825461ffff9182166101009390930a83810290830219909116179092558252851660208201526000604082018190526060820152608001610e6b670de0b6b3a7640000886144f4565b6fffffffffffffffffffffffffffffffff908116909152600083815260ce60209081526040918290208451815590840151600182018054938601516060870151608088015167ffffffffffffffff1678010000000000000000000000000000000000000000000000000277ffffffffffffffffffffffffffffffffffffffffffffffff61ffff928316760100000000000000000000000000000000000000000000021675ffffffffffffffffffffffffffffffffffffffffffff9290931674010000000000000000000000000000000000000000027fffffffffffffffffffff000000000000000000000000000000000000000000009097166001600160a01b03909516949094179590951794909416939093171790915560a083015160c0909301518216700100000000000000000000000000000000029290911691909117600290910155610fbb86826125fc565b60cb546040517fa9059cbb0000000000000000000000000000000000000000000000000000000081526001600160a01b038881166004830152602482018890529091169063a9059cbb906044016020604051808303816000875af1158015611027573d6000803e3d6000fd5b505050506040513d601f19601f8201168201806040525081019061104b9190614516565b5083866001600160a01b0316887fe3d421e89b78924d008f87c647b3ed6e46bc1929a14d3b2f0a1d04d5fe3e15bd8860405161108991815260200190565b60405180910390a450505050505050565b6033546001600160a01b031633146110f45760405162461bcd60e51b815260206004820152601d60248201527f536166654f776e61626c653a2063616c6c6572206e6f74206f776e65720000006044820152606401610cc5565b6110fe8282612616565b61110661268b565b61110e6126fe565b5050565b600081600281111561112657611126614533565b611131906008614549565b60ff1660c060ca54901c901c60ff16670de0b6b3a7640000610b74919061456c565b6033546001600160a01b031633146111ad5760405162461bcd60e51b815260206004820152601d60248201527f536166654f776e61626c653a2063616c6c6572206e6f74206f776e65720000006044820152606401610cc5565b60ca8190556040518181527fbf50be4abd4aca220cd35d4969b029104c5ff54c7d5f9f2e9a7b97d1ea5ef13e906020015b60405180910390a150565b6111f33382612776565b6112655760405162461bcd60e51b815260206004820152602d60248201527f4552433732313a2063616c6c6572206973206e6f7420746f6b656e206f776e6560448201527f72206f7220617070726f766564000000000000000000000000000000000000006064820152608401610cc5565b610d858383836127f5565b600081600281111561128457611284614533565b61128f906008614549565b60ca5460801c60ff9182161c1692915050565b6033546001600160a01b031633146112fc5760405162461bcd60e51b815260206004820152601d60248201527f536166654f776e61626c653a2063616c6c6572206e6f74206f776e65720000006044820152606401610cc5565b60005b838110156113d757600160cc600087878581811061131f5761131f614583565b90506020020160208101906113349190614116565b6001600160a01b031681526020810191909152604001600020805460ff19169115159190911790557fc648f6265408cc54c0dc26d24ba51dfc9f35ce1a63baa2228f65d93aaf11cc6785858381811061138f5761138f614583565b90506020020160208101906113a49190614116565b604080516001600160a01b039092168252600060208301520160405180910390a1806113cf81614599565b9150506112ff565b5060005b818110156114aa5760cc60008484848181106113f9576113f9614583565b905060200201602081019061140e9190614116565b6001600160a01b031681526020810191909152604001600020805460ff191690557fc648f6265408cc54c0dc26d24ba51dfc9f35ce1a63baa2228f65d93aaf11cc6783838381811061146257611462614583565b90506020020160208101906114779190614116565b604080516001600160a01b039092168252600160208301520160405180910390a1806114a281614599565b9150506113db565b5050505050565b6001600160a01b037f000000000000000000000000000000000000000000000000000000000000000016300361154f5760405162461bcd60e51b815260206004820152602c60248201527f46756e6374696f6e206d7573742062652063616c6c6564207468726f7567682060448201527f64656c656761746563616c6c00000000000000000000000000000000000000006064820152608401610cc5565b7f00000000000000000000000000000000000000000000000000000000000000006001600160a01b03166115aa7f360894a13ba1a3210667c828492db98dca3e2076cc3735a920a3ca505d382bbc546001600160a01b031690565b6001600160a01b0316146116265760405162461bcd60e51b815260206004820152602c60248201527f46756e6374696f6e206d7573742062652063616c6c6564207468726f7567682060448201527f6163746976652070726f787900000000000000000000000000000000000000006064820152608401610cc5565b61162f81612a3b565b6040805160008082526020820190925261164b91839190612a95565b50565b610d8583838360405180602001604052806000815250611f52565b6034546001600160a01b031633146116c35760405162461bcd60e51b815260206004820152601e60248201527f536166654f776e61626c653a2063616c6c657220213d2070656e64696e6700006044820152606401610cc5565b6116cb612c35565b565b6001600160a01b037f000000000000000000000000000000000000000000000000000000000000000016300361176b5760405162461bcd60e51b815260206004820152602c60248201527f46756e6374696f6e206d7573742062652063616c6c6564207468726f7567682060448201527f64656c656761746563616c6c00000000000000000000000000000000000000006064820152608401610cc5565b7f00000000000000000000000000000000000000000000000000000000000000006001600160a01b03166117c67f360894a13ba1a3210667c828492db98dca3e2076cc3735a920a3ca505d382bbc546001600160a01b031690565b6001600160a01b0316146118425760405162461bcd60e51b815260206004820152602c60248201527f46756e6374696f6e206d7573742062652063616c6c6564207468726f7567682060448201527f6163746976652070726f787900000000000000000000000000000000000000006064820152608401610cc5565b61184b82612a3b565b61110e82826001612a95565b6000306001600160a01b037f000000000000000000000000000000000000000000000000000000000000000016146118f75760405162461bcd60e51b815260206004820152603860248201527f555550535570677261646561626c653a206d757374206e6f742062652063616c60448201527f6c6564207468726f7567682064656c656761746563616c6c00000000000000006064820152608401610cc5565b507f360894a13ba1a3210667c828492db98dca3e2076cc3735a920a3ca505d382bbc90565b600081600481111561193057611930614533565b61193b906008614549565b60ff16604060ca54901c901c60ff16670de0b6b3a7640000610b74919061456c565b600081815261012f60205260408120546001600160a01b031680610b745760405162461bcd60e51b815260206004820152601860248201527f4552433732313a20696e76616c696420746f6b656e20494400000000000000006044820152606401610cc5565b60006001600160a01b038216611a415760405162461bcd60e51b815260206004820152602960248201527f4552433732313a2061646472657373207a65726f206973206e6f74206120766160448201527f6c6964206f776e657200000000000000000000000000000000000000000000006064820152608401610cc5565b506001600160a01b03166000908152610130602052604090205490565b6033546001600160a01b03163314611ab85760405162461bcd60e51b815260206004820152601d60248201527f536166654f776e61626c653a2063616c6c6572206e6f74206f776e65720000006044820152606401610cc5565b6116cb6000612cab565b61019280548190611ad290614489565b80601f0160208091040260200160405190810160405280929190818152602001828054611afe90614489565b8015611b4b5780601f10611b2057610100808354040283529160200191611b4b565b820191906000526020600020905b815481529060010190602001808311611b2e57829003601f168201915b5050505050908060010154905082565b6000816004811115611b6f57611b6f614533565b611b7a906008614549565b60ca5460ff9182161c1692915050565b600054610100900460ff1615808015611baa5750600054600160ff909116105b80611bc45750303b158015611bc4575060005460ff166001145b611c365760405162461bcd60e51b815260206004820152602e60248201527f496e697469616c697a61626c653a20636f6e747261637420697320616c72656160448201527f647920696e697469616c697a65640000000000000000000000000000000000006064820152608401610cc5565b6000805460ff191660011790558015611c59576000805461ff0019166101001790555b60cb805473ffffffffffffffffffffffffffffffffffffffff19166001600160a01b03891617905560c986905560ca859055611c9484612d2e565b611c9e8383612616565b611ca661268b565b611cae6126fe565b8015611cf4576000805461ff0019169055604051600181527f7f26b83ff96e1f2b6a682f133852f6798a09c465da95921460cefb38474024989060200160405180910390a15b50505050505050565b600082815260cf60205260408120805490918391839190611d1f9084906145b3565b909155505033600090815260d0602090815260408083208684529091528120805490918491839190611d529084906145b3565b909155505060cb546040517fa9059cbb000000000000000000000000000000000000000000000000000000008152336004820152602481018590526001600160a01b039091169063a9059cbb906044016020604051808303816000875af1158015611dc1573d6000803e3d6000fd5b505050506040513d601f19601f82011682018060405250810190611de59190614516565b5060408051338152602081018690529081018490527f5c09e6483f1552208cf891fa28d135269484ad74a848ad491913fb4b386ffcf0906060015b60405180910390a150505050565b611e3b8585858585612da2565b611e4486612e4a565b505050505050565b606061012e8054610b8a90614489565b61110e338383612fd9565b6033546001600160a01b03163314611ec15760405162461bcd60e51b815260206004820152601d60248201527f536166654f776e61626c653a2063616c6c6572206e6f74206f776e65720000006044820152606401610cc5565b6001600160a01b038216611f175760405162461bcd60e51b815260206004820152601b60248201527f536166654f776e61626c653a206e6577206f776e6572206973203000000000006044820152606401610cc5565b8015611f265761110e82612cab565b6034805473ffffffffffffffffffffffffffffffffffffffff19166001600160a01b0384161790555050565b611f5c3383612776565b611fce5760405162461bcd60e51b815260206004820152602d60248201527f4552433732313a2063616c6c6572206973206e6f7420746f6b656e206f776e6560448201527f72206f7220617070726f766564000000000000000000000000000000000000006064820152608401610cc5565b611fda848484846130a8565b50505050565b606061209461019260405180604001604052908160008201805461200390614489565b80601f016020809104026020016040519081016040528092919081815260200182805461202f90614489565b801561207c5780601f106120515761010080835404028352916020019161207c565b820191906000526020600020905b81548152906001019060200180831161205f57829003601f168201915b50505050508152602001600182015481525050613131565b905090565b60606120a4826124bc565b610b746120af610b7a565b6000848152610191602090815260408083205460ce90925291829020600181015460029091015492517fa48f184a00000000000000000000000000000000000000000000000000000000815260e060048083019190915260e48201527f7365656400000000000000000000000000000000000000000000000000000000610104820152602481019290925261ffff7601000000000000000000000000000000000000000000008204811660448401527401000000000000000000000000000000000000000082041660648301526001600160a01b031660848201526fffffffffffffffffffffffffffffffff80831660a483015270010000000000000000000000000000000090920490911660c482015261222e90736Cc913AC77db058d9EE752Ad3450A0516b8356329063a48f184a9061012401600060405180830381865af4158015612201573d6000803e3d6000fd5b505050506040513d6000823e601f3d908101601f1916820160405261222991908101906145c6565b6131e5565b60405160200161223f929190614634565b6040516020818303038152906040526131e5565b61164b81612e4a565b612265826124bc565b60cb546040517f23b872dd000000000000000000000000000000000000000000000000000000008152336004820152306024820152604481018390526001600160a01b03909116906323b872dd906064016020604051808303816000875af11580156122d5573d6000803e3d6000fd5b505050506040513d601f19601f820116820180604052508101906122f99190614516565b50600082815260cf6020526040812080549091839183919061231c90849061472b565b909155505033600090815260d060209081526040808320868452909152812080549091849183919061234f90849061472b565b909155505060408051338152602081018690529081018490527f58c7b3bf0b0e168048426c1e9443a72696526292ca664e18b11f934cd6cfbbf390606001611e20565b6000806123b661019260405180604001604052908160008201805461200390614489565b905060005b6064811015612423578361019160008484815181106123dc576123dc614583565b602002602001015162ffffff1681526020019081526020016000205410156124115761240981600161472b565b949350505050565b8061241b81614599565b9150506123bb565b5060009392505050565b6033546001600160a01b031633146124875760405162461bcd60e51b815260206004820152601d60248201527f536166654f776e61626c653a2063616c6c6572206e6f74206f776e65720000006044820152606401610cc5565b60c98190556040518181527fae0c05ecd507ea9cded837adb5c433fa5e8c24ef117806d7050ec4432a743f1d906020016111de565b600081815261012f60205260409020546001600160a01b031661164b5760405162461bcd60e51b815260206004820152601860248201527f4552433732313a20696e76616c696420746f6b656e20494400000000000000006044820152606401610cc5565b600081815261013160205260409020805473ffffffffffffffffffffffffffffffffffffffff19166001600160a01b03841690811790915581906125648261195d565b6001600160a01b03167f8c5be1e5ebec7d5bd14f71427d1e84f3dd0314c0f7b2291e5b200ac8c7c3b92560405160405180910390a45050565b6101948054600091849161019191849182906125bd9062ffffff1661473e565b825462ffffff9182166101009390930a838102908302199091161790925582526020820192909252604001600020919091556101945416905092915050565b61110e828260405180602001604052806000815250613338565b600054610100900460ff166126815760405162461bcd60e51b815260206004820152602b60248201527f496e697469616c697a61626c653a20636f6e7472616374206973206e6f74206960448201526a6e697469616c697a696e6760a81b6064820152608401610cc5565b61110e82826133c1565b600054610100900460ff166126f65760405162461bcd60e51b815260206004820152602b60248201527f496e697469616c697a61626c653a20636f6e7472616374206973206e6f74206960448201526a6e697469616c697a696e6760a81b6064820152608401610cc5565b6116cb613447565b600054610100900460ff166127695760405162461bcd60e51b815260206004820152602b60248201527f496e697469616c697a61626c653a20636f6e7472616374206973206e6f74206960448201526a6e697469616c697a696e6760a81b6064820152608401610cc5565b6116cb61019260646134ba565b6000806127828361195d565b9050806001600160a01b0316846001600160a01b031614806127ca57506001600160a01b038082166000908152610132602090815260408083209388168352929052205460ff165b806124095750836001600160a01b03166127e384610c0d565b6001600160a01b031614949350505050565b826001600160a01b03166128088261195d565b6001600160a01b0316146128845760405162461bcd60e51b815260206004820152602560248201527f4552433732313a207472616e736665722066726f6d20696e636f72726563742060448201527f6f776e65720000000000000000000000000000000000000000000000000000006064820152608401610cc5565b6001600160a01b0382166128ff5760405162461bcd60e51b8152602060048201526024808201527f4552433732313a207472616e7366657220746f20746865207a65726f2061646460448201527f72657373000000000000000000000000000000000000000000000000000000006064820152608401610cc5565b61290c8383836001613518565b826001600160a01b031661291f8261195d565b6001600160a01b03161461299b5760405162461bcd60e51b815260206004820152602560248201527f4552433732313a207472616e736665722066726f6d20696e636f72726563742060448201527f6f776e65720000000000000000000000000000000000000000000000000000006064820152608401610cc5565b600081815261013160209081526040808320805473ffffffffffffffffffffffffffffffffffffffff199081169091556001600160a01b03878116808652610130855283862080546000190190559087168086528386208054600101905586865261012f90945282852080549092168417909155905184937fddf252ad1be2c89b69c2b068fc378daa952ba7f163c4a11628f55a4df523b3ef91a4505050565b6033546001600160a01b0316331461164b5760405162461bcd60e51b815260206004820152601d60248201527f536166654f776e61626c653a2063616c6c6572206e6f74206f776e65720000006044820152606401610cc5565b7f4910fdfa16fed3260ed0e7147f7cc6da11a60208b5b9406d12a635614ffd91435460ff1615612ac857610d85836135a2565b826001600160a01b03166352d1902d6040518163ffffffff1660e01b8152600401602060405180830381865afa925050508015612b22575060408051601f3d908101601f19168201909252612b1f91810190614756565b60015b612b945760405162461bcd60e51b815260206004820152602e60248201527f45524331393637557067726164653a206e657720696d706c656d656e7461746960448201527f6f6e206973206e6f7420555550530000000000000000000000000000000000006064820152608401610cc5565b7f360894a13ba1a3210667c828492db98dca3e2076cc3735a920a3ca505d382bbc8114612c295760405162461bcd60e51b815260206004820152602960248201527f45524331393637557067726164653a20756e737570706f727465642070726f7860448201527f6961626c655555494400000000000000000000000000000000000000000000006064820152608401610cc5565b50610d8583838361366d565b6033546034546040516001600160a01b03928316929091169082907f8be0079c531659141344cd1fd0a4f28419497f9722a3daafe3b4186f6b6457e090600090a350603480546033805473ffffffffffffffffffffffffffffffffffffffff199081166001600160a01b03841617909155169055565b7fb53127684a568b3173ae13b9f8a6016e243e63b6e8ee1178d6a717850b5d6103819055603380546001600160a01b0380841673ffffffffffffffffffffffffffffffffffffffff19831681179093556040519116919082907f8be0079c531659141344cd1fd0a4f28419497f9722a3daafe3b4186f6b6457e090600090a35050565b600054610100900460ff16612d995760405162461bcd60e51b815260206004820152602b60248201527f496e697469616c697a61626c653a20636f6e7472616374206973206e6f74206960448201526a6e697469616c697a696e6760a81b6064820152608401610cc5565b61164b81613692565b60cb546040517fd505accf000000000000000000000000000000000000000000000000000000008152336004820152306024820152604481018790526064810186905260ff8316608482015260a4810185905260c481018490526001600160a01b039091169063d505accf9060e401600060405180830381600087803b158015612e2b57600080fd5b505af1158015612e3f573d6000803e3d6000fd5b505050505050505050565b60c954341015612e86576040517f5945ea5600000000000000000000000000000000000000000000000000000000815260040160405180910390fd5b60c95433906108fc90612e9990346145b3565b6040518115909202916000818181858888f19350505050158015612ec1573d6000803e3d6000fd5b506000612ed1826020015161191c565b8251612edc90611112565b612ee6919061472b565b60cb546040517f23b872dd000000000000000000000000000000000000000000000000000000008152336004820152306024820152604481018390529192506001600160a01b0316906323b872dd906064016020604051808303816000875af1158015612f57573d6000803e3d6000fd5b505050506040513d601f19601f82011682018060405250810190612f7b9190614516565b50612f898260200151611b5b565b8251612f9490611270565b8351602085015160405133927f87fb928ac5e68966565b76ad225a282c4bdac2194b64d495dfe59b91c963fd3a92612fcd92889061476f565b60405180910390a45050565b816001600160a01b0316836001600160a01b03160361303a5760405162461bcd60e51b815260206004820152601960248201527f4552433732313a20617070726f766520746f2063616c6c6572000000000000006044820152606401610cc5565b6001600160a01b0383811660008181526101326020908152604080832094871680845294825291829020805460ff191686151590811790915591519182527f17307eab39ab6107e8899845ad3d59bd9653f200f220920489ca2b5937696c31910160405180910390a3505050565b6130b38484846127f5565b6130bf84848484613706565b611fda5760405162461bcd60e51b815260206004820152603260248201527f4552433732313a207472616e7366657220746f206e6f6e20455243373231526560448201527f63656976657220696d706c656d656e74657200000000000000000000000000006064820152608401610cc5565b6060816020015167ffffffffffffffff81111561315057613150613ec5565b604051908082528060200260200182016040528015613179578160200160208202803683370190505b50905060005b82602001518163ffffffff1610156131df576131a1838263ffffffff166138a7565b828263ffffffff16815181106131b9576131b9614583565b62ffffff90921660209283029190910190910152806131d7816147a7565b91505061317f565b50919050565b6060815160000361320457505060408051602081019091526000815290565b60006040518060600160405280604081526020016149866040913990506000600384516002613233919061472b565b61323d91906144f4565b61324890600461456c565b67ffffffffffffffff81111561326057613260613ec5565b6040519080825280601f01601f19166020018201604052801561328a576020820181803683370190505b509050600182016020820185865187015b808210156132f6576003820191508151603f8160121c168501518453600184019350603f81600c1c168501518453600184019350603f8160061c168501518453600184019350603f811685015184535060018301925061329b565b505060038651066001811461331257600281146133255761332d565b603d6001830353603d600283035361332d565b603d60018303535b509195945050505050565b61334283836139d0565b61334f6000848484613706565b610d855760405162461bcd60e51b815260206004820152603260248201527f4552433732313a207472616e7366657220746f206e6f6e20455243373231526560448201527f63656976657220696d706c656d656e74657200000000000000000000000000006064820152608401610cc5565b600054610100900460ff1661342c5760405162461bcd60e51b815260206004820152602b60248201527f496e697469616c697a61626c653a20636f6e7472616374206973206e6f74206960448201526a6e697469616c697a696e6760a81b6064820152608401610cc5565b61012d6134398382614806565b5061012e610d858282614806565b600054610100900460ff166134b25760405162461bcd60e51b815260206004820152602b60248201527f496e697469616c697a61626c653a20636f6e7472616374206973206e6f74206960448201526a6e697469616c697a696e6760a81b6064820152608401610cc5565b600161015f55565b6001820181905561350c8167ffffffffffffffff8111156134dd576134dd613ec5565b604051908082528060200260200182016040528015613506578160200160208202803683370190505b50613b7a565b8290610d859082614806565b6001811115611fda576001600160a01b0384161561355f576001600160a01b03841660009081526101306020526040812080548392906135599084906145b3565b90915550505b6001600160a01b03831615611fda576001600160a01b038316600090815261013060205260408120805483929061359790849061472b565b909155505050505050565b6001600160a01b0381163b61361f5760405162461bcd60e51b815260206004820152602d60248201527f455243313936373a206e657720696d706c656d656e746174696f6e206973206e60448201527f6f74206120636f6e7472616374000000000000000000000000000000000000006064820152608401610cc5565b7f360894a13ba1a3210667c828492db98dca3e2076cc3735a920a3ca505d382bbc805473ffffffffffffffffffffffffffffffffffffffff19166001600160a01b0392909216919091179055565b61367683613bd8565b6000825111806136835750805b15610d8557611fda8383613c18565b600054610100900460ff166136fd5760405162461bcd60e51b815260206004820152602b60248201527f496e697469616c697a61626c653a20636f6e7472616374206973206e6f74206960448201526a6e697469616c697a696e6760a81b6064820152608401610cc5565b61164b81612cab565b60006001600160a01b0384163b1561389c576040517f150b7a020000000000000000000000000000000000000000000000000000000081526001600160a01b0385169063150b7a02906137639033908990889088906004016148c6565b6020604051808303816000875af192505050801561379e575060408051601f3d908101601f1916820190925261379b91810190614902565b60015b613851573d8080156137cc576040519150601f19603f3d011682016040523d82523d6000602084013e6137d1565b606091505b5080516000036138495760405162461bcd60e51b815260206004820152603260248201527f4552433732313a207472616e7366657220746f206e6f6e20455243373231526560448201527f63656976657220696d706c656d656e74657200000000000000000000000000006064820152608401610cc5565b805181602001fd5b7fffffffff00000000000000000000000000000000000000000000000000000000167f150b7a0200000000000000000000000000000000000000000000000000000000149050612409565b506001949350505050565b815160009081906138b984600361456c565b815181106138c9576138c9614583565b016020015184517fff000000000000000000000000000000000000000000000000000000000000009091169061390085600361456c565b61390b90600161472b565b8151811061391b5761391b614583565b016020015185517fff000000000000000000000000000000000000000000000000000000000000009091169061395286600361456c565b61395d90600261472b565b8151811061396d5761396d614583565b016020908101516040517fff000000000000000000000000000000000000000000000000000000000000009485169281019290925291831660218201529116602282015260230160408051601f1981840301815291905260030151949350505050565b6001600160a01b038216613a265760405162461bcd60e51b815260206004820181905260248201527f4552433732313a206d696e7420746f20746865207a65726f20616464726573736044820152606401610cc5565b600081815261012f60205260409020546001600160a01b031615613a8c5760405162461bcd60e51b815260206004820152601c60248201527f4552433732313a20746f6b656e20616c7265616479206d696e746564000000006044820152606401610cc5565b613a9a600083836001613518565b600081815261012f60205260409020546001600160a01b031615613b005760405162461bcd60e51b815260206004820152601c60248201527f4552433732313a20746f6b656e20616c7265616479206d696e746564000000006044820152606401610cc5565b6001600160a01b0382166000818152610130602090815260408083208054600101905584835261012f909152808220805473ffffffffffffffffffffffffffffffffffffffff19168417905551839291907fddf252ad1be2c89b69c2b068fc378daa952ba7f163c4a11628f55a4df523b3ef908290a45050565b606060005b82518110156131df5781838281518110613b9b57613b9b614583565b6020026020010151604051602001613bb492919061491f565b60405160208183030381529060405291508080613bd090614599565b915050613b7f565b613be1816135a2565b6040516001600160a01b038216907fbc7cd75a20ee27fd9adebab32041f755214dbc6bffa90cc0225b39da2e5c2d3b90600090a250565b60606001600160a01b0383163b613c975760405162461bcd60e51b815260206004820152602660248201527f416464726573733a2064656c65676174652063616c6c20746f206e6f6e2d636f60448201527f6e747261637400000000000000000000000000000000000000000000000000006064820152608401610cc5565b600080846001600160a01b031684604051613cb29190614969565b600060405180830381855af49150503d8060008114613ced576040519150601f19603f3d011682016040523d82523d6000602084013e613cf2565b606091505b5091509150613d1a82826040518060600160405280602781526020016149c660279139613d23565b95945050505050565b60608315613d32575081613d3c565b613d3c8383613d43565b9392505050565b815115613d535781518083602001fd5b8060405162461bcd60e51b8152600401610cc59190613e21565b7fffffffff000000000000000000000000000000000000000000000000000000008116811461164b57600080fd5b600060208284031215613dad57600080fd5b8135613d3c81613d6d565b600060208284031215613dca57600080fd5b5035919050565b60005b83811015613dec578181015183820152602001613dd4565b50506000910152565b60008151808452613e0d816020860160208601613dd1565b601f01601f19169290920160200192915050565b602081526000613d3c6020830184613df5565b6001600160a01b038116811461164b57600080fd5b60008060408385031215613e5c57600080fd5b8235613e6781613e34565b946020939093013593505050565b60008060008060008060c08789031215613e8e57600080fd5b863595506020870135613ea081613e34565b95989597505050506040840135936060810135936080820135935060a0909101359150565b634e487b7160e01b600052604160045260246000fd5b604051601f8201601f1916810167ffffffffffffffff81118282101715613f0457613f04613ec5565b604052919050565b600067ffffffffffffffff821115613f2657613f26613ec5565b50601f01601f191660200190565b600082601f830112613f4557600080fd5b8135613f58613f5382613f0c565b613edb565b818152846020838601011115613f6d57600080fd5b816020850160208301376000918101602001919091529392505050565b60008060408385031215613f9d57600080fd5b823567ffffffffffffffff80821115613fb557600080fd5b613fc186838701613f34565b93506020850135915080821115613fd757600080fd5b50613fe485828601613f34565b9150509250929050565b803560038110613ffd57600080fd5b919050565b60006020828403121561401457600080fd5b613d3c82613fee565b60008060006060848603121561403257600080fd5b833561403d81613e34565b9250602084013561404d81613e34565b929592945050506040919091013590565b60008083601f84011261407057600080fd5b50813567ffffffffffffffff81111561408857600080fd5b6020830191508360208260051b85010111156140a357600080fd5b9250929050565b600080600080604085870312156140c057600080fd5b843567ffffffffffffffff808211156140d857600080fd5b6140e48883890161405e565b909650945060208701359150808211156140fd57600080fd5b5061410a8782880161405e565b95989497509550505050565b60006020828403121561412857600080fd5b8135613d3c81613e34565b6000806040838503121561414657600080fd5b823561415181613e34565b9150602083013567ffffffffffffffff81111561416d57600080fd5b613fe485828601613f34565b803560058110613ffd57600080fd5b60006020828403121561419a57600080fd5b613d3c82614179565b6040815260006141b66040830185613df5565b90508260208301529392505050565b60008060008060008060c087890312156141de57600080fd5b86356141e981613e34565b95506020870135945060408701359350606087013561420781613e34565b9250608087013567ffffffffffffffff8082111561422457600080fd5b6142308a838b01613f34565b935060a089013591508082111561424657600080fd5b5061425389828a01613f34565b9150509295509295509295565b6000806040838503121561427357600080fd5b50508035926020909101359150565b60006040828403121561429457600080fd5b6040516040810181811067ffffffffffffffff821117156142b7576142b7613ec5565b6040529050806142c683613fee565b81526142d460208401614179565b60208201525092915050565b60008060008060008060e087890312156142f957600080fd5b6143038888614282565b955060408701359450606087013593506080870135925060a0870135915060c087013560ff8116811461433557600080fd5b809150509295509295509295565b801515811461164b57600080fd5b6000806040838503121561436457600080fd5b823561436f81613e34565b9150602083013561437f81614343565b809150509250929050565b600080600080608085870312156143a057600080fd5b84356143ab81613e34565b935060208501356143bb81613e34565b925060408501359150606085013567ffffffffffffffff8111156143de57600080fd5b6143ea87828801613f34565b91505092959194509250565b6020808252825182820181905260009190848201906040850190845b8181101561443357835162ffffff1683529284019291840191600101614412565b50909695505050505050565b60006040828403121561445157600080fd5b613d3c8383614282565b6000806040838503121561446e57600080fd5b823561447981613e34565b9150602083013561437f81613e34565b600181811c9082168061449d57607f821691505b6020821081036131df57634e487b7160e01b600052602260045260246000fd5b634e487b7160e01b600052601160045260246000fd5b600061ffff8083168181036144ea576144ea6144bd565b6001019392505050565b60008261451157634e487b7160e01b600052601260045260246000fd5b500490565b60006020828403121561452857600080fd5b8151613d3c81614343565b634e487b7160e01b600052602160045260246000fd5b60ff8181168382160290811690818114614565576145656144bd565b5092915050565b8082028115828204841417610b7457610b746144bd565b634e487b7160e01b600052603260045260246000fd5b600060001982036145ac576145ac6144bd565b5060010190565b81810381811115610b7457610b746144bd565b6000602082840312156145d857600080fd5b815167ffffffffffffffff8111156145ef57600080fd5b8201601f8101841361460057600080fd5b805161460e613f5382613f0c565b81815285602083850101111561462357600080fd5b613d1a826020830160208601613dd1565b7f7b226e616d65223a20220000000000000000000000000000000000000000000081526000835161466c81600a850160208801613dd1565b7f222c226465736372697074696f6e223a22000000000000000000000000000000600a918401918201527f222c22696d616765223a22000000000000000000000000000000000000000000601b8201527f646174613a696d6167652f7376672b786d6c3b6261736536342c000000000000602682015283516146f5816040840160208801613dd1565b7f227d00000000000000000000000000000000000000000000000000000000000060409290910191820152604201949350505050565b80820180821115610b7457610b746144bd565b600062ffffff8083168181036144ea576144ea6144bd565b60006020828403121561476857600080fd5b5051919050565b606081016003851061478357614783614533565b8482526005841061479657614796614533565b602082019390935260400152919050565b600063ffffffff8083168181036144ea576144ea6144bd565b601f821115610d8557600081815260208120601f850160051c810160208610156147e75750805b601f850160051c820191505b81811015611e44578281556001016147f3565b815167ffffffffffffffff81111561482057614820613ec5565b6148348161482e8454614489565b846147c0565b602080601f83116001811461486957600084156148515750858301515b600019600386901b1c1916600185901b178555611e44565b600085815260208120601f198616915b8281101561489857888601518255948401946001909101908401614879565b50858210156148b65787850151600019600388901b60f8161c191681555b5050505050600190811b01905550565b60006001600160a01b038087168352808616602084015250836040830152608060608301526148f86080830184613df5565b9695505050505050565b60006020828403121561491457600080fd5b8151613d3c81613d6d565b60008351614931818460208801613dd1565b60e89390931b7fffffff0000000000000000000000000000000000000000000000000000000000169190920190815260030192915050565b6000825161497b818460208701613dd1565b919091019291505056fe4142434445464748494a4b4c4d4e4f505152535455565758595a6162636465666768696a6b6c6d6e6f707172737475767778797a303132333435363738392b2f416464726573733a206c6f772d6c6576656c2064656c65676174652063616c6c206661696c6564a2646970667358221220b2a062691dd6913ec98d5db3f09056217cf6b00a124be79e10015f9b04eae2b064736f6c63430008110033",
  "deployedBytecode": "0x6080604052600436106103085760003560e01c8063715018a61161019a578063b242e534116100e1578063dbcd0a581161008a578063e4e3b32b11610064578063e4e3b32b14610a0b578063e985e9c514610a2b578063f11925d714610a7557600080fd5b8063dbcd0a58146109ba578063e30c3978146109cd578063e4421be2146109eb57600080fd5b8063c208d41a116100bb578063c208d41a14610961578063c546286514610978578063c87b56dd1461099a57600080fd5b8063b242e534146108e9578063b470a9b514610909578063b88d4fde1461094157600080fd5b8063869bdf6711610143578063a005ec7a1161011d578063a005ec7a14610764578063a22cb4651461089c578063ac4afa38146108bc57600080fd5b8063869bdf671461071e5780638da5cb5b1461073157806395d89b411461074f57600080fd5b80637cad554d116101745780637cad554d146106be57806380619b61146106de578063829a1d09146106fe57600080fd5b8063715018a614610656578063736c0d5b1461066b5780637447aa081461069b57600080fd5b8063314b8dbd1161025e57806352d1902d116102075780636352211e116101e15780636352211e14610600578063670506e91461062057806370a082311461063657600080fd5b806352d1902d1461058757806356fc2fa61461059c57806360b127eb146105bc57600080fd5b806342842e0e1161023857806342842e0e1461053f5780634e71e0c81461055f5780634f1ef2861461057457600080fd5b8063314b8dbd146104df578063350b2369146104ff5780633659cfe61461051f57600080fd5b80630aeb55c8116102c057806318ac12541161029a57806318ac1254146104715780631dae24361461049f57806323b872dd146104bf57600080fd5b80630aeb55c81461041157806316a065c614610431578063171d49521461045157600080fd5b806306fdde03116102f157806306fdde0314610395578063081812fc146103b7578063095ea7b3146103ef57600080fd5b806301ffc9a71461030d578063068bcd8d14610342575b600080fd5b34801561031957600080fd5b5061032d610328366004613d9b565b610a95565b60405190151581526020015b60405180910390f35b34801561034e57600080fd5b5061038661035d366004613db8565b604080516020808201835260009182905292815260cf8352819020815192830190915254815290565b60405190518152602001610339565b3480156103a157600080fd5b506103aa610b7a565b6040516103399190613e21565b3480156103c357600080fd5b506103d76103d2366004613db8565b610c0d565b6040516001600160a01b039091168152602001610339565b3480156103fb57600080fd5b5061040f61040a366004613e49565b610c35565b005b34801561041d57600080fd5b5061040f61042c366004613e75565b610d8a565b34801561043d57600080fd5b5060cb546103d7906001600160a01b031681565b34801561045d57600080fd5b5061040f61046c366004613f8a565b61109a565b34801561047d57600080fd5b5061049161048c366004614002565b611112565b604051908152602001610339565b3480156104ab57600080fd5b5061040f6104ba366004613db8565b611153565b3480156104cb57600080fd5b5061040f6104da36600461401d565b6111e9565b3480156104eb57600080fd5b506104916104fa366004614002565b611270565b34801561050b57600080fd5b5061040f61051a3660046140aa565b6112a2565b34801561052b57600080fd5b5061040f61053a366004614116565b6114b1565b34801561054b57600080fd5b5061040f61055a36600461401d565b61164e565b34801561056b57600080fd5b5061040f611669565b61040f610582366004614133565b6116cd565b34801561059357600080fd5b50610491611857565b3480156105a857600080fd5b506104916105b7366004614188565b61191c565b3480156105c857600080fd5b506105ed6105d7366004614116565b60cd6020526000908152604090205461ffff1681565b60405161ffff9091168152602001610339565b34801561060c57600080fd5b506103d761061b366004613db8565b61195d565b34801561062c57600080fd5b5061049160c95481565b34801561064257600080fd5b50610491610651366004614116565b6119c3565b34801561066257600080fd5b5061040f611a5e565b34801561067757600080fd5b5061032d610686366004614116565b60cc6020526000908152604090205460ff1681565b3480156106a757600080fd5b506106b0611ac2565b6040516103399291906141a3565b3480156106ca57600080fd5b506104916106d9366004614188565b611b5b565b3480156106ea57600080fd5b5061040f6106f93660046141c5565b611b8a565b34801561070a57600080fd5b5061040f610719366004614260565b611cfd565b61040f61072c3660046142e0565b611e2e565b34801561073d57600080fd5b506033546001600160a01b03166103d7565b34801561075b57600080fd5b506103aa611e4c565b34801561077057600080fd5b5061083961077f366004613db8565b60ce6020526000908152604090208054600182015460029092015490916001600160a01b0381169174010000000000000000000000000000000000000000820461ffff90811692760100000000000000000000000000000000000000000000810490911691780100000000000000000000000000000000000000000000000090910467ffffffffffffffff16906fffffffffffffffffffffffffffffffff8082169170010000000000000000000000000000000090041687565b604080519788526001600160a01b03909616602088015261ffff9485169587019590955292909116606085015267ffffffffffffffff1660808401526fffffffffffffffffffffffffffffffff90811660a08401521660c082015260e001610339565b3480156108a857600080fd5b5061040f6108b7366004614351565b611e5c565b3480156108c857600080fd5b506104916108d7366004613db8565b60cf6020526000908152604090205481565b3480156108f557600080fd5b5061040f610904366004614351565b611e67565b34801561091557600080fd5b50610491610924366004613e49565b60d060209081526000928352604080842090915290825290205481565b34801561094d57600080fd5b5061040f61095c36600461438a565b611f52565b34801561096d57600080fd5b506104916101955481565b34801561098457600080fd5b5061098d611fe0565b60405161033991906143f6565b3480156109a657600080fd5b506103aa6109b5366004613db8565b612099565b61040f6109c836600461443f565b612253565b3480156109d957600080fd5b506034546001600160a01b03166103d7565b3480156109f757600080fd5b5061040f610a06366004614260565b61225c565b348015610a1757600080fd5b50610491610a26366004613db8565b612392565b348015610a3757600080fd5b5061032d610a4636600461445b565b6001600160a01b0391821660009081526101326020908152604080832093909416825291909152205460ff1690565b348015610a8157600080fd5b5061040f610a90366004613db8565b61242d565b60007fffffffff0000000000000000000000000000000000000000000000000000000082167f80ac58cd000000000000000000000000000000000000000000000000000000001480610b2857507fffffffff0000000000000000000000000000000000000000000000000000000082167f5b5e139f00000000000000000000000000000000000000000000000000000000145b80610b7457507f01ffc9a7000000000000000000000000000000000000000000000000000000007fffffffff000000000000000000000000000000000000000000000000000000008316145b92915050565b606061012d8054610b8a90614489565b80601f0160208091040260200160405190810160405280929190818152602001828054610bb690614489565b8015610c035780601f10610bd857610100808354040283529160200191610c03565b820191906000526020600020905b815481529060010190602001808311610be657829003601f168201915b5050505050905090565b6000610c18826124bc565b50600090815261013160205260409020546001600160a01b031690565b6000610c408261195d565b9050806001600160a01b0316836001600160a01b031603610cce5760405162461bcd60e51b815260206004820152602160248201527f4552433732313a20617070726f76616c20746f2063757272656e74206f776e6560448201527f720000000000000000000000000000000000000000000000000000000000000060648201526084015b60405180910390fd5b336001600160a01b0382161480610d0957506001600160a01b03811660009081526101326020908152604080832033845290915290205460ff165b610d7b5760405162461bcd60e51b815260206004820152603d60248201527f4552433732313a20617070726f76652063616c6c6572206973206e6f7420746f60448201527f6b656e206f776e6572206f7220617070726f76656420666f7220616c6c0000006064820152608401610cc5565b610d858383612521565b505050565b33600090815260cc602052604090205460ff16610dd3576040517fa1b035c800000000000000000000000000000000000000000000000000000000815260040160405180910390fd5b6000610ddf848361259d565b6040805160e0810182528981526001600160a01b0389166020808301829052600091825260cd90528281208054949550919392840192610e229061ffff166144d3565b825461ffff9182166101009390930a83810290830219909116179092558252851660208201526000604082018190526060820152608001610e6b670de0b6b3a7640000886144f4565b6fffffffffffffffffffffffffffffffff908116909152600083815260ce60209081526040918290208451815590840151600182018054938601516060870151608088015167ffffffffffffffff1678010000000000000000000000000000000000000000000000000277ffffffffffffffffffffffffffffffffffffffffffffffff61ffff928316760100000000000000000000000000000000000000000000021675ffffffffffffffffffffffffffffffffffffffffffff9290931674010000000000000000000000000000000000000000027fffffffffffffffffffff000000000000000000000000000000000000000000009097166001600160a01b03909516949094179590951794909416939093171790915560a083015160c0909301518216700100000000000000000000000000000000029290911691909117600290910155610fbb86826125fc565b60cb546040517fa9059cbb0000000000000000000000000000000000000000000000000000000081526001600160a01b038881166004830152602482018890529091169063a9059cbb906044016020604051808303816000875af1158015611027573d6000803e3d6000fd5b505050506040513d601f19601f8201168201806040525081019061104b9190614516565b5083866001600160a01b0316887fe3d421e89b78924d008f87c647b3ed6e46bc1929a14d3b2f0a1d04d5fe3e15bd8860405161108991815260200190565b60405180910390a450505050505050565b6033546001600160a01b031633146110f45760405162461bcd60e51b815260206004820152601d60248201527f536166654f776e61626c653a2063616c6c6572206e6f74206f776e65720000006044820152606401610cc5565b6110fe8282612616565b61110661268b565b61110e6126fe565b5050565b600081600281111561112657611126614533565b611131906008614549565b60ff1660c060ca54901c901c60ff16670de0b6b3a7640000610b74919061456c565b6033546001600160a01b031633146111ad5760405162461bcd60e51b815260206004820152601d60248201527f536166654f776e61626c653a2063616c6c6572206e6f74206f776e65720000006044820152606401610cc5565b60ca8190556040518181527fbf50be4abd4aca220cd35d4969b029104c5ff54c7d5f9f2e9a7b97d1ea5ef13e906020015b60405180910390a150565b6111f33382612776565b6112655760405162461bcd60e51b815260206004820152602d60248201527f4552433732313a2063616c6c6572206973206e6f7420746f6b656e206f776e6560448201527f72206f7220617070726f766564000000000000000000000000000000000000006064820152608401610cc5565b610d858383836127f5565b600081600281111561128457611284614533565b61128f906008614549565b60ca5460801c60ff9182161c1692915050565b6033546001600160a01b031633146112fc5760405162461bcd60e51b815260206004820152601d60248201527f536166654f776e61626c653a2063616c6c6572206e6f74206f776e65720000006044820152606401610cc5565b60005b838110156113d757600160cc600087878581811061131f5761131f614583565b90506020020160208101906113349190614116565b6001600160a01b031681526020810191909152604001600020805460ff19169115159190911790557fc648f6265408cc54c0dc26d24ba51dfc9f35ce1a63baa2228f65d93aaf11cc6785858381811061138f5761138f614583565b90506020020160208101906113a49190614116565b604080516001600160a01b039092168252600060208301520160405180910390a1806113cf81614599565b9150506112ff565b5060005b818110156114aa5760cc60008484848181106113f9576113f9614583565b905060200201602081019061140e9190614116565b6001600160a01b031681526020810191909152604001600020805460ff191690557fc648f6265408cc54c0dc26d24ba51dfc9f35ce1a63baa2228f65d93aaf11cc6783838381811061146257611462614583565b90506020020160208101906114779190614116565b604080516001600160a01b039092168252600160208301520160405180910390a1806114a281614599565b9150506113db565b5050505050565b6001600160a01b037f000000000000000000000000000000000000000000000000000000000000000016300361154f5760405162461bcd60e51b815260206004820152602c60248201527f46756e6374696f6e206d7573742062652063616c6c6564207468726f7567682060448201527f64656c656761746563616c6c00000000000000000000000000000000000000006064820152608401610cc5565b7f00000000000000000000000000000000000000000000000000000000000000006001600160a01b03166115aa7f360894a13ba1a3210667c828492db98dca3e2076cc3735a920a3ca505d382bbc546001600160a01b031690565b6001600160a01b0316146116265760405162461bcd60e51b815260206004820152602c60248201527f46756e6374696f6e206d7573742062652063616c6c6564207468726f7567682060448201527f6163746976652070726f787900000000000000000000000000000000000000006064820152608401610cc5565b61162f81612a3b565b6040805160008082526020820190925261164b91839190612a95565b50565b610d8583838360405180602001604052806000815250611f52565b6034546001600160a01b031633146116c35760405162461bcd60e51b815260206004820152601e60248201527f536166654f776e61626c653a2063616c6c657220213d2070656e64696e6700006044820152606401610cc5565b6116cb612c35565b565b6001600160a01b037f000000000000000000000000000000000000000000000000000000000000000016300361176b5760405162461bcd60e51b815260206004820152602c60248201527f46756e6374696f6e206d7573742062652063616c6c6564207468726f7567682060448201527f64656c656761746563616c6c00000000000000000000000000000000000000006064820152608401610cc5565b7f00000000000000000000000000000000000000000000000000000000000000006001600160a01b03166117c67f360894a13ba1a3210667c828492db98dca3e2076cc3735a920a3ca505d382bbc546001600160a01b031690565b6001600160a01b0316146118425760405162461bcd60e51b815260206004820152602c60248201527f46756e6374696f6e206d7573742062652063616c6c6564207468726f7567682060448201527f6163746976652070726f787900000000000000000000000000000000000000006064820152608401610cc5565b61184b82612a3b565b61110e82826001612a95565b6000306001600160a01b037f000000000000000000000000000000000000000000000000000000000000000016146118f75760405162461bcd60e51b815260206004820152603860248201527f555550535570677261646561626c653a206d757374206e6f742062652063616c60448201527f6c6564207468726f7567682064656c656761746563616c6c00000000000000006064820152608401610cc5565b507f360894a13ba1a3210667c828492db98dca3e2076cc3735a920a3ca505d382bbc90565b600081600481111561193057611930614533565b61193b906008614549565b60ff16604060ca54901c901c60ff16670de0b6b3a7640000610b74919061456c565b600081815261012f60205260408120546001600160a01b031680610b745760405162461bcd60e51b815260206004820152601860248201527f4552433732313a20696e76616c696420746f6b656e20494400000000000000006044820152606401610cc5565b60006001600160a01b038216611a415760405162461bcd60e51b815260206004820152602960248201527f4552433732313a2061646472657373207a65726f206973206e6f74206120766160448201527f6c6964206f776e657200000000000000000000000000000000000000000000006064820152608401610cc5565b506001600160a01b03166000908152610130602052604090205490565b6033546001600160a01b03163314611ab85760405162461bcd60e51b815260206004820152601d60248201527f536166654f776e61626c653a2063616c6c6572206e6f74206f776e65720000006044820152606401610cc5565b6116cb6000612cab565b61019280548190611ad290614489565b80601f0160208091040260200160405190810160405280929190818152602001828054611afe90614489565b8015611b4b5780601f10611b2057610100808354040283529160200191611b4b565b820191906000526020600020905b815481529060010190602001808311611b2e57829003601f168201915b5050505050908060010154905082565b6000816004811115611b6f57611b6f614533565b611b7a906008614549565b60ca5460ff9182161c1692915050565b600054610100900460ff1615808015611baa5750600054600160ff909116105b80611bc45750303b158015611bc4575060005460ff166001145b611c365760405162461bcd60e51b815260206004820152602e60248201527f496e697469616c697a61626c653a20636f6e747261637420697320616c72656160448201527f647920696e697469616c697a65640000000000000000000000000000000000006064820152608401610cc5565b6000805460ff191660011790558015611c59576000805461ff0019166101001790555b60cb805473ffffffffffffffffffffffffffffffffffffffff19166001600160a01b03891617905560c986905560ca859055611c9484612d2e565b611c9e8383612616565b611ca661268b565b611cae6126fe565b8015611cf4576000805461ff0019169055604051600181527f7f26b83ff96e1f2b6a682f133852f6798a09c465da95921460cefb38474024989060200160405180910390a15b50505050505050565b600082815260cf60205260408120805490918391839190611d1f9084906145b3565b909155505033600090815260d0602090815260408083208684529091528120805490918491839190611d529084906145b3565b909155505060cb546040517fa9059cbb000000000000000000000000000000000000000000000000000000008152336004820152602481018590526001600160a01b039091169063a9059cbb906044016020604051808303816000875af1158015611dc1573d6000803e3d6000fd5b505050506040513d601f19601f82011682018060405250810190611de59190614516565b5060408051338152602081018690529081018490527f5c09e6483f1552208cf891fa28d135269484ad74a848ad491913fb4b386ffcf0906060015b60405180910390a150505050565b611e3b8585858585612da2565b611e4486612e4a565b505050505050565b606061012e8054610b8a90614489565b61110e338383612fd9565b6033546001600160a01b03163314611ec15760405162461bcd60e51b815260206004820152601d60248201527f536166654f776e61626c653a2063616c6c6572206e6f74206f776e65720000006044820152606401610cc5565b6001600160a01b038216611f175760405162461bcd60e51b815260206004820152601b60248201527f536166654f776e61626c653a206e6577206f776e6572206973203000000000006044820152606401610cc5565b8015611f265761110e82612cab565b6034805473ffffffffffffffffffffffffffffffffffffffff19166001600160a01b0384161790555050565b611f5c3383612776565b611fce5760405162461bcd60e51b815260206004820152602d60248201527f4552433732313a2063616c6c6572206973206e6f7420746f6b656e206f776e6560448201527f72206f7220617070726f766564000000000000000000000000000000000000006064820152608401610cc5565b611fda848484846130a8565b50505050565b606061209461019260405180604001604052908160008201805461200390614489565b80601f016020809104026020016040519081016040528092919081815260200182805461202f90614489565b801561207c5780601f106120515761010080835404028352916020019161207c565b820191906000526020600020905b81548152906001019060200180831161205f57829003601f168201915b50505050508152602001600182015481525050613131565b905090565b60606120a4826124bc565b610b746120af610b7a565b6000848152610191602090815260408083205460ce90925291829020600181015460029091015492517fa48f184a00000000000000000000000000000000000000000000000000000000815260e060048083019190915260e48201527f7365656400000000000000000000000000000000000000000000000000000000610104820152602481019290925261ffff7601000000000000000000000000000000000000000000008204811660448401527401000000000000000000000000000000000000000082041660648301526001600160a01b031660848201526fffffffffffffffffffffffffffffffff80831660a483015270010000000000000000000000000000000090920490911660c482015261222e9073__$bd4a62aa904e40a751e4c3f6355b6291ee$__9063a48f184a9061012401600060405180830381865af4158015612201573d6000803e3d6000fd5b505050506040513d6000823e601f3d908101601f1916820160405261222991908101906145c6565b6131e5565b60405160200161223f929190614634565b6040516020818303038152906040526131e5565b61164b81612e4a565b612265826124bc565b60cb546040517f23b872dd000000000000000000000000000000000000000000000000000000008152336004820152306024820152604481018390526001600160a01b03909116906323b872dd906064016020604051808303816000875af11580156122d5573d6000803e3d6000fd5b505050506040513d601f19601f820116820180604052508101906122f99190614516565b50600082815260cf6020526040812080549091839183919061231c90849061472b565b909155505033600090815260d060209081526040808320868452909152812080549091849183919061234f90849061472b565b909155505060408051338152602081018690529081018490527f58c7b3bf0b0e168048426c1e9443a72696526292ca664e18b11f934cd6cfbbf390606001611e20565b6000806123b661019260405180604001604052908160008201805461200390614489565b905060005b6064811015612423578361019160008484815181106123dc576123dc614583565b602002602001015162ffffff1681526020019081526020016000205410156124115761240981600161472b565b949350505050565b8061241b81614599565b9150506123bb565b5060009392505050565b6033546001600160a01b031633146124875760405162461bcd60e51b815260206004820152601d60248201527f536166654f776e61626c653a2063616c6c6572206e6f74206f776e65720000006044820152606401610cc5565b60c98190556040518181527fae0c05ecd507ea9cded837adb5c433fa5e8c24ef117806d7050ec4432a743f1d906020016111de565b600081815261012f60205260409020546001600160a01b031661164b5760405162461bcd60e51b815260206004820152601860248201527f4552433732313a20696e76616c696420746f6b656e20494400000000000000006044820152606401610cc5565b600081815261013160205260409020805473ffffffffffffffffffffffffffffffffffffffff19166001600160a01b03841690811790915581906125648261195d565b6001600160a01b03167f8c5be1e5ebec7d5bd14f71427d1e84f3dd0314c0f7b2291e5b200ac8c7c3b92560405160405180910390a45050565b6101948054600091849161019191849182906125bd9062ffffff1661473e565b825462ffffff9182166101009390930a838102908302199091161790925582526020820192909252604001600020919091556101945416905092915050565b61110e828260405180602001604052806000815250613338565b600054610100900460ff166126815760405162461bcd60e51b815260206004820152602b60248201527f496e697469616c697a61626c653a20636f6e7472616374206973206e6f74206960448201526a6e697469616c697a696e6760a81b6064820152608401610cc5565b61110e82826133c1565b600054610100900460ff166126f65760405162461bcd60e51b815260206004820152602b60248201527f496e697469616c697a61626c653a20636f6e7472616374206973206e6f74206960448201526a6e697469616c697a696e6760a81b6064820152608401610cc5565b6116cb613447565b600054610100900460ff166127695760405162461bcd60e51b815260206004820152602b60248201527f496e697469616c697a61626c653a20636f6e7472616374206973206e6f74206960448201526a6e697469616c697a696e6760a81b6064820152608401610cc5565b6116cb61019260646134ba565b6000806127828361195d565b9050806001600160a01b0316846001600160a01b031614806127ca57506001600160a01b038082166000908152610132602090815260408083209388168352929052205460ff165b806124095750836001600160a01b03166127e384610c0d565b6001600160a01b031614949350505050565b826001600160a01b03166128088261195d565b6001600160a01b0316146128845760405162461bcd60e51b815260206004820152602560248201527f4552433732313a207472616e736665722066726f6d20696e636f72726563742060448201527f6f776e65720000000000000000000000000000000000000000000000000000006064820152608401610cc5565b6001600160a01b0382166128ff5760405162461bcd60e51b8152602060048201526024808201527f4552433732313a207472616e7366657220746f20746865207a65726f2061646460448201527f72657373000000000000000000000000000000000000000000000000000000006064820152608401610cc5565b61290c8383836001613518565b826001600160a01b031661291f8261195d565b6001600160a01b03161461299b5760405162461bcd60e51b815260206004820152602560248201527f4552433732313a207472616e736665722066726f6d20696e636f72726563742060448201527f6f776e65720000000000000000000000000000000000000000000000000000006064820152608401610cc5565b600081815261013160209081526040808320805473ffffffffffffffffffffffffffffffffffffffff199081169091556001600160a01b03878116808652610130855283862080546000190190559087168086528386208054600101905586865261012f90945282852080549092168417909155905184937fddf252ad1be2c89b69c2b068fc378daa952ba7f163c4a11628f55a4df523b3ef91a4505050565b6033546001600160a01b0316331461164b5760405162461bcd60e51b815260206004820152601d60248201527f536166654f776e61626c653a2063616c6c6572206e6f74206f776e65720000006044820152606401610cc5565b7f4910fdfa16fed3260ed0e7147f7cc6da11a60208b5b9406d12a635614ffd91435460ff1615612ac857610d85836135a2565b826001600160a01b03166352d1902d6040518163ffffffff1660e01b8152600401602060405180830381865afa925050508015612b22575060408051601f3d908101601f19168201909252612b1f91810190614756565b60015b612b945760405162461bcd60e51b815260206004820152602e60248201527f45524331393637557067726164653a206e657720696d706c656d656e7461746960448201527f6f6e206973206e6f7420555550530000000000000000000000000000000000006064820152608401610cc5565b7f360894a13ba1a3210667c828492db98dca3e2076cc3735a920a3ca505d382bbc8114612c295760405162461bcd60e51b815260206004820152602960248201527f45524331393637557067726164653a20756e737570706f727465642070726f7860448201527f6961626c655555494400000000000000000000000000000000000000000000006064820152608401610cc5565b50610d8583838361366d565b6033546034546040516001600160a01b03928316929091169082907f8be0079c531659141344cd1fd0a4f28419497f9722a3daafe3b4186f6b6457e090600090a350603480546033805473ffffffffffffffffffffffffffffffffffffffff199081166001600160a01b03841617909155169055565b7fb53127684a568b3173ae13b9f8a6016e243e63b6e8ee1178d6a717850b5d6103819055603380546001600160a01b0380841673ffffffffffffffffffffffffffffffffffffffff19831681179093556040519116919082907f8be0079c531659141344cd1fd0a4f28419497f9722a3daafe3b4186f6b6457e090600090a35050565b600054610100900460ff16612d995760405162461bcd60e51b815260206004820152602b60248201527f496e697469616c697a61626c653a20636f6e7472616374206973206e6f74206960448201526a6e697469616c697a696e6760a81b6064820152608401610cc5565b61164b81613692565b60cb546040517fd505accf000000000000000000000000000000000000000000000000000000008152336004820152306024820152604481018790526064810186905260ff8316608482015260a4810185905260c481018490526001600160a01b039091169063d505accf9060e401600060405180830381600087803b158015612e2b57600080fd5b505af1158015612e3f573d6000803e3d6000fd5b505050505050505050565b60c954341015612e86576040517f5945ea5600000000000000000000000000000000000000000000000000000000815260040160405180910390fd5b60c95433906108fc90612e9990346145b3565b6040518115909202916000818181858888f19350505050158015612ec1573d6000803e3d6000fd5b506000612ed1826020015161191c565b8251612edc90611112565b612ee6919061472b565b60cb546040517f23b872dd000000000000000000000000000000000000000000000000000000008152336004820152306024820152604481018390529192506001600160a01b0316906323b872dd906064016020604051808303816000875af1158015612f57573d6000803e3d6000fd5b505050506040513d601f19601f82011682018060405250810190612f7b9190614516565b50612f898260200151611b5b565b8251612f9490611270565b8351602085015160405133927f87fb928ac5e68966565b76ad225a282c4bdac2194b64d495dfe59b91c963fd3a92612fcd92889061476f565b60405180910390a45050565b816001600160a01b0316836001600160a01b03160361303a5760405162461bcd60e51b815260206004820152601960248201527f4552433732313a20617070726f766520746f2063616c6c6572000000000000006044820152606401610cc5565b6001600160a01b0383811660008181526101326020908152604080832094871680845294825291829020805460ff191686151590811790915591519182527f17307eab39ab6107e8899845ad3d59bd9653f200f220920489ca2b5937696c31910160405180910390a3505050565b6130b38484846127f5565b6130bf84848484613706565b611fda5760405162461bcd60e51b815260206004820152603260248201527f4552433732313a207472616e7366657220746f206e6f6e20455243373231526560448201527f63656976657220696d706c656d656e74657200000000000000000000000000006064820152608401610cc5565b6060816020015167ffffffffffffffff81111561315057613150613ec5565b604051908082528060200260200182016040528015613179578160200160208202803683370190505b50905060005b82602001518163ffffffff1610156131df576131a1838263ffffffff166138a7565b828263ffffffff16815181106131b9576131b9614583565b62ffffff90921660209283029190910190910152806131d7816147a7565b91505061317f565b50919050565b6060815160000361320457505060408051602081019091526000815290565b60006040518060600160405280604081526020016149866040913990506000600384516002613233919061472b565b61323d91906144f4565b61324890600461456c565b67ffffffffffffffff81111561326057613260613ec5565b6040519080825280601f01601f19166020018201604052801561328a576020820181803683370190505b509050600182016020820185865187015b808210156132f6576003820191508151603f8160121c168501518453600184019350603f81600c1c168501518453600184019350603f8160061c168501518453600184019350603f811685015184535060018301925061329b565b505060038651066001811461331257600281146133255761332d565b603d6001830353603d600283035361332d565b603d60018303535b509195945050505050565b61334283836139d0565b61334f6000848484613706565b610d855760405162461bcd60e51b815260206004820152603260248201527f4552433732313a207472616e7366657220746f206e6f6e20455243373231526560448201527f63656976657220696d706c656d656e74657200000000000000000000000000006064820152608401610cc5565b600054610100900460ff1661342c5760405162461bcd60e51b815260206004820152602b60248201527f496e697469616c697a61626c653a20636f6e7472616374206973206e6f74206960448201526a6e697469616c697a696e6760a81b6064820152608401610cc5565b61012d6134398382614806565b5061012e610d858282614806565b600054610100900460ff166134b25760405162461bcd60e51b815260206004820152602b60248201527f496e697469616c697a61626c653a20636f6e7472616374206973206e6f74206960448201526a6e697469616c697a696e6760a81b6064820152608401610cc5565b600161015f55565b6001820181905561350c8167ffffffffffffffff8111156134dd576134dd613ec5565b604051908082528060200260200182016040528015613506578160200160208202803683370190505b50613b7a565b8290610d859082614806565b6001811115611fda576001600160a01b0384161561355f576001600160a01b03841660009081526101306020526040812080548392906135599084906145b3565b90915550505b6001600160a01b03831615611fda576001600160a01b038316600090815261013060205260408120805483929061359790849061472b565b909155505050505050565b6001600160a01b0381163b61361f5760405162461bcd60e51b815260206004820152602d60248201527f455243313936373a206e657720696d706c656d656e746174696f6e206973206e60448201527f6f74206120636f6e7472616374000000000000000000000000000000000000006064820152608401610cc5565b7f360894a13ba1a3210667c828492db98dca3e2076cc3735a920a3ca505d382bbc805473ffffffffffffffffffffffffffffffffffffffff19166001600160a01b0392909216919091179055565b61367683613bd8565b6000825111806136835750805b15610d8557611fda8383613c18565b600054610100900460ff166136fd5760405162461bcd60e51b815260206004820152602b60248201527f496e697469616c697a61626c653a20636f6e7472616374206973206e6f74206960448201526a6e697469616c697a696e6760a81b6064820152608401610cc5565b61164b81612cab565b60006001600160a01b0384163b1561389c576040517f150b7a020000000000000000000000000000000000000000000000000000000081526001600160a01b0385169063150b7a02906137639033908990889088906004016148c6565b6020604051808303816000875af192505050801561379e575060408051601f3d908101601f1916820190925261379b91810190614902565b60015b613851573d8080156137cc576040519150601f19603f3d011682016040523d82523d6000602084013e6137d1565b606091505b5080516000036138495760405162461bcd60e51b815260206004820152603260248201527f4552433732313a207472616e7366657220746f206e6f6e20455243373231526560448201527f63656976657220696d706c656d656e74657200000000000000000000000000006064820152608401610cc5565b805181602001fd5b7fffffffff00000000000000000000000000000000000000000000000000000000167f150b7a0200000000000000000000000000000000000000000000000000000000149050612409565b506001949350505050565b815160009081906138b984600361456c565b815181106138c9576138c9614583565b016020015184517fff000000000000000000000000000000000000000000000000000000000000009091169061390085600361456c565b61390b90600161472b565b8151811061391b5761391b614583565b016020015185517fff000000000000000000000000000000000000000000000000000000000000009091169061395286600361456c565b61395d90600261472b565b8151811061396d5761396d614583565b016020908101516040517fff000000000000000000000000000000000000000000000000000000000000009485169281019290925291831660218201529116602282015260230160408051601f1981840301815291905260030151949350505050565b6001600160a01b038216613a265760405162461bcd60e51b815260206004820181905260248201527f4552433732313a206d696e7420746f20746865207a65726f20616464726573736044820152606401610cc5565b600081815261012f60205260409020546001600160a01b031615613a8c5760405162461bcd60e51b815260206004820152601c60248201527f4552433732313a20746f6b656e20616c7265616479206d696e746564000000006044820152606401610cc5565b613a9a600083836001613518565b600081815261012f60205260409020546001600160a01b031615613b005760405162461bcd60e51b815260206004820152601c60248201527f4552433732313a20746f6b656e20616c7265616479206d696e746564000000006044820152606401610cc5565b6001600160a01b0382166000818152610130602090815260408083208054600101905584835261012f909152808220805473ffffffffffffffffffffffffffffffffffffffff19168417905551839291907fddf252ad1be2c89b69c2b068fc378daa952ba7f163c4a11628f55a4df523b3ef908290a45050565b606060005b82518110156131df5781838281518110613b9b57613b9b614583565b6020026020010151604051602001613bb492919061491f565b60405160208183030381529060405291508080613bd090614599565b915050613b7f565b613be1816135a2565b6040516001600160a01b038216907fbc7cd75a20ee27fd9adebab32041f755214dbc6bffa90cc0225b39da2e5c2d3b90600090a250565b60606001600160a01b0383163b613c975760405162461bcd60e51b815260206004820152602660248201527f416464726573733a2064656c65676174652063616c6c20746f206e6f6e2d636f60448201527f6e747261637400000000000000000000000000000000000000000000000000006064820152608401610cc5565b600080846001600160a01b031684604051613cb29190614969565b600060405180830381855af49150503d8060008114613ced576040519150601f19603f3d011682016040523d82523d6000602084013e613cf2565b606091505b5091509150613d1a82826040518060600160405280602781526020016149c660279139613d23565b95945050505050565b60608315613d32575081613d3c565b613d3c8383613d43565b9392505050565b815115613d535781518083602001fd5b8060405162461bcd60e51b8152600401610cc59190613e21565b7fffffffff000000000000000000000000000000000000000000000000000000008116811461164b57600080fd5b600060208284031215613dad57600080fd5b8135613d3c81613d6d565b600060208284031215613dca57600080fd5b5035919050565b60005b83811015613dec578181015183820152602001613dd4565b50506000910152565b60008151808452613e0d816020860160208601613dd1565b601f01601f19169290920160200192915050565b602081526000613d3c6020830184613df5565b6001600160a01b038116811461164b57600080fd5b60008060408385031215613e5c57600080fd5b8235613e6781613e34565b946020939093013593505050565b60008060008060008060c08789031215613e8e57600080fd5b863595506020870135613ea081613e34565b95989597505050506040840135936060810135936080820135935060a0909101359150565b634e487b7160e01b600052604160045260246000fd5b604051601f8201601f1916810167ffffffffffffffff81118282101715613f0457613f04613ec5565b604052919050565b600067ffffffffffffffff821115613f2657613f26613ec5565b50601f01601f191660200190565b600082601f830112613f4557600080fd5b8135613f58613f5382613f0c565b613edb565b818152846020838601011115613f6d57600080fd5b816020850160208301376000918101602001919091529392505050565b60008060408385031215613f9d57600080fd5b823567ffffffffffffffff80821115613fb557600080fd5b613fc186838701613f34565b93506020850135915080821115613fd757600080fd5b50613fe485828601613f34565b9150509250929050565b803560038110613ffd57600080fd5b919050565b60006020828403121561401457600080fd5b613d3c82613fee565b60008060006060848603121561403257600080fd5b833561403d81613e34565b9250602084013561404d81613e34565b929592945050506040919091013590565b60008083601f84011261407057600080fd5b50813567ffffffffffffffff81111561408857600080fd5b6020830191508360208260051b85010111156140a357600080fd5b9250929050565b600080600080604085870312156140c057600080fd5b843567ffffffffffffffff808211156140d857600080fd5b6140e48883890161405e565b909650945060208701359150808211156140fd57600080fd5b5061410a8782880161405e565b95989497509550505050565b60006020828403121561412857600080fd5b8135613d3c81613e34565b6000806040838503121561414657600080fd5b823561415181613e34565b9150602083013567ffffffffffffffff81111561416d57600080fd5b613fe485828601613f34565b803560058110613ffd57600080fd5b60006020828403121561419a57600080fd5b613d3c82614179565b6040815260006141b66040830185613df5565b90508260208301529392505050565b60008060008060008060c087890312156141de57600080fd5b86356141e981613e34565b95506020870135945060408701359350606087013561420781613e34565b9250608087013567ffffffffffffffff8082111561422457600080fd5b6142308a838b01613f34565b935060a089013591508082111561424657600080fd5b5061425389828a01613f34565b9150509295509295509295565b6000806040838503121561427357600080fd5b50508035926020909101359150565b60006040828403121561429457600080fd5b6040516040810181811067ffffffffffffffff821117156142b7576142b7613ec5565b6040529050806142c683613fee565b81526142d460208401614179565b60208201525092915050565b60008060008060008060e087890312156142f957600080fd5b6143038888614282565b955060408701359450606087013593506080870135925060a0870135915060c087013560ff8116811461433557600080fd5b809150509295509295509295565b801515811461164b57600080fd5b6000806040838503121561436457600080fd5b823561436f81613e34565b9150602083013561437f81614343565b809150509250929050565b600080600080608085870312156143a057600080fd5b84356143ab81613e34565b935060208501356143bb81613e34565b925060408501359150606085013567ffffffffffffffff8111156143de57600080fd5b6143ea87828801613f34565b91505092959194509250565b6020808252825182820181905260009190848201906040850190845b8181101561443357835162ffffff1683529284019291840191600101614412565b50909695505050505050565b60006040828403121561445157600080fd5b613d3c8383614282565b6000806040838503121561446e57600080fd5b823561447981613e34565b9150602083013561437f81613e34565b600181811c9082168061449d57607f821691505b6020821081036131df57634e487b7160e01b600052602260045260246000fd5b634e487b7160e01b600052601160045260246000fd5b600061ffff8083168181036144ea576144ea6144bd565b6001019392505050565b60008261451157634e487b7160e01b600052601260045260246000fd5b500490565b60006020828403121561452857600080fd5b8151613d3c81614343565b634e487b7160e01b600052602160045260246000fd5b60ff8181168382160290811690818114614565576145656144bd565b5092915050565b8082028115828204841417610b7457610b746144bd565b634e487b7160e01b600052603260045260246000fd5b600060001982036145ac576145ac6144bd565b5060010190565b81810381811115610b7457610b746144bd565b6000602082840312156145d857600080fd5b815167ffffffffffffffff8111156145ef57600080fd5b8201601f8101841361460057600080fd5b805161460e613f5382613f0c565b81815285602083850101111561462357600080fd5b613d1a826020830160208601613dd1565b7f7b226e616d65223a20220000000000000000000000000000000000000000000081526000835161466c81600a850160208801613dd1565b7f222c226465736372697074696f6e223a22000000000000000000000000000000600a918401918201527f222c22696d616765223a22000000000000000000000000000000000000000000601b8201527f646174613a696d6167652f7376672b786d6c3b6261736536342c000000000000602682015283516146f5816040840160208801613dd1565b7f227d00000000000000000000000000000000000000000000000000000000000060409290910191820152604201949350505050565b80820180821115610b7457610b746144bd565b600062ffffff8083168181036144ea576144ea6144bd565b60006020828403121561476857600080fd5b5051919050565b606081016003851061478357614783614533565b8482526005841061479657614796614533565b602082019390935260400152919050565b600063ffffffff8083168181036144ea576144ea6144bd565b601f821115610d8557600081815260208120601f850160051c810160208610156147e75750805b601f850160051c820191505b81811015611e44578281556001016147f3565b815167ffffffffffffffff81111561482057614820613ec5565b6148348161482e8454614489565b846147c0565b602080601f83116001811461486957600084156148515750858301515b600019600386901b1c1916600185901b178555611e44565b600085815260208120601f198616915b8281101561489857888601518255948401946001909101908401614879565b50858210156148b65787850151600019600388901b60f8161c191681555b5050505050600190811b01905550565b60006001600160a01b038087168352808616602084015250836040830152608060608301526148f86080830184613df5565b9695505050505050565b60006020828403121561491457600080fd5b8151613d3c81613d6d565b60008351614931818460208801613dd1565b60e89390931b7fffffff0000000000000000000000000000000000000000000000000000000000169190920190815260030192915050565b6000825161497b818460208701613dd1565b919091019291505056fe4142434445464748494a4b4c4d4e4f505152535455565758595a6162636465666768696a6b6c6d6e6f707172737475767778797a303132333435363738392b2f416464726573733a206c6f772d6c6576656c2064656c65676174652063616c6c206661696c6564a2646970667358221220b2a062691dd6913ec98d5db3f09056217cf6b00a124be79e10015f9b04eae2b064736f6c63430008110033",
  "libraries": {
    "RenderEngine": "0x6Cc913AC77db058d9EE752Ad3450A0516b835632"
  },
  "devdoc": {
    "kind": "dev",
    "methods": {
      "approve(address,uint256)": {
        "details": "See {IERC721-approve}."
      },
      "balanceOf(address)": {
        "details": "See {IERC721-balanceOf}."
      },
      "claimOwnership()": {
        "details": "pending owner call this function to claim ownership"
      },
      "dry(uint256,uint256)": {
        "details": "degen get $REBORN back"
      },
      "engrave(bytes32,address,uint256,uint256,uint256,uint256)": {
        "details": "engrave the result on chain and reward",
        "params": {
          "seed": "uuid seed string without \"-\"  in bytes32"
        }
      },
      "findLocation(uint256)": {
        "details": "find the location in rank given a valueusually executed off-chain"
      },
      "getApproved(uint256)": {
        "details": "See {IERC721-getApproved}."
      },
      "getPool(uint256)": {
        "details": "read pool attribute"
      },
      "infuse(uint256,uint256)": {
        "details": "degen infuse $REBORN to tombstoneexpect for bliss"
      },
      "initAfterUpgrade(string,string)": {
        "details": "warning: only called onece during testabandoned in production"
      },
      "isApprovedForAll(address,address)": {
        "details": "See {IERC721-isApprovedForAll}."
      },
      "name()": {
        "details": "See {IERC721Metadata-name}."
      },
      "owner()": {
        "details": "Returns the address of the current owner."
      },
      "ownerOf(uint256)": {
        "details": "See {IERC721-ownerOf}."
      },
      "pendingOwner()": {
        "details": "Return the address of the pending owner"
      },
      "propertyPoint(uint8)": {
        "details": "calculate properties point for each property"
      },
      "propertyPrice(uint8)": {
        "details": "calculate properties price in $REBORN for each properties"
      },
      "proxiableUUID()": {
        "details": "Implementation of the ERC1822 {proxiableUUID} function. This returns the storage slot used by the implementation. It is used to validate the implementation's compatibility when performing an upgrade. IMPORTANT: A proxy pointing at a proxiable contract should not be considered proxiable itself, because this risks bricking a proxy that upgrades to it, by delegating to itself until out of gas. Thus it is critical that this function revert if invoked through a proxy. This is guaranteed by the `notDelegated` modifier."
      },
      "renounceOwnership()": {
        "details": "Leaves the contract without owner. It will not be possible to call `onlyOwner` functions anymore. Can only be called by the current owner. NOTE: Renouncing ownership will leave the contract without an owner, thereby removing any functionality that is only available to the owner."
      },
      "safeTransferFrom(address,address,uint256)": {
        "details": "See {IERC721-safeTransferFrom}."
      },
      "safeTransferFrom(address,address,uint256,bytes)": {
        "details": "See {IERC721-safeTransferFrom}."
      },
      "setApprovalForAll(address,bool)": {
        "details": "See {IERC721-setApprovalForAll}."
      },
      "setPriceAndPoint(uint256)": {
        "details": "set other price"
      },
      "setSoupPrice(uint256)": {
        "details": "set soup price"
      },
      "supportsInterface(bytes4)": {
        "details": "See {IERC165-supportsInterface}."
      },
      "symbol()": {
        "details": "See {IERC721Metadata-symbol}."
      },
      "talentPoint(uint8)": {
        "details": "calculate talent point for each talent"
      },
      "talentPrice(uint8)": {
        "details": "calculate talent price in $REBORN for each talent"
      },
      "tokenURI(uint256)": {
        "details": "See {IERC721Metadata-tokenURI}."
      },
      "transferFrom(address,address,uint256)": {
        "details": "See {IERC721-transferFrom}."
      },
      "transferOwnership(address,bool)": {
        "details": "Transfers ownership of the contract to a new account (`newOwner`). Can only be called by the current owner. Note If direct is false, it will set an pending owner and the OwnerShipTransferring only happens when the pending owner claim the ownership"
      },
      "updateSigners(address[],address[])": {
        "details": "update signer"
      },
      "upgradeTo(address)": {
        "details": "Upgrade the implementation of the proxy to `newImplementation`. Calls {_authorizeUpgrade}. Emits an {Upgraded} event."
      },
      "upgradeToAndCall(address,bytes)": {
        "details": "Upgrade the implementation of the proxy to `newImplementation`, and subsequently execute the function call encoded in `data`. Calls {_authorizeUpgrade}. Emits an {Upgraded} event."
      }
    },
    "version": 1
  },
  "userdoc": {
    "kind": "user",
    "methods": {
      "incarnate((uint8,uint8))": {
        "notice": "init enter and buy "
      },
      "incarnate((uint8,uint8),uint256,uint256,bytes32,bytes32,uint8)": {
        "notice": "init enter and buy with permit signature "
      },
      "soupPrice()": {
        "notice": "you need buy a soup before reborn "
      }
    },
    "version": 1
  },
  "storageLayout": {
    "storage": [
      {
        "astId": 395,
        "contract": "src/RebornPortal.sol:RebornPortal",
        "label": "_initialized",
        "offset": 0,
        "slot": "0",
        "type": "t_uint8"
      },
      {
        "astId": 398,
        "contract": "src/RebornPortal.sol:RebornPortal",
        "label": "_initializing",
        "offset": 1,
        "slot": "0",
        "type": "t_bool"
      },
      {
        "astId": 3532,
        "contract": "src/RebornPortal.sol:RebornPortal",
        "label": "__gap",
        "offset": 0,
        "slot": "1",
        "type": "t_array(t_uint256)50_storage"
      },
      {
        "astId": 7100,
        "contract": "src/RebornPortal.sol:RebornPortal",
        "label": "_owner",
        "offset": 0,
        "slot": "51",
        "type": "t_address"
      },
      {
        "astId": 7102,
        "contract": "src/RebornPortal.sol:RebornPortal",
        "label": "_pendingOwner",
        "offset": 0,
        "slot": "52",
        "type": "t_address"
      },
      {
        "astId": 7290,
        "contract": "src/RebornPortal.sol:RebornPortal",
        "label": "__gap",
        "offset": 0,
        "slot": "53",
        "type": "t_array(t_uint256)48_storage"
      },
      {
        "astId": 377,
        "contract": "src/RebornPortal.sol:RebornPortal",
        "label": "__gap",
        "offset": 0,
        "slot": "101",
        "type": "t_array(t_uint256)50_storage"
      },
      {
        "astId": 692,
        "contract": "src/RebornPortal.sol:RebornPortal",
        "label": "__gap",
        "offset": 0,
        "slot": "151",
        "type": "t_array(t_uint256)50_storage"
      },
      {
        "astId": 8221,
        "contract": "src/RebornPortal.sol:RebornPortal",
        "label": "soupPrice",
        "offset": 0,
        "slot": "201",
        "type": "t_uint256"
      },
      {
        "astId": 8225,
        "contract": "src/RebornPortal.sol:RebornPortal",
        "label": "_priceAndPoint",
        "offset": 0,
        "slot": "202",
        "type": "t_uint256"
      },
      {
        "astId": 8228,
        "contract": "src/RebornPortal.sol:RebornPortal",
        "label": "rebornToken",
        "offset": 0,
        "slot": "203",
        "type": "t_contract(IRebornToken)8442"
      },
      {
        "astId": 8232,
        "contract": "src/RebornPortal.sol:RebornPortal",
        "label": "signers",
        "offset": 0,
        "slot": "204",
        "type": "t_mapping(t_address,t_bool)"
      },
      {
        "astId": 8236,
        "contract": "src/RebornPortal.sol:RebornPortal",
        "label": "rounds",
        "offset": 0,
        "slot": "205",
        "type": "t_mapping(t_address,t_uint16)"
      },
      {
        "astId": 8241,
        "contract": "src/RebornPortal.sol:RebornPortal",
        "label": "details",
        "offset": 0,
        "slot": "206",
        "type": "t_mapping(t_uint256,t_struct(LifeDetail)8293_storage)"
      },
      {
        "astId": 8246,
        "contract": "src/RebornPortal.sol:RebornPortal",
        "label": "pools",
        "offset": 0,
        "slot": "207",
        "type": "t_mapping(t_uint256,t_struct(Pool)8296_storage)"
      },
      {
        "astId": 8253,
        "contract": "src/RebornPortal.sol:RebornPortal",
        "label": "portfolios",
        "offset": 0,
        "slot": "208",
        "type": "t_mapping(t_address,t_mapping(t_uint256,t_struct(Portfolio)8299_storage))"
      },
      {
        "astId": 8258,
        "contract": "src/RebornPortal.sol:RebornPortal",
        "label": "_gap",
        "offset": 0,
        "slot": "209",
        "type": "t_array(t_uint256)42_storage"
      },
      {
        "astId": 4396,
        "contract": "src/RebornPortal.sol:RebornPortal",
        "label": "__gap",
        "offset": 0,
        "slot": "251",
        "type": "t_array(t_uint256)50_storage"
      },
      {
        "astId": 2105,
        "contract": "src/RebornPortal.sol:RebornPortal",
        "label": "_name",
        "offset": 0,
        "slot": "301",
        "type": "t_string_storage"
      },
      {
        "astId": 2107,
        "contract": "src/RebornPortal.sol:RebornPortal",
        "label": "_symbol",
        "offset": 0,
        "slot": "302",
        "type": "t_string_storage"
      },
      {
        "astId": 2111,
        "contract": "src/RebornPortal.sol:RebornPortal",
        "label": "_owners",
        "offset": 0,
        "slot": "303",
        "type": "t_mapping(t_uint256,t_address)"
      },
      {
        "astId": 2115,
        "contract": "src/RebornPortal.sol:RebornPortal",
        "label": "_balances",
        "offset": 0,
        "slot": "304",
        "type": "t_mapping(t_address,t_uint256)"
      },
      {
        "astId": 2119,
        "contract": "src/RebornPortal.sol:RebornPortal",
        "label": "_tokenApprovals",
        "offset": 0,
        "slot": "305",
        "type": "t_mapping(t_uint256,t_address)"
      },
      {
        "astId": 2125,
        "contract": "src/RebornPortal.sol:RebornPortal",
        "label": "_operatorApprovals",
        "offset": 0,
        "slot": "306",
        "type": "t_mapping(t_address,t_mapping(t_address,t_bool))"
      },
      {
        "astId": 3045,
        "contract": "src/RebornPortal.sol:RebornPortal",
        "label": "__gap",
        "offset": 0,
        "slot": "307",
        "type": "t_array(t_uint256)44_storage"
      },
      {
        "astId": 707,
        "contract": "src/RebornPortal.sol:RebornPortal",
        "label": "_status",
        "offset": 0,
        "slot": "351",
        "type": "t_uint256"
      },
      {
        "astId": 765,
        "contract": "src/RebornPortal.sol:RebornPortal",
        "label": "__gap",
        "offset": 0,
        "slot": "352",
        "type": "t_array(t_uint256)49_storage"
      },
      {
        "astId": 8725,
        "contract": "src/RebornPortal.sol:RebornPortal",
        "label": "scores",
        "offset": 0,
        "slot": "401",
        "type": "t_mapping(t_uint256,t_uint256)"
      },
      {
        "astId": 8728,
        "contract": "src/RebornPortal.sol:RebornPortal",
        "label": "ranks",
        "offset": 0,
        "slot": "402",
        "type": "t_struct(Array)8449_storage"
      },
      {
        "astId": 8734,
        "contract": "src/RebornPortal.sol:RebornPortal",
        "label": "idx",
        "offset": 0,
        "slot": "404",
        "type": "t_uint24"
      },
      {
        "astId": 8736,
        "contract": "src/RebornPortal.sol:RebornPortal",
        "label": "minScoreInRank",
        "offset": 0,
        "slot": "405",
        "type": "t_uint256"
      },
      {
        "astId": 8740,
        "contract": "src/RebornPortal.sol:RebornPortal",
        "label": "_gap",
        "offset": 0,
        "slot": "406",
        "type": "t_array(t_uint256)46_storage"
      }
    ],
    "types": {
      "t_address": {
        "encoding": "inplace",
        "label": "address",
        "numberOfBytes": "20"
      },
      "t_array(t_uint256)42_storage": {
        "base": "t_uint256",
        "encoding": "inplace",
        "label": "uint256[42]",
        "numberOfBytes": "1344"
      },
      "t_array(t_uint256)44_storage": {
        "base": "t_uint256",
        "encoding": "inplace",
        "label": "uint256[44]",
        "numberOfBytes": "1408"
      },
      "t_array(t_uint256)46_storage": {
        "base": "t_uint256",
        "encoding": "inplace",
        "label": "uint256[46]",
        "numberOfBytes": "1472"
      },
      "t_array(t_uint256)48_storage": {
        "base": "t_uint256",
        "encoding": "inplace",
        "label": "uint256[48]",
        "numberOfBytes": "1536"
      },
      "t_array(t_uint256)49_storage": {
        "base": "t_uint256",
        "encoding": "inplace",
        "label": "uint256[49]",
        "numberOfBytes": "1568"
      },
      "t_array(t_uint256)50_storage": {
        "base": "t_uint256",
        "encoding": "inplace",
        "label": "uint256[50]",
        "numberOfBytes": "1600"
      },
      "t_bool": {
        "encoding": "inplace",
        "label": "bool",
        "numberOfBytes": "1"
      },
      "t_bytes32": {
        "encoding": "inplace",
        "label": "bytes32",
        "numberOfBytes": "32"
      },
      "t_bytes_storage": {
        "encoding": "bytes",
        "label": "bytes",
        "numberOfBytes": "32"
      },
      "t_contract(IRebornToken)8442": {
        "encoding": "inplace",
        "label": "contract IRebornToken",
        "numberOfBytes": "20"
      },
      "t_mapping(t_address,t_bool)": {
        "encoding": "mapping",
        "key": "t_address",
        "label": "mapping(address => bool)",
        "numberOfBytes": "32",
        "value": "t_bool"
      },
      "t_mapping(t_address,t_mapping(t_address,t_bool))": {
        "encoding": "mapping",
        "key": "t_address",
        "label": "mapping(address => mapping(address => bool))",
        "numberOfBytes": "32",
        "value": "t_mapping(t_address,t_bool)"
      },
      "t_mapping(t_address,t_mapping(t_uint256,t_struct(Portfolio)8299_storage))": {
        "encoding": "mapping",
        "key": "t_address",
        "label": "mapping(address => mapping(uint256 => struct IRebornDefination.Portfolio))",
        "numberOfBytes": "32",
        "value": "t_mapping(t_uint256,t_struct(Portfolio)8299_storage)"
      },
      "t_mapping(t_address,t_uint16)": {
        "encoding": "mapping",
        "key": "t_address",
        "label": "mapping(address => uint16)",
        "numberOfBytes": "32",
        "value": "t_uint16"
      },
      "t_mapping(t_address,t_uint256)": {
        "encoding": "mapping",
        "key": "t_address",
        "label": "mapping(address => uint256)",
        "numberOfBytes": "32",
        "value": "t_uint256"
      },
      "t_mapping(t_uint256,t_address)": {
        "encoding": "mapping",
        "key": "t_uint256",
        "label": "mapping(uint256 => address)",
        "numberOfBytes": "32",
        "value": "t_address"
      },
      "t_mapping(t_uint256,t_struct(LifeDetail)8293_storage)": {
        "encoding": "mapping",
        "key": "t_uint256",
        "label": "mapping(uint256 => struct IRebornDefination.LifeDetail)",
        "numberOfBytes": "32",
        "value": "t_struct(LifeDetail)8293_storage"
      },
      "t_mapping(t_uint256,t_struct(Pool)8296_storage)": {
        "encoding": "mapping",
        "key": "t_uint256",
        "label": "mapping(uint256 => struct IRebornDefination.Pool)",
        "numberOfBytes": "32",
        "value": "t_struct(Pool)8296_storage"
      },
      "t_mapping(t_uint256,t_struct(Portfolio)8299_storage)": {
        "encoding": "mapping",
        "key": "t_uint256",
        "label": "mapping(uint256 => struct IRebornDefination.Portfolio)",
        "numberOfBytes": "32",
        "value": "t_struct(Portfolio)8299_storage"
      },
      "t_mapping(t_uint256,t_uint256)": {
        "encoding": "mapping",
        "key": "t_uint256",
        "label": "mapping(uint256 => uint256)",
        "numberOfBytes": "32",
        "value": "t_uint256"
      },
      "t_string_storage": {
        "encoding": "bytes",
        "label": "string",
        "numberOfBytes": "32"
      },
      "t_struct(Array)8449_storage": {
        "encoding": "inplace",
        "label": "struct CompactArray.Array",
        "members": [
          {
            "astId": 8446,
            "contract": "src/RebornPortal.sol:RebornPortal",
            "label": "_data",
            "offset": 0,
            "slot": "0",
            "type": "t_bytes_storage"
          },
          {
            "astId": 8448,
            "contract": "src/RebornPortal.sol:RebornPortal",
            "label": "length",
            "offset": 0,
            "slot": "1",
            "type": "t_uint256"
          }
        ],
        "numberOfBytes": "64"
      },
      "t_struct(LifeDetail)8293_storage": {
        "encoding": "inplace",
        "label": "struct IRebornDefination.LifeDetail",
        "members": [
          {
            "astId": 8280,
            "contract": "src/RebornPortal.sol:RebornPortal",
            "label": "seed",
            "offset": 0,
            "slot": "0",
            "type": "t_bytes32"
          },
          {
            "astId": 8282,
            "contract": "src/RebornPortal.sol:RebornPortal",
            "label": "creator",
            "offset": 0,
            "slot": "1",
            "type": "t_address"
          },
          {
            "astId": 8284,
            "contract": "src/RebornPortal.sol:RebornPortal",
            "label": "age",
            "offset": 20,
            "slot": "1",
            "type": "t_uint16"
          },
          {
            "astId": 8286,
            "contract": "src/RebornPortal.sol:RebornPortal",
            "label": "round",
            "offset": 22,
            "slot": "1",
            "type": "t_uint16"
          },
          {
            "astId": 8288,
            "contract": "src/RebornPortal.sol:RebornPortal",
            "label": "nothing",
            "offset": 24,
            "slot": "1",
            "type": "t_uint64"
          },
          {
            "astId": 8290,
            "contract": "src/RebornPortal.sol:RebornPortal",
            "label": "cost",
            "offset": 0,
            "slot": "2",
            "type": "t_uint128"
          },
          {
            "astId": 8292,
            "contract": "src/RebornPortal.sol:RebornPortal",
            "label": "reward",
            "offset": 16,
            "slot": "2",
            "type": "t_uint128"
          }
        ],
        "numberOfBytes": "96"
      },
      "t_struct(Pool)8296_storage": {
        "encoding": "inplace",
        "label": "struct IRebornDefination.Pool",
        "members": [
          {
            "astId": 8295,
            "contract": "src/RebornPortal.sol:RebornPortal",
            "label": "totalAmount",
            "offset": 0,
            "slot": "0",
            "type": "t_uint256"
          }
        ],
        "numberOfBytes": "32"
      },
      "t_struct(Portfolio)8299_storage": {
        "encoding": "inplace",
        "label": "struct IRebornDefination.Portfolio",
        "members": [
          {
            "astId": 8298,
            "contract": "src/RebornPortal.sol:RebornPortal",
            "label": "accumulativeAmount",
            "offset": 0,
            "slot": "0",
            "type": "t_uint256"
          }
        ],
        "numberOfBytes": "32"
      },
      "t_uint128": {
        "encoding": "inplace",
        "label": "uint128",
        "numberOfBytes": "16"
      },
      "t_uint16": {
        "encoding": "inplace",
        "label": "uint16",
        "numberOfBytes": "2"
      },
      "t_uint24": {
        "encoding": "inplace",
        "label": "uint24",
        "numberOfBytes": "3"
      },
      "t_uint256": {
        "encoding": "inplace",
        "label": "uint256",
        "numberOfBytes": "32"
      },
      "t_uint64": {
        "encoding": "inplace",
        "label": "uint64",
        "numberOfBytes": "8"
      },
      "t_uint8": {
        "encoding": "inplace",
        "label": "uint8",
        "numberOfBytes": "1"
      }
    }
  }
}