{
  "address": "0x6a47d7B44acc3C1438E83444cc5Fc0946888f300",
  "abi": [
    {
      "inputs": [],
      "name": "CallerNotOwner",
      "type": "error"
    },
    {
      "inputs": [],
      "name": "CallerNotPendingOwner",
      "type": "error"
    },
    {
      "inputs": [],
      "name": "DropOff",
      "type": "error"
    },
    {
      "inputs": [],
      "name": "InsufficientAmount",
      "type": "error"
    },
    {
      "inputs": [
        {
          "internalType": "uint256",
          "name": "",
          "type": "uint256"
        }
      ],
      "name": "InvalidRequestId",
      "type": "error"
    },
    {
      "inputs": [],
      "name": "NotSetBurnPoolAddress",
      "type": "error"
    },
    {
      "inputs": [],
      "name": "NotSigner",
      "type": "error"
    },
    {
      "inputs": [
        {
          "internalType": "address",
          "name": "have",
          "type": "address"
        },
        {
          "internalType": "address",
          "name": "want",
          "type": "address"
        }
      ],
      "name": "OnlyCoordinatorCanFulfill",
      "type": "error"
    },
    {
      "inputs": [],
      "name": "OnlySimulatedBackend",
      "type": "error"
    },
    {
      "inputs": [],
      "name": "SameSeed",
      "type": "error"
    },
    {
      "inputs": [],
      "name": "SwitchAmountExceedBalance",
      "type": "error"
    },
    {
      "inputs": [],
      "name": "ZeroAddressCoordinatorSet",
      "type": "error"
    },
    {
      "inputs": [],
      "name": "ZeroAddressOwnerSet",
      "type": "error"
    },
    {
      "inputs": [],
      "name": "ZeroAddressSet",
      "type": "error"
    },
    {
      "anonymous": false,
      "inputs": [
        {
          "indexed": false,
          "internalType": "address",
          "name": "previousAdmin",
          "type": "address"
        },
        {
          "indexed": false,
          "internalType": "address",
          "name": "newAdmin",
          "type": "address"
        }
      ],
      "name": "AdminChanged",
      "type": "event"
    },
    {
      "anonymous": false,
      "inputs": [
        {
          "indexed": true,
          "internalType": "address",
          "name": "owner",
          "type": "address"
        },
        {
          "indexed": true,
          "internalType": "address",
          "name": "approved",
          "type": "address"
        },
        {
          "indexed": true,
          "internalType": "uint256",
          "name": "tokenId",
          "type": "uint256"
        }
      ],
      "name": "Approval",
      "type": "event"
    },
    {
      "anonymous": false,
      "inputs": [
        {
          "indexed": true,
          "internalType": "address",
          "name": "owner",
          "type": "address"
        },
        {
          "indexed": true,
          "internalType": "address",
          "name": "operator",
          "type": "address"
        },
        {
          "indexed": false,
          "internalType": "bool",
          "name": "approved",
          "type": "bool"
        }
      ],
      "name": "ApprovalForAll",
      "type": "event"
    },
    {
      "anonymous": false,
      "inputs": [
        {
          "indexed": true,
          "internalType": "address",
          "name": "user",
          "type": "address"
        },
        {
          "indexed": false,
          "internalType": "uint256",
          "name": "amount",
          "type": "uint256"
        }
      ],
      "name": "Baptise",
      "type": "event"
    },
    {
      "anonymous": false,
      "inputs": [
        {
          "indexed": true,
          "internalType": "address",
          "name": "beacon",
          "type": "address"
        }
      ],
      "name": "BeaconUpgraded",
      "type": "event"
    },
    {
      "anonymous": false,
      "inputs": [
        {
          "indexed": true,
          "internalType": "address",
          "name": "account",
          "type": "address"
        },
        {
          "indexed": false,
          "internalType": "uint256",
          "name": "tokenId",
          "type": "uint256"
        },
        {
          "indexed": false,
          "internalType": "uint256",
          "name": "amount",
          "type": "uint256"
        }
      ],
      "name": "DecreaseFromPool",
      "type": "event"
    },
    {
      "anonymous": false,
      "inputs": [
        {
          "indexed": false,
          "internalType": "uint256[]",
          "name": "tokenIds",
          "type": "uint256[]"
        }
      ],
      "name": "Drop",
      "type": "event"
    },
    {
      "anonymous": false,
      "inputs": [
        {
          "indexed": true,
          "internalType": "address",
          "name": "user",
          "type": "address"
        },
        {
          "indexed": true,
          "internalType": "uint256",
          "name": "tokenId",
          "type": "uint256"
        },
        {
          "indexed": false,
          "internalType": "uint256",
          "name": "amount",
          "type": "uint256"
        }
      ],
      "name": "Dry",
      "type": "event"
    },
    {
      "anonymous": false,
      "inputs": [
        {
          "indexed": true,
          "internalType": "bytes32",
          "name": "seed",
          "type": "bytes32"
        },
        {
          "indexed": true,
          "internalType": "address",
          "name": "user",
          "type": "address"
        },
        {
          "indexed": true,
          "internalType": "uint256",
          "name": "tokenId",
          "type": "uint256"
        },
        {
          "indexed": false,
          "internalType": "uint256",
          "name": "score",
          "type": "uint256"
        },
        {
          "indexed": false,
          "internalType": "uint256",
          "name": "reward",
          "type": "uint256"
        }
      ],
      "name": "Engrave",
      "type": "event"
    },
    {
      "anonymous": false,
      "inputs": [
        {
          "indexed": true,
          "internalType": "address",
          "name": "user",
          "type": "address"
        },
        {
          "indexed": true,
          "internalType": "uint256",
          "name": "talentPrice",
          "type": "uint256"
        },
        {
          "indexed": true,
          "internalType": "uint256",
          "name": "PropertyPrice",
          "type": "uint256"
        },
        {
          "indexed": false,
          "internalType": "uint256",
          "name": "soupPrice",
          "type": "uint256"
        }
      ],
      "name": "Incarnate",
      "type": "event"
    },
    {
      "anonymous": false,
      "inputs": [
        {
          "indexed": true,
          "internalType": "address",
          "name": "account",
          "type": "address"
        },
        {
          "indexed": false,
          "internalType": "uint256",
          "name": "tokenId",
          "type": "uint256"
        },
        {
          "indexed": false,
          "internalType": "uint256",
          "name": "amount",
          "type": "uint256"
        }
      ],
      "name": "IncreaseToPool",
      "type": "event"
    },
    {
      "anonymous": false,
      "inputs": [
        {
          "indexed": true,
          "internalType": "address",
          "name": "user",
          "type": "address"
        },
        {
          "indexed": true,
          "internalType": "uint256",
          "name": "tokenId",
          "type": "uint256"
        },
        {
          "indexed": false,
          "internalType": "uint256",
          "name": "amount",
          "type": "uint256"
        }
      ],
      "name": "Infuse",
      "type": "event"
    },
    {
      "anonymous": false,
      "inputs": [
        {
          "indexed": false,
          "internalType": "uint8",
          "name": "version",
          "type": "uint8"
        }
      ],
      "name": "Initialized",
      "type": "event"
    },
    {
      "anonymous": false,
      "inputs": [
        {
          "indexed": false,
          "internalType": "uint256",
          "name": "",
          "type": "uint256"
        }
      ],
      "name": "NewSeason",
      "type": "event"
    },
    {
      "anonymous": false,
      "inputs": [
        {
          "indexed": false,
          "internalType": "uint256",
          "name": "price",
          "type": "uint256"
        }
      ],
      "name": "NewSoupPrice",
      "type": "event"
    },
    {
      "anonymous": false,
      "inputs": [
        {
          "indexed": true,
          "internalType": "address",
          "name": "previousOwner",
          "type": "address"
        },
        {
          "indexed": true,
          "internalType": "address",
          "name": "newOwner",
          "type": "address"
        }
      ],
      "name": "OwnershipTransferred",
      "type": "event"
    },
    {
      "anonymous": false,
      "inputs": [
        {
          "indexed": false,
          "internalType": "address",
          "name": "account",
          "type": "address"
        }
      ],
      "name": "Paused",
      "type": "event"
    },
    {
      "anonymous": false,
      "inputs": [
        {
          "indexed": false,
          "internalType": "address",
          "name": "referee",
          "type": "address"
        },
        {
          "indexed": false,
          "internalType": "address",
          "name": "referrer",
          "type": "address"
        }
      ],
      "name": "Refer",
      "type": "event"
    },
    {
      "anonymous": false,
      "inputs": [
        {
          "indexed": true,
          "internalType": "address",
          "name": "from",
          "type": "address"
        },
        {
          "indexed": true,
          "internalType": "address",
          "name": "to",
          "type": "address"
        },
        {
          "indexed": true,
          "internalType": "uint256",
          "name": "tokenId",
          "type": "uint256"
        }
      ],
      "name": "Transfer",
      "type": "event"
    },
    {
      "anonymous": false,
      "inputs": [
        {
          "indexed": false,
          "internalType": "address",
          "name": "account",
          "type": "address"
        }
      ],
      "name": "Unpaused",
      "type": "event"
    },
    {
      "anonymous": false,
      "inputs": [
        {
          "indexed": true,
          "internalType": "address",
          "name": "implementation",
          "type": "address"
        }
      ],
      "name": "Upgraded",
      "type": "event"
    },
    {
      "inputs": [
        {
          "internalType": "address",
          "name": "to",
          "type": "address"
        },
        {
          "internalType": "uint256",
          "name": "tokenId",
          "type": "uint256"
        }
      ],
      "name": "approve",
      "outputs": [],
      "stateMutability": "nonpayable",
      "type": "function"
    },
    {
      "inputs": [
        {
          "internalType": "address",
          "name": "owner",
          "type": "address"
        }
      ],
      "name": "balanceOf",
      "outputs": [
        {
          "internalType": "uint256",
          "name": "",
          "type": "uint256"
        }
      ],
      "stateMutability": "view",
      "type": "function"
    },
    {
      "inputs": [
        {
          "internalType": "address",
          "name": "user",
          "type": "address"
        },
        {
          "internalType": "uint256",
          "name": "amount",
          "type": "uint256"
        }
      ],
      "name": "baptise",
      "outputs": [],
      "stateMutability": "nonpayable",
      "type": "function"
    },
    {
      "inputs": [
        {
          "internalType": "uint256",
          "name": "amount",
          "type": "uint256"
        }
      ],
      "name": "burnFromBurnPool",
      "outputs": [],
      "stateMutability": "nonpayable",
      "type": "function"
    },
    {
      "inputs": [],
      "name": "burnPool",
      "outputs": [
        {
          "internalType": "address",
          "name": "",
          "type": "address"
        }
      ],
      "stateMutability": "view",
      "type": "function"
    },
    {
      "inputs": [
        {
          "internalType": "address",
          "name": "account",
          "type": "address"
        },
        {
          "internalType": "uint256",
          "name": "amount",
          "type": "uint256"
        },
        {
          "internalType": "enum PortalLib.RewardType",
          "name": "rewardType",
          "type": "uint8"
        }
      ],
      "name": "calculateReferReward",
      "outputs": [
        {
          "internalType": "address",
          "name": "ref1",
          "type": "address"
        },
        {
          "internalType": "uint256",
          "name": "ref1Reward",
          "type": "uint256"
        },
        {
          "internalType": "address",
          "name": "ref2",
          "type": "address"
        },
        {
          "internalType": "uint256",
          "name": "ref2Reward",
          "type": "uint256"
        }
      ],
      "stateMutability": "view",
      "type": "function"
    },
    {
      "inputs": [
        {
          "internalType": "bytes",
          "name": "",
          "type": "bytes"
        }
      ],
      "name": "checkUpkeep",
      "outputs": [
        {
          "internalType": "bool",
          "name": "upkeepNeeded",
          "type": "bool"
        },
        {
          "internalType": "bytes",
          "name": "performData",
          "type": "bytes"
        }
      ],
      "stateMutability": "view",
      "type": "function"
    },
    {
      "inputs": [
        {
          "internalType": "uint256[]",
          "name": "tokenIds",
          "type": "uint256[]"
        }
      ],
      "name": "claimDrops",
      "outputs": [],
      "stateMutability": "nonpayable",
      "type": "function"
    },
    {
      "inputs": [
        {
          "internalType": "uint256[]",
          "name": "tokenIds",
          "type": "uint256[]"
        }
      ],
      "name": "claimNativeDrops",
      "outputs": [],
      "stateMutability": "nonpayable",
      "type": "function"
    },
    {
      "inputs": [],
      "name": "claimOwnership",
      "outputs": [],
      "stateMutability": "nonpayable",
      "type": "function"
    },
    {
      "inputs": [
        {
          "internalType": "uint256[]",
          "name": "tokenIds",
          "type": "uint256[]"
        }
      ],
      "name": "claimRebornDrops",
      "outputs": [],
      "stateMutability": "nonpayable",
      "type": "function"
    },
    {
      "inputs": [
        {
          "internalType": "uint256",
          "name": "",
          "type": "uint256"
        }
      ],
      "name": "details",
      "outputs": [
        {
          "internalType": "bytes32",
          "name": "seed",
          "type": "bytes32"
        },
        {
          "internalType": "address",
          "name": "creator",
          "type": "address"
        },
        {
          "internalType": "uint16",
          "name": "age",
          "type": "uint16"
        },
        {
          "internalType": "uint32",
          "name": "round",
          "type": "uint32"
        },
        {
          "internalType": "uint48",
          "name": "nothing",
          "type": "uint48"
        },
        {
          "internalType": "uint128",
          "name": "cost",
          "type": "uint128"
        },
        {
          "internalType": "uint128",
          "name": "reward",
          "type": "uint128"
        },
        {
          "internalType": "uint256",
          "name": "score",
          "type": "uint256"
        },
        {
          "internalType": "string",
          "name": "creatorName",
          "type": "string"
        }
      ],
      "stateMutability": "view",
      "type": "function"
    },
    {
      "inputs": [
        {
          "internalType": "bytes32",
          "name": "seed",
          "type": "bytes32"
        },
        {
          "internalType": "address",
          "name": "user",
          "type": "address"
        },
        {
          "internalType": "uint256",
          "name": "reward",
          "type": "uint256"
        },
        {
          "internalType": "uint256",
          "name": "score",
          "type": "uint256"
        },
        {
          "internalType": "uint256",
          "name": "age",
          "type": "uint256"
        },
        {
          "internalType": "uint256",
          "name": "cost",
          "type": "uint256"
        },
        {
          "internalType": "string",
          "name": "creatorName",
          "type": "string"
        }
      ],
      "name": "engrave",
      "outputs": [],
      "stateMutability": "nonpayable",
      "type": "function"
    },
    {
      "inputs": [
        {
          "internalType": "uint256",
          "name": "tokenId",
          "type": "uint256"
        }
      ],
      "name": "getApproved",
      "outputs": [
        {
          "internalType": "address",
          "name": "",
          "type": "address"
        }
      ],
      "stateMutability": "view",
      "type": "function"
    },
    {
      "inputs": [
        {
          "internalType": "uint256",
          "name": "tokenId",
          "type": "uint256"
        }
      ],
      "name": "getPool",
      "outputs": [
        {
          "components": [
            {
              "internalType": "uint256",
              "name": "totalAmount",
              "type": "uint256"
            },
            {
              "internalType": "uint256",
              "name": "accRebornPerShare",
              "type": "uint256"
            },
            {
              "internalType": "uint256",
              "name": "accNativePerShare",
              "type": "uint256"
            },
            {
              "internalType": "uint256",
              "name": "epoch",
              "type": "uint256"
            },
            {
              "internalType": "uint256",
              "name": "lastUpdated",
              "type": "uint256"
            }
          ],
          "internalType": "struct PortalLib.Pool",
          "name": "",
          "type": "tuple"
        }
      ],
      "stateMutability": "view",
      "type": "function"
    },
    {
      "inputs": [
        {
          "internalType": "address",
          "name": "user",
          "type": "address"
        },
        {
          "internalType": "uint256",
          "name": "tokenId",
          "type": "uint256"
        }
      ],
      "name": "getPortfolio",
      "outputs": [
        {
          "components": [
            {
              "internalType": "uint256",
              "name": "accumulativeAmount",
              "type": "uint256"
            },
            {
              "internalType": "uint256",
              "name": "rebornRewardDebt",
              "type": "uint256"
            },
            {
              "internalType": "uint256",
              "name": "nativeRewardDebt",
              "type": "uint256"
            },
            {
              "internalType": "uint256",
              "name": "pendingOwnerRebornReward",
              "type": "uint256"
            },
            {
              "internalType": "uint256",
              "name": "pendingOwernNativeReward",
              "type": "uint256"
            }
          ],
          "internalType": "struct PortalLib.Portfolio",
          "name": "",
          "type": "tuple"
        }
      ],
      "stateMutability": "view",
      "type": "function"
    },
    {
      "inputs": [
        {
          "internalType": "address",
          "name": "account",
          "type": "address"
        }
      ],
      "name": "getRerferrers",
      "outputs": [
        {
          "internalType": "address",
          "name": "referrer1",
          "type": "address"
        },
        {
          "internalType": "address",
          "name": "referrer2",
          "type": "address"
        }
      ],
      "stateMutability": "view",
      "type": "function"
    },
    {
      "inputs": [
        {
          "components": [
            {
              "internalType": "uint256",
              "name": "talentPrice",
              "type": "uint256"
            },
            {
              "internalType": "uint256",
              "name": "propertyPrice",
              "type": "uint256"
            }
          ],
          "internalType": "struct IRebornDefination.Innate",
          "name": "innate",
          "type": "tuple"
        },
        {
          "internalType": "address",
          "name": "referrer",
          "type": "address"
        },
        {
          "internalType": "uint256",
          "name": "_soupPrice",
          "type": "uint256"
        }
      ],
      "name": "incarnate",
      "outputs": [],
      "stateMutability": "payable",
      "type": "function"
    },
    {
      "inputs": [
        {
          "internalType": "uint256",
          "name": "tokenId",
          "type": "uint256"
        },
        {
          "internalType": "uint256",
          "name": "amount",
          "type": "uint256"
        },
        {
          "internalType": "uint256",
          "name": "permitAmount",
          "type": "uint256"
        },
        {
          "internalType": "uint256",
          "name": "deadline",
          "type": "uint256"
        },
        {
          "internalType": "bytes32",
          "name": "r",
          "type": "bytes32"
        },
        {
          "internalType": "bytes32",
          "name": "s",
          "type": "bytes32"
        },
        {
          "internalType": "uint8",
          "name": "v",
          "type": "uint8"
        }
      ],
      "name": "infuse",
      "outputs": [],
      "stateMutability": "nonpayable",
      "type": "function"
    },
    {
      "inputs": [
        {
          "internalType": "uint256",
          "name": "tokenId",
          "type": "uint256"
        },
        {
          "internalType": "uint256",
          "name": "amount",
          "type": "uint256"
        }
      ],
      "name": "infuse",
      "outputs": [],
      "stateMutability": "nonpayable",
      "type": "function"
    },
    {
      "inputs": [
        {
          "internalType": "contract RBT",
          "name": "rebornToken_",
          "type": "address"
        },
        {
          "internalType": "address",
          "name": "owner_",
          "type": "address"
        },
        {
          "internalType": "string",
          "name": "name_",
          "type": "string"
        },
        {
          "internalType": "string",
          "name": "symbol_",
          "type": "string"
        },
        {
          "internalType": "address",
          "name": "_vrfCoordinator",
          "type": "address"
        }
      ],
      "name": "initialize",
      "outputs": [],
      "stateMutability": "nonpayable",
      "type": "function"
    },
    {
      "inputs": [
        {
          "internalType": "address",
          "name": "owner",
          "type": "address"
        },
        {
          "internalType": "address",
          "name": "operator",
          "type": "address"
        }
      ],
      "name": "isApprovedForAll",
      "outputs": [
        {
          "internalType": "bool",
          "name": "",
          "type": "bool"
        }
      ],
      "stateMutability": "view",
      "type": "function"
    },
    {
      "inputs": [],
      "name": "name",
      "outputs": [
        {
          "internalType": "string",
          "name": "",
          "type": "string"
        }
      ],
      "stateMutability": "view",
      "type": "function"
    },
    {
      "inputs": [],
      "name": "owner",
      "outputs": [
        {
          "internalType": "address",
          "name": "",
          "type": "address"
        }
      ],
      "stateMutability": "view",
      "type": "function"
    },
    {
      "inputs": [
        {
          "internalType": "uint256",
          "name": "tokenId",
          "type": "uint256"
        }
      ],
      "name": "ownerOf",
      "outputs": [
        {
          "internalType": "address",
          "name": "",
          "type": "address"
        }
      ],
      "stateMutability": "view",
      "type": "function"
    },
    {
      "inputs": [],
      "name": "pause",
      "outputs": [],
      "stateMutability": "nonpayable",
      "type": "function"
    },
    {
      "inputs": [],
      "name": "paused",
      "outputs": [
        {
          "internalType": "bool",
          "name": "",
          "type": "bool"
        }
      ],
      "stateMutability": "view",
      "type": "function"
    },
    {
      "inputs": [
        {
          "internalType": "uint256[]",
          "name": "tokenIds",
          "type": "uint256[]"
        }
      ],
      "name": "pendingDrop",
      "outputs": [
        {
          "internalType": "uint256",
          "name": "pNative",
          "type": "uint256"
        },
        {
          "internalType": "uint256",
          "name": "pReborn",
          "type": "uint256"
        }
      ],
      "stateMutability": "view",
      "type": "function"
    },
    {
      "inputs": [],
      "name": "pendingOwner",
      "outputs": [
        {
          "internalType": "address",
          "name": "",
          "type": "address"
        }
      ],
      "stateMutability": "view",
      "type": "function"
    },
    {
      "inputs": [
        {
          "internalType": "bytes",
          "name": "performData",
          "type": "bytes"
        }
      ],
      "name": "performUpkeep",
      "outputs": [],
      "stateMutability": "nonpayable",
      "type": "function"
    },
    {
      "inputs": [],
      "name": "proxiableUUID",
      "outputs": [
        {
          "internalType": "bytes32",
          "name": "",
          "type": "bytes32"
        }
      ],
      "stateMutability": "view",
      "type": "function"
    },
    {
      "inputs": [
        {
          "internalType": "uint256",
          "name": "requestId",
          "type": "uint256"
        },
        {
          "internalType": "uint256[]",
          "name": "randomWords",
          "type": "uint256[]"
        }
      ],
      "name": "rawFulfillRandomWords",
      "outputs": [],
      "stateMutability": "nonpayable",
      "type": "function"
    },
    {
      "inputs": [],
      "name": "rebornToken",
      "outputs": [
        {
          "internalType": "contract RBT",
          "name": "",
          "type": "address"
        }
      ],
      "stateMutability": "view",
      "type": "function"
    },
    {
      "inputs": [
        {
          "internalType": "address",
          "name": "",
          "type": "address"
        }
      ],
      "name": "referrals",
      "outputs": [
        {
          "internalType": "address",
          "name": "",
          "type": "address"
        }
      ],
      "stateMutability": "view",
      "type": "function"
    },
    {
      "inputs": [],
      "name": "renounceOwnership",
      "outputs": [],
      "stateMutability": "nonpayable",
      "type": "function"
    },
    {
      "inputs": [],
      "name": "rewardFees",
      "outputs": [
        {
          "internalType": "uint16",
          "name": "incarnateRef1Fee",
          "type": "uint16"
        },
        {
          "internalType": "uint16",
          "name": "incarnateRef2Fee",
          "type": "uint16"
        },
        {
          "internalType": "uint16",
          "name": "vaultRef1Fee",
          "type": "uint16"
        },
        {
          "internalType": "uint16",
          "name": "vaultRef2Fee",
          "type": "uint16"
        },
        {
          "internalType": "uint192",
          "name": "_slotPlaceholder",
          "type": "uint192"
        }
      ],
      "stateMutability": "view",
      "type": "function"
    },
    {
      "inputs": [
        {
          "internalType": "address",
          "name": "from",
          "type": "address"
        },
        {
          "internalType": "address",
          "name": "to",
          "type": "address"
        },
        {
          "internalType": "uint256",
          "name": "tokenId",
          "type": "uint256"
        }
      ],
      "name": "safeTransferFrom",
      "outputs": [],
      "stateMutability": "nonpayable",
      "type": "function"
    },
    {
      "inputs": [
        {
          "internalType": "address",
          "name": "from",
          "type": "address"
        },
        {
          "internalType": "address",
          "name": "to",
          "type": "address"
        },
        {
          "internalType": "uint256",
          "name": "tokenId",
          "type": "uint256"
        },
        {
          "internalType": "bytes",
          "name": "data",
          "type": "bytes"
        }
      ],
      "name": "safeTransferFrom",
      "outputs": [],
      "stateMutability": "nonpayable",
      "type": "function"
    },
    {
      "inputs": [
        {
          "internalType": "bytes32",
          "name": "seed",
          "type": "bytes32"
        }
      ],
      "name": "seedExists",
      "outputs": [
        {
          "internalType": "bool",
          "name": "",
          "type": "bool"
        }
      ],
      "stateMutability": "view",
      "type": "function"
    },
    {
      "inputs": [
        {
          "internalType": "address",
          "name": "operator",
          "type": "address"
        },
        {
          "internalType": "bool",
          "name": "approved",
          "type": "bool"
        }
      ],
      "name": "setApprovalForAll",
      "outputs": [],
      "stateMutability": "nonpayable",
      "type": "function"
    },
    {
      "inputs": [
        {
          "internalType": "address",
          "name": "burnPool_",
          "type": "address"
        }
      ],
      "name": "setBurnPool",
      "outputs": [],
      "stateMutability": "nonpayable",
      "type": "function"
    },
    {
      "inputs": [
        {
          "components": [
            {
              "internalType": "uint8",
              "name": "_dropOn",
              "type": "uint8"
            },
            {
              "internalType": "uint40",
              "name": "_rebornDropInterval",
              "type": "uint40"
            },
            {
              "internalType": "uint40",
              "name": "_nativeDropInterval",
              "type": "uint40"
            },
            {
              "internalType": "uint40",
              "name": "_rebornDropLastUpdate",
              "type": "uint40"
            },
            {
              "internalType": "uint40",
              "name": "_nativeDropLastUpdate",
              "type": "uint40"
            },
            {
              "internalType": "uint16",
              "name": "_nativeDropRatio",
              "type": "uint16"
            },
            {
              "internalType": "uint72",
              "name": "_rebornDropEthAmount",
              "type": "uint72"
            }
          ],
          "internalType": "struct PortalLib.AirdropConf",
          "name": "conf",
          "type": "tuple"
        }
      ],
      "name": "setDropConf",
      "outputs": [],
      "stateMutability": "nonpayable",
      "type": "function"
    },
    {
      "inputs": [
        {
          "internalType": "uint16",
          "name": "refL1Fee",
          "type": "uint16"
        },
        {
          "internalType": "uint16",
          "name": "refL2Fee",
          "type": "uint16"
        },
        {
          "internalType": "enum PortalLib.RewardType",
          "name": "rewardType",
          "type": "uint8"
        }
      ],
      "name": "setReferrerRewardFee",
      "outputs": [],
      "stateMutability": "nonpayable",
      "type": "function"
    },
    {
      "inputs": [
        {
          "internalType": "contract RewardVault",
          "name": "vault_",
          "type": "address"
        }
      ],
      "name": "setVault",
      "outputs": [],
      "stateMutability": "nonpayable",
      "type": "function"
    },
    {
      "inputs": [
        {
          "components": [
            {
              "internalType": "bytes32",
              "name": "keyHash",
              "type": "bytes32"
            },
            {
              "internalType": "uint64",
              "name": "s_subscriptionId",
              "type": "uint64"
            },
            {
              "internalType": "uint32",
              "name": "callbackGasLimit",
              "type": "uint32"
            },
            {
              "internalType": "uint32",
              "name": "numWords",
              "type": "uint32"
            },
            {
              "internalType": "uint16",
              "name": "requestConfirmations",
              "type": "uint16"
            }
          ],
          "internalType": "struct PortalLib.VrfConf",
          "name": "conf",
          "type": "tuple"
        }
      ],
      "name": "setVrfConf",
      "outputs": [],
      "stateMutability": "nonpayable",
      "type": "function"
    },
    {
      "inputs": [
        {
          "internalType": "address",
          "name": "",
          "type": "address"
        }
      ],
      "name": "signers",
      "outputs": [
        {
          "internalType": "bool",
          "name": "",
          "type": "bool"
        }
      ],
      "stateMutability": "view",
      "type": "function"
    },
    {
      "inputs": [
        {
          "internalType": "bytes4",
          "name": "interfaceId",
          "type": "bytes4"
        }
      ],
      "name": "supportsInterface",
      "outputs": [
        {
          "internalType": "bool",
          "name": "",
          "type": "bool"
        }
      ],
      "stateMutability": "view",
      "type": "function"
    },
    {
      "inputs": [
        {
          "internalType": "uint256",
          "name": "fromTokenId",
          "type": "uint256"
        },
        {
          "internalType": "uint256",
          "name": "toTokenId",
          "type": "uint256"
        },
        {
          "internalType": "uint256",
          "name": "amount",
          "type": "uint256"
        }
      ],
      "name": "switchPool",
      "outputs": [],
      "stateMutability": "nonpayable",
      "type": "function"
    },
    {
      "inputs": [],
      "name": "symbol",
      "outputs": [
        {
          "internalType": "string",
          "name": "",
          "type": "string"
        }
      ],
      "stateMutability": "view",
      "type": "function"
    },
    {
      "inputs": [],
      "name": "toNextSeason",
      "outputs": [],
      "stateMutability": "nonpayable",
      "type": "function"
    },
    {
      "inputs": [
        {
          "internalType": "uint256",
          "name": "tokenId",
          "type": "uint256"
        }
      ],
      "name": "tokenURI",
      "outputs": [
        {
          "internalType": "string",
          "name": "",
          "type": "string"
        }
      ],
      "stateMutability": "view",
      "type": "function"
    },
    {
      "inputs": [
        {
          "internalType": "address",
          "name": "from",
          "type": "address"
        },
        {
          "internalType": "address",
          "name": "to",
          "type": "address"
        },
        {
          "internalType": "uint256",
          "name": "tokenId",
          "type": "uint256"
        }
      ],
      "name": "transferFrom",
      "outputs": [],
      "stateMutability": "nonpayable",
      "type": "function"
    },
    {
      "inputs": [
        {
          "internalType": "address",
          "name": "newOwner",
          "type": "address"
        },
        {
          "internalType": "bool",
          "name": "direct",
          "type": "bool"
        }
      ],
      "name": "transferOwnership",
      "outputs": [],
      "stateMutability": "nonpayable",
      "type": "function"
    },
    {
      "inputs": [],
      "name": "unPause",
      "outputs": [],
      "stateMutability": "nonpayable",
      "type": "function"
    },
    {
      "inputs": [
        {
          "internalType": "address[]",
          "name": "toAdd",
          "type": "address[]"
        },
        {
          "internalType": "address[]",
          "name": "toRemove",
          "type": "address[]"
        }
      ],
      "name": "updateSigners",
      "outputs": [],
      "stateMutability": "nonpayable",
      "type": "function"
    },
    {
      "inputs": [
        {
          "internalType": "address",
          "name": "newImplementation",
          "type": "address"
        }
      ],
      "name": "upgradeTo",
      "outputs": [],
      "stateMutability": "nonpayable",
      "type": "function"
    },
    {
      "inputs": [
        {
          "internalType": "address",
          "name": "newImplementation",
          "type": "address"
        },
        {
          "internalType": "bytes",
          "name": "data",
          "type": "bytes"
        }
      ],
      "name": "upgradeToAndCall",
      "outputs": [],
      "stateMutability": "payable",
      "type": "function"
    },
    {
      "inputs": [],
      "name": "vault",
      "outputs": [
        {
          "internalType": "contract RewardVault",
          "name": "",
          "type": "address"
        }
      ],
      "stateMutability": "view",
      "type": "function"
    },
    {
      "inputs": [
        {
          "internalType": "uint256",
          "name": "amount",
          "type": "uint256"
        }
      ],
      "name": "withdrawNativeToken",
      "outputs": [],
      "stateMutability": "nonpayable",
      "type": "function"
    },
    {
      "inputs": [
        {
          "internalType": "address",
          "name": "to",
          "type": "address"
        }
      ],
      "name": "withdrawVault",
      "outputs": [],
      "stateMutability": "nonpayable",
      "type": "function"
    }
  ],
  "transactionHash": "0x001b9216c53f8d75bf7fe27497ede03e441d991c8045750b4b2cc167ffcc744c",
  "args": [],
  "numDeployments": 11,
  "solcInputHash": "88551474ac7d667cbb6243b62e37c485",
  "bytecode": "0x60a06040523060805234801561001457600080fd5b50608051615fe06200004d6000396000818161174a0152818161178a01528181611957015281816119970152611a260152615fe06000f3fe6080604052600436106103975760003560e01c806370a08231116101dc578063a54b2a7311610102578063c87b56dd116100a0578063e985e9c51161006f578063e985e9c514610bcb578063f7b188a514610c15578063fbd7823514610c2a578063fbfa77cf14610c4a57600080fd5b8063c87b56dd14610b4d578063db64008114610b6d578063e30c397814610b8d578063e4421be214610bab57600080fd5b8063b88d4fde116100dc578063b88d4fde14610a94578063b9e53a9f14610ab4578063c3b82b8d14610ac7578063c417db6914610ae757600080fd5b8063a54b2a7314610a3e578063afd5f74714610a5f578063b242e53414610a7457600080fd5b8063918c49e41161017a5780639ca423b3116101495780639ca423b3146109925780639d215042146109c9578063a005ec7a146109e9578063a22cb46514610a1e57600080fd5b8063918c49e41461091d5780639208b21e1461093d57806395d89b411461095d5780639aab85e51461097257600080fd5b8063802e9cfa116101b6578063802e9cfa146108aa5780638456cb59146108ca5780638d47a30d146108df5780638da5cb5b146108ff57600080fd5b806370a0823114610845578063715018a614610865578063736c0d5b1461087a57600080fd5b8063350b2369116102c15780634f1ef2861161025f578063603d08001161022e578063603d0800146107b75780636352211e146107d75780636817031b146107f75780636e04ff0d1461081757600080fd5b80634f1ef2861461074857806352d1902d1461075b57806358c7a0631461077e5780635c975abb1461079e57600080fd5b8063410fa1c41161029b578063410fa1c4146106d357806342842e0e146106f35780634585e33b146107135780634e71e0c81461073357600080fd5b8063350b236914610673578063362925c2146106935780633659cfe6146106b357600080fd5b806316a065c61161033957806323b872dd1161030857806323b872dd1461054f578063282753381461056f5780632bf8e8f61461058f57806332eb808a1461061e57600080fd5b806316a065c6146104cf57806317e0f252146104ef5780631fe543e31461050f57806320dfe3c61461052f57600080fd5b8063081812fc11610375578063081812fc14610420578063095ea7b3146104585780630aaef8021461047a5780630e357a6e146104af57600080fd5b806301ffc9a71461039c578063068bcd8d146103d157806306fdde03146103fe575b600080fd5b3480156103a857600080fd5b506103bc6103b7366004614aa8565b610c6b565b60405190151581526020015b60405180910390f35b3480156103dd57600080fd5b506103f16103ec366004614ac5565b610cbd565b6040516103c89190614ade565b34801561040a57600080fd5b50610413610d4b565b6040516103c89190614b67565b34801561042c57600080fd5b5061044061043b366004614ac5565b610dde565b6040516001600160a01b0390911681526020016103c8565b34801561046457600080fd5b50610478610473366004614b8f565b610e06565b005b34801561048657600080fd5b5061049a610495366004614c8f565b610f20565b604080519283526020830191909152016103c8565b3480156104bb57600080fd5b506103f16104ca366004614b8f565b610fb9565b3480156104db57600080fd5b5060fc54610440906001600160a01b031681565b3480156104fb57600080fd5b5061047861050a366004614ac5565b611059565b34801561051b57600080fd5b5061047861052a366004614cc3565b6110b5565b34801561053b57600080fd5b5061047861054a366004614d4a565b611101565b34801561055b57600080fd5b5061047861056a366004614dcf565b611438565b34801561057b57600080fd5b5061047861058a366004614e54565b611469565b34801561059b57600080fd5b50610103546105e09061ffff8082169162010000810482169164010000000082048116916601000000000000810490911690600160401b90046001600160c01b031685565b6040805161ffff968716815294861660208601529285169284019290925290921660608201526001600160c01b03909116608082015260a0016103c8565b34801561062a57600080fd5b5061063e610639366004614ea9565b6114af565b6040516103c894939291906001600160a01b039485168152602081019390935292166040820152606081019190915260800190565b34801561067f57600080fd5b5061047861068e366004614ee7565b61154a565b34801561069f57600080fd5b506104786106ae366004614fca565b6115eb565b3480156106bf57600080fd5b506104786106ce366004615067565b611740565b3480156106df57600080fd5b506104786106ee366004615084565b61181f565b3480156106ff57600080fd5b5061047861070e366004614dcf565b611895565b34801561071f57600080fd5b5061047861072e36600461509c565b6118b0565b34801561073f57600080fd5b50610478611918565b6104786107563660046150d1565b61194d565b34801561076757600080fd5b50610770611a19565b6040519081526020016103c8565b34801561078a57600080fd5b50610478610799366004614b8f565b611acc565b3480156107aa57600080fd5b506101945460ff166103bc565b3480156107c357600080fd5b506104786107d2366004615067565b611b8a565b3480156107e357600080fd5b506104406107f2366004614ac5565b611bff565b34801561080357600080fd5b50610478610812366004615067565b611c60565b34801561082357600080fd5b5061083761083236600461509c565b611cae565b6040516103c8929190615116565b34801561085157600080fd5b50610770610860366004615067565b611f43565b34801561087157600080fd5b50610478611fca565b34801561088657600080fd5b506103bc610895366004615067565b60fd6020526000908152604090205460ff1681565b3480156108b657600080fd5b506104786108c5366004615067565b611fff565b3480156108d657600080fd5b5061047861208e565b3480156108eb57600080fd5b506104786108fa366004614e54565b6120c1565b34801561090b57600080fd5b506033546001600160a01b0316610440565b34801561092957600080fd5b50610478610938366004615140565b61219e565b34801561094957600080fd5b506104786109583660046151bb565b6121cf565b34801561096957600080fd5b50610413612265565b34801561097e57600080fd5b5061047861098d366004614ac5565b612275565b34801561099e57600080fd5b506104406109ad366004615067565b610102602052600090815260409020546001600160a01b031681565b3480156109d557600080fd5b506104786109e43660046151f9565b6122d2565b3480156109f557600080fd5b50610a09610a04366004614ac5565b61233d565b6040516103c89998979695949392919061520b565b348015610a2a57600080fd5b50610478610a39366004615297565b612442565b348015610a4a57600080fd5b5061010754610440906001600160a01b031681565b348015610a6b57600080fd5b5061047861244d565b348015610a8057600080fd5b50610478610a8f366004615297565b61251a565b348015610aa057600080fd5b50610478610aaf3660046152d0565b61259a565b610478610ac236600461533b565b6125cc565b348015610ad357600080fd5b50610478610ae23660046153b5565b6125fa565b348015610af357600080fd5b50610b2d610b02366004615067565b6001600160a01b03908116600090815261010260205260408082205483168083529120549092911690565b604080516001600160a01b039384168152929091166020830152016103c8565b348015610b5957600080fd5b50610413610b68366004614ac5565b612628565b348015610b7957600080fd5b50610478610b88366004614e54565b6126ab565b348015610b9957600080fd5b506034546001600160a01b0316610440565b348015610bb757600080fd5b50610478610bc63660046153e1565b612776565b348015610bd757600080fd5b506103bc610be6366004615403565b6001600160a01b0391821660009081526101356020908152604080832093909416825291909152205460ff1690565b348015610c2157600080fd5b50610478612791565b348015610c3657600080fd5b506103bc610c45366004614ac5565b6127c4565b348015610c5657600080fd5b5061010454610440906001600160a01b031681565b60006001600160e01b031982166380ac58cd60e01b1480610c9c57506001600160e01b03198216635b5e139f60e01b145b80610cb757506301ffc9a760e01b6001600160e01b03198316145b92915050565b610cef6040518060a0016040528060008152602001600081526020016000815260200160008152602001600081525090565b5060fb5460009081526101016020908152604080832093835292815290829020825160a0810184528154815260018201549281019290925260028101549282019290925260038201546060820152600490910154608082015290565b60606101308054610d5b90615431565b80601f0160208091040260200160405190810160405280929190818152602001828054610d8790615431565b8015610dd45780601f10610da957610100808354040283529160200191610dd4565b820191906000526020600020905b815481529060010190602001808311610db757829003601f168201915b5050505050905090565b6000610de9826127e8565b50600090815261013460205260409020546001600160a01b031690565b6000610e1182611bff565b9050806001600160a01b0316836001600160a01b031603610e835760405162461bcd60e51b815260206004820152602160248201527f4552433732313a20617070726f76616c20746f2063757272656e74206f776e656044820152603960f91b60648201526084015b60405180910390fd5b336001600160a01b0382161480610e9f5750610e9f8133610be6565b610f115760405162461bcd60e51b815260206004820152603d60248201527f4552433732313a20617070726f76652063616c6c6572206973206e6f7420746f60448201527f6b656e206f776e6572206f7220617070726f76656420666f7220616c6c0000006064820152608401610e7a565b610f1b8383612848565b505050565b60fb5460009081526101016020526040808220905163c6533a5360e01b81528291736B1f1019F8dFe7b67f7d5A7B7c64B7eD4122F98f9163c6533a5391610f7091600182019088906004016154a0565b6040805180830381865af4158015610f8c573d6000803e3d6000fd5b505050506040513d601f19601f82011682018060405250810190610fb091906154bf565b91509150915091565b610feb6040518060a0016040528060008152602001600081526020016000815260200160008152602001600081525090565b5060fb546000908152610101602090815260408083206001600160a01b038616845260019081018352818420858552835292819020815160a0810183528154815293810154928401929092526002820154908301526003810154606083015260040154608082015292915050565b6033546001600160a01b0316331461108457604051632e6c18c960e11b815260040160405180910390fd5b604051339082156108fc029083906000818181858888f193505050501580156110b1573d6000803e3d6000fd5b5050565b6101c6546001600160a01b031633146110f7576101c65460405163073e64fd60e21b81523360048201526001600160a01b039091166024820152604401610e7a565b6110b182826128b7565b61110961293e565b61111161296e565b600888901c60009081526101056020526040902054600160ff8a161b161561114c57604051630490d63160e01b815260040160405180910390fd5b600888901c6000908152610105602052604081208054600160ff8c161b17905561117e46670de0b6b3a76400006154f9565b60ff6000815461118d90615510565b918290555061119c9190615529565b60408051610120810182528b81526001600160a01b038b16602080830182905261ffff8a1683850152600091825260fe9052918220805493945090926060840192906111ed9063ffffffff1661553c565b91906101000a81548163ffffffff021916908363ffffffff160217905563ffffffff168152602001600065ffffffffffff168152602001856001600160801b03168152602001886001600160801b0316815260200187815260200184848080601f016020809104026020016040519081016040528093929190818152602001838380828437600092018290525093909452505083815261010060208181526040928390208551815590850151600182018054948701516060880151608089015165ffffffffffff16600160d01b026001600160d01b0363ffffffff909216600160b01b02919091166001600160b01b0361ffff909316600160a01b026001600160b01b03199098166001600160a01b03909516949094179690961716919091179390931790925560a084015160c08501516001600160801b03908116600160801b02911617600283015560e08401516003830155830151909150600482019061135690826155a5565b5090505061136488826129b5565b610104546040516310b3879160e11b81526001600160a01b038a81166004830152602482018a9052909116906321670f2290604401600060405180830381600087803b1580156113b357600080fd5b505af11580156113c7573d6000803e3d6000fd5b505050506113d581876129cf565b6113df8888612a6e565b80886001600160a01b03168a7faf1bba31184b4d13e4f756b22fc2755d77b6ad147f10a7b12ea6afa58a2ca5f6898b604051611425929190918252602082015260400190565b60405180910390a4505050505050505050565b6114423382612ad2565b61145e5760405162461bcd60e51b8152600401610e7a90615664565b610f1b838383612b52565b61147161296e565b60005b81811015610f1b5761149d838383818110611491576114916156b1565b90506020020135612cc6565b806114a781615510565b915050611474565b600080600080736B1f1019F8dFe7b67f7d5A7B7c64B7eD4122F98f633f3ccdf96101026101038a8a8a6040518663ffffffff1660e01b81526004016114f89594939291906156ff565b608060405180830381865af4158015611515573d6000803e3d6000fd5b505050506040513d601f19601f82011682018060405250810190611539919061573a565b935093509350935093509350935093565b6033546001600160a01b0316331461157557604051632e6c18c960e11b815260040160405180910390fd5b604051631bd4474f60e31b8152736B1f1019F8dFe7b67f7d5A7B7c64B7eD4122F98f9063dea23a78906115b59060fd9088908890889088906004016157c1565b60006040518083038186803b1580156115cd57600080fd5b505af41580156115e1573d6000803e3d6000fd5b5050505050505050565b600054610100900460ff161580801561160b5750600054600160ff909116105b806116255750303b158015611625575060005460ff166001145b6116885760405162461bcd60e51b815260206004820152602e60248201527f496e697469616c697a61626c653a20636f6e747261637420697320616c72656160448201526d191e481a5b9a5d1a585b1a5e995960921b6064820152608401610e7a565b6000805460ff1916600117905580156116ab576000805461ff0019166101001790555b60fc80546001600160a01b0319166001600160a01b0388161790556116cf85612df9565b6116d98484612e29565b6116e1612e5a565b6116e9612e89565b6116f282612eb8565b8015611738576000805461ff0019169055604051600181527f7f26b83ff96e1f2b6a682f133852f6798a09c465da95921460cefb38474024989060200160405180910390a15b505050505050565b6001600160a01b037f00000000000000000000000000000000000000000000000000000000000000001630036117885760405162461bcd60e51b8152600401610e7a906157fa565b7f00000000000000000000000000000000000000000000000000000000000000006001600160a01b03166117d1600080516020615f64833981519152546001600160a01b031690565b6001600160a01b0316146117f75760405162461bcd60e51b8152600401610e7a90615846565b61180081612f29565b6040805160008082526020820190925261181c91839190612f54565b50565b6033546001600160a01b0316331461184a57604051632e6c18c960e11b815260040160405180910390fd5b8061010661185882826158e3565b9050507f177a1f4181d3bdc94a5ee8b6ea0f1270c5da85b3b5671008c48f0b5d51fa85098160405161188a9190615a3b565b60405180910390a150565b610f1b8383836040518060200160405280600081525061259a565b6118b861296e565b6000806118c7838501856153e1565b91509150816001036118e0576118db6130bf565b611912565b816002036118f0576118db61320e565b81600303611901576118db81613356565b81600403611912576119128161364b565b50505050565b6034546001600160a01b03163314611943576040516305e05b4b60e31b815260040160405180910390fd5b61194b6138fb565b565b6001600160a01b037f00000000000000000000000000000000000000000000000000000000000000001630036119955760405162461bcd60e51b8152600401610e7a906157fa565b7f00000000000000000000000000000000000000000000000000000000000000006001600160a01b03166119de600080516020615f64833981519152546001600160a01b031690565b6001600160a01b031614611a045760405162461bcd60e51b8152600401610e7a90615846565b611a0d82612f29565b6110b182826001612f54565b6000306001600160a01b037f00000000000000000000000000000000000000000000000000000000000000001614611ab95760405162461bcd60e51b815260206004820152603860248201527f555550535570677261646561626c653a206d757374206e6f742062652063616c60448201527f6c6564207468726f7567682064656c656761746563616c6c00000000000000006064820152608401610e7a565b50600080516020615f6483398151915290565b611ad461293e565b611adc61296e565b610104546040516310b3879160e11b81526001600160a01b03848116600483015260248201849052909116906321670f2290604401600060405180830381600087803b158015611b2b57600080fd5b505af1158015611b3f573d6000803e3d6000fd5b50505050816001600160a01b03167f7a0984e898d33e4bf6ad9f851bfab5517683d3dae5b57ed58fa8c7152d822e3282604051611b7e91815260200190565b60405180910390a25050565b6033546001600160a01b03163314611bb557604051632e6c18c960e11b815260040160405180910390fd5b6001600160a01b038116611bdc57604051630ae8f22360e21b815260040160405180910390fd5b61010780546001600160a01b0319166001600160a01b0392909216919091179055565b600081815261013260205260408120546001600160a01b031680610cb75760405162461bcd60e51b8152602060048201526018602482015277115490cdcc8c4e881a5b9d985b1a59081d1bdad95b88125160421b6044820152606401610e7a565b6033546001600160a01b03163314611c8b57604051632e6c18c960e11b815260040160405180910390fd5b61010480546001600160a01b0319166001600160a01b0392909216919091179055565b6101065460009060609060ff16600103611f3c5761010654611ce59064ffffffffff6101008204811691600160581b900416615ae8565b64ffffffffff16421115611d2657604080516001602082018190526000928201929092529092506060015b6040516020818303038152906040529050611f3c565b61010654611d4e9064ffffffffff66010000000000008204811691600160801b900416615ae8565b64ffffffffff16421115611d7c57604080516002602082015260009181019190915260019250606001611d10565b6040516305f739f960e21b815261010b60048201526000907308c89ea9F6a4140dE96f335162aB89251b210DAf906317dce7e490602401602060405180830381865af4158015611dd0573d6000803e3d6000fd5b505050506040513d601f19601f82011682018060405250810190611df49190615b06565b811015611f3a5760405163c9c3102d60e01b815261010b6004820152602481018290526000907308c89ea9F6a4140dE96f335162aB89251b210DAf9063c9c3102d90604401602060405180830381865af4158015611e56573d6000803e3d6000fd5b505050506040513d601f19601f82011682018060405250810190611e7a9190615b06565b60019450905083600082815261010a60205260409020546301000000900460ff166002811115611eac57611eac6156c7565b03611edb5760408051600360208201529081018290526060016040516020818303038152906040529250611f33565b6002600082815261010a60205260409020546301000000900460ff166002811115611f0857611f086156c7565b03611f3357604080516004602082015290810182905260600160405160208183030381529060405292505b5050611f3c565b505b9250929050565b60006001600160a01b038216611fad5760405162461bcd60e51b815260206004820152602960248201527f4552433732313a2061646472657373207a65726f206973206e6f7420612076616044820152683634b21037bbb732b960b91b6064820152608401610e7a565b506001600160a01b03166000908152610133602052604090205490565b6033546001600160a01b03163314611ff557604051632e6c18c960e11b815260040160405180910390fd5b61194b6000613964565b6033546001600160a01b0316331461202a57604051632e6c18c960e11b815260040160405180910390fd5b610104546040516350e0278760e11b81526001600160a01b0383811660048301529091169063a1c04f0e906024015b600060405180830381600087803b15801561207357600080fd5b505af1158015612087573d6000803e3d6000fd5b5050505050565b6033546001600160a01b031633146120b957604051632e6c18c960e11b815260040160405180910390fd5b61194b6139da565b6120c961296e565b60005b81811015610f1b57736B1f1019F8dFe7b67f7d5A7B7c64B7eD4122F98f63d4166eb0848484818110612100576121006156b1565b6101045460fb5460009081526101016020908152604091829020915160e088901b6001600160e01b031916815293029094013560048301526001600160a01b0316602482015260448101839052600190920160648301525060840160006040518083038186803b15801561217357600080fd5b505af4158015612187573d6000803e3d6000fd5b50505050808061219690615510565b9150506120cc565b6121a661296e565b6121af87612cc6565b6121bc8585858585613a30565b6121c68787613abf565b50505050505050565b6033546001600160a01b031633146121fa57604051632e6c18c960e11b815260040160405180910390fd5b604051631747e07760e01b8152736B1f1019F8dFe7b67f7d5A7B7c64B7eD4122F98f90631747e077906122399061010390879087908790600401615b1f565b60006040518083038186803b15801561225157600080fd5b505af41580156121c6573d6000803e3d6000fd5b60606101318054610d5b90615431565b6033546001600160a01b031633146122a057604051632e6c18c960e11b815260040160405180910390fd5b61010754604051630852cd8d60e31b8152600481018390526001600160a01b03909116906342966c6890602401612059565b6033546001600160a01b031633146122fd57604051632e6c18c960e11b815260040160405180910390fd5b8061010861230b8282615b6c565b9050507f3510c45fb24ce728b56d5136c57163ff69e25ab31ac04a1264387c7acff6c41e8160405161188a9190615c08565b610100602052600090815260409020805460018201546002830154600384015460048501805494956001600160a01b03851695600160a01b860461ffff1695600160b01b810463ffffffff1695600160d01b90910465ffffffffffff16946001600160801b0380831695600160801b909304169390929091906123bf90615431565b80601f01602080910402602001604051908101604052809291908181526020018280546123eb90615431565b80156124385780601f1061240d57610100808354040283529160200191612438565b820191906000526020600020905b81548152906001019060200180831161241b57829003601f168201915b5050505050905089565b6110b1338383613bbb565b6033546001600160a01b0316331461247857604051632e6c18c960e11b815260040160405180910390fd5b600160fb600082825461248b9190615529565b909155503390506108fc60646124a24760106154f9565b6124ac9190615c91565b6040518115909202916000818181858888f193505050501580156124d4573d6000803e3d6000fd5b506124dd6139da565b7f3bf8992b1ca7018d446bcf1d45dc7a62e50decf5248434be4194aef15446338060fb5460405161251091815260200190565b60405180910390a1565b6033546001600160a01b0316331461254557604051632e6c18c960e11b815260040160405180910390fd5b6001600160a01b03821661256c57604051633aafecb360e21b815260040160405180910390fd5b801561257b576110b182613964565b603480546001600160a01b0319166001600160a01b0384161790555050565b6125a43383612ad2565b6125c05760405162461bcd60e51b8152600401610e7a90615664565b61191284848484613c8a565b6125d461296e565b6125dc613cbd565b6125e582613d18565b6125ef8382613dc2565b610f1b600161016255565b61260261296e565b61260b83612cc6565b61261482612cc6565b61261e8382613e95565b610f1b8282613f66565b604051632f8218bd60e21b815261010060048201526024810182905260609073C1BEbC49c835baF377A34E69C87EBe940643e39F9063be0862f490604401600060405180830381865af4158015612683573d6000803e3d6000fd5b505050506040513d6000823e601f3d908101601f19168201604052610cb79190810190615ca5565b6126b361296e565b60005b81811015610f1b57736B1f1019F8dFe7b67f7d5A7B7c64B7eD4122F98f63c4deddb48484848181106126ea576126ea6156b1565b60fb5460009081526101016020908152604091829020915160e087901b6001600160e01b0319168152920290930135600482015260248101839052600190920160448301525060640160006040518083038186803b15801561274b57600080fd5b505af415801561275f573d6000803e3d6000fd5b50505050808061276e90615510565b9150506126b6565b61277e61296e565b61278782612cc6565b6110b18282613abf565b6033546001600160a01b031633146127bc57604051632e6c18c960e11b815260040160405180910390fd5b61194b613fd1565b600881901c60009081526101056020526040812054600160ff84161b161515610cb7565b600081815261013260205260409020546001600160a01b031661181c5760405162461bcd60e51b8152602060048201526018602482015277115490cdcc8c4e881a5b9d985b1a59081d1bdad95b88125160421b6044820152606401610e7a565b60008181526101346020526040902080546001600160a01b0319166001600160a01b038416908117909155819061287e82611bff565b6001600160a01b03167f8c5be1e5ebec7d5bd14f71427d1e84f3dd0314c0f7b2291e5b200ac8c7c3b92560405160405180910390a45050565b600082815261010a602052604090205460ff16806128ea5750600082815261010a6020526040902054610100900460ff16155b1561290b576040516364b4f07960e11b815260048101839052602401610e7a565b600082815261010a60209081526040909120825161293192600190920191840190614a32565b506110b161010b8361400b565b33600090815260fd602052604090205460ff1661194b5760405163143606b960e31b815260040160405180910390fd5b6101945460ff161561194b5760405162461bcd60e51b815260206004820152601060248201526f14185d5cd8589b194e881c185d5cd95960821b6044820152606401610e7a565b6110b182826040518060200160405280600081525061404e565b60fb546000908152610101602052604090819020905163f0f2cef760e01b8152600782016004820152600282016024820152600d82016044820152600c90910160648201526084810183905260a48101829052738190aa73eBE01db942901EEa8c6f6c96F98fc5329063f0f2cef79060c4015b60006040518083038186803b158015612a5a57600080fd5b505af4158015611738573d6000803e3d6000fd5b610104546040516337a8f5a560e01b8152610102600482015261010360248201526001600160a01b039182166044820152908316606482015260848101829052736B1f1019F8dFe7b67f7d5A7B7c64B7eD4122F98f906337a8f5a59060a401612a42565b600080612ade83611bff565b9050806001600160a01b0316846001600160a01b03161480612b2657506001600160a01b038082166000908152610135602090815260408083209388168352929052205460ff165b80612b4a5750836001600160a01b0316612b3f84610dde565b6001600160a01b0316145b949350505050565b826001600160a01b0316612b6582611bff565b6001600160a01b031614612b8b5760405162461bcd60e51b8152600401610e7a90615d12565b6001600160a01b038216612bed5760405162461bcd60e51b8152602060048201526024808201527f4552433732313a207472616e7366657220746f20746865207a65726f206164646044820152637265737360e01b6064820152608401610e7a565b612bfa8383836001614081565b826001600160a01b0316612c0d82611bff565b6001600160a01b031614612c335760405162461bcd60e51b8152600401610e7a90615d12565b60008181526101346020908152604080832080546001600160a01b03199081169091556001600160a01b03878116808652610133855283862080546000190190559087168086528386208054600101905586865261013290945282852080549092168417909155905184937fddf252ad1be2c89b69c2b068fc378daa952ba7f163c4a11628f55a4df523b3ef91a4505050565b612cce613cbd565b60fb5460009081526101016020526040908190209051633137b76d60e21b8152600481018390526024810182905260019091016044820152736B1f1019F8dFe7b67f7d5A7B7c64B7eD4122F98f9063c4deddb49060640160006040518083038186803b158015612d3d57600080fd5b505af4158015612d51573d6000803e3d6000fd5b50506101045460fb5460009081526101016020526040908190209051630d4166eb60e41b8152600481018690526001600160a01b039092166024830152604482018190526001016064820152736B1f1019F8dFe7b67f7d5A7B7c64B7eD4122F98f925063d4166eb0915060840160006040518083038186803b158015612dd657600080fd5b505af4158015612dea573d6000803e3d6000fd5b5050505061181c600161016255565b600054610100900460ff16612e205760405162461bcd60e51b8152600401610e7a90615d57565b61181c8161410b565b600054610100900460ff16612e505760405162461bcd60e51b8152600401610e7a90615d57565b6110b1828261413b565b600054610100900460ff16612e815760405162461bcd60e51b8152600401610e7a90615d57565b61194b61417d565b600054610100900460ff16612eb05760405162461bcd60e51b8152600401610e7a90615d57565b61194b6141a4565b600054610100900460ff16612edf5760405162461bcd60e51b8152600401610e7a90615d57565b6001600160a01b038116612f0657604051630cee34c560e11b815260040160405180910390fd5b6101c680546001600160a01b0319166001600160a01b0392909216919091179055565b6033546001600160a01b0316331461181c57604051632e6c18c960e11b815260040160405180910390fd5b7f4910fdfa16fed3260ed0e7147f7cc6da11a60208b5b9406d12a635614ffd91435460ff1615612f8757610f1b836141d8565b826001600160a01b03166352d1902d6040518163ffffffff1660e01b8152600401602060405180830381865afa925050508015612fe1575060408051601f3d908101601f19168201909252612fde91810190615b06565b60015b6130445760405162461bcd60e51b815260206004820152602e60248201527f45524331393637557067726164653a206e657720696d706c656d656e7461746960448201526d6f6e206973206e6f74205555505360901b6064820152608401610e7a565b600080516020615f6483398151915281146130b35760405162461bcd60e51b815260206004820152602960248201527f45524331393637557067726164653a20756e737570706f727465642070726f786044820152681a58589b195555525160ba1b6064820152608401610e7a565b50610f1b838383614274565b6101065460ff166000036130e65760405163a397eb4760e01b815260040160405180910390fd5b6130ef42614299565b610106805464ffffffffff92909216600160581b0264ffffffffff60581b199092169190911790556101c65461010854610109546040516305d3b1d360e41b815260048101929092526001600160401b038116602483015261ffff600160801b820416604483015263ffffffff600160401b820481166064840152600160601b9091041660848201526000916001600160a01b031690635d3b1d309060a4016020604051808303816000875af11580156131ad573d6000803e3d6000fd5b505050506040513d601f19601f820116820180604052508101906131d19190615b06565b600081815261010a60205260409020805461010061ff001982168117835592935060019263ff00ff0019909116176301000000835b021790555050565b6101065460ff166000036132355760405163a397eb4760e01b815260040160405180910390fd5b61323e42614299565b610106805464ffffffffff60801b1916600160801b64ffffffffff9390931683021790556101c65461010854610109546040516305d3b1d360e41b815260048101929092526001600160401b038116602483015292830461ffff166044820152600160401b830463ffffffff9081166064830152600160601b90930490921660848301526000916001600160a01b0390911690635d3b1d309060a4016020604051808303816000875af11580156132f9573d6000803e3d6000fd5b505050506040513d601f19601f8201168201806040525081019061331d9190615b06565b600081815261010a60205260409020805461010061ff001982168117835592935060029263ff00ff001990911617630100000083613206565b6101065460ff1660000361337d5760405163a397eb4760e01b815260040160405180910390fd5b6000613389600a6142b1565b90506000613399605a600a614350565b60fb5460009081526101016020526040908190209051630e719fe960e31b8152919250736B1f1019F8dFe7b67f7d5A7B7c64B7eD4122F98f9163738cff48916133ef918691610106916001820190600401615da2565b60006040518083038186803b15801561340757600080fd5b505af415801561341b573d6000803e3d6000fd5b5060009250600a915061342b9050565b604051908082528060200260200182016040528015613454578160200160208202803683370190505b50600085815261010a60209081526040808320815160a081018352815460ff80821615158352610100820481161515958301959095526201000081048516151593820193909352949550929392916060840191630100000090041660028111156134c0576134c06156c7565b60028111156134d1576134d16156c7565b81526020016001820180548060200260200160405190810160405280929190818152602001828054801561352457602002820191906000526020600020905b815481526020019060010190808311613510575b505050505081525050905060005b8160800151518110156135b15783605a83608001518381518110613558576135586156b1565b602002602001015161356a9190615dd1565b8151811061357a5761357a6156b1565b6020026020010151838281518110613594576135946156b1565b6020908102919091010152806135a981615510565b915050613532565b5060fb5460009081526101016020526040908190209051630e719fe960e31b8152736B1f1019F8dFe7b67f7d5A7B7c64B7eD4122F98f9163738cff489161360691889161010691906001820190600401615da2565b60006040518083038186803b15801561361e57600080fd5b505af4158015613632573d6000803e3d6000fd5b505050506120878561010b6143f690919063ffffffff16565b6101065460ff166000036136725760405163a397eb4760e01b815260040160405180910390fd5b600061367e600a6142b1565b9050600061368e605a600a614350565b60fb54600090815261010160205260409081902090516333772a9d60e01b8152919250736B1f1019F8dFe7b67f7d5A7B7c64B7eD4122F98f916333772a9d916136e4918691610106916001820190600401615da2565b60006040518083038186803b1580156136fc57600080fd5b505af4158015613710573d6000803e3d6000fd5b5060009250600a91506137209050565b604051908082528060200260200182016040528015613749578160200160208202803683370190505b50600085815261010a60209081526040808320815160a081018352815460ff80821615158352610100820481161515958301959095526201000081048516151593820193909352949550929392916060840191630100000090041660028111156137b5576137b56156c7565b60028111156137c6576137c66156c7565b81526020016001820180548060200260200160405190810160405280929190818152602001828054801561381957602002820191906000526020600020905b815481526020019060010190808311613805575b505050505081525050905060005b8160800151518110156138a65783605a8360800151838151811061384d5761384d6156b1565b602002602001015161385f9190615dd1565b8151811061386f5761386f6156b1565b6020026020010151838281518110613889576138896156b1565b60209081029190910101528061389e81615510565b915050613827565b5060fb54600090815261010160205260409081902090516333772a9d60e01b8152736B1f1019F8dFe7b67f7d5A7B7c64B7eD4122F98f916333772a9d9161360691889161010691906001820190600401615da2565b6033546034546040516001600160a01b03928316929091169082907f8be0079c531659141344cd1fd0a4f28419497f9722a3daafe3b4186f6b6457e090600090a35060348054603380546001600160a01b03199081166001600160a01b03841617909155169055565b7fb53127684a568b3173ae13b9f8a6016e243e63b6e8ee1178d6a717850b5d6103819055603380546001600160a01b038084166001600160a01b0319831681179093556040519116919082907f8be0079c531659141344cd1fd0a4f28419497f9722a3daafe3b4186f6b6457e090600090a35050565b6139e261296e565b610194805460ff191660011790557f62e78cea01bee320cd4e420270b5ea74000d11b0c9f74754ebdbfc544b05a258613a183390565b6040516001600160a01b039091168152602001612510565b60fc5460405163d505accf60e01b8152336004820152306024820152604481018790526064810186905260ff8316608482015260a4810185905260c481018490526001600160a01b039091169063d505accf9060e401600060405180830381600087803b158015613aa057600080fd5b505af1158015613ab4573d6000803e3d6000fd5b505050505050505050565b80600003613acb575050565b610107546001600160a01b0316613af55760405163dcabc89960e01b815260040160405180910390fd5b60fc54610107546040516323b872dd60e01b81523360048201526001600160a01b039182166024820152604481018490529116906323b872dd906064016020604051808303816000875af1158015613b51573d6000803e3d6000fd5b505050506040513d601f19601f82011682018060405250810190613b759190615de5565b50613b80828261448f565b604051818152829033907f58c7b3bf0b0e168048426c1e9443a72696526292ca664e18b11f934cd6cfbbf39060200160405180910390a35050565b816001600160a01b0316836001600160a01b031603613c1c5760405162461bcd60e51b815260206004820152601960248201527f4552433732313a20617070726f766520746f2063616c6c6572000000000000006044820152606401610e7a565b6001600160a01b0383811660008181526101356020908152604080832094871680845294825291829020805460ff191686151590811790915591519182527f17307eab39ab6107e8899845ad3d59bd9653f200f220920489ca2b5937696c31910160405180910390a3505050565b613c95848484612b52565b613ca184848484614513565b6119125760405162461bcd60e51b8152600401610e7a90615e02565b60026101625403613d105760405162461bcd60e51b815260206004820152601f60248201527f5265656e7472616e637947756172643a207265656e7472616e742063616c6c006044820152606401610e7a565b600261016255565b33600090815261010260205260409020546001600160a01b0316158015613d4757506001600160a01b03811615155b8015613d5c57506001600160a01b0381163314155b1561181c57336000818152610102602090815260409182902080546001600160a01b0319166001600160a01b0386169081179091558251938452908301527f677cd8c8ce12dc7827579d65be5e6efa74b6ac9ab04ac43d4648dc85d328c2ae910161188a565b6020820151825160009190613dd79084615529565b613de19190615529565b905080341015613e0457604051632ca2f52b60e11b815260040160405180910390fd5b336108fc613e128334615e54565b6040518115909202916000818181858888f19350505050158015613e3a573d6000803e3d6000fd5b50613e453382614614565b6020830151835160405133907f617b1a2bf0533cea0c5dd46104e1d48f8b290fc7d7360dba0182dbf07a00e46a90613e809087815260200190565b60405180910390a4505050565b600161016255565b60fb54600090815261010160209081526040808320338452600181018352818420868552835281842092529091208154831115613ee55760405163fe8b364f60e01b815260040160405180910390fd5b82826000016000828254613ef99190615e54565b9091555050805483908290600090613f12908490615e54565b90915550508054613f2490859061466b565b604080518581526020810185905233917fe6907eb8ffc12ac27891b5560db15647cae89e2b344f0c34c63bb6f1d4249cff91015b60405180910390a250505050565b60006064613f758360056154f9565b613f7f9190615c91565b90506000613f8d8284615e54565b9050613f99848261448f565b604080518581526020810183905233917f7e9ecb928e58cb1d1c8cda62ae789939f9f184616eb26ef72e801f98b6ef556a9101613f58565b613fd96146d9565b610194805460ff191690557f5db9ee0a495bf2e6ff9c91a7834c1ba4fdd244a5e8aa4e537bd38aeae4b073aa33613a18565b6002820180546000908152602084815260408083208590558354858452600180880190935290832081905590929190614045908490615529565b90915550505050565b6140588383614723565b6140656000848484614513565b610f1b5760405162461bcd60e51b8152600401610e7a90615e02565b6001811115611912576001600160a01b038416156140c8576001600160a01b03841660009081526101336020526040812080548392906140c2908490615e54565b90915550505b6001600160a01b03831615611912576001600160a01b0383166000908152610133602052604081208054839290614100908490615529565b909155505050505050565b600054610100900460ff166141325760405162461bcd60e51b8152600401610e7a90615d57565b61181c81613964565b600054610100900460ff166141625760405162461bcd60e51b8152600401610e7a90615d57565b61013061416f83826155a5565b50610131610f1b82826155a5565b600054610100900460ff16613e8d5760405162461bcd60e51b8152600401610e7a90615d57565b600054610100900460ff166141cb5760405162461bcd60e51b8152600401610e7a90615d57565b610194805460ff19169055565b6001600160a01b0381163b6142455760405162461bcd60e51b815260206004820152602d60248201527f455243313936373a206e657720696d706c656d656e746174696f6e206973206e60448201526c1bdd08184818dbdb9d1c9858dd609a1b6064820152608401610e7a565b600080516020615f6483398151915280546001600160a01b0319166001600160a01b0392909216919091179055565b61427d836148c0565b60008251118061428a5750805b15610f1b576119128383614900565b60006142a7610e1083615dd1565b610cb79083615e54565b60fb54600090815261010160205260408082209051634d63fffd60e01b8152600290910160048201526024810191909152604481018290526060907332e942D8A758D3Ddc45d5faEC998D5a415b0846b90634d63fffd90606401600060405180830381865af4158015614328573d6000803e3d6000fd5b505050506040513d6000823e601f3d908101601f19168201604052610cb79190810190615e67565b60fb5460009081526101016020526040908190209051634d63fffd60e01b81526002909101600482015260248101829052604481018390526060907332e942D8A758D3Ddc45d5faEC998D5a415b0846b90634d63fffd90606401600060405180830381865af41580156143c7573d6000803e3d6000fd5b505050506040513d6000823e601f3d908101601f191682016040526143ef9190810190615e67565b9392505050565b600081815260018084016020526040822054600285015490928592909161441d9190615e54565b815260208082019290925260409081016000908120548482528684528282205584815260018087019093529081208190556002850154859261445e91615e54565b81526020019081526020016000206000905560018360020160008282546144859190615e54565b9091555050505050565b60fb54600090815261010160209081526040808320338452600101825280832085845290915281208054909183918391906144cb908490615529565b909155505060fb546000908152610101602090815260408083208684529091528120805490918491839190614501908490615529565b9091555050805461191290859061466b565b60006001600160a01b0384163b1561460957604051630a85bd0160e11b81526001600160a01b0385169063150b7a0290614557903390899088908890600401615ef7565b6020604051808303816000875af1925050508015614592575060408051601f3d908101601f1916820190925261458f91810190615f2a565b60015b6145ef573d8080156145c0576040519150601f19603f3d011682016040523d82523d6000602084013e6145c5565b606091505b5080516000036145e75760405162461bcd60e51b8152600401610e7a90615e02565b805181602001fd5b6001600160e01b031916630a85bd0160e11b149050612b4a565b506001949350505050565b604051633039061160e01b8152610102600482015261010360248201526001600160a01b038316604482015260648101829052736B1f1019F8dFe7b67f7d5A7B7c64B7eD4122F98f90633039061190608401612a42565b60fb54600090815261010160205260409081902090516311b7263f60e21b8152600282016004820152600d82016024820152600c90910160448201526064810183905260848101829052738190aa73eBE01db942901EEa8c6f6c96F98fc532906346dc98fc9060a401612a42565b6101945460ff1661194b5760405162461bcd60e51b815260206004820152601460248201527314185d5cd8589b194e881b9bdd081c185d5cd95960621b6044820152606401610e7a565b6001600160a01b0382166147795760405162461bcd60e51b815260206004820181905260248201527f4552433732313a206d696e7420746f20746865207a65726f20616464726573736044820152606401610e7a565b600081815261013260205260409020546001600160a01b0316156147df5760405162461bcd60e51b815260206004820152601c60248201527f4552433732313a20746f6b656e20616c7265616479206d696e746564000000006044820152606401610e7a565b6147ed600083836001614081565b600081815261013260205260409020546001600160a01b0316156148535760405162461bcd60e51b815260206004820152601c60248201527f4552433732313a20746f6b656e20616c7265616479206d696e746564000000006044820152606401610e7a565b6001600160a01b0382166000818152610133602090815260408083208054600101905584835261013290915280822080546001600160a01b0319168417905551839291907fddf252ad1be2c89b69c2b068fc378daa952ba7f163c4a11628f55a4df523b3ef908290a45050565b6148c9816141d8565b6040516001600160a01b038216907fbc7cd75a20ee27fd9adebab32041f755214dbc6bffa90cc0225b39da2e5c2d3b90600090a250565b60606001600160a01b0383163b6149685760405162461bcd60e51b815260206004820152602660248201527f416464726573733a2064656c65676174652063616c6c20746f206e6f6e2d636f6044820152651b9d1c9858dd60d21b6064820152608401610e7a565b600080846001600160a01b0316846040516149839190615f47565b600060405180830381855af49150503d80600081146149be576040519150601f19603f3d011682016040523d82523d6000602084013e6149c3565b606091505b50915091506149eb8282604051806060016040528060278152602001615f84602791396149f4565b95945050505050565b60608315614a035750816143ef565b6143ef8383815115614a185781518083602001fd5b8060405162461bcd60e51b8152600401610e7a9190614b67565b828054828255906000526020600020908101928215614a6d579160200282015b82811115614a6d578251825591602001919060010190614a52565b50614a79929150614a7d565b5090565b5b80821115614a795760008155600101614a7e565b6001600160e01b03198116811461181c57600080fd5b600060208284031215614aba57600080fd5b81356143ef81614a92565b600060208284031215614ad757600080fd5b5035919050565b60a08101610cb7828480518252602081015160208301526040810151604083015260608101516060830152608081015160808301525050565b60005b83811015614b32578181015183820152602001614b1a565b50506000910152565b60008151808452614b53816020860160208601614b17565b601f01601f19169290920160200192915050565b6020815260006143ef6020830184614b3b565b6001600160a01b038116811461181c57600080fd5b60008060408385031215614ba257600080fd5b8235614bad81614b7a565b946020939093013593505050565b634e487b7160e01b600052604160045260246000fd5b604051601f8201601f191681016001600160401b0381118282101715614bf957614bf9614bbb565b604052919050565b60006001600160401b03821115614c1a57614c1a614bbb565b5060051b60200190565b600082601f830112614c3557600080fd5b81356020614c4a614c4583614c01565b614bd1565b82815260059290921b84018101918181019086841115614c6957600080fd5b8286015b84811015614c845780358352918301918301614c6d565b509695505050505050565b600060208284031215614ca157600080fd5b81356001600160401b03811115614cb757600080fd5b612b4a84828501614c24565b60008060408385031215614cd657600080fd5b8235915060208301356001600160401b03811115614cf357600080fd5b614cff85828601614c24565b9150509250929050565b60008083601f840112614d1b57600080fd5b5081356001600160401b03811115614d3257600080fd5b602083019150836020828501011115611f3c57600080fd5b60008060008060008060008060e0898b031215614d6657600080fd5b883597506020890135614d7881614b7a565b965060408901359550606089013594506080890135935060a0890135925060c08901356001600160401b03811115614daf57600080fd5b614dbb8b828c01614d09565b999c989b5096995094979396929594505050565b600080600060608486031215614de457600080fd5b8335614def81614b7a565b92506020840135614dff81614b7a565b929592945050506040919091013590565b60008083601f840112614e2257600080fd5b5081356001600160401b03811115614e3957600080fd5b6020830191508360208260051b8501011115611f3c57600080fd5b60008060208385031215614e6757600080fd5b82356001600160401b03811115614e7d57600080fd5b614e8985828601614e10565b90969095509350505050565b803560028110614ea457600080fd5b919050565b600080600060608486031215614ebe57600080fd5b8335614ec981614b7a565b925060208401359150614ede60408501614e95565b90509250925092565b60008060008060408587031215614efd57600080fd5b84356001600160401b0380821115614f1457600080fd5b614f2088838901614e10565b90965094506020870135915080821115614f3957600080fd5b50614f4687828801614e10565b95989497509550505050565b60006001600160401b03821115614f6b57614f6b614bbb565b50601f01601f191660200190565b600082601f830112614f8a57600080fd5b8135614f98614c4582614f52565b818152846020838601011115614fad57600080fd5b816020850160208301376000918101602001919091529392505050565b600080600080600060a08688031215614fe257600080fd5b8535614fed81614b7a565b94506020860135614ffd81614b7a565b935060408601356001600160401b038082111561501957600080fd5b61502589838a01614f79565b9450606088013591508082111561503b57600080fd5b5061504888828901614f79565b925050608086013561505981614b7a565b809150509295509295909350565b60006020828403121561507957600080fd5b81356143ef81614b7a565b600060e0828403121561509657600080fd5b50919050565b600080602083850312156150af57600080fd5b82356001600160401b038111156150c557600080fd5b614e8985828601614d09565b600080604083850312156150e457600080fd5b82356150ef81614b7a565b915060208301356001600160401b0381111561510a57600080fd5b614cff85828601614f79565b8215158152604060208201526000612b4a6040830184614b3b565b60ff8116811461181c57600080fd5b600080600080600080600060e0888a03121561515b57600080fd5b873596506020880135955060408801359450606088013593506080880135925060a0880135915060c088013561519081615131565b8091505092959891949750929550565b61ffff8116811461181c57600080fd5b8035614ea4816151a0565b6000806000606084860312156151d057600080fd5b83356151db816151a0565b925060208401356151eb816151a0565b9150614ede60408501614e95565b600060a0828403121561509657600080fd5b8981526001600160a01b038916602082015261ffff8816604082015263ffffffff8716606082015265ffffffffffff861660808201526001600160801b0385811660a0830152841660c082015260e08101839052610120610100820181905260009061527983820185614b3b565b9c9b505050505050505050505050565b801515811461181c57600080fd5b600080604083850312156152aa57600080fd5b82356152b581614b7a565b915060208301356152c581615289565b809150509250929050565b600080600080608085870312156152e657600080fd5b84356152f181614b7a565b9350602085013561530181614b7a565b92506040850135915060608501356001600160401b0381111561532357600080fd5b61532f87828801614f79565b91505092959194509250565b6000806000838503608081121561535157600080fd5b604081121561535f57600080fd5b50604051604081018181106001600160401b038211171561538257615382614bbb565b604090815285358252602080870135908301529093508401356153a481614b7a565b929592945050506060919091013590565b6000806000606084860312156153ca57600080fd5b505081359360208301359350604090920135919050565b600080604083850312156153f457600080fd5b50508035926020909101359150565b6000806040838503121561541657600080fd5b823561542181614b7a565b915060208301356152c581614b7a565b600181811c9082168061544557607f821691505b60208210810361509657634e487b7160e01b600052602260045260246000fd5b600081518084526020808501945080840160005b8381101561549557815187529582019590820190600101615479565b509495945050505050565b8381528260208201526060604082015260006149eb6060830184615465565b600080604083850312156154d257600080fd5b505080516020909101519092909150565b634e487b7160e01b600052601160045260246000fd5b8082028115828204841417610cb757610cb76154e3565b600060018201615522576155226154e3565b5060010190565b80820180821115610cb757610cb76154e3565b600063ffffffff808316818103615555576155556154e3565b6001019392505050565b601f821115610f1b57600081815260208120601f850160051c810160208610156155865750805b601f850160051c820191505b8181101561173857828155600101615592565b81516001600160401b038111156155be576155be614bbb565b6155d2816155cc8454615431565b8461555f565b602080601f83116001811461560757600084156155ef5750858301515b600019600386901b1c1916600185901b178555611738565b600085815260208120601f198616915b8281101561563657888601518255948401946001909101908401615617565b50858210156156545787850151600019600388901b60f8161c191681555b5050505050600190811b01905550565b6020808252602d908201527f4552433732313a2063616c6c6572206973206e6f7420746f6b656e206f776e6560408201526c1c881bdc88185c1c1c9bdd9959609a1b606082015260800190565b634e487b7160e01b600052603260045260246000fd5b634e487b7160e01b600052602160045260246000fd5b600281106156fb57634e487b7160e01b600052602160045260246000fd5b9052565b858152602081018590526001600160a01b03841660408201526060810183905260a0810161573060808301846156dd565b9695505050505050565b6000806000806080858703121561575057600080fd5b845161575b81614b7a565b60208601516040870151919550935061577381614b7a565b6060959095015193969295505050565b8183526000602080850194508260005b858110156154955781356157a681614b7a565b6001600160a01b031687529582019590820190600101615793565b8581526060602082015260006157db606083018688615783565b82810360408401526157ee818587615783565b98975050505050505050565b6020808252602c908201527f46756e6374696f6e206d7573742062652063616c6c6564207468726f7567682060408201526b19195b1959d85d1958d85b1b60a21b606082015260800190565b6020808252602c908201527f46756e6374696f6e206d7573742062652063616c6c6564207468726f7567682060408201526b6163746976652070726f787960a01b606082015260800190565b64ffffffffff8116811461181c57600080fd5b60008135610cb781615892565b60008135610cb7816151a0565b68ffffffffffffffffff8116811461181c57600080fd5b60008135610cb7816158bf565b81356158ee81615131565b60ff8116905081548160ff198216178355602084013561590d81615892565b65ffffffffff008160081b169050808365ffffffffffff19841617178455604085013561593981615892565b6affffffffff0000000000008160301b16846affffffffffffffffffffff19851617831717855550505050615999615973606084016158a5565b82805464ffffffffff60581b191660589290921b64ffffffffff60581b16919091179055565b6159ce6159a8608084016158a5565b82805464ffffffffff60801b191660809290921b64ffffffffff60801b16919091179055565b6159fd6159dd60a084016158b2565b82805461ffff60a81b191660a89290921b61ffff60a81b16919091179055565b6110b1615a0c60c084016158d6565b8280546001600160b81b031660b89290921b6001600160b81b031916919091179055565b8035614ea4816158bf565b60e081018235615a4a81615131565b60ff1682526020830135615a5d81615892565b64ffffffffff9081166020840152604084013590615a7a82615892565b9081166040840152606084013590615a9182615892565b9081166060840152608084013590615aa882615892565b166080830152615aba60a084016151b0565b61ffff1660a0830152615acf60c08401615a30565b68ffffffffffffffffff811660c08401525b5092915050565b64ffffffffff818116838216019080821115615ae157615ae16154e3565b600060208284031215615b1857600080fd5b5051919050565b84815261ffff848116602083015283166040820152608081016149eb60608301846156dd565b6001600160401b038116811461181c57600080fd5b63ffffffff8116811461181c57600080fd5b81358155600181016020830135615b8281615b45565b81546040850135615b9281615b5a565b6060860135615ba081615b5a565b6080870135615bae816151a0565b61ffff60801b8160801b166001600160401b03861671ffffffffffffffffffffffffffffffffffff198616176bffffffff00000000000000008560401b161763ffffffff60601b8460601b16171786555050505050505050565b8135815260a081016020830135615c1e81615b45565b6001600160401b031660208301526040830135615c3a81615b5a565b63ffffffff9081166040840152606084013590615c5682615b5a565b1660608301526080830135615c6a816151a0565b61ffff811660808401525092915050565b634e487b7160e01b600052601260045260246000fd5b600082615ca057615ca0615c7b565b500490565b600060208284031215615cb757600080fd5b81516001600160401b03811115615ccd57600080fd5b8201601f81018413615cde57600080fd5b8051615cec614c4582614f52565b818152856020838501011115615d0157600080fd5b6149eb826020830160208601614b17565b60208082526025908201527f4552433732313a207472616e736665722066726f6d20696e636f72726563742060408201526437bbb732b960d91b606082015260800190565b6020808252602b908201527f496e697469616c697a61626c653a20636f6e7472616374206973206e6f74206960408201526a6e697469616c697a696e6760a81b606082015260800190565b608081526000615db56080830187615465565b6020830195909552506040810192909252606090910152919050565b600082615de057615de0615c7b565b500690565b600060208284031215615df757600080fd5b81516143ef81615289565b60208082526032908201527f4552433732313a207472616e7366657220746f206e6f6e20455243373231526560408201527131b2b4bb32b91034b6b83632b6b2b73a32b960711b606082015260800190565b81810381811115610cb757610cb76154e3565b60006020808385031215615e7a57600080fd5b82516001600160401b03811115615e9057600080fd5b8301601f81018513615ea157600080fd5b8051615eaf614c4582614c01565b81815260059190911b82018301908381019087831115615ece57600080fd5b928401925b82841015615eec57835182529284019290840190615ed3565b979650505050505050565b6001600160a01b038581168252841660208201526040810183905260806060820181905260009061573090830184614b3b565b600060208284031215615f3c57600080fd5b81516143ef81614a92565b60008251615f59818460208701614b17565b919091019291505056fe360894a13ba1a3210667c828492db98dca3e2076cc3735a920a3ca505d382bbc416464726573733a206c6f772d6c6576656c2064656c65676174652063616c6c206661696c6564a2646970667358221220b05cd822b6587295b9793f0031cd6380b360ba75cbe1f19ad7d31ef2927a207a64736f6c63430008110033",
  "deployedBytecode": "0x6080604052600436106103975760003560e01c806370a08231116101dc578063a54b2a7311610102578063c87b56dd116100a0578063e985e9c51161006f578063e985e9c514610bcb578063f7b188a514610c15578063fbd7823514610c2a578063fbfa77cf14610c4a57600080fd5b8063c87b56dd14610b4d578063db64008114610b6d578063e30c397814610b8d578063e4421be214610bab57600080fd5b8063b88d4fde116100dc578063b88d4fde14610a94578063b9e53a9f14610ab4578063c3b82b8d14610ac7578063c417db6914610ae757600080fd5b8063a54b2a7314610a3e578063afd5f74714610a5f578063b242e53414610a7457600080fd5b8063918c49e41161017a5780639ca423b3116101495780639ca423b3146109925780639d215042146109c9578063a005ec7a146109e9578063a22cb46514610a1e57600080fd5b8063918c49e41461091d5780639208b21e1461093d57806395d89b411461095d5780639aab85e51461097257600080fd5b8063802e9cfa116101b6578063802e9cfa146108aa5780638456cb59146108ca5780638d47a30d146108df5780638da5cb5b146108ff57600080fd5b806370a0823114610845578063715018a614610865578063736c0d5b1461087a57600080fd5b8063350b2369116102c15780634f1ef2861161025f578063603d08001161022e578063603d0800146107b75780636352211e146107d75780636817031b146107f75780636e04ff0d1461081757600080fd5b80634f1ef2861461074857806352d1902d1461075b57806358c7a0631461077e5780635c975abb1461079e57600080fd5b8063410fa1c41161029b578063410fa1c4146106d357806342842e0e146106f35780634585e33b146107135780634e71e0c81461073357600080fd5b8063350b236914610673578063362925c2146106935780633659cfe6146106b357600080fd5b806316a065c61161033957806323b872dd1161030857806323b872dd1461054f578063282753381461056f5780632bf8e8f61461058f57806332eb808a1461061e57600080fd5b806316a065c6146104cf57806317e0f252146104ef5780631fe543e31461050f57806320dfe3c61461052f57600080fd5b8063081812fc11610375578063081812fc14610420578063095ea7b3146104585780630aaef8021461047a5780630e357a6e146104af57600080fd5b806301ffc9a71461039c578063068bcd8d146103d157806306fdde03146103fe575b600080fd5b3480156103a857600080fd5b506103bc6103b7366004614aa8565b610c6b565b60405190151581526020015b60405180910390f35b3480156103dd57600080fd5b506103f16103ec366004614ac5565b610cbd565b6040516103c89190614ade565b34801561040a57600080fd5b50610413610d4b565b6040516103c89190614b67565b34801561042c57600080fd5b5061044061043b366004614ac5565b610dde565b6040516001600160a01b0390911681526020016103c8565b34801561046457600080fd5b50610478610473366004614b8f565b610e06565b005b34801561048657600080fd5b5061049a610495366004614c8f565b610f20565b604080519283526020830191909152016103c8565b3480156104bb57600080fd5b506103f16104ca366004614b8f565b610fb9565b3480156104db57600080fd5b5060fc54610440906001600160a01b031681565b3480156104fb57600080fd5b5061047861050a366004614ac5565b611059565b34801561051b57600080fd5b5061047861052a366004614cc3565b6110b5565b34801561053b57600080fd5b5061047861054a366004614d4a565b611101565b34801561055b57600080fd5b5061047861056a366004614dcf565b611438565b34801561057b57600080fd5b5061047861058a366004614e54565b611469565b34801561059b57600080fd5b50610103546105e09061ffff8082169162010000810482169164010000000082048116916601000000000000810490911690600160401b90046001600160c01b031685565b6040805161ffff968716815294861660208601529285169284019290925290921660608201526001600160c01b03909116608082015260a0016103c8565b34801561062a57600080fd5b5061063e610639366004614ea9565b6114af565b6040516103c894939291906001600160a01b039485168152602081019390935292166040820152606081019190915260800190565b34801561067f57600080fd5b5061047861068e366004614ee7565b61154a565b34801561069f57600080fd5b506104786106ae366004614fca565b6115eb565b3480156106bf57600080fd5b506104786106ce366004615067565b611740565b3480156106df57600080fd5b506104786106ee366004615084565b61181f565b3480156106ff57600080fd5b5061047861070e366004614dcf565b611895565b34801561071f57600080fd5b5061047861072e36600461509c565b6118b0565b34801561073f57600080fd5b50610478611918565b6104786107563660046150d1565b61194d565b34801561076757600080fd5b50610770611a19565b6040519081526020016103c8565b34801561078a57600080fd5b50610478610799366004614b8f565b611acc565b3480156107aa57600080fd5b506101945460ff166103bc565b3480156107c357600080fd5b506104786107d2366004615067565b611b8a565b3480156107e357600080fd5b506104406107f2366004614ac5565b611bff565b34801561080357600080fd5b50610478610812366004615067565b611c60565b34801561082357600080fd5b5061083761083236600461509c565b611cae565b6040516103c8929190615116565b34801561085157600080fd5b50610770610860366004615067565b611f43565b34801561087157600080fd5b50610478611fca565b34801561088657600080fd5b506103bc610895366004615067565b60fd6020526000908152604090205460ff1681565b3480156108b657600080fd5b506104786108c5366004615067565b611fff565b3480156108d657600080fd5b5061047861208e565b3480156108eb57600080fd5b506104786108fa366004614e54565b6120c1565b34801561090b57600080fd5b506033546001600160a01b0316610440565b34801561092957600080fd5b50610478610938366004615140565b61219e565b34801561094957600080fd5b506104786109583660046151bb565b6121cf565b34801561096957600080fd5b50610413612265565b34801561097e57600080fd5b5061047861098d366004614ac5565b612275565b34801561099e57600080fd5b506104406109ad366004615067565b610102602052600090815260409020546001600160a01b031681565b3480156109d557600080fd5b506104786109e43660046151f9565b6122d2565b3480156109f557600080fd5b50610a09610a04366004614ac5565b61233d565b6040516103c89998979695949392919061520b565b348015610a2a57600080fd5b50610478610a39366004615297565b612442565b348015610a4a57600080fd5b5061010754610440906001600160a01b031681565b348015610a6b57600080fd5b5061047861244d565b348015610a8057600080fd5b50610478610a8f366004615297565b61251a565b348015610aa057600080fd5b50610478610aaf3660046152d0565b61259a565b610478610ac236600461533b565b6125cc565b348015610ad357600080fd5b50610478610ae23660046153b5565b6125fa565b348015610af357600080fd5b50610b2d610b02366004615067565b6001600160a01b03908116600090815261010260205260408082205483168083529120549092911690565b604080516001600160a01b039384168152929091166020830152016103c8565b348015610b5957600080fd5b50610413610b68366004614ac5565b612628565b348015610b7957600080fd5b50610478610b88366004614e54565b6126ab565b348015610b9957600080fd5b506034546001600160a01b0316610440565b348015610bb757600080fd5b50610478610bc63660046153e1565b612776565b348015610bd757600080fd5b506103bc610be6366004615403565b6001600160a01b0391821660009081526101356020908152604080832093909416825291909152205460ff1690565b348015610c2157600080fd5b50610478612791565b348015610c3657600080fd5b506103bc610c45366004614ac5565b6127c4565b348015610c5657600080fd5b5061010454610440906001600160a01b031681565b60006001600160e01b031982166380ac58cd60e01b1480610c9c57506001600160e01b03198216635b5e139f60e01b145b80610cb757506301ffc9a760e01b6001600160e01b03198316145b92915050565b610cef6040518060a0016040528060008152602001600081526020016000815260200160008152602001600081525090565b5060fb5460009081526101016020908152604080832093835292815290829020825160a0810184528154815260018201549281019290925260028101549282019290925260038201546060820152600490910154608082015290565b60606101308054610d5b90615431565b80601f0160208091040260200160405190810160405280929190818152602001828054610d8790615431565b8015610dd45780601f10610da957610100808354040283529160200191610dd4565b820191906000526020600020905b815481529060010190602001808311610db757829003601f168201915b5050505050905090565b6000610de9826127e8565b50600090815261013460205260409020546001600160a01b031690565b6000610e1182611bff565b9050806001600160a01b0316836001600160a01b031603610e835760405162461bcd60e51b815260206004820152602160248201527f4552433732313a20617070726f76616c20746f2063757272656e74206f776e656044820152603960f91b60648201526084015b60405180910390fd5b336001600160a01b0382161480610e9f5750610e9f8133610be6565b610f115760405162461bcd60e51b815260206004820152603d60248201527f4552433732313a20617070726f76652063616c6c6572206973206e6f7420746f60448201527f6b656e206f776e6572206f7220617070726f76656420666f7220616c6c0000006064820152608401610e7a565b610f1b8383612848565b505050565b60fb5460009081526101016020526040808220905163c6533a5360e01b8152829173__$bf3a140bdbff42a6137d0acc0952596ca5$__9163c6533a5391610f7091600182019088906004016154a0565b6040805180830381865af4158015610f8c573d6000803e3d6000fd5b505050506040513d601f19601f82011682018060405250810190610fb091906154bf565b91509150915091565b610feb6040518060a0016040528060008152602001600081526020016000815260200160008152602001600081525090565b5060fb546000908152610101602090815260408083206001600160a01b038616845260019081018352818420858552835292819020815160a0810183528154815293810154928401929092526002820154908301526003810154606083015260040154608082015292915050565b6033546001600160a01b0316331461108457604051632e6c18c960e11b815260040160405180910390fd5b604051339082156108fc029083906000818181858888f193505050501580156110b1573d6000803e3d6000fd5b5050565b6101c6546001600160a01b031633146110f7576101c65460405163073e64fd60e21b81523360048201526001600160a01b039091166024820152604401610e7a565b6110b182826128b7565b61110961293e565b61111161296e565b600888901c60009081526101056020526040902054600160ff8a161b161561114c57604051630490d63160e01b815260040160405180910390fd5b600888901c6000908152610105602052604081208054600160ff8c161b17905561117e46670de0b6b3a76400006154f9565b60ff6000815461118d90615510565b918290555061119c9190615529565b60408051610120810182528b81526001600160a01b038b16602080830182905261ffff8a1683850152600091825260fe9052918220805493945090926060840192906111ed9063ffffffff1661553c565b91906101000a81548163ffffffff021916908363ffffffff160217905563ffffffff168152602001600065ffffffffffff168152602001856001600160801b03168152602001886001600160801b0316815260200187815260200184848080601f016020809104026020016040519081016040528093929190818152602001838380828437600092018290525093909452505083815261010060208181526040928390208551815590850151600182018054948701516060880151608089015165ffffffffffff16600160d01b026001600160d01b0363ffffffff909216600160b01b02919091166001600160b01b0361ffff909316600160a01b026001600160b01b03199098166001600160a01b03909516949094179690961716919091179390931790925560a084015160c08501516001600160801b03908116600160801b02911617600283015560e08401516003830155830151909150600482019061135690826155a5565b5090505061136488826129b5565b610104546040516310b3879160e11b81526001600160a01b038a81166004830152602482018a9052909116906321670f2290604401600060405180830381600087803b1580156113b357600080fd5b505af11580156113c7573d6000803e3d6000fd5b505050506113d581876129cf565b6113df8888612a6e565b80886001600160a01b03168a7faf1bba31184b4d13e4f756b22fc2755d77b6ad147f10a7b12ea6afa58a2ca5f6898b604051611425929190918252602082015260400190565b60405180910390a4505050505050505050565b6114423382612ad2565b61145e5760405162461bcd60e51b8152600401610e7a90615664565b610f1b838383612b52565b61147161296e565b60005b81811015610f1b5761149d838383818110611491576114916156b1565b90506020020135612cc6565b806114a781615510565b915050611474565b60008060008073__$bf3a140bdbff42a6137d0acc0952596ca5$__633f3ccdf96101026101038a8a8a6040518663ffffffff1660e01b81526004016114f89594939291906156ff565b608060405180830381865af4158015611515573d6000803e3d6000fd5b505050506040513d601f19601f82011682018060405250810190611539919061573a565b935093509350935093509350935093565b6033546001600160a01b0316331461157557604051632e6c18c960e11b815260040160405180910390fd5b604051631bd4474f60e31b815273__$bf3a140bdbff42a6137d0acc0952596ca5$__9063dea23a78906115b59060fd9088908890889088906004016157c1565b60006040518083038186803b1580156115cd57600080fd5b505af41580156115e1573d6000803e3d6000fd5b5050505050505050565b600054610100900460ff161580801561160b5750600054600160ff909116105b806116255750303b158015611625575060005460ff166001145b6116885760405162461bcd60e51b815260206004820152602e60248201527f496e697469616c697a61626c653a20636f6e747261637420697320616c72656160448201526d191e481a5b9a5d1a585b1a5e995960921b6064820152608401610e7a565b6000805460ff1916600117905580156116ab576000805461ff0019166101001790555b60fc80546001600160a01b0319166001600160a01b0388161790556116cf85612df9565b6116d98484612e29565b6116e1612e5a565b6116e9612e89565b6116f282612eb8565b8015611738576000805461ff0019169055604051600181527f7f26b83ff96e1f2b6a682f133852f6798a09c465da95921460cefb38474024989060200160405180910390a15b505050505050565b6001600160a01b037f00000000000000000000000000000000000000000000000000000000000000001630036117885760405162461bcd60e51b8152600401610e7a906157fa565b7f00000000000000000000000000000000000000000000000000000000000000006001600160a01b03166117d1600080516020615f64833981519152546001600160a01b031690565b6001600160a01b0316146117f75760405162461bcd60e51b8152600401610e7a90615846565b61180081612f29565b6040805160008082526020820190925261181c91839190612f54565b50565b6033546001600160a01b0316331461184a57604051632e6c18c960e11b815260040160405180910390fd5b8061010661185882826158e3565b9050507f177a1f4181d3bdc94a5ee8b6ea0f1270c5da85b3b5671008c48f0b5d51fa85098160405161188a9190615a3b565b60405180910390a150565b610f1b8383836040518060200160405280600081525061259a565b6118b861296e565b6000806118c7838501856153e1565b91509150816001036118e0576118db6130bf565b611912565b816002036118f0576118db61320e565b81600303611901576118db81613356565b81600403611912576119128161364b565b50505050565b6034546001600160a01b03163314611943576040516305e05b4b60e31b815260040160405180910390fd5b61194b6138fb565b565b6001600160a01b037f00000000000000000000000000000000000000000000000000000000000000001630036119955760405162461bcd60e51b8152600401610e7a906157fa565b7f00000000000000000000000000000000000000000000000000000000000000006001600160a01b03166119de600080516020615f64833981519152546001600160a01b031690565b6001600160a01b031614611a045760405162461bcd60e51b8152600401610e7a90615846565b611a0d82612f29565b6110b182826001612f54565b6000306001600160a01b037f00000000000000000000000000000000000000000000000000000000000000001614611ab95760405162461bcd60e51b815260206004820152603860248201527f555550535570677261646561626c653a206d757374206e6f742062652063616c60448201527f6c6564207468726f7567682064656c656761746563616c6c00000000000000006064820152608401610e7a565b50600080516020615f6483398151915290565b611ad461293e565b611adc61296e565b610104546040516310b3879160e11b81526001600160a01b03848116600483015260248201849052909116906321670f2290604401600060405180830381600087803b158015611b2b57600080fd5b505af1158015611b3f573d6000803e3d6000fd5b50505050816001600160a01b03167f7a0984e898d33e4bf6ad9f851bfab5517683d3dae5b57ed58fa8c7152d822e3282604051611b7e91815260200190565b60405180910390a25050565b6033546001600160a01b03163314611bb557604051632e6c18c960e11b815260040160405180910390fd5b6001600160a01b038116611bdc57604051630ae8f22360e21b815260040160405180910390fd5b61010780546001600160a01b0319166001600160a01b0392909216919091179055565b600081815261013260205260408120546001600160a01b031680610cb75760405162461bcd60e51b8152602060048201526018602482015277115490cdcc8c4e881a5b9d985b1a59081d1bdad95b88125160421b6044820152606401610e7a565b6033546001600160a01b03163314611c8b57604051632e6c18c960e11b815260040160405180910390fd5b61010480546001600160a01b0319166001600160a01b0392909216919091179055565b6101065460009060609060ff16600103611f3c5761010654611ce59064ffffffffff6101008204811691600160581b900416615ae8565b64ffffffffff16421115611d2657604080516001602082018190526000928201929092529092506060015b6040516020818303038152906040529050611f3c565b61010654611d4e9064ffffffffff66010000000000008204811691600160801b900416615ae8565b64ffffffffff16421115611d7c57604080516002602082015260009181019190915260019250606001611d10565b6040516305f739f960e21b815261010b600482015260009073__$f445361e8b50888b0b8cee3fd4db50a783$__906317dce7e490602401602060405180830381865af4158015611dd0573d6000803e3d6000fd5b505050506040513d601f19601f82011682018060405250810190611df49190615b06565b811015611f3a5760405163c9c3102d60e01b815261010b60048201526024810182905260009073__$f445361e8b50888b0b8cee3fd4db50a783$__9063c9c3102d90604401602060405180830381865af4158015611e56573d6000803e3d6000fd5b505050506040513d601f19601f82011682018060405250810190611e7a9190615b06565b60019450905083600082815261010a60205260409020546301000000900460ff166002811115611eac57611eac6156c7565b03611edb5760408051600360208201529081018290526060016040516020818303038152906040529250611f33565b6002600082815261010a60205260409020546301000000900460ff166002811115611f0857611f086156c7565b03611f3357604080516004602082015290810182905260600160405160208183030381529060405292505b5050611f3c565b505b9250929050565b60006001600160a01b038216611fad5760405162461bcd60e51b815260206004820152602960248201527f4552433732313a2061646472657373207a65726f206973206e6f7420612076616044820152683634b21037bbb732b960b91b6064820152608401610e7a565b506001600160a01b03166000908152610133602052604090205490565b6033546001600160a01b03163314611ff557604051632e6c18c960e11b815260040160405180910390fd5b61194b6000613964565b6033546001600160a01b0316331461202a57604051632e6c18c960e11b815260040160405180910390fd5b610104546040516350e0278760e11b81526001600160a01b0383811660048301529091169063a1c04f0e906024015b600060405180830381600087803b15801561207357600080fd5b505af1158015612087573d6000803e3d6000fd5b5050505050565b6033546001600160a01b031633146120b957604051632e6c18c960e11b815260040160405180910390fd5b61194b6139da565b6120c961296e565b60005b81811015610f1b5773__$bf3a140bdbff42a6137d0acc0952596ca5$__63d4166eb0848484818110612100576121006156b1565b6101045460fb5460009081526101016020908152604091829020915160e088901b6001600160e01b031916815293029094013560048301526001600160a01b0316602482015260448101839052600190920160648301525060840160006040518083038186803b15801561217357600080fd5b505af4158015612187573d6000803e3d6000fd5b50505050808061219690615510565b9150506120cc565b6121a661296e565b6121af87612cc6565b6121bc8585858585613a30565b6121c68787613abf565b50505050505050565b6033546001600160a01b031633146121fa57604051632e6c18c960e11b815260040160405180910390fd5b604051631747e07760e01b815273__$bf3a140bdbff42a6137d0acc0952596ca5$__90631747e077906122399061010390879087908790600401615b1f565b60006040518083038186803b15801561225157600080fd5b505af41580156121c6573d6000803e3d6000fd5b60606101318054610d5b90615431565b6033546001600160a01b031633146122a057604051632e6c18c960e11b815260040160405180910390fd5b61010754604051630852cd8d60e31b8152600481018390526001600160a01b03909116906342966c6890602401612059565b6033546001600160a01b031633146122fd57604051632e6c18c960e11b815260040160405180910390fd5b8061010861230b8282615b6c565b9050507f3510c45fb24ce728b56d5136c57163ff69e25ab31ac04a1264387c7acff6c41e8160405161188a9190615c08565b610100602052600090815260409020805460018201546002830154600384015460048501805494956001600160a01b03851695600160a01b860461ffff1695600160b01b810463ffffffff1695600160d01b90910465ffffffffffff16946001600160801b0380831695600160801b909304169390929091906123bf90615431565b80601f01602080910402602001604051908101604052809291908181526020018280546123eb90615431565b80156124385780601f1061240d57610100808354040283529160200191612438565b820191906000526020600020905b81548152906001019060200180831161241b57829003601f168201915b5050505050905089565b6110b1338383613bbb565b6033546001600160a01b0316331461247857604051632e6c18c960e11b815260040160405180910390fd5b600160fb600082825461248b9190615529565b909155503390506108fc60646124a24760106154f9565b6124ac9190615c91565b6040518115909202916000818181858888f193505050501580156124d4573d6000803e3d6000fd5b506124dd6139da565b7f3bf8992b1ca7018d446bcf1d45dc7a62e50decf5248434be4194aef15446338060fb5460405161251091815260200190565b60405180910390a1565b6033546001600160a01b0316331461254557604051632e6c18c960e11b815260040160405180910390fd5b6001600160a01b03821661256c57604051633aafecb360e21b815260040160405180910390fd5b801561257b576110b182613964565b603480546001600160a01b0319166001600160a01b0384161790555050565b6125a43383612ad2565b6125c05760405162461bcd60e51b8152600401610e7a90615664565b61191284848484613c8a565b6125d461296e565b6125dc613cbd565b6125e582613d18565b6125ef8382613dc2565b610f1b600161016255565b61260261296e565b61260b83612cc6565b61261482612cc6565b61261e8382613e95565b610f1b8282613f66565b604051632f8218bd60e21b815261010060048201526024810182905260609073__$3cbd271f598b36a387d6c3d3bdc78254b5$__9063be0862f490604401600060405180830381865af4158015612683573d6000803e3d6000fd5b505050506040513d6000823e601f3d908101601f19168201604052610cb79190810190615ca5565b6126b361296e565b60005b81811015610f1b5773__$bf3a140bdbff42a6137d0acc0952596ca5$__63c4deddb48484848181106126ea576126ea6156b1565b60fb5460009081526101016020908152604091829020915160e087901b6001600160e01b0319168152920290930135600482015260248101839052600190920160448301525060640160006040518083038186803b15801561274b57600080fd5b505af415801561275f573d6000803e3d6000fd5b50505050808061276e90615510565b9150506126b6565b61277e61296e565b61278782612cc6565b6110b18282613abf565b6033546001600160a01b031633146127bc57604051632e6c18c960e11b815260040160405180910390fd5b61194b613fd1565b600881901c60009081526101056020526040812054600160ff84161b161515610cb7565b600081815261013260205260409020546001600160a01b031661181c5760405162461bcd60e51b8152602060048201526018602482015277115490cdcc8c4e881a5b9d985b1a59081d1bdad95b88125160421b6044820152606401610e7a565b60008181526101346020526040902080546001600160a01b0319166001600160a01b038416908117909155819061287e82611bff565b6001600160a01b03167f8c5be1e5ebec7d5bd14f71427d1e84f3dd0314c0f7b2291e5b200ac8c7c3b92560405160405180910390a45050565b600082815261010a602052604090205460ff16806128ea5750600082815261010a6020526040902054610100900460ff16155b1561290b576040516364b4f07960e11b815260048101839052602401610e7a565b600082815261010a60209081526040909120825161293192600190920191840190614a32565b506110b161010b8361400b565b33600090815260fd602052604090205460ff1661194b5760405163143606b960e31b815260040160405180910390fd5b6101945460ff161561194b5760405162461bcd60e51b815260206004820152601060248201526f14185d5cd8589b194e881c185d5cd95960821b6044820152606401610e7a565b6110b182826040518060200160405280600081525061404e565b60fb546000908152610101602052604090819020905163f0f2cef760e01b8152600782016004820152600282016024820152600d82016044820152600c90910160648201526084810183905260a4810182905273__$b6aef517fe05d85bc7364998255804b986$__9063f0f2cef79060c4015b60006040518083038186803b158015612a5a57600080fd5b505af4158015611738573d6000803e3d6000fd5b610104546040516337a8f5a560e01b8152610102600482015261010360248201526001600160a01b03918216604482015290831660648201526084810182905273__$bf3a140bdbff42a6137d0acc0952596ca5$__906337a8f5a59060a401612a42565b600080612ade83611bff565b9050806001600160a01b0316846001600160a01b03161480612b2657506001600160a01b038082166000908152610135602090815260408083209388168352929052205460ff165b80612b4a5750836001600160a01b0316612b3f84610dde565b6001600160a01b0316145b949350505050565b826001600160a01b0316612b6582611bff565b6001600160a01b031614612b8b5760405162461bcd60e51b8152600401610e7a90615d12565b6001600160a01b038216612bed5760405162461bcd60e51b8152602060048201526024808201527f4552433732313a207472616e7366657220746f20746865207a65726f206164646044820152637265737360e01b6064820152608401610e7a565b612bfa8383836001614081565b826001600160a01b0316612c0d82611bff565b6001600160a01b031614612c335760405162461bcd60e51b8152600401610e7a90615d12565b60008181526101346020908152604080832080546001600160a01b03199081169091556001600160a01b03878116808652610133855283862080546000190190559087168086528386208054600101905586865261013290945282852080549092168417909155905184937fddf252ad1be2c89b69c2b068fc378daa952ba7f163c4a11628f55a4df523b3ef91a4505050565b612cce613cbd565b60fb5460009081526101016020526040908190209051633137b76d60e21b815260048101839052602481018290526001909101604482015273__$bf3a140bdbff42a6137d0acc0952596ca5$__9063c4deddb49060640160006040518083038186803b158015612d3d57600080fd5b505af4158015612d51573d6000803e3d6000fd5b50506101045460fb5460009081526101016020526040908190209051630d4166eb60e41b8152600481018690526001600160a01b03909216602483015260448201819052600101606482015273__$bf3a140bdbff42a6137d0acc0952596ca5$__925063d4166eb0915060840160006040518083038186803b158015612dd657600080fd5b505af4158015612dea573d6000803e3d6000fd5b5050505061181c600161016255565b600054610100900460ff16612e205760405162461bcd60e51b8152600401610e7a90615d57565b61181c8161410b565b600054610100900460ff16612e505760405162461bcd60e51b8152600401610e7a90615d57565b6110b1828261413b565b600054610100900460ff16612e815760405162461bcd60e51b8152600401610e7a90615d57565b61194b61417d565b600054610100900460ff16612eb05760405162461bcd60e51b8152600401610e7a90615d57565b61194b6141a4565b600054610100900460ff16612edf5760405162461bcd60e51b8152600401610e7a90615d57565b6001600160a01b038116612f0657604051630cee34c560e11b815260040160405180910390fd5b6101c680546001600160a01b0319166001600160a01b0392909216919091179055565b6033546001600160a01b0316331461181c57604051632e6c18c960e11b815260040160405180910390fd5b7f4910fdfa16fed3260ed0e7147f7cc6da11a60208b5b9406d12a635614ffd91435460ff1615612f8757610f1b836141d8565b826001600160a01b03166352d1902d6040518163ffffffff1660e01b8152600401602060405180830381865afa925050508015612fe1575060408051601f3d908101601f19168201909252612fde91810190615b06565b60015b6130445760405162461bcd60e51b815260206004820152602e60248201527f45524331393637557067726164653a206e657720696d706c656d656e7461746960448201526d6f6e206973206e6f74205555505360901b6064820152608401610e7a565b600080516020615f6483398151915281146130b35760405162461bcd60e51b815260206004820152602960248201527f45524331393637557067726164653a20756e737570706f727465642070726f786044820152681a58589b195555525160ba1b6064820152608401610e7a565b50610f1b838383614274565b6101065460ff166000036130e65760405163a397eb4760e01b815260040160405180910390fd5b6130ef42614299565b610106805464ffffffffff92909216600160581b0264ffffffffff60581b199092169190911790556101c65461010854610109546040516305d3b1d360e41b815260048101929092526001600160401b038116602483015261ffff600160801b820416604483015263ffffffff600160401b820481166064840152600160601b9091041660848201526000916001600160a01b031690635d3b1d309060a4016020604051808303816000875af11580156131ad573d6000803e3d6000fd5b505050506040513d601f19601f820116820180604052508101906131d19190615b06565b600081815261010a60205260409020805461010061ff001982168117835592935060019263ff00ff0019909116176301000000835b021790555050565b6101065460ff166000036132355760405163a397eb4760e01b815260040160405180910390fd5b61323e42614299565b610106805464ffffffffff60801b1916600160801b64ffffffffff9390931683021790556101c65461010854610109546040516305d3b1d360e41b815260048101929092526001600160401b038116602483015292830461ffff166044820152600160401b830463ffffffff9081166064830152600160601b90930490921660848301526000916001600160a01b0390911690635d3b1d309060a4016020604051808303816000875af11580156132f9573d6000803e3d6000fd5b505050506040513d601f19601f8201168201806040525081019061331d9190615b06565b600081815261010a60205260409020805461010061ff001982168117835592935060029263ff00ff001990911617630100000083613206565b6101065460ff1660000361337d5760405163a397eb4760e01b815260040160405180910390fd5b6000613389600a6142b1565b90506000613399605a600a614350565b60fb5460009081526101016020526040908190209051630e719fe960e31b815291925073__$bf3a140bdbff42a6137d0acc0952596ca5$__9163738cff48916133ef918691610106916001820190600401615da2565b60006040518083038186803b15801561340757600080fd5b505af415801561341b573d6000803e3d6000fd5b5060009250600a915061342b9050565b604051908082528060200260200182016040528015613454578160200160208202803683370190505b50600085815261010a60209081526040808320815160a081018352815460ff80821615158352610100820481161515958301959095526201000081048516151593820193909352949550929392916060840191630100000090041660028111156134c0576134c06156c7565b60028111156134d1576134d16156c7565b81526020016001820180548060200260200160405190810160405280929190818152602001828054801561352457602002820191906000526020600020905b815481526020019060010190808311613510575b505050505081525050905060005b8160800151518110156135b15783605a83608001518381518110613558576135586156b1565b602002602001015161356a9190615dd1565b8151811061357a5761357a6156b1565b6020026020010151838281518110613594576135946156b1565b6020908102919091010152806135a981615510565b915050613532565b5060fb5460009081526101016020526040908190209051630e719fe960e31b815273__$bf3a140bdbff42a6137d0acc0952596ca5$__9163738cff489161360691889161010691906001820190600401615da2565b60006040518083038186803b15801561361e57600080fd5b505af4158015613632573d6000803e3d6000fd5b505050506120878561010b6143f690919063ffffffff16565b6101065460ff166000036136725760405163a397eb4760e01b815260040160405180910390fd5b600061367e600a6142b1565b9050600061368e605a600a614350565b60fb54600090815261010160205260409081902090516333772a9d60e01b815291925073__$bf3a140bdbff42a6137d0acc0952596ca5$__916333772a9d916136e4918691610106916001820190600401615da2565b60006040518083038186803b1580156136fc57600080fd5b505af4158015613710573d6000803e3d6000fd5b5060009250600a91506137209050565b604051908082528060200260200182016040528015613749578160200160208202803683370190505b50600085815261010a60209081526040808320815160a081018352815460ff80821615158352610100820481161515958301959095526201000081048516151593820193909352949550929392916060840191630100000090041660028111156137b5576137b56156c7565b60028111156137c6576137c66156c7565b81526020016001820180548060200260200160405190810160405280929190818152602001828054801561381957602002820191906000526020600020905b815481526020019060010190808311613805575b505050505081525050905060005b8160800151518110156138a65783605a8360800151838151811061384d5761384d6156b1565b602002602001015161385f9190615dd1565b8151811061386f5761386f6156b1565b6020026020010151838281518110613889576138896156b1565b60209081029190910101528061389e81615510565b915050613827565b5060fb54600090815261010160205260409081902090516333772a9d60e01b815273__$bf3a140bdbff42a6137d0acc0952596ca5$__916333772a9d9161360691889161010691906001820190600401615da2565b6033546034546040516001600160a01b03928316929091169082907f8be0079c531659141344cd1fd0a4f28419497f9722a3daafe3b4186f6b6457e090600090a35060348054603380546001600160a01b03199081166001600160a01b03841617909155169055565b7fb53127684a568b3173ae13b9f8a6016e243e63b6e8ee1178d6a717850b5d6103819055603380546001600160a01b038084166001600160a01b0319831681179093556040519116919082907f8be0079c531659141344cd1fd0a4f28419497f9722a3daafe3b4186f6b6457e090600090a35050565b6139e261296e565b610194805460ff191660011790557f62e78cea01bee320cd4e420270b5ea74000d11b0c9f74754ebdbfc544b05a258613a183390565b6040516001600160a01b039091168152602001612510565b60fc5460405163d505accf60e01b8152336004820152306024820152604481018790526064810186905260ff8316608482015260a4810185905260c481018490526001600160a01b039091169063d505accf9060e401600060405180830381600087803b158015613aa057600080fd5b505af1158015613ab4573d6000803e3d6000fd5b505050505050505050565b80600003613acb575050565b610107546001600160a01b0316613af55760405163dcabc89960e01b815260040160405180910390fd5b60fc54610107546040516323b872dd60e01b81523360048201526001600160a01b039182166024820152604481018490529116906323b872dd906064016020604051808303816000875af1158015613b51573d6000803e3d6000fd5b505050506040513d601f19601f82011682018060405250810190613b759190615de5565b50613b80828261448f565b604051818152829033907f58c7b3bf0b0e168048426c1e9443a72696526292ca664e18b11f934cd6cfbbf39060200160405180910390a35050565b816001600160a01b0316836001600160a01b031603613c1c5760405162461bcd60e51b815260206004820152601960248201527f4552433732313a20617070726f766520746f2063616c6c6572000000000000006044820152606401610e7a565b6001600160a01b0383811660008181526101356020908152604080832094871680845294825291829020805460ff191686151590811790915591519182527f17307eab39ab6107e8899845ad3d59bd9653f200f220920489ca2b5937696c31910160405180910390a3505050565b613c95848484612b52565b613ca184848484614513565b6119125760405162461bcd60e51b8152600401610e7a90615e02565b60026101625403613d105760405162461bcd60e51b815260206004820152601f60248201527f5265656e7472616e637947756172643a207265656e7472616e742063616c6c006044820152606401610e7a565b600261016255565b33600090815261010260205260409020546001600160a01b0316158015613d4757506001600160a01b03811615155b8015613d5c57506001600160a01b0381163314155b1561181c57336000818152610102602090815260409182902080546001600160a01b0319166001600160a01b0386169081179091558251938452908301527f677cd8c8ce12dc7827579d65be5e6efa74b6ac9ab04ac43d4648dc85d328c2ae910161188a565b6020820151825160009190613dd79084615529565b613de19190615529565b905080341015613e0457604051632ca2f52b60e11b815260040160405180910390fd5b336108fc613e128334615e54565b6040518115909202916000818181858888f19350505050158015613e3a573d6000803e3d6000fd5b50613e453382614614565b6020830151835160405133907f617b1a2bf0533cea0c5dd46104e1d48f8b290fc7d7360dba0182dbf07a00e46a90613e809087815260200190565b60405180910390a4505050565b600161016255565b60fb54600090815261010160209081526040808320338452600181018352818420868552835281842092529091208154831115613ee55760405163fe8b364f60e01b815260040160405180910390fd5b82826000016000828254613ef99190615e54565b9091555050805483908290600090613f12908490615e54565b90915550508054613f2490859061466b565b604080518581526020810185905233917fe6907eb8ffc12ac27891b5560db15647cae89e2b344f0c34c63bb6f1d4249cff91015b60405180910390a250505050565b60006064613f758360056154f9565b613f7f9190615c91565b90506000613f8d8284615e54565b9050613f99848261448f565b604080518581526020810183905233917f7e9ecb928e58cb1d1c8cda62ae789939f9f184616eb26ef72e801f98b6ef556a9101613f58565b613fd96146d9565b610194805460ff191690557f5db9ee0a495bf2e6ff9c91a7834c1ba4fdd244a5e8aa4e537bd38aeae4b073aa33613a18565b6002820180546000908152602084815260408083208590558354858452600180880190935290832081905590929190614045908490615529565b90915550505050565b6140588383614723565b6140656000848484614513565b610f1b5760405162461bcd60e51b8152600401610e7a90615e02565b6001811115611912576001600160a01b038416156140c8576001600160a01b03841660009081526101336020526040812080548392906140c2908490615e54565b90915550505b6001600160a01b03831615611912576001600160a01b0383166000908152610133602052604081208054839290614100908490615529565b909155505050505050565b600054610100900460ff166141325760405162461bcd60e51b8152600401610e7a90615d57565b61181c81613964565b600054610100900460ff166141625760405162461bcd60e51b8152600401610e7a90615d57565b61013061416f83826155a5565b50610131610f1b82826155a5565b600054610100900460ff16613e8d5760405162461bcd60e51b8152600401610e7a90615d57565b600054610100900460ff166141cb5760405162461bcd60e51b8152600401610e7a90615d57565b610194805460ff19169055565b6001600160a01b0381163b6142455760405162461bcd60e51b815260206004820152602d60248201527f455243313936373a206e657720696d706c656d656e746174696f6e206973206e60448201526c1bdd08184818dbdb9d1c9858dd609a1b6064820152608401610e7a565b600080516020615f6483398151915280546001600160a01b0319166001600160a01b0392909216919091179055565b61427d836148c0565b60008251118061428a5750805b15610f1b576119128383614900565b60006142a7610e1083615dd1565b610cb79083615e54565b60fb54600090815261010160205260408082209051634d63fffd60e01b81526002909101600482015260248101919091526044810182905260609073__$69292ab8e6f98571d324d08d63c6dae4eb$__90634d63fffd90606401600060405180830381865af4158015614328573d6000803e3d6000fd5b505050506040513d6000823e601f3d908101601f19168201604052610cb79190810190615e67565b60fb5460009081526101016020526040908190209051634d63fffd60e01b815260029091016004820152602481018290526044810183905260609073__$69292ab8e6f98571d324d08d63c6dae4eb$__90634d63fffd90606401600060405180830381865af41580156143c7573d6000803e3d6000fd5b505050506040513d6000823e601f3d908101601f191682016040526143ef9190810190615e67565b9392505050565b600081815260018084016020526040822054600285015490928592909161441d9190615e54565b815260208082019290925260409081016000908120548482528684528282205584815260018087019093529081208190556002850154859261445e91615e54565b81526020019081526020016000206000905560018360020160008282546144859190615e54565b9091555050505050565b60fb54600090815261010160209081526040808320338452600101825280832085845290915281208054909183918391906144cb908490615529565b909155505060fb546000908152610101602090815260408083208684529091528120805490918491839190614501908490615529565b9091555050805461191290859061466b565b60006001600160a01b0384163b1561460957604051630a85bd0160e11b81526001600160a01b0385169063150b7a0290614557903390899088908890600401615ef7565b6020604051808303816000875af1925050508015614592575060408051601f3d908101601f1916820190925261458f91810190615f2a565b60015b6145ef573d8080156145c0576040519150601f19603f3d011682016040523d82523d6000602084013e6145c5565b606091505b5080516000036145e75760405162461bcd60e51b8152600401610e7a90615e02565b805181602001fd5b6001600160e01b031916630a85bd0160e11b149050612b4a565b506001949350505050565b604051633039061160e01b8152610102600482015261010360248201526001600160a01b03831660448201526064810182905273__$bf3a140bdbff42a6137d0acc0952596ca5$__90633039061190608401612a42565b60fb54600090815261010160205260409081902090516311b7263f60e21b8152600282016004820152600d82016024820152600c9091016044820152606481018390526084810182905273__$b6aef517fe05d85bc7364998255804b986$__906346dc98fc9060a401612a42565b6101945460ff1661194b5760405162461bcd60e51b815260206004820152601460248201527314185d5cd8589b194e881b9bdd081c185d5cd95960621b6044820152606401610e7a565b6001600160a01b0382166147795760405162461bcd60e51b815260206004820181905260248201527f4552433732313a206d696e7420746f20746865207a65726f20616464726573736044820152606401610e7a565b600081815261013260205260409020546001600160a01b0316156147df5760405162461bcd60e51b815260206004820152601c60248201527f4552433732313a20746f6b656e20616c7265616479206d696e746564000000006044820152606401610e7a565b6147ed600083836001614081565b600081815261013260205260409020546001600160a01b0316156148535760405162461bcd60e51b815260206004820152601c60248201527f4552433732313a20746f6b656e20616c7265616479206d696e746564000000006044820152606401610e7a565b6001600160a01b0382166000818152610133602090815260408083208054600101905584835261013290915280822080546001600160a01b0319168417905551839291907fddf252ad1be2c89b69c2b068fc378daa952ba7f163c4a11628f55a4df523b3ef908290a45050565b6148c9816141d8565b6040516001600160a01b038216907fbc7cd75a20ee27fd9adebab32041f755214dbc6bffa90cc0225b39da2e5c2d3b90600090a250565b60606001600160a01b0383163b6149685760405162461bcd60e51b815260206004820152602660248201527f416464726573733a2064656c65676174652063616c6c20746f206e6f6e2d636f6044820152651b9d1c9858dd60d21b6064820152608401610e7a565b600080846001600160a01b0316846040516149839190615f47565b600060405180830381855af49150503d80600081146149be576040519150601f19603f3d011682016040523d82523d6000602084013e6149c3565b606091505b50915091506149eb8282604051806060016040528060278152602001615f84602791396149f4565b95945050505050565b60608315614a035750816143ef565b6143ef8383815115614a185781518083602001fd5b8060405162461bcd60e51b8152600401610e7a9190614b67565b828054828255906000526020600020908101928215614a6d579160200282015b82811115614a6d578251825591602001919060010190614a52565b50614a79929150614a7d565b5090565b5b80821115614a795760008155600101614a7e565b6001600160e01b03198116811461181c57600080fd5b600060208284031215614aba57600080fd5b81356143ef81614a92565b600060208284031215614ad757600080fd5b5035919050565b60a08101610cb7828480518252602081015160208301526040810151604083015260608101516060830152608081015160808301525050565b60005b83811015614b32578181015183820152602001614b1a565b50506000910152565b60008151808452614b53816020860160208601614b17565b601f01601f19169290920160200192915050565b6020815260006143ef6020830184614b3b565b6001600160a01b038116811461181c57600080fd5b60008060408385031215614ba257600080fd5b8235614bad81614b7a565b946020939093013593505050565b634e487b7160e01b600052604160045260246000fd5b604051601f8201601f191681016001600160401b0381118282101715614bf957614bf9614bbb565b604052919050565b60006001600160401b03821115614c1a57614c1a614bbb565b5060051b60200190565b600082601f830112614c3557600080fd5b81356020614c4a614c4583614c01565b614bd1565b82815260059290921b84018101918181019086841115614c6957600080fd5b8286015b84811015614c845780358352918301918301614c6d565b509695505050505050565b600060208284031215614ca157600080fd5b81356001600160401b03811115614cb757600080fd5b612b4a84828501614c24565b60008060408385031215614cd657600080fd5b8235915060208301356001600160401b03811115614cf357600080fd5b614cff85828601614c24565b9150509250929050565b60008083601f840112614d1b57600080fd5b5081356001600160401b03811115614d3257600080fd5b602083019150836020828501011115611f3c57600080fd5b60008060008060008060008060e0898b031215614d6657600080fd5b883597506020890135614d7881614b7a565b965060408901359550606089013594506080890135935060a0890135925060c08901356001600160401b03811115614daf57600080fd5b614dbb8b828c01614d09565b999c989b5096995094979396929594505050565b600080600060608486031215614de457600080fd5b8335614def81614b7a565b92506020840135614dff81614b7a565b929592945050506040919091013590565b60008083601f840112614e2257600080fd5b5081356001600160401b03811115614e3957600080fd5b6020830191508360208260051b8501011115611f3c57600080fd5b60008060208385031215614e6757600080fd5b82356001600160401b03811115614e7d57600080fd5b614e8985828601614e10565b90969095509350505050565b803560028110614ea457600080fd5b919050565b600080600060608486031215614ebe57600080fd5b8335614ec981614b7a565b925060208401359150614ede60408501614e95565b90509250925092565b60008060008060408587031215614efd57600080fd5b84356001600160401b0380821115614f1457600080fd5b614f2088838901614e10565b90965094506020870135915080821115614f3957600080fd5b50614f4687828801614e10565b95989497509550505050565b60006001600160401b03821115614f6b57614f6b614bbb565b50601f01601f191660200190565b600082601f830112614f8a57600080fd5b8135614f98614c4582614f52565b818152846020838601011115614fad57600080fd5b816020850160208301376000918101602001919091529392505050565b600080600080600060a08688031215614fe257600080fd5b8535614fed81614b7a565b94506020860135614ffd81614b7a565b935060408601356001600160401b038082111561501957600080fd5b61502589838a01614f79565b9450606088013591508082111561503b57600080fd5b5061504888828901614f79565b925050608086013561505981614b7a565b809150509295509295909350565b60006020828403121561507957600080fd5b81356143ef81614b7a565b600060e0828403121561509657600080fd5b50919050565b600080602083850312156150af57600080fd5b82356001600160401b038111156150c557600080fd5b614e8985828601614d09565b600080604083850312156150e457600080fd5b82356150ef81614b7a565b915060208301356001600160401b0381111561510a57600080fd5b614cff85828601614f79565b8215158152604060208201526000612b4a6040830184614b3b565b60ff8116811461181c57600080fd5b600080600080600080600060e0888a03121561515b57600080fd5b873596506020880135955060408801359450606088013593506080880135925060a0880135915060c088013561519081615131565b8091505092959891949750929550565b61ffff8116811461181c57600080fd5b8035614ea4816151a0565b6000806000606084860312156151d057600080fd5b83356151db816151a0565b925060208401356151eb816151a0565b9150614ede60408501614e95565b600060a0828403121561509657600080fd5b8981526001600160a01b038916602082015261ffff8816604082015263ffffffff8716606082015265ffffffffffff861660808201526001600160801b0385811660a0830152841660c082015260e08101839052610120610100820181905260009061527983820185614b3b565b9c9b505050505050505050505050565b801515811461181c57600080fd5b600080604083850312156152aa57600080fd5b82356152b581614b7a565b915060208301356152c581615289565b809150509250929050565b600080600080608085870312156152e657600080fd5b84356152f181614b7a565b9350602085013561530181614b7a565b92506040850135915060608501356001600160401b0381111561532357600080fd5b61532f87828801614f79565b91505092959194509250565b6000806000838503608081121561535157600080fd5b604081121561535f57600080fd5b50604051604081018181106001600160401b038211171561538257615382614bbb565b604090815285358252602080870135908301529093508401356153a481614b7a565b929592945050506060919091013590565b6000806000606084860312156153ca57600080fd5b505081359360208301359350604090920135919050565b600080604083850312156153f457600080fd5b50508035926020909101359150565b6000806040838503121561541657600080fd5b823561542181614b7a565b915060208301356152c581614b7a565b600181811c9082168061544557607f821691505b60208210810361509657634e487b7160e01b600052602260045260246000fd5b600081518084526020808501945080840160005b8381101561549557815187529582019590820190600101615479565b509495945050505050565b8381528260208201526060604082015260006149eb6060830184615465565b600080604083850312156154d257600080fd5b505080516020909101519092909150565b634e487b7160e01b600052601160045260246000fd5b8082028115828204841417610cb757610cb76154e3565b600060018201615522576155226154e3565b5060010190565b80820180821115610cb757610cb76154e3565b600063ffffffff808316818103615555576155556154e3565b6001019392505050565b601f821115610f1b57600081815260208120601f850160051c810160208610156155865750805b601f850160051c820191505b8181101561173857828155600101615592565b81516001600160401b038111156155be576155be614bbb565b6155d2816155cc8454615431565b8461555f565b602080601f83116001811461560757600084156155ef5750858301515b600019600386901b1c1916600185901b178555611738565b600085815260208120601f198616915b8281101561563657888601518255948401946001909101908401615617565b50858210156156545787850151600019600388901b60f8161c191681555b5050505050600190811b01905550565b6020808252602d908201527f4552433732313a2063616c6c6572206973206e6f7420746f6b656e206f776e6560408201526c1c881bdc88185c1c1c9bdd9959609a1b606082015260800190565b634e487b7160e01b600052603260045260246000fd5b634e487b7160e01b600052602160045260246000fd5b600281106156fb57634e487b7160e01b600052602160045260246000fd5b9052565b858152602081018590526001600160a01b03841660408201526060810183905260a0810161573060808301846156dd565b9695505050505050565b6000806000806080858703121561575057600080fd5b845161575b81614b7a565b60208601516040870151919550935061577381614b7a565b6060959095015193969295505050565b8183526000602080850194508260005b858110156154955781356157a681614b7a565b6001600160a01b031687529582019590820190600101615793565b8581526060602082015260006157db606083018688615783565b82810360408401526157ee818587615783565b98975050505050505050565b6020808252602c908201527f46756e6374696f6e206d7573742062652063616c6c6564207468726f7567682060408201526b19195b1959d85d1958d85b1b60a21b606082015260800190565b6020808252602c908201527f46756e6374696f6e206d7573742062652063616c6c6564207468726f7567682060408201526b6163746976652070726f787960a01b606082015260800190565b64ffffffffff8116811461181c57600080fd5b60008135610cb781615892565b60008135610cb7816151a0565b68ffffffffffffffffff8116811461181c57600080fd5b60008135610cb7816158bf565b81356158ee81615131565b60ff8116905081548160ff198216178355602084013561590d81615892565b65ffffffffff008160081b169050808365ffffffffffff19841617178455604085013561593981615892565b6affffffffff0000000000008160301b16846affffffffffffffffffffff19851617831717855550505050615999615973606084016158a5565b82805464ffffffffff60581b191660589290921b64ffffffffff60581b16919091179055565b6159ce6159a8608084016158a5565b82805464ffffffffff60801b191660809290921b64ffffffffff60801b16919091179055565b6159fd6159dd60a084016158b2565b82805461ffff60a81b191660a89290921b61ffff60a81b16919091179055565b6110b1615a0c60c084016158d6565b8280546001600160b81b031660b89290921b6001600160b81b031916919091179055565b8035614ea4816158bf565b60e081018235615a4a81615131565b60ff1682526020830135615a5d81615892565b64ffffffffff9081166020840152604084013590615a7a82615892565b9081166040840152606084013590615a9182615892565b9081166060840152608084013590615aa882615892565b166080830152615aba60a084016151b0565b61ffff1660a0830152615acf60c08401615a30565b68ffffffffffffffffff811660c08401525b5092915050565b64ffffffffff818116838216019080821115615ae157615ae16154e3565b600060208284031215615b1857600080fd5b5051919050565b84815261ffff848116602083015283166040820152608081016149eb60608301846156dd565b6001600160401b038116811461181c57600080fd5b63ffffffff8116811461181c57600080fd5b81358155600181016020830135615b8281615b45565b81546040850135615b9281615b5a565b6060860135615ba081615b5a565b6080870135615bae816151a0565b61ffff60801b8160801b166001600160401b03861671ffffffffffffffffffffffffffffffffffff198616176bffffffff00000000000000008560401b161763ffffffff60601b8460601b16171786555050505050505050565b8135815260a081016020830135615c1e81615b45565b6001600160401b031660208301526040830135615c3a81615b5a565b63ffffffff9081166040840152606084013590615c5682615b5a565b1660608301526080830135615c6a816151a0565b61ffff811660808401525092915050565b634e487b7160e01b600052601260045260246000fd5b600082615ca057615ca0615c7b565b500490565b600060208284031215615cb757600080fd5b81516001600160401b03811115615ccd57600080fd5b8201601f81018413615cde57600080fd5b8051615cec614c4582614f52565b818152856020838501011115615d0157600080fd5b6149eb826020830160208601614b17565b60208082526025908201527f4552433732313a207472616e736665722066726f6d20696e636f72726563742060408201526437bbb732b960d91b606082015260800190565b6020808252602b908201527f496e697469616c697a61626c653a20636f6e7472616374206973206e6f74206960408201526a6e697469616c697a696e6760a81b606082015260800190565b608081526000615db56080830187615465565b6020830195909552506040810192909252606090910152919050565b600082615de057615de0615c7b565b500690565b600060208284031215615df757600080fd5b81516143ef81615289565b60208082526032908201527f4552433732313a207472616e7366657220746f206e6f6e20455243373231526560408201527131b2b4bb32b91034b6b83632b6b2b73a32b960711b606082015260800190565b81810381811115610cb757610cb76154e3565b60006020808385031215615e7a57600080fd5b82516001600160401b03811115615e9057600080fd5b8301601f81018513615ea157600080fd5b8051615eaf614c4582614c01565b81815260059190911b82018301908381019087831115615ece57600080fd5b928401925b82841015615eec57835182529284019290840190615ed3565b979650505050505050565b6001600160a01b038581168252841660208201526040810183905260806060820181905260009061573090830184614b3b565b600060208284031215615f3c57600080fd5b81516143ef81614a92565b60008251615f59818460208701614b17565b919091019291505056fe360894a13ba1a3210667c828492db98dca3e2076cc3735a920a3ca505d382bbc416464726573733a206c6f772d6c6576656c2064656c65676174652063616c6c206661696c6564a2646970667358221220b05cd822b6587295b9793f0031cd6380b360ba75cbe1f19ad7d31ef2927a207a64736f6c63430008110033",
  "libraries": {
    "RenderEngine": "0x3F112674c61Cc3a67590eaE2999665b9Bb25dc93",
    "Renderer": "0xC1BEbC49c835baF377A34E69C87EBe940643e39F",
    "FastArray": "0x08c89ea9F6a4140dE96f335162aB89251b210DAf",
    "RankingRedBlackTree": "0x142485a98D3237e7D882b65d9CAb25a925425607",
    "SingleRanking": "0x32e942D8A758D3Ddc45d5faEC998D5a415b0846b",
    "DegenRank": "0x8190aa73eBE01db942901EEa8c6f6c96F98fc532",
    "PortalLib": "0x6B1f1019F8dFe7b67f7d5A7B7c64B7eD4122F98f"
  },
  "devdoc": {
    "errors": {
      "DropOff()": [
        {
          "details": "revert when the drop is not on"
        }
      ],
      "InsufficientAmount()": [
        {
          "details": "revert when msg.value is insufficient"
        }
      ],
      "InvalidRequestId(uint256)": [
        {
          "details": "invliad chainlink vrf request id"
        }
      ],
      "NotSetBurnPoolAddress()": [
        {
          "details": "revert if burnPool address not set when infuse"
        }
      ],
      "NotSigner()": [
        {
          "details": "revert when to caller is not signer"
        }
      ],
      "SameSeed()": [
        {
          "details": "revert when the random seed is duplicated"
        }
      ],
      "SwitchAmountExceedBalance()": [
        {
          "details": "revert when swith amount from pool exceed staked balance"
        }
      ],
      "ZeroAddressSet()": [
        {
          "details": "revert when set ZeroAddress"
        }
      ]
    },
    "kind": "dev",
    "methods": {
      "approve(address,uint256)": {
        "details": "See {IERC721-approve}."
      },
      "balanceOf(address)": {
        "details": "See {IERC721-balanceOf}."
      },
      "baptise(address,uint256)": {
        "details": "reward for share the game",
        "params": {
          "amount": "amount for reward",
          "user": "user address"
        }
      },
      "burnFromBurnPool(uint256)": {
        "details": "burn $REBORN from burn pool",
        "params": {
          "amount": "burn from burn pool"
        }
      },
      "calculateReferReward(address,uint256,uint8)": {
        "details": "returns referrer and referer reward",
        "returns": {
          "ref1": " level1 of referrer. direct referrer",
          "ref1Reward": " level 1 referrer reward",
          "ref2": " level2 of referrer. referrer's referrer",
          "ref2Reward": " level 2 referrer reward"
        }
      },
      "checkUpkeep(bytes)": {
        "details": "checkUpkeep for chainlink automation"
      },
      "claimDrops(uint256[])": {
        "details": "user claim many pools' airdrop",
        "params": {
          "tokenIds": "pools' tokenId array to claim"
        }
      },
      "claimNativeDrops(uint256[])": {
        "details": "user claim many pools' native token airdrop",
        "params": {
          "tokenIds": "pools' tokenId array to claim"
        }
      },
      "claimOwnership()": {
        "details": "pending owner call this function to claim ownership"
      },
      "claimRebornDrops(uint256[])": {
        "details": "user claim many pools' reborn token airdrop",
        "params": {
          "tokenIds": "pools' tokenId array to claim"
        }
      },
      "engrave(bytes32,address,uint256,uint256,uint256,uint256,string)": {
        "details": "engrave the result on chain and reward",
        "params": {
          "cost": "user cost for this life",
          "reward": "$REBORN user earns, decimal 10^18",
          "score": "life score",
          "seed": "random seed in bytes32",
          "user": "user address"
        }
      },
      "getApproved(uint256)": {
        "details": "See {IERC721-getApproved}."
      },
      "getPool(uint256)": {
        "details": "read pool attribute"
      },
      "getPortfolio(address,uint256)": {
        "details": "read pool attribute"
      },
      "getRerferrers(address)": {
        "details": "referrer1: level1 of referrers referrer2: level2 of referrers"
      },
      "infuse(uint256,uint256)": {
        "details": "stake $REBORN on this tombstone",
        "params": {
          "amount": "stake amount, decimal 10^18",
          "tokenId": "tokenId of the life to stake"
        }
      },
      "infuse(uint256,uint256,uint256,uint256,bytes32,bytes32,uint8)": {
        "details": "stake $REBORN with permit",
        "params": {
          "amount": "amount of $REBORN to stake",
          "permitAmount": "amount of $REBORN to approve",
          "r": "r of signature",
          "s": "v of signature",
          "tokenId": "tokenId of the life to stake",
          "v": "v of signature"
        }
      },
      "isApprovedForAll(address,address)": {
        "details": "See {IERC721-isApprovedForAll}."
      },
      "name()": {
        "details": "See {IERC721Metadata-name}."
      },
      "owner()": {
        "details": "Returns the address of the current owner."
      },
      "ownerOf(uint256)": {
        "details": "See {IERC721-ownerOf}."
      },
      "paused()": {
        "details": "Returns true if the contract is paused, and false otherwise."
      },
      "pendingDrop(uint256[])": {
        "details": "read pending reward from specific pool",
        "params": {
          "tokenIds": "tokenId array of the pools"
        }
      },
      "pendingOwner()": {
        "details": "Return the address of the pending owner"
      },
      "performUpkeep(bytes)": {
        "details": "Upkeep perform of chainlink automation"
      },
      "proxiableUUID()": {
        "details": "Implementation of the ERC1822 {proxiableUUID} function. This returns the storage slot used by the implementation. It is used to validate the implementation's compatibility when performing an upgrade. IMPORTANT: A proxy pointing at a proxiable contract should not be considered proxiable itself, because this risks bricking a proxy that upgrades to it, by delegating to itself until out of gas. Thus it is critical that this function revert if invoked through a proxy. This is guaranteed by the `notDelegated` modifier."
      },
      "renounceOwnership()": {
        "details": "Leaves the contract without owner. It will not be possible to call `onlyOwner` functions anymore. Can only be called by the current owner. NOTE: Renouncing ownership will leave the contract without an owner, thereby removing any functionality that is only available to the owner."
      },
      "safeTransferFrom(address,address,uint256)": {
        "details": "See {IERC721-safeTransferFrom}."
      },
      "safeTransferFrom(address,address,uint256,bytes)": {
        "details": "See {IERC721-safeTransferFrom}."
      },
      "seedExists(bytes32)": {
        "details": "check whether the seed is used on-chain",
        "params": {
          "seed": "random seed in bytes32"
        }
      },
      "setApprovalForAll(address,bool)": {
        "details": "See {IERC721-setApprovalForAll}."
      },
      "setDropConf((uint8,uint40,uint40,uint40,uint40,uint16,uint72))": {
        "details": "set new airdrop config"
      },
      "setReferrerRewardFee(uint16,uint16,uint8)": {
        "details": "set percentage of referrer reward",
        "params": {
          "rewardType": "0: incarnate reward 1: engrave reward"
        }
      },
      "setVault(address)": {
        "details": "set vault",
        "params": {
          "vault_": "new vault address"
        }
      },
      "setVrfConf((bytes32,uint64,uint32,uint32,uint16))": {
        "details": "set new chainlink vrf v2 config"
      },
      "supportsInterface(bytes4)": {
        "details": "See {IERC165-supportsInterface}."
      },
      "switchPool(uint256,uint256,uint256)": {
        "details": "switch stake amount from poolFrom to poolTo",
        "params": {
          "amount": "amount to switch",
          "fromTokenId": "tokenId of from pool",
          "toTokenId": "tokenId of to pool"
        }
      },
      "symbol()": {
        "details": "See {IERC721Metadata-symbol}."
      },
      "toNextSeason()": {
        "details": "switch to next season, call by owner"
      },
      "tokenURI(uint256)": {
        "details": "See {IERC721Metadata-tokenURI}."
      },
      "transferFrom(address,address,uint256)": {
        "details": "See {IERC721-transferFrom}."
      },
      "transferOwnership(address,bool)": {
        "details": "Transfers ownership of the contract to a new account (`newOwner`). Can only be called by the current owner. Note If direct is false, it will set an pending owner and the OwnerShipTransferring only happens when the pending owner claim the ownership"
      },
      "updateSigners(address[],address[])": {
        "details": "update signers",
        "params": {
          "toAdd": "list of to be added signer",
          "toRemove": "list of to be removed signer"
        }
      },
      "upgradeTo(address)": {
        "details": "Upgrade the implementation of the proxy to `newImplementation`. Calls {_authorizeUpgrade}. Emits an {Upgraded} event."
      },
      "upgradeToAndCall(address,bytes)": {
        "details": "Upgrade the implementation of the proxy to `newImplementation`, and subsequently execute the function call encoded in `data`. Calls {_authorizeUpgrade}. Emits an {Upgraded} event."
      },
      "withdrawNativeToken(uint256)": {
        "details": "withdraw native token for reward distributionamount how much to withdraw"
      },
      "withdrawVault(address)": {
        "details": "withdraw token from vault",
        "params": {
          "to": "the address which owner withdraw token to"
        }
      }
    },
    "version": 1
  },
  "userdoc": {
    "kind": "user",
    "methods": {
      "getRerferrers(address)": {
        "notice": "A -> B -> C: B: level1 A: level2"
      },
      "setReferrerRewardFee(uint16,uint16,uint8)": {
        "notice": "mul 100 when set. eg: 8% -> 800 18%-> 1800"
      }
    },
    "version": 1
  },
  "storageLayout": {
    "storage": [
      {
        "astId": 549,
        "contract": "src/RebornPortal.sol:RebornPortal",
        "label": "_initialized",
        "offset": 0,
        "slot": "0",
        "type": "t_uint8"
      },
      {
        "astId": 552,
        "contract": "src/RebornPortal.sol:RebornPortal",
        "label": "_initializing",
        "offset": 1,
        "slot": "0",
        "type": "t_bool"
      },
      {
        "astId": 3596,
        "contract": "src/RebornPortal.sol:RebornPortal",
        "label": "__gap",
        "offset": 0,
        "slot": "1",
        "type": "t_array(t_uint256)50_storage"
      },
      {
        "astId": 8211,
        "contract": "src/RebornPortal.sol:RebornPortal",
        "label": "_owner",
        "offset": 0,
        "slot": "51",
        "type": "t_address"
      },
      {
        "astId": 8213,
        "contract": "src/RebornPortal.sol:RebornPortal",
        "label": "_pendingOwner",
        "offset": 0,
        "slot": "52",
        "type": "t_address"
      },
      {
        "astId": 8404,
        "contract": "src/RebornPortal.sol:RebornPortal",
        "label": "__gap",
        "offset": 0,
        "slot": "53",
        "type": "t_array(t_uint256)48_storage"
      },
      {
        "astId": 531,
        "contract": "src/RebornPortal.sol:RebornPortal",
        "label": "__gap",
        "offset": 0,
        "slot": "101",
        "type": "t_array(t_uint256)50_storage"
      },
      {
        "astId": 846,
        "contract": "src/RebornPortal.sol:RebornPortal",
        "label": "__gap",
        "offset": 0,
        "slot": "151",
        "type": "t_array(t_uint256)50_storage"
      },
      {
        "astId": 4460,
        "contract": "src/RebornPortal.sol:RebornPortal",
        "label": "__gap",
        "offset": 0,
        "slot": "201",
        "type": "t_array(t_uint256)50_storage"
      },
      {
        "astId": 12029,
        "contract": "src/RebornPortal.sol:RebornPortal",
        "label": "_season",
        "offset": 0,
        "slot": "251",
        "type": "t_uint256"
      },
      {
        "astId": 12032,
        "contract": "src/RebornPortal.sol:RebornPortal",
        "label": "rebornToken",
        "offset": 0,
        "slot": "252",
        "type": "t_contract(RBT)10022"
      },
      {
        "astId": 12036,
        "contract": "src/RebornPortal.sol:RebornPortal",
        "label": "signers",
        "offset": 0,
        "slot": "253",
        "type": "t_mapping(t_address,t_bool)"
      },
      {
        "astId": 12040,
        "contract": "src/RebornPortal.sol:RebornPortal",
        "label": "rounds",
        "offset": 0,
        "slot": "254",
        "type": "t_mapping(t_address,t_uint32)"
      },
      {
        "astId": 12042,
        "contract": "src/RebornPortal.sol:RebornPortal",
        "label": "idx",
        "offset": 0,
        "slot": "255",
        "type": "t_uint256"
      },
      {
        "astId": 12047,
        "contract": "src/RebornPortal.sol:RebornPortal",
        "label": "details",
        "offset": 0,
        "slot": "256",
        "type": "t_mapping(t_uint256,t_struct(LifeDetail)12633_storage)"
      },
      {
        "astId": 12052,
        "contract": "src/RebornPortal.sol:RebornPortal",
        "label": "_seasonData",
        "offset": 0,
        "slot": "257",
        "type": "t_mapping(t_uint256,t_struct(SeasonData)12661_storage)"
      },
      {
        "astId": 12056,
        "contract": "src/RebornPortal.sol:RebornPortal",
        "label": "referrals",
        "offset": 0,
        "slot": "258",
        "type": "t_mapping(t_address,t_address)"
      },
      {
        "astId": 12059,
        "contract": "src/RebornPortal.sol:RebornPortal",
        "label": "rewardFees",
        "offset": 0,
        "slot": "259",
        "type": "t_struct(ReferrerRewardFees)8712_storage"
      },
      {
        "astId": 12062,
        "contract": "src/RebornPortal.sol:RebornPortal",
        "label": "vault",
        "offset": 0,
        "slot": "260",
        "type": "t_contract(RewardVault)12458"
      },
      {
        "astId": 12065,
        "contract": "src/RebornPortal.sol:RebornPortal",
        "label": "_seeds",
        "offset": 0,
        "slot": "261",
        "type": "t_struct(BitMap)5346_storage"
      },
      {
        "astId": 12068,
        "contract": "src/RebornPortal.sol:RebornPortal",
        "label": "_dropConf",
        "offset": 0,
        "slot": "262",
        "type": "t_struct(AirdropConf)8750_storage"
      },
      {
        "astId": 12070,
        "contract": "src/RebornPortal.sol:RebornPortal",
        "label": "burnPool",
        "offset": 0,
        "slot": "263",
        "type": "t_address"
      },
      {
        "astId": 12073,
        "contract": "src/RebornPortal.sol:RebornPortal",
        "label": "_vrfConf",
        "offset": 0,
        "slot": "264",
        "type": "t_struct(VrfConf)8761_storage"
      },
      {
        "astId": 12078,
        "contract": "src/RebornPortal.sol:RebornPortal",
        "label": "_vrfRequests",
        "offset": 0,
        "slot": "266",
        "type": "t_mapping(t_uint256,t_struct(RequestStatus)12678_storage)"
      },
      {
        "astId": 12081,
        "contract": "src/RebornPortal.sol:RebornPortal",
        "label": "_pendingDrops",
        "offset": 0,
        "slot": "267",
        "type": "t_struct(Data)13001_storage"
      },
      {
        "astId": 12086,
        "contract": "src/RebornPortal.sol:RebornPortal",
        "label": "_gap",
        "offset": 0,
        "slot": "270",
        "type": "t_array(t_uint256)34_storage"
      },
      {
        "astId": 2169,
        "contract": "src/RebornPortal.sol:RebornPortal",
        "label": "_name",
        "offset": 0,
        "slot": "304",
        "type": "t_string_storage"
      },
      {
        "astId": 2171,
        "contract": "src/RebornPortal.sol:RebornPortal",
        "label": "_symbol",
        "offset": 0,
        "slot": "305",
        "type": "t_string_storage"
      },
      {
        "astId": 2175,
        "contract": "src/RebornPortal.sol:RebornPortal",
        "label": "_owners",
        "offset": 0,
        "slot": "306",
        "type": "t_mapping(t_uint256,t_address)"
      },
      {
        "astId": 2179,
        "contract": "src/RebornPortal.sol:RebornPortal",
        "label": "_balances",
        "offset": 0,
        "slot": "307",
        "type": "t_mapping(t_address,t_uint256)"
      },
      {
        "astId": 2183,
        "contract": "src/RebornPortal.sol:RebornPortal",
        "label": "_tokenApprovals",
        "offset": 0,
        "slot": "308",
        "type": "t_mapping(t_uint256,t_address)"
      },
      {
        "astId": 2189,
        "contract": "src/RebornPortal.sol:RebornPortal",
        "label": "_operatorApprovals",
        "offset": 0,
        "slot": "309",
        "type": "t_mapping(t_address,t_mapping(t_address,t_bool))"
      },
      {
        "astId": 3109,
        "contract": "src/RebornPortal.sol:RebornPortal",
        "label": "__gap",
        "offset": 0,
        "slot": "310",
        "type": "t_array(t_uint256)44_storage"
      },
      {
        "astId": 988,
        "contract": "src/RebornPortal.sol:RebornPortal",
        "label": "_status",
        "offset": 0,
        "slot": "354",
        "type": "t_uint256"
      },
      {
        "astId": 1046,
        "contract": "src/RebornPortal.sol:RebornPortal",
        "label": "__gap",
        "offset": 0,
        "slot": "355",
        "type": "t_array(t_uint256)49_storage"
      },
      {
        "astId": 868,
        "contract": "src/RebornPortal.sol:RebornPortal",
        "label": "_paused",
        "offset": 0,
        "slot": "404",
        "type": "t_bool"
      },
      {
        "astId": 973,
        "contract": "src/RebornPortal.sol:RebornPortal",
        "label": "__gap",
        "offset": 0,
        "slot": "405",
        "type": "t_array(t_uint256)49_storage"
      },
      {
        "astId": 16585,
        "contract": "src/RebornPortal.sol:RebornPortal",
        "label": "vrfCoordinator",
        "offset": 0,
        "slot": "454",
        "type": "t_address"
      },
      {
        "astId": 16589,
        "contract": "src/RebornPortal.sol:RebornPortal",
        "label": "__gap",
        "offset": 0,
        "slot": "455",
        "type": "t_array(t_uint256)49_storage"
      }
    ],
    "types": {
      "t_address": {
        "encoding": "inplace",
        "label": "address",
        "numberOfBytes": "20"
      },
      "t_array(t_uint256)34_storage": {
        "base": "t_uint256",
        "encoding": "inplace",
        "label": "uint256[34]",
        "numberOfBytes": "1088"
      },
      "t_array(t_uint256)44_storage": {
        "base": "t_uint256",
        "encoding": "inplace",
        "label": "uint256[44]",
        "numberOfBytes": "1408"
      },
      "t_array(t_uint256)48_storage": {
        "base": "t_uint256",
        "encoding": "inplace",
        "label": "uint256[48]",
        "numberOfBytes": "1536"
      },
      "t_array(t_uint256)49_storage": {
        "base": "t_uint256",
        "encoding": "inplace",
        "label": "uint256[49]",
        "numberOfBytes": "1568"
      },
      "t_array(t_uint256)50_storage": {
        "base": "t_uint256",
        "encoding": "inplace",
        "label": "uint256[50]",
        "numberOfBytes": "1600"
      },
      "t_array(t_uint256)dyn_storage": {
        "base": "t_uint256",
        "encoding": "dynamic_array",
        "label": "uint256[]",
        "numberOfBytes": "32"
      },
      "t_bool": {
        "encoding": "inplace",
        "label": "bool",
        "numberOfBytes": "1"
      },
      "t_bytes32": {
        "encoding": "inplace",
        "label": "bytes32",
        "numberOfBytes": "32"
      },
      "t_contract(RBT)10022": {
        "encoding": "inplace",
        "label": "contract RBT",
        "numberOfBytes": "20"
      },
      "t_contract(RewardVault)12458": {
        "encoding": "inplace",
        "label": "contract RewardVault",
        "numberOfBytes": "20"
      },
      "t_enum(AirdropVrfType)12665": {
        "encoding": "inplace",
        "label": "enum IRebornDefination.AirdropVrfType",
        "numberOfBytes": "1"
      },
      "t_mapping(t_address,t_address)": {
        "encoding": "mapping",
        "key": "t_address",
        "label": "mapping(address => address)",
        "numberOfBytes": "32",
        "value": "t_address"
      },
      "t_mapping(t_address,t_bool)": {
        "encoding": "mapping",
        "key": "t_address",
        "label": "mapping(address => bool)",
        "numberOfBytes": "32",
        "value": "t_bool"
      },
      "t_mapping(t_address,t_mapping(t_address,t_bool))": {
        "encoding": "mapping",
        "key": "t_address",
        "label": "mapping(address => mapping(address => bool))",
        "numberOfBytes": "32",
        "value": "t_mapping(t_address,t_bool)"
      },
      "t_mapping(t_address,t_mapping(t_uint256,t_struct(Portfolio)8735_storage))": {
        "encoding": "mapping",
        "key": "t_address",
        "label": "mapping(address => mapping(uint256 => struct PortalLib.Portfolio))",
        "numberOfBytes": "32",
        "value": "t_mapping(t_uint256,t_struct(Portfolio)8735_storage)"
      },
      "t_mapping(t_address,t_uint256)": {
        "encoding": "mapping",
        "key": "t_address",
        "label": "mapping(address => uint256)",
        "numberOfBytes": "32",
        "value": "t_uint256"
      },
      "t_mapping(t_address,t_uint32)": {
        "encoding": "mapping",
        "key": "t_address",
        "label": "mapping(address => uint32)",
        "numberOfBytes": "32",
        "value": "t_uint32"
      },
      "t_mapping(t_uint256,t_address)": {
        "encoding": "mapping",
        "key": "t_uint256",
        "label": "mapping(uint256 => address)",
        "numberOfBytes": "32",
        "value": "t_address"
      },
      "t_mapping(t_uint256,t_struct(Data)13001_storage)": {
        "encoding": "mapping",
        "key": "t_uint256",
        "label": "mapping(uint256 => struct FastArray.Data)",
        "numberOfBytes": "32",
        "value": "t_struct(Data)13001_storage"
      },
      "t_mapping(t_uint256,t_struct(LifeDetail)12633_storage)": {
        "encoding": "mapping",
        "key": "t_uint256",
        "label": "mapping(uint256 => struct IRebornDefination.LifeDetail)",
        "numberOfBytes": "32",
        "value": "t_struct(LifeDetail)12633_storage"
      },
      "t_mapping(t_uint256,t_struct(Node)13241_storage)": {
        "encoding": "mapping",
        "key": "t_uint256",
        "label": "mapping(uint256 => struct RankingRedBlackTree.Node)",
        "numberOfBytes": "32",
        "value": "t_struct(Node)13241_storage"
      },
      "t_mapping(t_uint256,t_struct(Pool)8723_storage)": {
        "encoding": "mapping",
        "key": "t_uint256",
        "label": "mapping(uint256 => struct PortalLib.Pool)",
        "numberOfBytes": "32",
        "value": "t_struct(Pool)8723_storage"
      },
      "t_mapping(t_uint256,t_struct(Portfolio)8735_storage)": {
        "encoding": "mapping",
        "key": "t_uint256",
        "label": "mapping(uint256 => struct PortalLib.Portfolio)",
        "numberOfBytes": "32",
        "value": "t_struct(Portfolio)8735_storage"
      },
      "t_mapping(t_uint256,t_struct(RequestStatus)12678_storage)": {
        "encoding": "mapping",
        "key": "t_uint256",
        "label": "mapping(uint256 => struct IRebornDefination.RequestStatus)",
        "numberOfBytes": "32",
        "value": "t_struct(RequestStatus)12678_storage"
      },
      "t_mapping(t_uint256,t_struct(SeasonData)12661_storage)": {
        "encoding": "mapping",
        "key": "t_uint256",
        "label": "mapping(uint256 => struct IRebornDefination.SeasonData)",
        "numberOfBytes": "32",
        "value": "t_struct(SeasonData)12661_storage"
      },
      "t_mapping(t_uint256,t_uint256)": {
        "encoding": "mapping",
        "key": "t_uint256",
        "label": "mapping(uint256 => uint256)",
        "numberOfBytes": "32",
        "value": "t_uint256"
      },
      "t_string_storage": {
        "encoding": "bytes",
        "label": "string",
        "numberOfBytes": "32"
      },
      "t_struct(AirdropConf)8750_storage": {
        "encoding": "inplace",
        "label": "struct PortalLib.AirdropConf",
        "members": [
          {
            "astId": 8737,
            "contract": "src/RebornPortal.sol:RebornPortal",
            "label": "_dropOn",
            "offset": 0,
            "slot": "0",
            "type": "t_uint8"
          },
          {
            "astId": 8739,
            "contract": "src/RebornPortal.sol:RebornPortal",
            "label": "_rebornDropInterval",
            "offset": 1,
            "slot": "0",
            "type": "t_uint40"
          },
          {
            "astId": 8741,
            "contract": "src/RebornPortal.sol:RebornPortal",
            "label": "_nativeDropInterval",
            "offset": 6,
            "slot": "0",
            "type": "t_uint40"
          },
          {
            "astId": 8743,
            "contract": "src/RebornPortal.sol:RebornPortal",
            "label": "_rebornDropLastUpdate",
            "offset": 11,
            "slot": "0",
            "type": "t_uint40"
          },
          {
            "astId": 8745,
            "contract": "src/RebornPortal.sol:RebornPortal",
            "label": "_nativeDropLastUpdate",
            "offset": 16,
            "slot": "0",
            "type": "t_uint40"
          },
          {
            "astId": 8747,
            "contract": "src/RebornPortal.sol:RebornPortal",
            "label": "_nativeDropRatio",
            "offset": 21,
            "slot": "0",
            "type": "t_uint16"
          },
          {
            "astId": 8749,
            "contract": "src/RebornPortal.sol:RebornPortal",
            "label": "_rebornDropEthAmount",
            "offset": 23,
            "slot": "0",
            "type": "t_uint72"
          }
        ],
        "numberOfBytes": "32"
      },
      "t_struct(BitMap)5346_storage": {
        "encoding": "inplace",
        "label": "struct BitMapsUpgradeable.BitMap",
        "members": [
          {
            "astId": 5345,
            "contract": "src/RebornPortal.sol:RebornPortal",
            "label": "_data",
            "offset": 0,
            "slot": "0",
            "type": "t_mapping(t_uint256,t_uint256)"
          }
        ],
        "numberOfBytes": "32"
      },
      "t_struct(Data)13001_storage": {
        "encoding": "inplace",
        "label": "struct FastArray.Data",
        "members": [
          {
            "astId": 12994,
            "contract": "src/RebornPortal.sol:RebornPortal",
            "label": "array",
            "offset": 0,
            "slot": "0",
            "type": "t_mapping(t_uint256,t_uint256)"
          },
          {
            "astId": 12998,
            "contract": "src/RebornPortal.sol:RebornPortal",
            "label": "indexMap",
            "offset": 0,
            "slot": "1",
            "type": "t_mapping(t_uint256,t_uint256)"
          },
          {
            "astId": 13000,
            "contract": "src/RebornPortal.sol:RebornPortal",
            "label": "length",
            "offset": 0,
            "slot": "2",
            "type": "t_uint256"
          }
        ],
        "numberOfBytes": "96"
      },
      "t_struct(Data)16068_storage": {
        "encoding": "inplace",
        "label": "struct SingleRanking.Data",
        "members": [
          {
            "astId": 16060,
            "contract": "src/RebornPortal.sol:RebornPortal",
            "label": "tree",
            "offset": 0,
            "slot": "0",
            "type": "t_struct(Tree)13251_storage"
          },
          {
            "astId": 16065,
            "contract": "src/RebornPortal.sol:RebornPortal",
            "label": "keys",
            "offset": 0,
            "slot": "3",
            "type": "t_mapping(t_uint256,t_struct(Data)13001_storage)"
          },
          {
            "astId": 16067,
            "contract": "src/RebornPortal.sol:RebornPortal",
            "label": "length",
            "offset": 0,
            "slot": "4",
            "type": "t_uint256"
          }
        ],
        "numberOfBytes": "160"
      },
      "t_struct(LifeDetail)12633_storage": {
        "encoding": "inplace",
        "label": "struct IRebornDefination.LifeDetail",
        "members": [
          {
            "astId": 12616,
            "contract": "src/RebornPortal.sol:RebornPortal",
            "label": "seed",
            "offset": 0,
            "slot": "0",
            "type": "t_bytes32"
          },
          {
            "astId": 12618,
            "contract": "src/RebornPortal.sol:RebornPortal",
            "label": "creator",
            "offset": 0,
            "slot": "1",
            "type": "t_address"
          },
          {
            "astId": 12620,
            "contract": "src/RebornPortal.sol:RebornPortal",
            "label": "age",
            "offset": 20,
            "slot": "1",
            "type": "t_uint16"
          },
          {
            "astId": 12622,
            "contract": "src/RebornPortal.sol:RebornPortal",
            "label": "round",
            "offset": 22,
            "slot": "1",
            "type": "t_uint32"
          },
          {
            "astId": 12624,
            "contract": "src/RebornPortal.sol:RebornPortal",
            "label": "nothing",
            "offset": 26,
            "slot": "1",
            "type": "t_uint48"
          },
          {
            "astId": 12626,
            "contract": "src/RebornPortal.sol:RebornPortal",
            "label": "cost",
            "offset": 0,
            "slot": "2",
            "type": "t_uint128"
          },
          {
            "astId": 12628,
            "contract": "src/RebornPortal.sol:RebornPortal",
            "label": "reward",
            "offset": 16,
            "slot": "2",
            "type": "t_uint128"
          },
          {
            "astId": 12630,
            "contract": "src/RebornPortal.sol:RebornPortal",
            "label": "score",
            "offset": 0,
            "slot": "3",
            "type": "t_uint256"
          },
          {
            "astId": 12632,
            "contract": "src/RebornPortal.sol:RebornPortal",
            "label": "creatorName",
            "offset": 0,
            "slot": "4",
            "type": "t_string_storage"
          }
        ],
        "numberOfBytes": "160"
      },
      "t_struct(Node)13241_storage": {
        "encoding": "inplace",
        "label": "struct RankingRedBlackTree.Node",
        "members": [
          {
            "astId": 13228,
            "contract": "src/RebornPortal.sol:RebornPortal",
            "label": "id",
            "offset": 0,
            "slot": "0",
            "type": "t_uint256"
          },
          {
            "astId": 13230,
            "contract": "src/RebornPortal.sol:RebornPortal",
            "label": "value",
            "offset": 0,
            "slot": "1",
            "type": "t_uint256"
          },
          {
            "astId": 13232,
            "contract": "src/RebornPortal.sol:RebornPortal",
            "label": "count",
            "offset": 0,
            "slot": "2",
            "type": "t_uint256"
          },
          {
            "astId": 13234,
            "contract": "src/RebornPortal.sol:RebornPortal",
            "label": "parent",
            "offset": 0,
            "slot": "3",
            "type": "t_uint256"
          },
          {
            "astId": 13236,
            "contract": "src/RebornPortal.sol:RebornPortal",
            "label": "left",
            "offset": 0,
            "slot": "4",
            "type": "t_uint256"
          },
          {
            "astId": 13238,
            "contract": "src/RebornPortal.sol:RebornPortal",
            "label": "right",
            "offset": 0,
            "slot": "5",
            "type": "t_uint256"
          },
          {
            "astId": 13240,
            "contract": "src/RebornPortal.sol:RebornPortal",
            "label": "red",
            "offset": 0,
            "slot": "6",
            "type": "t_bool"
          }
        ],
        "numberOfBytes": "224"
      },
      "t_struct(Pool)8723_storage": {
        "encoding": "inplace",
        "label": "struct PortalLib.Pool",
        "members": [
          {
            "astId": 8714,
            "contract": "src/RebornPortal.sol:RebornPortal",
            "label": "totalAmount",
            "offset": 0,
            "slot": "0",
            "type": "t_uint256"
          },
          {
            "astId": 8716,
            "contract": "src/RebornPortal.sol:RebornPortal",
            "label": "accRebornPerShare",
            "offset": 0,
            "slot": "1",
            "type": "t_uint256"
          },
          {
            "astId": 8718,
            "contract": "src/RebornPortal.sol:RebornPortal",
            "label": "accNativePerShare",
            "offset": 0,
            "slot": "2",
            "type": "t_uint256"
          },
          {
            "astId": 8720,
            "contract": "src/RebornPortal.sol:RebornPortal",
            "label": "epoch",
            "offset": 0,
            "slot": "3",
            "type": "t_uint256"
          },
          {
            "astId": 8722,
            "contract": "src/RebornPortal.sol:RebornPortal",
            "label": "lastUpdated",
            "offset": 0,
            "slot": "4",
            "type": "t_uint256"
          }
        ],
        "numberOfBytes": "160"
      },
      "t_struct(Portfolio)8735_storage": {
        "encoding": "inplace",
        "label": "struct PortalLib.Portfolio",
        "members": [
          {
            "astId": 8725,
            "contract": "src/RebornPortal.sol:RebornPortal",
            "label": "accumulativeAmount",
            "offset": 0,
            "slot": "0",
            "type": "t_uint256"
          },
          {
            "astId": 8727,
            "contract": "src/RebornPortal.sol:RebornPortal",
            "label": "rebornRewardDebt",
            "offset": 0,
            "slot": "1",
            "type": "t_uint256"
          },
          {
            "astId": 8729,
            "contract": "src/RebornPortal.sol:RebornPortal",
            "label": "nativeRewardDebt",
            "offset": 0,
            "slot": "2",
            "type": "t_uint256"
          },
          {
            "astId": 8732,
            "contract": "src/RebornPortal.sol:RebornPortal",
            "label": "pendingOwnerRebornReward",
            "offset": 0,
            "slot": "3",
            "type": "t_uint256"
          },
          {
            "astId": 8734,
            "contract": "src/RebornPortal.sol:RebornPortal",
            "label": "pendingOwernNativeReward",
            "offset": 0,
            "slot": "4",
            "type": "t_uint256"
          }
        ],
        "numberOfBytes": "160"
      },
      "t_struct(ReferrerRewardFees)8712_storage": {
        "encoding": "inplace",
        "label": "struct PortalLib.ReferrerRewardFees",
        "members": [
          {
            "astId": 8703,
            "contract": "src/RebornPortal.sol:RebornPortal",
            "label": "incarnateRef1Fee",
            "offset": 0,
            "slot": "0",
            "type": "t_uint16"
          },
          {
            "astId": 8705,
            "contract": "src/RebornPortal.sol:RebornPortal",
            "label": "incarnateRef2Fee",
            "offset": 2,
            "slot": "0",
            "type": "t_uint16"
          },
          {
            "astId": 8707,
            "contract": "src/RebornPortal.sol:RebornPortal",
            "label": "vaultRef1Fee",
            "offset": 4,
            "slot": "0",
            "type": "t_uint16"
          },
          {
            "astId": 8709,
            "contract": "src/RebornPortal.sol:RebornPortal",
            "label": "vaultRef2Fee",
            "offset": 6,
            "slot": "0",
            "type": "t_uint16"
          },
          {
            "astId": 8711,
            "contract": "src/RebornPortal.sol:RebornPortal",
            "label": "_slotPlaceholder",
            "offset": 8,
            "slot": "0",
            "type": "t_uint192"
          }
        ],
        "numberOfBytes": "32"
      },
      "t_struct(RequestStatus)12678_storage": {
        "encoding": "inplace",
        "label": "struct IRebornDefination.RequestStatus",
        "members": [
          {
            "astId": 12667,
            "contract": "src/RebornPortal.sol:RebornPortal",
            "label": "fulfilled",
            "offset": 0,
            "slot": "0",
            "type": "t_bool"
          },
          {
            "astId": 12669,
            "contract": "src/RebornPortal.sol:RebornPortal",
            "label": "exists",
            "offset": 1,
            "slot": "0",
            "type": "t_bool"
          },
          {
            "astId": 12671,
            "contract": "src/RebornPortal.sol:RebornPortal",
            "label": "executed",
            "offset": 2,
            "slot": "0",
            "type": "t_bool"
          },
          {
            "astId": 12674,
            "contract": "src/RebornPortal.sol:RebornPortal",
            "label": "t",
            "offset": 3,
            "slot": "0",
            "type": "t_enum(AirdropVrfType)12665"
          },
          {
            "astId": 12677,
            "contract": "src/RebornPortal.sol:RebornPortal",
            "label": "randomWords",
            "offset": 0,
            "slot": "1",
            "type": "t_array(t_uint256)dyn_storage"
          }
        ],
        "numberOfBytes": "64"
      },
      "t_struct(SeasonData)12661_storage": {
        "encoding": "inplace",
        "label": "struct IRebornDefination.SeasonData",
        "members": [
          {
            "astId": 12638,
            "contract": "src/RebornPortal.sol:RebornPortal",
            "label": "pools",
            "offset": 0,
            "slot": "0",
            "type": "t_mapping(t_uint256,t_struct(Pool)8723_storage)"
          },
          {
            "astId": 12646,
            "contract": "src/RebornPortal.sol:RebornPortal",
            "label": "portfolios",
            "offset": 0,
            "slot": "1",
            "type": "t_mapping(t_address,t_mapping(t_uint256,t_struct(Portfolio)8735_storage))"
          },
          {
            "astId": 12649,
            "contract": "src/RebornPortal.sol:RebornPortal",
            "label": "_tributeRank",
            "offset": 0,
            "slot": "2",
            "type": "t_struct(Data)16068_storage"
          },
          {
            "astId": 12652,
            "contract": "src/RebornPortal.sol:RebornPortal",
            "label": "_scoreRank",
            "offset": 0,
            "slot": "7",
            "type": "t_struct(Data)16068_storage"
          },
          {
            "astId": 12656,
            "contract": "src/RebornPortal.sol:RebornPortal",
            "label": "_oldStakeAmounts",
            "offset": 0,
            "slot": "12",
            "type": "t_mapping(t_uint256,t_uint256)"
          },
          {
            "astId": 12660,
            "contract": "src/RebornPortal.sol:RebornPortal",
            "label": "_isTopHundredScore",
            "offset": 0,
            "slot": "13",
            "type": "t_struct(BitMap)5346_storage"
          }
        ],
        "numberOfBytes": "448"
      },
      "t_struct(Tree)13251_storage": {
        "encoding": "inplace",
        "label": "struct RankingRedBlackTree.Tree",
        "members": [
          {
            "astId": 13243,
            "contract": "src/RebornPortal.sol:RebornPortal",
            "label": "root",
            "offset": 0,
            "slot": "0",
            "type": "t_uint256"
          },
          {
            "astId": 13248,
            "contract": "src/RebornPortal.sol:RebornPortal",
            "label": "nodes",
            "offset": 0,
            "slot": "1",
            "type": "t_mapping(t_uint256,t_struct(Node)13241_storage)"
          },
          {
            "astId": 13250,
            "contract": "src/RebornPortal.sol:RebornPortal",
            "label": "counter",
            "offset": 0,
            "slot": "2",
            "type": "t_uint256"
          }
        ],
        "numberOfBytes": "96"
      },
      "t_struct(VrfConf)8761_storage": {
        "encoding": "inplace",
        "label": "struct PortalLib.VrfConf",
        "members": [
          {
            "astId": 8752,
            "contract": "src/RebornPortal.sol:RebornPortal",
            "label": "keyHash",
            "offset": 0,
            "slot": "0",
            "type": "t_bytes32"
          },
          {
            "astId": 8754,
            "contract": "src/RebornPortal.sol:RebornPortal",
            "label": "s_subscriptionId",
            "offset": 0,
            "slot": "1",
            "type": "t_uint64"
          },
          {
            "astId": 8756,
            "contract": "src/RebornPortal.sol:RebornPortal",
            "label": "callbackGasLimit",
            "offset": 8,
            "slot": "1",
            "type": "t_uint32"
          },
          {
            "astId": 8758,
            "contract": "src/RebornPortal.sol:RebornPortal",
            "label": "numWords",
            "offset": 12,
            "slot": "1",
            "type": "t_uint32"
          },
          {
            "astId": 8760,
            "contract": "src/RebornPortal.sol:RebornPortal",
            "label": "requestConfirmations",
            "offset": 16,
            "slot": "1",
            "type": "t_uint16"
          }
        ],
        "numberOfBytes": "64"
      },
      "t_uint128": {
        "encoding": "inplace",
        "label": "uint128",
        "numberOfBytes": "16"
      },
      "t_uint16": {
        "encoding": "inplace",
        "label": "uint16",
        "numberOfBytes": "2"
      },
      "t_uint192": {
        "encoding": "inplace",
        "label": "uint192",
        "numberOfBytes": "24"
      },
      "t_uint256": {
        "encoding": "inplace",
        "label": "uint256",
        "numberOfBytes": "32"
      },
      "t_uint32": {
        "encoding": "inplace",
        "label": "uint32",
        "numberOfBytes": "4"
      },
      "t_uint40": {
        "encoding": "inplace",
        "label": "uint40",
        "numberOfBytes": "5"
      },
      "t_uint48": {
        "encoding": "inplace",
        "label": "uint48",
        "numberOfBytes": "6"
      },
      "t_uint64": {
        "encoding": "inplace",
        "label": "uint64",
        "numberOfBytes": "8"
      },
      "t_uint72": {
        "encoding": "inplace",
        "label": "uint72",
        "numberOfBytes": "9"
      },
      "t_uint8": {
        "encoding": "inplace",
        "label": "uint8",
        "numberOfBytes": "1"
      }
    }
  }
}