{
  "address": "0xd0b980D26aC1132C55eF330EF7E74c487E3B5219",
  "abi": [
    {
      "inputs": [],
      "name": "InsufficientAmount",
      "type": "error"
    },
    {
      "anonymous": false,
      "inputs": [
        {
          "indexed": false,
          "internalType": "address",
          "name": "previousAdmin",
          "type": "address"
        },
        {
          "indexed": false,
          "internalType": "address",
          "name": "newAdmin",
          "type": "address"
        }
      ],
      "name": "AdminChanged",
      "type": "event"
    },
    {
      "anonymous": false,
      "inputs": [
        {
          "indexed": true,
          "internalType": "address",
          "name": "beacon",
          "type": "address"
        }
      ],
      "name": "BeaconUpgraded",
      "type": "event"
    },
    {
      "anonymous": false,
      "inputs": [
        {
          "indexed": true,
          "internalType": "enum IRebornDefination.TALANT",
          "name": "talent",
          "type": "uint8"
        },
        {
          "indexed": true,
          "internalType": "enum IRebornDefination.PROPERTIES",
          "name": "properties",
          "type": "uint8"
        }
      ],
      "name": "Incarnate",
      "type": "event"
    },
    {
      "anonymous": false,
      "inputs": [
        {
          "indexed": false,
          "internalType": "uint8",
          "name": "version",
          "type": "uint8"
        }
      ],
      "name": "Initialized",
      "type": "event"
    },
    {
      "anonymous": false,
      "inputs": [
        {
          "indexed": false,
          "internalType": "uint256",
          "name": "price",
          "type": "uint256"
        }
      ],
      "name": "NewPrice",
      "type": "event"
    },
    {
      "anonymous": false,
      "inputs": [
        {
          "indexed": false,
          "internalType": "uint256",
          "name": "price",
          "type": "uint256"
        }
      ],
      "name": "NewSoupPrice",
      "type": "event"
    },
    {
      "anonymous": false,
      "inputs": [
        {
          "indexed": true,
          "internalType": "address",
          "name": "previousOwner",
          "type": "address"
        },
        {
          "indexed": true,
          "internalType": "address",
          "name": "newOwner",
          "type": "address"
        }
      ],
      "name": "OwnershipTransferred",
      "type": "event"
    },
    {
      "anonymous": false,
      "inputs": [
        {
          "indexed": true,
          "internalType": "address",
          "name": "implementation",
          "type": "address"
        }
      ],
      "name": "Upgraded",
      "type": "event"
    },
    {
      "inputs": [],
      "name": "claimOwnership",
      "outputs": [],
      "stateMutability": "nonpayable",
      "type": "function"
    },
    {
      "inputs": [],
      "name": "engrave",
      "outputs": [],
      "stateMutability": "nonpayable",
      "type": "function"
    },
    {
      "inputs": [
        {
          "components": [
            {
              "internalType": "enum IRebornDefination.TALANT",
              "name": "talent",
              "type": "uint8"
            },
            {
              "internalType": "enum IRebornDefination.PROPERTIES",
              "name": "properties",
              "type": "uint8"
            }
          ],
          "internalType": "struct IRebornDefination.Innate",
          "name": "innate",
          "type": "tuple"
        },
        {
          "internalType": "uint256",
          "name": "amount",
          "type": "uint256"
        },
        {
          "internalType": "uint256",
          "name": "deadline",
          "type": "uint256"
        },
        {
          "internalType": "bytes32",
          "name": "r",
          "type": "bytes32"
        },
        {
          "internalType": "bytes32",
          "name": "s",
          "type": "bytes32"
        },
        {
          "internalType": "uint8",
          "name": "v",
          "type": "uint8"
        }
      ],
      "name": "incarnate",
      "outputs": [],
      "stateMutability": "payable",
      "type": "function"
    },
    {
      "inputs": [
        {
          "components": [
            {
              "internalType": "enum IRebornDefination.TALANT",
              "name": "talent",
              "type": "uint8"
            },
            {
              "internalType": "enum IRebornDefination.PROPERTIES",
              "name": "properties",
              "type": "uint8"
            }
          ],
          "internalType": "struct IRebornDefination.Innate",
          "name": "innate",
          "type": "tuple"
        }
      ],
      "name": "incarnate",
      "outputs": [],
      "stateMutability": "payable",
      "type": "function"
    },
    {
      "inputs": [
        {
          "internalType": "contract IRebornToken",
          "name": "rebornToken_",
          "type": "address"
        },
        {
          "internalType": "uint256",
          "name": "soupPrice_",
          "type": "uint256"
        },
        {
          "internalType": "uint256",
          "name": "price_",
          "type": "uint256"
        },
        {
          "internalType": "address",
          "name": "owner_",
          "type": "address"
        }
      ],
      "name": "initialize",
      "outputs": [],
      "stateMutability": "nonpayable",
      "type": "function"
    },
    {
      "inputs": [],
      "name": "owner",
      "outputs": [
        {
          "internalType": "address",
          "name": "",
          "type": "address"
        }
      ],
      "stateMutability": "view",
      "type": "function"
    },
    {
      "inputs": [],
      "name": "pendingOwner",
      "outputs": [
        {
          "internalType": "address",
          "name": "",
          "type": "address"
        }
      ],
      "stateMutability": "view",
      "type": "function"
    },
    {
      "inputs": [
        {
          "internalType": "enum IRebornDefination.PROPERTIES",
          "name": "properties",
          "type": "uint8"
        }
      ],
      "name": "propertiesPrice",
      "outputs": [
        {
          "internalType": "uint256",
          "name": "",
          "type": "uint256"
        }
      ],
      "stateMutability": "view",
      "type": "function"
    },
    {
      "inputs": [],
      "name": "proxiableUUID",
      "outputs": [
        {
          "internalType": "bytes32",
          "name": "",
          "type": "bytes32"
        }
      ],
      "stateMutability": "view",
      "type": "function"
    },
    {
      "inputs": [],
      "name": "rebornToken",
      "outputs": [
        {
          "internalType": "contract IRebornToken",
          "name": "",
          "type": "address"
        }
      ],
      "stateMutability": "view",
      "type": "function"
    },
    {
      "inputs": [],
      "name": "renounceOwnership",
      "outputs": [],
      "stateMutability": "nonpayable",
      "type": "function"
    },
    {
      "inputs": [
        {
          "internalType": "uint256",
          "name": "price",
          "type": "uint256"
        }
      ],
      "name": "setPrice",
      "outputs": [],
      "stateMutability": "nonpayable",
      "type": "function"
    },
    {
      "inputs": [
        {
          "internalType": "uint256",
          "name": "price",
          "type": "uint256"
        }
      ],
      "name": "setSoupPrice",
      "outputs": [],
      "stateMutability": "nonpayable",
      "type": "function"
    },
    {
      "inputs": [],
      "name": "soupPrice",
      "outputs": [
        {
          "internalType": "uint256",
          "name": "",
          "type": "uint256"
        }
      ],
      "stateMutability": "view",
      "type": "function"
    },
    {
      "inputs": [
        {
          "internalType": "enum IRebornDefination.TALANT",
          "name": "talent",
          "type": "uint8"
        }
      ],
      "name": "talentPrice",
      "outputs": [
        {
          "internalType": "uint256",
          "name": "",
          "type": "uint256"
        }
      ],
      "stateMutability": "view",
      "type": "function"
    },
    {
      "inputs": [
        {
          "internalType": "address",
          "name": "newOwner",
          "type": "address"
        },
        {
          "internalType": "bool",
          "name": "direct",
          "type": "bool"
        }
      ],
      "name": "transferOwnership",
      "outputs": [],
      "stateMutability": "nonpayable",
      "type": "function"
    },
    {
      "inputs": [
        {
          "internalType": "address",
          "name": "newImplementation",
          "type": "address"
        }
      ],
      "name": "upgradeTo",
      "outputs": [],
      "stateMutability": "nonpayable",
      "type": "function"
    },
    {
      "inputs": [
        {
          "internalType": "address",
          "name": "newImplementation",
          "type": "address"
        },
        {
          "internalType": "bytes",
          "name": "data",
          "type": "bytes"
        }
      ],
      "name": "upgradeToAndCall",
      "outputs": [],
      "stateMutability": "payable",
      "type": "function"
    }
  ],
  "transactionHash": "0xa4ef2992bf8f0ec3a4be0c96a9dde6b89b325aaa8215f49dd367dfd85c81f954",
  "args": [],
  "numDeployments": 5,
  "solcInputHash": "066c1e3e2be0648a64159c6f626087ec",
  "bytecode": "0x60a06040523060805267016345785d8a000060c955690420000000000006421060ca5534801561002e57600080fd5b50608051611947610066600039600081816103b901528181610454015281816105bf01528181610655015261075001526119476000f3fe6080604052600436106101295760003560e01c8063869bdf67116100a5578063b242e53411610074578063e30c397811610059578063e30c3978146102e7578063f11925d714610305578063fc5ff5511461032557600080fd5b8063b242e534146102b4578063dbcd0a58146102d457600080fd5b8063869bdf67146102435780638da5cb5b1461025657806391b7f5ed146102745780639e3d87cd1461029457600080fd5b80634e71e0c8116100fc57806352d1902d116100e157806352d1902d14610203578063670506e914610218578063715018a61461022e57600080fd5b80634e71e0c8146101db5780634f1ef286146101f057600080fd5b806315d6bc581461012e57806316a065c61461016157806318ac1254146101995780633659cfe6146101b9575b600080fd5b34801561013a57600080fd5b5061014e6101493660046114eb565b610331565b6040519081526020015b60405180910390f35b34801561016d57600080fd5b5060cb54610181906001600160a01b031681565b6040516001600160a01b039091168152602001610158565b3480156101a557600080fd5b5061014e6101b4366004611515565b610371565b3480156101c557600080fd5b506101d96101d4366004611545565b6103af565b005b3480156101e757600080fd5b506101d9610551565b6101d96101fe3660046115a9565b6105b5565b34801561020f57600080fd5b5061014e610743565b34801561022457600080fd5b5061014e60c95481565b34801561023a57600080fd5b506101d9610808565b6101d96102513660046116af565b61086c565b34801561026257600080fd5b506033546001600160a01b0316610181565b34801561028057600080fd5b506101d961028f366004611712565b61088a565b3480156102a057600080fd5b506101d96102af36600461172b565b610920565b3480156102c057600080fd5b506101d96102cf366004611783565b610a95565b6101d96102e23660046117bc565b610b80565b3480156102f357600080fd5b506034546001600160a01b0316610181565b34801561031157600080fd5b506101d9610320366004611712565b610b89565b3480156101d957600080fd5b6000816004811115610345576103456117d8565b610350906004611804565b60ca54901c600f16670de0b6b3a764000061036b9190611804565b92915050565b6000816002811115610385576103856117d8565b610390906004611804565b604060ca54901c901c600f16670de0b6b3a764000061036b9190611804565b6001600160a01b037f00000000000000000000000000000000000000000000000000000000000000001630036104525760405162461bcd60e51b815260206004820152602c60248201527f46756e6374696f6e206d7573742062652063616c6c6564207468726f7567682060448201527f64656c656761746563616c6c000000000000000000000000000000000000000060648201526084015b60405180910390fd5b7f00000000000000000000000000000000000000000000000000000000000000006001600160a01b03166104ad7f360894a13ba1a3210667c828492db98dca3e2076cc3735a920a3ca505d382bbc546001600160a01b031690565b6001600160a01b0316146105295760405162461bcd60e51b815260206004820152602c60248201527f46756e6374696f6e206d7573742062652063616c6c6564207468726f7567682060448201527f6163746976652070726f787900000000000000000000000000000000000000006064820152608401610449565b61053281610c18565b6040805160008082526020820190925261054e91839190610c72565b50565b6034546001600160a01b031633146105ab5760405162461bcd60e51b815260206004820152601e60248201527f536166654f776e61626c653a2063616c6c657220213d2070656e64696e6700006044820152606401610449565b6105b3610e17565b565b6001600160a01b037f00000000000000000000000000000000000000000000000000000000000000001630036106535760405162461bcd60e51b815260206004820152602c60248201527f46756e6374696f6e206d7573742062652063616c6c6564207468726f7567682060448201527f64656c656761746563616c6c00000000000000000000000000000000000000006064820152608401610449565b7f00000000000000000000000000000000000000000000000000000000000000006001600160a01b03166106ae7f360894a13ba1a3210667c828492db98dca3e2076cc3735a920a3ca505d382bbc546001600160a01b031690565b6001600160a01b03161461072a5760405162461bcd60e51b815260206004820152602c60248201527f46756e6374696f6e206d7573742062652063616c6c6564207468726f7567682060448201527f6163746976652070726f787900000000000000000000000000000000000000006064820152608401610449565b61073382610c18565b61073f82826001610c72565b5050565b6000306001600160a01b037f000000000000000000000000000000000000000000000000000000000000000016146107e35760405162461bcd60e51b815260206004820152603860248201527f555550535570677261646561626c653a206d757374206e6f742062652063616c60448201527f6c6564207468726f7567682064656c656761746563616c6c00000000000000006064820152608401610449565b507f360894a13ba1a3210667c828492db98dca3e2076cc3735a920a3ca505d382bbc90565b6033546001600160a01b031633146108625760405162461bcd60e51b815260206004820152601d60248201527f536166654f776e61626c653a2063616c6c6572206e6f74206f776e65720000006044820152606401610449565b6105b36000610e8d565b6108798585858585610f10565b61088286610fb8565b505050505050565b6033546001600160a01b031633146108e45760405162461bcd60e51b815260206004820152601d60248201527f536166654f776e61626c653a2063616c6c6572206e6f74206f776e65720000006044820152606401610449565b60ca8190556040518181527f270b316b51ab2cf3a3bb8ca4d22e76a327d05e762fcaa8bd6afaf8cfde9270b7906020015b60405180910390a150565b600054610100900460ff16158080156109405750600054600160ff909116105b8061095a5750303b15801561095a575060005460ff166001145b6109cc5760405162461bcd60e51b815260206004820152602e60248201527f496e697469616c697a61626c653a20636f6e747261637420697320616c72656160448201527f647920696e697469616c697a65640000000000000000000000000000000000006064820152608401610449565b600080547fffffffffffffffffffffffffffffffffffffffffffffffffffffffffffffff001660011790558015610a0d576000805461ff0019166101001790555b60cb805473ffffffffffffffffffffffffffffffffffffffff19166001600160a01b03871617905560c984905560ca839055610a4882611140565b8015610a8e576000805461ff0019169055604051600181527f7f26b83ff96e1f2b6a682f133852f6798a09c465da95921460cefb38474024989060200160405180910390a15b5050505050565b6033546001600160a01b03163314610aef5760405162461bcd60e51b815260206004820152601d60248201527f536166654f776e61626c653a2063616c6c6572206e6f74206f776e65720000006044820152606401610449565b6001600160a01b038216610b455760405162461bcd60e51b815260206004820152601b60248201527f536166654f776e61626c653a206e6577206f776e6572206973203000000000006044820152606401610449565b8015610b545761073f82610e8d565b6034805473ffffffffffffffffffffffffffffffffffffffff19166001600160a01b0384161790555050565b61054e81610fb8565b6033546001600160a01b03163314610be35760405162461bcd60e51b815260206004820152601d60248201527f536166654f776e61626c653a2063616c6c6572206e6f74206f776e65720000006044820152606401610449565b60c98190556040518181527fae0c05ecd507ea9cded837adb5c433fa5e8c24ef117806d7050ec4432a743f1d90602001610915565b6033546001600160a01b0316331461054e5760405162461bcd60e51b815260206004820152601d60248201527f536166654f776e61626c653a2063616c6c6572206e6f74206f776e65720000006044820152606401610449565b7f4910fdfa16fed3260ed0e7147f7cc6da11a60208b5b9406d12a635614ffd91435460ff1615610caa57610ca5836111c6565b505050565b826001600160a01b03166352d1902d6040518163ffffffff1660e01b8152600401602060405180830381865afa925050508015610d04575060408051601f3d908101601f19168201909252610d019181019061181b565b60015b610d765760405162461bcd60e51b815260206004820152602e60248201527f45524331393637557067726164653a206e657720696d706c656d656e7461746960448201527f6f6e206973206e6f7420555550530000000000000000000000000000000000006064820152608401610449565b7f360894a13ba1a3210667c828492db98dca3e2076cc3735a920a3ca505d382bbc8114610e0b5760405162461bcd60e51b815260206004820152602960248201527f45524331393637557067726164653a20756e737570706f727465642070726f7860448201527f6961626c655555494400000000000000000000000000000000000000000000006064820152608401610449565b50610ca5838383611291565b6033546034546040516001600160a01b03928316929091169082907f8be0079c531659141344cd1fd0a4f28419497f9722a3daafe3b4186f6b6457e090600090a350603480546033805473ffffffffffffffffffffffffffffffffffffffff199081166001600160a01b03841617909155169055565b7fb53127684a568b3173ae13b9f8a6016e243e63b6e8ee1178d6a717850b5d6103819055603380546001600160a01b0380841673ffffffffffffffffffffffffffffffffffffffff19831681179093556040519116919082907f8be0079c531659141344cd1fd0a4f28419497f9722a3daafe3b4186f6b6457e090600090a35050565b60cb546040517fd505accf000000000000000000000000000000000000000000000000000000008152336004820152306024820152604481018790526064810186905260ff8316608482015260a4810185905260c481018490526001600160a01b039091169063d505accf9060e401600060405180830381600087803b158015610f9957600080fd5b505af1158015610fad573d6000803e3d6000fd5b505050505050505050565b60c954341015610ff4576040517f5945ea5600000000000000000000000000000000000000000000000000000000815260040160405180910390fd5b60c95433906108fc906110079034611834565b6040518115909202916000818181858888f1935050505015801561102f573d6000803e3d6000fd5b50600061103f8260200151610331565b825161104a90610371565b6110549190611847565b60cb546040517f23b872dd000000000000000000000000000000000000000000000000000000008152336004820152306024820152604481018390529192506001600160a01b0316906323b872dd906064016020604051808303816000875af11580156110c5573d6000803e3d6000fd5b505050506040513d601f19601f820116820180604052508101906110e9919061185a565b5081602001516004811115611100576111006117d8565b82516002811115611113576111136117d8565b6040517f81945bea43f8deac92f8f85f099b17ae88d7201a0d20461a07c134a576e03d7390600090a35050565b600054610100900460ff166111bd5760405162461bcd60e51b815260206004820152602b60248201527f496e697469616c697a61626c653a20636f6e7472616374206973206e6f74206960448201527f6e697469616c697a696e670000000000000000000000000000000000000000006064820152608401610449565b61054e816112bc565b6001600160a01b0381163b6112435760405162461bcd60e51b815260206004820152602d60248201527f455243313936373a206e657720696d706c656d656e746174696f6e206973206e60448201527f6f74206120636f6e7472616374000000000000000000000000000000000000006064820152608401610449565b7f360894a13ba1a3210667c828492db98dca3e2076cc3735a920a3ca505d382bbc805473ffffffffffffffffffffffffffffffffffffffff19166001600160a01b0392909216919091179055565b61129a83611342565b6000825111806112a75750805b15610ca5576112b68383611382565b50505050565b600054610100900460ff166113395760405162461bcd60e51b815260206004820152602b60248201527f496e697469616c697a61626c653a20636f6e7472616374206973206e6f74206960448201527f6e697469616c697a696e670000000000000000000000000000000000000000006064820152608401610449565b61054e81610e8d565b61134b816111c6565b6040516001600160a01b038216907fbc7cd75a20ee27fd9adebab32041f755214dbc6bffa90cc0225b39da2e5c2d3b90600090a250565b60606001600160a01b0383163b6114015760405162461bcd60e51b815260206004820152602660248201527f416464726573733a2064656c65676174652063616c6c20746f206e6f6e2d636f60448201527f6e747261637400000000000000000000000000000000000000000000000000006064820152608401610449565b600080846001600160a01b03168460405161141c919061189b565b600060405180830381855af49150503d8060008114611457576040519150601f19603f3d011682016040523d82523d6000602084013e61145c565b606091505b509150915061148482826040518060600160405280602781526020016118eb6027913961148d565b95945050505050565b6060831561149c5750816114a6565b6114a683836114ad565b9392505050565b8151156114bd5781518083602001fd5b8060405162461bcd60e51b815260040161044991906118b7565b8035600581106114e657600080fd5b919050565b6000602082840312156114fd57600080fd5b6114a6826114d7565b8035600381106114e657600080fd5b60006020828403121561152757600080fd5b6114a682611506565b6001600160a01b038116811461054e57600080fd5b60006020828403121561155757600080fd5b81356114a681611530565b634e487b7160e01b600052604160045260246000fd5b604051601f8201601f1916810167ffffffffffffffff811182821017156115a1576115a1611562565b604052919050565b600080604083850312156115bc57600080fd5b82356115c781611530565b915060208381013567ffffffffffffffff808211156115e557600080fd5b818601915086601f8301126115f957600080fd5b81358181111561160b5761160b611562565b61161d84601f19601f84011601611578565b9150808252878482850101111561163357600080fd5b80848401858401376000848284010152508093505050509250929050565b60006040828403121561166357600080fd5b6040516040810181811067ffffffffffffffff8211171561168657611686611562565b60405290508061169583611506565b81526116a3602084016114d7565b60208201525092915050565b60008060008060008060e087890312156116c857600080fd5b6116d28888611651565b955060408701359450606087013593506080870135925060a0870135915060c087013560ff8116811461170457600080fd5b809150509295509295509295565b60006020828403121561172457600080fd5b5035919050565b6000806000806080858703121561174157600080fd5b843561174c81611530565b93506020850135925060408501359150606085013561176a81611530565b939692955090935050565b801515811461054e57600080fd5b6000806040838503121561179657600080fd5b82356117a181611530565b915060208301356117b181611775565b809150509250929050565b6000604082840312156117ce57600080fd5b6114a68383611651565b634e487b7160e01b600052602160045260246000fd5b634e487b7160e01b600052601160045260246000fd5b808202811582820484141761036b5761036b6117ee565b60006020828403121561182d57600080fd5b5051919050565b8181038181111561036b5761036b6117ee565b8082018082111561036b5761036b6117ee565b60006020828403121561186c57600080fd5b81516114a681611775565b60005b8381101561189257818101518382015260200161187a565b50506000910152565b600082516118ad818460208701611877565b9190910192915050565b60208152600082518060208401526118d6816040850160208701611877565b601f01601f1916919091016040019291505056fe416464726573733a206c6f772d6c6576656c2064656c65676174652063616c6c206661696c6564a2646970667358221220cf4ae0efc3a5eae2e86d397c3beaf08f1a73276e29e4c0c05acb76e55108d46f64736f6c63430008110033",
  "devdoc": {
    "kind": "dev",
    "methods": {
      "claimOwnership()": {
        "details": "pending owner call this function to claim ownership"
      },
      "engrave()": {
        "details": "engrave the result on chain and reward"
      },
      "owner()": {
        "details": "Returns the address of the current owner."
      },
      "pendingOwner()": {
        "details": "Return the address of the pending owner"
      },
      "propertiesPrice(uint8)": {
        "details": "calculate properties price in $REBORN for each properties"
      },
      "proxiableUUID()": {
        "details": "Implementation of the ERC1822 {proxiableUUID} function. This returns the storage slot used by the implementation. It is used to validate the implementation's compatibility when performing an upgrade. IMPORTANT: A proxy pointing at a proxiable contract should not be considered proxiable itself, because this risks bricking a proxy that upgrades to it, by delegating to itself until out of gas. Thus it is critical that this function revert if invoked through a proxy. This is guaranteed by the `notDelegated` modifier."
      },
      "renounceOwnership()": {
        "details": "Leaves the contract without owner. It will not be possible to call `onlyOwner` functions anymore. Can only be called by the current owner. NOTE: Renouncing ownership will leave the contract without an owner, thereby removing any functionality that is only available to the owner."
      },
      "setPrice(uint256)": {
        "details": "set other price"
      },
      "setSoupPrice(uint256)": {
        "details": "set soup price"
      },
      "talentPrice(uint8)": {
        "details": "calculate talent price in $REBORN for each talent"
      },
      "transferOwnership(address,bool)": {
        "details": "Transfers ownership of the contract to a new account (`newOwner`). Can only be called by the current owner. Note If direct is false, it will set an pending owner and the OwnerShipTransferring only happens when the pending owner claim the ownership"
      },
      "upgradeTo(address)": {
        "details": "Upgrade the implementation of the proxy to `newImplementation`. Calls {_authorizeUpgrade}. Emits an {Upgraded} event."
      },
      "upgradeToAndCall(address,bytes)": {
        "details": "Upgrade the implementation of the proxy to `newImplementation`, and subsequently execute the function call encoded in `data`. Calls {_authorizeUpgrade}. Emits an {Upgraded} event."
      }
    },
    "stateVariables": {
      "_price": {
        "details": "talent and property price in compact modetalant price first 8 bytes then property 8 bytes4 2 0 for talent   6 4 2 1 0 for property"
      }
    },
    "version": 1
  },
  "userdoc": {
    "kind": "user",
    "methods": {
      "incarnate((uint8,uint8))": {
        "notice": "init enter and buy "
      },
      "incarnate((uint8,uint8),uint256,uint256,bytes32,bytes32,uint8)": {
        "notice": "init enter and buy with permit signature "
      },
      "soupPrice()": {
        "notice": "you need buy a soup before reborn "
      }
    },
    "version": 1
  },
  "storageLayout": {
    "storage": [
      {
        "astId": 395,
        "contract": "src/RebornPortal.sol:RebornPortal",
        "label": "_initialized",
        "offset": 0,
        "slot": "0",
        "type": "t_uint8"
      },
      {
        "astId": 398,
        "contract": "src/RebornPortal.sol:RebornPortal",
        "label": "_initializing",
        "offset": 1,
        "slot": "0",
        "type": "t_bool"
      },
      {
        "astId": 2328,
        "contract": "src/RebornPortal.sol:RebornPortal",
        "label": "__gap",
        "offset": 0,
        "slot": "1",
        "type": "t_array(t_uint256)50_storage"
      },
      {
        "astId": 4753,
        "contract": "src/RebornPortal.sol:RebornPortal",
        "label": "_owner",
        "offset": 0,
        "slot": "51",
        "type": "t_address"
      },
      {
        "astId": 4755,
        "contract": "src/RebornPortal.sol:RebornPortal",
        "label": "_pendingOwner",
        "offset": 0,
        "slot": "52",
        "type": "t_address"
      },
      {
        "astId": 4943,
        "contract": "src/RebornPortal.sol:RebornPortal",
        "label": "__gap",
        "offset": 0,
        "slot": "53",
        "type": "t_array(t_uint256)48_storage"
      },
      {
        "astId": 377,
        "contract": "src/RebornPortal.sol:RebornPortal",
        "label": "__gap",
        "offset": 0,
        "slot": "101",
        "type": "t_array(t_uint256)50_storage"
      },
      {
        "astId": 692,
        "contract": "src/RebornPortal.sol:RebornPortal",
        "label": "__gap",
        "offset": 0,
        "slot": "151",
        "type": "t_array(t_uint256)50_storage"
      },
      {
        "astId": 5087,
        "contract": "src/RebornPortal.sol:RebornPortal",
        "label": "soupPrice",
        "offset": 0,
        "slot": "201",
        "type": "t_uint256"
      },
      {
        "astId": 5091,
        "contract": "src/RebornPortal.sol:RebornPortal",
        "label": "_price",
        "offset": 0,
        "slot": "202",
        "type": "t_uint256"
      },
      {
        "astId": 5094,
        "contract": "src/RebornPortal.sol:RebornPortal",
        "label": "rebornToken",
        "offset": 0,
        "slot": "203",
        "type": "t_contract(IRebornToken)5455"
      }
    ],
    "types": {
      "t_address": {
        "encoding": "inplace",
        "label": "address",
        "numberOfBytes": "20"
      },
      "t_array(t_uint256)48_storage": {
        "base": "t_uint256",
        "encoding": "inplace",
        "label": "uint256[48]",
        "numberOfBytes": "1536"
      },
      "t_array(t_uint256)50_storage": {
        "base": "t_uint256",
        "encoding": "inplace",
        "label": "uint256[50]",
        "numberOfBytes": "1600"
      },
      "t_bool": {
        "encoding": "inplace",
        "label": "bool",
        "numberOfBytes": "1"
      },
      "t_contract(IRebornToken)5455": {
        "encoding": "inplace",
        "label": "contract IRebornToken",
        "numberOfBytes": "20"
      },
      "t_uint256": {
        "encoding": "inplace",
        "label": "uint256",
        "numberOfBytes": "32"
      },
      "t_uint8": {
        "encoding": "inplace",
        "label": "uint8",
        "numberOfBytes": "1"
      }
    }
  }
}