{
  "address": "0x4c81D085eAf27D05541256C84dF47f6f74BCd04C",
  "abi": [
    {
      "inputs": [],
      "name": "AlreadyBaptised",
      "type": "error"
    },
    {
      "inputs": [],
      "name": "AlreadyEngraved",
      "type": "error"
    },
    {
      "inputs": [],
      "name": "InsufficientAmount",
      "type": "error"
    },
    {
      "inputs": [],
      "name": "NotSigner",
      "type": "error"
    },
    {
      "inputs": [],
      "name": "PropertyOutOfScope",
      "type": "error"
    },
    {
      "inputs": [],
      "name": "TalentOutOfScope",
      "type": "error"
    },
    {
      "anonymous": false,
      "inputs": [
        {
          "indexed": false,
          "internalType": "address",
          "name": "previousAdmin",
          "type": "address"
        },
        {
          "indexed": false,
          "internalType": "address",
          "name": "newAdmin",
          "type": "address"
        }
      ],
      "name": "AdminChanged",
      "type": "event"
    },
    {
      "anonymous": false,
      "inputs": [
        {
          "indexed": true,
          "internalType": "address",
          "name": "owner",
          "type": "address"
        },
        {
          "indexed": true,
          "internalType": "address",
          "name": "approved",
          "type": "address"
        },
        {
          "indexed": true,
          "internalType": "uint256",
          "name": "tokenId",
          "type": "uint256"
        }
      ],
      "name": "Approval",
      "type": "event"
    },
    {
      "anonymous": false,
      "inputs": [
        {
          "indexed": true,
          "internalType": "address",
          "name": "owner",
          "type": "address"
        },
        {
          "indexed": true,
          "internalType": "address",
          "name": "operator",
          "type": "address"
        },
        {
          "indexed": false,
          "internalType": "bool",
          "name": "approved",
          "type": "bool"
        }
      ],
      "name": "ApprovalForAll",
      "type": "event"
    },
    {
      "anonymous": false,
      "inputs": [
        {
          "indexed": true,
          "internalType": "address",
          "name": "user",
          "type": "address"
        },
        {
          "indexed": false,
          "internalType": "uint256",
          "name": "amount",
          "type": "uint256"
        }
      ],
      "name": "Baptise",
      "type": "event"
    },
    {
      "anonymous": false,
      "inputs": [
        {
          "indexed": true,
          "internalType": "address",
          "name": "beacon",
          "type": "address"
        }
      ],
      "name": "BeaconUpgraded",
      "type": "event"
    },
    {
      "anonymous": false,
      "inputs": [
        {
          "indexed": true,
          "internalType": "address",
          "name": "user",
          "type": "address"
        },
        {
          "indexed": true,
          "internalType": "uint256",
          "name": "tokenId",
          "type": "uint256"
        },
        {
          "indexed": false,
          "internalType": "uint256",
          "name": "amount",
          "type": "uint256"
        }
      ],
      "name": "Dry",
      "type": "event"
    },
    {
      "anonymous": false,
      "inputs": [
        {
          "indexed": true,
          "internalType": "bytes32",
          "name": "seed",
          "type": "bytes32"
        },
        {
          "indexed": true,
          "internalType": "address",
          "name": "user",
          "type": "address"
        },
        {
          "indexed": true,
          "internalType": "uint256",
          "name": "tokenId",
          "type": "uint256"
        },
        {
          "indexed": false,
          "internalType": "uint256",
          "name": "score",
          "type": "uint256"
        },
        {
          "indexed": false,
          "internalType": "uint256",
          "name": "reward",
          "type": "uint256"
        }
      ],
      "name": "Engrave",
      "type": "event"
    },
    {
      "anonymous": false,
      "inputs": [
        {
          "indexed": true,
          "internalType": "address",
          "name": "user",
          "type": "address"
        },
        {
          "indexed": true,
          "internalType": "uint256",
          "name": "talentPoint",
          "type": "uint256"
        },
        {
          "indexed": true,
          "internalType": "uint256",
          "name": "PropertyPoint",
          "type": "uint256"
        },
        {
          "indexed": false,
          "internalType": "uint256",
          "name": "indulgences",
          "type": "uint256"
        }
      ],
      "name": "Incarnate",
      "type": "event"
    },
    {
      "anonymous": false,
      "inputs": [
        {
          "indexed": true,
          "internalType": "address",
          "name": "user",
          "type": "address"
        },
        {
          "indexed": true,
          "internalType": "uint256",
          "name": "tokenId",
          "type": "uint256"
        },
        {
          "indexed": false,
          "internalType": "uint256",
          "name": "amount",
          "type": "uint256"
        }
      ],
      "name": "Infuse",
      "type": "event"
    },
    {
      "anonymous": false,
      "inputs": [
        {
          "indexed": false,
          "internalType": "uint8",
          "name": "version",
          "type": "uint8"
        }
      ],
      "name": "Initialized",
      "type": "event"
    },
    {
      "anonymous": false,
      "inputs": [
        {
          "indexed": false,
          "internalType": "uint256",
          "name": "price",
          "type": "uint256"
        }
      ],
      "name": "NewSoupPrice",
      "type": "event"
    },
    {
      "anonymous": false,
      "inputs": [
        {
          "indexed": false,
          "internalType": "uint256",
          "name": "price",
          "type": "uint256"
        }
      ],
      "name": "NewTalentPrice",
      "type": "event"
    },
    {
      "anonymous": false,
      "inputs": [
        {
          "indexed": true,
          "internalType": "address",
          "name": "previousOwner",
          "type": "address"
        },
        {
          "indexed": true,
          "internalType": "address",
          "name": "newOwner",
          "type": "address"
        }
      ],
      "name": "OwnershipTransferred",
      "type": "event"
    },
    {
      "anonymous": false,
      "inputs": [
        {
          "indexed": false,
          "internalType": "address",
          "name": "account",
          "type": "address"
        }
      ],
      "name": "Paused",
      "type": "event"
    },
    {
      "anonymous": false,
      "inputs": [
        {
          "indexed": false,
          "internalType": "address",
          "name": "referee",
          "type": "address"
        },
        {
          "indexed": false,
          "internalType": "address",
          "name": "referrer",
          "type": "address"
        }
      ],
      "name": "Refer",
      "type": "event"
    },
    {
      "anonymous": false,
      "inputs": [
        {
          "indexed": true,
          "internalType": "address",
          "name": "user",
          "type": "address"
        },
        {
          "indexed": false,
          "internalType": "uint256",
          "name": "amount",
          "type": "uint256"
        }
      ],
      "name": "ReferReward",
      "type": "event"
    },
    {
      "anonymous": false,
      "inputs": [
        {
          "indexed": false,
          "internalType": "address",
          "name": "signer",
          "type": "address"
        },
        {
          "indexed": false,
          "internalType": "bool",
          "name": "valid",
          "type": "bool"
        }
      ],
      "name": "SignerUpdate",
      "type": "event"
    },
    {
      "anonymous": false,
      "inputs": [
        {
          "indexed": true,
          "internalType": "address",
          "name": "from",
          "type": "address"
        },
        {
          "indexed": true,
          "internalType": "address",
          "name": "to",
          "type": "address"
        },
        {
          "indexed": true,
          "internalType": "uint256",
          "name": "tokenId",
          "type": "uint256"
        }
      ],
      "name": "Transfer",
      "type": "event"
    },
    {
      "anonymous": false,
      "inputs": [
        {
          "indexed": false,
          "internalType": "address",
          "name": "account",
          "type": "address"
        }
      ],
      "name": "Unpaused",
      "type": "event"
    },
    {
      "anonymous": false,
      "inputs": [
        {
          "indexed": true,
          "internalType": "address",
          "name": "implementation",
          "type": "address"
        }
      ],
      "name": "Upgraded",
      "type": "event"
    },
    {
      "inputs": [
        {
          "internalType": "address",
          "name": "to",
          "type": "address"
        },
        {
          "internalType": "uint256",
          "name": "tokenId",
          "type": "uint256"
        }
      ],
      "name": "approve",
      "outputs": [],
      "stateMutability": "nonpayable",
      "type": "function"
    },
    {
      "inputs": [
        {
          "internalType": "address",
          "name": "owner",
          "type": "address"
        }
      ],
      "name": "balanceOf",
      "outputs": [
        {
          "internalType": "uint256",
          "name": "",
          "type": "uint256"
        }
      ],
      "stateMutability": "view",
      "type": "function"
    },
    {
      "inputs": [
        {
          "internalType": "address",
          "name": "user",
          "type": "address"
        },
        {
          "internalType": "uint256",
          "name": "amount",
          "type": "uint256"
        }
      ],
      "name": "baptise",
      "outputs": [],
      "stateMutability": "nonpayable",
      "type": "function"
    },
    {
      "inputs": [
        {
          "internalType": "address",
          "name": "referee",
          "type": "address"
        },
        {
          "internalType": "uint256",
          "name": "score",
          "type": "uint256"
        },
        {
          "internalType": "uint256",
          "name": "amount",
          "type": "uint256"
        }
      ],
      "name": "calculateReferReward",
      "outputs": [
        {
          "internalType": "address",
          "name": "referrar",
          "type": "address"
        },
        {
          "internalType": "uint256",
          "name": "referReward",
          "type": "uint256"
        }
      ],
      "stateMutability": "view",
      "type": "function"
    },
    {
      "inputs": [],
      "name": "claimOwnership",
      "outputs": [],
      "stateMutability": "nonpayable",
      "type": "function"
    },
    {
      "inputs": [
        {
          "internalType": "uint256",
          "name": "",
          "type": "uint256"
        }
      ],
      "name": "details",
      "outputs": [
        {
          "internalType": "bytes32",
          "name": "seed",
          "type": "bytes32"
        },
        {
          "internalType": "address",
          "name": "creator",
          "type": "address"
        },
        {
          "internalType": "uint16",
          "name": "age",
          "type": "uint16"
        },
        {
          "internalType": "uint32",
          "name": "round",
          "type": "uint32"
        },
        {
          "internalType": "uint48",
          "name": "nothing",
          "type": "uint48"
        },
        {
          "internalType": "uint128",
          "name": "cost",
          "type": "uint128"
        },
        {
          "internalType": "uint128",
          "name": "reward",
          "type": "uint128"
        }
      ],
      "stateMutability": "view",
      "type": "function"
    },
    {
      "inputs": [
        {
          "internalType": "uint256",
          "name": "tokenId",
          "type": "uint256"
        },
        {
          "internalType": "uint256",
          "name": "amount",
          "type": "uint256"
        }
      ],
      "name": "dry",
      "outputs": [],
      "stateMutability": "nonpayable",
      "type": "function"
    },
    {
      "inputs": [
        {
          "internalType": "bytes32",
          "name": "seed",
          "type": "bytes32"
        },
        {
          "internalType": "address",
          "name": "user",
          "type": "address"
        },
        {
          "internalType": "uint256",
          "name": "reward",
          "type": "uint256"
        },
        {
          "internalType": "uint256",
          "name": "score",
          "type": "uint256"
        },
        {
          "internalType": "uint256",
          "name": "age",
          "type": "uint256"
        },
        {
          "internalType": "uint256",
          "name": "cost",
          "type": "uint256"
        }
      ],
      "name": "engrave",
      "outputs": [],
      "stateMutability": "nonpayable",
      "type": "function"
    },
    {
      "inputs": [
        {
          "internalType": "uint256",
          "name": "tokenId",
          "type": "uint256"
        }
      ],
      "name": "getApproved",
      "outputs": [
        {
          "internalType": "address",
          "name": "",
          "type": "address"
        }
      ],
      "stateMutability": "view",
      "type": "function"
    },
    {
      "inputs": [
        {
          "internalType": "uint256",
          "name": "tokenId",
          "type": "uint256"
        }
      ],
      "name": "getPool",
      "outputs": [
        {
          "components": [
            {
              "internalType": "uint256",
              "name": "totalAmount",
              "type": "uint256"
            }
          ],
          "internalType": "struct IRebornDefination.Pool",
          "name": "",
          "type": "tuple"
        }
      ],
      "stateMutability": "view",
      "type": "function"
    },
    {
      "inputs": [],
      "name": "idx",
      "outputs": [
        {
          "internalType": "uint256",
          "name": "",
          "type": "uint256"
        }
      ],
      "stateMutability": "view",
      "type": "function"
    },
    {
      "inputs": [
        {
          "components": [
            {
              "internalType": "uint256",
              "name": "talent",
              "type": "uint256"
            },
            {
              "internalType": "uint256",
              "name": "properties",
              "type": "uint256"
            }
          ],
          "internalType": "struct IRebornDefination.Innate",
          "name": "innate",
          "type": "tuple"
        },
        {
          "internalType": "address",
          "name": "referrer",
          "type": "address"
        }
      ],
      "name": "incarnate",
      "outputs": [],
      "stateMutability": "payable",
      "type": "function"
    },
    {
      "inputs": [
        {
          "components": [
            {
              "internalType": "uint256",
              "name": "talent",
              "type": "uint256"
            },
            {
              "internalType": "uint256",
              "name": "properties",
              "type": "uint256"
            }
          ],
          "internalType": "struct IRebornDefination.Innate",
          "name": "innate",
          "type": "tuple"
        },
        {
          "internalType": "address",
          "name": "referrer",
          "type": "address"
        },
        {
          "internalType": "uint256",
          "name": "amount",
          "type": "uint256"
        },
        {
          "internalType": "uint256",
          "name": "deadline",
          "type": "uint256"
        },
        {
          "internalType": "bytes32",
          "name": "r",
          "type": "bytes32"
        },
        {
          "internalType": "bytes32",
          "name": "s",
          "type": "bytes32"
        },
        {
          "internalType": "uint8",
          "name": "v",
          "type": "uint8"
        }
      ],
      "name": "incarnate",
      "outputs": [],
      "stateMutability": "payable",
      "type": "function"
    },
    {
      "inputs": [
        {
          "internalType": "uint256",
          "name": "tokenId",
          "type": "uint256"
        },
        {
          "internalType": "uint256",
          "name": "amount",
          "type": "uint256"
        }
      ],
      "name": "infuse",
      "outputs": [],
      "stateMutability": "nonpayable",
      "type": "function"
    },
    {
      "inputs": [],
      "name": "initAfterUpgrade",
      "outputs": [],
      "stateMutability": "nonpayable",
      "type": "function"
    },
    {
      "inputs": [
        {
          "internalType": "contract RBT",
          "name": "rebornToken_",
          "type": "address"
        },
        {
          "internalType": "uint256",
          "name": "soupPrice_",
          "type": "uint256"
        },
        {
          "internalType": "uint256",
          "name": "_talentPrice",
          "type": "uint256"
        },
        {
          "internalType": "address",
          "name": "owner_",
          "type": "address"
        },
        {
          "internalType": "string",
          "name": "name_",
          "type": "string"
        },
        {
          "internalType": "string",
          "name": "symbol_",
          "type": "string"
        }
      ],
      "name": "initialize",
      "outputs": [],
      "stateMutability": "nonpayable",
      "type": "function"
    },
    {
      "inputs": [
        {
          "internalType": "address",
          "name": "owner",
          "type": "address"
        },
        {
          "internalType": "address",
          "name": "operator",
          "type": "address"
        }
      ],
      "name": "isApprovedForAll",
      "outputs": [
        {
          "internalType": "bool",
          "name": "",
          "type": "bool"
        }
      ],
      "stateMutability": "view",
      "type": "function"
    },
    {
      "inputs": [],
      "name": "minScoreInRank",
      "outputs": [
        {
          "internalType": "uint256",
          "name": "",
          "type": "uint256"
        }
      ],
      "stateMutability": "view",
      "type": "function"
    },
    {
      "inputs": [],
      "name": "name",
      "outputs": [
        {
          "internalType": "string",
          "name": "",
          "type": "string"
        }
      ],
      "stateMutability": "view",
      "type": "function"
    },
    {
      "inputs": [],
      "name": "owner",
      "outputs": [
        {
          "internalType": "address",
          "name": "",
          "type": "address"
        }
      ],
      "stateMutability": "view",
      "type": "function"
    },
    {
      "inputs": [
        {
          "internalType": "uint256",
          "name": "tokenId",
          "type": "uint256"
        }
      ],
      "name": "ownerOf",
      "outputs": [
        {
          "internalType": "address",
          "name": "",
          "type": "address"
        }
      ],
      "stateMutability": "view",
      "type": "function"
    },
    {
      "inputs": [],
      "name": "paused",
      "outputs": [
        {
          "internalType": "bool",
          "name": "",
          "type": "bool"
        }
      ],
      "stateMutability": "view",
      "type": "function"
    },
    {
      "inputs": [],
      "name": "pendingOwner",
      "outputs": [
        {
          "internalType": "address",
          "name": "",
          "type": "address"
        }
      ],
      "stateMutability": "view",
      "type": "function"
    },
    {
      "inputs": [
        {
          "internalType": "uint256",
          "name": "",
          "type": "uint256"
        }
      ],
      "name": "pools",
      "outputs": [
        {
          "internalType": "uint256",
          "name": "totalAmount",
          "type": "uint256"
        }
      ],
      "stateMutability": "view",
      "type": "function"
    },
    {
      "inputs": [
        {
          "internalType": "address",
          "name": "",
          "type": "address"
        },
        {
          "internalType": "uint256",
          "name": "",
          "type": "uint256"
        }
      ],
      "name": "portfolios",
      "outputs": [
        {
          "internalType": "uint256",
          "name": "accumulativeAmount",
          "type": "uint256"
        }
      ],
      "stateMutability": "view",
      "type": "function"
    },
    {
      "inputs": [
        {
          "internalType": "uint256",
          "name": "x",
          "type": "uint256"
        }
      ],
      "name": "propertyPrice",
      "outputs": [
        {
          "internalType": "uint256",
          "name": "",
          "type": "uint256"
        }
      ],
      "stateMutability": "nonpayable",
      "type": "function"
    },
    {
      "inputs": [],
      "name": "proxiableUUID",
      "outputs": [
        {
          "internalType": "bytes32",
          "name": "",
          "type": "bytes32"
        }
      ],
      "stateMutability": "view",
      "type": "function"
    },
    {
      "inputs": [],
      "name": "rebornToken",
      "outputs": [
        {
          "internalType": "contract RBT",
          "name": "",
          "type": "address"
        }
      ],
      "stateMutability": "view",
      "type": "function"
    },
    {
      "inputs": [
        {
          "internalType": "address",
          "name": "",
          "type": "address"
        }
      ],
      "name": "referrals",
      "outputs": [
        {
          "internalType": "address",
          "name": "",
          "type": "address"
        }
      ],
      "stateMutability": "view",
      "type": "function"
    },
    {
      "inputs": [],
      "name": "renounceOwnership",
      "outputs": [],
      "stateMutability": "nonpayable",
      "type": "function"
    },
    {
      "inputs": [
        {
          "internalType": "address",
          "name": "",
          "type": "address"
        }
      ],
      "name": "rounds",
      "outputs": [
        {
          "internalType": "uint32",
          "name": "",
          "type": "uint32"
        }
      ],
      "stateMutability": "view",
      "type": "function"
    },
    {
      "inputs": [
        {
          "internalType": "address",
          "name": "from",
          "type": "address"
        },
        {
          "internalType": "address",
          "name": "to",
          "type": "address"
        },
        {
          "internalType": "uint256",
          "name": "tokenId",
          "type": "uint256"
        }
      ],
      "name": "safeTransferFrom",
      "outputs": [],
      "stateMutability": "nonpayable",
      "type": "function"
    },
    {
      "inputs": [
        {
          "internalType": "address",
          "name": "from",
          "type": "address"
        },
        {
          "internalType": "address",
          "name": "to",
          "type": "address"
        },
        {
          "internalType": "uint256",
          "name": "tokenId",
          "type": "uint256"
        },
        {
          "internalType": "bytes",
          "name": "data",
          "type": "bytes"
        }
      ],
      "name": "safeTransferFrom",
      "outputs": [],
      "stateMutability": "nonpayable",
      "type": "function"
    },
    {
      "inputs": [
        {
          "internalType": "uint256",
          "name": "",
          "type": "uint256"
        }
      ],
      "name": "scores",
      "outputs": [
        {
          "internalType": "uint256",
          "name": "",
          "type": "uint256"
        }
      ],
      "stateMutability": "view",
      "type": "function"
    },
    {
      "inputs": [
        {
          "internalType": "address",
          "name": "operator",
          "type": "address"
        },
        {
          "internalType": "bool",
          "name": "approved",
          "type": "bool"
        }
      ],
      "name": "setApprovalForAll",
      "outputs": [],
      "stateMutability": "nonpayable",
      "type": "function"
    },
    {
      "inputs": [
        {
          "internalType": "uint256",
          "name": "price",
          "type": "uint256"
        }
      ],
      "name": "setSoupPrice",
      "outputs": [],
      "stateMutability": "nonpayable",
      "type": "function"
    },
    {
      "inputs": [
        {
          "internalType": "uint256",
          "name": "talenPrice",
          "type": "uint256"
        }
      ],
      "name": "setTalentPrice",
      "outputs": [],
      "stateMutability": "nonpayable",
      "type": "function"
    },
    {
      "inputs": [
        {
          "internalType": "address",
          "name": "",
          "type": "address"
        }
      ],
      "name": "signers",
      "outputs": [
        {
          "internalType": "bool",
          "name": "",
          "type": "bool"
        }
      ],
      "stateMutability": "view",
      "type": "function"
    },
    {
      "inputs": [],
      "name": "soupPrice",
      "outputs": [
        {
          "internalType": "uint256",
          "name": "",
          "type": "uint256"
        }
      ],
      "stateMutability": "view",
      "type": "function"
    },
    {
      "inputs": [
        {
          "internalType": "bytes4",
          "name": "interfaceId",
          "type": "bytes4"
        }
      ],
      "name": "supportsInterface",
      "outputs": [
        {
          "internalType": "bool",
          "name": "",
          "type": "bool"
        }
      ],
      "stateMutability": "view",
      "type": "function"
    },
    {
      "inputs": [],
      "name": "symbol",
      "outputs": [
        {
          "internalType": "string",
          "name": "",
          "type": "string"
        }
      ],
      "stateMutability": "view",
      "type": "function"
    },
    {
      "inputs": [
        {
          "internalType": "uint256",
          "name": "talent",
          "type": "uint256"
        }
      ],
      "name": "talentPrice",
      "outputs": [
        {
          "internalType": "uint256",
          "name": "",
          "type": "uint256"
        }
      ],
      "stateMutability": "view",
      "type": "function"
    },
    {
      "inputs": [
        {
          "internalType": "uint256",
          "name": "tokenId",
          "type": "uint256"
        }
      ],
      "name": "tokenURI",
      "outputs": [
        {
          "internalType": "string",
          "name": "",
          "type": "string"
        }
      ],
      "stateMutability": "view",
      "type": "function"
    },
    {
      "inputs": [
        {
          "internalType": "address",
          "name": "from",
          "type": "address"
        },
        {
          "internalType": "address",
          "name": "to",
          "type": "address"
        },
        {
          "internalType": "uint256",
          "name": "tokenId",
          "type": "uint256"
        }
      ],
      "name": "transferFrom",
      "outputs": [],
      "stateMutability": "nonpayable",
      "type": "function"
    },
    {
      "inputs": [
        {
          "internalType": "address",
          "name": "newOwner",
          "type": "address"
        },
        {
          "internalType": "bool",
          "name": "direct",
          "type": "bool"
        }
      ],
      "name": "transferOwnership",
      "outputs": [],
      "stateMutability": "nonpayable",
      "type": "function"
    },
    {
      "inputs": [
        {
          "internalType": "address[]",
          "name": "toAdd",
          "type": "address[]"
        },
        {
          "internalType": "address[]",
          "name": "toRemove",
          "type": "address[]"
        }
      ],
      "name": "updateSigners",
      "outputs": [],
      "stateMutability": "nonpayable",
      "type": "function"
    },
    {
      "inputs": [
        {
          "internalType": "address",
          "name": "newImplementation",
          "type": "address"
        }
      ],
      "name": "upgradeTo",
      "outputs": [],
      "stateMutability": "nonpayable",
      "type": "function"
    },
    {
      "inputs": [
        {
          "internalType": "address",
          "name": "newImplementation",
          "type": "address"
        },
        {
          "internalType": "bytes",
          "name": "data",
          "type": "bytes"
        }
      ],
      "name": "upgradeToAndCall",
      "outputs": [],
      "stateMutability": "payable",
      "type": "function"
    },
    {
      "inputs": [],
      "name": "vault",
      "outputs": [
        {
          "internalType": "contract RewardVault",
          "name": "",
          "type": "address"
        }
      ],
      "stateMutability": "view",
      "type": "function"
    },
    {
      "inputs": [
        {
          "internalType": "uint256",
          "name": "amount",
          "type": "uint256"
        }
      ],
      "name": "withdrawNativeToken",
      "outputs": [],
      "stateMutability": "nonpayable",
      "type": "function"
    }
  ],
  "transactionHash": "0xeb9f2ec2c8101036ad62dc203b9412d40c79c1a2557f87fad4bbaa3d9152f369",
  "args": [],
  "numDeployments": 36,
  "solcInputHash": "463887f13dc0fba29ed798c40114b49d",
  "bytecode": "0x60a060405230608052662386f26fc1000060c955684b02bc21c12c0a000060ca5534801561002c57600080fd5b50608051615b10610064600039600081816117bf01528181611857015281816119ea01528181611a820152611b800152615b106000f3fe6080604052600436106200036b5760003560e01c8063736c0d5b11620001c7578063b1bac41811620000ff578063d10dfdb111620000a1578063e7b894041162000078578063e7b894041462000b77578063e985e9c51462000b9c578063f11925d71462000bea578063fbfa77cf1462000c0f57600080fd5b8063d10dfdb11462000aed578063e30c39781462000b32578063e4421be21462000b5257600080fd5b8063b88d4fde11620000d6578063b88d4fde1462000a8a578063c208d41a1462000aaf578063c87b56dd1462000ac857600080fd5b8063b1bac4181462000a04578063b242e5341462000a29578063b470a9b51462000a4e57600080fd5b806395d89b411162000169578063a005ec7a1162000140578063a005ec7a146200086e578063a22cb46514620009ae578063ac4afa3814620009d357600080fd5b806395d89b411462000805578063977a1255146200081d5780639ca423b3146200083457600080fd5b806380619b61116200019e57806380619b61146200079b578063829a1d0914620007c05780638da5cb5b14620007e557600080fd5b8063736c0d5b1462000736578063795dbede146200076a5780637ee9976d146200078357600080fd5b80633659cfe611620002a75780635c975abb11620002495780636352211e11620002205780636352211e14620006bc578063670506e914620006e157806370a0823114620006f9578063715018a6146200071e57600080fd5b80635c975abb146200063d57806360b127eb14620006585780636224defd14620006a557600080fd5b80634f1ef286116200027e5780634f1ef28614620005e957806352d1902d146200060057806358c7a063146200061857600080fd5b80633659cfe6146200058757806342842e0e14620005ac5780634e71e0c814620005d157600080fd5b806314050c5a116200031157806323b872dd11620002e857806323b872dd146200050b5780632ee691a31462000530578063350b2369146200056257600080fd5b806314050c5a146200049057806316a065c614620004c457806317e0f25214620004e657600080fd5b8063081812fc1162000346578063081812fc1462000406578063095ea7b314620004445780630aeb55c8146200046b57600080fd5b806301ffc9a71462000370578063068bcd8d14620003aa57806306fdde0314620003df575b600080fd5b3480156200037d57600080fd5b50620003956200038f36600462004421565b62000c31565b60405190151581526020015b60405180910390f35b348015620003b757600080fd5b50620003cf620003c936600462004441565b62000d18565b60405190518152602001620003a1565b348015620003ec57600080fd5b50620003f762000d54565b604051620003a19190620044af565b3480156200041357600080fd5b506200042b6200042536600462004441565b62000def565b6040516001600160a01b039091168152602001620003a1565b3480156200045157600080fd5b506200046962000463366004620044da565b62000e19565b005b3480156200047857600080fd5b50620004696200048a36600462004509565b62000f76565b3480156200049d57600080fd5b50620004b5620004af36600462004441565b62001291565b604051908152602001620003a1565b348015620004d157600080fd5b5060cb546200042b906001600160a01b031681565b348015620004f357600080fd5b50620004696200050536600462004441565b6200146d565b3480156200051857600080fd5b50620004696200052a3660046200455c565b620014fb565b3480156200053d57600080fd5b50620004b56200054f36600462004441565b6101916020526000908152604090205481565b3480156200056f57600080fd5b506200046962000581366004620045f1565b62001588565b3480156200059457600080fd5b5062000469620005a636600462004664565b620017b5565b348015620005b957600080fd5b5062000469620005cb3660046200455c565b6200195b565b348015620005de57600080fd5b506200046962001978565b62000469620005fa36600462004755565b620019e0565b3480156200060d57600080fd5b50620004b562001b73565b3480156200062557600080fd5b506200046962000637366004620044da565b62001c3a565b3480156200064a57600080fd5b506101c35460ff1662000395565b3480156200066557600080fd5b506200068f6200067736600462004664565b60cd6020526000908152604090205463ffffffff1681565b60405163ffffffff9091168152602001620003a1565b62000469620006b6366004620047fe565b62001db6565b348015620006c957600080fd5b506200042b620006db36600462004441565b62001dec565b348015620006ee57600080fd5b50620004b560c95481565b3480156200070657600080fd5b50620004b56200071836600462004664565b62001e54565b3480156200072b57600080fd5b506200046962001ef1565b3480156200074357600080fd5b50620003956200075536600462004664565b60cc6020526000908152604090205460ff1681565b3480156200077757600080fd5b50620004b56101935481565b3480156200079057600080fd5b506200046962001f59565b348015620007a857600080fd5b5062000469620007ba3660046200483b565b62002035565b348015620007cd57600080fd5b5062000469620007df366004620048e1565b6200220a565b348015620007f257600080fd5b506033546001600160a01b03166200042b565b3480156200081257600080fd5b50620003f762002342565b620004696200082e36600462004904565b62002354565b3480156200084157600080fd5b506200042b6200085336600462004664565b60d1602052600090815260409020546001600160a01b031681565b3480156200087b57600080fd5b50620009486200088d36600462004441565b60ce6020526000908152604090208054600182015460029092015490916001600160a01b0381169174010000000000000000000000000000000000000000820461ffff1691760100000000000000000000000000000000000000000000810463ffffffff16917a01000000000000000000000000000000000000000000000000000090910465ffffffffffff16906fffffffffffffffffffffffffffffffff8082169170010000000000000000000000000000000090041687565b604080519788526001600160a01b03909616602088015261ffff9094169486019490945263ffffffff909116606085015265ffffffffffff1660808401526fffffffffffffffffffffffffffffffff91821660a08401521660c082015260e001620003a1565b348015620009bb57600080fd5b5062000469620009cd36600462004991565b62002399565b348015620009e057600080fd5b50620004b5620009f236600462004441565b60cf6020526000908152604090205481565b34801562000a1157600080fd5b506200046962000a2336600462004441565b620023a6565b34801562000a3657600080fd5b506200046962000a4836600462004991565b6200243e565b34801562000a5b57600080fd5b50620004b562000a6d366004620044da565b60d060209081526000928352604080842090915290825290205481565b34801562000a9757600080fd5b506200046962000aa9366004620049c4565b62002523565b34801562000abc57600080fd5b50620004b56101945481565b34801562000ad557600080fd5b50620003f762000ae736600462004441565b620025b7565b34801562000afa57600080fd5b5062000b1262000b0c36600462004a38565b62002792565b604080516001600160a01b039093168352602083019190915201620003a1565b34801562000b3f57600080fd5b506034546001600160a01b03166200042b565b34801562000b5f57600080fd5b506200046962000b71366004620048e1565b620027c7565b34801562000b8457600080fd5b50620004b562000b9636600462004441565b62002907565b34801562000ba957600080fd5b506200039562000bbb36600462004a70565b6001600160a01b0391821660009081526101326020908152604080832093909416825291909152205460ff1690565b34801562000bf757600080fd5b506200046962000c0936600462004441565b62002989565b34801562000c1c57600080fd5b5060d2546200042b906001600160a01b031681565b60007fffffffff0000000000000000000000000000000000000000000000000000000082167f80ac58cd00000000000000000000000000000000000000000000000000000000148062000cc557507fffffffff0000000000000000000000000000000000000000000000000000000082167f5b5e139f00000000000000000000000000000000000000000000000000000000145b8062000d1257507f01ffc9a7000000000000000000000000000000000000000000000000000000007fffffffff000000000000000000000000000000000000000000000000000000008316145b92915050565b60408051602081019091526000815262000d328262002a1b565b50600090815260cf602090815260409182902082519182019092529054815290565b606061012d805462000d669062004aa3565b80601f016020809104026020016040519081016040528092919081815260200182805462000d949062004aa3565b801562000de55780601f1062000db95761010080835404028352916020019162000de5565b820191906000526020600020905b81548152906001019060200180831162000dc757829003601f168201915b5050505050905090565b600062000dfc8262002a1b565b50600090815261013160205260409020546001600160a01b031690565b600062000e268262001dec565b9050806001600160a01b0316836001600160a01b03160362000eb55760405162461bcd60e51b815260206004820152602160248201527f4552433732313a20617070726f76616c20746f2063757272656e74206f776e6560448201527f720000000000000000000000000000000000000000000000000000000000000060648201526084015b60405180910390fd5b336001600160a01b038216148062000ef157506001600160a01b03811660009081526101326020908152604080832033845290915290205460ff165b62000f655760405162461bcd60e51b815260206004820152603d60248201527f4552433732313a20617070726f76652063616c6c6572206973206e6f7420746f60448201527f6b656e206f776e6572206f7220617070726f76656420666f7220616c6c000000606482015260840162000eac565b62000f71838362002a82565b505050565b62000f8062002af3565b62000f8a62002b3d565b600062000f978462002b93565b6040805160e0810182528981526001600160a01b038916602080830182905261ffff881683850152600091825260cd90529182208054939450909260608401929062000fe99063ffffffff1662004af5565b825463ffffffff9182166101009390930a838102920219161790915581526000602082015260400162001025670de0b6b3a76400008562004b31565b6fffffffffffffffffffffffffffffffff16815260200162001050670de0b6b3a76400008862004b31565b6fffffffffffffffffffffffffffffffff908116909152600083815260ce60209081526040918290208451815590840151600182018054938601516060870151608088015165ffffffffffff167a0100000000000000000000000000000000000000000000000000000279ffffffffffffffffffffffffffffffffffffffffffffffffffff63ffffffff909216760100000000000000000000000000000000000000000000029190911675ffffffffffffffffffffffffffffffffffffffffffff61ffff90931674010000000000000000000000000000000000000000027fffffffffffffffffffff000000000000000000000000000000000000000000009097166001600160a01b03909516949094179590951716919091179290921790915560a083015160c0909301518216700100000000000000000000000000000000029290911691909117600290910155620011ab868262002bcc565b60d2546040517f21670f220000000000000000000000000000000000000000000000000000000081526001600160a01b03888116600483015260248201889052909116906321670f2290604401600060405180830381600087803b1580156200121357600080fd5b505af115801562001228573d6000803e3d6000fd5b505050506200123986858762002be8565b80866001600160a01b0316887faf1bba31184b4d13e4f756b22fc2755d77b6ad147f10a7b12ea6afa58a2ca5f6878960405162001280929190918252602082015260400190565b60405180910390a450505050505050565b6000600f821015620012cf576040517fadefc67800000000000000000000000000000000000000000000000000000000815260040160405180910390fd5b6014821015620012fa57620012e6600f8362004b48565b62000d1290674563918244f4000062004b5e565b6200130c826509184e72a00062004b5e565b91506618ec9e919dbfaf60006509184e72a000620013328566039eb80975860062004b5e565b6200133e919062004b31565b905060006a52b7d2dcc80cd2e40000006200135b60028762004c75565b6200136d90652351aa192de062004b5e565b62001379919062004b31565b905060007002f050fe938943acc45f655680000000006200139c60038862004c75565b620013ad90643c0c4cb35862004b5e565b620013b9919062004b31565b90506000751aba4714957d300d0e549208b31adb10000000000000620013e160048962004c75565b620013f1906325e3219662004b5e565b620013fd919062004b31565b9050600082858362001410878a62004c86565b6200141c919062004c86565b62001428919062004b48565b62001434919062004b48565b90506200144d6200144782600d62002cd9565b62002d68565b6200146190670de0b6b3a764000062004b5e565b98975050505050505050565b6033546001600160a01b03163314620014c95760405162461bcd60e51b815260206004820152601d60248201527f536166654f776e61626c653a2063616c6c6572206e6f74206f776e6572000000604482015260640162000eac565b604051339082156108fc029083906000818181858888f19350505050158015620014f7573d6000803e3d6000fd5b5050565b62001507338262002da9565b6200157b5760405162461bcd60e51b815260206004820152602d60248201527f4552433732313a2063616c6c6572206973206e6f7420746f6b656e206f776e6560448201527f72206f7220617070726f76656400000000000000000000000000000000000000606482015260840162000eac565b62000f7183838362002e2f565b6033546001600160a01b03163314620015e45760405162461bcd60e51b815260206004820152601d60248201527f536166654f776e61626c653a2063616c6c6572206e6f74206f776e6572000000604482015260640162000eac565b60005b83811015620016cd57600160cc60008787858181106200160b576200160b62004c9c565b905060200201602081019062001622919062004664565b6001600160a01b031681526020810191909152604001600020805460ff19169115159190911790557fc648f6265408cc54c0dc26d24ba51dfc9f35ce1a63baa2228f65d93aaf11cc6785858381811062001680576200168062004c9c565b905060200201602081019062001697919062004664565b604080516001600160a01b039092168252600160208301520160405180910390a180620016c48162004cb2565b915050620015e7565b5060005b81811015620017ae5760cc6000848484818110620016f357620016f362004c9c565b90506020020160208101906200170a919062004664565b6001600160a01b031681526020810191909152604001600020805460ff191690557fc648f6265408cc54c0dc26d24ba51dfc9f35ce1a63baa2228f65d93aaf11cc6783838381811062001761576200176162004c9c565b905060200201602081019062001778919062004664565b604080516001600160a01b039092168252600060208301520160405180910390a180620017a58162004cb2565b915050620016d1565b5050505050565b6001600160a01b037f0000000000000000000000000000000000000000000000000000000000000000163003620018555760405162461bcd60e51b815260206004820152602c60248201527f46756e6374696f6e206d7573742062652063616c6c6564207468726f7567682060448201527f64656c656761746563616c6c0000000000000000000000000000000000000000606482015260840162000eac565b7f00000000000000000000000000000000000000000000000000000000000000006001600160a01b0316620018b17f360894a13ba1a3210667c828492db98dca3e2076cc3735a920a3ca505d382bbc546001600160a01b031690565b6001600160a01b0316146200192f5760405162461bcd60e51b815260206004820152602c60248201527f46756e6374696f6e206d7573742062652063616c6c6564207468726f7567682060448201527f6163746976652070726f78790000000000000000000000000000000000000000606482015260840162000eac565b6200193a8162003074565b604080516000808252602082019092526200195891839190620030d0565b50565b62000f718383836040518060200160405280600081525062002523565b6034546001600160a01b03163314620019d45760405162461bcd60e51b815260206004820152601e60248201527f536166654f776e61626c653a2063616c6c657220213d2070656e64696e670000604482015260640162000eac565b620019de6200327c565b565b6001600160a01b037f000000000000000000000000000000000000000000000000000000000000000016300362001a805760405162461bcd60e51b815260206004820152602c60248201527f46756e6374696f6e206d7573742062652063616c6c6564207468726f7567682060448201527f64656c656761746563616c6c0000000000000000000000000000000000000000606482015260840162000eac565b7f00000000000000000000000000000000000000000000000000000000000000006001600160a01b031662001adc7f360894a13ba1a3210667c828492db98dca3e2076cc3735a920a3ca505d382bbc546001600160a01b031690565b6001600160a01b03161462001b5a5760405162461bcd60e51b815260206004820152602c60248201527f46756e6374696f6e206d7573742062652063616c6c6564207468726f7567682060448201527f6163746976652070726f78790000000000000000000000000000000000000000606482015260840162000eac565b62001b658262003074565b620014f782826001620030d0565b6000306001600160a01b037f0000000000000000000000000000000000000000000000000000000000000000161462001c155760405162461bcd60e51b815260206004820152603860248201527f555550535570677261646561626c653a206d757374206e6f742062652063616c60448201527f6c6564207468726f7567682064656c656761746563616c6c0000000000000000606482015260840162000eac565b507f360894a13ba1a3210667c828492db98dca3e2076cc3735a920a3ca505d382bbc90565b62001c4462002af3565b62001c4e62002b3d565b72ffffffffffffffffffffffffffffffffffffff600883901c1660009081526101926020526040902054600160ff84161b161562001cb8576040517f3d96ceab00000000000000000000000000000000000000000000000000000000815260040160405180910390fd5b72ffffffffffffffffffffffffffffffffffffff600883901c166000908152610192602052604090208054600160ff85161b17905560cb546040517f40c10f190000000000000000000000000000000000000000000000000000000081526001600160a01b03848116600483015260248201849052909116906340c10f1990604401600060405180830381600087803b15801562001d5557600080fd5b505af115801562001d6a573d6000803e3d6000fd5b50505050816001600160a01b03167f7a0984e898d33e4bf6ad9f851bfab5517683d3dae5b57ed58fa8c7152d822e328260405162001daa91815260200190565b60405180910390a25050565b62001dc062002b3d565b62001dca620032e5565b62001dd58262003342565b62001de081620034aa565b620014f7600161015f55565b600081815261012f60205260408120546001600160a01b03168062000d125760405162461bcd60e51b815260206004820152601860248201527f4552433732313a20696e76616c696420746f6b656e2049440000000000000000604482015260640162000eac565b60006001600160a01b03821662001ed45760405162461bcd60e51b815260206004820152602960248201527f4552433732313a2061646472657373207a65726f206973206e6f74206120766160448201527f6c6964206f776e65720000000000000000000000000000000000000000000000606482015260840162000eac565b506001600160a01b03166000908152610130602052604090205490565b6033546001600160a01b0316331462001f4d5760405162461bcd60e51b815260206004820152601d60248201527f536166654f776e61626c653a2063616c6c6572206e6f74206f776e6572000000604482015260640162000eac565b620019de600062003531565b6033546001600160a01b0316331462001fb55760405162461bcd60e51b815260206004820152601d60248201527f536166654f776e61626c653a2063616c6c6572206e6f74206f776e6572000000604482015260640162000eac565b6033546001600160a01b031660cb546040516001600160a01b039091169062001fde90620043e4565b6001600160a01b03928316815291166020820152604001604051809103906000f08015801562002012573d6000803e3d6000fd5b5060d280546001600160a01b0319166001600160a01b0392909216919091179055565b600054610100900460ff1615808015620020565750600054600160ff909116105b80620020725750303b15801562002072575060005460ff166001145b620020e65760405162461bcd60e51b815260206004820152602e60248201527f496e697469616c697a61626c653a20636f6e747261637420697320616c72656160448201527f647920696e697469616c697a6564000000000000000000000000000000000000606482015260840162000eac565b6000805460ff1916600117905580156200210a576000805461ff0019166101001790555b60cb80546001600160a01b0319166001600160a01b03891617905560c98690556200213584620035a7565b6200214183836200361f565b6200214b62003698565b620021556200370f565b30876040516200216590620043e4565b6001600160a01b03928316815291166020820152604001604051809103906000f08015801562002199573d6000803e3d6000fd5b5060d280546001600160a01b0319166001600160a01b0392909216919091179055801562002201576000805461ff0019169055604051600181527f7f26b83ff96e1f2b6a682f133852f6798a09c465da95921460cefb38474024989060200160405180910390a15b50505050505050565b6200221462002b3d565b600082815260cf602052604081208054909183918391906200223890849062004b48565b909155505033600090815260d06020908152604080832086845290915281208054909184918391906200226d90849062004b48565b909155505060cb546040517fa9059cbb000000000000000000000000000000000000000000000000000000008152336004820152602481018590526001600160a01b039091169063a9059cbb906044016020604051808303816000875af1158015620022dd573d6000803e3d6000fd5b505050506040513d601f19601f8201168201806040525081019062002303919062004ccf565b50604051838152849033907f5c09e6483f1552208cf891fa28d135269484ad74a848ad491913fb4b386ffcf0906020015b60405180910390a350505050565b606061012e805462000d669062004aa3565b6200235e62002b3d565b62002368620032e5565b62002377858585858562003786565b620023828762003342565b6200238d86620034aa565b62002201600161015f55565b620014f733838362003830565b6033546001600160a01b03163314620024025760405162461bcd60e51b815260206004820152601d60248201527f536166654f776e61626c653a2063616c6c6572206e6f74206f776e6572000000604482015260640162000eac565b60ca8190556040518181527f55a73bd6abec226526cb26266e83ffadccf62ef31c9a3d8d54ac7179b906802f906020015b60405180910390a150565b6033546001600160a01b031633146200249a5760405162461bcd60e51b815260206004820152601d60248201527f536166654f776e61626c653a2063616c6c6572206e6f74206f776e6572000000604482015260640162000eac565b6001600160a01b038216620024f25760405162461bcd60e51b815260206004820152601b60248201527f536166654f776e61626c653a206e6577206f776e657220697320300000000000604482015260640162000eac565b80156200250457620014f78262003531565b603480546001600160a01b0319166001600160a01b0384161790555050565b6200252f338362002da9565b620025a35760405162461bcd60e51b815260206004820152602d60248201527f4552433732313a2063616c6c6572206973206e6f7420746f6b656e206f776e6560448201527f72206f7220617070726f76656400000000000000000000000000000000000000606482015260840162000eac565b620025b18484848462003901565b50505050565b6060620025c48262002a1b565b600062002766620025d462000d54565b6000858152610191602090815260408083205460ce90925291829020600181015460029091015492517fe2bdd4e700000000000000000000000000000000000000000000000000000000815260c060048083019190915260c48201527f736565640000000000000000000000000000000000000000000000000000000060e48201526024810192909252760100000000000000000000000000000000000000000000810463ffffffff16604483015274010000000000000000000000000000000000000000810461ffff1660648301526001600160a01b031660848201526fffffffffffffffffffffffffffffffff90911660a48201526200273e90732C3b100060d1Ca406Ac1bCFBf936E088457D96419063e2bdd4e79061010401600060405180830381865af41580156200270e573d6000803e3d6000fd5b505050506040513d6000823e601f3d908101601f1916820160405262002738919081019062004cef565b62003990565b6040516020016200275192919062004d66565b60405160208183030381529060405262003990565b9050806040516020016200277b919062004e61565b604051602081830303815290604052915050919050565b6001600160a01b03808416600090815260d1602052604081205490911690620027bd60058462004b31565b9050935093915050565b620027d162002b3d565b620027dc8262002a1b565b60cb546040517f23b872dd000000000000000000000000000000000000000000000000000000008152336004820152306024820152604481018390526001600160a01b03909116906323b872dd906064016020604051808303816000875af11580156200284d573d6000803e3d6000fd5b505050506040513d601f19601f8201168201806040525081019062002873919062004ccf565b50600082815260cf602052604081208054909183918391906200289890849062004c86565b909155505033600090815260d0602090815260408083208684529091528120805490918491839190620028cd90849062004c86565b9091555050604051838152849033907f58c7b3bf0b0e168048426c1e9443a72696526292ca664e18b11f934cd6cfbbf39060200162002334565b60006003821080620029195750600882115b1562002951576040517f802f637400000000000000000000000000000000000000000000000000000000815260040160405180910390fd5b6200295e60038362004b48565b6200296b90600c62004b5e565b60ca54901c610fff16670de0b6b3a764000062000d12919062004b5e565b6033546001600160a01b03163314620029e55760405162461bcd60e51b815260206004820152601d60248201527f536166654f776e61626c653a2063616c6c6572206e6f74206f776e6572000000604482015260640162000eac565b60c98190556040518181527fae0c05ecd507ea9cded837adb5c433fa5e8c24ef117806d7050ec4432a743f1d9060200162002433565b600081815261012f60205260409020546001600160a01b0316620019585760405162461bcd60e51b815260206004820152601860248201527f4552433732313a20696e76616c696420746f6b656e2049440000000000000000604482015260640162000eac565b60008181526101316020526040902080546001600160a01b0319166001600160a01b038416908117909155819062002aba8262001dec565b6001600160a01b03167f8c5be1e5ebec7d5bd14f71427d1e84f3dd0314c0f7b2291e5b200ac8c7c3b92560405160405180910390a45050565b33600090815260cc602052604090205460ff16620019de576040517fa1b035c800000000000000000000000000000000000000000000000000000000815260040160405180910390fd5b6101c35460ff1615620019de5760405162461bcd60e51b815260206004820152601060248201527f5061757361626c653a2070617573656400000000000000000000000000000000604482015260640162000eac565b60008161019160006101936000815462002bad9062004cb2565b9182905550815260208101919091526040016000205550506101935490565b620014f782826040518060200160405280600081525062003af5565b60008062002bf885858562002792565b90925090506001600160a01b03821615620017ae5760cb546040517f40c10f190000000000000000000000000000000000000000000000000000000081526001600160a01b03848116600483015260248201849052909116906340c10f1990604401600060405180830381600087803b15801562002c7557600080fd5b505af115801562002c8a573d6000803e3d6000fd5b50505050816001600160a01b03167f41f5e9b898013216884ce15d796265ca96be55c0d8d3abb77689fbf1e96bb7378260405162002cca91815260200190565b60405180910390a25050505050565b600062002ce882600a62004ea8565b62002cf583600a62004ea8565b62002d01908562004b31565b62002d0d919062004b5e565b62002d19908462004b48565b60000362002d425762002d2e82600a62004ea8565b62002d3a908462004b31565b905062000d12565b62002d4f82600a62004ea8565b62002d5b908462004b31565b62002d3a90600162004c86565b600062002d7760058362004eb6565b60000362002d83575090565b62002d9060058362004eb6565b62002d9d90600562004b48565b62000d12908362004c86565b60008062002db78362001dec565b9050806001600160a01b0316846001600160a01b0316148062002e0057506001600160a01b038082166000908152610132602090815260408083209388168352929052205460ff165b8062002e275750836001600160a01b031662002e1c8462000def565b6001600160a01b0316145b949350505050565b826001600160a01b031662002e448262001dec565b6001600160a01b03161462002ec25760405162461bcd60e51b815260206004820152602560248201527f4552433732313a207472616e736665722066726f6d20696e636f72726563742060448201527f6f776e6572000000000000000000000000000000000000000000000000000000606482015260840162000eac565b6001600160a01b03821662002f3f5760405162461bcd60e51b8152602060048201526024808201527f4552433732313a207472616e7366657220746f20746865207a65726f2061646460448201527f7265737300000000000000000000000000000000000000000000000000000000606482015260840162000eac565b62002f4e838383600162003b84565b826001600160a01b031662002f638262001dec565b6001600160a01b03161462002fe15760405162461bcd60e51b815260206004820152602560248201527f4552433732313a207472616e736665722066726f6d20696e636f72726563742060448201527f6f776e6572000000000000000000000000000000000000000000000000000000606482015260840162000eac565b60008181526101316020908152604080832080546001600160a01b03199081169091556001600160a01b03878116808652610130855283862080546000190190559087168086528386208054600101905586865261012f90945282852080549092168417909155905184937fddf252ad1be2c89b69c2b068fc378daa952ba7f163c4a11628f55a4df523b3ef91a4505050565b6033546001600160a01b03163314620019585760405162461bcd60e51b815260206004820152601d60248201527f536166654f776e61626c653a2063616c6c6572206e6f74206f776e6572000000604482015260640162000eac565b7f4910fdfa16fed3260ed0e7147f7cc6da11a60208b5b9406d12a635614ffd91435460ff1615620031065762000f718362003c15565b826001600160a01b03166352d1902d6040518163ffffffff1660e01b8152600401602060405180830381865afa92505050801562003163575060408051601f3d908101601f19168201909252620031609181019062004ecd565b60015b620031d75760405162461bcd60e51b815260206004820152602e60248201527f45524331393637557067726164653a206e657720696d706c656d656e7461746960448201527f6f6e206973206e6f742055555053000000000000000000000000000000000000606482015260840162000eac565b7f360894a13ba1a3210667c828492db98dca3e2076cc3735a920a3ca505d382bbc81146200326e5760405162461bcd60e51b815260206004820152602960248201527f45524331393637557067726164653a20756e737570706f727465642070726f7860448201527f6961626c65555549440000000000000000000000000000000000000000000000606482015260840162000eac565b5062000f7183838362003cd5565b6033546034546040516001600160a01b03928316929091169082907f8be0079c531659141344cd1fd0a4f28419497f9722a3daafe3b4186f6b6457e090600090a35060348054603380546001600160a01b03199081166001600160a01b03841617909155169055565b600261015f54036200333a5760405162461bcd60e51b815260206004820152601f60248201527f5265656e7472616e637947756172643a207265656e7472616e742063616c6c00604482015260640162000eac565b600261015f55565b60c9543410156200337f576040517f5945ea5600000000000000000000000000000000000000000000000000000000815260040160405180910390fd5b60c95433906108fc9062003394903462004b48565b6040518115909202916000818181858888f19350505050158015620033bd573d6000803e3d6000fd5b506000620033cf826020015162001291565b8251620033dc9062002907565b620033e8919062004c86565b60cb546040517f79cc6790000000000000000000000000000000000000000000000000000000008152336004820152602481018390529192506001600160a01b0316906379cc679090604401600060405180830381600087803b1580156200344f57600080fd5b505af115801562003464573d6000803e3d6000fd5b50505060208084015184516040518581529193509133917f617b1a2bf0533cea0c5dd46104e1d48f8b290fc7d7360dba0182dbf07a00e46a910160405180910390a45050565b33600090815260d160205260409020546001600160a01b0316620019585733600081815260d1602090815260409182902080546001600160a01b0319166001600160a01b0386169081179091558251938452908301527f677cd8c8ce12dc7827579d65be5e6efa74b6ac9ab04ac43d4648dc85d328c2ae910162002433565b600161015f55565b7fb53127684a568b3173ae13b9f8a6016e243e63b6e8ee1178d6a717850b5d6103819055603380546001600160a01b038084166001600160a01b0319831681179093556040519116919082907f8be0079c531659141344cd1fd0a4f28419497f9722a3daafe3b4186f6b6457e090600090a35050565b600054610100900460ff16620036145760405162461bcd60e51b815260206004820152602b60248201527f496e697469616c697a61626c653a20636f6e7472616374206973206e6f74206960448201526a6e697469616c697a696e6760a81b606482015260840162000eac565b620019588162003d00565b600054610100900460ff166200368c5760405162461bcd60e51b815260206004820152602b60248201527f496e697469616c697a61626c653a20636f6e7472616374206973206e6f74206960448201526a6e697469616c697a696e6760a81b606482015260840162000eac565b620014f7828262003d78565b600054610100900460ff16620037055760405162461bcd60e51b815260206004820152602b60248201527f496e697469616c697a61626c653a20636f6e7472616374206973206e6f74206960448201526a6e697469616c697a696e6760a81b606482015260840162000eac565b620019de62003e04565b600054610100900460ff166200377c5760405162461bcd60e51b815260206004820152602b60248201527f496e697469616c697a61626c653a20636f6e7472616374206973206e6f74206960448201526a6e697469616c697a696e6760a81b606482015260840162000eac565b620019de62003e71565b60cb546040517fd505accf000000000000000000000000000000000000000000000000000000008152336004820152306024820152604481018790526064810186905260ff8316608482015260a4810185905260c481018490526001600160a01b039091169063d505accf9060e401600060405180830381600087803b1580156200381057600080fd5b505af115801562003825573d6000803e3d6000fd5b505050505050505050565b816001600160a01b0316836001600160a01b031603620038935760405162461bcd60e51b815260206004820152601960248201527f4552433732313a20617070726f766520746f2063616c6c657200000000000000604482015260640162000eac565b6001600160a01b0383811660008181526101326020908152604080832094871680845294825291829020805460ff191686151590811790915591519182527f17307eab39ab6107e8899845ad3d59bd9653f200f220920489ca2b5937696c31910160405180910390a3505050565b6200390e84848462002e2f565b6200391c8484848462003eeb565b620025b15760405162461bcd60e51b815260206004820152603260248201527f4552433732313a207472616e7366657220746f206e6f6e20455243373231526560448201527f63656976657220696d706c656d656e7465720000000000000000000000000000606482015260840162000eac565b60608151600003620039b057505060408051602081019091526000815290565b600060405180606001604052806040815260200162005a746040913990506000600384516002620039e2919062004c86565b620039ee919062004b31565b620039fb90600462004b5e565b67ffffffffffffffff81111562003a165762003a1662004684565b6040519080825280601f01601f19166020018201604052801562003a41576020820181803683370190505b509050600182016020820185865187015b8082101562003aaf576003820191508151603f8160121c168501518453600184019350603f81600c1c168501518453600184019350603f8160061c168501518453600184019350603f811685015184535060018301925062003a52565b505060038651066001811462003ace576002811462003ae25762003aea565b603d6001830353603d600283035362003aea565b603d60018303535b509195945050505050565b62003b01838362004098565b62003b10600084848462003eeb565b62000f715760405162461bcd60e51b815260206004820152603260248201527f4552433732313a207472616e7366657220746f206e6f6e20455243373231526560448201527f63656976657220696d706c656d656e7465720000000000000000000000000000606482015260840162000eac565b6001811115620025b1576001600160a01b0384161562003bcf576001600160a01b038416600090815261013060205260408120805483929062003bc990849062004b48565b90915550505b6001600160a01b03831615620025b1576001600160a01b038316600090815261013060205260408120805483929062003c0a90849062004c86565b909155505050505050565b6001600160a01b0381163b62003c945760405162461bcd60e51b815260206004820152602d60248201527f455243313936373a206e657720696d706c656d656e746174696f6e206973206e60448201527f6f74206120636f6e747261637400000000000000000000000000000000000000606482015260840162000eac565b7f360894a13ba1a3210667c828492db98dca3e2076cc3735a920a3ca505d382bbc80546001600160a01b0319166001600160a01b0392909216919091179055565b62003ce0836200423d565b60008251118062003cee5750805b1562000f7157620025b183836200427f565b600054610100900460ff1662003d6d5760405162461bcd60e51b815260206004820152602b60248201527f496e697469616c697a61626c653a20636f6e7472616374206973206e6f74206960448201526a6e697469616c697a696e6760a81b606482015260840162000eac565b620019588162003531565b600054610100900460ff1662003de55760405162461bcd60e51b815260206004820152602b60248201527f496e697469616c697a61626c653a20636f6e7472616374206973206e6f74206960448201526a6e697469616c697a696e6760a81b606482015260840162000eac565b61012d62003df4838262004f39565b5061012e62000f71828262004f39565b600054610100900460ff16620035295760405162461bcd60e51b815260206004820152602b60248201527f496e697469616c697a61626c653a20636f6e7472616374206973206e6f74206960448201526a6e697469616c697a696e6760a81b606482015260840162000eac565b600054610100900460ff1662003ede5760405162461bcd60e51b815260206004820152602b60248201527f496e697469616c697a61626c653a20636f6e7472616374206973206e6f74206960448201526a6e697469616c697a696e6760a81b606482015260840162000eac565b6101c3805460ff19169055565b60006001600160a01b0384163b156200408d576040517f150b7a020000000000000000000000000000000000000000000000000000000081526001600160a01b0385169063150b7a029062003f4b90339089908890889060040162005006565b6020604051808303816000875af192505050801562003f89575060408051601f3d908101601f1916820190925262003f869181019062005044565b60015b62004041573d80801562003fba576040519150601f19603f3d011682016040523d82523d6000602084013e62003fbf565b606091505b508051600003620040395760405162461bcd60e51b815260206004820152603260248201527f4552433732313a207472616e7366657220746f206e6f6e20455243373231526560448201527f63656976657220696d706c656d656e7465720000000000000000000000000000606482015260840162000eac565b805181602001fd5b7fffffffff00000000000000000000000000000000000000000000000000000000167f150b7a020000000000000000000000000000000000000000000000000000000014905062002e27565b506001949350505050565b6001600160a01b038216620040f05760405162461bcd60e51b815260206004820181905260248201527f4552433732313a206d696e7420746f20746865207a65726f2061646472657373604482015260640162000eac565b600081815261012f60205260409020546001600160a01b031615620041585760405162461bcd60e51b815260206004820152601c60248201527f4552433732313a20746f6b656e20616c7265616479206d696e74656400000000604482015260640162000eac565b6200416860008383600162003b84565b600081815261012f60205260409020546001600160a01b031615620041d05760405162461bcd60e51b815260206004820152601c60248201527f4552433732313a20746f6b656e20616c7265616479206d696e74656400000000604482015260640162000eac565b6001600160a01b0382166000818152610130602090815260408083208054600101905584835261012f90915280822080546001600160a01b0319168417905551839291907fddf252ad1be2c89b69c2b068fc378daa952ba7f163c4a11628f55a4df523b3ef908290a45050565b620042488162003c15565b6040516001600160a01b038216907fbc7cd75a20ee27fd9adebab32041f755214dbc6bffa90cc0225b39da2e5c2d3b90600090a250565b60606001600160a01b0383163b620043005760405162461bcd60e51b815260206004820152602660248201527f416464726573733a2064656c65676174652063616c6c20746f206e6f6e2d636f60448201527f6e74726163740000000000000000000000000000000000000000000000000000606482015260840162000eac565b600080846001600160a01b0316846040516200431d919062005064565b600060405180830381855af49150503d80600081146200435a576040519150601f19603f3d011682016040523d82523d6000602084013e6200435f565b606091505b50915091506200438a828260405180606001604052806027815260200162005ab46027913962004393565b95945050505050565b60608315620043a4575081620043b0565b620043b08383620043b7565b9392505050565b815115620043c85781518083602001fd5b8060405162461bcd60e51b815260040162000eac9190620044af565b6109f1806200508383390190565b7fffffffff00000000000000000000000000000000000000000000000000000000811681146200195857600080fd5b6000602082840312156200443457600080fd5b8135620043b081620043f2565b6000602082840312156200445457600080fd5b5035919050565b60005b83811015620044785781810151838201526020016200445e565b50506000910152565b600081518084526200449b8160208601602086016200445b565b601f01601f19169290920160200192915050565b602081526000620043b0602083018462004481565b6001600160a01b03811681146200195857600080fd5b60008060408385031215620044ee57600080fd5b8235620044fb81620044c4565b946020939093013593505050565b60008060008060008060c087890312156200452357600080fd5b8635955060208701356200453781620044c4565b95989597505050506040840135936060810135936080820135935060a0909101359150565b6000806000606084860312156200457257600080fd5b83356200457f81620044c4565b925060208401356200459181620044c4565b929592945050506040919091013590565b60008083601f840112620045b557600080fd5b50813567ffffffffffffffff811115620045ce57600080fd5b6020830191508360208260051b8501011115620045ea57600080fd5b9250929050565b600080600080604085870312156200460857600080fd5b843567ffffffffffffffff808211156200462157600080fd5b6200462f88838901620045a2565b909650945060208701359150808211156200464957600080fd5b506200465887828801620045a2565b95989497509550505050565b6000602082840312156200467757600080fd5b8135620043b081620044c4565b634e487b7160e01b600052604160045260246000fd5b604051601f8201601f1916810167ffffffffffffffff81118282101715620046c657620046c662004684565b604052919050565b600067ffffffffffffffff821115620046eb57620046eb62004684565b50601f01601f191660200190565b600082601f8301126200470b57600080fd5b8135620047226200471c82620046ce565b6200469a565b8181528460208386010111156200473857600080fd5b816020850160208301376000918101602001919091529392505050565b600080604083850312156200476957600080fd5b82356200477681620044c4565b9150602083013567ffffffffffffffff8111156200479357600080fd5b620047a185828601620046f9565b9150509250929050565b600060408284031215620047be57600080fd5b6040516040810181811067ffffffffffffffff82111715620047e457620047e462004684565b604052823581526020928301359281019290925250919050565b600080606083850312156200481257600080fd5b6200481e8484620047ab565b915060408301356200483081620044c4565b809150509250929050565b60008060008060008060c087890312156200485557600080fd5b86356200486281620044c4565b9550602087013594506040870135935060608701356200488281620044c4565b9250608087013567ffffffffffffffff80821115620048a057600080fd5b620048ae8a838b01620046f9565b935060a0890135915080821115620048c557600080fd5b50620048d489828a01620046f9565b9150509295509295509295565b60008060408385031215620048f557600080fd5b50508035926020909101359150565b6000806000806000806000610100888a0312156200492157600080fd5b6200492d8989620047ab565b965060408801356200493f81620044c4565b9550606088013594506080880135935060a0880135925060c0880135915060e088013560ff811681146200497257600080fd5b8091505092959891949750929550565b80151581146200195857600080fd5b60008060408385031215620049a557600080fd5b8235620049b281620044c4565b91506020830135620048308162004982565b60008060008060808587031215620049db57600080fd5b8435620049e881620044c4565b93506020850135620049fa81620044c4565b925060408501359150606085013567ffffffffffffffff81111562004a1e57600080fd5b62004a2c87828801620046f9565b91505092959194509250565b60008060006060848603121562004a4e57600080fd5b833562004a5b81620044c4565b95602085013595506040909401359392505050565b6000806040838503121562004a8457600080fd5b823562004a9181620044c4565b915060208301356200483081620044c4565b600181811c9082168062004ab857607f821691505b60208210810362004ad957634e487b7160e01b600052602260045260246000fd5b50919050565b634e487b7160e01b600052601160045260246000fd5b600063ffffffff80831681810362004b115762004b1162004adf565b6001019392505050565b634e487b7160e01b600052601260045260246000fd5b60008262004b435762004b4362004b1b565b500490565b8181038181111562000d125762000d1262004adf565b808202811582820484141762000d125762000d1262004adf565b600181815b8085111562004bb957816000190482111562004b9d5762004b9d62004adf565b8085161562004bab57918102915b93841c939080029062004b7d565b509250929050565b60008262004bd25750600162000d12565b8162004be15750600062000d12565b816001811462004bfa576002811462004c055762004c25565b600191505062000d12565b60ff84111562004c195762004c1962004adf565b50506001821b62000d12565b5060208310610133831016604e8410600b841016171562004c4a575081810a62000d12565b62004c56838362004b78565b806000190482111562004c6d5762004c6d62004adf565b029392505050565b6000620043b060ff84168362004bc1565b8082018082111562000d125762000d1262004adf565b634e487b7160e01b600052603260045260246000fd5b6000600019820362004cc85762004cc862004adf565b5060010190565b60006020828403121562004ce257600080fd5b8151620043b08162004982565b60006020828403121562004d0257600080fd5b815167ffffffffffffffff81111562004d1a57600080fd5b8201601f8101841362004d2c57600080fd5b805162004d3d6200471c82620046ce565b81815285602083850101111562004d5357600080fd5b6200438a8260208301602086016200445b565b7f7b226e616d65223a20220000000000000000000000000000000000000000000081526000835162004da081600a8501602088016200445b565b7f222c226465736372697074696f6e223a22000000000000000000000000000000600a918401918201527f222c22696d616765223a22000000000000000000000000000000000000000000601b8201527f646174613a696d6167652f7376672b786d6c3b6261736536342c0000000000006026820152835162004e2b8160408401602088016200445b565b7f227d00000000000000000000000000000000000000000000000000000000000060409290910191820152604201949350505050565b7f646174613a6170706c69636174696f6e2f6a736f6e3b6261736536342c00000081526000825162004e9b81601d8501602087016200445b565b91909101601d0192915050565b6000620043b0838362004bc1565b60008262004ec85762004ec862004b1b565b500690565b60006020828403121562004ee057600080fd5b5051919050565b601f82111562000f7157600081815260208120601f850160051c8101602086101562004f105750805b601f850160051c820191505b8181101562004f315782815560010162004f1c565b505050505050565b815167ffffffffffffffff81111562004f565762004f5662004684565b62004f6e8162004f67845462004aa3565b8462004ee7565b602080601f83116001811462004fa6576000841562004f8d5750858301515b600019600386901b1c1916600185901b17855562004f31565b600085815260208120601f198616915b8281101562004fd75788860151825594840194600190910190840162004fb6565b508582101562004ff65787850151600019600388901b60f8161c191681555b5050505050600190811b01905550565b60006001600160a01b038087168352808616602084015250836040830152608060608301526200503a608083018462004481565b9695505050505050565b6000602082840312156200505757600080fd5b8151620043b081620043f2565b60008251620050788184602087016200445b565b919091019291505056fe608060405234801561001057600080fd5b506040516109f13803806109f183398101604081905261002f916100fa565b6100383361008e565b6001600160a01b03811661005f57604051630ae8f22360e21b815260040160405180910390fd5b6100688261008e565b600180546001600160a01b0319166001600160a01b03929092169190911790555061012d565b600080546001600160a01b038381166001600160a01b0319831681178455604051919092169283917f8be0079c531659141344cd1fd0a4f28419497f9722a3daafe3b4186f6b6457e09190a35050565b80516001600160a01b03811681146100f557600080fd5b919050565b6000806040838503121561010d57600080fd5b610116836100de565b9150610124602084016100de565b90509250929050565b6108b58061013c6000396000f3fe608060405234801561001057600080fd5b50600436106100725760003560e01c80638da5cb5b116100505780638da5cb5b146100c3578063a1c04f0e146100d4578063f2fde38b146100e757600080fd5b806316a065c61461007757806321670f22146100a6578063715018a6146100bb575b600080fd5b60015461008a906001600160a01b031681565b6040516001600160a01b03909116815260200160405180910390f35b6100b96100b4366004610767565b6100fa565b005b6100b961011d565b6000546001600160a01b031661008a565b6100b96100e2366004610791565b610131565b6100b96100f5366004610791565b6102e3565b610102610378565b600154610119906001600160a01b031683836103d2565b5050565b610125610378565b61012f6000610457565b565b610139610378565b6001600160a01b038116610179576040517f2ba3c88c00000000000000000000000000000000000000000000000000000000815260040160405180910390fd5b6001546040517f70a082310000000000000000000000000000000000000000000000000000000081523060048201526102179183916001600160a01b03909116906370a0823190602401602060405180830381865afa1580156101e0573d6000803e3d6000fd5b505050506040513d601f19601f8201168201806040525081019061020491906107b3565b6001546001600160a01b031691906103d2565b6001546040517f70a082310000000000000000000000000000000000000000000000000000000081523060048201527ff58b081c2d077b17c9ef90e17090bd89e8b8b98933872e29c9352269eda3823f916001600160a01b03169081906370a0823190602401602060405180830381865afa15801561029a573d6000803e3d6000fd5b505050506040513d601f19601f820116820180604052508101906102be91906107b3565b604080516001600160a01b03909316835260208301919091520160405180910390a150565b6102eb610378565b6001600160a01b03811661036c5760405162461bcd60e51b815260206004820152602660248201527f4f776e61626c653a206e6577206f776e657220697320746865207a65726f206160448201527f646472657373000000000000000000000000000000000000000000000000000060648201526084015b60405180910390fd5b61037581610457565b50565b6000546001600160a01b0316331461012f5760405162461bcd60e51b815260206004820181905260248201527f4f776e61626c653a2063616c6c6572206973206e6f7420746865206f776e65726044820152606401610363565b604080516001600160a01b038416602482015260448082018490528251808303909101815260649091019091526020810180517bffffffffffffffffffffffffffffffffffffffffffffffffffffffff167fa9059cbb000000000000000000000000000000000000000000000000000000001790526104529084906104bf565b505050565b600080546001600160a01b038381167fffffffffffffffffffffffff0000000000000000000000000000000000000000831681178455604051919092169283917f8be0079c531659141344cd1fd0a4f28419497f9722a3daafe3b4186f6b6457e09190a35050565b6000610514826040518060400160405280602081526020017f5361666545524332303a206c6f772d6c6576656c2063616c6c206661696c6564815250856001600160a01b03166105a49092919063ffffffff16565b805190915015610452578080602001905181019061053291906107cc565b6104525760405162461bcd60e51b815260206004820152602a60248201527f5361666545524332303a204552433230206f7065726174696f6e20646964206e60448201527f6f742073756363656564000000000000000000000000000000000000000000006064820152608401610363565b60606105b384846000856105bb565b949350505050565b6060824710156106335760405162461bcd60e51b815260206004820152602660248201527f416464726573733a20696e73756666696369656e742062616c616e636520666f60448201527f722063616c6c00000000000000000000000000000000000000000000000000006064820152608401610363565b600080866001600160a01b0316858760405161064f9190610812565b60006040518083038185875af1925050503d806000811461068c576040519150601f19603f3d011682016040523d82523d6000602084013e610691565b606091505b50915091506106a2878383876106ad565b979650505050505050565b6060831561071c578251600003610715576001600160a01b0385163b6107155760405162461bcd60e51b815260206004820152601d60248201527f416464726573733a2063616c6c20746f206e6f6e2d636f6e74726163740000006044820152606401610363565b50816105b3565b6105b383838151156107315781518083602001fd5b8060405162461bcd60e51b8152600401610363919061082e565b80356001600160a01b038116811461076257600080fd5b919050565b6000806040838503121561077a57600080fd5b6107838361074b565b946020939093013593505050565b6000602082840312156107a357600080fd5b6107ac8261074b565b9392505050565b6000602082840312156107c557600080fd5b5051919050565b6000602082840312156107de57600080fd5b815180151581146107ac57600080fd5b60005b838110156108095781810151838201526020016107f1565b50506000910152565b600082516108248184602087016107ee565b9190910192915050565b602081526000825180602084015261084d8160408501602087016107ee565b601f017fffffffffffffffffffffffffffffffffffffffffffffffffffffffffffffffe016919091016040019291505056fea26469706673582212202264ef6f8260e159e7033f416a94b794e101b857d04c965b618cb83ef3a8d64164736f6c634300081100334142434445464748494a4b4c4d4e4f505152535455565758595a6162636465666768696a6b6c6d6e6f707172737475767778797a303132333435363738392b2f416464726573733a206c6f772d6c6576656c2064656c65676174652063616c6c206661696c6564a2646970667358221220e624dcbf5660d1fc88c068221419cef12ee88105b5c5c4086028bd552fcff00f64736f6c63430008110033",
  "deployedBytecode": "0x6080604052600436106200036b5760003560e01c8063736c0d5b11620001c7578063b1bac41811620000ff578063d10dfdb111620000a1578063e7b894041162000078578063e7b894041462000b77578063e985e9c51462000b9c578063f11925d71462000bea578063fbfa77cf1462000c0f57600080fd5b8063d10dfdb11462000aed578063e30c39781462000b32578063e4421be21462000b5257600080fd5b8063b88d4fde11620000d6578063b88d4fde1462000a8a578063c208d41a1462000aaf578063c87b56dd1462000ac857600080fd5b8063b1bac4181462000a04578063b242e5341462000a29578063b470a9b51462000a4e57600080fd5b806395d89b411162000169578063a005ec7a1162000140578063a005ec7a146200086e578063a22cb46514620009ae578063ac4afa3814620009d357600080fd5b806395d89b411462000805578063977a1255146200081d5780639ca423b3146200083457600080fd5b806380619b61116200019e57806380619b61146200079b578063829a1d0914620007c05780638da5cb5b14620007e557600080fd5b8063736c0d5b1462000736578063795dbede146200076a5780637ee9976d146200078357600080fd5b80633659cfe611620002a75780635c975abb11620002495780636352211e11620002205780636352211e14620006bc578063670506e914620006e157806370a0823114620006f9578063715018a6146200071e57600080fd5b80635c975abb146200063d57806360b127eb14620006585780636224defd14620006a557600080fd5b80634f1ef286116200027e5780634f1ef28614620005e957806352d1902d146200060057806358c7a063146200061857600080fd5b80633659cfe6146200058757806342842e0e14620005ac5780634e71e0c814620005d157600080fd5b806314050c5a116200031157806323b872dd11620002e857806323b872dd146200050b5780632ee691a31462000530578063350b2369146200056257600080fd5b806314050c5a146200049057806316a065c614620004c457806317e0f25214620004e657600080fd5b8063081812fc1162000346578063081812fc1462000406578063095ea7b314620004445780630aeb55c8146200046b57600080fd5b806301ffc9a71462000370578063068bcd8d14620003aa57806306fdde0314620003df575b600080fd5b3480156200037d57600080fd5b50620003956200038f36600462004421565b62000c31565b60405190151581526020015b60405180910390f35b348015620003b757600080fd5b50620003cf620003c936600462004441565b62000d18565b60405190518152602001620003a1565b348015620003ec57600080fd5b50620003f762000d54565b604051620003a19190620044af565b3480156200041357600080fd5b506200042b6200042536600462004441565b62000def565b6040516001600160a01b039091168152602001620003a1565b3480156200045157600080fd5b506200046962000463366004620044da565b62000e19565b005b3480156200047857600080fd5b50620004696200048a36600462004509565b62000f76565b3480156200049d57600080fd5b50620004b5620004af36600462004441565b62001291565b604051908152602001620003a1565b348015620004d157600080fd5b5060cb546200042b906001600160a01b031681565b348015620004f357600080fd5b50620004696200050536600462004441565b6200146d565b3480156200051857600080fd5b50620004696200052a3660046200455c565b620014fb565b3480156200053d57600080fd5b50620004b56200054f36600462004441565b6101916020526000908152604090205481565b3480156200056f57600080fd5b506200046962000581366004620045f1565b62001588565b3480156200059457600080fd5b5062000469620005a636600462004664565b620017b5565b348015620005b957600080fd5b5062000469620005cb3660046200455c565b6200195b565b348015620005de57600080fd5b506200046962001978565b62000469620005fa36600462004755565b620019e0565b3480156200060d57600080fd5b50620004b562001b73565b3480156200062557600080fd5b506200046962000637366004620044da565b62001c3a565b3480156200064a57600080fd5b506101c35460ff1662000395565b3480156200066557600080fd5b506200068f6200067736600462004664565b60cd6020526000908152604090205463ffffffff1681565b60405163ffffffff9091168152602001620003a1565b62000469620006b6366004620047fe565b62001db6565b348015620006c957600080fd5b506200042b620006db36600462004441565b62001dec565b348015620006ee57600080fd5b50620004b560c95481565b3480156200070657600080fd5b50620004b56200071836600462004664565b62001e54565b3480156200072b57600080fd5b506200046962001ef1565b3480156200074357600080fd5b50620003956200075536600462004664565b60cc6020526000908152604090205460ff1681565b3480156200077757600080fd5b50620004b56101935481565b3480156200079057600080fd5b506200046962001f59565b348015620007a857600080fd5b5062000469620007ba3660046200483b565b62002035565b348015620007cd57600080fd5b5062000469620007df366004620048e1565b6200220a565b348015620007f257600080fd5b506033546001600160a01b03166200042b565b3480156200081257600080fd5b50620003f762002342565b620004696200082e36600462004904565b62002354565b3480156200084157600080fd5b506200042b6200085336600462004664565b60d1602052600090815260409020546001600160a01b031681565b3480156200087b57600080fd5b50620009486200088d36600462004441565b60ce6020526000908152604090208054600182015460029092015490916001600160a01b0381169174010000000000000000000000000000000000000000820461ffff1691760100000000000000000000000000000000000000000000810463ffffffff16917a01000000000000000000000000000000000000000000000000000090910465ffffffffffff16906fffffffffffffffffffffffffffffffff8082169170010000000000000000000000000000000090041687565b604080519788526001600160a01b03909616602088015261ffff9094169486019490945263ffffffff909116606085015265ffffffffffff1660808401526fffffffffffffffffffffffffffffffff91821660a08401521660c082015260e001620003a1565b348015620009bb57600080fd5b5062000469620009cd36600462004991565b62002399565b348015620009e057600080fd5b50620004b5620009f236600462004441565b60cf6020526000908152604090205481565b34801562000a1157600080fd5b506200046962000a2336600462004441565b620023a6565b34801562000a3657600080fd5b506200046962000a4836600462004991565b6200243e565b34801562000a5b57600080fd5b50620004b562000a6d366004620044da565b60d060209081526000928352604080842090915290825290205481565b34801562000a9757600080fd5b506200046962000aa9366004620049c4565b62002523565b34801562000abc57600080fd5b50620004b56101945481565b34801562000ad557600080fd5b50620003f762000ae736600462004441565b620025b7565b34801562000afa57600080fd5b5062000b1262000b0c36600462004a38565b62002792565b604080516001600160a01b039093168352602083019190915201620003a1565b34801562000b3f57600080fd5b506034546001600160a01b03166200042b565b34801562000b5f57600080fd5b506200046962000b71366004620048e1565b620027c7565b34801562000b8457600080fd5b50620004b562000b9636600462004441565b62002907565b34801562000ba957600080fd5b506200039562000bbb36600462004a70565b6001600160a01b0391821660009081526101326020908152604080832093909416825291909152205460ff1690565b34801562000bf757600080fd5b506200046962000c0936600462004441565b62002989565b34801562000c1c57600080fd5b5060d2546200042b906001600160a01b031681565b60007fffffffff0000000000000000000000000000000000000000000000000000000082167f80ac58cd00000000000000000000000000000000000000000000000000000000148062000cc557507fffffffff0000000000000000000000000000000000000000000000000000000082167f5b5e139f00000000000000000000000000000000000000000000000000000000145b8062000d1257507f01ffc9a7000000000000000000000000000000000000000000000000000000007fffffffff000000000000000000000000000000000000000000000000000000008316145b92915050565b60408051602081019091526000815262000d328262002a1b565b50600090815260cf602090815260409182902082519182019092529054815290565b606061012d805462000d669062004aa3565b80601f016020809104026020016040519081016040528092919081815260200182805462000d949062004aa3565b801562000de55780601f1062000db95761010080835404028352916020019162000de5565b820191906000526020600020905b81548152906001019060200180831162000dc757829003601f168201915b5050505050905090565b600062000dfc8262002a1b565b50600090815261013160205260409020546001600160a01b031690565b600062000e268262001dec565b9050806001600160a01b0316836001600160a01b03160362000eb55760405162461bcd60e51b815260206004820152602160248201527f4552433732313a20617070726f76616c20746f2063757272656e74206f776e6560448201527f720000000000000000000000000000000000000000000000000000000000000060648201526084015b60405180910390fd5b336001600160a01b038216148062000ef157506001600160a01b03811660009081526101326020908152604080832033845290915290205460ff165b62000f655760405162461bcd60e51b815260206004820152603d60248201527f4552433732313a20617070726f76652063616c6c6572206973206e6f7420746f60448201527f6b656e206f776e6572206f7220617070726f76656420666f7220616c6c000000606482015260840162000eac565b62000f71838362002a82565b505050565b62000f8062002af3565b62000f8a62002b3d565b600062000f978462002b93565b6040805160e0810182528981526001600160a01b038916602080830182905261ffff881683850152600091825260cd90529182208054939450909260608401929062000fe99063ffffffff1662004af5565b825463ffffffff9182166101009390930a838102920219161790915581526000602082015260400162001025670de0b6b3a76400008562004b31565b6fffffffffffffffffffffffffffffffff16815260200162001050670de0b6b3a76400008862004b31565b6fffffffffffffffffffffffffffffffff908116909152600083815260ce60209081526040918290208451815590840151600182018054938601516060870151608088015165ffffffffffff167a0100000000000000000000000000000000000000000000000000000279ffffffffffffffffffffffffffffffffffffffffffffffffffff63ffffffff909216760100000000000000000000000000000000000000000000029190911675ffffffffffffffffffffffffffffffffffffffffffff61ffff90931674010000000000000000000000000000000000000000027fffffffffffffffffffff000000000000000000000000000000000000000000009097166001600160a01b03909516949094179590951716919091179290921790915560a083015160c0909301518216700100000000000000000000000000000000029290911691909117600290910155620011ab868262002bcc565b60d2546040517f21670f220000000000000000000000000000000000000000000000000000000081526001600160a01b03888116600483015260248201889052909116906321670f2290604401600060405180830381600087803b1580156200121357600080fd5b505af115801562001228573d6000803e3d6000fd5b505050506200123986858762002be8565b80866001600160a01b0316887faf1bba31184b4d13e4f756b22fc2755d77b6ad147f10a7b12ea6afa58a2ca5f6878960405162001280929190918252602082015260400190565b60405180910390a450505050505050565b6000600f821015620012cf576040517fadefc67800000000000000000000000000000000000000000000000000000000815260040160405180910390fd5b6014821015620012fa57620012e6600f8362004b48565b62000d1290674563918244f4000062004b5e565b6200130c826509184e72a00062004b5e565b91506618ec9e919dbfaf60006509184e72a000620013328566039eb80975860062004b5e565b6200133e919062004b31565b905060006a52b7d2dcc80cd2e40000006200135b60028762004c75565b6200136d90652351aa192de062004b5e565b62001379919062004b31565b905060007002f050fe938943acc45f655680000000006200139c60038862004c75565b620013ad90643c0c4cb35862004b5e565b620013b9919062004b31565b90506000751aba4714957d300d0e549208b31adb10000000000000620013e160048962004c75565b620013f1906325e3219662004b5e565b620013fd919062004b31565b9050600082858362001410878a62004c86565b6200141c919062004c86565b62001428919062004b48565b62001434919062004b48565b90506200144d6200144782600d62002cd9565b62002d68565b6200146190670de0b6b3a764000062004b5e565b98975050505050505050565b6033546001600160a01b03163314620014c95760405162461bcd60e51b815260206004820152601d60248201527f536166654f776e61626c653a2063616c6c6572206e6f74206f776e6572000000604482015260640162000eac565b604051339082156108fc029083906000818181858888f19350505050158015620014f7573d6000803e3d6000fd5b5050565b62001507338262002da9565b6200157b5760405162461bcd60e51b815260206004820152602d60248201527f4552433732313a2063616c6c6572206973206e6f7420746f6b656e206f776e6560448201527f72206f7220617070726f76656400000000000000000000000000000000000000606482015260840162000eac565b62000f7183838362002e2f565b6033546001600160a01b03163314620015e45760405162461bcd60e51b815260206004820152601d60248201527f536166654f776e61626c653a2063616c6c6572206e6f74206f776e6572000000604482015260640162000eac565b60005b83811015620016cd57600160cc60008787858181106200160b576200160b62004c9c565b905060200201602081019062001622919062004664565b6001600160a01b031681526020810191909152604001600020805460ff19169115159190911790557fc648f6265408cc54c0dc26d24ba51dfc9f35ce1a63baa2228f65d93aaf11cc6785858381811062001680576200168062004c9c565b905060200201602081019062001697919062004664565b604080516001600160a01b039092168252600160208301520160405180910390a180620016c48162004cb2565b915050620015e7565b5060005b81811015620017ae5760cc6000848484818110620016f357620016f362004c9c565b90506020020160208101906200170a919062004664565b6001600160a01b031681526020810191909152604001600020805460ff191690557fc648f6265408cc54c0dc26d24ba51dfc9f35ce1a63baa2228f65d93aaf11cc6783838381811062001761576200176162004c9c565b905060200201602081019062001778919062004664565b604080516001600160a01b039092168252600060208301520160405180910390a180620017a58162004cb2565b915050620016d1565b5050505050565b6001600160a01b037f0000000000000000000000000000000000000000000000000000000000000000163003620018555760405162461bcd60e51b815260206004820152602c60248201527f46756e6374696f6e206d7573742062652063616c6c6564207468726f7567682060448201527f64656c656761746563616c6c0000000000000000000000000000000000000000606482015260840162000eac565b7f00000000000000000000000000000000000000000000000000000000000000006001600160a01b0316620018b17f360894a13ba1a3210667c828492db98dca3e2076cc3735a920a3ca505d382bbc546001600160a01b031690565b6001600160a01b0316146200192f5760405162461bcd60e51b815260206004820152602c60248201527f46756e6374696f6e206d7573742062652063616c6c6564207468726f7567682060448201527f6163746976652070726f78790000000000000000000000000000000000000000606482015260840162000eac565b6200193a8162003074565b604080516000808252602082019092526200195891839190620030d0565b50565b62000f718383836040518060200160405280600081525062002523565b6034546001600160a01b03163314620019d45760405162461bcd60e51b815260206004820152601e60248201527f536166654f776e61626c653a2063616c6c657220213d2070656e64696e670000604482015260640162000eac565b620019de6200327c565b565b6001600160a01b037f000000000000000000000000000000000000000000000000000000000000000016300362001a805760405162461bcd60e51b815260206004820152602c60248201527f46756e6374696f6e206d7573742062652063616c6c6564207468726f7567682060448201527f64656c656761746563616c6c0000000000000000000000000000000000000000606482015260840162000eac565b7f00000000000000000000000000000000000000000000000000000000000000006001600160a01b031662001adc7f360894a13ba1a3210667c828492db98dca3e2076cc3735a920a3ca505d382bbc546001600160a01b031690565b6001600160a01b03161462001b5a5760405162461bcd60e51b815260206004820152602c60248201527f46756e6374696f6e206d7573742062652063616c6c6564207468726f7567682060448201527f6163746976652070726f78790000000000000000000000000000000000000000606482015260840162000eac565b62001b658262003074565b620014f782826001620030d0565b6000306001600160a01b037f0000000000000000000000000000000000000000000000000000000000000000161462001c155760405162461bcd60e51b815260206004820152603860248201527f555550535570677261646561626c653a206d757374206e6f742062652063616c60448201527f6c6564207468726f7567682064656c656761746563616c6c0000000000000000606482015260840162000eac565b507f360894a13ba1a3210667c828492db98dca3e2076cc3735a920a3ca505d382bbc90565b62001c4462002af3565b62001c4e62002b3d565b72ffffffffffffffffffffffffffffffffffffff600883901c1660009081526101926020526040902054600160ff84161b161562001cb8576040517f3d96ceab00000000000000000000000000000000000000000000000000000000815260040160405180910390fd5b72ffffffffffffffffffffffffffffffffffffff600883901c166000908152610192602052604090208054600160ff85161b17905560cb546040517f40c10f190000000000000000000000000000000000000000000000000000000081526001600160a01b03848116600483015260248201849052909116906340c10f1990604401600060405180830381600087803b15801562001d5557600080fd5b505af115801562001d6a573d6000803e3d6000fd5b50505050816001600160a01b03167f7a0984e898d33e4bf6ad9f851bfab5517683d3dae5b57ed58fa8c7152d822e328260405162001daa91815260200190565b60405180910390a25050565b62001dc062002b3d565b62001dca620032e5565b62001dd58262003342565b62001de081620034aa565b620014f7600161015f55565b600081815261012f60205260408120546001600160a01b03168062000d125760405162461bcd60e51b815260206004820152601860248201527f4552433732313a20696e76616c696420746f6b656e2049440000000000000000604482015260640162000eac565b60006001600160a01b03821662001ed45760405162461bcd60e51b815260206004820152602960248201527f4552433732313a2061646472657373207a65726f206973206e6f74206120766160448201527f6c6964206f776e65720000000000000000000000000000000000000000000000606482015260840162000eac565b506001600160a01b03166000908152610130602052604090205490565b6033546001600160a01b0316331462001f4d5760405162461bcd60e51b815260206004820152601d60248201527f536166654f776e61626c653a2063616c6c6572206e6f74206f776e6572000000604482015260640162000eac565b620019de600062003531565b6033546001600160a01b0316331462001fb55760405162461bcd60e51b815260206004820152601d60248201527f536166654f776e61626c653a2063616c6c6572206e6f74206f776e6572000000604482015260640162000eac565b6033546001600160a01b031660cb546040516001600160a01b039091169062001fde90620043e4565b6001600160a01b03928316815291166020820152604001604051809103906000f08015801562002012573d6000803e3d6000fd5b5060d280546001600160a01b0319166001600160a01b0392909216919091179055565b600054610100900460ff1615808015620020565750600054600160ff909116105b80620020725750303b15801562002072575060005460ff166001145b620020e65760405162461bcd60e51b815260206004820152602e60248201527f496e697469616c697a61626c653a20636f6e747261637420697320616c72656160448201527f647920696e697469616c697a6564000000000000000000000000000000000000606482015260840162000eac565b6000805460ff1916600117905580156200210a576000805461ff0019166101001790555b60cb80546001600160a01b0319166001600160a01b03891617905560c98690556200213584620035a7565b6200214183836200361f565b6200214b62003698565b620021556200370f565b30876040516200216590620043e4565b6001600160a01b03928316815291166020820152604001604051809103906000f08015801562002199573d6000803e3d6000fd5b5060d280546001600160a01b0319166001600160a01b0392909216919091179055801562002201576000805461ff0019169055604051600181527f7f26b83ff96e1f2b6a682f133852f6798a09c465da95921460cefb38474024989060200160405180910390a15b50505050505050565b6200221462002b3d565b600082815260cf602052604081208054909183918391906200223890849062004b48565b909155505033600090815260d06020908152604080832086845290915281208054909184918391906200226d90849062004b48565b909155505060cb546040517fa9059cbb000000000000000000000000000000000000000000000000000000008152336004820152602481018590526001600160a01b039091169063a9059cbb906044016020604051808303816000875af1158015620022dd573d6000803e3d6000fd5b505050506040513d601f19601f8201168201806040525081019062002303919062004ccf565b50604051838152849033907f5c09e6483f1552208cf891fa28d135269484ad74a848ad491913fb4b386ffcf0906020015b60405180910390a350505050565b606061012e805462000d669062004aa3565b6200235e62002b3d565b62002368620032e5565b62002377858585858562003786565b620023828762003342565b6200238d86620034aa565b62002201600161015f55565b620014f733838362003830565b6033546001600160a01b03163314620024025760405162461bcd60e51b815260206004820152601d60248201527f536166654f776e61626c653a2063616c6c6572206e6f74206f776e6572000000604482015260640162000eac565b60ca8190556040518181527f55a73bd6abec226526cb26266e83ffadccf62ef31c9a3d8d54ac7179b906802f906020015b60405180910390a150565b6033546001600160a01b031633146200249a5760405162461bcd60e51b815260206004820152601d60248201527f536166654f776e61626c653a2063616c6c6572206e6f74206f776e6572000000604482015260640162000eac565b6001600160a01b038216620024f25760405162461bcd60e51b815260206004820152601b60248201527f536166654f776e61626c653a206e6577206f776e657220697320300000000000604482015260640162000eac565b80156200250457620014f78262003531565b603480546001600160a01b0319166001600160a01b0384161790555050565b6200252f338362002da9565b620025a35760405162461bcd60e51b815260206004820152602d60248201527f4552433732313a2063616c6c6572206973206e6f7420746f6b656e206f776e6560448201527f72206f7220617070726f76656400000000000000000000000000000000000000606482015260840162000eac565b620025b18484848462003901565b50505050565b6060620025c48262002a1b565b600062002766620025d462000d54565b6000858152610191602090815260408083205460ce90925291829020600181015460029091015492517fe2bdd4e700000000000000000000000000000000000000000000000000000000815260c060048083019190915260c48201527f736565640000000000000000000000000000000000000000000000000000000060e48201526024810192909252760100000000000000000000000000000000000000000000810463ffffffff16604483015274010000000000000000000000000000000000000000810461ffff1660648301526001600160a01b031660848201526fffffffffffffffffffffffffffffffff90911660a48201526200273e9073__$bd4a62aa904e40a751e4c3f6355b6291ee$__9063e2bdd4e79061010401600060405180830381865af41580156200270e573d6000803e3d6000fd5b505050506040513d6000823e601f3d908101601f1916820160405262002738919081019062004cef565b62003990565b6040516020016200275192919062004d66565b60405160208183030381529060405262003990565b9050806040516020016200277b919062004e61565b604051602081830303815290604052915050919050565b6001600160a01b03808416600090815260d1602052604081205490911690620027bd60058462004b31565b9050935093915050565b620027d162002b3d565b620027dc8262002a1b565b60cb546040517f23b872dd000000000000000000000000000000000000000000000000000000008152336004820152306024820152604481018390526001600160a01b03909116906323b872dd906064016020604051808303816000875af11580156200284d573d6000803e3d6000fd5b505050506040513d601f19601f8201168201806040525081019062002873919062004ccf565b50600082815260cf602052604081208054909183918391906200289890849062004c86565b909155505033600090815260d0602090815260408083208684529091528120805490918491839190620028cd90849062004c86565b9091555050604051838152849033907f58c7b3bf0b0e168048426c1e9443a72696526292ca664e18b11f934cd6cfbbf39060200162002334565b60006003821080620029195750600882115b1562002951576040517f802f637400000000000000000000000000000000000000000000000000000000815260040160405180910390fd5b6200295e60038362004b48565b6200296b90600c62004b5e565b60ca54901c610fff16670de0b6b3a764000062000d12919062004b5e565b6033546001600160a01b03163314620029e55760405162461bcd60e51b815260206004820152601d60248201527f536166654f776e61626c653a2063616c6c6572206e6f74206f776e6572000000604482015260640162000eac565b60c98190556040518181527fae0c05ecd507ea9cded837adb5c433fa5e8c24ef117806d7050ec4432a743f1d9060200162002433565b600081815261012f60205260409020546001600160a01b0316620019585760405162461bcd60e51b815260206004820152601860248201527f4552433732313a20696e76616c696420746f6b656e2049440000000000000000604482015260640162000eac565b60008181526101316020526040902080546001600160a01b0319166001600160a01b038416908117909155819062002aba8262001dec565b6001600160a01b03167f8c5be1e5ebec7d5bd14f71427d1e84f3dd0314c0f7b2291e5b200ac8c7c3b92560405160405180910390a45050565b33600090815260cc602052604090205460ff16620019de576040517fa1b035c800000000000000000000000000000000000000000000000000000000815260040160405180910390fd5b6101c35460ff1615620019de5760405162461bcd60e51b815260206004820152601060248201527f5061757361626c653a2070617573656400000000000000000000000000000000604482015260640162000eac565b60008161019160006101936000815462002bad9062004cb2565b9182905550815260208101919091526040016000205550506101935490565b620014f782826040518060200160405280600081525062003af5565b60008062002bf885858562002792565b90925090506001600160a01b03821615620017ae5760cb546040517f40c10f190000000000000000000000000000000000000000000000000000000081526001600160a01b03848116600483015260248201849052909116906340c10f1990604401600060405180830381600087803b15801562002c7557600080fd5b505af115801562002c8a573d6000803e3d6000fd5b50505050816001600160a01b03167f41f5e9b898013216884ce15d796265ca96be55c0d8d3abb77689fbf1e96bb7378260405162002cca91815260200190565b60405180910390a25050505050565b600062002ce882600a62004ea8565b62002cf583600a62004ea8565b62002d01908562004b31565b62002d0d919062004b5e565b62002d19908462004b48565b60000362002d425762002d2e82600a62004ea8565b62002d3a908462004b31565b905062000d12565b62002d4f82600a62004ea8565b62002d5b908462004b31565b62002d3a90600162004c86565b600062002d7760058362004eb6565b60000362002d83575090565b62002d9060058362004eb6565b62002d9d90600562004b48565b62000d12908362004c86565b60008062002db78362001dec565b9050806001600160a01b0316846001600160a01b0316148062002e0057506001600160a01b038082166000908152610132602090815260408083209388168352929052205460ff165b8062002e275750836001600160a01b031662002e1c8462000def565b6001600160a01b0316145b949350505050565b826001600160a01b031662002e448262001dec565b6001600160a01b03161462002ec25760405162461bcd60e51b815260206004820152602560248201527f4552433732313a207472616e736665722066726f6d20696e636f72726563742060448201527f6f776e6572000000000000000000000000000000000000000000000000000000606482015260840162000eac565b6001600160a01b03821662002f3f5760405162461bcd60e51b8152602060048201526024808201527f4552433732313a207472616e7366657220746f20746865207a65726f2061646460448201527f7265737300000000000000000000000000000000000000000000000000000000606482015260840162000eac565b62002f4e838383600162003b84565b826001600160a01b031662002f638262001dec565b6001600160a01b03161462002fe15760405162461bcd60e51b815260206004820152602560248201527f4552433732313a207472616e736665722066726f6d20696e636f72726563742060448201527f6f776e6572000000000000000000000000000000000000000000000000000000606482015260840162000eac565b60008181526101316020908152604080832080546001600160a01b03199081169091556001600160a01b03878116808652610130855283862080546000190190559087168086528386208054600101905586865261012f90945282852080549092168417909155905184937fddf252ad1be2c89b69c2b068fc378daa952ba7f163c4a11628f55a4df523b3ef91a4505050565b6033546001600160a01b03163314620019585760405162461bcd60e51b815260206004820152601d60248201527f536166654f776e61626c653a2063616c6c6572206e6f74206f776e6572000000604482015260640162000eac565b7f4910fdfa16fed3260ed0e7147f7cc6da11a60208b5b9406d12a635614ffd91435460ff1615620031065762000f718362003c15565b826001600160a01b03166352d1902d6040518163ffffffff1660e01b8152600401602060405180830381865afa92505050801562003163575060408051601f3d908101601f19168201909252620031609181019062004ecd565b60015b620031d75760405162461bcd60e51b815260206004820152602e60248201527f45524331393637557067726164653a206e657720696d706c656d656e7461746960448201527f6f6e206973206e6f742055555053000000000000000000000000000000000000606482015260840162000eac565b7f360894a13ba1a3210667c828492db98dca3e2076cc3735a920a3ca505d382bbc81146200326e5760405162461bcd60e51b815260206004820152602960248201527f45524331393637557067726164653a20756e737570706f727465642070726f7860448201527f6961626c65555549440000000000000000000000000000000000000000000000606482015260840162000eac565b5062000f7183838362003cd5565b6033546034546040516001600160a01b03928316929091169082907f8be0079c531659141344cd1fd0a4f28419497f9722a3daafe3b4186f6b6457e090600090a35060348054603380546001600160a01b03199081166001600160a01b03841617909155169055565b600261015f54036200333a5760405162461bcd60e51b815260206004820152601f60248201527f5265656e7472616e637947756172643a207265656e7472616e742063616c6c00604482015260640162000eac565b600261015f55565b60c9543410156200337f576040517f5945ea5600000000000000000000000000000000000000000000000000000000815260040160405180910390fd5b60c95433906108fc9062003394903462004b48565b6040518115909202916000818181858888f19350505050158015620033bd573d6000803e3d6000fd5b506000620033cf826020015162001291565b8251620033dc9062002907565b620033e8919062004c86565b60cb546040517f79cc6790000000000000000000000000000000000000000000000000000000008152336004820152602481018390529192506001600160a01b0316906379cc679090604401600060405180830381600087803b1580156200344f57600080fd5b505af115801562003464573d6000803e3d6000fd5b50505060208084015184516040518581529193509133917f617b1a2bf0533cea0c5dd46104e1d48f8b290fc7d7360dba0182dbf07a00e46a910160405180910390a45050565b33600090815260d160205260409020546001600160a01b0316620019585733600081815260d1602090815260409182902080546001600160a01b0319166001600160a01b0386169081179091558251938452908301527f677cd8c8ce12dc7827579d65be5e6efa74b6ac9ab04ac43d4648dc85d328c2ae910162002433565b600161015f55565b7fb53127684a568b3173ae13b9f8a6016e243e63b6e8ee1178d6a717850b5d6103819055603380546001600160a01b038084166001600160a01b0319831681179093556040519116919082907f8be0079c531659141344cd1fd0a4f28419497f9722a3daafe3b4186f6b6457e090600090a35050565b600054610100900460ff16620036145760405162461bcd60e51b815260206004820152602b60248201527f496e697469616c697a61626c653a20636f6e7472616374206973206e6f74206960448201526a6e697469616c697a696e6760a81b606482015260840162000eac565b620019588162003d00565b600054610100900460ff166200368c5760405162461bcd60e51b815260206004820152602b60248201527f496e697469616c697a61626c653a20636f6e7472616374206973206e6f74206960448201526a6e697469616c697a696e6760a81b606482015260840162000eac565b620014f7828262003d78565b600054610100900460ff16620037055760405162461bcd60e51b815260206004820152602b60248201527f496e697469616c697a61626c653a20636f6e7472616374206973206e6f74206960448201526a6e697469616c697a696e6760a81b606482015260840162000eac565b620019de62003e04565b600054610100900460ff166200377c5760405162461bcd60e51b815260206004820152602b60248201527f496e697469616c697a61626c653a20636f6e7472616374206973206e6f74206960448201526a6e697469616c697a696e6760a81b606482015260840162000eac565b620019de62003e71565b60cb546040517fd505accf000000000000000000000000000000000000000000000000000000008152336004820152306024820152604481018790526064810186905260ff8316608482015260a4810185905260c481018490526001600160a01b039091169063d505accf9060e401600060405180830381600087803b1580156200381057600080fd5b505af115801562003825573d6000803e3d6000fd5b505050505050505050565b816001600160a01b0316836001600160a01b031603620038935760405162461bcd60e51b815260206004820152601960248201527f4552433732313a20617070726f766520746f2063616c6c657200000000000000604482015260640162000eac565b6001600160a01b0383811660008181526101326020908152604080832094871680845294825291829020805460ff191686151590811790915591519182527f17307eab39ab6107e8899845ad3d59bd9653f200f220920489ca2b5937696c31910160405180910390a3505050565b6200390e84848462002e2f565b6200391c8484848462003eeb565b620025b15760405162461bcd60e51b815260206004820152603260248201527f4552433732313a207472616e7366657220746f206e6f6e20455243373231526560448201527f63656976657220696d706c656d656e7465720000000000000000000000000000606482015260840162000eac565b60608151600003620039b057505060408051602081019091526000815290565b600060405180606001604052806040815260200162005a746040913990506000600384516002620039e2919062004c86565b620039ee919062004b31565b620039fb90600462004b5e565b67ffffffffffffffff81111562003a165762003a1662004684565b6040519080825280601f01601f19166020018201604052801562003a41576020820181803683370190505b509050600182016020820185865187015b8082101562003aaf576003820191508151603f8160121c168501518453600184019350603f81600c1c168501518453600184019350603f8160061c168501518453600184019350603f811685015184535060018301925062003a52565b505060038651066001811462003ace576002811462003ae25762003aea565b603d6001830353603d600283035362003aea565b603d60018303535b509195945050505050565b62003b01838362004098565b62003b10600084848462003eeb565b62000f715760405162461bcd60e51b815260206004820152603260248201527f4552433732313a207472616e7366657220746f206e6f6e20455243373231526560448201527f63656976657220696d706c656d656e7465720000000000000000000000000000606482015260840162000eac565b6001811115620025b1576001600160a01b0384161562003bcf576001600160a01b038416600090815261013060205260408120805483929062003bc990849062004b48565b90915550505b6001600160a01b03831615620025b1576001600160a01b038316600090815261013060205260408120805483929062003c0a90849062004c86565b909155505050505050565b6001600160a01b0381163b62003c945760405162461bcd60e51b815260206004820152602d60248201527f455243313936373a206e657720696d706c656d656e746174696f6e206973206e60448201527f6f74206120636f6e747261637400000000000000000000000000000000000000606482015260840162000eac565b7f360894a13ba1a3210667c828492db98dca3e2076cc3735a920a3ca505d382bbc80546001600160a01b0319166001600160a01b0392909216919091179055565b62003ce0836200423d565b60008251118062003cee5750805b1562000f7157620025b183836200427f565b600054610100900460ff1662003d6d5760405162461bcd60e51b815260206004820152602b60248201527f496e697469616c697a61626c653a20636f6e7472616374206973206e6f74206960448201526a6e697469616c697a696e6760a81b606482015260840162000eac565b620019588162003531565b600054610100900460ff1662003de55760405162461bcd60e51b815260206004820152602b60248201527f496e697469616c697a61626c653a20636f6e7472616374206973206e6f74206960448201526a6e697469616c697a696e6760a81b606482015260840162000eac565b61012d62003df4838262004f39565b5061012e62000f71828262004f39565b600054610100900460ff16620035295760405162461bcd60e51b815260206004820152602b60248201527f496e697469616c697a61626c653a20636f6e7472616374206973206e6f74206960448201526a6e697469616c697a696e6760a81b606482015260840162000eac565b600054610100900460ff1662003ede5760405162461bcd60e51b815260206004820152602b60248201527f496e697469616c697a61626c653a20636f6e7472616374206973206e6f74206960448201526a6e697469616c697a696e6760a81b606482015260840162000eac565b6101c3805460ff19169055565b60006001600160a01b0384163b156200408d576040517f150b7a020000000000000000000000000000000000000000000000000000000081526001600160a01b0385169063150b7a029062003f4b90339089908890889060040162005006565b6020604051808303816000875af192505050801562003f89575060408051601f3d908101601f1916820190925262003f869181019062005044565b60015b62004041573d80801562003fba576040519150601f19603f3d011682016040523d82523d6000602084013e62003fbf565b606091505b508051600003620040395760405162461bcd60e51b815260206004820152603260248201527f4552433732313a207472616e7366657220746f206e6f6e20455243373231526560448201527f63656976657220696d706c656d656e7465720000000000000000000000000000606482015260840162000eac565b805181602001fd5b7fffffffff00000000000000000000000000000000000000000000000000000000167f150b7a020000000000000000000000000000000000000000000000000000000014905062002e27565b506001949350505050565b6001600160a01b038216620040f05760405162461bcd60e51b815260206004820181905260248201527f4552433732313a206d696e7420746f20746865207a65726f2061646472657373604482015260640162000eac565b600081815261012f60205260409020546001600160a01b031615620041585760405162461bcd60e51b815260206004820152601c60248201527f4552433732313a20746f6b656e20616c7265616479206d696e74656400000000604482015260640162000eac565b6200416860008383600162003b84565b600081815261012f60205260409020546001600160a01b031615620041d05760405162461bcd60e51b815260206004820152601c60248201527f4552433732313a20746f6b656e20616c7265616479206d696e74656400000000604482015260640162000eac565b6001600160a01b0382166000818152610130602090815260408083208054600101905584835261012f90915280822080546001600160a01b0319168417905551839291907fddf252ad1be2c89b69c2b068fc378daa952ba7f163c4a11628f55a4df523b3ef908290a45050565b620042488162003c15565b6040516001600160a01b038216907fbc7cd75a20ee27fd9adebab32041f755214dbc6bffa90cc0225b39da2e5c2d3b90600090a250565b60606001600160a01b0383163b620043005760405162461bcd60e51b815260206004820152602660248201527f416464726573733a2064656c65676174652063616c6c20746f206e6f6e2d636f60448201527f6e74726163740000000000000000000000000000000000000000000000000000606482015260840162000eac565b600080846001600160a01b0316846040516200431d919062005064565b600060405180830381855af49150503d80600081146200435a576040519150601f19603f3d011682016040523d82523d6000602084013e6200435f565b606091505b50915091506200438a828260405180606001604052806027815260200162005ab46027913962004393565b95945050505050565b60608315620043a4575081620043b0565b620043b08383620043b7565b9392505050565b815115620043c85781518083602001fd5b8060405162461bcd60e51b815260040162000eac9190620044af565b6109f1806200508383390190565b7fffffffff00000000000000000000000000000000000000000000000000000000811681146200195857600080fd5b6000602082840312156200443457600080fd5b8135620043b081620043f2565b6000602082840312156200445457600080fd5b5035919050565b60005b83811015620044785781810151838201526020016200445e565b50506000910152565b600081518084526200449b8160208601602086016200445b565b601f01601f19169290920160200192915050565b602081526000620043b0602083018462004481565b6001600160a01b03811681146200195857600080fd5b60008060408385031215620044ee57600080fd5b8235620044fb81620044c4565b946020939093013593505050565b60008060008060008060c087890312156200452357600080fd5b8635955060208701356200453781620044c4565b95989597505050506040840135936060810135936080820135935060a0909101359150565b6000806000606084860312156200457257600080fd5b83356200457f81620044c4565b925060208401356200459181620044c4565b929592945050506040919091013590565b60008083601f840112620045b557600080fd5b50813567ffffffffffffffff811115620045ce57600080fd5b6020830191508360208260051b8501011115620045ea57600080fd5b9250929050565b600080600080604085870312156200460857600080fd5b843567ffffffffffffffff808211156200462157600080fd5b6200462f88838901620045a2565b909650945060208701359150808211156200464957600080fd5b506200465887828801620045a2565b95989497509550505050565b6000602082840312156200467757600080fd5b8135620043b081620044c4565b634e487b7160e01b600052604160045260246000fd5b604051601f8201601f1916810167ffffffffffffffff81118282101715620046c657620046c662004684565b604052919050565b600067ffffffffffffffff821115620046eb57620046eb62004684565b50601f01601f191660200190565b600082601f8301126200470b57600080fd5b8135620047226200471c82620046ce565b6200469a565b8181528460208386010111156200473857600080fd5b816020850160208301376000918101602001919091529392505050565b600080604083850312156200476957600080fd5b82356200477681620044c4565b9150602083013567ffffffffffffffff8111156200479357600080fd5b620047a185828601620046f9565b9150509250929050565b600060408284031215620047be57600080fd5b6040516040810181811067ffffffffffffffff82111715620047e457620047e462004684565b604052823581526020928301359281019290925250919050565b600080606083850312156200481257600080fd5b6200481e8484620047ab565b915060408301356200483081620044c4565b809150509250929050565b60008060008060008060c087890312156200485557600080fd5b86356200486281620044c4565b9550602087013594506040870135935060608701356200488281620044c4565b9250608087013567ffffffffffffffff80821115620048a057600080fd5b620048ae8a838b01620046f9565b935060a0890135915080821115620048c557600080fd5b50620048d489828a01620046f9565b9150509295509295509295565b60008060408385031215620048f557600080fd5b50508035926020909101359150565b6000806000806000806000610100888a0312156200492157600080fd5b6200492d8989620047ab565b965060408801356200493f81620044c4565b9550606088013594506080880135935060a0880135925060c0880135915060e088013560ff811681146200497257600080fd5b8091505092959891949750929550565b80151581146200195857600080fd5b60008060408385031215620049a557600080fd5b8235620049b281620044c4565b91506020830135620048308162004982565b60008060008060808587031215620049db57600080fd5b8435620049e881620044c4565b93506020850135620049fa81620044c4565b925060408501359150606085013567ffffffffffffffff81111562004a1e57600080fd5b62004a2c87828801620046f9565b91505092959194509250565b60008060006060848603121562004a4e57600080fd5b833562004a5b81620044c4565b95602085013595506040909401359392505050565b6000806040838503121562004a8457600080fd5b823562004a9181620044c4565b915060208301356200483081620044c4565b600181811c9082168062004ab857607f821691505b60208210810362004ad957634e487b7160e01b600052602260045260246000fd5b50919050565b634e487b7160e01b600052601160045260246000fd5b600063ffffffff80831681810362004b115762004b1162004adf565b6001019392505050565b634e487b7160e01b600052601260045260246000fd5b60008262004b435762004b4362004b1b565b500490565b8181038181111562000d125762000d1262004adf565b808202811582820484141762000d125762000d1262004adf565b600181815b8085111562004bb957816000190482111562004b9d5762004b9d62004adf565b8085161562004bab57918102915b93841c939080029062004b7d565b509250929050565b60008262004bd25750600162000d12565b8162004be15750600062000d12565b816001811462004bfa576002811462004c055762004c25565b600191505062000d12565b60ff84111562004c195762004c1962004adf565b50506001821b62000d12565b5060208310610133831016604e8410600b841016171562004c4a575081810a62000d12565b62004c56838362004b78565b806000190482111562004c6d5762004c6d62004adf565b029392505050565b6000620043b060ff84168362004bc1565b8082018082111562000d125762000d1262004adf565b634e487b7160e01b600052603260045260246000fd5b6000600019820362004cc85762004cc862004adf565b5060010190565b60006020828403121562004ce257600080fd5b8151620043b08162004982565b60006020828403121562004d0257600080fd5b815167ffffffffffffffff81111562004d1a57600080fd5b8201601f8101841362004d2c57600080fd5b805162004d3d6200471c82620046ce565b81815285602083850101111562004d5357600080fd5b6200438a8260208301602086016200445b565b7f7b226e616d65223a20220000000000000000000000000000000000000000000081526000835162004da081600a8501602088016200445b565b7f222c226465736372697074696f6e223a22000000000000000000000000000000600a918401918201527f222c22696d616765223a22000000000000000000000000000000000000000000601b8201527f646174613a696d6167652f7376672b786d6c3b6261736536342c0000000000006026820152835162004e2b8160408401602088016200445b565b7f227d00000000000000000000000000000000000000000000000000000000000060409290910191820152604201949350505050565b7f646174613a6170706c69636174696f6e2f6a736f6e3b6261736536342c00000081526000825162004e9b81601d8501602087016200445b565b91909101601d0192915050565b6000620043b0838362004bc1565b60008262004ec85762004ec862004b1b565b500690565b60006020828403121562004ee057600080fd5b5051919050565b601f82111562000f7157600081815260208120601f850160051c8101602086101562004f105750805b601f850160051c820191505b8181101562004f315782815560010162004f1c565b505050505050565b815167ffffffffffffffff81111562004f565762004f5662004684565b62004f6e8162004f67845462004aa3565b8462004ee7565b602080601f83116001811462004fa6576000841562004f8d5750858301515b600019600386901b1c1916600185901b17855562004f31565b600085815260208120601f198616915b8281101562004fd75788860151825594840194600190910190840162004fb6565b508582101562004ff65787850151600019600388901b60f8161c191681555b5050505050600190811b01905550565b60006001600160a01b038087168352808616602084015250836040830152608060608301526200503a608083018462004481565b9695505050505050565b6000602082840312156200505757600080fd5b8151620043b081620043f2565b60008251620050788184602087016200445b565b919091019291505056fe608060405234801561001057600080fd5b506040516109f13803806109f183398101604081905261002f916100fa565b6100383361008e565b6001600160a01b03811661005f57604051630ae8f22360e21b815260040160405180910390fd5b6100688261008e565b600180546001600160a01b0319166001600160a01b03929092169190911790555061012d565b600080546001600160a01b038381166001600160a01b0319831681178455604051919092169283917f8be0079c531659141344cd1fd0a4f28419497f9722a3daafe3b4186f6b6457e09190a35050565b80516001600160a01b03811681146100f557600080fd5b919050565b6000806040838503121561010d57600080fd5b610116836100de565b9150610124602084016100de565b90509250929050565b6108b58061013c6000396000f3fe608060405234801561001057600080fd5b50600436106100725760003560e01c80638da5cb5b116100505780638da5cb5b146100c3578063a1c04f0e146100d4578063f2fde38b146100e757600080fd5b806316a065c61461007757806321670f22146100a6578063715018a6146100bb575b600080fd5b60015461008a906001600160a01b031681565b6040516001600160a01b03909116815260200160405180910390f35b6100b96100b4366004610767565b6100fa565b005b6100b961011d565b6000546001600160a01b031661008a565b6100b96100e2366004610791565b610131565b6100b96100f5366004610791565b6102e3565b610102610378565b600154610119906001600160a01b031683836103d2565b5050565b610125610378565b61012f6000610457565b565b610139610378565b6001600160a01b038116610179576040517f2ba3c88c00000000000000000000000000000000000000000000000000000000815260040160405180910390fd5b6001546040517f70a082310000000000000000000000000000000000000000000000000000000081523060048201526102179183916001600160a01b03909116906370a0823190602401602060405180830381865afa1580156101e0573d6000803e3d6000fd5b505050506040513d601f19601f8201168201806040525081019061020491906107b3565b6001546001600160a01b031691906103d2565b6001546040517f70a082310000000000000000000000000000000000000000000000000000000081523060048201527ff58b081c2d077b17c9ef90e17090bd89e8b8b98933872e29c9352269eda3823f916001600160a01b03169081906370a0823190602401602060405180830381865afa15801561029a573d6000803e3d6000fd5b505050506040513d601f19601f820116820180604052508101906102be91906107b3565b604080516001600160a01b03909316835260208301919091520160405180910390a150565b6102eb610378565b6001600160a01b03811661036c5760405162461bcd60e51b815260206004820152602660248201527f4f776e61626c653a206e6577206f776e657220697320746865207a65726f206160448201527f646472657373000000000000000000000000000000000000000000000000000060648201526084015b60405180910390fd5b61037581610457565b50565b6000546001600160a01b0316331461012f5760405162461bcd60e51b815260206004820181905260248201527f4f776e61626c653a2063616c6c6572206973206e6f7420746865206f776e65726044820152606401610363565b604080516001600160a01b038416602482015260448082018490528251808303909101815260649091019091526020810180517bffffffffffffffffffffffffffffffffffffffffffffffffffffffff167fa9059cbb000000000000000000000000000000000000000000000000000000001790526104529084906104bf565b505050565b600080546001600160a01b038381167fffffffffffffffffffffffff0000000000000000000000000000000000000000831681178455604051919092169283917f8be0079c531659141344cd1fd0a4f28419497f9722a3daafe3b4186f6b6457e09190a35050565b6000610514826040518060400160405280602081526020017f5361666545524332303a206c6f772d6c6576656c2063616c6c206661696c6564815250856001600160a01b03166105a49092919063ffffffff16565b805190915015610452578080602001905181019061053291906107cc565b6104525760405162461bcd60e51b815260206004820152602a60248201527f5361666545524332303a204552433230206f7065726174696f6e20646964206e60448201527f6f742073756363656564000000000000000000000000000000000000000000006064820152608401610363565b60606105b384846000856105bb565b949350505050565b6060824710156106335760405162461bcd60e51b815260206004820152602660248201527f416464726573733a20696e73756666696369656e742062616c616e636520666f60448201527f722063616c6c00000000000000000000000000000000000000000000000000006064820152608401610363565b600080866001600160a01b0316858760405161064f9190610812565b60006040518083038185875af1925050503d806000811461068c576040519150601f19603f3d011682016040523d82523d6000602084013e610691565b606091505b50915091506106a2878383876106ad565b979650505050505050565b6060831561071c578251600003610715576001600160a01b0385163b6107155760405162461bcd60e51b815260206004820152601d60248201527f416464726573733a2063616c6c20746f206e6f6e2d636f6e74726163740000006044820152606401610363565b50816105b3565b6105b383838151156107315781518083602001fd5b8060405162461bcd60e51b8152600401610363919061082e565b80356001600160a01b038116811461076257600080fd5b919050565b6000806040838503121561077a57600080fd5b6107838361074b565b946020939093013593505050565b6000602082840312156107a357600080fd5b6107ac8261074b565b9392505050565b6000602082840312156107c557600080fd5b5051919050565b6000602082840312156107de57600080fd5b815180151581146107ac57600080fd5b60005b838110156108095781810151838201526020016107f1565b50506000910152565b600082516108248184602087016107ee565b9190910192915050565b602081526000825180602084015261084d8160408501602087016107ee565b601f017fffffffffffffffffffffffffffffffffffffffffffffffffffffffffffffffe016919091016040019291505056fea26469706673582212202264ef6f8260e159e7033f416a94b794e101b857d04c965b618cb83ef3a8d64164736f6c634300081100334142434445464748494a4b4c4d4e4f505152535455565758595a6162636465666768696a6b6c6d6e6f707172737475767778797a303132333435363738392b2f416464726573733a206c6f772d6c6576656c2064656c65676174652063616c6c206661696c6564a2646970667358221220e624dcbf5660d1fc88c068221419cef12ee88105b5c5c4086028bd552fcff00f64736f6c63430008110033",
  "libraries": {
    "RenderEngine": "0x2C3b100060d1Ca406Ac1bCFBf936E088457D9641"
  },
  "devdoc": {
    "kind": "dev",
    "methods": {
      "approve(address,uint256)": {
        "details": "See {IERC721-approve}."
      },
      "balanceOf(address)": {
        "details": "See {IERC721-balanceOf}."
      },
      "baptise(address,uint256)": {
        "details": "baptise"
      },
      "calculateReferReward(address,uint256,uint256)": {
        "details": "returns refereral and refer reward",
        "params": {
          "amount": "reward to the referee, ERC20 amount",
          "referee": "referee address",
          "score": "referee degen life score"
        }
      },
      "claimOwnership()": {
        "details": "pending owner call this function to claim ownership"
      },
      "dry(uint256,uint256)": {
        "details": "degen get $REBORN back"
      },
      "engrave(bytes32,address,uint256,uint256,uint256,uint256)": {
        "details": "engrave the result on chain and reward",
        "params": {
          "seed": "uuid seed string without \"-\"  in bytes32"
        }
      },
      "getApproved(uint256)": {
        "details": "See {IERC721-getApproved}."
      },
      "getPool(uint256)": {
        "details": "read pool attribute"
      },
      "incarnate((uint256,uint256),address,uint256,uint256,bytes32,bytes32,uint8)": {
        "details": "incarnate"
      },
      "infuse(uint256,uint256)": {
        "details": "degen infuse $REBORN to tombstoneexpect for bliss"
      },
      "isApprovedForAll(address,address)": {
        "details": "See {IERC721-isApprovedForAll}."
      },
      "name()": {
        "details": "See {IERC721Metadata-name}."
      },
      "owner()": {
        "details": "Returns the address of the current owner."
      },
      "ownerOf(uint256)": {
        "details": "See {IERC721-ownerOf}."
      },
      "paused()": {
        "details": "Returns true if the contract is paused, and false otherwise."
      },
      "pendingOwner()": {
        "details": "Return the address of the pending owner"
      },
      "propertyPrice(uint256)": {
        "details": "calculate properties price in $REBORN for each properties"
      },
      "proxiableUUID()": {
        "details": "Implementation of the ERC1822 {proxiableUUID} function. This returns the storage slot used by the implementation. It is used to validate the implementation's compatibility when performing an upgrade. IMPORTANT: A proxy pointing at a proxiable contract should not be considered proxiable itself, because this risks bricking a proxy that upgrades to it, by delegating to itself until out of gas. Thus it is critical that this function revert if invoked through a proxy. This is guaranteed by the `notDelegated` modifier."
      },
      "renounceOwnership()": {
        "details": "Leaves the contract without owner. It will not be possible to call `onlyOwner` functions anymore. Can only be called by the current owner. NOTE: Renouncing ownership will leave the contract without an owner, thereby removing any functionality that is only available to the owner."
      },
      "safeTransferFrom(address,address,uint256)": {
        "details": "See {IERC721-safeTransferFrom}."
      },
      "safeTransferFrom(address,address,uint256,bytes)": {
        "details": "See {IERC721-safeTransferFrom}."
      },
      "setApprovalForAll(address,bool)": {
        "details": "See {IERC721-setApprovalForAll}."
      },
      "setSoupPrice(uint256)": {
        "details": "set soup price"
      },
      "setTalentPrice(uint256)": {
        "details": "set other price"
      },
      "supportsInterface(bytes4)": {
        "details": "See {IERC165-supportsInterface}."
      },
      "symbol()": {
        "details": "See {IERC721Metadata-symbol}."
      },
      "talentPrice(uint256)": {
        "details": "calculate talent price in $REBORN for specific talent point              0example 0x00000000000000000000000000000000000000000000004b02bc21c12c0a0000"
      },
      "tokenURI(uint256)": {
        "details": "See {IERC721Metadata-tokenURI}."
      },
      "transferFrom(address,address,uint256)": {
        "details": "See {IERC721-transferFrom}."
      },
      "transferOwnership(address,bool)": {
        "details": "Transfers ownership of the contract to a new account (`newOwner`). Can only be called by the current owner. Note If direct is false, it will set an pending owner and the OwnerShipTransferring only happens when the pending owner claim the ownership"
      },
      "updateSigners(address[],address[])": {
        "details": "update signer"
      },
      "upgradeTo(address)": {
        "details": "Upgrade the implementation of the proxy to `newImplementation`. Calls {_authorizeUpgrade}. Emits an {Upgraded} event."
      },
      "upgradeToAndCall(address,bytes)": {
        "details": "Upgrade the implementation of the proxy to `newImplementation`, and subsequently execute the function call encoded in `data`. Calls {_authorizeUpgrade}. Emits an {Upgraded} event."
      },
      "withdrawNativeToken(uint256)": {
        "details": "withdraw native token for reward distribution"
      }
    },
    "version": 1
  },
  "userdoc": {
    "kind": "user",
    "methods": {
      "incarnate((uint256,uint256),address)": {
        "notice": "init enter and buy "
      },
      "soupPrice()": {
        "notice": "you need buy a soup before reborn "
      }
    },
    "version": 1
  },
  "storageLayout": {
    "storage": [
      {
        "astId": 395,
        "contract": "src/RebornPortal.sol:RebornPortal",
        "label": "_initialized",
        "offset": 0,
        "slot": "0",
        "type": "t_uint8"
      },
      {
        "astId": 398,
        "contract": "src/RebornPortal.sol:RebornPortal",
        "label": "_initializing",
        "offset": 1,
        "slot": "0",
        "type": "t_bool"
      },
      {
        "astId": 3723,
        "contract": "src/RebornPortal.sol:RebornPortal",
        "label": "__gap",
        "offset": 0,
        "slot": "1",
        "type": "t_array(t_uint256)50_storage"
      },
      {
        "astId": 7564,
        "contract": "src/RebornPortal.sol:RebornPortal",
        "label": "_owner",
        "offset": 0,
        "slot": "51",
        "type": "t_address"
      },
      {
        "astId": 7566,
        "contract": "src/RebornPortal.sol:RebornPortal",
        "label": "_pendingOwner",
        "offset": 0,
        "slot": "52",
        "type": "t_address"
      },
      {
        "astId": 7754,
        "contract": "src/RebornPortal.sol:RebornPortal",
        "label": "__gap",
        "offset": 0,
        "slot": "53",
        "type": "t_array(t_uint256)48_storage"
      },
      {
        "astId": 377,
        "contract": "src/RebornPortal.sol:RebornPortal",
        "label": "__gap",
        "offset": 0,
        "slot": "101",
        "type": "t_array(t_uint256)50_storage"
      },
      {
        "astId": 692,
        "contract": "src/RebornPortal.sol:RebornPortal",
        "label": "__gap",
        "offset": 0,
        "slot": "151",
        "type": "t_array(t_uint256)50_storage"
      },
      {
        "astId": 9134,
        "contract": "src/RebornPortal.sol:RebornPortal",
        "label": "soupPrice",
        "offset": 0,
        "slot": "201",
        "type": "t_uint256"
      },
      {
        "astId": 9138,
        "contract": "src/RebornPortal.sol:RebornPortal",
        "label": "_talentPrice",
        "offset": 0,
        "slot": "202",
        "type": "t_uint256"
      },
      {
        "astId": 9141,
        "contract": "src/RebornPortal.sol:RebornPortal",
        "label": "rebornToken",
        "offset": 0,
        "slot": "203",
        "type": "t_contract(RBT)7957"
      },
      {
        "astId": 9145,
        "contract": "src/RebornPortal.sol:RebornPortal",
        "label": "signers",
        "offset": 0,
        "slot": "204",
        "type": "t_mapping(t_address,t_bool)"
      },
      {
        "astId": 9149,
        "contract": "src/RebornPortal.sol:RebornPortal",
        "label": "rounds",
        "offset": 0,
        "slot": "205",
        "type": "t_mapping(t_address,t_uint32)"
      },
      {
        "astId": 9154,
        "contract": "src/RebornPortal.sol:RebornPortal",
        "label": "details",
        "offset": 0,
        "slot": "206",
        "type": "t_mapping(t_uint256,t_struct(LifeDetail)9314_storage)"
      },
      {
        "astId": 9159,
        "contract": "src/RebornPortal.sol:RebornPortal",
        "label": "pools",
        "offset": 0,
        "slot": "207",
        "type": "t_mapping(t_uint256,t_struct(Pool)9317_storage)"
      },
      {
        "astId": 9166,
        "contract": "src/RebornPortal.sol:RebornPortal",
        "label": "portfolios",
        "offset": 0,
        "slot": "208",
        "type": "t_mapping(t_address,t_mapping(t_uint256,t_struct(Portfolio)9320_storage))"
      },
      {
        "astId": 9170,
        "contract": "src/RebornPortal.sol:RebornPortal",
        "label": "referrals",
        "offset": 0,
        "slot": "209",
        "type": "t_mapping(t_address,t_address)"
      },
      {
        "astId": 9173,
        "contract": "src/RebornPortal.sol:RebornPortal",
        "label": "vault",
        "offset": 0,
        "slot": "210",
        "type": "t_contract(RewardVault)9292"
      },
      {
        "astId": 9178,
        "contract": "src/RebornPortal.sol:RebornPortal",
        "label": "_gap",
        "offset": 0,
        "slot": "211",
        "type": "t_array(t_uint256)40_storage"
      },
      {
        "astId": 4587,
        "contract": "src/RebornPortal.sol:RebornPortal",
        "label": "__gap",
        "offset": 0,
        "slot": "251",
        "type": "t_array(t_uint256)50_storage"
      },
      {
        "astId": 2296,
        "contract": "src/RebornPortal.sol:RebornPortal",
        "label": "_name",
        "offset": 0,
        "slot": "301",
        "type": "t_string_storage"
      },
      {
        "astId": 2298,
        "contract": "src/RebornPortal.sol:RebornPortal",
        "label": "_symbol",
        "offset": 0,
        "slot": "302",
        "type": "t_string_storage"
      },
      {
        "astId": 2302,
        "contract": "src/RebornPortal.sol:RebornPortal",
        "label": "_owners",
        "offset": 0,
        "slot": "303",
        "type": "t_mapping(t_uint256,t_address)"
      },
      {
        "astId": 2306,
        "contract": "src/RebornPortal.sol:RebornPortal",
        "label": "_balances",
        "offset": 0,
        "slot": "304",
        "type": "t_mapping(t_address,t_uint256)"
      },
      {
        "astId": 2310,
        "contract": "src/RebornPortal.sol:RebornPortal",
        "label": "_tokenApprovals",
        "offset": 0,
        "slot": "305",
        "type": "t_mapping(t_uint256,t_address)"
      },
      {
        "astId": 2316,
        "contract": "src/RebornPortal.sol:RebornPortal",
        "label": "_operatorApprovals",
        "offset": 0,
        "slot": "306",
        "type": "t_mapping(t_address,t_mapping(t_address,t_bool))"
      },
      {
        "astId": 3236,
        "contract": "src/RebornPortal.sol:RebornPortal",
        "label": "__gap",
        "offset": 0,
        "slot": "307",
        "type": "t_array(t_uint256)44_storage"
      },
      {
        "astId": 834,
        "contract": "src/RebornPortal.sol:RebornPortal",
        "label": "_status",
        "offset": 0,
        "slot": "351",
        "type": "t_uint256"
      },
      {
        "astId": 892,
        "contract": "src/RebornPortal.sol:RebornPortal",
        "label": "__gap",
        "offset": 0,
        "slot": "352",
        "type": "t_array(t_uint256)49_storage"
      },
      {
        "astId": 9089,
        "contract": "src/RebornPortal.sol:RebornPortal",
        "label": "scores",
        "offset": 0,
        "slot": "401",
        "type": "t_mapping(t_uint256,t_uint256)"
      },
      {
        "astId": 9092,
        "contract": "src/RebornPortal.sol:RebornPortal",
        "label": "baptism",
        "offset": 0,
        "slot": "402",
        "type": "t_struct(BitMap)5473_storage"
      },
      {
        "astId": 9094,
        "contract": "src/RebornPortal.sol:RebornPortal",
        "label": "idx",
        "offset": 0,
        "slot": "403",
        "type": "t_uint256"
      },
      {
        "astId": 9096,
        "contract": "src/RebornPortal.sol:RebornPortal",
        "label": "minScoreInRank",
        "offset": 0,
        "slot": "404",
        "type": "t_uint256"
      },
      {
        "astId": 9100,
        "contract": "src/RebornPortal.sol:RebornPortal",
        "label": "_gap",
        "offset": 0,
        "slot": "405",
        "type": "t_array(t_uint256)46_storage"
      },
      {
        "astId": 714,
        "contract": "src/RebornPortal.sol:RebornPortal",
        "label": "_paused",
        "offset": 0,
        "slot": "451",
        "type": "t_bool"
      },
      {
        "astId": 819,
        "contract": "src/RebornPortal.sol:RebornPortal",
        "label": "__gap",
        "offset": 0,
        "slot": "452",
        "type": "t_array(t_uint256)49_storage"
      }
    ],
    "types": {
      "t_address": {
        "encoding": "inplace",
        "label": "address",
        "numberOfBytes": "20"
      },
      "t_array(t_uint256)40_storage": {
        "base": "t_uint256",
        "encoding": "inplace",
        "label": "uint256[40]",
        "numberOfBytes": "1280"
      },
      "t_array(t_uint256)44_storage": {
        "base": "t_uint256",
        "encoding": "inplace",
        "label": "uint256[44]",
        "numberOfBytes": "1408"
      },
      "t_array(t_uint256)46_storage": {
        "base": "t_uint256",
        "encoding": "inplace",
        "label": "uint256[46]",
        "numberOfBytes": "1472"
      },
      "t_array(t_uint256)48_storage": {
        "base": "t_uint256",
        "encoding": "inplace",
        "label": "uint256[48]",
        "numberOfBytes": "1536"
      },
      "t_array(t_uint256)49_storage": {
        "base": "t_uint256",
        "encoding": "inplace",
        "label": "uint256[49]",
        "numberOfBytes": "1568"
      },
      "t_array(t_uint256)50_storage": {
        "base": "t_uint256",
        "encoding": "inplace",
        "label": "uint256[50]",
        "numberOfBytes": "1600"
      },
      "t_bool": {
        "encoding": "inplace",
        "label": "bool",
        "numberOfBytes": "1"
      },
      "t_bytes32": {
        "encoding": "inplace",
        "label": "bytes32",
        "numberOfBytes": "32"
      },
      "t_contract(RBT)7957": {
        "encoding": "inplace",
        "label": "contract RBT",
        "numberOfBytes": "20"
      },
      "t_contract(RewardVault)9292": {
        "encoding": "inplace",
        "label": "contract RewardVault",
        "numberOfBytes": "20"
      },
      "t_mapping(t_address,t_address)": {
        "encoding": "mapping",
        "key": "t_address",
        "label": "mapping(address => address)",
        "numberOfBytes": "32",
        "value": "t_address"
      },
      "t_mapping(t_address,t_bool)": {
        "encoding": "mapping",
        "key": "t_address",
        "label": "mapping(address => bool)",
        "numberOfBytes": "32",
        "value": "t_bool"
      },
      "t_mapping(t_address,t_mapping(t_address,t_bool))": {
        "encoding": "mapping",
        "key": "t_address",
        "label": "mapping(address => mapping(address => bool))",
        "numberOfBytes": "32",
        "value": "t_mapping(t_address,t_bool)"
      },
      "t_mapping(t_address,t_mapping(t_uint256,t_struct(Portfolio)9320_storage))": {
        "encoding": "mapping",
        "key": "t_address",
        "label": "mapping(address => mapping(uint256 => struct IRebornDefination.Portfolio))",
        "numberOfBytes": "32",
        "value": "t_mapping(t_uint256,t_struct(Portfolio)9320_storage)"
      },
      "t_mapping(t_address,t_uint256)": {
        "encoding": "mapping",
        "key": "t_address",
        "label": "mapping(address => uint256)",
        "numberOfBytes": "32",
        "value": "t_uint256"
      },
      "t_mapping(t_address,t_uint32)": {
        "encoding": "mapping",
        "key": "t_address",
        "label": "mapping(address => uint32)",
        "numberOfBytes": "32",
        "value": "t_uint32"
      },
      "t_mapping(t_uint256,t_address)": {
        "encoding": "mapping",
        "key": "t_uint256",
        "label": "mapping(uint256 => address)",
        "numberOfBytes": "32",
        "value": "t_address"
      },
      "t_mapping(t_uint256,t_struct(LifeDetail)9314_storage)": {
        "encoding": "mapping",
        "key": "t_uint256",
        "label": "mapping(uint256 => struct IRebornDefination.LifeDetail)",
        "numberOfBytes": "32",
        "value": "t_struct(LifeDetail)9314_storage"
      },
      "t_mapping(t_uint256,t_struct(Pool)9317_storage)": {
        "encoding": "mapping",
        "key": "t_uint256",
        "label": "mapping(uint256 => struct IRebornDefination.Pool)",
        "numberOfBytes": "32",
        "value": "t_struct(Pool)9317_storage"
      },
      "t_mapping(t_uint256,t_struct(Portfolio)9320_storage)": {
        "encoding": "mapping",
        "key": "t_uint256",
        "label": "mapping(uint256 => struct IRebornDefination.Portfolio)",
        "numberOfBytes": "32",
        "value": "t_struct(Portfolio)9320_storage"
      },
      "t_mapping(t_uint256,t_uint256)": {
        "encoding": "mapping",
        "key": "t_uint256",
        "label": "mapping(uint256 => uint256)",
        "numberOfBytes": "32",
        "value": "t_uint256"
      },
      "t_string_storage": {
        "encoding": "bytes",
        "label": "string",
        "numberOfBytes": "32"
      },
      "t_struct(BitMap)5473_storage": {
        "encoding": "inplace",
        "label": "struct BitMapsUpgradeable.BitMap",
        "members": [
          {
            "astId": 5472,
            "contract": "src/RebornPortal.sol:RebornPortal",
            "label": "_data",
            "offset": 0,
            "slot": "0",
            "type": "t_mapping(t_uint256,t_uint256)"
          }
        ],
        "numberOfBytes": "32"
      },
      "t_struct(LifeDetail)9314_storage": {
        "encoding": "inplace",
        "label": "struct IRebornDefination.LifeDetail",
        "members": [
          {
            "astId": 9301,
            "contract": "src/RebornPortal.sol:RebornPortal",
            "label": "seed",
            "offset": 0,
            "slot": "0",
            "type": "t_bytes32"
          },
          {
            "astId": 9303,
            "contract": "src/RebornPortal.sol:RebornPortal",
            "label": "creator",
            "offset": 0,
            "slot": "1",
            "type": "t_address"
          },
          {
            "astId": 9305,
            "contract": "src/RebornPortal.sol:RebornPortal",
            "label": "age",
            "offset": 20,
            "slot": "1",
            "type": "t_uint16"
          },
          {
            "astId": 9307,
            "contract": "src/RebornPortal.sol:RebornPortal",
            "label": "round",
            "offset": 22,
            "slot": "1",
            "type": "t_uint32"
          },
          {
            "astId": 9309,
            "contract": "src/RebornPortal.sol:RebornPortal",
            "label": "nothing",
            "offset": 26,
            "slot": "1",
            "type": "t_uint48"
          },
          {
            "astId": 9311,
            "contract": "src/RebornPortal.sol:RebornPortal",
            "label": "cost",
            "offset": 0,
            "slot": "2",
            "type": "t_uint128"
          },
          {
            "astId": 9313,
            "contract": "src/RebornPortal.sol:RebornPortal",
            "label": "reward",
            "offset": 16,
            "slot": "2",
            "type": "t_uint128"
          }
        ],
        "numberOfBytes": "96"
      },
      "t_struct(Pool)9317_storage": {
        "encoding": "inplace",
        "label": "struct IRebornDefination.Pool",
        "members": [
          {
            "astId": 9316,
            "contract": "src/RebornPortal.sol:RebornPortal",
            "label": "totalAmount",
            "offset": 0,
            "slot": "0",
            "type": "t_uint256"
          }
        ],
        "numberOfBytes": "32"
      },
      "t_struct(Portfolio)9320_storage": {
        "encoding": "inplace",
        "label": "struct IRebornDefination.Portfolio",
        "members": [
          {
            "astId": 9319,
            "contract": "src/RebornPortal.sol:RebornPortal",
            "label": "accumulativeAmount",
            "offset": 0,
            "slot": "0",
            "type": "t_uint256"
          }
        ],
        "numberOfBytes": "32"
      },
      "t_uint128": {
        "encoding": "inplace",
        "label": "uint128",
        "numberOfBytes": "16"
      },
      "t_uint16": {
        "encoding": "inplace",
        "label": "uint16",
        "numberOfBytes": "2"
      },
      "t_uint256": {
        "encoding": "inplace",
        "label": "uint256",
        "numberOfBytes": "32"
      },
      "t_uint32": {
        "encoding": "inplace",
        "label": "uint32",
        "numberOfBytes": "4"
      },
      "t_uint48": {
        "encoding": "inplace",
        "label": "uint48",
        "numberOfBytes": "6"
      },
      "t_uint8": {
        "encoding": "inplace",
        "label": "uint8",
        "numberOfBytes": "1"
      }
    }
  }
}