{
  "address": "0xd6EbB43630a68DCeC615B056AFcEd043Ebf57764",
  "abi": [
    {
      "inputs": [],
      "name": "InsufficientAmount",
      "type": "error"
    },
    {
      "inputs": [],
      "name": "NotSigner",
      "type": "error"
    },
    {
      "anonymous": false,
      "inputs": [
        {
          "indexed": false,
          "internalType": "address",
          "name": "previousAdmin",
          "type": "address"
        },
        {
          "indexed": false,
          "internalType": "address",
          "name": "newAdmin",
          "type": "address"
        }
      ],
      "name": "AdminChanged",
      "type": "event"
    },
    {
      "anonymous": false,
      "inputs": [
        {
          "indexed": true,
          "internalType": "address",
          "name": "owner",
          "type": "address"
        },
        {
          "indexed": true,
          "internalType": "address",
          "name": "approved",
          "type": "address"
        },
        {
          "indexed": true,
          "internalType": "uint256",
          "name": "tokenId",
          "type": "uint256"
        }
      ],
      "name": "Approval",
      "type": "event"
    },
    {
      "anonymous": false,
      "inputs": [
        {
          "indexed": true,
          "internalType": "address",
          "name": "owner",
          "type": "address"
        },
        {
          "indexed": true,
          "internalType": "address",
          "name": "operator",
          "type": "address"
        },
        {
          "indexed": false,
          "internalType": "bool",
          "name": "approved",
          "type": "bool"
        }
      ],
      "name": "ApprovalForAll",
      "type": "event"
    },
    {
      "anonymous": false,
      "inputs": [
        {
          "indexed": true,
          "internalType": "address",
          "name": "beacon",
          "type": "address"
        }
      ],
      "name": "BeaconUpgraded",
      "type": "event"
    },
    {
      "anonymous": false,
      "inputs": [
        {
          "indexed": true,
          "internalType": "bytes32",
          "name": "seed",
          "type": "bytes32"
        },
        {
          "indexed": true,
          "internalType": "address",
          "name": "user",
          "type": "address"
        },
        {
          "indexed": true,
          "internalType": "uint256",
          "name": "score",
          "type": "uint256"
        },
        {
          "indexed": false,
          "internalType": "uint256",
          "name": "reward",
          "type": "uint256"
        }
      ],
      "name": "Engrave",
      "type": "event"
    },
    {
      "anonymous": false,
      "inputs": [
        {
          "indexed": true,
          "internalType": "address",
          "name": "user",
          "type": "address"
        },
        {
          "indexed": true,
          "internalType": "uint256",
          "name": "talentPoint",
          "type": "uint256"
        },
        {
          "indexed": true,
          "internalType": "uint256",
          "name": "PropertyPoint",
          "type": "uint256"
        },
        {
          "indexed": false,
          "internalType": "enum IRebornDefination.TALANT",
          "name": "talent",
          "type": "uint8"
        },
        {
          "indexed": false,
          "internalType": "enum IRebornDefination.PROPERTIES",
          "name": "properties",
          "type": "uint8"
        }
      ],
      "name": "Incarnate",
      "type": "event"
    },
    {
      "anonymous": false,
      "inputs": [
        {
          "indexed": false,
          "internalType": "uint8",
          "name": "version",
          "type": "uint8"
        }
      ],
      "name": "Initialized",
      "type": "event"
    },
    {
      "anonymous": false,
      "inputs": [
        {
          "indexed": false,
          "internalType": "uint256",
          "name": "price",
          "type": "uint256"
        }
      ],
      "name": "NewPricePoint",
      "type": "event"
    },
    {
      "anonymous": false,
      "inputs": [
        {
          "indexed": false,
          "internalType": "uint256",
          "name": "price",
          "type": "uint256"
        }
      ],
      "name": "NewSoupPrice",
      "type": "event"
    },
    {
      "anonymous": false,
      "inputs": [
        {
          "indexed": true,
          "internalType": "address",
          "name": "previousOwner",
          "type": "address"
        },
        {
          "indexed": true,
          "internalType": "address",
          "name": "newOwner",
          "type": "address"
        }
      ],
      "name": "OwnershipTransferred",
      "type": "event"
    },
    {
      "anonymous": false,
      "inputs": [
        {
          "indexed": false,
          "internalType": "address",
          "name": "signer",
          "type": "address"
        },
        {
          "indexed": false,
          "internalType": "bool",
          "name": "valid",
          "type": "bool"
        }
      ],
      "name": "SignerUpdate",
      "type": "event"
    },
    {
      "anonymous": false,
      "inputs": [
        {
          "indexed": true,
          "internalType": "address",
          "name": "from",
          "type": "address"
        },
        {
          "indexed": true,
          "internalType": "address",
          "name": "to",
          "type": "address"
        },
        {
          "indexed": true,
          "internalType": "uint256",
          "name": "tokenId",
          "type": "uint256"
        }
      ],
      "name": "Transfer",
      "type": "event"
    },
    {
      "anonymous": false,
      "inputs": [
        {
          "indexed": true,
          "internalType": "address",
          "name": "implementation",
          "type": "address"
        }
      ],
      "name": "Upgraded",
      "type": "event"
    },
    {
      "inputs": [
        {
          "internalType": "address",
          "name": "to",
          "type": "address"
        },
        {
          "internalType": "uint256",
          "name": "tokenId",
          "type": "uint256"
        }
      ],
      "name": "approve",
      "outputs": [],
      "stateMutability": "nonpayable",
      "type": "function"
    },
    {
      "inputs": [
        {
          "internalType": "address",
          "name": "owner",
          "type": "address"
        }
      ],
      "name": "balanceOf",
      "outputs": [
        {
          "internalType": "uint256",
          "name": "",
          "type": "uint256"
        }
      ],
      "stateMutability": "view",
      "type": "function"
    },
    {
      "inputs": [],
      "name": "claimOwnership",
      "outputs": [],
      "stateMutability": "nonpayable",
      "type": "function"
    },
    {
      "inputs": [
        {
          "internalType": "uint256",
          "name": "",
          "type": "uint256"
        }
      ],
      "name": "details",
      "outputs": [
        {
          "internalType": "bytes32",
          "name": "seed",
          "type": "bytes32"
        },
        {
          "internalType": "address",
          "name": "creator",
          "type": "address"
        },
        {
          "internalType": "uint16",
          "name": "age",
          "type": "uint16"
        },
        {
          "internalType": "uint16",
          "name": "round",
          "type": "uint16"
        }
      ],
      "stateMutability": "view",
      "type": "function"
    },
    {
      "inputs": [
        {
          "internalType": "bytes32",
          "name": "seed",
          "type": "bytes32"
        },
        {
          "internalType": "address",
          "name": "user",
          "type": "address"
        },
        {
          "internalType": "uint256",
          "name": "reward",
          "type": "uint256"
        },
        {
          "internalType": "uint256",
          "name": "score",
          "type": "uint256"
        },
        {
          "internalType": "uint256",
          "name": "age",
          "type": "uint256"
        },
        {
          "internalType": "uint256",
          "name": "locate",
          "type": "uint256"
        }
      ],
      "name": "engrave",
      "outputs": [],
      "stateMutability": "nonpayable",
      "type": "function"
    },
    {
      "inputs": [
        {
          "internalType": "uint256",
          "name": "value",
          "type": "uint256"
        }
      ],
      "name": "findLocation",
      "outputs": [
        {
          "internalType": "uint256",
          "name": "",
          "type": "uint256"
        }
      ],
      "stateMutability": "view",
      "type": "function"
    },
    {
      "inputs": [
        {
          "internalType": "uint256",
          "name": "tokenId",
          "type": "uint256"
        }
      ],
      "name": "getApproved",
      "outputs": [
        {
          "internalType": "address",
          "name": "",
          "type": "address"
        }
      ],
      "stateMutability": "view",
      "type": "function"
    },
    {
      "inputs": [
        {
          "components": [
            {
              "internalType": "enum IRebornDefination.TALANT",
              "name": "talent",
              "type": "uint8"
            },
            {
              "internalType": "enum IRebornDefination.PROPERTIES",
              "name": "properties",
              "type": "uint8"
            }
          ],
          "internalType": "struct IRebornDefination.Innate",
          "name": "innate",
          "type": "tuple"
        },
        {
          "internalType": "uint256",
          "name": "amount",
          "type": "uint256"
        },
        {
          "internalType": "uint256",
          "name": "deadline",
          "type": "uint256"
        },
        {
          "internalType": "bytes32",
          "name": "r",
          "type": "bytes32"
        },
        {
          "internalType": "bytes32",
          "name": "s",
          "type": "bytes32"
        },
        {
          "internalType": "uint8",
          "name": "v",
          "type": "uint8"
        }
      ],
      "name": "incarnate",
      "outputs": [],
      "stateMutability": "payable",
      "type": "function"
    },
    {
      "inputs": [
        {
          "components": [
            {
              "internalType": "enum IRebornDefination.TALANT",
              "name": "talent",
              "type": "uint8"
            },
            {
              "internalType": "enum IRebornDefination.PROPERTIES",
              "name": "properties",
              "type": "uint8"
            }
          ],
          "internalType": "struct IRebornDefination.Innate",
          "name": "innate",
          "type": "tuple"
        }
      ],
      "name": "incarnate",
      "outputs": [],
      "stateMutability": "payable",
      "type": "function"
    },
    {
      "inputs": [
        {
          "internalType": "string",
          "name": "name_",
          "type": "string"
        },
        {
          "internalType": "string",
          "name": "symbol_",
          "type": "string"
        }
      ],
      "name": "initAfterUpgrade",
      "outputs": [],
      "stateMutability": "nonpayable",
      "type": "function"
    },
    {
      "inputs": [
        {
          "internalType": "contract IRebornToken",
          "name": "rebornToken_",
          "type": "address"
        },
        {
          "internalType": "uint256",
          "name": "soupPrice_",
          "type": "uint256"
        },
        {
          "internalType": "uint256",
          "name": "priceAndPoint_",
          "type": "uint256"
        },
        {
          "internalType": "address",
          "name": "owner_",
          "type": "address"
        },
        {
          "internalType": "string",
          "name": "name_",
          "type": "string"
        },
        {
          "internalType": "string",
          "name": "symbol_",
          "type": "string"
        }
      ],
      "name": "initialize",
      "outputs": [],
      "stateMutability": "nonpayable",
      "type": "function"
    },
    {
      "inputs": [
        {
          "internalType": "address",
          "name": "owner",
          "type": "address"
        },
        {
          "internalType": "address",
          "name": "operator",
          "type": "address"
        }
      ],
      "name": "isApprovedForAll",
      "outputs": [
        {
          "internalType": "bool",
          "name": "",
          "type": "bool"
        }
      ],
      "stateMutability": "view",
      "type": "function"
    },
    {
      "inputs": [],
      "name": "minScoreInRank",
      "outputs": [
        {
          "internalType": "uint256",
          "name": "",
          "type": "uint256"
        }
      ],
      "stateMutability": "view",
      "type": "function"
    },
    {
      "inputs": [],
      "name": "name",
      "outputs": [
        {
          "internalType": "string",
          "name": "",
          "type": "string"
        }
      ],
      "stateMutability": "view",
      "type": "function"
    },
    {
      "inputs": [],
      "name": "owner",
      "outputs": [
        {
          "internalType": "address",
          "name": "",
          "type": "address"
        }
      ],
      "stateMutability": "view",
      "type": "function"
    },
    {
      "inputs": [
        {
          "internalType": "uint256",
          "name": "tokenId",
          "type": "uint256"
        }
      ],
      "name": "ownerOf",
      "outputs": [
        {
          "internalType": "address",
          "name": "",
          "type": "address"
        }
      ],
      "stateMutability": "view",
      "type": "function"
    },
    {
      "inputs": [],
      "name": "pendingOwner",
      "outputs": [
        {
          "internalType": "address",
          "name": "",
          "type": "address"
        }
      ],
      "stateMutability": "view",
      "type": "function"
    },
    {
      "inputs": [
        {
          "internalType": "enum IRebornDefination.PROPERTIES",
          "name": "properties",
          "type": "uint8"
        }
      ],
      "name": "propertyPoint",
      "outputs": [
        {
          "internalType": "uint256",
          "name": "",
          "type": "uint256"
        }
      ],
      "stateMutability": "view",
      "type": "function"
    },
    {
      "inputs": [
        {
          "internalType": "enum IRebornDefination.PROPERTIES",
          "name": "properties",
          "type": "uint8"
        }
      ],
      "name": "propertyPrice",
      "outputs": [
        {
          "internalType": "uint256",
          "name": "",
          "type": "uint256"
        }
      ],
      "stateMutability": "view",
      "type": "function"
    },
    {
      "inputs": [],
      "name": "proxiableUUID",
      "outputs": [
        {
          "internalType": "bytes32",
          "name": "",
          "type": "bytes32"
        }
      ],
      "stateMutability": "view",
      "type": "function"
    },
    {
      "inputs": [],
      "name": "ranks",
      "outputs": [
        {
          "internalType": "bytes",
          "name": "",
          "type": "bytes"
        }
      ],
      "stateMutability": "view",
      "type": "function"
    },
    {
      "inputs": [],
      "name": "readRank",
      "outputs": [
        {
          "internalType": "uint24[100]",
          "name": "rank",
          "type": "uint24[100]"
        }
      ],
      "stateMutability": "view",
      "type": "function"
    },
    {
      "inputs": [],
      "name": "rebornToken",
      "outputs": [
        {
          "internalType": "contract IRebornToken",
          "name": "",
          "type": "address"
        }
      ],
      "stateMutability": "view",
      "type": "function"
    },
    {
      "inputs": [],
      "name": "renounceOwnership",
      "outputs": [],
      "stateMutability": "nonpayable",
      "type": "function"
    },
    {
      "inputs": [
        {
          "internalType": "address",
          "name": "",
          "type": "address"
        }
      ],
      "name": "rounds",
      "outputs": [
        {
          "internalType": "uint16",
          "name": "",
          "type": "uint16"
        }
      ],
      "stateMutability": "view",
      "type": "function"
    },
    {
      "inputs": [
        {
          "internalType": "address",
          "name": "from",
          "type": "address"
        },
        {
          "internalType": "address",
          "name": "to",
          "type": "address"
        },
        {
          "internalType": "uint256",
          "name": "tokenId",
          "type": "uint256"
        }
      ],
      "name": "safeTransferFrom",
      "outputs": [],
      "stateMutability": "nonpayable",
      "type": "function"
    },
    {
      "inputs": [
        {
          "internalType": "address",
          "name": "from",
          "type": "address"
        },
        {
          "internalType": "address",
          "name": "to",
          "type": "address"
        },
        {
          "internalType": "uint256",
          "name": "tokenId",
          "type": "uint256"
        },
        {
          "internalType": "bytes",
          "name": "data",
          "type": "bytes"
        }
      ],
      "name": "safeTransferFrom",
      "outputs": [],
      "stateMutability": "nonpayable",
      "type": "function"
    },
    {
      "inputs": [
        {
          "internalType": "address",
          "name": "operator",
          "type": "address"
        },
        {
          "internalType": "bool",
          "name": "approved",
          "type": "bool"
        }
      ],
      "name": "setApprovalForAll",
      "outputs": [],
      "stateMutability": "nonpayable",
      "type": "function"
    },
    {
      "inputs": [
        {
          "internalType": "uint256",
          "name": "pricePoint",
          "type": "uint256"
        }
      ],
      "name": "setPriceAndPoint",
      "outputs": [],
      "stateMutability": "nonpayable",
      "type": "function"
    },
    {
      "inputs": [
        {
          "internalType": "uint256",
          "name": "price",
          "type": "uint256"
        }
      ],
      "name": "setSoupPrice",
      "outputs": [],
      "stateMutability": "nonpayable",
      "type": "function"
    },
    {
      "inputs": [
        {
          "internalType": "address",
          "name": "",
          "type": "address"
        }
      ],
      "name": "signers",
      "outputs": [
        {
          "internalType": "bool",
          "name": "",
          "type": "bool"
        }
      ],
      "stateMutability": "view",
      "type": "function"
    },
    {
      "inputs": [],
      "name": "soupPrice",
      "outputs": [
        {
          "internalType": "uint256",
          "name": "",
          "type": "uint256"
        }
      ],
      "stateMutability": "view",
      "type": "function"
    },
    {
      "inputs": [
        {
          "internalType": "bytes4",
          "name": "interfaceId",
          "type": "bytes4"
        }
      ],
      "name": "supportsInterface",
      "outputs": [
        {
          "internalType": "bool",
          "name": "",
          "type": "bool"
        }
      ],
      "stateMutability": "view",
      "type": "function"
    },
    {
      "inputs": [],
      "name": "symbol",
      "outputs": [
        {
          "internalType": "string",
          "name": "",
          "type": "string"
        }
      ],
      "stateMutability": "view",
      "type": "function"
    },
    {
      "inputs": [
        {
          "internalType": "enum IRebornDefination.TALANT",
          "name": "talent",
          "type": "uint8"
        }
      ],
      "name": "talentPoint",
      "outputs": [
        {
          "internalType": "uint256",
          "name": "",
          "type": "uint256"
        }
      ],
      "stateMutability": "view",
      "type": "function"
    },
    {
      "inputs": [
        {
          "internalType": "enum IRebornDefination.TALANT",
          "name": "talent",
          "type": "uint8"
        }
      ],
      "name": "talentPrice",
      "outputs": [
        {
          "internalType": "uint256",
          "name": "",
          "type": "uint256"
        }
      ],
      "stateMutability": "view",
      "type": "function"
    },
    {
      "inputs": [
        {
          "internalType": "uint256",
          "name": "tokenId",
          "type": "uint256"
        }
      ],
      "name": "tokenURI",
      "outputs": [
        {
          "internalType": "string",
          "name": "",
          "type": "string"
        }
      ],
      "stateMutability": "view",
      "type": "function"
    },
    {
      "inputs": [
        {
          "internalType": "address",
          "name": "from",
          "type": "address"
        },
        {
          "internalType": "address",
          "name": "to",
          "type": "address"
        },
        {
          "internalType": "uint256",
          "name": "tokenId",
          "type": "uint256"
        }
      ],
      "name": "transferFrom",
      "outputs": [],
      "stateMutability": "nonpayable",
      "type": "function"
    },
    {
      "inputs": [
        {
          "internalType": "address",
          "name": "newOwner",
          "type": "address"
        },
        {
          "internalType": "bool",
          "name": "direct",
          "type": "bool"
        }
      ],
      "name": "transferOwnership",
      "outputs": [],
      "stateMutability": "nonpayable",
      "type": "function"
    },
    {
      "inputs": [
        {
          "internalType": "address[]",
          "name": "toAdd",
          "type": "address[]"
        },
        {
          "internalType": "address[]",
          "name": "toRemove",
          "type": "address[]"
        }
      ],
      "name": "updateSigners",
      "outputs": [],
      "stateMutability": "nonpayable",
      "type": "function"
    },
    {
      "inputs": [
        {
          "internalType": "address",
          "name": "newImplementation",
          "type": "address"
        }
      ],
      "name": "upgradeTo",
      "outputs": [],
      "stateMutability": "nonpayable",
      "type": "function"
    },
    {
      "inputs": [
        {
          "internalType": "address",
          "name": "newImplementation",
          "type": "address"
        },
        {
          "internalType": "bytes",
          "name": "data",
          "type": "bytes"
        }
      ],
      "name": "upgradeToAndCall",
      "outputs": [],
      "stateMutability": "payable",
      "type": "function"
    }
  ],
  "transactionHash": "0x41f5da3bf829ce2bca4fa95699f629eadd7540512ad7319672b278cbf56f24b9",
  "args": [],
  "numDeployments": 8,
  "solcInputHash": "06fdc29cae55a516d18523017f2198a2",
  "bytecode": "0x60a06040523060805267016345785d8a000060c9557a04020000000000000504030000000604020100000000231e19140f60ca5534801561003f57600080fd5b506080516142f461007760003960008181611247015281816112dd01528181611463015281816114f901526115f001526142f46000f3fe6080604052600436106102d15760003560e01c806370a0823111610179578063a22cb465116100d6578063c87b56dd1161008a578063e4e3b32b11610064578063e4e3b32b14610840578063e985e9c514610860578063f11925d7146108aa57600080fd5b8063c87b56dd146107ef578063dbcd0a581461080f578063e30c39781461082257600080fd5b8063b88d4fde116100bb578063b88d4fde14610796578063c208d41a146107b6578063c5462865146107cd57600080fd5b8063a22cb46514610756578063b242e5341461077657600080fd5b806380619b611161012d5780638da5cb5b116101125780638da5cb5b1461067957806395d89b4114610697578063a005ec7a146106ac57600080fd5b806380619b6114610646578063869bdf671461066657600080fd5b8063736c0d5b1161015e578063736c0d5b146105e15780637447aa08146106115780637cad554d1461062657600080fd5b806370a08231146105ac578063715018a6146105cc57600080fd5b8063314b8dbd116102325780634f1ef286116101e657806360b127eb116101c057806360b127eb146105325780636352211e14610576578063670506e91461059657600080fd5b80634f1ef286146104ea57806352d1902d146104fd57806356fc2fa61461051257600080fd5b80633659cfe6116102175780633659cfe61461049557806342842e0e146104b55780634e71e0c8146104d557600080fd5b8063314b8dbd14610455578063350b23691461047557600080fd5b806316a065c61161028957806318ac12541161026e57806318ac1254146103e75780631dae24361461041557806323b872dd1461043557600080fd5b806316a065c6146103a7578063171d4952146103c757600080fd5b8063081812fc116102ba578063081812fc1461032d578063095ea7b3146103655780630aeb55c81461038757600080fd5b806301ffc9a7146102d657806306fdde031461030b575b600080fd5b3480156102e257600080fd5b506102f66102f136600461384e565b6108ca565b60405190151581526020015b60405180910390f35b34801561031757600080fd5b506103206109af565b60405161030291906138bb565b34801561033957600080fd5b5061034d6103483660046138ce565b610a42565b6040516001600160a01b039091168152602001610302565b34801561037157600080fd5b506103856103803660046138fc565b610a6a565b005b34801561039357600080fd5b506103856103a2366004613928565b610bbf565b3480156103b357600080fd5b5060cb5461034d906001600160a01b031681565b3480156103d357600080fd5b506103856103e2366004613a1b565b610e26565b3480156103f357600080fd5b50610407610402366004613a93565b610e9e565b604051908152602001610302565b34801561042157600080fd5b506103856104303660046138ce565b610edf565b34801561044157600080fd5b50610385610450366004613aae565b610f75565b34801561046157600080fd5b50610407610470366004613a93565b610ffc565b34801561048157600080fd5b50610385610490366004613b3b565b61102e565b3480156104a157600080fd5b506103856104b0366004613ba7565b61123d565b3480156104c157600080fd5b506103856104d0366004613aae565b6113da565b3480156104e157600080fd5b506103856113f5565b6103856104f8366004613bc4565b611459565b34801561050957600080fd5b506104076115e3565b34801561051e57600080fd5b5061040761052d366004613c19565b6116a8565b34801561053e57600080fd5b5061056361054d366004613ba7565b60cd6020526000908152604090205461ffff1681565b60405161ffff9091168152602001610302565b34801561058257600080fd5b5061034d6105913660046138ce565b6116e9565b3480156105a257600080fd5b5061040760c95481565b3480156105b857600080fd5b506104076105c7366004613ba7565b61174f565b3480156105d857600080fd5b506103856117ea565b3480156105ed57600080fd5b506102f66105fc366004613ba7565b60cc6020526000908152604090205460ff1681565b34801561061d57600080fd5b5061032061184e565b34801561063257600080fd5b50610407610641366004613c19565b6118dd565b34801561065257600080fd5b50610385610661366004613c34565b61190c565b610385610674366004613d2d565b611a7f565b34801561068557600080fd5b506033546001600160a01b031661034d565b3480156106a357600080fd5b50610320611a9d565b3480156106b857600080fd5b506107246106c73660046138ce565b60ce60205260009081526040902080546001909101546001600160a01b0381169061ffff74010000000000000000000000000000000000000000820481169176010000000000000000000000000000000000000000000090041684565b604080519485526001600160a01b03909316602085015261ffff91821692840192909252166060820152608001610302565b34801561076257600080fd5b50610385610771366004613d9e565b611aad565b34801561078257600080fd5b50610385610791366004613d9e565b611ab8565b3480156107a257600080fd5b506103856107b1366004613dd7565b611ba3565b3480156107c257600080fd5b506104076101945481565b3480156107d957600080fd5b506107e2611c31565b6040516103029190613e43565b3480156107fb57600080fd5b5061032061080a3660046138ce565b611cdd565b61038561081d366004613e7a565b611d51565b34801561082e57600080fd5b506034546001600160a01b031661034d565b34801561084c57600080fd5b5061040761085b3660046138ce565b611d5a565b34801561086c57600080fd5b506102f661087b366004613e96565b6001600160a01b0391821660009081526101326020908152604080832093909416825291909152205460ff1690565b3480156108b657600080fd5b506103856108c53660046138ce565b611e70565b60007fffffffff0000000000000000000000000000000000000000000000000000000082167f80ac58cd00000000000000000000000000000000000000000000000000000000148061095d57507fffffffff0000000000000000000000000000000000000000000000000000000082167f5b5e139f00000000000000000000000000000000000000000000000000000000145b806109a957507f01ffc9a7000000000000000000000000000000000000000000000000000000007fffffffff000000000000000000000000000000000000000000000000000000008316145b92915050565b606061012d80546109bf90613ec4565b80601f01602080910402602001604051908101604052809291908181526020018280546109eb90613ec4565b8015610a385780601f10610a0d57610100808354040283529160200191610a38565b820191906000526020600020905b815481529060010190602001808311610a1b57829003601f168201915b5050505050905090565b6000610a4d82611eff565b50600090815261013160205260409020546001600160a01b031690565b6000610a75826116e9565b9050806001600160a01b0316836001600160a01b031603610b035760405162461bcd60e51b815260206004820152602160248201527f4552433732313a20617070726f76616c20746f2063757272656e74206f776e6560448201527f720000000000000000000000000000000000000000000000000000000000000060648201526084015b60405180910390fd5b336001600160a01b0382161480610b3e57506001600160a01b03811660009081526101326020908152604080832033845290915290205460ff165b610bb05760405162461bcd60e51b815260206004820152603d60248201527f4552433732313a20617070726f76652063616c6c6572206973206e6f7420746f60448201527f6b656e206f776e6572206f7220617070726f76656420666f7220616c6c0000006064820152608401610afa565b610bba8383611f64565b505050565b33600090815260cc602052604090205460ff16610c08576040517fa1b035c800000000000000000000000000000000000000000000000000000000815260040160405180910390fd5b6000610c148483611fe0565b604080516080810182528981526001600160a01b0389166020808301829052600091825260cd90528281208054949550919392840192610c579061ffff16613f14565b825461ffff9182166101009390930a83810290830219909116179092558252858116602092830152600084815260ce835260409081902084518155928401516001939093018054918501516060909501518316760100000000000000000000000000000000000000000000027fffffffffffffffff0000ffffffffffffffffffffffffffffffffffffffffffff9590931674010000000000000000000000000000000000000000027fffffffffffffffffffff000000000000000000000000000000000000000000009092166001600160a01b03909416939093171792909216919091179055610d4786826122d1565b60cb546040517fa9059cbb0000000000000000000000000000000000000000000000000000000081526001600160a01b038881166004830152602482018890529091169063a9059cbb906044016020604051808303816000875af1158015610db3573d6000803e3d6000fd5b505050506040513d601f19601f82011682018060405250810190610dd79190613f35565b5083866001600160a01b0316887fe3d421e89b78924d008f87c647b3ed6e46bc1929a14d3b2f0a1d04d5fe3e15bd88604051610e1591815260200190565b60405180910390a450505050505050565b6033546001600160a01b03163314610e805760405162461bcd60e51b815260206004820152601d60248201527f536166654f776e61626c653a2063616c6c6572206e6f74206f776e65720000006044820152606401610afa565b610e8a82826122eb565b610e92612360565b610e9a6123d3565b5050565b6000816002811115610eb257610eb2613f52565b610ebd906008613f68565b60ff1660c060ca54901c901c60ff16670de0b6b3a76400006109a99190613f8b565b6033546001600160a01b03163314610f395760405162461bcd60e51b815260206004820152601d60248201527f536166654f776e61626c653a2063616c6c6572206e6f74206f776e65720000006044820152606401610afa565b60ca8190556040518181527fbf50be4abd4aca220cd35d4969b029104c5ff54c7d5f9f2e9a7b97d1ea5ef13e906020015b60405180910390a150565b610f7f3382612475565b610ff15760405162461bcd60e51b815260206004820152602d60248201527f4552433732313a2063616c6c6572206973206e6f7420746f6b656e206f776e6560448201527f72206f7220617070726f766564000000000000000000000000000000000000006064820152608401610afa565b610bba8383836124f4565b600081600281111561101057611010613f52565b61101b906008613f68565b60ca5460801c60ff9182161c1692915050565b6033546001600160a01b031633146110885760405162461bcd60e51b815260206004820152601d60248201527f536166654f776e61626c653a2063616c6c6572206e6f74206f776e65720000006044820152606401610afa565b60005b8381101561116357600160cc60008787858181106110ab576110ab613fa2565b90506020020160208101906110c09190613ba7565b6001600160a01b031681526020810191909152604001600020805460ff19169115159190911790557fc648f6265408cc54c0dc26d24ba51dfc9f35ce1a63baa2228f65d93aaf11cc6785858381811061111b5761111b613fa2565b90506020020160208101906111309190613ba7565b604080516001600160a01b039092168252600060208301520160405180910390a18061115b81613fb8565b91505061108b565b5060005b818110156112365760cc600084848481811061118557611185613fa2565b905060200201602081019061119a9190613ba7565b6001600160a01b031681526020810191909152604001600020805460ff191690557fc648f6265408cc54c0dc26d24ba51dfc9f35ce1a63baa2228f65d93aaf11cc678383838181106111ee576111ee613fa2565b90506020020160208101906112039190613ba7565b604080516001600160a01b039092168252600160208301520160405180910390a18061122e81613fb8565b915050611167565b5050505050565b6001600160a01b037f00000000000000000000000000000000000000000000000000000000000000001630036112db5760405162461bcd60e51b815260206004820152602c60248201527f46756e6374696f6e206d7573742062652063616c6c6564207468726f7567682060448201527f64656c656761746563616c6c00000000000000000000000000000000000000006064820152608401610afa565b7f00000000000000000000000000000000000000000000000000000000000000006001600160a01b03166113367f360894a13ba1a3210667c828492db98dca3e2076cc3735a920a3ca505d382bbc546001600160a01b031690565b6001600160a01b0316146113b25760405162461bcd60e51b815260206004820152602c60248201527f46756e6374696f6e206d7573742062652063616c6c6564207468726f7567682060448201527f6163746976652070726f787900000000000000000000000000000000000000006064820152608401610afa565b6113bb8161273a565b604080516000808252602082019092526113d791839190612794565b50565b610bba83838360405180602001604052806000815250611ba3565b6034546001600160a01b0316331461144f5760405162461bcd60e51b815260206004820152601e60248201527f536166654f776e61626c653a2063616c6c657220213d2070656e64696e6700006044820152606401610afa565b611457612934565b565b6001600160a01b037f00000000000000000000000000000000000000000000000000000000000000001630036114f75760405162461bcd60e51b815260206004820152602c60248201527f46756e6374696f6e206d7573742062652063616c6c6564207468726f7567682060448201527f64656c656761746563616c6c00000000000000000000000000000000000000006064820152608401610afa565b7f00000000000000000000000000000000000000000000000000000000000000006001600160a01b03166115527f360894a13ba1a3210667c828492db98dca3e2076cc3735a920a3ca505d382bbc546001600160a01b031690565b6001600160a01b0316146115ce5760405162461bcd60e51b815260206004820152602c60248201527f46756e6374696f6e206d7573742062652063616c6c6564207468726f7567682060448201527f6163746976652070726f787900000000000000000000000000000000000000006064820152608401610afa565b6115d78261273a565b610e9a82826001612794565b6000306001600160a01b037f000000000000000000000000000000000000000000000000000000000000000016146116835760405162461bcd60e51b815260206004820152603860248201527f555550535570677261646561626c653a206d757374206e6f742062652063616c60448201527f6c6564207468726f7567682064656c656761746563616c6c00000000000000006064820152608401610afa565b507f360894a13ba1a3210667c828492db98dca3e2076cc3735a920a3ca505d382bbc90565b60008160048111156116bc576116bc613f52565b6116c7906008613f68565b60ff16604060ca54901c901c60ff16670de0b6b3a76400006109a99190613f8b565b600081815261012f60205260408120546001600160a01b0316806109a95760405162461bcd60e51b815260206004820152601860248201527f4552433732313a20696e76616c696420746f6b656e20494400000000000000006044820152606401610afa565b60006001600160a01b0382166117cd5760405162461bcd60e51b815260206004820152602960248201527f4552433732313a2061646472657373207a65726f206973206e6f74206120766160448201527f6c6964206f776e657200000000000000000000000000000000000000000000006064820152608401610afa565b506001600160a01b03166000908152610130602052604090205490565b6033546001600160a01b031633146118445760405162461bcd60e51b815260206004820152601d60248201527f536166654f776e61626c653a2063616c6c6572206e6f74206f776e65720000006044820152606401610afa565b61145760006129aa565b610192805461185c90613ec4565b80601f016020809104026020016040519081016040528092919081815260200182805461188890613ec4565b80156118d55780601f106118aa576101008083540402835291602001916118d5565b820191906000526020600020905b8154815290600101906020018083116118b857829003601f168201915b505050505081565b60008160048111156118f1576118f1613f52565b6118fc906008613f68565b60ca5460ff9182161c1692915050565b600054610100900460ff161580801561192c5750600054600160ff909116105b806119465750303b158015611946575060005460ff166001145b6119b85760405162461bcd60e51b815260206004820152602e60248201527f496e697469616c697a61626c653a20636f6e747261637420697320616c72656160448201527f647920696e697469616c697a65640000000000000000000000000000000000006064820152608401610afa565b6000805460ff1916600117905580156119db576000805461ff0019166101001790555b60cb805473ffffffffffffffffffffffffffffffffffffffff19166001600160a01b03891617905560c986905560ca859055611a1684612a2d565b611a2083836122eb565b611a28612360565b611a306123d3565b8015611a76576000805461ff0019169055604051600181527f7f26b83ff96e1f2b6a682f133852f6798a09c465da95921460cefb38474024989060200160405180910390a15b50505050505050565b611a8c8585858585612aa1565b611a9586612b49565b505050505050565b606061012e80546109bf90613ec4565b610e9a338383612cd6565b6033546001600160a01b03163314611b125760405162461bcd60e51b815260206004820152601d60248201527f536166654f776e61626c653a2063616c6c6572206e6f74206f776e65720000006044820152606401610afa565b6001600160a01b038216611b685760405162461bcd60e51b815260206004820152601b60248201527f536166654f776e61626c653a206e6577206f776e6572206973203000000000006044820152606401610afa565b8015611b7757610e9a826129aa565b6034805473ffffffffffffffffffffffffffffffffffffffff19166001600160a01b0384161790555050565b611bad3383612475565b611c1f5760405162461bcd60e51b815260206004820152602d60248201527f4552433732313a2063616c6c6572206973206e6f7420746f6b656e206f776e6560448201527f72206f7220617070726f766564000000000000000000000000000000000000006064820152608401610afa565b611c2b84848484612da5565b50505050565b611c39613801565b6101928054611c4790613ec4565b80601f0160208091040260200160405190810160405280929190818152602001828054611c7390613ec4565b8015611cc05780601f10611c9557610100808354040283529160200191611cc0565b820191906000526020600020905b815481529060010190602001808311611ca357829003601f168201915b5050505050806020019051810190611cd89190613fd2565b905090565b6060611ce882611eff565b6000611cff60408051602081019091526000815290565b90506000815111611d1f5760405180602001604052806000815250611d4a565b80611d2984612e2e565b604051602001611d3a929190614063565b6040516020818303038152906040525b9392505050565b6113d781612b49565b6000806101928054611d6b90613ec4565b80601f0160208091040260200160405190810160405280929190818152602001828054611d9790613ec4565b8015611de45780601f10611db957610100808354040283529160200191611de4565b820191906000526020600020905b815481529060010190602001808311611dc757829003601f168201915b5050505050806020019051810190611dfc9190613fd2565b905060005b6064811015611e6657836101916000848460648110611e2257611e22613fa2565b602002015162ffffff168152602001908152602001600020541015611e5457611e4c816001614092565b949350505050565b80611e5e81613fb8565b915050611e01565b5060009392505050565b6033546001600160a01b03163314611eca5760405162461bcd60e51b815260206004820152601d60248201527f536166654f776e61626c653a2063616c6c6572206e6f74206f776e65720000006044820152606401610afa565b60c98190556040518181527fae0c05ecd507ea9cded837adb5c433fa5e8c24ef117806d7050ec4432a743f1d90602001610f6a565b600081815261012f60205260409020546001600160a01b03166113d75760405162461bcd60e51b815260206004820152601860248201527f4552433732313a20696e76616c696420746f6b656e20494400000000000000006044820152606401610afa565b600081815261013160205260409020805473ffffffffffffffffffffffffffffffffffffffff19166001600160a01b0384169081179091558190611fa7826116e9565b6001600160a01b03167f8c5be1e5ebec7d5bd14f71427d1e84f3dd0314c0f7b2291e5b200ac8c7c3b92560405160405180910390a45050565b600081158015611ff35750610194548311155b1561200757506101935462ffffff166109a9565b6000610192805461201790613ec4565b80601f016020809104026020016040519081016040528092919081815260200182805461204390613ec4565b80156120905780601f1061206557610100808354040283529160200191612090565b820191906000526020600020905b81548152906001019060200180831161207357829003601f168201915b50505050508060200190518101906120a89190613fd2565b90506064831161213a576101916000826120c36001876140a5565b606481106120d3576120d3613fa2565b602002015162ffffff16815260200190815260200160002054841161213a5760405162461bcd60e51b815260206004820152601c60248201527f4c61726765207468616e2063757272656e74206e6f74206d61746368000000006044820152606401610afa565b60018311156121cc576101916000826121546002876140a5565b6064811061216457612164613fa2565b602002015162ffffff168152602001908152602001600020548411156121cc5760405162461bcd60e51b815260206004820152601b60248201527f536d616c6c6572207468616e206c617374206e6f74206d6174636800000000006044820152606401610afa565b60645b8381111561223557816121e36002836140a5565b606481106121f3576121f3613fa2565b6020020151826122046001846140a5565b6064811061221457612214613fa2565b62ffffff90921660209290920201528061222d816140b8565b9150506121cf565b506101935462ffffff168161224b6001866140a5565b6064811061225b5761225b613fa2565b62ffffff909216602092909202015280612277600160646140a5565b6064811061228757612287613fa2565b602002015162ffffff16610194819055506122c0816040516020016122ac9190613e43565b604051602081830303815290604052612ece565b50506101935462ffffff1692915050565b610e9a828260405180602001604052806000815250612edb565b600054610100900460ff166123565760405162461bcd60e51b815260206004820152602b60248201527f496e697469616c697a61626c653a20636f6e7472616374206973206e6f74206960448201526a6e697469616c697a696e6760a81b6064820152608401610afa565b610e9a8282612f64565b600054610100900460ff166123cb5760405162461bcd60e51b815260206004820152602b60248201527f496e697469616c697a61626c653a20636f6e7472616374206973206e6f74206960448201526a6e697469616c697a696e6760a81b6064820152608401610afa565b611457612fea565b600054610100900460ff1661243e5760405162461bcd60e51b815260206004820152602b60248201527f496e697469616c697a61626c653a20636f6e7472616374206973206e6f74206960448201526a6e697469616c697a696e6760a81b6064820152608401610afa565b612446613801565b806040516020016124579190613e43565b6040516020818303038152906040526101929081610e9a9190614115565b600080612481836116e9565b9050806001600160a01b0316846001600160a01b031614806124c957506001600160a01b038082166000908152610132602090815260408083209388168352929052205460ff165b80611e4c5750836001600160a01b03166124e284610a42565b6001600160a01b031614949350505050565b826001600160a01b0316612507826116e9565b6001600160a01b0316146125835760405162461bcd60e51b815260206004820152602560248201527f4552433732313a207472616e736665722066726f6d20696e636f72726563742060448201527f6f776e65720000000000000000000000000000000000000000000000000000006064820152608401610afa565b6001600160a01b0382166125fe5760405162461bcd60e51b8152602060048201526024808201527f4552433732313a207472616e7366657220746f20746865207a65726f2061646460448201527f72657373000000000000000000000000000000000000000000000000000000006064820152608401610afa565b61260b838383600161305d565b826001600160a01b031661261e826116e9565b6001600160a01b03161461269a5760405162461bcd60e51b815260206004820152602560248201527f4552433732313a207472616e736665722066726f6d20696e636f72726563742060448201527f6f776e65720000000000000000000000000000000000000000000000000000006064820152608401610afa565b600081815261013160209081526040808320805473ffffffffffffffffffffffffffffffffffffffff199081169091556001600160a01b03878116808652610130855283862080546000190190559087168086528386208054600101905586865261012f90945282852080549092168417909155905184937fddf252ad1be2c89b69c2b068fc378daa952ba7f163c4a11628f55a4df523b3ef91a4505050565b6033546001600160a01b031633146113d75760405162461bcd60e51b815260206004820152601d60248201527f536166654f776e61626c653a2063616c6c6572206e6f74206f776e65720000006044820152606401610afa565b7f4910fdfa16fed3260ed0e7147f7cc6da11a60208b5b9406d12a635614ffd91435460ff16156127c757610bba836130e7565b826001600160a01b03166352d1902d6040518163ffffffff1660e01b8152600401602060405180830381865afa925050508015612821575060408051601f3d908101601f1916820190925261281e918101906141d5565b60015b6128935760405162461bcd60e51b815260206004820152602e60248201527f45524331393637557067726164653a206e657720696d706c656d656e7461746960448201527f6f6e206973206e6f7420555550530000000000000000000000000000000000006064820152608401610afa565b7f360894a13ba1a3210667c828492db98dca3e2076cc3735a920a3ca505d382bbc81146129285760405162461bcd60e51b815260206004820152602960248201527f45524331393637557067726164653a20756e737570706f727465642070726f7860448201527f6961626c655555494400000000000000000000000000000000000000000000006064820152608401610afa565b50610bba8383836131b2565b6033546034546040516001600160a01b03928316929091169082907f8be0079c531659141344cd1fd0a4f28419497f9722a3daafe3b4186f6b6457e090600090a350603480546033805473ffffffffffffffffffffffffffffffffffffffff199081166001600160a01b03841617909155169055565b7fb53127684a568b3173ae13b9f8a6016e243e63b6e8ee1178d6a717850b5d6103819055603380546001600160a01b0380841673ffffffffffffffffffffffffffffffffffffffff19831681179093556040519116919082907f8be0079c531659141344cd1fd0a4f28419497f9722a3daafe3b4186f6b6457e090600090a35050565b600054610100900460ff16612a985760405162461bcd60e51b815260206004820152602b60248201527f496e697469616c697a61626c653a20636f6e7472616374206973206e6f74206960448201526a6e697469616c697a696e6760a81b6064820152608401610afa565b6113d7816131d7565b60cb546040517fd505accf000000000000000000000000000000000000000000000000000000008152336004820152306024820152604481018790526064810186905260ff8316608482015260a4810185905260c481018490526001600160a01b039091169063d505accf9060e401600060405180830381600087803b158015612b2a57600080fd5b505af1158015612b3e573d6000803e3d6000fd5b505050505050505050565b60c954341015612b85576040517f5945ea5600000000000000000000000000000000000000000000000000000000815260040160405180910390fd5b60c95433906108fc90612b9890346140a5565b6040518115909202916000818181858888f19350505050158015612bc0573d6000803e3d6000fd5b506000612bd082602001516116a8565b8251612bdb90610e9e565b612be59190614092565b60cb546040517f23b872dd000000000000000000000000000000000000000000000000000000008152336004820152306024820152604481018390529192506001600160a01b0316906323b872dd906064016020604051808303816000875af1158015612c56573d6000803e3d6000fd5b505050506040513d601f19601f82011682018060405250810190612c7a9190613f35565b50612c8882602001516118dd565b8251612c9390610ffc565b8351602085015160405133927f6481ae94fa303fab3709f42fd1d8a71a28b0f1731f2a117d4d2857264181d0e292612cca926141ee565b60405180910390a45050565b816001600160a01b0316836001600160a01b031603612d375760405162461bcd60e51b815260206004820152601960248201527f4552433732313a20617070726f766520746f2063616c6c6572000000000000006044820152606401610afa565b6001600160a01b0383811660008181526101326020908152604080832094871680845294825291829020805460ff191686151590811790915591519182527f17307eab39ab6107e8899845ad3d59bd9653f200f220920489ca2b5937696c31910160405180910390a3505050565b612db08484846124f4565b612dbc8484848461324b565b611c2b5760405162461bcd60e51b815260206004820152603260248201527f4552433732313a207472616e7366657220746f206e6f6e20455243373231526560448201527f63656976657220696d706c656d656e74657200000000000000000000000000006064820152608401610afa565b60606000612e3b836133ec565b600101905060008167ffffffffffffffff811115612e5b57612e5b613978565b6040519080825280601f01601f191660200182016040528015612e85576020820181803683370190505b5090508181016020015b600019017f3031323334353637383961626364656600000000000000000000000000000000600a86061a8153600a8504945084612e8f57509392505050565b610192610e9a8282614115565b612ee583836134ce565b612ef2600084848461324b565b610bba5760405162461bcd60e51b815260206004820152603260248201527f4552433732313a207472616e7366657220746f206e6f6e20455243373231526560448201527f63656976657220696d706c656d656e74657200000000000000000000000000006064820152608401610afa565b600054610100900460ff16612fcf5760405162461bcd60e51b815260206004820152602b60248201527f496e697469616c697a61626c653a20636f6e7472616374206973206e6f74206960448201526a6e697469616c697a696e6760a81b6064820152608401610afa565b61012d612fdc8382614115565b5061012e610bba8282614115565b600054610100900460ff166130555760405162461bcd60e51b815260206004820152602b60248201527f496e697469616c697a61626c653a20636f6e7472616374206973206e6f74206960448201526a6e697469616c697a696e6760a81b6064820152608401610afa565b600161015f55565b6001811115611c2b576001600160a01b038416156130a4576001600160a01b038416600090815261013060205260408120805483929061309e9084906140a5565b90915550505b6001600160a01b03831615611c2b576001600160a01b03831660009081526101306020526040812080548392906130dc908490614092565b909155505050505050565b6001600160a01b0381163b6131645760405162461bcd60e51b815260206004820152602d60248201527f455243313936373a206e657720696d706c656d656e746174696f6e206973206e60448201527f6f74206120636f6e7472616374000000000000000000000000000000000000006064820152608401610afa565b7f360894a13ba1a3210667c828492db98dca3e2076cc3735a920a3ca505d382bbc805473ffffffffffffffffffffffffffffffffffffffff19166001600160a01b0392909216919091179055565b6131bb83613678565b6000825111806131c85750805b15610bba57611c2b83836136b8565b600054610100900460ff166132425760405162461bcd60e51b815260206004820152602b60248201527f496e697469616c697a61626c653a20636f6e7472616374206973206e6f74206960448201526a6e697469616c697a696e6760a81b6064820152608401610afa565b6113d7816129aa565b60006001600160a01b0384163b156133e1576040517f150b7a020000000000000000000000000000000000000000000000000000000081526001600160a01b0385169063150b7a02906132a8903390899088908890600401614222565b6020604051808303816000875af19250505080156132e3575060408051601f3d908101601f191682019092526132e09181019061425e565b60015b613396573d808015613311576040519150601f19603f3d011682016040523d82523d6000602084013e613316565b606091505b50805160000361338e5760405162461bcd60e51b815260206004820152603260248201527f4552433732313a207472616e7366657220746f206e6f6e20455243373231526560448201527f63656976657220696d706c656d656e74657200000000000000000000000000006064820152608401610afa565b805181602001fd5b7fffffffff00000000000000000000000000000000000000000000000000000000167f150b7a0200000000000000000000000000000000000000000000000000000000149050611e4c565b506001949350505050565b6000807a184f03e93ff9f4daa797ed6e38ed64bf6a1f0100000000000000008310613435577a184f03e93ff9f4daa797ed6e38ed64bf6a1f010000000000000000830492506040015b6d04ee2d6d415b85acef81000000008310613461576d04ee2d6d415b85acef8100000000830492506020015b662386f26fc10000831061347f57662386f26fc10000830492506010015b6305f5e1008310613497576305f5e100830492506008015b61271083106134ab57612710830492506004015b606483106134bd576064830492506002015b600a83106109a95760010192915050565b6001600160a01b0382166135245760405162461bcd60e51b815260206004820181905260248201527f4552433732313a206d696e7420746f20746865207a65726f20616464726573736044820152606401610afa565b600081815261012f60205260409020546001600160a01b03161561358a5760405162461bcd60e51b815260206004820152601c60248201527f4552433732313a20746f6b656e20616c7265616479206d696e746564000000006044820152606401610afa565b61359860008383600161305d565b600081815261012f60205260409020546001600160a01b0316156135fe5760405162461bcd60e51b815260206004820152601c60248201527f4552433732313a20746f6b656e20616c7265616479206d696e746564000000006044820152606401610afa565b6001600160a01b0382166000818152610130602090815260408083208054600101905584835261012f909152808220805473ffffffffffffffffffffffffffffffffffffffff19168417905551839291907fddf252ad1be2c89b69c2b068fc378daa952ba7f163c4a11628f55a4df523b3ef908290a45050565b613681816130e7565b6040516001600160a01b038216907fbc7cd75a20ee27fd9adebab32041f755214dbc6bffa90cc0225b39da2e5c2d3b90600090a250565b60606001600160a01b0383163b6137375760405162461bcd60e51b815260206004820152602660248201527f416464726573733a2064656c65676174652063616c6c20746f206e6f6e2d636f60448201527f6e747261637400000000000000000000000000000000000000000000000000006064820152608401610afa565b600080846001600160a01b031684604051613752919061427b565b600060405180830381855af49150503d806000811461378d576040519150601f19603f3d011682016040523d82523d6000602084013e613792565b606091505b50915091506137ba8282604051806060016040528060278152602001614298602791396137c3565b95945050505050565b606083156137d2575081611d4a565b611d4a83838151156137e75781518083602001fd5b8060405162461bcd60e51b8152600401610afa91906138bb565b60405180610c8001604052806064906020820280368337509192915050565b7fffffffff00000000000000000000000000000000000000000000000000000000811681146113d757600080fd5b60006020828403121561386057600080fd5b8135611d4a81613820565b60005b8381101561388657818101518382015260200161386e565b50506000910152565b600081518084526138a781602086016020860161386b565b601f01601f19169290920160200192915050565b602081526000611d4a602083018461388f565b6000602082840312156138e057600080fd5b5035919050565b6001600160a01b03811681146113d757600080fd5b6000806040838503121561390f57600080fd5b823561391a816138e7565b946020939093013593505050565b60008060008060008060c0878903121561394157600080fd5b863595506020870135613953816138e7565b95989597505050506040840135936060810135936080820135935060a0909101359150565b634e487b7160e01b600052604160045260246000fd5b600082601f83011261399f57600080fd5b813567ffffffffffffffff808211156139ba576139ba613978565b604051601f8301601f19908116603f011681019082821181831017156139e2576139e2613978565b816040528381528660208588010111156139fb57600080fd5b836020870160208301376000602085830101528094505050505092915050565b60008060408385031215613a2e57600080fd5b823567ffffffffffffffff80821115613a4657600080fd5b613a528683870161398e565b93506020850135915080821115613a6857600080fd5b50613a758582860161398e565b9150509250929050565b803560038110613a8e57600080fd5b919050565b600060208284031215613aa557600080fd5b611d4a82613a7f565b600080600060608486031215613ac357600080fd5b8335613ace816138e7565b92506020840135613ade816138e7565b929592945050506040919091013590565b60008083601f840112613b0157600080fd5b50813567ffffffffffffffff811115613b1957600080fd5b6020830191508360208260051b8501011115613b3457600080fd5b9250929050565b60008060008060408587031215613b5157600080fd5b843567ffffffffffffffff80821115613b6957600080fd5b613b7588838901613aef565b90965094506020870135915080821115613b8e57600080fd5b50613b9b87828801613aef565b95989497509550505050565b600060208284031215613bb957600080fd5b8135611d4a816138e7565b60008060408385031215613bd757600080fd5b8235613be2816138e7565b9150602083013567ffffffffffffffff811115613bfe57600080fd5b613a758582860161398e565b803560058110613a8e57600080fd5b600060208284031215613c2b57600080fd5b611d4a82613c0a565b60008060008060008060c08789031215613c4d57600080fd5b8635613c58816138e7565b955060208701359450604087013593506060870135613c76816138e7565b9250608087013567ffffffffffffffff80821115613c9357600080fd5b613c9f8a838b0161398e565b935060a0890135915080821115613cb557600080fd5b50613cc289828a0161398e565b9150509295509295509295565b600060408284031215613ce157600080fd5b6040516040810181811067ffffffffffffffff82111715613d0457613d04613978565b604052905080613d1383613a7f565b8152613d2160208401613c0a565b60208201525092915050565b60008060008060008060e08789031215613d4657600080fd5b613d508888613ccf565b955060408701359450606087013593506080870135925060a0870135915060c087013560ff81168114613d8257600080fd5b809150509295509295509295565b80151581146113d757600080fd5b60008060408385031215613db157600080fd5b8235613dbc816138e7565b91506020830135613dcc81613d90565b809150509250929050565b60008060008060808587031215613ded57600080fd5b8435613df8816138e7565b93506020850135613e08816138e7565b925060408501359150606085013567ffffffffffffffff811115613e2b57600080fd5b613e378782880161398e565b91505092959194509250565b610c808101818360005b6064811015613e7157815162ffffff16835260209283019290910190600101613e4d565b50505092915050565b600060408284031215613e8c57600080fd5b611d4a8383613ccf565b60008060408385031215613ea957600080fd5b8235613eb4816138e7565b91506020830135613dcc816138e7565b600181811c90821680613ed857607f821691505b602082108103613ef857634e487b7160e01b600052602260045260246000fd5b50919050565b634e487b7160e01b600052601160045260246000fd5b600061ffff808316818103613f2b57613f2b613efe565b6001019392505050565b600060208284031215613f4757600080fd5b8151611d4a81613d90565b634e487b7160e01b600052602160045260246000fd5b60ff8181168382160290811690818114613f8457613f84613efe565b5092915050565b80820281158282048414176109a9576109a9613efe565b634e487b7160e01b600052603260045260246000fd5b60006000198203613fcb57613fcb613efe565b5060010190565b6000610c80808385031215613fe657600080fd5b83601f840112613ff557600080fd5b60405181810181811067ffffffffffffffff8211171561401757614017613978565b60405290830190808583111561402c57600080fd5b845b8381101561405857805162ffffff8116811461404a5760008081fd5b82526020918201910161402e565b509095945050505050565b6000835161407581846020880161386b565b83519083019061408981836020880161386b565b01949350505050565b808201808211156109a9576109a9613efe565b818103818111156109a9576109a9613efe565b6000816140c7576140c7613efe565b506000190190565b601f821115610bba57600081815260208120601f850160051c810160208610156140f65750805b601f850160051c820191505b81811015611a9557828155600101614102565b815167ffffffffffffffff81111561412f5761412f613978565b6141438161413d8454613ec4565b846140cf565b602080601f83116001811461417857600084156141605750858301515b600019600386901b1c1916600185901b178555611a95565b600085815260208120601f198616915b828110156141a757888601518255948401946001909101908401614188565b50858210156141c55787850151600019600388901b60f8161c191681555b5050505050600190811b01905550565b6000602082840312156141e757600080fd5b5051919050565b604081016003841061420257614202613f52565b8382526005831061421557614215613f52565b8260208301529392505050565b60006001600160a01b03808716835280861660208401525083604083015260806060830152614254608083018461388f565b9695505050505050565b60006020828403121561427057600080fd5b8151611d4a81613820565b6000825161428d81846020870161386b565b919091019291505056fe416464726573733a206c6f772d6c6576656c2064656c65676174652063616c6c206661696c6564a2646970667358221220ff5460b6e44dfcdbe44418d84953c1c492cb799317b4ea30374134452e9cf03964736f6c63430008110033",
  "devdoc": {
    "kind": "dev",
    "methods": {
      "approve(address,uint256)": {
        "details": "See {IERC721-approve}."
      },
      "balanceOf(address)": {
        "details": "See {IERC721-balanceOf}."
      },
      "claimOwnership()": {
        "details": "pending owner call this function to claim ownership"
      },
      "engrave(bytes32,address,uint256,uint256,uint256,uint256)": {
        "details": "engrave the result on chain and reward",
        "params": {
          "seed": "uuid seed string without \"-\"  in bytes32"
        }
      },
      "findLocation(uint256)": {
        "details": "find the location in rank given a valueusually executed off-chain"
      },
      "getApproved(uint256)": {
        "details": "See {IERC721-getApproved}."
      },
      "initAfterUpgrade(string,string)": {
        "details": "warning: only called onece during testabandoned in production"
      },
      "isApprovedForAll(address,address)": {
        "details": "See {IERC721-isApprovedForAll}."
      },
      "name()": {
        "details": "See {IERC721Metadata-name}."
      },
      "owner()": {
        "details": "Returns the address of the current owner."
      },
      "ownerOf(uint256)": {
        "details": "See {IERC721-ownerOf}."
      },
      "pendingOwner()": {
        "details": "Return the address of the pending owner"
      },
      "propertyPoint(uint8)": {
        "details": "calculate properties point for each property"
      },
      "propertyPrice(uint8)": {
        "details": "calculate properties price in $REBORN for each properties"
      },
      "proxiableUUID()": {
        "details": "Implementation of the ERC1822 {proxiableUUID} function. This returns the storage slot used by the implementation. It is used to validate the implementation's compatibility when performing an upgrade. IMPORTANT: A proxy pointing at a proxiable contract should not be considered proxiable itself, because this risks bricking a proxy that upgrades to it, by delegating to itself until out of gas. Thus it is critical that this function revert if invoked through a proxy. This is guaranteed by the `notDelegated` modifier."
      },
      "renounceOwnership()": {
        "details": "Leaves the contract without owner. It will not be possible to call `onlyOwner` functions anymore. Can only be called by the current owner. NOTE: Renouncing ownership will leave the contract without an owner, thereby removing any functionality that is only available to the owner."
      },
      "safeTransferFrom(address,address,uint256)": {
        "details": "See {IERC721-safeTransferFrom}."
      },
      "safeTransferFrom(address,address,uint256,bytes)": {
        "details": "See {IERC721-safeTransferFrom}."
      },
      "setApprovalForAll(address,bool)": {
        "details": "See {IERC721-setApprovalForAll}."
      },
      "setPriceAndPoint(uint256)": {
        "details": "set other price"
      },
      "setSoupPrice(uint256)": {
        "details": "set soup price"
      },
      "supportsInterface(bytes4)": {
        "details": "See {IERC165-supportsInterface}."
      },
      "symbol()": {
        "details": "See {IERC721Metadata-symbol}."
      },
      "talentPoint(uint8)": {
        "details": "calculate talent point for each talent"
      },
      "talentPrice(uint8)": {
        "details": "calculate talent price in $REBORN for each talent"
      },
      "tokenURI(uint256)": {
        "details": "See {IERC721Metadata-tokenURI}."
      },
      "transferFrom(address,address,uint256)": {
        "details": "See {IERC721-transferFrom}."
      },
      "transferOwnership(address,bool)": {
        "details": "Transfers ownership of the contract to a new account (`newOwner`). Can only be called by the current owner. Note If direct is false, it will set an pending owner and the OwnerShipTransferring only happens when the pending owner claim the ownership"
      },
      "updateSigners(address[],address[])": {
        "details": "update signer"
      },
      "upgradeTo(address)": {
        "details": "Upgrade the implementation of the proxy to `newImplementation`. Calls {_authorizeUpgrade}. Emits an {Upgraded} event."
      },
      "upgradeToAndCall(address,bytes)": {
        "details": "Upgrade the implementation of the proxy to `newImplementation`, and subsequently execute the function call encoded in `data`. Calls {_authorizeUpgrade}. Emits an {Upgraded} event."
      }
    },
    "version": 1
  },
  "userdoc": {
    "kind": "user",
    "methods": {
      "incarnate((uint8,uint8))": {
        "notice": "init enter and buy "
      },
      "incarnate((uint8,uint8),uint256,uint256,bytes32,bytes32,uint8)": {
        "notice": "init enter and buy with permit signature "
      },
      "soupPrice()": {
        "notice": "you need buy a soup before reborn "
      }
    },
    "version": 1
  },
  "storageLayout": {
    "storage": [
      {
        "astId": 395,
        "contract": "src/RebornPortal.sol:RebornPortal",
        "label": "_initialized",
        "offset": 0,
        "slot": "0",
        "type": "t_uint8"
      },
      {
        "astId": 398,
        "contract": "src/RebornPortal.sol:RebornPortal",
        "label": "_initializing",
        "offset": 1,
        "slot": "0",
        "type": "t_bool"
      },
      {
        "astId": 3532,
        "contract": "src/RebornPortal.sol:RebornPortal",
        "label": "__gap",
        "offset": 0,
        "slot": "1",
        "type": "t_array(t_uint256)50_storage"
      },
      {
        "astId": 6013,
        "contract": "src/RebornPortal.sol:RebornPortal",
        "label": "_owner",
        "offset": 0,
        "slot": "51",
        "type": "t_address"
      },
      {
        "astId": 6015,
        "contract": "src/RebornPortal.sol:RebornPortal",
        "label": "_pendingOwner",
        "offset": 0,
        "slot": "52",
        "type": "t_address"
      },
      {
        "astId": 6203,
        "contract": "src/RebornPortal.sol:RebornPortal",
        "label": "__gap",
        "offset": 0,
        "slot": "53",
        "type": "t_array(t_uint256)48_storage"
      },
      {
        "astId": 377,
        "contract": "src/RebornPortal.sol:RebornPortal",
        "label": "__gap",
        "offset": 0,
        "slot": "101",
        "type": "t_array(t_uint256)50_storage"
      },
      {
        "astId": 692,
        "contract": "src/RebornPortal.sol:RebornPortal",
        "label": "__gap",
        "offset": 0,
        "slot": "151",
        "type": "t_array(t_uint256)50_storage"
      },
      {
        "astId": 7136,
        "contract": "src/RebornPortal.sol:RebornPortal",
        "label": "soupPrice",
        "offset": 0,
        "slot": "201",
        "type": "t_uint256"
      },
      {
        "astId": 7140,
        "contract": "src/RebornPortal.sol:RebornPortal",
        "label": "_priceAndPoint",
        "offset": 0,
        "slot": "202",
        "type": "t_uint256"
      },
      {
        "astId": 7143,
        "contract": "src/RebornPortal.sol:RebornPortal",
        "label": "rebornToken",
        "offset": 0,
        "slot": "203",
        "type": "t_contract(IRebornToken)7299"
      },
      {
        "astId": 7147,
        "contract": "src/RebornPortal.sol:RebornPortal",
        "label": "signers",
        "offset": 0,
        "slot": "204",
        "type": "t_mapping(t_address,t_bool)"
      },
      {
        "astId": 7151,
        "contract": "src/RebornPortal.sol:RebornPortal",
        "label": "rounds",
        "offset": 0,
        "slot": "205",
        "type": "t_mapping(t_address,t_uint16)"
      },
      {
        "astId": 7156,
        "contract": "src/RebornPortal.sol:RebornPortal",
        "label": "details",
        "offset": 0,
        "slot": "206",
        "type": "t_mapping(t_uint256,t_struct(LifeDetail)7190_storage)"
      },
      {
        "astId": 7161,
        "contract": "src/RebornPortal.sol:RebornPortal",
        "label": "_gap",
        "offset": 0,
        "slot": "207",
        "type": "t_array(t_uint256)44_storage"
      },
      {
        "astId": 4396,
        "contract": "src/RebornPortal.sol:RebornPortal",
        "label": "__gap",
        "offset": 0,
        "slot": "251",
        "type": "t_array(t_uint256)50_storage"
      },
      {
        "astId": 2105,
        "contract": "src/RebornPortal.sol:RebornPortal",
        "label": "_name",
        "offset": 0,
        "slot": "301",
        "type": "t_string_storage"
      },
      {
        "astId": 2107,
        "contract": "src/RebornPortal.sol:RebornPortal",
        "label": "_symbol",
        "offset": 0,
        "slot": "302",
        "type": "t_string_storage"
      },
      {
        "astId": 2111,
        "contract": "src/RebornPortal.sol:RebornPortal",
        "label": "_owners",
        "offset": 0,
        "slot": "303",
        "type": "t_mapping(t_uint256,t_address)"
      },
      {
        "astId": 2115,
        "contract": "src/RebornPortal.sol:RebornPortal",
        "label": "_balances",
        "offset": 0,
        "slot": "304",
        "type": "t_mapping(t_address,t_uint256)"
      },
      {
        "astId": 2119,
        "contract": "src/RebornPortal.sol:RebornPortal",
        "label": "_tokenApprovals",
        "offset": 0,
        "slot": "305",
        "type": "t_mapping(t_uint256,t_address)"
      },
      {
        "astId": 2125,
        "contract": "src/RebornPortal.sol:RebornPortal",
        "label": "_operatorApprovals",
        "offset": 0,
        "slot": "306",
        "type": "t_mapping(t_address,t_mapping(t_address,t_bool))"
      },
      {
        "astId": 3045,
        "contract": "src/RebornPortal.sol:RebornPortal",
        "label": "__gap",
        "offset": 0,
        "slot": "307",
        "type": "t_array(t_uint256)44_storage"
      },
      {
        "astId": 707,
        "contract": "src/RebornPortal.sol:RebornPortal",
        "label": "_status",
        "offset": 0,
        "slot": "351",
        "type": "t_uint256"
      },
      {
        "astId": 765,
        "contract": "src/RebornPortal.sol:RebornPortal",
        "label": "__gap",
        "offset": 0,
        "slot": "352",
        "type": "t_array(t_uint256)49_storage"
      },
      {
        "astId": 6324,
        "contract": "src/RebornPortal.sol:RebornPortal",
        "label": "scores",
        "offset": 0,
        "slot": "401",
        "type": "t_mapping(t_uint256,t_uint256)"
      },
      {
        "astId": 6326,
        "contract": "src/RebornPortal.sol:RebornPortal",
        "label": "ranks",
        "offset": 0,
        "slot": "402",
        "type": "t_bytes_storage"
      },
      {
        "astId": 6328,
        "contract": "src/RebornPortal.sol:RebornPortal",
        "label": "idx",
        "offset": 0,
        "slot": "403",
        "type": "t_uint24"
      },
      {
        "astId": 6330,
        "contract": "src/RebornPortal.sol:RebornPortal",
        "label": "minScoreInRank",
        "offset": 0,
        "slot": "404",
        "type": "t_uint256"
      },
      {
        "astId": 6334,
        "contract": "src/RebornPortal.sol:RebornPortal",
        "label": "_gap",
        "offset": 0,
        "slot": "405",
        "type": "t_array(t_uint256)46_storage"
      }
    ],
    "types": {
      "t_address": {
        "encoding": "inplace",
        "label": "address",
        "numberOfBytes": "20"
      },
      "t_array(t_uint256)44_storage": {
        "base": "t_uint256",
        "encoding": "inplace",
        "label": "uint256[44]",
        "numberOfBytes": "1408"
      },
      "t_array(t_uint256)46_storage": {
        "base": "t_uint256",
        "encoding": "inplace",
        "label": "uint256[46]",
        "numberOfBytes": "1472"
      },
      "t_array(t_uint256)48_storage": {
        "base": "t_uint256",
        "encoding": "inplace",
        "label": "uint256[48]",
        "numberOfBytes": "1536"
      },
      "t_array(t_uint256)49_storage": {
        "base": "t_uint256",
        "encoding": "inplace",
        "label": "uint256[49]",
        "numberOfBytes": "1568"
      },
      "t_array(t_uint256)50_storage": {
        "base": "t_uint256",
        "encoding": "inplace",
        "label": "uint256[50]",
        "numberOfBytes": "1600"
      },
      "t_bool": {
        "encoding": "inplace",
        "label": "bool",
        "numberOfBytes": "1"
      },
      "t_bytes32": {
        "encoding": "inplace",
        "label": "bytes32",
        "numberOfBytes": "32"
      },
      "t_bytes_storage": {
        "encoding": "bytes",
        "label": "bytes",
        "numberOfBytes": "32"
      },
      "t_contract(IRebornToken)7299": {
        "encoding": "inplace",
        "label": "contract IRebornToken",
        "numberOfBytes": "20"
      },
      "t_mapping(t_address,t_bool)": {
        "encoding": "mapping",
        "key": "t_address",
        "label": "mapping(address => bool)",
        "numberOfBytes": "32",
        "value": "t_bool"
      },
      "t_mapping(t_address,t_mapping(t_address,t_bool))": {
        "encoding": "mapping",
        "key": "t_address",
        "label": "mapping(address => mapping(address => bool))",
        "numberOfBytes": "32",
        "value": "t_mapping(t_address,t_bool)"
      },
      "t_mapping(t_address,t_uint16)": {
        "encoding": "mapping",
        "key": "t_address",
        "label": "mapping(address => uint16)",
        "numberOfBytes": "32",
        "value": "t_uint16"
      },
      "t_mapping(t_address,t_uint256)": {
        "encoding": "mapping",
        "key": "t_address",
        "label": "mapping(address => uint256)",
        "numberOfBytes": "32",
        "value": "t_uint256"
      },
      "t_mapping(t_uint256,t_address)": {
        "encoding": "mapping",
        "key": "t_uint256",
        "label": "mapping(uint256 => address)",
        "numberOfBytes": "32",
        "value": "t_address"
      },
      "t_mapping(t_uint256,t_struct(LifeDetail)7190_storage)": {
        "encoding": "mapping",
        "key": "t_uint256",
        "label": "mapping(uint256 => struct IRebornDefination.LifeDetail)",
        "numberOfBytes": "32",
        "value": "t_struct(LifeDetail)7190_storage"
      },
      "t_mapping(t_uint256,t_uint256)": {
        "encoding": "mapping",
        "key": "t_uint256",
        "label": "mapping(uint256 => uint256)",
        "numberOfBytes": "32",
        "value": "t_uint256"
      },
      "t_string_storage": {
        "encoding": "bytes",
        "label": "string",
        "numberOfBytes": "32"
      },
      "t_struct(LifeDetail)7190_storage": {
        "encoding": "inplace",
        "label": "struct IRebornDefination.LifeDetail",
        "members": [
          {
            "astId": 7183,
            "contract": "src/RebornPortal.sol:RebornPortal",
            "label": "seed",
            "offset": 0,
            "slot": "0",
            "type": "t_bytes32"
          },
          {
            "astId": 7185,
            "contract": "src/RebornPortal.sol:RebornPortal",
            "label": "creator",
            "offset": 0,
            "slot": "1",
            "type": "t_address"
          },
          {
            "astId": 7187,
            "contract": "src/RebornPortal.sol:RebornPortal",
            "label": "age",
            "offset": 20,
            "slot": "1",
            "type": "t_uint16"
          },
          {
            "astId": 7189,
            "contract": "src/RebornPortal.sol:RebornPortal",
            "label": "round",
            "offset": 22,
            "slot": "1",
            "type": "t_uint16"
          }
        ],
        "numberOfBytes": "64"
      },
      "t_uint16": {
        "encoding": "inplace",
        "label": "uint16",
        "numberOfBytes": "2"
      },
      "t_uint24": {
        "encoding": "inplace",
        "label": "uint24",
        "numberOfBytes": "3"
      },
      "t_uint256": {
        "encoding": "inplace",
        "label": "uint256",
        "numberOfBytes": "32"
      },
      "t_uint8": {
        "encoding": "inplace",
        "label": "uint8",
        "numberOfBytes": "1"
      }
    }
  }
}