{
  "address": "0x656A59cDaAe926b675217fB5C84707b726261dFf",
  "abi": [
    {
      "inputs": [],
      "name": "AlreadyBaptised",
      "type": "error"
    },
    {
      "inputs": [],
      "name": "AlreadyEngraved",
      "type": "error"
    },
    {
      "inputs": [],
      "name": "InsufficientAmount",
      "type": "error"
    },
    {
      "inputs": [],
      "name": "NotSigner",
      "type": "error"
    },
    {
      "inputs": [],
      "name": "PropertyOutOfScope",
      "type": "error"
    },
    {
      "inputs": [],
      "name": "TalentOutOfScope",
      "type": "error"
    },
    {
      "anonymous": false,
      "inputs": [
        {
          "indexed": false,
          "internalType": "address",
          "name": "previousAdmin",
          "type": "address"
        },
        {
          "indexed": false,
          "internalType": "address",
          "name": "newAdmin",
          "type": "address"
        }
      ],
      "name": "AdminChanged",
      "type": "event"
    },
    {
      "anonymous": false,
      "inputs": [
        {
          "indexed": true,
          "internalType": "address",
          "name": "owner",
          "type": "address"
        },
        {
          "indexed": true,
          "internalType": "address",
          "name": "approved",
          "type": "address"
        },
        {
          "indexed": true,
          "internalType": "uint256",
          "name": "tokenId",
          "type": "uint256"
        }
      ],
      "name": "Approval",
      "type": "event"
    },
    {
      "anonymous": false,
      "inputs": [
        {
          "indexed": true,
          "internalType": "address",
          "name": "owner",
          "type": "address"
        },
        {
          "indexed": true,
          "internalType": "address",
          "name": "operator",
          "type": "address"
        },
        {
          "indexed": false,
          "internalType": "bool",
          "name": "approved",
          "type": "bool"
        }
      ],
      "name": "ApprovalForAll",
      "type": "event"
    },
    {
      "anonymous": false,
      "inputs": [
        {
          "indexed": true,
          "internalType": "address",
          "name": "user",
          "type": "address"
        },
        {
          "indexed": false,
          "internalType": "uint256",
          "name": "amount",
          "type": "uint256"
        }
      ],
      "name": "Baptise",
      "type": "event"
    },
    {
      "anonymous": false,
      "inputs": [
        {
          "indexed": true,
          "internalType": "address",
          "name": "beacon",
          "type": "address"
        }
      ],
      "name": "BeaconUpgraded",
      "type": "event"
    },
    {
      "anonymous": false,
      "inputs": [
        {
          "indexed": true,
          "internalType": "address",
          "name": "user",
          "type": "address"
        },
        {
          "indexed": true,
          "internalType": "uint256",
          "name": "tokenId",
          "type": "uint256"
        },
        {
          "indexed": false,
          "internalType": "uint256",
          "name": "amount",
          "type": "uint256"
        }
      ],
      "name": "Dry",
      "type": "event"
    },
    {
      "anonymous": false,
      "inputs": [
        {
          "indexed": true,
          "internalType": "bytes32",
          "name": "seed",
          "type": "bytes32"
        },
        {
          "indexed": true,
          "internalType": "address",
          "name": "user",
          "type": "address"
        },
        {
          "indexed": true,
          "internalType": "uint256",
          "name": "tokenId",
          "type": "uint256"
        },
        {
          "indexed": false,
          "internalType": "uint256",
          "name": "score",
          "type": "uint256"
        },
        {
          "indexed": false,
          "internalType": "uint256",
          "name": "reward",
          "type": "uint256"
        }
      ],
      "name": "Engrave",
      "type": "event"
    },
    {
      "anonymous": false,
      "inputs": [
        {
          "indexed": true,
          "internalType": "address",
          "name": "user",
          "type": "address"
        },
        {
          "indexed": true,
          "internalType": "uint256",
          "name": "talentPoint",
          "type": "uint256"
        },
        {
          "indexed": true,
          "internalType": "uint256",
          "name": "PropertyPoint",
          "type": "uint256"
        },
        {
          "indexed": false,
          "internalType": "uint256",
          "name": "indulgences",
          "type": "uint256"
        }
      ],
      "name": "Incarnate",
      "type": "event"
    },
    {
      "anonymous": false,
      "inputs": [
        {
          "indexed": true,
          "internalType": "address",
          "name": "user",
          "type": "address"
        },
        {
          "indexed": true,
          "internalType": "uint256",
          "name": "tokenId",
          "type": "uint256"
        },
        {
          "indexed": false,
          "internalType": "uint256",
          "name": "amount",
          "type": "uint256"
        }
      ],
      "name": "Infuse",
      "type": "event"
    },
    {
      "anonymous": false,
      "inputs": [
        {
          "indexed": false,
          "internalType": "uint8",
          "name": "version",
          "type": "uint8"
        }
      ],
      "name": "Initialized",
      "type": "event"
    },
    {
      "anonymous": false,
      "inputs": [
        {
          "indexed": false,
          "internalType": "uint256",
          "name": "price",
          "type": "uint256"
        }
      ],
      "name": "NewSoupPrice",
      "type": "event"
    },
    {
      "anonymous": false,
      "inputs": [
        {
          "indexed": false,
          "internalType": "uint256",
          "name": "price",
          "type": "uint256"
        }
      ],
      "name": "NewTalentPrice",
      "type": "event"
    },
    {
      "anonymous": false,
      "inputs": [
        {
          "indexed": true,
          "internalType": "address",
          "name": "previousOwner",
          "type": "address"
        },
        {
          "indexed": true,
          "internalType": "address",
          "name": "newOwner",
          "type": "address"
        }
      ],
      "name": "OwnershipTransferred",
      "type": "event"
    },
    {
      "anonymous": false,
      "inputs": [
        {
          "indexed": false,
          "internalType": "address",
          "name": "account",
          "type": "address"
        }
      ],
      "name": "Paused",
      "type": "event"
    },
    {
      "anonymous": false,
      "inputs": [
        {
          "indexed": false,
          "internalType": "address",
          "name": "referee",
          "type": "address"
        },
        {
          "indexed": false,
          "internalType": "address",
          "name": "referrer",
          "type": "address"
        }
      ],
      "name": "Refer",
      "type": "event"
    },
    {
      "anonymous": false,
      "inputs": [
        {
          "indexed": true,
          "internalType": "address",
          "name": "user",
          "type": "address"
        },
        {
          "indexed": false,
          "internalType": "uint256",
          "name": "amount",
          "type": "uint256"
        }
      ],
      "name": "ReferReward",
      "type": "event"
    },
    {
      "anonymous": false,
      "inputs": [
        {
          "indexed": false,
          "internalType": "address",
          "name": "signer",
          "type": "address"
        },
        {
          "indexed": false,
          "internalType": "bool",
          "name": "valid",
          "type": "bool"
        }
      ],
      "name": "SignerUpdate",
      "type": "event"
    },
    {
      "anonymous": false,
      "inputs": [
        {
          "indexed": true,
          "internalType": "address",
          "name": "from",
          "type": "address"
        },
        {
          "indexed": true,
          "internalType": "address",
          "name": "to",
          "type": "address"
        },
        {
          "indexed": true,
          "internalType": "uint256",
          "name": "tokenId",
          "type": "uint256"
        }
      ],
      "name": "Transfer",
      "type": "event"
    },
    {
      "anonymous": false,
      "inputs": [
        {
          "indexed": false,
          "internalType": "address",
          "name": "account",
          "type": "address"
        }
      ],
      "name": "Unpaused",
      "type": "event"
    },
    {
      "anonymous": false,
      "inputs": [
        {
          "indexed": true,
          "internalType": "address",
          "name": "implementation",
          "type": "address"
        }
      ],
      "name": "Upgraded",
      "type": "event"
    },
    {
      "inputs": [
        {
          "internalType": "address",
          "name": "to",
          "type": "address"
        },
        {
          "internalType": "uint256",
          "name": "tokenId",
          "type": "uint256"
        }
      ],
      "name": "approve",
      "outputs": [],
      "stateMutability": "nonpayable",
      "type": "function"
    },
    {
      "inputs": [
        {
          "internalType": "address",
          "name": "owner",
          "type": "address"
        }
      ],
      "name": "balanceOf",
      "outputs": [
        {
          "internalType": "uint256",
          "name": "",
          "type": "uint256"
        }
      ],
      "stateMutability": "view",
      "type": "function"
    },
    {
      "inputs": [
        {
          "internalType": "address",
          "name": "user",
          "type": "address"
        },
        {
          "internalType": "uint256",
          "name": "amount",
          "type": "uint256"
        }
      ],
      "name": "baptise",
      "outputs": [],
      "stateMutability": "nonpayable",
      "type": "function"
    },
    {
      "inputs": [
        {
          "internalType": "address",
          "name": "referee",
          "type": "address"
        },
        {
          "internalType": "uint256",
          "name": "score",
          "type": "uint256"
        },
        {
          "internalType": "uint256",
          "name": "amount",
          "type": "uint256"
        }
      ],
      "name": "calculateReferReward",
      "outputs": [
        {
          "internalType": "address",
          "name": "referrar",
          "type": "address"
        },
        {
          "internalType": "uint256",
          "name": "referReward",
          "type": "uint256"
        }
      ],
      "stateMutability": "view",
      "type": "function"
    },
    {
      "inputs": [],
      "name": "claimOwnership",
      "outputs": [],
      "stateMutability": "nonpayable",
      "type": "function"
    },
    {
      "inputs": [
        {
          "internalType": "uint256",
          "name": "",
          "type": "uint256"
        }
      ],
      "name": "details",
      "outputs": [
        {
          "internalType": "bytes32",
          "name": "seed",
          "type": "bytes32"
        },
        {
          "internalType": "address",
          "name": "creator",
          "type": "address"
        },
        {
          "internalType": "uint16",
          "name": "age",
          "type": "uint16"
        },
        {
          "internalType": "uint16",
          "name": "round",
          "type": "uint16"
        },
        {
          "internalType": "uint64",
          "name": "nothing",
          "type": "uint64"
        },
        {
          "internalType": "uint128",
          "name": "cost",
          "type": "uint128"
        },
        {
          "internalType": "uint128",
          "name": "reward",
          "type": "uint128"
        }
      ],
      "stateMutability": "view",
      "type": "function"
    },
    {
      "inputs": [
        {
          "internalType": "uint256",
          "name": "tokenId",
          "type": "uint256"
        },
        {
          "internalType": "uint256",
          "name": "amount",
          "type": "uint256"
        }
      ],
      "name": "dry",
      "outputs": [],
      "stateMutability": "nonpayable",
      "type": "function"
    },
    {
      "inputs": [
        {
          "internalType": "bytes32",
          "name": "seed",
          "type": "bytes32"
        },
        {
          "internalType": "address",
          "name": "user",
          "type": "address"
        },
        {
          "internalType": "uint256",
          "name": "reward",
          "type": "uint256"
        },
        {
          "internalType": "uint256",
          "name": "score",
          "type": "uint256"
        },
        {
          "internalType": "uint256",
          "name": "age",
          "type": "uint256"
        },
        {
          "internalType": "uint256",
          "name": "locate",
          "type": "uint256"
        }
      ],
      "name": "engrave",
      "outputs": [],
      "stateMutability": "nonpayable",
      "type": "function"
    },
    {
      "inputs": [
        {
          "internalType": "uint256",
          "name": "tokenId",
          "type": "uint256"
        }
      ],
      "name": "getApproved",
      "outputs": [
        {
          "internalType": "address",
          "name": "",
          "type": "address"
        }
      ],
      "stateMutability": "view",
      "type": "function"
    },
    {
      "inputs": [
        {
          "internalType": "uint256",
          "name": "tokenId",
          "type": "uint256"
        }
      ],
      "name": "getPool",
      "outputs": [
        {
          "components": [
            {
              "internalType": "uint256",
              "name": "totalAmount",
              "type": "uint256"
            }
          ],
          "internalType": "struct IRebornDefination.Pool",
          "name": "",
          "type": "tuple"
        }
      ],
      "stateMutability": "view",
      "type": "function"
    },
    {
      "inputs": [],
      "name": "idx",
      "outputs": [
        {
          "internalType": "uint256",
          "name": "",
          "type": "uint256"
        }
      ],
      "stateMutability": "view",
      "type": "function"
    },
    {
      "inputs": [
        {
          "components": [
            {
              "internalType": "uint256",
              "name": "talent",
              "type": "uint256"
            },
            {
              "internalType": "uint256",
              "name": "properties",
              "type": "uint256"
            }
          ],
          "internalType": "struct IRebornDefination.Innate",
          "name": "innate",
          "type": "tuple"
        },
        {
          "internalType": "address",
          "name": "referrer",
          "type": "address"
        }
      ],
      "name": "incarnate",
      "outputs": [],
      "stateMutability": "payable",
      "type": "function"
    },
    {
      "inputs": [
        {
          "components": [
            {
              "internalType": "uint256",
              "name": "talent",
              "type": "uint256"
            },
            {
              "internalType": "uint256",
              "name": "properties",
              "type": "uint256"
            }
          ],
          "internalType": "struct IRebornDefination.Innate",
          "name": "innate",
          "type": "tuple"
        },
        {
          "internalType": "address",
          "name": "referrer",
          "type": "address"
        },
        {
          "internalType": "uint256",
          "name": "amount",
          "type": "uint256"
        },
        {
          "internalType": "uint256",
          "name": "deadline",
          "type": "uint256"
        },
        {
          "internalType": "bytes32",
          "name": "r",
          "type": "bytes32"
        },
        {
          "internalType": "bytes32",
          "name": "s",
          "type": "bytes32"
        },
        {
          "internalType": "uint8",
          "name": "v",
          "type": "uint8"
        }
      ],
      "name": "incarnate",
      "outputs": [],
      "stateMutability": "payable",
      "type": "function"
    },
    {
      "inputs": [
        {
          "internalType": "uint256",
          "name": "tokenId",
          "type": "uint256"
        },
        {
          "internalType": "uint256",
          "name": "amount",
          "type": "uint256"
        }
      ],
      "name": "infuse",
      "outputs": [],
      "stateMutability": "nonpayable",
      "type": "function"
    },
    {
      "inputs": [
        {
          "internalType": "contract RBT",
          "name": "rebornToken_",
          "type": "address"
        },
        {
          "internalType": "uint256",
          "name": "soupPrice_",
          "type": "uint256"
        },
        {
          "internalType": "uint256",
          "name": "_talentPrice",
          "type": "uint256"
        },
        {
          "internalType": "address",
          "name": "owner_",
          "type": "address"
        },
        {
          "internalType": "string",
          "name": "name_",
          "type": "string"
        },
        {
          "internalType": "string",
          "name": "symbol_",
          "type": "string"
        }
      ],
      "name": "initialize",
      "outputs": [],
      "stateMutability": "nonpayable",
      "type": "function"
    },
    {
      "inputs": [
        {
          "internalType": "address",
          "name": "owner",
          "type": "address"
        },
        {
          "internalType": "address",
          "name": "operator",
          "type": "address"
        }
      ],
      "name": "isApprovedForAll",
      "outputs": [
        {
          "internalType": "bool",
          "name": "",
          "type": "bool"
        }
      ],
      "stateMutability": "view",
      "type": "function"
    },
    {
      "inputs": [],
      "name": "minScoreInRank",
      "outputs": [
        {
          "internalType": "uint256",
          "name": "",
          "type": "uint256"
        }
      ],
      "stateMutability": "view",
      "type": "function"
    },
    {
      "inputs": [],
      "name": "name",
      "outputs": [
        {
          "internalType": "string",
          "name": "",
          "type": "string"
        }
      ],
      "stateMutability": "view",
      "type": "function"
    },
    {
      "inputs": [],
      "name": "owner",
      "outputs": [
        {
          "internalType": "address",
          "name": "",
          "type": "address"
        }
      ],
      "stateMutability": "view",
      "type": "function"
    },
    {
      "inputs": [
        {
          "internalType": "uint256",
          "name": "tokenId",
          "type": "uint256"
        }
      ],
      "name": "ownerOf",
      "outputs": [
        {
          "internalType": "address",
          "name": "",
          "type": "address"
        }
      ],
      "stateMutability": "view",
      "type": "function"
    },
    {
      "inputs": [],
      "name": "paused",
      "outputs": [
        {
          "internalType": "bool",
          "name": "",
          "type": "bool"
        }
      ],
      "stateMutability": "view",
      "type": "function"
    },
    {
      "inputs": [],
      "name": "pendingOwner",
      "outputs": [
        {
          "internalType": "address",
          "name": "",
          "type": "address"
        }
      ],
      "stateMutability": "view",
      "type": "function"
    },
    {
      "inputs": [
        {
          "internalType": "uint256",
          "name": "",
          "type": "uint256"
        }
      ],
      "name": "pools",
      "outputs": [
        {
          "internalType": "uint256",
          "name": "totalAmount",
          "type": "uint256"
        }
      ],
      "stateMutability": "view",
      "type": "function"
    },
    {
      "inputs": [
        {
          "internalType": "address",
          "name": "",
          "type": "address"
        },
        {
          "internalType": "uint256",
          "name": "",
          "type": "uint256"
        }
      ],
      "name": "portfolios",
      "outputs": [
        {
          "internalType": "uint256",
          "name": "accumulativeAmount",
          "type": "uint256"
        }
      ],
      "stateMutability": "view",
      "type": "function"
    },
    {
      "inputs": [
        {
          "internalType": "uint256",
          "name": "x",
          "type": "uint256"
        }
      ],
      "name": "propertyPrice",
      "outputs": [
        {
          "internalType": "uint256",
          "name": "",
          "type": "uint256"
        }
      ],
      "stateMutability": "nonpayable",
      "type": "function"
    },
    {
      "inputs": [],
      "name": "proxiableUUID",
      "outputs": [
        {
          "internalType": "bytes32",
          "name": "",
          "type": "bytes32"
        }
      ],
      "stateMutability": "view",
      "type": "function"
    },
    {
      "inputs": [],
      "name": "rebornToken",
      "outputs": [
        {
          "internalType": "contract RBT",
          "name": "",
          "type": "address"
        }
      ],
      "stateMutability": "view",
      "type": "function"
    },
    {
      "inputs": [
        {
          "internalType": "address",
          "name": "",
          "type": "address"
        }
      ],
      "name": "referrals",
      "outputs": [
        {
          "internalType": "address",
          "name": "",
          "type": "address"
        }
      ],
      "stateMutability": "view",
      "type": "function"
    },
    {
      "inputs": [],
      "name": "renounceOwnership",
      "outputs": [],
      "stateMutability": "nonpayable",
      "type": "function"
    },
    {
      "inputs": [
        {
          "internalType": "address",
          "name": "",
          "type": "address"
        }
      ],
      "name": "rounds",
      "outputs": [
        {
          "internalType": "uint16",
          "name": "",
          "type": "uint16"
        }
      ],
      "stateMutability": "view",
      "type": "function"
    },
    {
      "inputs": [
        {
          "internalType": "address",
          "name": "from",
          "type": "address"
        },
        {
          "internalType": "address",
          "name": "to",
          "type": "address"
        },
        {
          "internalType": "uint256",
          "name": "tokenId",
          "type": "uint256"
        }
      ],
      "name": "safeTransferFrom",
      "outputs": [],
      "stateMutability": "nonpayable",
      "type": "function"
    },
    {
      "inputs": [
        {
          "internalType": "address",
          "name": "from",
          "type": "address"
        },
        {
          "internalType": "address",
          "name": "to",
          "type": "address"
        },
        {
          "internalType": "uint256",
          "name": "tokenId",
          "type": "uint256"
        },
        {
          "internalType": "bytes",
          "name": "data",
          "type": "bytes"
        }
      ],
      "name": "safeTransferFrom",
      "outputs": [],
      "stateMutability": "nonpayable",
      "type": "function"
    },
    {
      "inputs": [
        {
          "internalType": "uint256",
          "name": "",
          "type": "uint256"
        }
      ],
      "name": "scores",
      "outputs": [
        {
          "internalType": "uint256",
          "name": "",
          "type": "uint256"
        }
      ],
      "stateMutability": "view",
      "type": "function"
    },
    {
      "inputs": [
        {
          "internalType": "address",
          "name": "operator",
          "type": "address"
        },
        {
          "internalType": "bool",
          "name": "approved",
          "type": "bool"
        }
      ],
      "name": "setApprovalForAll",
      "outputs": [],
      "stateMutability": "nonpayable",
      "type": "function"
    },
    {
      "inputs": [
        {
          "internalType": "uint256",
          "name": "price",
          "type": "uint256"
        }
      ],
      "name": "setSoupPrice",
      "outputs": [],
      "stateMutability": "nonpayable",
      "type": "function"
    },
    {
      "inputs": [
        {
          "internalType": "uint256",
          "name": "talenPrice",
          "type": "uint256"
        }
      ],
      "name": "setTalentPrice",
      "outputs": [],
      "stateMutability": "nonpayable",
      "type": "function"
    },
    {
      "inputs": [
        {
          "internalType": "address",
          "name": "",
          "type": "address"
        }
      ],
      "name": "signers",
      "outputs": [
        {
          "internalType": "bool",
          "name": "",
          "type": "bool"
        }
      ],
      "stateMutability": "view",
      "type": "function"
    },
    {
      "inputs": [],
      "name": "soupPrice",
      "outputs": [
        {
          "internalType": "uint256",
          "name": "",
          "type": "uint256"
        }
      ],
      "stateMutability": "view",
      "type": "function"
    },
    {
      "inputs": [
        {
          "internalType": "bytes4",
          "name": "interfaceId",
          "type": "bytes4"
        }
      ],
      "name": "supportsInterface",
      "outputs": [
        {
          "internalType": "bool",
          "name": "",
          "type": "bool"
        }
      ],
      "stateMutability": "view",
      "type": "function"
    },
    {
      "inputs": [],
      "name": "symbol",
      "outputs": [
        {
          "internalType": "string",
          "name": "",
          "type": "string"
        }
      ],
      "stateMutability": "view",
      "type": "function"
    },
    {
      "inputs": [
        {
          "internalType": "uint256",
          "name": "talent",
          "type": "uint256"
        }
      ],
      "name": "talentPrice",
      "outputs": [
        {
          "internalType": "uint256",
          "name": "",
          "type": "uint256"
        }
      ],
      "stateMutability": "view",
      "type": "function"
    },
    {
      "inputs": [
        {
          "internalType": "uint256",
          "name": "tokenId",
          "type": "uint256"
        }
      ],
      "name": "tokenURI",
      "outputs": [
        {
          "internalType": "string",
          "name": "",
          "type": "string"
        }
      ],
      "stateMutability": "view",
      "type": "function"
    },
    {
      "inputs": [
        {
          "internalType": "address",
          "name": "from",
          "type": "address"
        },
        {
          "internalType": "address",
          "name": "to",
          "type": "address"
        },
        {
          "internalType": "uint256",
          "name": "tokenId",
          "type": "uint256"
        }
      ],
      "name": "transferFrom",
      "outputs": [],
      "stateMutability": "nonpayable",
      "type": "function"
    },
    {
      "inputs": [
        {
          "internalType": "address",
          "name": "newOwner",
          "type": "address"
        },
        {
          "internalType": "bool",
          "name": "direct",
          "type": "bool"
        }
      ],
      "name": "transferOwnership",
      "outputs": [],
      "stateMutability": "nonpayable",
      "type": "function"
    },
    {
      "inputs": [
        {
          "internalType": "address[]",
          "name": "toAdd",
          "type": "address[]"
        },
        {
          "internalType": "address[]",
          "name": "toRemove",
          "type": "address[]"
        }
      ],
      "name": "updateSigners",
      "outputs": [],
      "stateMutability": "nonpayable",
      "type": "function"
    },
    {
      "inputs": [
        {
          "internalType": "address",
          "name": "newImplementation",
          "type": "address"
        }
      ],
      "name": "upgradeTo",
      "outputs": [],
      "stateMutability": "nonpayable",
      "type": "function"
    },
    {
      "inputs": [
        {
          "internalType": "address",
          "name": "newImplementation",
          "type": "address"
        },
        {
          "internalType": "bytes",
          "name": "data",
          "type": "bytes"
        }
      ],
      "name": "upgradeToAndCall",
      "outputs": [],
      "stateMutability": "payable",
      "type": "function"
    },
    {
      "inputs": [
        {
          "internalType": "uint256",
          "name": "amount",
          "type": "uint256"
        }
      ],
      "name": "withdrawNativeToken",
      "outputs": [],
      "stateMutability": "nonpayable",
      "type": "function"
    }
  ],
  "transactionHash": "0xb09f181ba56c4e1df6205b71722711c0072a3b123f94572e7fa7cba8746b958f",
  "args": [],
  "numDeployments": 33,
  "solcInputHash": "2791b250eb575c375f96abf41526e1ec",
  "bytecode": "0x60a060405230608052662386f26fc1000060c955684b02bc21c12c0a000060ca5534801561002c57600080fd5b50608051614bc96100646000396000818161159301528181611629015281816117af01528181611845015261193c0152614bc96000f3fe6080604052600436106103135760003560e01c8063715018a61161019a578063b1bac418116100e1578063d10dfdb11161008a578063e7b8940411610064578063e7b8940414610a40578063e985e9c514610a60578063f11925d714610aaa57600080fd5b8063d10dfdb1146109c3578063e30c397814610a02578063e4421be214610a2057600080fd5b8063b88d4fde116100bb578063b88d4fde1461096c578063c208d41a1461098c578063c87b56dd146109a357600080fd5b8063b1bac418146108f4578063b242e53414610914578063b470a9b51461093457600080fd5b806395d89b4111610143578063a005ec7a1161011d578063a005ec7a1461076f578063a22cb465146108a7578063ac4afa38146108c757600080fd5b806395d89b4114610711578063977a1255146107265780639ca423b31461073957600080fd5b806380619b611161017457806380619b61146106b3578063829a1d09146106d35780638da5cb5b146106f357600080fd5b8063715018a614610657578063736c0d5b1461066c578063795dbede1461069c57600080fd5b80633659cfe61161025e5780635c975abb116102075780636352211e116101e15780636352211e14610601578063670506e91461062157806370a082311461063757600080fd5b80635c975abb1461059157806360b127eb146105aa5780636224defd146105ee57600080fd5b80634f1ef286116102385780634f1ef2861461054957806352d1902d1461055c57806358c7a0631461057157600080fd5b80633659cfe6146104f457806342842e0e146105145780634e71e0c81461053457600080fd5b806314050c5a116102c057806323b872dd1161029a57806323b872dd146104865780632ee691a3146104a6578063350b2369146104d457600080fd5b806314050c5a1461041857806316a065c61461044657806317e0f2521461046657600080fd5b8063081812fc116102f1578063081812fc1461039e578063095ea7b3146103d65780630aeb55c8146103f857600080fd5b806301ffc9a714610318578063068bcd8d1461034d57806306fdde031461037c575b600080fd5b34801561032457600080fd5b50610338610333366004613f92565b610aca565b60405190151581526020015b60405180910390f35b34801561035957600080fd5b5061036d610368366004613faf565b610baf565b60405190518152602001610344565b34801561038857600080fd5b50610391610be9565b6040516103449190614018565b3480156103aa57600080fd5b506103be6103b9366004613faf565b610c7c565b6040516001600160a01b039091168152602001610344565b3480156103e257600080fd5b506103f66103f1366004614040565b610ca4565b005b34801561040457600080fd5b506103f661041336600461406c565b610df9565b34801561042457600080fd5b50610438610433366004613faf565b6110b8565b604051908152602001610344565b34801561045257600080fd5b5060cb546103be906001600160a01b031681565b34801561047257600080fd5b506103f6610481366004613faf565b611268565b34801561049257600080fd5b506103f66104a13660046140bc565b6112f3565b3480156104b257600080fd5b506104386104c1366004613faf565b6101916020526000908152604090205481565b3480156104e057600080fd5b506103f66104ef366004614149565b61137a565b34801561050057600080fd5b506103f661050f3660046141b5565b611589565b34801561052057600080fd5b506103f661052f3660046140bc565b611726565b34801561054057600080fd5b506103f6611741565b6103f6610557366004614297565b6117a5565b34801561056857600080fd5b5061043861192f565b34801561057d57600080fd5b506103f661058c366004614040565b6119f4565b34801561059d57600080fd5b506101c35460ff16610338565b3480156105b657600080fd5b506105db6105c53660046141b5565b60cd6020526000908152604090205461ffff1681565b60405161ffff9091168152602001610344565b6103f66105fc366004614336565b611b4f565b34801561060d57600080fd5b506103be61061c366004613faf565b611b7c565b34801561062d57600080fd5b5061043860c95481565b34801561064357600080fd5b506104386106523660046141b5565b611be2565b34801561066357600080fd5b506103f6611c7d565b34801561067857600080fd5b506103386106873660046141b5565b60cc6020526000908152604090205460ff1681565b3480156106a857600080fd5b506104386101935481565b3480156106bf57600080fd5b506103f66106ce36600461436e565b611ce1565b3480156106df57600080fd5b506103f66106ee366004614409565b611e4f565b3480156106ff57600080fd5b506033546001600160a01b03166103be565b34801561071d57600080fd5b50610391611f7e565b6103f661073436600461442b565b611f8e565b34801561074557600080fd5b506103be6107543660046141b5565b60d1602052600090815260409020546001600160a01b031681565b34801561077b57600080fd5b5061084461078a366004613faf565b60ce6020526000908152604090208054600182015460029092015490916001600160a01b0381169174010000000000000000000000000000000000000000820461ffff90811692760100000000000000000000000000000000000000000000810490911691780100000000000000000000000000000000000000000000000090910467ffffffffffffffff16906fffffffffffffffffffffffffffffffff8082169170010000000000000000000000000000000090041687565b604080519788526001600160a01b03909616602088015261ffff9485169587019590955292909116606085015267ffffffffffffffff1660808401526fffffffffffffffffffffffffffffffff90811660a08401521660c082015260e001610344565b3480156108b357600080fd5b506103f66108c23660046144b1565b611fc8565b3480156108d357600080fd5b506104386108e2366004613faf565b60cf6020526000908152604090205481565b34801561090057600080fd5b506103f661090f366004613faf565b611fd3565b34801561092057600080fd5b506103f661092f3660046144b1565b612069565b34801561094057600080fd5b5061043861094f366004614040565b60d060209081526000928352604080842090915290825290205481565b34801561097857600080fd5b506103f66109873660046144df565b612154565b34801561099857600080fd5b506104386101945481565b3480156109af57600080fd5b506103916109be366004613faf565b6121e2565b3480156109cf57600080fd5b506109e36109de36600461454b565b6123be565b604080516001600160a01b039093168352602083019190915201610344565b348015610a0e57600080fd5b506034546001600160a01b03166103be565b348015610a2c57600080fd5b506103f6610a3b366004614409565b6123f1565b348015610a4c57600080fd5b50610438610a5b366004613faf565b612525565b348015610a6c57600080fd5b50610338610a7b366004614580565b6001600160a01b0391821660009081526101326020908152604080832093909416825291909152205460ff1690565b348015610ab657600080fd5b506103f6610ac5366004613faf565b61259f565b60007fffffffff0000000000000000000000000000000000000000000000000000000082167f80ac58cd000000000000000000000000000000000000000000000000000000001480610b5d57507fffffffff0000000000000000000000000000000000000000000000000000000082167f5b5e139f00000000000000000000000000000000000000000000000000000000145b80610ba957507f01ffc9a7000000000000000000000000000000000000000000000000000000007fffffffff000000000000000000000000000000000000000000000000000000008316145b92915050565b604080516020810190915260008152610bc78261262e565b50600090815260cf602090815260409182902082519182019092529054815290565b606061012d8054610bf9906145ae565b80601f0160208091040260200160405190810160405280929190818152602001828054610c25906145ae565b8015610c725780601f10610c4757610100808354040283529160200191610c72565b820191906000526020600020905b815481529060010190602001808311610c5557829003601f168201915b5050505050905090565b6000610c878261262e565b50600090815261013160205260409020546001600160a01b031690565b6000610caf82611b7c565b9050806001600160a01b0316836001600160a01b031603610d3d5760405162461bcd60e51b815260206004820152602160248201527f4552433732313a20617070726f76616c20746f2063757272656e74206f776e6560448201527f720000000000000000000000000000000000000000000000000000000000000060648201526084015b60405180910390fd5b336001600160a01b0382161480610d7857506001600160a01b03811660009081526101326020908152604080832033845290915290205460ff165b610dea5760405162461bcd60e51b815260206004820152603d60248201527f4552433732313a20617070726f76652063616c6c6572206973206e6f7420746f60448201527f6b656e206f776e6572206f7220617070726f76656420666f7220616c6c0000006064820152608401610d34565b610df48383612693565b505050565b610e0161270f565b610e09612758565b6000610e14846127ac565b6040805160e0810182528981526001600160a01b0389166020808301829052600091825260cd90528281208054949550919392840192610e579061ffff166145fe565b825461ffff9182166101009390930a83810290830219909116179092558252851660208201526000604082018190526060820152608001610ea0670de0b6b3a764000088614635565b6fffffffffffffffffffffffffffffffff908116909152600083815260ce60209081526040918290208451815590840151600182018054938601516060870151608088015167ffffffffffffffff1678010000000000000000000000000000000000000000000000000277ffffffffffffffffffffffffffffffffffffffffffffffff61ffff928316760100000000000000000000000000000000000000000000021675ffffffffffffffffffffffffffffffffffffffffffff9290931674010000000000000000000000000000000000000000027fffffffffffffffffffff000000000000000000000000000000000000000000009097166001600160a01b03909516949094179590951794909416939093171790915560a083015160c0909301518216700100000000000000000000000000000000029290911691909117600290910155610ff086826127e3565b60cb546040516340c10f1960e01b81526001600160a01b03888116600483015260248201889052909116906340c10f1990604401600060405180830381600087803b15801561103e57600080fd5b505af1158015611052573d6000803e3d6000fd5b505050506110618685876127fd565b80866001600160a01b0316887faf1bba31184b4d13e4f756b22fc2755d77b6ad147f10a7b12ea6afa58a2ca5f687896040516110a7929190918252602082015260400190565b60405180910390a450505050505050565b6000600f8210156110f5576040517fadefc67800000000000000000000000000000000000000000000000000000000815260040160405180910390fd5b601482101561111b57611109600f83614649565b610ba990674563918244f4000061465c565b61112b826509184e72a00061465c565b91506618ec9e919dbfaf60006509184e72a00061114f8566039eb80975860061465c565b6111599190614635565b905060006a52b7d2dcc80cd2e4000000611174600287614757565b61118490652351aa192de061465c565b61118e9190614635565b905060007002f050fe938943acc45f655680000000006111af600388614757565b6111be90643c0c4cb35861465c565b6111c89190614635565b90506000751aba4714957d300d0e549208b31adb100000000000006111ee600489614757565b6111fc906325e3219661465c565b6112069190614635565b90506000828583611217878a614766565b6112219190614766565b61122b9190614649565b6112359190614649565b905061124a61124582600d6128cf565b612948565b61125c90670de0b6b3a764000061465c565b98975050505050505050565b6033546001600160a01b031633146112c25760405162461bcd60e51b815260206004820152601d60248201527f536166654f776e61626c653a2063616c6c6572206e6f74206f776e65720000006044820152606401610d34565b604051339082156108fc029083906000818181858888f193505050501580156112ef573d6000803e3d6000fd5b5050565b6112fd3382612980565b61136f5760405162461bcd60e51b815260206004820152602d60248201527f4552433732313a2063616c6c6572206973206e6f7420746f6b656e206f776e6560448201527f72206f7220617070726f766564000000000000000000000000000000000000006064820152608401610d34565b610df4838383612a00565b6033546001600160a01b031633146113d45760405162461bcd60e51b815260206004820152601d60248201527f536166654f776e61626c653a2063616c6c6572206e6f74206f776e65720000006044820152606401610d34565b60005b838110156114af57600160cc60008787858181106113f7576113f7614779565b905060200201602081019061140c91906141b5565b6001600160a01b031681526020810191909152604001600020805460ff19169115159190911790557fc648f6265408cc54c0dc26d24ba51dfc9f35ce1a63baa2228f65d93aaf11cc6785858381811061146757611467614779565b905060200201602081019061147c91906141b5565b604080516001600160a01b039092168252600160208301520160405180910390a1806114a78161478f565b9150506113d7565b5060005b818110156115825760cc60008484848181106114d1576114d1614779565b90506020020160208101906114e691906141b5565b6001600160a01b031681526020810191909152604001600020805460ff191690557fc648f6265408cc54c0dc26d24ba51dfc9f35ce1a63baa2228f65d93aaf11cc6783838381811061153a5761153a614779565b905060200201602081019061154f91906141b5565b604080516001600160a01b039092168252600060208301520160405180910390a18061157a8161478f565b9150506114b3565b5050505050565b6001600160a01b037f00000000000000000000000000000000000000000000000000000000000000001630036116275760405162461bcd60e51b815260206004820152602c60248201527f46756e6374696f6e206d7573742062652063616c6c6564207468726f7567682060448201527f64656c656761746563616c6c00000000000000000000000000000000000000006064820152608401610d34565b7f00000000000000000000000000000000000000000000000000000000000000006001600160a01b03166116827f360894a13ba1a3210667c828492db98dca3e2076cc3735a920a3ca505d382bbc546001600160a01b031690565b6001600160a01b0316146116fe5760405162461bcd60e51b815260206004820152602c60248201527f46756e6374696f6e206d7573742062652063616c6c6564207468726f7567682060448201527f6163746976652070726f787900000000000000000000000000000000000000006064820152608401610d34565b61170781612c46565b6040805160008082526020820190925261172391839190612ca0565b50565b610df483838360405180602001604052806000815250612154565b6034546001600160a01b0316331461179b5760405162461bcd60e51b815260206004820152601e60248201527f536166654f776e61626c653a2063616c6c657220213d2070656e64696e6700006044820152606401610d34565b6117a3612e40565b565b6001600160a01b037f00000000000000000000000000000000000000000000000000000000000000001630036118435760405162461bcd60e51b815260206004820152602c60248201527f46756e6374696f6e206d7573742062652063616c6c6564207468726f7567682060448201527f64656c656761746563616c6c00000000000000000000000000000000000000006064820152608401610d34565b7f00000000000000000000000000000000000000000000000000000000000000006001600160a01b031661189e7f360894a13ba1a3210667c828492db98dca3e2076cc3735a920a3ca505d382bbc546001600160a01b031690565b6001600160a01b03161461191a5760405162461bcd60e51b815260206004820152602c60248201527f46756e6374696f6e206d7573742062652063616c6c6564207468726f7567682060448201527f6163746976652070726f787900000000000000000000000000000000000000006064820152608401610d34565b61192382612c46565b6112ef82826001612ca0565b6000306001600160a01b037f000000000000000000000000000000000000000000000000000000000000000016146119cf5760405162461bcd60e51b815260206004820152603860248201527f555550535570677261646561626c653a206d757374206e6f742062652063616c60448201527f6c6564207468726f7567682064656c656761746563616c6c00000000000000006064820152608401610d34565b507f360894a13ba1a3210667c828492db98dca3e2076cc3735a920a3ca505d382bbc90565b6119fc61270f565b611a04612758565b72ffffffffffffffffffffffffffffffffffffff600883901c1660009081526101926020526040902054600160ff84161b1615611a6d576040517f3d96ceab00000000000000000000000000000000000000000000000000000000815260040160405180910390fd5b72ffffffffffffffffffffffffffffffffffffff600883901c166000908152610192602052604090208054600160ff85161b17905560cb546040516340c10f1960e01b81526001600160a01b03848116600483015260248201849052909116906340c10f1990604401600060405180830381600087803b158015611af057600080fd5b505af1158015611b04573d6000803e3d6000fd5b50505050816001600160a01b03167f7a0984e898d33e4bf6ad9f851bfab5517683d3dae5b57ed58fa8c7152d822e3282604051611b4391815260200190565b60405180910390a25050565b611b57612758565b611b5f612eb6565b611b6882612f11565b611b718161306d565b6112ef600161015f55565b600081815261012f60205260408120546001600160a01b031680610ba95760405162461bcd60e51b815260206004820152601860248201527f4552433732313a20696e76616c696420746f6b656e20494400000000000000006044820152606401610d34565b60006001600160a01b038216611c605760405162461bcd60e51b815260206004820152602960248201527f4552433732313a2061646472657373207a65726f206973206e6f74206120766160448201527f6c6964206f776e657200000000000000000000000000000000000000000000006064820152608401610d34565b506001600160a01b03166000908152610130602052604090205490565b6033546001600160a01b03163314611cd75760405162461bcd60e51b815260206004820152601d60248201527f536166654f776e61626c653a2063616c6c6572206e6f74206f776e65720000006044820152606401610d34565b6117a360006130ff565b600054610100900460ff1615808015611d015750600054600160ff909116105b80611d1b5750303b158015611d1b575060005460ff166001145b611d8d5760405162461bcd60e51b815260206004820152602e60248201527f496e697469616c697a61626c653a20636f6e747261637420697320616c72656160448201527f647920696e697469616c697a65640000000000000000000000000000000000006064820152608401610d34565b6000805460ff191660011790558015611db0576000805461ff0019166101001790555b60cb805473ffffffffffffffffffffffffffffffffffffffff19166001600160a01b03891617905560c9869055611de684613182565b611df083836131f6565b611df861326b565b611e006132de565b8015611e46576000805461ff0019169055604051600181527f7f26b83ff96e1f2b6a682f133852f6798a09c465da95921460cefb38474024989060200160405180910390a15b50505050505050565b611e57612758565b600082815260cf60205260408120805490918391839190611e79908490614649565b909155505033600090815260d0602090815260408083208684529091528120805490918491839190611eac908490614649565b909155505060cb546040517fa9059cbb000000000000000000000000000000000000000000000000000000008152336004820152602481018590526001600160a01b039091169063a9059cbb906044016020604051808303816000875af1158015611f1b573d6000803e3d6000fd5b505050506040513d601f19601f82011682018060405250810190611f3f91906147a9565b50604051838152849033907f5c09e6483f1552208cf891fa28d135269484ad74a848ad491913fb4b386ffcf0906020015b60405180910390a350505050565b606061012e8054610bf9906145ae565b611f96612758565b611f9e612eb6565b611fab8585858585613351565b611fb487612f11565b611fbd8661306d565b611e46600161015f55565b6112ef3383836133f9565b6033546001600160a01b0316331461202d5760405162461bcd60e51b815260206004820152601d60248201527f536166654f776e61626c653a2063616c6c6572206e6f74206f776e65720000006044820152606401610d34565b60ca8190556040518181527f55a73bd6abec226526cb26266e83ffadccf62ef31c9a3d8d54ac7179b906802f906020015b60405180910390a150565b6033546001600160a01b031633146120c35760405162461bcd60e51b815260206004820152601d60248201527f536166654f776e61626c653a2063616c6c6572206e6f74206f776e65720000006044820152606401610d34565b6001600160a01b0382166121195760405162461bcd60e51b815260206004820152601b60248201527f536166654f776e61626c653a206e6577206f776e6572206973203000000000006044820152606401610d34565b8015612128576112ef826130ff565b6034805473ffffffffffffffffffffffffffffffffffffffff19166001600160a01b0384161790555050565b61215e3383612980565b6121d05760405162461bcd60e51b815260206004820152602d60248201527f4552433732313a2063616c6c6572206973206e6f7420746f6b656e206f776e6560448201527f72206f7220617070726f766564000000000000000000000000000000000000006064820152608401610d34565b6121dc848484846134c8565b50505050565b60606121ed8261262e565b60006123946121fa610be9565b6000858152610191602090815260408083205460ce90925291829020600181015460029091015492517fe2bdd4e700000000000000000000000000000000000000000000000000000000815260c060048083019190915260c48201527f736565640000000000000000000000000000000000000000000000000000000060e48201526024810192909252760100000000000000000000000000000000000000000000810461ffff90811660448401527401000000000000000000000000000000000000000082041660648301526001600160a01b031660848201527001000000000000000000000000000000009091046fffffffffffffffffffffffffffffffff1660a482015261236f90732C3b100060d1Ca406Ac1bCFBf936E088457D96419063e2bdd4e79061010401600060405180830381865af4158015612342573d6000803e3d6000fd5b505050506040513d6000823e601f3d908101601f1916820160405261236a91908101906147c6565b613551565b604051602001612380929190614834565b604051602081830303815290604052613551565b9050806040516020016123a7919061492b565b604051602081830303815290604052915050919050565b6001600160a01b03808416600090815260d16020526040812054909116906123e7600584614635565b9050935093915050565b6123f9612758565b6124028261262e565b60cb546040517f23b872dd000000000000000000000000000000000000000000000000000000008152336004820152306024820152604481018390526001600160a01b03909116906323b872dd906064016020604051808303816000875af1158015612472573d6000803e3d6000fd5b505050506040513d601f19601f8201168201806040525081019061249691906147a9565b50600082815260cf602052604081208054909183918391906124b9908490614766565b909155505033600090815260d06020908152604080832086845290915281208054909184918391906124ec908490614766565b9091555050604051838152849033907f58c7b3bf0b0e168048426c1e9443a72696526292ca664e18b11f934cd6cfbbf390602001611f70565b600060038210806125365750600882115b1561256d576040517f802f637400000000000000000000000000000000000000000000000000000000815260040160405180910390fd5b612578600383614649565b61258390600c61465c565b60ca54901c610fff16670de0b6b3a7640000610ba9919061465c565b6033546001600160a01b031633146125f95760405162461bcd60e51b815260206004820152601d60248201527f536166654f776e61626c653a2063616c6c6572206e6f74206f776e65720000006044820152606401610d34565b60c98190556040518181527fae0c05ecd507ea9cded837adb5c433fa5e8c24ef117806d7050ec4432a743f1d9060200161205e565b600081815261012f60205260409020546001600160a01b03166117235760405162461bcd60e51b815260206004820152601860248201527f4552433732313a20696e76616c696420746f6b656e20494400000000000000006044820152606401610d34565b600081815261013160205260409020805473ffffffffffffffffffffffffffffffffffffffff19166001600160a01b03841690811790915581906126d682611b7c565b6001600160a01b03167f8c5be1e5ebec7d5bd14f71427d1e84f3dd0314c0f7b2291e5b200ac8c7c3b92560405160405180910390a45050565b33600090815260cc602052604090205460ff166117a3576040517fa1b035c800000000000000000000000000000000000000000000000000000000815260040160405180910390fd5b6101c35460ff16156117a35760405162461bcd60e51b815260206004820152601060248201527f5061757361626c653a20706175736564000000000000000000000000000000006044820152606401610d34565b6000816101916000610193600081546127c49061478f565b9182905550815260208101919091526040016000205550506101935490565b6112ef8282604051806020016040528060008152506136a4565b60008061280b8585856123be565b90925090506001600160a01b038216156115825760cb546040516340c10f1960e01b81526001600160a01b03848116600483015260248201849052909116906340c10f1990604401600060405180830381600087803b15801561286d57600080fd5b505af1158015612881573d6000803e3d6000fd5b50505050816001600160a01b03167f41f5e9b898013216884ce15d796265ca96be55c0d8d3abb77689fbf1e96bb737826040516128c091815260200190565b60405180910390a25050505050565b60006128dc82600a614970565b6128e783600a614970565b6128f19085614635565b6128fb919061465c565b6129059084614649565b6000036129285761291782600a614970565b6129219084614635565b9050610ba9565b61293382600a614970565b61293d9084614635565b612921906001614766565b600061295560058361497c565b600003612960575090565b61296b60058361497c565b612976906005614649565b610ba99083614766565b60008061298c83611b7c565b9050806001600160a01b0316846001600160a01b031614806129d457506001600160a01b038082166000908152610132602090815260408083209388168352929052205460ff165b806129f85750836001600160a01b03166129ed84610c7c565b6001600160a01b0316145b949350505050565b826001600160a01b0316612a1382611b7c565b6001600160a01b031614612a8f5760405162461bcd60e51b815260206004820152602560248201527f4552433732313a207472616e736665722066726f6d20696e636f72726563742060448201527f6f776e65720000000000000000000000000000000000000000000000000000006064820152608401610d34565b6001600160a01b038216612b0a5760405162461bcd60e51b8152602060048201526024808201527f4552433732313a207472616e7366657220746f20746865207a65726f2061646460448201527f72657373000000000000000000000000000000000000000000000000000000006064820152608401610d34565b612b17838383600161372d565b826001600160a01b0316612b2a82611b7c565b6001600160a01b031614612ba65760405162461bcd60e51b815260206004820152602560248201527f4552433732313a207472616e736665722066726f6d20696e636f72726563742060448201527f6f776e65720000000000000000000000000000000000000000000000000000006064820152608401610d34565b600081815261013160209081526040808320805473ffffffffffffffffffffffffffffffffffffffff199081169091556001600160a01b03878116808652610130855283862080546000190190559087168086528386208054600101905586865261012f90945282852080549092168417909155905184937fddf252ad1be2c89b69c2b068fc378daa952ba7f163c4a11628f55a4df523b3ef91a4505050565b6033546001600160a01b031633146117235760405162461bcd60e51b815260206004820152601d60248201527f536166654f776e61626c653a2063616c6c6572206e6f74206f776e65720000006044820152606401610d34565b7f4910fdfa16fed3260ed0e7147f7cc6da11a60208b5b9406d12a635614ffd91435460ff1615612cd357610df4836137b7565b826001600160a01b03166352d1902d6040518163ffffffff1660e01b8152600401602060405180830381865afa925050508015612d2d575060408051601f3d908101601f19168201909252612d2a91810190614990565b60015b612d9f5760405162461bcd60e51b815260206004820152602e60248201527f45524331393637557067726164653a206e657720696d706c656d656e7461746960448201527f6f6e206973206e6f7420555550530000000000000000000000000000000000006064820152608401610d34565b7f360894a13ba1a3210667c828492db98dca3e2076cc3735a920a3ca505d382bbc8114612e345760405162461bcd60e51b815260206004820152602960248201527f45524331393637557067726164653a20756e737570706f727465642070726f7860448201527f6961626c655555494400000000000000000000000000000000000000000000006064820152608401610d34565b50610df4838383613882565b6033546034546040516001600160a01b03928316929091169082907f8be0079c531659141344cd1fd0a4f28419497f9722a3daafe3b4186f6b6457e090600090a350603480546033805473ffffffffffffffffffffffffffffffffffffffff199081166001600160a01b03841617909155169055565b600261015f5403612f095760405162461bcd60e51b815260206004820152601f60248201527f5265656e7472616e637947756172643a207265656e7472616e742063616c6c006044820152606401610d34565b600261015f55565b60c954341015612f4d576040517f5945ea5600000000000000000000000000000000000000000000000000000000815260040160405180910390fd5b60c95433906108fc90612f609034614649565b6040518115909202916000818181858888f19350505050158015612f88573d6000803e3d6000fd5b506000612f9882602001516110b8565b8251612fa390612525565b612fad9190614766565b60cb546040517f79cc6790000000000000000000000000000000000000000000000000000000008152336004820152602481018390529192506001600160a01b0316906379cc679090604401600060405180830381600087803b15801561301357600080fd5b505af1158015613027573d6000803e3d6000fd5b50505060208084015184516040518581529193509133917f617b1a2bf0533cea0c5dd46104e1d48f8b290fc7d7360dba0182dbf07a00e46a910160405180910390a45050565b33600090815260d160205260409020546001600160a01b03166117235733600081815260d16020908152604091829020805473ffffffffffffffffffffffffffffffffffffffff19166001600160a01b0386169081179091558251938452908301527f677cd8c8ce12dc7827579d65be5e6efa74b6ac9ab04ac43d4648dc85d328c2ae910161205e565b600161015f55565b7fb53127684a568b3173ae13b9f8a6016e243e63b6e8ee1178d6a717850b5d6103819055603380546001600160a01b0380841673ffffffffffffffffffffffffffffffffffffffff19831681179093556040519116919082907f8be0079c531659141344cd1fd0a4f28419497f9722a3daafe3b4186f6b6457e090600090a35050565b600054610100900460ff166131ed5760405162461bcd60e51b815260206004820152602b60248201527f496e697469616c697a61626c653a20636f6e7472616374206973206e6f74206960448201526a6e697469616c697a696e6760a81b6064820152608401610d34565b611723816138a7565b600054610100900460ff166132615760405162461bcd60e51b815260206004820152602b60248201527f496e697469616c697a61626c653a20636f6e7472616374206973206e6f74206960448201526a6e697469616c697a696e6760a81b6064820152608401610d34565b6112ef828261391b565b600054610100900460ff166132d65760405162461bcd60e51b815260206004820152602b60248201527f496e697469616c697a61626c653a20636f6e7472616374206973206e6f74206960448201526a6e697469616c697a696e6760a81b6064820152608401610d34565b6117a36139a1565b600054610100900460ff166133495760405162461bcd60e51b815260206004820152602b60248201527f496e697469616c697a61626c653a20636f6e7472616374206973206e6f74206960448201526a6e697469616c697a696e6760a81b6064820152608401610d34565b6117a3613a0c565b60cb546040517fd505accf000000000000000000000000000000000000000000000000000000008152336004820152306024820152604481018790526064810186905260ff8316608482015260a4810185905260c481018490526001600160a01b039091169063d505accf9060e401600060405180830381600087803b1580156133da57600080fd5b505af11580156133ee573d6000803e3d6000fd5b505050505050505050565b816001600160a01b0316836001600160a01b03160361345a5760405162461bcd60e51b815260206004820152601960248201527f4552433732313a20617070726f766520746f2063616c6c6572000000000000006044820152606401610d34565b6001600160a01b0383811660008181526101326020908152604080832094871680845294825291829020805460ff191686151590811790915591519182527f17307eab39ab6107e8899845ad3d59bd9653f200f220920489ca2b5937696c31910160405180910390a3505050565b6134d3848484612a00565b6134df84848484613a84565b6121dc5760405162461bcd60e51b815260206004820152603260248201527f4552433732313a207472616e7366657220746f206e6f6e20455243373231526560448201527f63656976657220696d706c656d656e74657200000000000000000000000000006064820152608401610d34565b6060815160000361357057505060408051602081019091526000815290565b6000604051806060016040528060408152602001614b2d604091399050600060038451600261359f9190614766565b6135a99190614635565b6135b490600461465c565b67ffffffffffffffff8111156135cc576135cc6141d2565b6040519080825280601f01601f1916602001820160405280156135f6576020820181803683370190505b509050600182016020820185865187015b80821015613662576003820191508151603f8160121c168501518453600184019350603f81600c1c168501518453600184019350603f8160061c168501518453600184019350603f8116850151845350600183019250613607565b505060038651066001811461367e576002811461369157613699565b603d6001830353603d6002830353613699565b603d60018303535b509195945050505050565b6136ae8383613c25565b6136bb6000848484613a84565b610df45760405162461bcd60e51b815260206004820152603260248201527f4552433732313a207472616e7366657220746f206e6f6e20455243373231526560448201527f63656976657220696d706c656d656e74657200000000000000000000000000006064820152608401610d34565b60018111156121dc576001600160a01b03841615613774576001600160a01b038416600090815261013060205260408120805483929061376e908490614649565b90915550505b6001600160a01b038316156121dc576001600160a01b03831660009081526101306020526040812080548392906137ac908490614766565b909155505050505050565b6001600160a01b0381163b6138345760405162461bcd60e51b815260206004820152602d60248201527f455243313936373a206e657720696d706c656d656e746174696f6e206973206e60448201527f6f74206120636f6e7472616374000000000000000000000000000000000000006064820152608401610d34565b7f360894a13ba1a3210667c828492db98dca3e2076cc3735a920a3ca505d382bbc805473ffffffffffffffffffffffffffffffffffffffff19166001600160a01b0392909216919091179055565b61388b83613dcf565b6000825111806138985750805b15610df4576121dc8383613e0f565b600054610100900460ff166139125760405162461bcd60e51b815260206004820152602b60248201527f496e697469616c697a61626c653a20636f6e7472616374206973206e6f74206960448201526a6e697469616c697a696e6760a81b6064820152608401610d34565b611723816130ff565b600054610100900460ff166139865760405162461bcd60e51b815260206004820152602b60248201527f496e697469616c697a61626c653a20636f6e7472616374206973206e6f74206960448201526a6e697469616c697a696e6760a81b6064820152608401610d34565b61012d61399383826149f7565b5061012e610df482826149f7565b600054610100900460ff166130f75760405162461bcd60e51b815260206004820152602b60248201527f496e697469616c697a61626c653a20636f6e7472616374206973206e6f74206960448201526a6e697469616c697a696e6760a81b6064820152608401610d34565b600054610100900460ff16613a775760405162461bcd60e51b815260206004820152602b60248201527f496e697469616c697a61626c653a20636f6e7472616374206973206e6f74206960448201526a6e697469616c697a696e6760a81b6064820152608401610d34565b6101c3805460ff19169055565b60006001600160a01b0384163b15613c1a576040517f150b7a020000000000000000000000000000000000000000000000000000000081526001600160a01b0385169063150b7a0290613ae1903390899088908890600401614ab7565b6020604051808303816000875af1925050508015613b1c575060408051601f3d908101601f19168201909252613b1991810190614af3565b60015b613bcf573d808015613b4a576040519150601f19603f3d011682016040523d82523d6000602084013e613b4f565b606091505b508051600003613bc75760405162461bcd60e51b815260206004820152603260248201527f4552433732313a207472616e7366657220746f206e6f6e20455243373231526560448201527f63656976657220696d706c656d656e74657200000000000000000000000000006064820152608401610d34565b805181602001fd5b7fffffffff00000000000000000000000000000000000000000000000000000000167f150b7a02000000000000000000000000000000000000000000000000000000001490506129f8565b506001949350505050565b6001600160a01b038216613c7b5760405162461bcd60e51b815260206004820181905260248201527f4552433732313a206d696e7420746f20746865207a65726f20616464726573736044820152606401610d34565b600081815261012f60205260409020546001600160a01b031615613ce15760405162461bcd60e51b815260206004820152601c60248201527f4552433732313a20746f6b656e20616c7265616479206d696e746564000000006044820152606401610d34565b613cef60008383600161372d565b600081815261012f60205260409020546001600160a01b031615613d555760405162461bcd60e51b815260206004820152601c60248201527f4552433732313a20746f6b656e20616c7265616479206d696e746564000000006044820152606401610d34565b6001600160a01b0382166000818152610130602090815260408083208054600101905584835261012f909152808220805473ffffffffffffffffffffffffffffffffffffffff19168417905551839291907fddf252ad1be2c89b69c2b068fc378daa952ba7f163c4a11628f55a4df523b3ef908290a45050565b613dd8816137b7565b6040516001600160a01b038216907fbc7cd75a20ee27fd9adebab32041f755214dbc6bffa90cc0225b39da2e5c2d3b90600090a250565b60606001600160a01b0383163b613e8e5760405162461bcd60e51b815260206004820152602660248201527f416464726573733a2064656c65676174652063616c6c20746f206e6f6e2d636f60448201527f6e747261637400000000000000000000000000000000000000000000000000006064820152608401610d34565b600080846001600160a01b031684604051613ea99190614b10565b600060405180830381855af49150503d8060008114613ee4576040519150601f19603f3d011682016040523d82523d6000602084013e613ee9565b606091505b5091509150613f118282604051806060016040528060278152602001614b6d60279139613f1a565b95945050505050565b60608315613f29575081613f33565b613f338383613f3a565b9392505050565b815115613f4a5781518083602001fd5b8060405162461bcd60e51b8152600401610d349190614018565b7fffffffff000000000000000000000000000000000000000000000000000000008116811461172357600080fd5b600060208284031215613fa457600080fd5b8135613f3381613f64565b600060208284031215613fc157600080fd5b5035919050565b60005b83811015613fe3578181015183820152602001613fcb565b50506000910152565b60008151808452614004816020860160208601613fc8565b601f01601f19169290920160200192915050565b602081526000613f336020830184613fec565b6001600160a01b038116811461172357600080fd5b6000806040838503121561405357600080fd5b823561405e8161402b565b946020939093013593505050565b60008060008060008060c0878903121561408557600080fd5b8635955060208701356140978161402b565b95989597505050506040840135936060810135936080820135935060a0909101359150565b6000806000606084860312156140d157600080fd5b83356140dc8161402b565b925060208401356140ec8161402b565b929592945050506040919091013590565b60008083601f84011261410f57600080fd5b50813567ffffffffffffffff81111561412757600080fd5b6020830191508360208260051b850101111561414257600080fd5b9250929050565b6000806000806040858703121561415f57600080fd5b843567ffffffffffffffff8082111561417757600080fd5b614183888389016140fd565b9096509450602087013591508082111561419c57600080fd5b506141a9878288016140fd565b95989497509550505050565b6000602082840312156141c757600080fd5b8135613f338161402b565b634e487b7160e01b600052604160045260246000fd5b604051601f8201601f1916810167ffffffffffffffff81118282101715614211576142116141d2565b604052919050565b600067ffffffffffffffff821115614233576142336141d2565b50601f01601f191660200190565b600082601f83011261425257600080fd5b813561426561426082614219565b6141e8565b81815284602083860101111561427a57600080fd5b816020850160208301376000918101602001919091529392505050565b600080604083850312156142aa57600080fd5b82356142b58161402b565b9150602083013567ffffffffffffffff8111156142d157600080fd5b6142dd85828601614241565b9150509250929050565b6000604082840312156142f957600080fd5b6040516040810181811067ffffffffffffffff8211171561431c5761431c6141d2565b604052823581526020928301359281019290925250919050565b6000806060838503121561434957600080fd5b61435384846142e7565b915060408301356143638161402b565b809150509250929050565b60008060008060008060c0878903121561438757600080fd5b86356143928161402b565b9550602087013594506040870135935060608701356143b08161402b565b9250608087013567ffffffffffffffff808211156143cd57600080fd5b6143d98a838b01614241565b935060a08901359150808211156143ef57600080fd5b506143fc89828a01614241565b9150509295509295509295565b6000806040838503121561441c57600080fd5b50508035926020909101359150565b6000806000806000806000610100888a03121561444757600080fd5b61445189896142e7565b965060408801356144618161402b565b9550606088013594506080880135935060a0880135925060c0880135915060e088013560ff8116811461449357600080fd5b8091505092959891949750929550565b801515811461172357600080fd5b600080604083850312156144c457600080fd5b82356144cf8161402b565b91506020830135614363816144a3565b600080600080608085870312156144f557600080fd5b84356145008161402b565b935060208501356145108161402b565b925060408501359150606085013567ffffffffffffffff81111561453357600080fd5b61453f87828801614241565b91505092959194509250565b60008060006060848603121561456057600080fd5b833561456b8161402b565b95602085013595506040909401359392505050565b6000806040838503121561459357600080fd5b823561459e8161402b565b915060208301356143638161402b565b600181811c908216806145c257607f821691505b6020821081036145e257634e487b7160e01b600052602260045260246000fd5b50919050565b634e487b7160e01b600052601160045260246000fd5b600061ffff808316818103614615576146156145e8565b6001019392505050565b634e487b7160e01b600052601260045260246000fd5b6000826146445761464461461f565b500490565b81810381811115610ba957610ba96145e8565b8082028115828204841417610ba957610ba96145e8565b600181815b808511156146ae578160001904821115614694576146946145e8565b808516156146a157918102915b93841c9390800290614678565b509250929050565b6000826146c557506001610ba9565b816146d257506000610ba9565b81600181146146e857600281146146f25761470e565b6001915050610ba9565b60ff841115614703576147036145e8565b50506001821b610ba9565b5060208310610133831016604e8410600b8410161715614731575081810a610ba9565b61473b8383614673565b806000190482111561474f5761474f6145e8565b029392505050565b6000613f3360ff8416836146b6565b80820180821115610ba957610ba96145e8565b634e487b7160e01b600052603260045260246000fd5b600060001982036147a2576147a26145e8565b5060010190565b6000602082840312156147bb57600080fd5b8151613f33816144a3565b6000602082840312156147d857600080fd5b815167ffffffffffffffff8111156147ef57600080fd5b8201601f8101841361480057600080fd5b805161480e61426082614219565b81815285602083850101111561482357600080fd5b613f11826020830160208601613fc8565b7f7b226e616d65223a20220000000000000000000000000000000000000000000081526000835161486c81600a850160208801613fc8565b7f222c226465736372697074696f6e223a22000000000000000000000000000000600a918401918201527f222c22696d616765223a22000000000000000000000000000000000000000000601b8201527f646174613a696d6167652f7376672b786d6c3b6261736536342c000000000000602682015283516148f5816040840160208801613fc8565b7f227d00000000000000000000000000000000000000000000000000000000000060409290910191820152604201949350505050565b7f646174613a6170706c69636174696f6e2f6a736f6e3b6261736536342c00000081526000825161496381601d850160208701613fc8565b91909101601d0192915050565b6000613f3383836146b6565b60008261498b5761498b61461f565b500690565b6000602082840312156149a257600080fd5b5051919050565b601f821115610df457600081815260208120601f850160051c810160208610156149d05750805b601f850160051c820191505b818110156149ef578281556001016149dc565b505050505050565b815167ffffffffffffffff811115614a1157614a116141d2565b614a2581614a1f84546145ae565b846149a9565b602080601f831160018114614a5a5760008415614a425750858301515b600019600386901b1c1916600185901b1785556149ef565b600085815260208120601f198616915b82811015614a8957888601518255948401946001909101908401614a6a565b5085821015614aa75787850151600019600388901b60f8161c191681555b5050505050600190811b01905550565b60006001600160a01b03808716835280861660208401525083604083015260806060830152614ae96080830184613fec565b9695505050505050565b600060208284031215614b0557600080fd5b8151613f3381613f64565b60008251614b22818460208701613fc8565b919091019291505056fe4142434445464748494a4b4c4d4e4f505152535455565758595a6162636465666768696a6b6c6d6e6f707172737475767778797a303132333435363738392b2f416464726573733a206c6f772d6c6576656c2064656c65676174652063616c6c206661696c6564a26469706673582212201232b3b9ffa8f3938f84cc5533cf42c870017c6ccbe98489b4d2b899ef26856064736f6c63430008110033",
  "deployedBytecode": "0x6080604052600436106103135760003560e01c8063715018a61161019a578063b1bac418116100e1578063d10dfdb11161008a578063e7b8940411610064578063e7b8940414610a40578063e985e9c514610a60578063f11925d714610aaa57600080fd5b8063d10dfdb1146109c3578063e30c397814610a02578063e4421be214610a2057600080fd5b8063b88d4fde116100bb578063b88d4fde1461096c578063c208d41a1461098c578063c87b56dd146109a357600080fd5b8063b1bac418146108f4578063b242e53414610914578063b470a9b51461093457600080fd5b806395d89b4111610143578063a005ec7a1161011d578063a005ec7a1461076f578063a22cb465146108a7578063ac4afa38146108c757600080fd5b806395d89b4114610711578063977a1255146107265780639ca423b31461073957600080fd5b806380619b611161017457806380619b61146106b3578063829a1d09146106d35780638da5cb5b146106f357600080fd5b8063715018a614610657578063736c0d5b1461066c578063795dbede1461069c57600080fd5b80633659cfe61161025e5780635c975abb116102075780636352211e116101e15780636352211e14610601578063670506e91461062157806370a082311461063757600080fd5b80635c975abb1461059157806360b127eb146105aa5780636224defd146105ee57600080fd5b80634f1ef286116102385780634f1ef2861461054957806352d1902d1461055c57806358c7a0631461057157600080fd5b80633659cfe6146104f457806342842e0e146105145780634e71e0c81461053457600080fd5b806314050c5a116102c057806323b872dd1161029a57806323b872dd146104865780632ee691a3146104a6578063350b2369146104d457600080fd5b806314050c5a1461041857806316a065c61461044657806317e0f2521461046657600080fd5b8063081812fc116102f1578063081812fc1461039e578063095ea7b3146103d65780630aeb55c8146103f857600080fd5b806301ffc9a714610318578063068bcd8d1461034d57806306fdde031461037c575b600080fd5b34801561032457600080fd5b50610338610333366004613f92565b610aca565b60405190151581526020015b60405180910390f35b34801561035957600080fd5b5061036d610368366004613faf565b610baf565b60405190518152602001610344565b34801561038857600080fd5b50610391610be9565b6040516103449190614018565b3480156103aa57600080fd5b506103be6103b9366004613faf565b610c7c565b6040516001600160a01b039091168152602001610344565b3480156103e257600080fd5b506103f66103f1366004614040565b610ca4565b005b34801561040457600080fd5b506103f661041336600461406c565b610df9565b34801561042457600080fd5b50610438610433366004613faf565b6110b8565b604051908152602001610344565b34801561045257600080fd5b5060cb546103be906001600160a01b031681565b34801561047257600080fd5b506103f6610481366004613faf565b611268565b34801561049257600080fd5b506103f66104a13660046140bc565b6112f3565b3480156104b257600080fd5b506104386104c1366004613faf565b6101916020526000908152604090205481565b3480156104e057600080fd5b506103f66104ef366004614149565b61137a565b34801561050057600080fd5b506103f661050f3660046141b5565b611589565b34801561052057600080fd5b506103f661052f3660046140bc565b611726565b34801561054057600080fd5b506103f6611741565b6103f6610557366004614297565b6117a5565b34801561056857600080fd5b5061043861192f565b34801561057d57600080fd5b506103f661058c366004614040565b6119f4565b34801561059d57600080fd5b506101c35460ff16610338565b3480156105b657600080fd5b506105db6105c53660046141b5565b60cd6020526000908152604090205461ffff1681565b60405161ffff9091168152602001610344565b6103f66105fc366004614336565b611b4f565b34801561060d57600080fd5b506103be61061c366004613faf565b611b7c565b34801561062d57600080fd5b5061043860c95481565b34801561064357600080fd5b506104386106523660046141b5565b611be2565b34801561066357600080fd5b506103f6611c7d565b34801561067857600080fd5b506103386106873660046141b5565b60cc6020526000908152604090205460ff1681565b3480156106a857600080fd5b506104386101935481565b3480156106bf57600080fd5b506103f66106ce36600461436e565b611ce1565b3480156106df57600080fd5b506103f66106ee366004614409565b611e4f565b3480156106ff57600080fd5b506033546001600160a01b03166103be565b34801561071d57600080fd5b50610391611f7e565b6103f661073436600461442b565b611f8e565b34801561074557600080fd5b506103be6107543660046141b5565b60d1602052600090815260409020546001600160a01b031681565b34801561077b57600080fd5b5061084461078a366004613faf565b60ce6020526000908152604090208054600182015460029092015490916001600160a01b0381169174010000000000000000000000000000000000000000820461ffff90811692760100000000000000000000000000000000000000000000810490911691780100000000000000000000000000000000000000000000000090910467ffffffffffffffff16906fffffffffffffffffffffffffffffffff8082169170010000000000000000000000000000000090041687565b604080519788526001600160a01b03909616602088015261ffff9485169587019590955292909116606085015267ffffffffffffffff1660808401526fffffffffffffffffffffffffffffffff90811660a08401521660c082015260e001610344565b3480156108b357600080fd5b506103f66108c23660046144b1565b611fc8565b3480156108d357600080fd5b506104386108e2366004613faf565b60cf6020526000908152604090205481565b34801561090057600080fd5b506103f661090f366004613faf565b611fd3565b34801561092057600080fd5b506103f661092f3660046144b1565b612069565b34801561094057600080fd5b5061043861094f366004614040565b60d060209081526000928352604080842090915290825290205481565b34801561097857600080fd5b506103f66109873660046144df565b612154565b34801561099857600080fd5b506104386101945481565b3480156109af57600080fd5b506103916109be366004613faf565b6121e2565b3480156109cf57600080fd5b506109e36109de36600461454b565b6123be565b604080516001600160a01b039093168352602083019190915201610344565b348015610a0e57600080fd5b506034546001600160a01b03166103be565b348015610a2c57600080fd5b506103f6610a3b366004614409565b6123f1565b348015610a4c57600080fd5b50610438610a5b366004613faf565b612525565b348015610a6c57600080fd5b50610338610a7b366004614580565b6001600160a01b0391821660009081526101326020908152604080832093909416825291909152205460ff1690565b348015610ab657600080fd5b506103f6610ac5366004613faf565b61259f565b60007fffffffff0000000000000000000000000000000000000000000000000000000082167f80ac58cd000000000000000000000000000000000000000000000000000000001480610b5d57507fffffffff0000000000000000000000000000000000000000000000000000000082167f5b5e139f00000000000000000000000000000000000000000000000000000000145b80610ba957507f01ffc9a7000000000000000000000000000000000000000000000000000000007fffffffff000000000000000000000000000000000000000000000000000000008316145b92915050565b604080516020810190915260008152610bc78261262e565b50600090815260cf602090815260409182902082519182019092529054815290565b606061012d8054610bf9906145ae565b80601f0160208091040260200160405190810160405280929190818152602001828054610c25906145ae565b8015610c725780601f10610c4757610100808354040283529160200191610c72565b820191906000526020600020905b815481529060010190602001808311610c5557829003601f168201915b5050505050905090565b6000610c878261262e565b50600090815261013160205260409020546001600160a01b031690565b6000610caf82611b7c565b9050806001600160a01b0316836001600160a01b031603610d3d5760405162461bcd60e51b815260206004820152602160248201527f4552433732313a20617070726f76616c20746f2063757272656e74206f776e6560448201527f720000000000000000000000000000000000000000000000000000000000000060648201526084015b60405180910390fd5b336001600160a01b0382161480610d7857506001600160a01b03811660009081526101326020908152604080832033845290915290205460ff165b610dea5760405162461bcd60e51b815260206004820152603d60248201527f4552433732313a20617070726f76652063616c6c6572206973206e6f7420746f60448201527f6b656e206f776e6572206f7220617070726f76656420666f7220616c6c0000006064820152608401610d34565b610df48383612693565b505050565b610e0161270f565b610e09612758565b6000610e14846127ac565b6040805160e0810182528981526001600160a01b0389166020808301829052600091825260cd90528281208054949550919392840192610e579061ffff166145fe565b825461ffff9182166101009390930a83810290830219909116179092558252851660208201526000604082018190526060820152608001610ea0670de0b6b3a764000088614635565b6fffffffffffffffffffffffffffffffff908116909152600083815260ce60209081526040918290208451815590840151600182018054938601516060870151608088015167ffffffffffffffff1678010000000000000000000000000000000000000000000000000277ffffffffffffffffffffffffffffffffffffffffffffffff61ffff928316760100000000000000000000000000000000000000000000021675ffffffffffffffffffffffffffffffffffffffffffff9290931674010000000000000000000000000000000000000000027fffffffffffffffffffff000000000000000000000000000000000000000000009097166001600160a01b03909516949094179590951794909416939093171790915560a083015160c0909301518216700100000000000000000000000000000000029290911691909117600290910155610ff086826127e3565b60cb546040516340c10f1960e01b81526001600160a01b03888116600483015260248201889052909116906340c10f1990604401600060405180830381600087803b15801561103e57600080fd5b505af1158015611052573d6000803e3d6000fd5b505050506110618685876127fd565b80866001600160a01b0316887faf1bba31184b4d13e4f756b22fc2755d77b6ad147f10a7b12ea6afa58a2ca5f687896040516110a7929190918252602082015260400190565b60405180910390a450505050505050565b6000600f8210156110f5576040517fadefc67800000000000000000000000000000000000000000000000000000000815260040160405180910390fd5b601482101561111b57611109600f83614649565b610ba990674563918244f4000061465c565b61112b826509184e72a00061465c565b91506618ec9e919dbfaf60006509184e72a00061114f8566039eb80975860061465c565b6111599190614635565b905060006a52b7d2dcc80cd2e4000000611174600287614757565b61118490652351aa192de061465c565b61118e9190614635565b905060007002f050fe938943acc45f655680000000006111af600388614757565b6111be90643c0c4cb35861465c565b6111c89190614635565b90506000751aba4714957d300d0e549208b31adb100000000000006111ee600489614757565b6111fc906325e3219661465c565b6112069190614635565b90506000828583611217878a614766565b6112219190614766565b61122b9190614649565b6112359190614649565b905061124a61124582600d6128cf565b612948565b61125c90670de0b6b3a764000061465c565b98975050505050505050565b6033546001600160a01b031633146112c25760405162461bcd60e51b815260206004820152601d60248201527f536166654f776e61626c653a2063616c6c6572206e6f74206f776e65720000006044820152606401610d34565b604051339082156108fc029083906000818181858888f193505050501580156112ef573d6000803e3d6000fd5b5050565b6112fd3382612980565b61136f5760405162461bcd60e51b815260206004820152602d60248201527f4552433732313a2063616c6c6572206973206e6f7420746f6b656e206f776e6560448201527f72206f7220617070726f766564000000000000000000000000000000000000006064820152608401610d34565b610df4838383612a00565b6033546001600160a01b031633146113d45760405162461bcd60e51b815260206004820152601d60248201527f536166654f776e61626c653a2063616c6c6572206e6f74206f776e65720000006044820152606401610d34565b60005b838110156114af57600160cc60008787858181106113f7576113f7614779565b905060200201602081019061140c91906141b5565b6001600160a01b031681526020810191909152604001600020805460ff19169115159190911790557fc648f6265408cc54c0dc26d24ba51dfc9f35ce1a63baa2228f65d93aaf11cc6785858381811061146757611467614779565b905060200201602081019061147c91906141b5565b604080516001600160a01b039092168252600160208301520160405180910390a1806114a78161478f565b9150506113d7565b5060005b818110156115825760cc60008484848181106114d1576114d1614779565b90506020020160208101906114e691906141b5565b6001600160a01b031681526020810191909152604001600020805460ff191690557fc648f6265408cc54c0dc26d24ba51dfc9f35ce1a63baa2228f65d93aaf11cc6783838381811061153a5761153a614779565b905060200201602081019061154f91906141b5565b604080516001600160a01b039092168252600060208301520160405180910390a18061157a8161478f565b9150506114b3565b5050505050565b6001600160a01b037f00000000000000000000000000000000000000000000000000000000000000001630036116275760405162461bcd60e51b815260206004820152602c60248201527f46756e6374696f6e206d7573742062652063616c6c6564207468726f7567682060448201527f64656c656761746563616c6c00000000000000000000000000000000000000006064820152608401610d34565b7f00000000000000000000000000000000000000000000000000000000000000006001600160a01b03166116827f360894a13ba1a3210667c828492db98dca3e2076cc3735a920a3ca505d382bbc546001600160a01b031690565b6001600160a01b0316146116fe5760405162461bcd60e51b815260206004820152602c60248201527f46756e6374696f6e206d7573742062652063616c6c6564207468726f7567682060448201527f6163746976652070726f787900000000000000000000000000000000000000006064820152608401610d34565b61170781612c46565b6040805160008082526020820190925261172391839190612ca0565b50565b610df483838360405180602001604052806000815250612154565b6034546001600160a01b0316331461179b5760405162461bcd60e51b815260206004820152601e60248201527f536166654f776e61626c653a2063616c6c657220213d2070656e64696e6700006044820152606401610d34565b6117a3612e40565b565b6001600160a01b037f00000000000000000000000000000000000000000000000000000000000000001630036118435760405162461bcd60e51b815260206004820152602c60248201527f46756e6374696f6e206d7573742062652063616c6c6564207468726f7567682060448201527f64656c656761746563616c6c00000000000000000000000000000000000000006064820152608401610d34565b7f00000000000000000000000000000000000000000000000000000000000000006001600160a01b031661189e7f360894a13ba1a3210667c828492db98dca3e2076cc3735a920a3ca505d382bbc546001600160a01b031690565b6001600160a01b03161461191a5760405162461bcd60e51b815260206004820152602c60248201527f46756e6374696f6e206d7573742062652063616c6c6564207468726f7567682060448201527f6163746976652070726f787900000000000000000000000000000000000000006064820152608401610d34565b61192382612c46565b6112ef82826001612ca0565b6000306001600160a01b037f000000000000000000000000000000000000000000000000000000000000000016146119cf5760405162461bcd60e51b815260206004820152603860248201527f555550535570677261646561626c653a206d757374206e6f742062652063616c60448201527f6c6564207468726f7567682064656c656761746563616c6c00000000000000006064820152608401610d34565b507f360894a13ba1a3210667c828492db98dca3e2076cc3735a920a3ca505d382bbc90565b6119fc61270f565b611a04612758565b72ffffffffffffffffffffffffffffffffffffff600883901c1660009081526101926020526040902054600160ff84161b1615611a6d576040517f3d96ceab00000000000000000000000000000000000000000000000000000000815260040160405180910390fd5b72ffffffffffffffffffffffffffffffffffffff600883901c166000908152610192602052604090208054600160ff85161b17905560cb546040516340c10f1960e01b81526001600160a01b03848116600483015260248201849052909116906340c10f1990604401600060405180830381600087803b158015611af057600080fd5b505af1158015611b04573d6000803e3d6000fd5b50505050816001600160a01b03167f7a0984e898d33e4bf6ad9f851bfab5517683d3dae5b57ed58fa8c7152d822e3282604051611b4391815260200190565b60405180910390a25050565b611b57612758565b611b5f612eb6565b611b6882612f11565b611b718161306d565b6112ef600161015f55565b600081815261012f60205260408120546001600160a01b031680610ba95760405162461bcd60e51b815260206004820152601860248201527f4552433732313a20696e76616c696420746f6b656e20494400000000000000006044820152606401610d34565b60006001600160a01b038216611c605760405162461bcd60e51b815260206004820152602960248201527f4552433732313a2061646472657373207a65726f206973206e6f74206120766160448201527f6c6964206f776e657200000000000000000000000000000000000000000000006064820152608401610d34565b506001600160a01b03166000908152610130602052604090205490565b6033546001600160a01b03163314611cd75760405162461bcd60e51b815260206004820152601d60248201527f536166654f776e61626c653a2063616c6c6572206e6f74206f776e65720000006044820152606401610d34565b6117a360006130ff565b600054610100900460ff1615808015611d015750600054600160ff909116105b80611d1b5750303b158015611d1b575060005460ff166001145b611d8d5760405162461bcd60e51b815260206004820152602e60248201527f496e697469616c697a61626c653a20636f6e747261637420697320616c72656160448201527f647920696e697469616c697a65640000000000000000000000000000000000006064820152608401610d34565b6000805460ff191660011790558015611db0576000805461ff0019166101001790555b60cb805473ffffffffffffffffffffffffffffffffffffffff19166001600160a01b03891617905560c9869055611de684613182565b611df083836131f6565b611df861326b565b611e006132de565b8015611e46576000805461ff0019169055604051600181527f7f26b83ff96e1f2b6a682f133852f6798a09c465da95921460cefb38474024989060200160405180910390a15b50505050505050565b611e57612758565b600082815260cf60205260408120805490918391839190611e79908490614649565b909155505033600090815260d0602090815260408083208684529091528120805490918491839190611eac908490614649565b909155505060cb546040517fa9059cbb000000000000000000000000000000000000000000000000000000008152336004820152602481018590526001600160a01b039091169063a9059cbb906044016020604051808303816000875af1158015611f1b573d6000803e3d6000fd5b505050506040513d601f19601f82011682018060405250810190611f3f91906147a9565b50604051838152849033907f5c09e6483f1552208cf891fa28d135269484ad74a848ad491913fb4b386ffcf0906020015b60405180910390a350505050565b606061012e8054610bf9906145ae565b611f96612758565b611f9e612eb6565b611fab8585858585613351565b611fb487612f11565b611fbd8661306d565b611e46600161015f55565b6112ef3383836133f9565b6033546001600160a01b0316331461202d5760405162461bcd60e51b815260206004820152601d60248201527f536166654f776e61626c653a2063616c6c6572206e6f74206f776e65720000006044820152606401610d34565b60ca8190556040518181527f55a73bd6abec226526cb26266e83ffadccf62ef31c9a3d8d54ac7179b906802f906020015b60405180910390a150565b6033546001600160a01b031633146120c35760405162461bcd60e51b815260206004820152601d60248201527f536166654f776e61626c653a2063616c6c6572206e6f74206f776e65720000006044820152606401610d34565b6001600160a01b0382166121195760405162461bcd60e51b815260206004820152601b60248201527f536166654f776e61626c653a206e6577206f776e6572206973203000000000006044820152606401610d34565b8015612128576112ef826130ff565b6034805473ffffffffffffffffffffffffffffffffffffffff19166001600160a01b0384161790555050565b61215e3383612980565b6121d05760405162461bcd60e51b815260206004820152602d60248201527f4552433732313a2063616c6c6572206973206e6f7420746f6b656e206f776e6560448201527f72206f7220617070726f766564000000000000000000000000000000000000006064820152608401610d34565b6121dc848484846134c8565b50505050565b60606121ed8261262e565b60006123946121fa610be9565b6000858152610191602090815260408083205460ce90925291829020600181015460029091015492517fe2bdd4e700000000000000000000000000000000000000000000000000000000815260c060048083019190915260c48201527f736565640000000000000000000000000000000000000000000000000000000060e48201526024810192909252760100000000000000000000000000000000000000000000810461ffff90811660448401527401000000000000000000000000000000000000000082041660648301526001600160a01b031660848201527001000000000000000000000000000000009091046fffffffffffffffffffffffffffffffff1660a482015261236f9073__$bd4a62aa904e40a751e4c3f6355b6291ee$__9063e2bdd4e79061010401600060405180830381865af4158015612342573d6000803e3d6000fd5b505050506040513d6000823e601f3d908101601f1916820160405261236a91908101906147c6565b613551565b604051602001612380929190614834565b604051602081830303815290604052613551565b9050806040516020016123a7919061492b565b604051602081830303815290604052915050919050565b6001600160a01b03808416600090815260d16020526040812054909116906123e7600584614635565b9050935093915050565b6123f9612758565b6124028261262e565b60cb546040517f23b872dd000000000000000000000000000000000000000000000000000000008152336004820152306024820152604481018390526001600160a01b03909116906323b872dd906064016020604051808303816000875af1158015612472573d6000803e3d6000fd5b505050506040513d601f19601f8201168201806040525081019061249691906147a9565b50600082815260cf602052604081208054909183918391906124b9908490614766565b909155505033600090815260d06020908152604080832086845290915281208054909184918391906124ec908490614766565b9091555050604051838152849033907f58c7b3bf0b0e168048426c1e9443a72696526292ca664e18b11f934cd6cfbbf390602001611f70565b600060038210806125365750600882115b1561256d576040517f802f637400000000000000000000000000000000000000000000000000000000815260040160405180910390fd5b612578600383614649565b61258390600c61465c565b60ca54901c610fff16670de0b6b3a7640000610ba9919061465c565b6033546001600160a01b031633146125f95760405162461bcd60e51b815260206004820152601d60248201527f536166654f776e61626c653a2063616c6c6572206e6f74206f776e65720000006044820152606401610d34565b60c98190556040518181527fae0c05ecd507ea9cded837adb5c433fa5e8c24ef117806d7050ec4432a743f1d9060200161205e565b600081815261012f60205260409020546001600160a01b03166117235760405162461bcd60e51b815260206004820152601860248201527f4552433732313a20696e76616c696420746f6b656e20494400000000000000006044820152606401610d34565b600081815261013160205260409020805473ffffffffffffffffffffffffffffffffffffffff19166001600160a01b03841690811790915581906126d682611b7c565b6001600160a01b03167f8c5be1e5ebec7d5bd14f71427d1e84f3dd0314c0f7b2291e5b200ac8c7c3b92560405160405180910390a45050565b33600090815260cc602052604090205460ff166117a3576040517fa1b035c800000000000000000000000000000000000000000000000000000000815260040160405180910390fd5b6101c35460ff16156117a35760405162461bcd60e51b815260206004820152601060248201527f5061757361626c653a20706175736564000000000000000000000000000000006044820152606401610d34565b6000816101916000610193600081546127c49061478f565b9182905550815260208101919091526040016000205550506101935490565b6112ef8282604051806020016040528060008152506136a4565b60008061280b8585856123be565b90925090506001600160a01b038216156115825760cb546040516340c10f1960e01b81526001600160a01b03848116600483015260248201849052909116906340c10f1990604401600060405180830381600087803b15801561286d57600080fd5b505af1158015612881573d6000803e3d6000fd5b50505050816001600160a01b03167f41f5e9b898013216884ce15d796265ca96be55c0d8d3abb77689fbf1e96bb737826040516128c091815260200190565b60405180910390a25050505050565b60006128dc82600a614970565b6128e783600a614970565b6128f19085614635565b6128fb919061465c565b6129059084614649565b6000036129285761291782600a614970565b6129219084614635565b9050610ba9565b61293382600a614970565b61293d9084614635565b612921906001614766565b600061295560058361497c565b600003612960575090565b61296b60058361497c565b612976906005614649565b610ba99083614766565b60008061298c83611b7c565b9050806001600160a01b0316846001600160a01b031614806129d457506001600160a01b038082166000908152610132602090815260408083209388168352929052205460ff165b806129f85750836001600160a01b03166129ed84610c7c565b6001600160a01b0316145b949350505050565b826001600160a01b0316612a1382611b7c565b6001600160a01b031614612a8f5760405162461bcd60e51b815260206004820152602560248201527f4552433732313a207472616e736665722066726f6d20696e636f72726563742060448201527f6f776e65720000000000000000000000000000000000000000000000000000006064820152608401610d34565b6001600160a01b038216612b0a5760405162461bcd60e51b8152602060048201526024808201527f4552433732313a207472616e7366657220746f20746865207a65726f2061646460448201527f72657373000000000000000000000000000000000000000000000000000000006064820152608401610d34565b612b17838383600161372d565b826001600160a01b0316612b2a82611b7c565b6001600160a01b031614612ba65760405162461bcd60e51b815260206004820152602560248201527f4552433732313a207472616e736665722066726f6d20696e636f72726563742060448201527f6f776e65720000000000000000000000000000000000000000000000000000006064820152608401610d34565b600081815261013160209081526040808320805473ffffffffffffffffffffffffffffffffffffffff199081169091556001600160a01b03878116808652610130855283862080546000190190559087168086528386208054600101905586865261012f90945282852080549092168417909155905184937fddf252ad1be2c89b69c2b068fc378daa952ba7f163c4a11628f55a4df523b3ef91a4505050565b6033546001600160a01b031633146117235760405162461bcd60e51b815260206004820152601d60248201527f536166654f776e61626c653a2063616c6c6572206e6f74206f776e65720000006044820152606401610d34565b7f4910fdfa16fed3260ed0e7147f7cc6da11a60208b5b9406d12a635614ffd91435460ff1615612cd357610df4836137b7565b826001600160a01b03166352d1902d6040518163ffffffff1660e01b8152600401602060405180830381865afa925050508015612d2d575060408051601f3d908101601f19168201909252612d2a91810190614990565b60015b612d9f5760405162461bcd60e51b815260206004820152602e60248201527f45524331393637557067726164653a206e657720696d706c656d656e7461746960448201527f6f6e206973206e6f7420555550530000000000000000000000000000000000006064820152608401610d34565b7f360894a13ba1a3210667c828492db98dca3e2076cc3735a920a3ca505d382bbc8114612e345760405162461bcd60e51b815260206004820152602960248201527f45524331393637557067726164653a20756e737570706f727465642070726f7860448201527f6961626c655555494400000000000000000000000000000000000000000000006064820152608401610d34565b50610df4838383613882565b6033546034546040516001600160a01b03928316929091169082907f8be0079c531659141344cd1fd0a4f28419497f9722a3daafe3b4186f6b6457e090600090a350603480546033805473ffffffffffffffffffffffffffffffffffffffff199081166001600160a01b03841617909155169055565b600261015f5403612f095760405162461bcd60e51b815260206004820152601f60248201527f5265656e7472616e637947756172643a207265656e7472616e742063616c6c006044820152606401610d34565b600261015f55565b60c954341015612f4d576040517f5945ea5600000000000000000000000000000000000000000000000000000000815260040160405180910390fd5b60c95433906108fc90612f609034614649565b6040518115909202916000818181858888f19350505050158015612f88573d6000803e3d6000fd5b506000612f9882602001516110b8565b8251612fa390612525565b612fad9190614766565b60cb546040517f79cc6790000000000000000000000000000000000000000000000000000000008152336004820152602481018390529192506001600160a01b0316906379cc679090604401600060405180830381600087803b15801561301357600080fd5b505af1158015613027573d6000803e3d6000fd5b50505060208084015184516040518581529193509133917f617b1a2bf0533cea0c5dd46104e1d48f8b290fc7d7360dba0182dbf07a00e46a910160405180910390a45050565b33600090815260d160205260409020546001600160a01b03166117235733600081815260d16020908152604091829020805473ffffffffffffffffffffffffffffffffffffffff19166001600160a01b0386169081179091558251938452908301527f677cd8c8ce12dc7827579d65be5e6efa74b6ac9ab04ac43d4648dc85d328c2ae910161205e565b600161015f55565b7fb53127684a568b3173ae13b9f8a6016e243e63b6e8ee1178d6a717850b5d6103819055603380546001600160a01b0380841673ffffffffffffffffffffffffffffffffffffffff19831681179093556040519116919082907f8be0079c531659141344cd1fd0a4f28419497f9722a3daafe3b4186f6b6457e090600090a35050565b600054610100900460ff166131ed5760405162461bcd60e51b815260206004820152602b60248201527f496e697469616c697a61626c653a20636f6e7472616374206973206e6f74206960448201526a6e697469616c697a696e6760a81b6064820152608401610d34565b611723816138a7565b600054610100900460ff166132615760405162461bcd60e51b815260206004820152602b60248201527f496e697469616c697a61626c653a20636f6e7472616374206973206e6f74206960448201526a6e697469616c697a696e6760a81b6064820152608401610d34565b6112ef828261391b565b600054610100900460ff166132d65760405162461bcd60e51b815260206004820152602b60248201527f496e697469616c697a61626c653a20636f6e7472616374206973206e6f74206960448201526a6e697469616c697a696e6760a81b6064820152608401610d34565b6117a36139a1565b600054610100900460ff166133495760405162461bcd60e51b815260206004820152602b60248201527f496e697469616c697a61626c653a20636f6e7472616374206973206e6f74206960448201526a6e697469616c697a696e6760a81b6064820152608401610d34565b6117a3613a0c565b60cb546040517fd505accf000000000000000000000000000000000000000000000000000000008152336004820152306024820152604481018790526064810186905260ff8316608482015260a4810185905260c481018490526001600160a01b039091169063d505accf9060e401600060405180830381600087803b1580156133da57600080fd5b505af11580156133ee573d6000803e3d6000fd5b505050505050505050565b816001600160a01b0316836001600160a01b03160361345a5760405162461bcd60e51b815260206004820152601960248201527f4552433732313a20617070726f766520746f2063616c6c6572000000000000006044820152606401610d34565b6001600160a01b0383811660008181526101326020908152604080832094871680845294825291829020805460ff191686151590811790915591519182527f17307eab39ab6107e8899845ad3d59bd9653f200f220920489ca2b5937696c31910160405180910390a3505050565b6134d3848484612a00565b6134df84848484613a84565b6121dc5760405162461bcd60e51b815260206004820152603260248201527f4552433732313a207472616e7366657220746f206e6f6e20455243373231526560448201527f63656976657220696d706c656d656e74657200000000000000000000000000006064820152608401610d34565b6060815160000361357057505060408051602081019091526000815290565b6000604051806060016040528060408152602001614b2d604091399050600060038451600261359f9190614766565b6135a99190614635565b6135b490600461465c565b67ffffffffffffffff8111156135cc576135cc6141d2565b6040519080825280601f01601f1916602001820160405280156135f6576020820181803683370190505b509050600182016020820185865187015b80821015613662576003820191508151603f8160121c168501518453600184019350603f81600c1c168501518453600184019350603f8160061c168501518453600184019350603f8116850151845350600183019250613607565b505060038651066001811461367e576002811461369157613699565b603d6001830353603d6002830353613699565b603d60018303535b509195945050505050565b6136ae8383613c25565b6136bb6000848484613a84565b610df45760405162461bcd60e51b815260206004820152603260248201527f4552433732313a207472616e7366657220746f206e6f6e20455243373231526560448201527f63656976657220696d706c656d656e74657200000000000000000000000000006064820152608401610d34565b60018111156121dc576001600160a01b03841615613774576001600160a01b038416600090815261013060205260408120805483929061376e908490614649565b90915550505b6001600160a01b038316156121dc576001600160a01b03831660009081526101306020526040812080548392906137ac908490614766565b909155505050505050565b6001600160a01b0381163b6138345760405162461bcd60e51b815260206004820152602d60248201527f455243313936373a206e657720696d706c656d656e746174696f6e206973206e60448201527f6f74206120636f6e7472616374000000000000000000000000000000000000006064820152608401610d34565b7f360894a13ba1a3210667c828492db98dca3e2076cc3735a920a3ca505d382bbc805473ffffffffffffffffffffffffffffffffffffffff19166001600160a01b0392909216919091179055565b61388b83613dcf565b6000825111806138985750805b15610df4576121dc8383613e0f565b600054610100900460ff166139125760405162461bcd60e51b815260206004820152602b60248201527f496e697469616c697a61626c653a20636f6e7472616374206973206e6f74206960448201526a6e697469616c697a696e6760a81b6064820152608401610d34565b611723816130ff565b600054610100900460ff166139865760405162461bcd60e51b815260206004820152602b60248201527f496e697469616c697a61626c653a20636f6e7472616374206973206e6f74206960448201526a6e697469616c697a696e6760a81b6064820152608401610d34565b61012d61399383826149f7565b5061012e610df482826149f7565b600054610100900460ff166130f75760405162461bcd60e51b815260206004820152602b60248201527f496e697469616c697a61626c653a20636f6e7472616374206973206e6f74206960448201526a6e697469616c697a696e6760a81b6064820152608401610d34565b600054610100900460ff16613a775760405162461bcd60e51b815260206004820152602b60248201527f496e697469616c697a61626c653a20636f6e7472616374206973206e6f74206960448201526a6e697469616c697a696e6760a81b6064820152608401610d34565b6101c3805460ff19169055565b60006001600160a01b0384163b15613c1a576040517f150b7a020000000000000000000000000000000000000000000000000000000081526001600160a01b0385169063150b7a0290613ae1903390899088908890600401614ab7565b6020604051808303816000875af1925050508015613b1c575060408051601f3d908101601f19168201909252613b1991810190614af3565b60015b613bcf573d808015613b4a576040519150601f19603f3d011682016040523d82523d6000602084013e613b4f565b606091505b508051600003613bc75760405162461bcd60e51b815260206004820152603260248201527f4552433732313a207472616e7366657220746f206e6f6e20455243373231526560448201527f63656976657220696d706c656d656e74657200000000000000000000000000006064820152608401610d34565b805181602001fd5b7fffffffff00000000000000000000000000000000000000000000000000000000167f150b7a02000000000000000000000000000000000000000000000000000000001490506129f8565b506001949350505050565b6001600160a01b038216613c7b5760405162461bcd60e51b815260206004820181905260248201527f4552433732313a206d696e7420746f20746865207a65726f20616464726573736044820152606401610d34565b600081815261012f60205260409020546001600160a01b031615613ce15760405162461bcd60e51b815260206004820152601c60248201527f4552433732313a20746f6b656e20616c7265616479206d696e746564000000006044820152606401610d34565b613cef60008383600161372d565b600081815261012f60205260409020546001600160a01b031615613d555760405162461bcd60e51b815260206004820152601c60248201527f4552433732313a20746f6b656e20616c7265616479206d696e746564000000006044820152606401610d34565b6001600160a01b0382166000818152610130602090815260408083208054600101905584835261012f909152808220805473ffffffffffffffffffffffffffffffffffffffff19168417905551839291907fddf252ad1be2c89b69c2b068fc378daa952ba7f163c4a11628f55a4df523b3ef908290a45050565b613dd8816137b7565b6040516001600160a01b038216907fbc7cd75a20ee27fd9adebab32041f755214dbc6bffa90cc0225b39da2e5c2d3b90600090a250565b60606001600160a01b0383163b613e8e5760405162461bcd60e51b815260206004820152602660248201527f416464726573733a2064656c65676174652063616c6c20746f206e6f6e2d636f60448201527f6e747261637400000000000000000000000000000000000000000000000000006064820152608401610d34565b600080846001600160a01b031684604051613ea99190614b10565b600060405180830381855af49150503d8060008114613ee4576040519150601f19603f3d011682016040523d82523d6000602084013e613ee9565b606091505b5091509150613f118282604051806060016040528060278152602001614b6d60279139613f1a565b95945050505050565b60608315613f29575081613f33565b613f338383613f3a565b9392505050565b815115613f4a5781518083602001fd5b8060405162461bcd60e51b8152600401610d349190614018565b7fffffffff000000000000000000000000000000000000000000000000000000008116811461172357600080fd5b600060208284031215613fa457600080fd5b8135613f3381613f64565b600060208284031215613fc157600080fd5b5035919050565b60005b83811015613fe3578181015183820152602001613fcb565b50506000910152565b60008151808452614004816020860160208601613fc8565b601f01601f19169290920160200192915050565b602081526000613f336020830184613fec565b6001600160a01b038116811461172357600080fd5b6000806040838503121561405357600080fd5b823561405e8161402b565b946020939093013593505050565b60008060008060008060c0878903121561408557600080fd5b8635955060208701356140978161402b565b95989597505050506040840135936060810135936080820135935060a0909101359150565b6000806000606084860312156140d157600080fd5b83356140dc8161402b565b925060208401356140ec8161402b565b929592945050506040919091013590565b60008083601f84011261410f57600080fd5b50813567ffffffffffffffff81111561412757600080fd5b6020830191508360208260051b850101111561414257600080fd5b9250929050565b6000806000806040858703121561415f57600080fd5b843567ffffffffffffffff8082111561417757600080fd5b614183888389016140fd565b9096509450602087013591508082111561419c57600080fd5b506141a9878288016140fd565b95989497509550505050565b6000602082840312156141c757600080fd5b8135613f338161402b565b634e487b7160e01b600052604160045260246000fd5b604051601f8201601f1916810167ffffffffffffffff81118282101715614211576142116141d2565b604052919050565b600067ffffffffffffffff821115614233576142336141d2565b50601f01601f191660200190565b600082601f83011261425257600080fd5b813561426561426082614219565b6141e8565b81815284602083860101111561427a57600080fd5b816020850160208301376000918101602001919091529392505050565b600080604083850312156142aa57600080fd5b82356142b58161402b565b9150602083013567ffffffffffffffff8111156142d157600080fd5b6142dd85828601614241565b9150509250929050565b6000604082840312156142f957600080fd5b6040516040810181811067ffffffffffffffff8211171561431c5761431c6141d2565b604052823581526020928301359281019290925250919050565b6000806060838503121561434957600080fd5b61435384846142e7565b915060408301356143638161402b565b809150509250929050565b60008060008060008060c0878903121561438757600080fd5b86356143928161402b565b9550602087013594506040870135935060608701356143b08161402b565b9250608087013567ffffffffffffffff808211156143cd57600080fd5b6143d98a838b01614241565b935060a08901359150808211156143ef57600080fd5b506143fc89828a01614241565b9150509295509295509295565b6000806040838503121561441c57600080fd5b50508035926020909101359150565b6000806000806000806000610100888a03121561444757600080fd5b61445189896142e7565b965060408801356144618161402b565b9550606088013594506080880135935060a0880135925060c0880135915060e088013560ff8116811461449357600080fd5b8091505092959891949750929550565b801515811461172357600080fd5b600080604083850312156144c457600080fd5b82356144cf8161402b565b91506020830135614363816144a3565b600080600080608085870312156144f557600080fd5b84356145008161402b565b935060208501356145108161402b565b925060408501359150606085013567ffffffffffffffff81111561453357600080fd5b61453f87828801614241565b91505092959194509250565b60008060006060848603121561456057600080fd5b833561456b8161402b565b95602085013595506040909401359392505050565b6000806040838503121561459357600080fd5b823561459e8161402b565b915060208301356143638161402b565b600181811c908216806145c257607f821691505b6020821081036145e257634e487b7160e01b600052602260045260246000fd5b50919050565b634e487b7160e01b600052601160045260246000fd5b600061ffff808316818103614615576146156145e8565b6001019392505050565b634e487b7160e01b600052601260045260246000fd5b6000826146445761464461461f565b500490565b81810381811115610ba957610ba96145e8565b8082028115828204841417610ba957610ba96145e8565b600181815b808511156146ae578160001904821115614694576146946145e8565b808516156146a157918102915b93841c9390800290614678565b509250929050565b6000826146c557506001610ba9565b816146d257506000610ba9565b81600181146146e857600281146146f25761470e565b6001915050610ba9565b60ff841115614703576147036145e8565b50506001821b610ba9565b5060208310610133831016604e8410600b8410161715614731575081810a610ba9565b61473b8383614673565b806000190482111561474f5761474f6145e8565b029392505050565b6000613f3360ff8416836146b6565b80820180821115610ba957610ba96145e8565b634e487b7160e01b600052603260045260246000fd5b600060001982036147a2576147a26145e8565b5060010190565b6000602082840312156147bb57600080fd5b8151613f33816144a3565b6000602082840312156147d857600080fd5b815167ffffffffffffffff8111156147ef57600080fd5b8201601f8101841361480057600080fd5b805161480e61426082614219565b81815285602083850101111561482357600080fd5b613f11826020830160208601613fc8565b7f7b226e616d65223a20220000000000000000000000000000000000000000000081526000835161486c81600a850160208801613fc8565b7f222c226465736372697074696f6e223a22000000000000000000000000000000600a918401918201527f222c22696d616765223a22000000000000000000000000000000000000000000601b8201527f646174613a696d6167652f7376672b786d6c3b6261736536342c000000000000602682015283516148f5816040840160208801613fc8565b7f227d00000000000000000000000000000000000000000000000000000000000060409290910191820152604201949350505050565b7f646174613a6170706c69636174696f6e2f6a736f6e3b6261736536342c00000081526000825161496381601d850160208701613fc8565b91909101601d0192915050565b6000613f3383836146b6565b60008261498b5761498b61461f565b500690565b6000602082840312156149a257600080fd5b5051919050565b601f821115610df457600081815260208120601f850160051c810160208610156149d05750805b601f850160051c820191505b818110156149ef578281556001016149dc565b505050505050565b815167ffffffffffffffff811115614a1157614a116141d2565b614a2581614a1f84546145ae565b846149a9565b602080601f831160018114614a5a5760008415614a425750858301515b600019600386901b1c1916600185901b1785556149ef565b600085815260208120601f198616915b82811015614a8957888601518255948401946001909101908401614a6a565b5085821015614aa75787850151600019600388901b60f8161c191681555b5050505050600190811b01905550565b60006001600160a01b03808716835280861660208401525083604083015260806060830152614ae96080830184613fec565b9695505050505050565b600060208284031215614b0557600080fd5b8151613f3381613f64565b60008251614b22818460208701613fc8565b919091019291505056fe4142434445464748494a4b4c4d4e4f505152535455565758595a6162636465666768696a6b6c6d6e6f707172737475767778797a303132333435363738392b2f416464726573733a206c6f772d6c6576656c2064656c65676174652063616c6c206661696c6564a26469706673582212201232b3b9ffa8f3938f84cc5533cf42c870017c6ccbe98489b4d2b899ef26856064736f6c63430008110033",
  "libraries": {
    "RenderEngine": "0x2C3b100060d1Ca406Ac1bCFBf936E088457D9641"
  },
  "devdoc": {
    "kind": "dev",
    "methods": {
      "approve(address,uint256)": {
        "details": "See {IERC721-approve}."
      },
      "balanceOf(address)": {
        "details": "See {IERC721-balanceOf}."
      },
      "baptise(address,uint256)": {
        "details": "baptise"
      },
      "calculateReferReward(address,uint256,uint256)": {
        "details": "returns refereral and refer reward",
        "params": {
          "amount": "reward to the referee, ERC20 amount",
          "referee": "referee address",
          "score": "referee degen life score"
        }
      },
      "claimOwnership()": {
        "details": "pending owner call this function to claim ownership"
      },
      "dry(uint256,uint256)": {
        "details": "degen get $REBORN back"
      },
      "engrave(bytes32,address,uint256,uint256,uint256,uint256)": {
        "details": "engrave the result on chain and reward",
        "params": {
          "seed": "uuid seed string without \"-\"  in bytes32"
        }
      },
      "getApproved(uint256)": {
        "details": "See {IERC721-getApproved}."
      },
      "getPool(uint256)": {
        "details": "read pool attribute"
      },
      "incarnate((uint256,uint256),address,uint256,uint256,bytes32,bytes32,uint8)": {
        "details": "incarnate"
      },
      "infuse(uint256,uint256)": {
        "details": "degen infuse $REBORN to tombstoneexpect for bliss"
      },
      "isApprovedForAll(address,address)": {
        "details": "See {IERC721-isApprovedForAll}."
      },
      "name()": {
        "details": "See {IERC721Metadata-name}."
      },
      "owner()": {
        "details": "Returns the address of the current owner."
      },
      "ownerOf(uint256)": {
        "details": "See {IERC721-ownerOf}."
      },
      "paused()": {
        "details": "Returns true if the contract is paused, and false otherwise."
      },
      "pendingOwner()": {
        "details": "Return the address of the pending owner"
      },
      "propertyPrice(uint256)": {
        "details": "calculate properties price in $REBORN for each properties"
      },
      "proxiableUUID()": {
        "details": "Implementation of the ERC1822 {proxiableUUID} function. This returns the storage slot used by the implementation. It is used to validate the implementation's compatibility when performing an upgrade. IMPORTANT: A proxy pointing at a proxiable contract should not be considered proxiable itself, because this risks bricking a proxy that upgrades to it, by delegating to itself until out of gas. Thus it is critical that this function revert if invoked through a proxy. This is guaranteed by the `notDelegated` modifier."
      },
      "renounceOwnership()": {
        "details": "Leaves the contract without owner. It will not be possible to call `onlyOwner` functions anymore. Can only be called by the current owner. NOTE: Renouncing ownership will leave the contract without an owner, thereby removing any functionality that is only available to the owner."
      },
      "safeTransferFrom(address,address,uint256)": {
        "details": "See {IERC721-safeTransferFrom}."
      },
      "safeTransferFrom(address,address,uint256,bytes)": {
        "details": "See {IERC721-safeTransferFrom}."
      },
      "setApprovalForAll(address,bool)": {
        "details": "See {IERC721-setApprovalForAll}."
      },
      "setSoupPrice(uint256)": {
        "details": "set soup price"
      },
      "setTalentPrice(uint256)": {
        "details": "set other price"
      },
      "supportsInterface(bytes4)": {
        "details": "See {IERC165-supportsInterface}."
      },
      "symbol()": {
        "details": "See {IERC721Metadata-symbol}."
      },
      "talentPrice(uint256)": {
        "details": "calculate talent price in $REBORN for specific talent point              0example 0x00000000000000000000000000000000000000000000004b02bc21c12c0a0000"
      },
      "tokenURI(uint256)": {
        "details": "See {IERC721Metadata-tokenURI}."
      },
      "transferFrom(address,address,uint256)": {
        "details": "See {IERC721-transferFrom}."
      },
      "transferOwnership(address,bool)": {
        "details": "Transfers ownership of the contract to a new account (`newOwner`). Can only be called by the current owner. Note If direct is false, it will set an pending owner and the OwnerShipTransferring only happens when the pending owner claim the ownership"
      },
      "updateSigners(address[],address[])": {
        "details": "update signer"
      },
      "upgradeTo(address)": {
        "details": "Upgrade the implementation of the proxy to `newImplementation`. Calls {_authorizeUpgrade}. Emits an {Upgraded} event."
      },
      "upgradeToAndCall(address,bytes)": {
        "details": "Upgrade the implementation of the proxy to `newImplementation`, and subsequently execute the function call encoded in `data`. Calls {_authorizeUpgrade}. Emits an {Upgraded} event."
      },
      "withdrawNativeToken(uint256)": {
        "details": "withdraw native token for reward distribution"
      }
    },
    "version": 1
  },
  "userdoc": {
    "kind": "user",
    "methods": {
      "incarnate((uint256,uint256),address)": {
        "notice": "init enter and buy "
      },
      "soupPrice()": {
        "notice": "you need buy a soup before reborn "
      }
    },
    "version": 1
  },
  "storageLayout": {
    "storage": [
      {
        "astId": 395,
        "contract": "src/RebornPortal.sol:RebornPortal",
        "label": "_initialized",
        "offset": 0,
        "slot": "0",
        "type": "t_uint8"
      },
      {
        "astId": 398,
        "contract": "src/RebornPortal.sol:RebornPortal",
        "label": "_initializing",
        "offset": 1,
        "slot": "0",
        "type": "t_bool"
      },
      {
        "astId": 3723,
        "contract": "src/RebornPortal.sol:RebornPortal",
        "label": "__gap",
        "offset": 0,
        "slot": "1",
        "type": "t_array(t_uint256)50_storage"
      },
      {
        "astId": 7429,
        "contract": "src/RebornPortal.sol:RebornPortal",
        "label": "_owner",
        "offset": 0,
        "slot": "51",
        "type": "t_address"
      },
      {
        "astId": 7431,
        "contract": "src/RebornPortal.sol:RebornPortal",
        "label": "_pendingOwner",
        "offset": 0,
        "slot": "52",
        "type": "t_address"
      },
      {
        "astId": 7619,
        "contract": "src/RebornPortal.sol:RebornPortal",
        "label": "__gap",
        "offset": 0,
        "slot": "53",
        "type": "t_array(t_uint256)48_storage"
      },
      {
        "astId": 377,
        "contract": "src/RebornPortal.sol:RebornPortal",
        "label": "__gap",
        "offset": 0,
        "slot": "101",
        "type": "t_array(t_uint256)50_storage"
      },
      {
        "astId": 692,
        "contract": "src/RebornPortal.sol:RebornPortal",
        "label": "__gap",
        "offset": 0,
        "slot": "151",
        "type": "t_array(t_uint256)50_storage"
      },
      {
        "astId": 8973,
        "contract": "src/RebornPortal.sol:RebornPortal",
        "label": "soupPrice",
        "offset": 0,
        "slot": "201",
        "type": "t_uint256"
      },
      {
        "astId": 8977,
        "contract": "src/RebornPortal.sol:RebornPortal",
        "label": "_talentPrice",
        "offset": 0,
        "slot": "202",
        "type": "t_uint256"
      },
      {
        "astId": 8980,
        "contract": "src/RebornPortal.sol:RebornPortal",
        "label": "rebornToken",
        "offset": 0,
        "slot": "203",
        "type": "t_contract(RBT)7822"
      },
      {
        "astId": 8984,
        "contract": "src/RebornPortal.sol:RebornPortal",
        "label": "signers",
        "offset": 0,
        "slot": "204",
        "type": "t_mapping(t_address,t_bool)"
      },
      {
        "astId": 8988,
        "contract": "src/RebornPortal.sol:RebornPortal",
        "label": "rounds",
        "offset": 0,
        "slot": "205",
        "type": "t_mapping(t_address,t_uint16)"
      },
      {
        "astId": 8993,
        "contract": "src/RebornPortal.sol:RebornPortal",
        "label": "details",
        "offset": 0,
        "slot": "206",
        "type": "t_mapping(t_uint256,t_struct(LifeDetail)9037_storage)"
      },
      {
        "astId": 8998,
        "contract": "src/RebornPortal.sol:RebornPortal",
        "label": "pools",
        "offset": 0,
        "slot": "207",
        "type": "t_mapping(t_uint256,t_struct(Pool)9040_storage)"
      },
      {
        "astId": 9005,
        "contract": "src/RebornPortal.sol:RebornPortal",
        "label": "portfolios",
        "offset": 0,
        "slot": "208",
        "type": "t_mapping(t_address,t_mapping(t_uint256,t_struct(Portfolio)9043_storage))"
      },
      {
        "astId": 9009,
        "contract": "src/RebornPortal.sol:RebornPortal",
        "label": "referrals",
        "offset": 0,
        "slot": "209",
        "type": "t_mapping(t_address,t_address)"
      },
      {
        "astId": 9014,
        "contract": "src/RebornPortal.sol:RebornPortal",
        "label": "_gap",
        "offset": 0,
        "slot": "210",
        "type": "t_array(t_uint256)41_storage"
      },
      {
        "astId": 4587,
        "contract": "src/RebornPortal.sol:RebornPortal",
        "label": "__gap",
        "offset": 0,
        "slot": "251",
        "type": "t_array(t_uint256)50_storage"
      },
      {
        "astId": 2296,
        "contract": "src/RebornPortal.sol:RebornPortal",
        "label": "_name",
        "offset": 0,
        "slot": "301",
        "type": "t_string_storage"
      },
      {
        "astId": 2298,
        "contract": "src/RebornPortal.sol:RebornPortal",
        "label": "_symbol",
        "offset": 0,
        "slot": "302",
        "type": "t_string_storage"
      },
      {
        "astId": 2302,
        "contract": "src/RebornPortal.sol:RebornPortal",
        "label": "_owners",
        "offset": 0,
        "slot": "303",
        "type": "t_mapping(t_uint256,t_address)"
      },
      {
        "astId": 2306,
        "contract": "src/RebornPortal.sol:RebornPortal",
        "label": "_balances",
        "offset": 0,
        "slot": "304",
        "type": "t_mapping(t_address,t_uint256)"
      },
      {
        "astId": 2310,
        "contract": "src/RebornPortal.sol:RebornPortal",
        "label": "_tokenApprovals",
        "offset": 0,
        "slot": "305",
        "type": "t_mapping(t_uint256,t_address)"
      },
      {
        "astId": 2316,
        "contract": "src/RebornPortal.sol:RebornPortal",
        "label": "_operatorApprovals",
        "offset": 0,
        "slot": "306",
        "type": "t_mapping(t_address,t_mapping(t_address,t_bool))"
      },
      {
        "astId": 3236,
        "contract": "src/RebornPortal.sol:RebornPortal",
        "label": "__gap",
        "offset": 0,
        "slot": "307",
        "type": "t_array(t_uint256)44_storage"
      },
      {
        "astId": 834,
        "contract": "src/RebornPortal.sol:RebornPortal",
        "label": "_status",
        "offset": 0,
        "slot": "351",
        "type": "t_uint256"
      },
      {
        "astId": 892,
        "contract": "src/RebornPortal.sol:RebornPortal",
        "label": "__gap",
        "offset": 0,
        "slot": "352",
        "type": "t_array(t_uint256)49_storage"
      },
      {
        "astId": 8918,
        "contract": "src/RebornPortal.sol:RebornPortal",
        "label": "scores",
        "offset": 0,
        "slot": "401",
        "type": "t_mapping(t_uint256,t_uint256)"
      },
      {
        "astId": 8921,
        "contract": "src/RebornPortal.sol:RebornPortal",
        "label": "baptism",
        "offset": 0,
        "slot": "402",
        "type": "t_struct(BitMap)5473_storage"
      },
      {
        "astId": 8923,
        "contract": "src/RebornPortal.sol:RebornPortal",
        "label": "idx",
        "offset": 0,
        "slot": "403",
        "type": "t_uint256"
      },
      {
        "astId": 8925,
        "contract": "src/RebornPortal.sol:RebornPortal",
        "label": "minScoreInRank",
        "offset": 0,
        "slot": "404",
        "type": "t_uint256"
      },
      {
        "astId": 8929,
        "contract": "src/RebornPortal.sol:RebornPortal",
        "label": "_gap",
        "offset": 0,
        "slot": "405",
        "type": "t_array(t_uint256)46_storage"
      },
      {
        "astId": 714,
        "contract": "src/RebornPortal.sol:RebornPortal",
        "label": "_paused",
        "offset": 0,
        "slot": "451",
        "type": "t_bool"
      },
      {
        "astId": 819,
        "contract": "src/RebornPortal.sol:RebornPortal",
        "label": "__gap",
        "offset": 0,
        "slot": "452",
        "type": "t_array(t_uint256)49_storage"
      }
    ],
    "types": {
      "t_address": {
        "encoding": "inplace",
        "label": "address",
        "numberOfBytes": "20"
      },
      "t_array(t_uint256)41_storage": {
        "base": "t_uint256",
        "encoding": "inplace",
        "label": "uint256[41]",
        "numberOfBytes": "1312"
      },
      "t_array(t_uint256)44_storage": {
        "base": "t_uint256",
        "encoding": "inplace",
        "label": "uint256[44]",
        "numberOfBytes": "1408"
      },
      "t_array(t_uint256)46_storage": {
        "base": "t_uint256",
        "encoding": "inplace",
        "label": "uint256[46]",
        "numberOfBytes": "1472"
      },
      "t_array(t_uint256)48_storage": {
        "base": "t_uint256",
        "encoding": "inplace",
        "label": "uint256[48]",
        "numberOfBytes": "1536"
      },
      "t_array(t_uint256)49_storage": {
        "base": "t_uint256",
        "encoding": "inplace",
        "label": "uint256[49]",
        "numberOfBytes": "1568"
      },
      "t_array(t_uint256)50_storage": {
        "base": "t_uint256",
        "encoding": "inplace",
        "label": "uint256[50]",
        "numberOfBytes": "1600"
      },
      "t_bool": {
        "encoding": "inplace",
        "label": "bool",
        "numberOfBytes": "1"
      },
      "t_bytes32": {
        "encoding": "inplace",
        "label": "bytes32",
        "numberOfBytes": "32"
      },
      "t_contract(RBT)7822": {
        "encoding": "inplace",
        "label": "contract RBT",
        "numberOfBytes": "20"
      },
      "t_mapping(t_address,t_address)": {
        "encoding": "mapping",
        "key": "t_address",
        "label": "mapping(address => address)",
        "numberOfBytes": "32",
        "value": "t_address"
      },
      "t_mapping(t_address,t_bool)": {
        "encoding": "mapping",
        "key": "t_address",
        "label": "mapping(address => bool)",
        "numberOfBytes": "32",
        "value": "t_bool"
      },
      "t_mapping(t_address,t_mapping(t_address,t_bool))": {
        "encoding": "mapping",
        "key": "t_address",
        "label": "mapping(address => mapping(address => bool))",
        "numberOfBytes": "32",
        "value": "t_mapping(t_address,t_bool)"
      },
      "t_mapping(t_address,t_mapping(t_uint256,t_struct(Portfolio)9043_storage))": {
        "encoding": "mapping",
        "key": "t_address",
        "label": "mapping(address => mapping(uint256 => struct IRebornDefination.Portfolio))",
        "numberOfBytes": "32",
        "value": "t_mapping(t_uint256,t_struct(Portfolio)9043_storage)"
      },
      "t_mapping(t_address,t_uint16)": {
        "encoding": "mapping",
        "key": "t_address",
        "label": "mapping(address => uint16)",
        "numberOfBytes": "32",
        "value": "t_uint16"
      },
      "t_mapping(t_address,t_uint256)": {
        "encoding": "mapping",
        "key": "t_address",
        "label": "mapping(address => uint256)",
        "numberOfBytes": "32",
        "value": "t_uint256"
      },
      "t_mapping(t_uint256,t_address)": {
        "encoding": "mapping",
        "key": "t_uint256",
        "label": "mapping(uint256 => address)",
        "numberOfBytes": "32",
        "value": "t_address"
      },
      "t_mapping(t_uint256,t_struct(LifeDetail)9037_storage)": {
        "encoding": "mapping",
        "key": "t_uint256",
        "label": "mapping(uint256 => struct IRebornDefination.LifeDetail)",
        "numberOfBytes": "32",
        "value": "t_struct(LifeDetail)9037_storage"
      },
      "t_mapping(t_uint256,t_struct(Pool)9040_storage)": {
        "encoding": "mapping",
        "key": "t_uint256",
        "label": "mapping(uint256 => struct IRebornDefination.Pool)",
        "numberOfBytes": "32",
        "value": "t_struct(Pool)9040_storage"
      },
      "t_mapping(t_uint256,t_struct(Portfolio)9043_storage)": {
        "encoding": "mapping",
        "key": "t_uint256",
        "label": "mapping(uint256 => struct IRebornDefination.Portfolio)",
        "numberOfBytes": "32",
        "value": "t_struct(Portfolio)9043_storage"
      },
      "t_mapping(t_uint256,t_uint256)": {
        "encoding": "mapping",
        "key": "t_uint256",
        "label": "mapping(uint256 => uint256)",
        "numberOfBytes": "32",
        "value": "t_uint256"
      },
      "t_string_storage": {
        "encoding": "bytes",
        "label": "string",
        "numberOfBytes": "32"
      },
      "t_struct(BitMap)5473_storage": {
        "encoding": "inplace",
        "label": "struct BitMapsUpgradeable.BitMap",
        "members": [
          {
            "astId": 5472,
            "contract": "src/RebornPortal.sol:RebornPortal",
            "label": "_data",
            "offset": 0,
            "slot": "0",
            "type": "t_mapping(t_uint256,t_uint256)"
          }
        ],
        "numberOfBytes": "32"
      },
      "t_struct(LifeDetail)9037_storage": {
        "encoding": "inplace",
        "label": "struct IRebornDefination.LifeDetail",
        "members": [
          {
            "astId": 9024,
            "contract": "src/RebornPortal.sol:RebornPortal",
            "label": "seed",
            "offset": 0,
            "slot": "0",
            "type": "t_bytes32"
          },
          {
            "astId": 9026,
            "contract": "src/RebornPortal.sol:RebornPortal",
            "label": "creator",
            "offset": 0,
            "slot": "1",
            "type": "t_address"
          },
          {
            "astId": 9028,
            "contract": "src/RebornPortal.sol:RebornPortal",
            "label": "age",
            "offset": 20,
            "slot": "1",
            "type": "t_uint16"
          },
          {
            "astId": 9030,
            "contract": "src/RebornPortal.sol:RebornPortal",
            "label": "round",
            "offset": 22,
            "slot": "1",
            "type": "t_uint16"
          },
          {
            "astId": 9032,
            "contract": "src/RebornPortal.sol:RebornPortal",
            "label": "nothing",
            "offset": 24,
            "slot": "1",
            "type": "t_uint64"
          },
          {
            "astId": 9034,
            "contract": "src/RebornPortal.sol:RebornPortal",
            "label": "cost",
            "offset": 0,
            "slot": "2",
            "type": "t_uint128"
          },
          {
            "astId": 9036,
            "contract": "src/RebornPortal.sol:RebornPortal",
            "label": "reward",
            "offset": 16,
            "slot": "2",
            "type": "t_uint128"
          }
        ],
        "numberOfBytes": "96"
      },
      "t_struct(Pool)9040_storage": {
        "encoding": "inplace",
        "label": "struct IRebornDefination.Pool",
        "members": [
          {
            "astId": 9039,
            "contract": "src/RebornPortal.sol:RebornPortal",
            "label": "totalAmount",
            "offset": 0,
            "slot": "0",
            "type": "t_uint256"
          }
        ],
        "numberOfBytes": "32"
      },
      "t_struct(Portfolio)9043_storage": {
        "encoding": "inplace",
        "label": "struct IRebornDefination.Portfolio",
        "members": [
          {
            "astId": 9042,
            "contract": "src/RebornPortal.sol:RebornPortal",
            "label": "accumulativeAmount",
            "offset": 0,
            "slot": "0",
            "type": "t_uint256"
          }
        ],
        "numberOfBytes": "32"
      },
      "t_uint128": {
        "encoding": "inplace",
        "label": "uint128",
        "numberOfBytes": "16"
      },
      "t_uint16": {
        "encoding": "inplace",
        "label": "uint16",
        "numberOfBytes": "2"
      },
      "t_uint256": {
        "encoding": "inplace",
        "label": "uint256",
        "numberOfBytes": "32"
      },
      "t_uint64": {
        "encoding": "inplace",
        "label": "uint64",
        "numberOfBytes": "8"
      },
      "t_uint8": {
        "encoding": "inplace",
        "label": "uint8",
        "numberOfBytes": "1"
      }
    }
  }
}