{
  "address": "0x5983eEcf6b721FFae5812A4FaE12af77893f9278",
  "abi": [
    {
      "inputs": [],
      "name": "ValueOutOfRange",
      "type": "error"
    },
    {
      "inputs": [
        {
          "internalType": "bytes32",
          "name": "b",
          "type": "bytes32"
        }
      ],
      "name": "_transformBytes32Seed",
      "outputs": [
        {
          "internalType": "string",
          "name": "",
          "type": "string"
        }
      ],
      "stateMutability": "pure",
      "type": "function"
    },
    {
      "inputs": [
        {
          "internalType": "uint256",
          "name": "value",
          "type": "uint256"
        }
      ],
      "name": "_transformUint256",
      "outputs": [
        {
          "internalType": "string",
          "name": "str",
          "type": "string"
        }
      ],
      "stateMutability": "pure",
      "type": "function"
    },
    {
      "inputs": [
        {
          "internalType": "bytes32",
          "name": "seed",
          "type": "bytes32"
        },
        {
          "internalType": "uint256",
          "name": "lifeScore",
          "type": "uint256"
        },
        {
          "internalType": "uint256",
          "name": "round",
          "type": "uint256"
        },
        {
          "internalType": "uint256",
          "name": "age",
          "type": "uint256"
        },
        {
          "internalType": "address",
          "name": "addr",
          "type": "address"
        },
        {
          "internalType": "uint256",
          "name": "reward",
          "type": "uint256"
        }
      ],
      "name": "renderSvg",
      "outputs": [
        {
          "internalType": "string",
          "name": "",
          "type": "string"
        }
      ],
      "stateMutability": "pure",
      "type": "function"
    },
    {
      "inputs": [
        {
          "internalType": "bytes32",
          "name": "seed",
          "type": "bytes32"
        },
        {
          "internalType": "uint256",
          "name": "lifeScore",
          "type": "uint256"
        },
        {
          "internalType": "uint256",
          "name": "round",
          "type": "uint256"
        },
        {
          "internalType": "uint256",
          "name": "age",
          "type": "uint256"
        },
        {
          "internalType": "address",
          "name": "creator",
          "type": "address"
        },
        {
          "internalType": "uint256",
          "name": "reward",
          "type": "uint256"
        },
        {
          "internalType": "uint256",
          "name": "cost",
          "type": "uint256"
        }
      ],
      "name": "renderTrait",
      "outputs": [
        {
          "internalType": "string",
          "name": "",
          "type": "string"
        }
      ],
      "stateMutability": "pure",
      "type": "function"
    }
  ],
  "transactionHash": "0x4255444893998ef060ba0bf574b24fffc4143ef9d727b0a2f7cd4f3f95afaab1",
  "args": [],
  "numDeployments": 11,
  "solcInputHash": "fed1fd30da498bae5c51c79e79b1cf58",
  "bytecode": "0x615ef761003a600b82828239805160001a60731461002d57634e487b7160e01b600052600060045260246000fd5b30600052607381538281f3fe73000000000000000000000000000000000000000030146080604052600436106100565760003560e01c80631da2fb171461005b57806323f790ed146100845780634a2fc1ed1461009757806365a454a3146100aa575b600080fd5b61006e610069366004610a94565b6100bd565b60405161007b9190610b09565b60405180910390f35b61006e610092366004610b5a565b61011e565b61006e6100a5366004610b5a565b610171565b61006e6100b8366004610b73565b61023c565b606060006100cd888888886102a4565b905060006100ec856100e7670de0b6b3a764000087610bfb565b610364565b90508181604051602001610101929190610c2b565b604051602081830303815290604052925050509695505050505050565b6060600061012d8360206103f4565b905061013c816000600e610642565b61014982602d6042610642565b60405160200161015a929190610c5a565b604051602081830303815290604052915050919050565b60606298968082101561018d576101878261073f565b92915050565b64174876e8008210156101d5576101af6101aa620f424084610bfb565b61073f565b6040516020016101bf9190610cb2565b6040516020818303038152906040529050919050565b66038d7ea4c68000821015610205576101f56101aa633b9aca0084610bfb565b6040516020016101bf9190610cf3565b6040517f4eb4f9fb00000000000000000000000000000000000000000000000000000000815260040160405180910390fd5b919050565b606061024a888888886107ad565b61027785610260670de0b6b3a764000087610bfb565b610272670de0b6b3a764000087610bfb565b6107e8565b604051602001610288929190610c2b565b6040516020818303038152906040529050979650505050505050565b606060405180610b800160405280610b4f8152602001614f65610b4f91396102cb8661011e565b6040518061016001604052806101278152602001615b3361012791396102f087610171565b6040518060a00160405280607f8152602001615ab4607f913961031288610847565b6040518060a0016040528060808152602001615c5a6080913961033489610847565b60405160200161034b989796959493929190610d34565b6040516020818303038152906040529050949350505050565b60606040518060e0016040528060a28152602001615cda60a29139610388846108e7565b6040518061018001604052806101468152602001615d7c61014691396103ad85610171565b60405180613cc00160405280613c8b81526020016112da613c8b91396040516020016103dd959493929190610dd9565b604051602081830303815290604052905092915050565b60606000610403836002610e44565b61040e906002610e5b565b67ffffffffffffffff81111561042657610426610e6e565b6040519080825280601f01601f191660200182016040528015610450576020820181803683370190505b5090507f30000000000000000000000000000000000000000000000000000000000000008160008151811061048757610487610e84565b60200101907effffffffffffffffffffffffffffffffffffffffffffffffffffffffffffff1916908160001a9053507f7800000000000000000000000000000000000000000000000000000000000000816001815181106104ea576104ea610e84565b60200101907effffffffffffffffffffffffffffffffffffffffffffffffffffffffffffff1916908160001a9053506000610526846002610e44565b610531906001610e5b565b90505b60018111156105ce577f303132333435363738396162636465660000000000000000000000000000000085600f166010811061057257610572610e84565b1a60f81b82828151811061058857610588610e84565b60200101907effffffffffffffffffffffffffffffffffffffffffffffffffffffffffffff1916908160001a90535060049490941c936105c781610e9a565b9050610534565b50831561063b576040517f08c379a000000000000000000000000000000000000000000000000000000000815260206004820181905260248201527f537472696e67733a20686578206c656e67746820696e73756666696369656e74604482015260640160405180910390fd5b9392505050565b60608360006106518585610eb1565b67ffffffffffffffff81111561066957610669610e6e565b6040519080825280601f01601f191660200182016040528015610693576020820181803683370190505b509050845b84811015610735578281815181106106b2576106b2610e84565b01602001517fff0000000000000000000000000000000000000000000000000000000000000016826106e48884610eb1565b815181106106f4576106f4610e84565b60200101907effffffffffffffffffffffffffffffffffffffffffffffffffffffffffffff1916908160001a9053508061072d81610ec4565b915050610698565b5095945050505050565b606061074d6103e883610bfb565b60000361076f5761075d82610847565b816040516020016101bf929190610c2b565b61077e6101aa6103e884610bfb565b61079a6107956107906103e886610ede565b610847565b610954565b826040516020016101bf93929190610ef2565b60606107ba8560206103f4565b6107c385610847565b6107cc85610847565b6107d585610847565b60405160200161034b9493929190610f61565b606061080b8473ffffffffffffffffffffffffffffffffffffffff1660146103f4565b61081484610847565b61081d84610847565b60405160200161082f939291906110f3565b60405160208183030381529060405290509392505050565b606060006108548361098e565b600101905060008167ffffffffffffffff81111561087457610874610e6e565b6040519080825280601f01601f19166020018201604052801561089e576020820181803683370190505b5090508181016020015b600019017f3031323334353637383961626364656600000000000000000000000000000000600a86061a8153600a85049450846108a857509392505050565b606073ffffffffffffffffffffffffffffffffffffffff8216600061090d8260146103f4565b90508061091d8160006006610642565b61092a826026602a610642565b60405160200161093b929190610c5a565b6040516020818303038152906040529350505050919050565b6060815160010361097057816040516020016101bf919061124f565b815160020361098a57816040516020016101bf9190611294565b5090565b6000807a184f03e93ff9f4daa797ed6e38ed64bf6a1f01000000000000000083106109d7577a184f03e93ff9f4daa797ed6e38ed64bf6a1f010000000000000000830492506040015b6d04ee2d6d415b85acef81000000008310610a03576d04ee2d6d415b85acef8100000000830492506020015b662386f26fc100008310610a2157662386f26fc10000830492506010015b6305f5e1008310610a39576305f5e100830492506008015b6127108310610a4d57612710830492506004015b60648310610a5f576064830492506002015b600a83106101875760010192915050565b803573ffffffffffffffffffffffffffffffffffffffff8116811461023757600080fd5b60008060008060008060c08789031215610aad57600080fd5b86359550602087013594506040870135935060608701359250610ad260808801610a70565b915060a087013590509295509295509295565b60005b83811015610b00578181015183820152602001610ae8565b50506000910152565b6020815260008251806020840152610b28816040850160208701610ae5565b601f017fffffffffffffffffffffffffffffffffffffffffffffffffffffffffffffffe0169190910160400192915050565b600060208284031215610b6c57600080fd5b5035919050565b600080600080600080600060e0888a031215610b8e57600080fd5b87359650602088013595506040880135945060608801359350610bb360808901610a70565b925060a0880135915060c0880135905092959891949750929550565b634e487b7160e01b600052601260045260246000fd5b634e487b7160e01b600052601160045260246000fd5b600082610c0a57610c0a610bcf565b500490565b60008151610c21818560208601610ae5565b9290920192915050565b60008351610c3d818460208801610ae5565b835190830190610c51818360208801610ae5565b01949350505050565b60008351610c6c818460208801610ae5565b7fe280a600000000000000000000000000000000000000000000000000000000009083019081528351610ca6816003840160208801610ae5565b01600301949350505050565b60008251610cc4818460208701610ae5565b7f4d00000000000000000000000000000000000000000000000000000000000000920191825250600101919050565b60008251610d05818460208701610ae5565b7f4200000000000000000000000000000000000000000000000000000000000000920191825250600101919050565b600089516020610d478285838f01610ae5565b8a5191840191610d5a8184848f01610ae5565b8a51920191610d6c8184848e01610ae5565b8951920191610d7e8184848d01610ae5565b8851920191610d908184848c01610ae5565b8751920191610da28184848b01610ae5565b8651920191610db48184848a01610ae5565b8551920191610dc68184848901610ae5565b919091019b9a5050505050505050505050565b60008651610deb818460208b01610ae5565b865190830190610dff818360208b01610ae5565b8651910190610e12818360208a01610ae5565b8551910190610e25818360208901610ae5565b8451910190610e38818360208801610ae5565b01979650505050505050565b808202811582820484141761018757610187610be5565b8082018082111561018757610187610be5565b634e487b7160e01b600052604160045260246000fd5b634e487b7160e01b600052603260045260246000fd5b600081610ea957610ea9610be5565b506000190190565b8181038181111561018757610187610be5565b60006000198203610ed757610ed7610be5565b5060010190565b600082610eed57610eed610bcf565b500690565b60008451610f04818460208901610ae5565b7f2c000000000000000000000000000000000000000000000000000000000000009083019081528451610f3e816001840160208901610ae5565b8451910190610f54816001840160208801610ae5565b0160010195945050505050565b7f5b7b2274726169745f74797065223a202253656564222c202276616c7565223a81527f2022000000000000000000000000000000000000000000000000000000000000602082015260008551610fbf816022850160208a01610ae5565b7f227d2c7b2274726169745f74797065223a20224c6966652053636f7265222c206022918401918201527f2276616c7565223a2000000000000000000000000000000000000000000000006042820152855161102281604b840160208a01610ae5565b7f7d2c7b2274726169745f74797065223a2022526f756e64222c202276616c7565604b92909101918201527f223a200000000000000000000000000000000000000000000000000000000000606b820152845161108681606e840160208901610ae5565b6022818301019150507f7d2c7b2274726169745f74797065223a2022416765222c202276616c7565223a604c8201527f2000000000000000000000000000000000000000000000000000000000000000606c8201526110e8606d820185610c0f565b979650505050505050565b7f7d2c7b2274726169745f74797065223a202243726561746f72222c202276616c81527f7565223a20220000000000000000000000000000000000000000000000000000602082015260008451611151816026850160208901610ae5565b7f227d2c7b2274726169745f74797065223a2022526577617264222c202276616c6026918401918201527f7565223a20000000000000000000000000000000000000000000000000000000604682015284516111b481604b840160208901610ae5565b7f7d2c7b2274726169745f74797065223a2022436f7374222c202276616c756522604b92909101918201527f3a20000000000000000000000000000000000000000000000000000000000000606b820152835161121881606d840160208801610ae5565b7f7d5d000000000000000000000000000000000000000000000000000000000000606d9290910191820152606f0195945050505050565b7f3030000000000000000000000000000000000000000000000000000000000000815260008251611287816002850160208701610ae5565b9190910160020192915050565b7f30000000000000000000000000000000000000000000000000000000000000008152600082516112cc816001850160208701610ae5565b919091016001019291505056fe3c2f746578743e3c706174682066696c6c3d22234646443035382220643d224d31313134203230347636682d36762d367a222f3e3c706174682066696c6c3d22234538363630392220643d224d31313338203230347636682d36762d367a222f3e3c706174682066696c6c3d22234638433135362220643d224d31313632203230347636682d36762d367a222f3e3c706174682066696c6c3d22236666662220643d224d31313032203230347636682d36762d367a222f3e3c706174682066696c6c3d22234538363630392220643d224d31313236203230347636682d36762d367a222f3e3c706174682066696c6c3d22234638433135362220643d224d31313530203230347636682d36762d367a222f3e3c706174682066696c6c3d22233030302220643d224d31313734203230347636682d36762d367a4d31303936203230347636682d36762d367a222f3e3c706174682066696c6c3d22234646443035382220643d224d31313230203230347636682d36762d367a222f3e3c706174682066696c6c3d22234330344130372220643d224d31313434203230347636682d36762d367a222f3e3c706174682066696c6c3d22234632393931342220643d224d31313638203230347636682d36762d367a222f3e3c706174682066696c6c3d22234646443035382220643d224d31313038203230347636682d36762d367a222f3e3c706174682066696c6c3d22234538363630392220643d224d31313332203230347636682d36762d367a222f3e3c706174682066696c6c3d22234638433135362220643d224d31313536203230347636682d36762d367a222f3e3c706174682066696c6c3d22236666662220643d224d31313134203139327636682d36762d367a222f3e3c706174682066696c6c3d22234638433135362220643d224d31313338203139327636682d36762d367a222f3e3c706174682066696c6c3d22233030302220643d224d31313632203139327636682d36762d367a222f3e3c706174682066696c6c3d22234646443035382220643d224d31313236203139327636682d36762d367a222f3e3c706174682066696c6c3d22234632393931342220643d224d31313530203139327636682d36762d367a222f3e3c706174682066696c6c3d22236666662220643d224d31313230203139327636682d36762d367a222f3e3c706174682066696c6c3d22234638433135362220643d224d31313434203139327636682d36762d367a222f3e3c706174682066696c6c3d22233030302220643d224d31313038203139327636682d36762d367a222f3e3c706174682066696c6c3d22234646443035382220643d224d31313332203139327636682d36762d367a222f3e3c706174682066696c6c3d22234632393931342220643d224d31313536203139327636682d36762d367a222f3e3c706174682066696c6c3d22233030302220643d224d313132302031383068367636682d367a4d31303930203231352e3939397636682d36762d367a222f3e3c706174682066696c6c3d22234646443035382220643d224d31313134203231352e3939397636682d36762d367a222f3e3c706174682066696c6c3d22234638433135362220643d224d31313338203231352e3939397636682d36762d367a4d31313632203231352e3939397636682d36762d367a222f3e3c706174682066696c6c3d22234646443035382220643d224d31313032203231352e3939397636682d36762d367a222f3e3c706174682066696c6c3d22234330344130372220643d224d31313236203231352e3939397636682d36762d367a4d31313530203231352e3939397636682d36762d367a222f3e3c706174682066696c6c3d22234632393931342220643d224d31313734203231352e3939397636682d36762d367a222f3e3c706174682066696c6c3d22236666662220643d224d31303936203231352e3939397636682d36762d367a222f3e3c706174682066696c6c3d22234538363630392220643d224d31313230203231352e3939397636682d36762d367a4d31313434203231352e3939397636682d36762d367a222f3e3c706174682066696c6c3d22234638433135362220643d224d31313638203231352e3939397636682d36762d367a222f3e3c706174682066696c6c3d22234646443035382220643d224d31313038203231352e3939397636682d36762d367a4d31313332203231352e3939397636682d36762d367a222f3e3c706174682066696c6c3d22234638433135362220643d224d31313536203231352e3939397636682d36762d367a222f3e3c706174682066696c6c3d22233030302220643d224d31313830203231352e3939397636682d36762d367a4d31313134203138367636682d36762d367a222f3e3c706174682066696c6c3d22234632393931342220643d224d31313338203138367636682d36762d367a222f3e3c706174682066696c6c3d22236666662220643d224d31313236203138367636682d36762d367a222f3e3c706174682066696c6c3d22233030302220643d224d31313530203138367636682d36762d367a4d31313230203138367636682d36762d367a222f3e3c706174682066696c6c3d22234632393931342220643d224d31313434203138367636682d36762d367a222f3e3c706174682066696c6c3d22236666662220643d224d31313332203138367636682d36762d367a222f3e3c706174682066696c6c3d22233030302220643d224d31313536203138367636682d36762d367a222f3e3c706174682066696c6c3d22234646443035382220643d224d31313134203230392e3939397636682d36762d367a222f3e3c706174682066696c6c3d22234638433035362220643d224d31313338203230392e3939397636682d36762d367a222f3e3c706174682066696c6c3d22234638433135362220643d224d31313632203230392e3939397636682d36762d367a222f3e3c706174682066696c6c3d22236666662220643d224d31313032203230392e3939397636682d36762d367a222f3e3c706174682066696c6c3d22234330344130372220643d224d31313236203230392e3939397636682d36762d367a4d31313530203230392e3939397636682d36762d367a222f3e3c706174682066696c6c3d22233030302220643d224d31313734203230392e3939397636682d36762d367a4d31303936203230392e3939397636682d36762d367a222f3e3c706174682066696c6c3d22234538363630392220643d224d31313230203230392e3939397636682d36762d367a4d31313434203230392e3939397636682d36762d367a222f3e3c706174682066696c6c3d22234632393931342220643d224d31313638203230392e3939397636682d36762d367a222f3e3c706174682066696c6c3d22234646443035382220643d224d31313038203230392e3939397636682d36762d367a4d31313332203230392e3939397636682d36762d367a222f3e3c706174682066696c6c3d22234638433135362220643d224d31313536203230392e3939397636682d36762d367a222f3e3c706174682066696c6c3d22234646443035382220643d224d31313134203139387636682d36762d367a222f3e3c706174682066696c6c3d22234638433135362220643d224d31313338203139387636682d36762d367a222f3e3c706174682066696c6c3d22234632393931342220643d224d31313632203139387636682d36762d367a222f3e3c706174682066696c6c3d22233030302220643d224d31313032203139387636682d36762d367a222f3e3c706174682066696c6c3d22234646443035382220643d224d31313236203139387636682d36762d367a222f3e3c706174682066696c6c3d22234638433135362220643d224d31313530203139387636682d36762d367a222f3e3c706174682066696c6c3d22234646443035382220643d224d31313230203139387636682d36762d367a222f3e3c706174682066696c6c3d22234638433135362220643d224d31313434203139387636682d36762d367a222f3e3c706174682066696c6c3d22233030302220643d224d31313638203139387636682d36762d367a222f3e3c706174682066696c6c3d22236666662220643d224d31313038203139387636682d36762d367a222f3e3c706174682066696c6c3d22234646443035382220643d224d31313332203139387636682d36762d367a222f3e3c706174682066696c6c3d22234638433135362220643d224d31313536203139387636682d36762d367a222f3e3c706174682066696c6c3d22233030302220643d224d313132362031383068367636682d367a4d31303930203232312e3939397636682d36762d367a222f3e3c706174682066696c6c3d22234646443035382220643d224d31313134203232312e3939397636682d36762d367a222f3e3c706174682066696c6c3d22234538363630392220643d224d31313338203232312e3939397636682d36762d367a222f3e3c706174682066696c6c3d22234638433135362220643d224d31313632203232312e3939397636682d36762d367a222f3e3c706174682066696c6c3d22234646443035382220643d224d31313032203232312e3939397636682d36762d367a222f3e3c706174682066696c6c3d22234538363630392220643d224d31313236203232312e3939397636682d36762d367a222f3e3c706174682066696c6c3d22234638433135362220643d224d31313530203232312e3939397636682d36762d367a222f3e3c706174682066696c6c3d22234632393931342220643d224d31313734203232312e3939397636682d36762d367a222f3e3c706174682066696c6c3d22236666662220643d224d31303936203232312e3939397636682d36762d367a222f3e3c706174682066696c6c3d22234538363630392220643d224d31313230203232312e3939397636682d36762d367a222f3e3c706174682066696c6c3d22234330344130372220643d224d31313434203232312e3939397636682d36762d367a222f3e3c706174682066696c6c3d22234638433135362220643d224d31313638203232312e3939397636682d36762d367a222f3e3c706174682066696c6c3d22234646443035382220643d224d31313038203232312e3939397636682d36762d367a222f3e3c706174682066696c6c3d22234538363630392220643d224d31313332203232312e3939397636682d36762d367a222f3e3c706174682066696c6c3d22234638433135362220643d224d31313536203232312e3939397636682d36762d367a222f3e3c706174682066696c6c3d22233030302220643d224d31313830203232312e3939397636682d36762d367a4d313133322031383068367636682d367a4d31303930203232372e3939397636682d36762d367a222f3e3c706174682066696c6c3d22234646443035382220643d224d31313134203232372e3939397636682d36762d367a222f3e3c706174682066696c6c3d22234638433035362220643d224d31313338203232372e3939397636682d36762d367a222f3e3c706174682066696c6c3d22234638433135362220643d224d31313632203232372e3939397636682d36762d367a222f3e3c706174682066696c6c3d22234646443035382220643d224d31313032203232372e3939397636682d36762d367a222f3e3c706174682066696c6c3d22234330344130372220643d224d31313236203232372e3939397636682d36762d367a4d31313530203232372e3939397636682d36762d367a222f3e3c706174682066696c6c3d22234632393931342220643d224d31313734203232372e3939397636682d36762d367a222f3e3c706174682066696c6c3d22236666662220643d224d31303936203232372e3939397636682d36762d367a222f3e3c706174682066696c6c3d22234538363630392220643d224d31313230203232372e3939397636682d36762d367a4d31313434203232372e3939397636682d36762d367a222f3e3c706174682066696c6c3d22234638433135362220643d224d31313638203232372e3939397636682d36762d367a222f3e3c706174682066696c6c3d22234646443035382220643d224d31313038203232372e3939397636682d36762d367a4d31313332203232372e3939397636682d36762d367a222f3e3c706174682066696c6c3d22234638433135362220643d224d31313536203232372e3939397636682d36762d367a222f3e3c706174682066696c6c3d22233030302220643d224d31313830203232372e3939397636682d36762d367a222f3e3c706174682066696c6c3d22234646443035382220643d224d31313134203235312e3939397636682d36762d367a222f3e3c706174682066696c6c3d22234638433135362220643d224d31313338203235312e3939397636682d36762d367a222f3e3c706174682066696c6c3d22234632393931342220643d224d31313632203235312e3939397636682d36762d367a222f3e3c706174682066696c6c3d22233030302220643d224d31313032203235312e3939397636682d36762d367a222f3e3c706174682066696c6c3d22234646443035382220643d224d31313236203235312e3939397636682d36762d367a222f3e3c706174682066696c6c3d22234638433135362220643d224d31313530203235312e3939397636682d36762d367a222f3e3c706174682066696c6c3d22234646443035382220643d224d31313230203235312e3939397636682d36762d367a222f3e3c706174682066696c6c3d22234638433135362220643d224d31313434203235312e3939397636682d36762d367a222f3e3c706174682066696c6c3d22233030302220643d224d31313638203235312e3939397636682d36762d367a222f3e3c706174682066696c6c3d22236666662220643d224d31313038203235312e3939397636682d36762d367a222f3e3c706174682066696c6c3d22234646443035382220643d224d31313332203235312e3939397636682d36762d367a222f3e3c706174682066696c6c3d22234638433135362220643d224d31313536203235312e3939397636682d36762d367a222f3e3c706174682066696c6c3d22234646443035382220643d224d31313134203233392e3939397636682d36762d367a222f3e3c706174682066696c6c3d22234638433135362220643d224d31313338203233392e3939397636682d36762d367a4d31313632203233392e3939397636682d36762d367a222f3e3c706174682066696c6c3d22236666662220643d224d31313032203233392e3939397636682d36762d367a222f3e3c706174682066696c6c3d22234330344130372220643d224d31313236203233392e3939397636682d36762d367a222f3e3c706174682066696c6c3d22234538363630392220643d224d31313530203233392e3939397636682d36762d367a222f3e3c706174682066696c6c3d22233030302220643d224d31313734203233392e3939397636682d36762d367a4d31303936203233392e3939397636682d36762d367a222f3e3c706174682066696c6c3d22234538363630392220643d224d31313230203233392e3939397636682d36762d367a222f3e3c706174682066696c6c3d22234638433035362220643d224d31313434203233392e3939397636682d36762d367a222f3e3c706174682066696c6c3d22234632393931342220643d224d31313638203233392e3939397636682d36762d367a222f3e3c706174682066696c6c3d22234646443035382220643d224d31313038203233392e3939397636682d36762d367a4d31313332203233392e3939397636682d36762d367a222f3e3c706174682066696c6c3d22234330344130372220643d224d31313536203233392e3939397636682d36762d367a222f3e3c706174682066696c6c3d22233030302220643d224d31313134203236332e3939387636682d36762d367a222f3e3c706174682066696c6c3d22234632393931342220643d224d31313338203236332e3939387636682d36762d367a222f3e3c706174682066696c6c3d22234646453641362220643d224d31313236203236332e3939387636682d36762d367a222f3e3c706174682066696c6c3d22233030302220643d224d31313530203236332e3939387636682d36762d367a4d31313230203236332e3939387636682d36762d367a222f3e3c706174682066696c6c3d22234632393931342220643d224d31313434203236332e3939387636682d36762d367a222f3e3c706174682066696c6c3d22234646453641362220643d224d31313332203236332e3939387636682d36762d367a222f3e3c706174682066696c6c3d22233030302220643d224d31313536203236332e3939387636682d36762d367a4d313133382031383068367636682d367a4d31303930203233332e3939397636682d36762d367a222f3e3c706174682066696c6c3d22234646443035382220643d224d31313134203233332e3939397636682d36762d367a222f3e3c706174682066696c6c3d22234638433035362220643d224d31313338203233332e3939397636682d36762d367a222f3e3c706174682066696c6c3d22234638433135362220643d224d31313632203233332e3939397636682d36762d367a222f3e3c706174682066696c6c3d22234646443035382220643d224d31313032203233332e3939397636682d36762d367a222f3e3c706174682066696c6c3d22234330344130372220643d224d31313236203233332e3939397636682d36762d367a4d31313530203233332e3939397636682d36762d367a222f3e3c706174682066696c6c3d22234632393931342220643d224d31313734203233332e3939397636682d36762d367a222f3e3c706174682066696c6c3d22236666662220643d224d31303936203233332e3939397636682d36762d367a222f3e3c706174682066696c6c3d22234538363630392220643d224d31313230203233332e3939397636682d36762d367a4d31313434203233332e3939397636682d36762d367a222f3e3c706174682066696c6c3d22234638433135362220643d224d31313638203233332e3939397636682d36762d367a222f3e3c706174682066696c6c3d22234646443035382220643d224d31313038203233332e3939397636682d36762d367a4d31313332203233332e3939397636682d36762d367a222f3e3c706174682066696c6c3d22234638433135362220643d224d31313536203233332e3939397636682d36762d367a222f3e3c706174682066696c6c3d22233030302220643d224d31313830203233332e3939397636682d36762d367a222f3e3c706174682066696c6c3d22236666662220643d224d31313134203235372e3939387636682d36762d367a222f3e3c706174682066696c6c3d22234638433135362220643d224d31313338203235372e3939387636682d36762d367a222f3e3c706174682066696c6c3d22233030302220643d224d31313632203235372e3939387636682d36762d367a222f3e3c706174682066696c6c3d22234646443035382220643d224d31313236203235372e3939387636682d36762d367a222f3e3c706174682066696c6c3d22234632393931342220643d224d31313530203235372e3939387636682d36762d367a222f3e3c706174682066696c6c3d22236666662220643d224d31313230203235372e3939387636682d36762d367a222f3e3c706174682066696c6c3d22234638433135362220643d224d31313434203235372e3939387636682d36762d367a222f3e3c706174682066696c6c3d22233030302220643d224d31313038203235372e3939387636682d36762d367a222f3e3c706174682066696c6c3d22234646443035382220643d224d31313332203235372e3939387636682d36762d367a222f3e3c706174682066696c6c3d22234632393931342220643d224d31313536203235372e3939387636682d36762d367a222f3e3c706174682066696c6c3d22234646443035382220643d224d31313134203234352e3939397636682d36762d367a222f3e3c706174682066696c6c3d22234638433135362220643d224d31313338203234352e3939397636682d36762d367a4d31313632203234352e3939397636682d36762d367a222f3e3c706174682066696c6c3d22236666662220643d224d31313032203234352e3939397636682d36762d367a222f3e3c706174682066696c6c3d22234646443035382220643d224d31313236203234352e3939397636682d36762d367a222f3e3c706174682066696c6c3d22234638433035362220643d224d31313530203234352e3939397636682d36762d367a222f3e3c706174682066696c6c3d22233030302220643d224d31313734203234352e3939397636682d36762d367a4d31303936203234352e3939397636682d36762d367a222f3e3c706174682066696c6c3d22234646443035382220643d224d31313230203234352e3939397636682d36762d367a222f3e3c706174682066696c6c3d22234638433135362220643d224d31313434203234352e3939397636682d36762d367a222f3e3c706174682066696c6c3d22234632393931342220643d224d31313638203234352e3939397636682d36762d367a222f3e3c706174682066696c6c3d22234646443035382220643d224d31313038203234352e3939397636682d36762d367a4d31313332203234352e3939397636682d36762d367a222f3e3c706174682066696c6c3d22234638433035362220643d224d31313536203234352e3939397636682d36762d367a222f3e3c706174682066696c6c3d22233030302220643d224d31313338203236392e3939387636682d36762d367a4d31313236203236392e3939387636682d36762d367a4d31313434203236392e3939387636682d36762d367a4d31313332203236392e3939387636682d36762d367a222f3e3c73766720786d6c6e733d22687474703a2f2f7777772e77332e6f72672f323030302f7376672220783d2237322220793d22333830223e3c7376672077696474683d2231323022206865696768743d22313230223e3c636c6970506174682069643d227072656669785f5f636c6970436972636c65223e3c636972636c652063783d223438222063793d2234382220723d223438222f3e3c2f636c6970506174683e3c636972636c652063783d223438222063793d2234382220723d223438222066696c6c3d2223433831343543222f3e3c6720636c69702d706174683d2275726c28237072656669785f5f636c6970436972636c6529223e3c706174682066696c6c3d22234641363030302220643d224d32392e3633332034382e3631376c2d38362e36312d38332e3035372038332e3035362d38362e3631312038362e3631312038332e3035377a222f3e3c706174682066696c6c3d22234635414630302220643d224d36332e34203134322e3034386c2d3131392e36373820382e3738382d382e3738382d3131392e3637374c35342e36312032322e33377a222f3e3c706174682066696c6c3d22233033353835452220643d224d32312e3930362d312e3638326c392e383333203131392e3539372d3131392e35393620392e3833324c2d39372e363920382e3135317a222f3e3c2f673e3c2f7376673e3c2f7376673e3c646566733e3c6c696e6561724772616469656e742069643d227072656669785f5f7030222078313d223632322e303434222079313d222d322e333437222078323d223632322e303434222079323d223637382e33333222206772616469656e74556e6974733d227573657253706163654f6e557365223e3c73746f702073746f702d636f6c6f723d2223343532463136222f3e3c73746f70206f66667365743d2231222073746f702d636f6c6f723d2223314232303233222f3e3c2f6c696e6561724772616469656e743e3c6c696e6561724772616469656e742069643d227072656669785f5f7031222078313d223632322e303434222079313d222d322e333437222078323d223632322e303434222079323d223636382e39343322206772616469656e74556e6974733d227573657253706163654f6e557365223e3c73746f702073746f702d636f6c6f723d2223464638413030222f3e3c73746f70206f66667365743d2231222073746f702d636f6c6f723d2223353233393142222f3e3c2f6c696e6561724772616469656e743e3c6c696e6561724772616469656e742069643d227072656669785f5f7032222078313d223632322e313731222079313d222d312e3733222078323d223632322e313731222079323d223334372e38323722206772616469656e74556e6974733d227573657253706163654f6e557365223e3c73746f702073746f702d636f6c6f723d2223463738363032222073746f702d6f7061636974793d222e3335222f3e3c73746f70206f66667365743d2231222073746f702d636f6c6f723d2223463738363032222073746f702d6f7061636974793d2230222f3e3c2f6c696e6561724772616469656e743e3c6c696e6561724772616469656e742069643d227072656669785f5f703735222078313d22393139222079313d22313830222078323d22393139222079323d2232373622206772616469656e74556e6974733d227573657253706163654f6e557365223e3c73746f702073746f702d636f6c6f723d2223464646464441222f3e3c73746f70206f66667365743d222e353033222073746f702d636f6c6f723d2223464645374236222f3e3c73746f70206f66667365743d2231222073746f702d636f6c6f723d2223413837393435222f3e3c2f6c696e6561724772616469656e743e3c7061747465726e2069643d227072656669785f5f7061747465726e3022207061747465726e436f6e74656e74556e6974733d226f626a656374426f756e64696e67426f78222077696474683d223122206865696768743d2231223e3c75736520786c696e6b3a687265663d22237072656669785f5f696d616765305f3533395f3238303022207472616e73666f726d3d226d6174726978282e303032353520302030202e3030323535202d2e363339202d312e373729222f3e3c2f7061747465726e3e3c2f646566733e3c7374796c653e40666f6e742d666163657b666f6e742d66616d696c793a2661706f733b426c61636b204f7073204f6e652661706f733b3b666f6e742d7374796c653a6e6f726d616c3b666f6e742d7765696768743a3430303b7372633a75726c28646174613a6170706c69636174696f6e2f666f6e743b6261736536342c643039474d674142414141414141646741416f414141414144326741414163554141454141414141414141414141414141414141414141414141414141414141426d41416841494b6a6b534a5367733041414532416951445a415167425963724231516243417852464e4f493749734544712b475034324232424a44594d61314c64513331732b3253345233344c6a2f487a6639477947354e343941573667797a6b2b4e697368636143646d74444e3170674a544539707652397645306a545572314f506f763447374a686153485538504e7a374f2f652b64392f487874493246595542706d316253364d663842594964457a306163482f3558517052503439676d446271762f2f2f395a616e6358724e596732654b6c65416958503770373947325433304c6e427a434e303870586f4554474e504272525045524b7a477a6d394b51345374754e67324137684b2f646e4347734163544b6a786b4b364a62615338436953794d50566b2b7845624965516352672f4e4c7371326c424f47706832697a582f6263754152397a787953594459413458776b414e414a41353256774141442b49654e414933703662616b3049724e59575371706146756a4f4d4d684830777132706a6d702f6c724675307654644f4374564174544173504d5957592f37395551515850784d4357465278444f4a722f6237332b37474d50336e724c7a5464634a357a66547936485a57674b73436553304e657a30474d646b6f7a7241463742416541625553664a534170446237326e6d6f686834422b4c317844346a4a6a42467744345451414551426f49516a4c4b6973363977462b4370316a46342f4161456779324e7a2b56542b757755367558455757523665465557555a5a4167574b524f38687853305352556b74464d6b6f30613257534d644552714b496f714b4957446a3465583951334365307479456476426d4f54594c4b4e7a594b4b72454f556e744452376d54797575786b30376847686d6c336f4a334d71475455636336384f304e2f4343756b77703641384d493371586e3143796c6f50416f45654b334e2b42515645464e343242565972774367396166536d504774394b5a30697537794a714d4e576a35564f3043464a6e4f677a6c46554476417251475269397259486977334d764547474e4333446c4137687561477368446a475a69456b4b417148496a696371664633674b54493656532b373545694a6a5176763465774e496f714c492b7539707273485567513056674a34563345424b6b716b564e4c4531375a7a46767756424e46445a316d49532f6e6a4d57656d78544a63776357775a58724950595875326f3638537757322f5a4b5a696d53304f7a694479633674366345517159685848746c6e444134475a6d766b4e443064684455624a53596c44515a383335416153696436395a56696a35684f4b564e4867754d75684f465651474c452f744a764474715958387967666f566c722b324459712f4e4d7a737a4f79317a6d7a6a634b304e6576545755444f476d666d6b7148414c42794567394e6361647352756c4a4e327735454b2b4a58516b62346433795a304c58793030646a526f3878765a74586d596f49756a384d496c5a64416c573758395a626c745844317850652f6d49374a7259622f755870463969656d506f6d4e5741486f57374a6d43586a564a4c4c7a7262665143774a716e61636d6579496c317a756168596f56516c4f787a7868336f454b567739302f685874734b6c663254634275745a2f744a6d734e3566586239445577354179454738547a6e58506a53666f4e356962614554727265764a4d5070556d31566b52327754667549553763706f3775474537376d4949465273586d66556d45677150592b376d6c7475504e38516148706536516a4d7930597447796b536471656a796c485055637452716b4b584c4a63386c35524c31426d52587a726d78706b50796d436b64645a3131476a38752f7a7968536957734a445778745a55537238514e6e453157557451544e57733161686b4946556c55416b754d784f4b50636456364d47476d5475676143705861333474415466544c6c30715058665850585878314d4e7867764e62506c454d346277376259457149374a513939693258307976586b38744a37676634316a58736d706634526830627066325a367034546f6566486a6479314864434d794630526a516a37724452304f556e715268782b6443686e704e6a58555759666371566e5166657564355266305448634b656e67575030474a687537554a646c69702f766c4b356e574b4b6c63645367696d4f4d5750625770774e31493544705a756a3750376a54786150486758536e4931423769444c376f3032747731697259654c5a732f352f666c7a786e4462595673587a7150494565377756504830444f394a6b616d75304e6e6d73726e496f44776f65426630742f394d42674141484141757050764c525975355066634847514941774f4f766e5a4d41774a4e507634483166346f307155344369416341774946375230566535506a685a6852336a474c757a6c626c552f663177486b37335658746431353348466476734e5a395a785375544649376e527732762b79694c59477a753830365a6163714136735972537046713261792b6372564b716336715671494f696e745235413744413455517069466478334e79326b6872776b687842785645387954646351437178355935477353316f6d324845744d7a733176595046516732734a41486236437a456e4b4a79595a346754574a41643137416f4f686e574b6367304c4c486c52437544394e79326e3545652b412f3973796574366e47344736444f3666664d756a2b704d435879767963726e5867692f627a6177786e746d52614e672b704766572b52566a783175645468433469596d59432f3264464a494434784d545848336b6d6e4f43495457596f486867716e4946333374492b325572465764434a7159325047345951692b32553856475a38616e78475846723753467448592f702b367635454c48647758666e64547431635255677a374e77646342527a6769524c4e416b785455464b774c5365636752334f516f716c69544a64303635634d6a52714c41555a2b576458574270646e424547746b636e4353644853556c534e414a357a5939572f4671687a5662506e5a70716e58424f75376e674d6c354262716c4e5931483365715448576b764a4c7341737441794f58586d2f653542514c784569564c6c734f74495331575453556654654743306a552b48444e364470306a356f6b784633564674797078594c675959526a41485472536646475361516d724544484853744a2b4474687a44473335424a7a73326842393568384e315867544b2b39693663696f6b414144776635594469705a7346426d5a4b49546b344d6466544f30306945555a45524b6b5356645a546b4652535556545378634141413d3d2920666f726d6174282661706f733b776f6666322661706f733b293b756e69636f64652d72616e67653a552b303030302d303046462c552b303133312c552b303135322d303135332c552b303242422d303242432c552b303243362c552b303244412c552b303244432c552b323030302d323036462c552b323037342c552b323041432c552b323132322c552b323139312c552b323139332c552b323231322c552b323231352c552b464546462c552b464646447d40666f6e742d666163657b666f6e742d66616d696c793a2661706f733b56543332332661706f733b3b666f6e742d7374796c653a6e6f726d616c3b666f6e742d7765696768743a3430303b7372633a75726c28646174613a6170706c69636174696f6e2f666f6e743b6261736536342c643039474d674142414141414141695541416f41414141414b755141414168484141454141414141414141414141414141414141414141414141414141414141426d41416731494b787969336677745741414532416951445667516742595531423359624b794952466152356b483135774a4f3547693844455745696f46464d4672576d656a466679544a334d6c506c75582b4351787879495435346f4c7a504e306d577a6a6f7270796d55526555703742543262343841546f54742b564d765939314c4d42704c6151462b73464a7454704543627343694a52733751636f4e67454539652b2b456e4b556a55444668334662372f36472f4f6c4864506c536c5a3236574944443431624b66336946456a34646154534873315263576c4b5a3262753756375844587042693275326558762f5033534648464a4778324b4243473746454b497a464763386c6d58514c2f3145375a6d65466170776b3051534a656564557651424e484d52634c6c4f6c4b4d364457773864464779772b41473565654a726945596a66522b4e61367846796c4f7a45554e58346c7745744542384d784149415971356941677855774d664749414134732b46463865733174674c534d6444774a496579564b416877355862526d69454778464774424676474561436b57516b47796d4a49596d68333643304c42755461695961305034726d63764f4f476a4c552b362f646833624d6846447a3838723856784e507575454f303458436c413179335a2b70384a6f525033777866344236353045334c6b562b382b516b4a69556e4a4b616c70344239706b6f61665365537544584466797567435a376b716c306c596159653858635852556c6968657263594b5574324e55744148362b6d6f4b765a744e37344a756b364f37344a336271464a5271557a4e3957345565676865565337367661735777474c6546627358777434354c467a6b68374b6650742b4b36394b354469733559656e734d4c55694a47657366754f6745365975462b4d69784e42755a49646f58624f7131726e6f463973575141703656696f63674e6939425a2b734d6c782f504267326130592b4b42664a3830654145652f504e4a546c5448772b6e4e55335075316c4959686b425261564d427a395143317279454553516c474450505a6c693668426c5455464c4a6264534b746751537849657a766f33487a73674467676579396853575a676246455171417153426a745959444342566a644f50786b572b6c2b37736d46704957576443653464755472713841415162454f7846694e4246694f427179677a614d4764616832487a2b6f344e37574552596b32436f685843687a38635167466d7958436b344568487a696e59374b5272526d7a2b765542425a57674630536d76466d4a73436e6f4e7470524161414e463964435156464e50676e515a71306f697842504e465a694b416a4d6b6e51594c557842585247586e644b76526b782f664b5236517444767178505048756c344e5468563552444e556e72464771692f336938705338663351684e774b71305168616e6d4d7856617633437030474f416569625868564e6e5467766875577339554571476a696f3054336b33714a716c662b4453776438423674577153594378717369496247546c4c2f74754869626e732b35376b552b794b7838724d48446e634b477032494c63493570505138574166536e75454d754643723967444a44486174366b346563575341486c7768386376315647326934715a5279686968466e7a65646341703075504c32454b6b633965525553417a395663576942712b6d4c456a327152507a51327635583652466d6d616644644c595a6f52656d5a796a7664476735575957502b596e376c4c3866644e7176343143397a7254572b6e47305144324c4b637046652b6267785847464c55524d56743343506638373364374a314647704d422b696b706873494d6c486d6d32584e4a586770455577693733656d594a7346706b70437a6f686e2f6d464f69767962364b69453452476b694d39514a5a35707a38424c436633334970366d304f614469416a6f4c716a44417763732f624453755a4955744f486c626e2f624d3568764f58326270474d614f63516a52305a50774462763777503667786c4679552b6d444f377a6d66597852416b79583458544f30447362484a555261712f7377524c476e3667563448644b596a632b494a7656436e6a6a32674974644d79494748752b677661686f65484e5a4e4c315a6e72397441575446646571535a616f53426a4e4d6d58615a664c493030415a414c4b74763039372b617958414c50647342657651514f377778685735514b486354536e477644693865504a56676e483276546e53747031364d466f654453713862454b77694e752b4c6168423256724362324e2f337278596678726f4b666f654b506a536f533357307665305339505242343544446a744c42754d784d32766d416346724e69446d376a645048584a63744145732b422f614f38544f79357041742b6a3446503850553058564e744148494555566b673843364854335078386c77372b474333446c7174726e777576593639636b4b7547664669425830354f54354a544472527a3542696434372f2f4c6a3438346131427a7a6f4a2b43416d423641636a565a67553938777052457a4235784d466747426b2f54744e6953493531756a574d6b4d5263726555643549726654326b51475a2b453172446d66744d6c446464634a457465446d3651484739314b62587445633169346c4c4f4f48414c462f7349642b35736356464762482b4d79414530376e5164674879494d3375744456497566345a567150634f703476624e453641356d754d5a5378714d56394766316d5674347948567256512f394d53737475485348517055393054784e6c3853634f30476a476332334769746a5645716a4770644873306b4a50676c4d42552b5043356c74616973684d4f39434543744539587236702b73684e4a334c596e30386b697333686a4845336263664e337a67735a61754879643236646f4b784d74457355316a753751464941376739784a39553977624a324869594e3879534c727644696e72677574376d496e744571456e7278714b58664e7644624e3642342b70474d475849386b6e32616b65786474465645775847305179594b63696b6158715045724c6b474a4f744873735a48466f6771777173574a3675516d363043534661527836304c75336261564b384c6d4e546d51794e44585666576b684d382f586f424b484231344568374472422f6e6d4a3841533676617744336a37594e55662f6261623055452b434a30714c394b654b355975365238535466416b485746516666424f597a6f534b314b5450764a68644a385737464970614d653757527163305044692f7a75694b4b4d6c314d79325143706c637949563854794c47424a455874565370776f796856384b424b71714a544f3958776f3150694e715a2f346a356d394b663969574947426b4c7a41474f35333655436278476e437636696b367159496a2f5669424b394537637855784c334d577366383665454f5042702f4f776e59504d2f636e41336572564149667046597537484d6e6a2f37316b3836734e6a574958382f6c2b7972317a77415472332b3470792b4263665a702f61392f6c3976636762757a62473772352b30524a79457664315865342f585a6964652b77724e4c374f754456413669516c4d392f3368374e4445492b483759766435446e6a616f464374447568504a443850652f4676317a6c75512f4a7348592f3965536554505444593169462f50374a622f524f3467475733526e796237712f6632566746414351582f62586f3377526965446977645a322f787a533637346b59576361794d697134504d354b68654c7358666d53334673644c4543693470362b6a7332626731732b4a346d77732f4d322b4c504b31436c316d6831656f50525a48596e5534316d7139337039767144345767386d63376d692b567176646e75396f636a414141412920666f726d6174282661706f733b776f6666322661706f733b297d3c2f7374796c653e3c2f7376673e3c7376672077696474683d223132343422206865696768743d22373034222066696c6c3d226e6f6e652220786d6c6e733d22687474703a2f2f7777772e77332e6f72672f323030302f7376672220786d6c6e733a786c696e6b3d22687474703a2f2f7777772e77332e6f72672f313939392f786c696e6b223e3c7061746820643d224d322e35203730312e355639352e3035314c39372e303220322e3548313234312e357636393948322e357a222066696c6c3d2275726c28237072656669785f5f70302922207374726f6b653d2275726c28237072656669785f5f70312922207374726f6b652d77696474683d2235222f3e3c7061746820643d224d313234302031304838362e313176322e33343648313234305631307a4d37362e3732372031392e333834483132343076322e3334364837362e373237762d322e3334367a4d34203136392e353239683132333676322e3334364834762d322e3334367a4d313234302035362e39324833392e313976322e33343648313234305635362e39327a4d34203230372e303636683132333676322e3334364834762d322e3334367a4d313234302039342e343537483476322e3334366831323336762d322e3334367a4d34203332392e303539683132333676322e3334364834762d322e3334367a4d31323430203234342e363032483476322e3334366831323336762d322e3334367a4d34203133312e393933683132333676322e3334364834762d322e3334367a4d31323430203238322e313338483476322e3334366831323336762d322e3334367a4d35372e3935392033382e313532483132343076322e3334364835372e393539762d322e3334367a4d31323430203138382e323938483476322e3334366831323336762d322e3334367a4d32302e3432322037352e363839483132343076322e3334364832302e343232762d322e3334367a4d31323430203331302e323931483476322e3334366831323336762d322e3334367a4d34203232352e383334683132333676322e3334364834762d322e3334367a4d31323430203131332e323235483476322e3334366831323336762d322e3334367a4d34203236332e3337683132333676322e3334364834762d322e3334367a4d31323430203135302e373631483476322e3334366831323336762d322e3334367a4d34203330302e393037683132333676322e3334364834762d322e3334367a4d34203136302e313435683132333676322e3334364834762d322e3334367a4d313234302034372e3533364834382e35373476322e3334364831323430762d322e3334367a4d34203139372e363832683132333676322e3334364834762d322e3334367a4d313234302038352e3037334831312e30333876322e3334364831323430762d322e3334367a4d34203331392e363735683132333676322e3334364834762d322e3334367a4d31323430203233352e323138483476322e3334366831323336762d322e3334367a4d34203132322e363039683132333676322e3334364834762d322e3334367a4d31323430203237322e373534483476322e3334366831323336762d322e3334367a4d36372e3334332032382e373638483132343076322e3334364836372e333433762d322e3334367a4d31323430203137382e393133483476322e3334376831323336762d322e3334377a4d32392e3830362036362e333035483132343076322e3334354832392e383036762d322e3334367a4d31323430203231362e3435483476322e3334366831323336762d322e3334367a4d34203130332e383431683132333676322e3334364834762d322e3334367a4d31323430203333382e343433483476322e3334366831323336762d322e3334367a4d34203235332e393836683132333676322e3334364834762d322e3334367a4d31323430203134312e333737483476322e3334366831323336762d322e3334367a4d34203239312e353232683132333676322e3334364834762d322e3334367a4d34203334372e383237683132333676322e3334364834762d322e3334367a4d31323430203335372e323131483476322e3334366831323336762d322e3334367a4d31323430203530372e333536483476322e3334366831323336762d322e3334367a4d34203339342e373437683132333676322e3334364834762d322e3334367a4d31323430203534342e383933483476322e3334366831323336762d322e3334367a4d34203433322e323834683132333676322e3334364834762d322e3334367a4d31323430203636362e383836483476322e3334366831323336762d322e3334367a4d34203538322e343239683132333676322e3334364834762d322e3334367a4d31323430203436392e3832483476322e3334366831323336762d322e3334367a4d34203631392e393635683132333676322e3334364834762d322e3334367a4d31323430203337352e393739483476322e3334366831323336762d322e3334367a4d34203532362e313235683132333676322e3334364834762d322e3334367a4d31323430203431332e353136483476322e3334366831323336762d322e3334367a4d34203634382e313138683132333676322e3334364834762d322e3334367a4d31323430203536332e363631483476322e3334366831323336762d322e3334367a4d34203435312e303532683132333676322e3334364834762d322e3334367a4d31323430203630312e313937483476322e3334366831323336762d322e3334367a4d34203438382e353838683132333676322e3334364834762d322e3334367a4d31323430203633382e373334483476322e3334366831323336762d322e3334367a4d31323430203439372e393732483476322e3334366831323336762d322e3334367a4d34203338352e333633683132333676322e3334364834762d322e3334367a4d31323430203533352e353039483476322e3334366831323336762d322e3334367a4d34203432322e39683132333676322e3334364834563432322e397a4d31323430203635372e353032483476322e3334366831323336762d322e3334367a4d34203537332e303435683132333676322e3334364834762d322e3334367a4d31323430203436302e343336483476322e3334366831323336762d322e3334367a4d34203631302e353831683132333676322e3334364834762d322e3334367a4d31323430203336362e353935483476322e3334366831323336762d322e3334367a4d34203531362e3734683132333676322e3334364834762d322e3334367a4d31323430203430342e313331483476322e3334376831323336762d322e3334377a4d34203535342e323737683132333676322e3334364834762d322e3334367a4d31323430203434312e363638483476322e3334366831323336762d322e3334367a4d34203637362e3237683132333676322e3334364834762d322e3334367a4d31323430203638352e3635344834563638386831323336762d322e3334367a4d34203539312e383133683132333676322e3334364834762d322e3334367a4d31323430203437392e323034483476322e3334366831323336762d322e3334367a4d34203632392e333439683132333676322e3334364834762d322e3334367a222066696c6c3d2275726c28237072656669785f5f703229222f3e3c7061746820643d224d3132343420313256304839364c302039347631384c31303220313268313134327a222066696c6c3d2223463938373031222f3e3c746578742064783d223736222064793d223630352220646f6d696e616e742d626173656c696e653d2263656e7472616c22207374796c653d226865696768743a31303070782220666f6e742d66616d696c793d2256543332332220746578744c656e6774683d22313037352220666f6e742d73697a653d223630222066696c6c3d2223464638413031223e536565643a203c2f746578743e3c746578742064783d22363937222064793d223432352220646f6d696e616e742d626173656c696e653d2263656e7472616c2220666f6e742d66616d696c793d2256543332332220666f6e742d7765696768743d223130302220666f6e742d73697a653d223739222066696c6c3d2223464646223e52653a3c2f746578743e3c746578742064783d223736222064793d223131362220646f6d696e616e742d626173656c696e653d2263656e7472616c2220666f6e742d66616d696c793d22426c61636b204f7073204f6e652220746578744c656e6774683d223330302220666f6e742d7765696768743d223430302220666f6e742d73697a653d223630222066696c6c3d2223464638413031223e4c69666553636f72653c2f746578743e3c746578742064783d223736222064793d223233302220646f6d696e616e742d626173656c696e653d2263656e7472616c2220666f6e742d66616d696c793d22426c61636b204f7073204f6e652220666f6e742d7765696768743d223430302220666f6e742d73697a653d22313230222066696c6c3d2223464638413031223e3c2f746578743e3c746578742064783d22393535222064793d223432352220646f6d696e616e742d626173656c696e653d2263656e7472616c2220666f6e742d66616d696c793d2256543332332220666f6e742d7765696768743d223430302220666f6e742d73697a653d223738222066696c6c3d2223464646223e4167653a3c2f746578743e3c746578742064783d22333832222064793d223432352220646f6d696e616e742d626173656c696e653d2263656e7472616c2220746578742d616e63686f723d226d6964646c652220666f6e742d66616d696c793d2256543332332220746578744c656e6774683d223335302220666f6e742d7765696768743d223430302220666f6e742d73697a653d223738222066696c6c3d2223464646223e3c2f746578743e3c746578742064783d22393735222064793d223131362220646f6d696e616e742d626173656c696e653d2263656e7472616c2220746578742d616e63686f723d226d6964646c6522207374796c653d226865696768743a31303070782220666f6e742d66616d696c793d22426c61636b204f7073204f6e652220666f6e742d73697a653d223536222066696c6c3d2223464638413031223e446567656e5265626f726e3c2f746578743e3c746578742064783d2231303730222064793d223233302220646f6d696e616e742d626173656c696e653d2263656e7472616c2220746578742d616e63686f723d22656e642220666f6e742d66616d696c793d2256543332332220666f6e742d7765696768743d223430302220666f6e742d73697a653d223936222066696c6c3d2275726c28237072656669785f5f70373529223ea26469706673582212204c1919e61f58dc307551138212ac06cb3b932cae3cc00a847de99ff62cdb95ed64736f6c63430008110033",
  "devdoc": {
    "kind": "dev",
    "methods": {},
    "version": 1
  },
  "userdoc": {
    "kind": "user",
    "methods": {},
    "version": 1
  },
  "storageLayout": {
    "storage": [],
    "types": null
  }
}