{
  "address": "0x6Cc913AC77db058d9EE752Ad3450A0516b835632",
  "abi": [
    {
      "inputs": [
        {
          "internalType": "string",
          "name": "seed",
          "type": "string"
        },
        {
          "internalType": "uint256",
          "name": "lifeScore",
          "type": "uint256"
        },
        {
          "internalType": "uint256",
          "name": "round",
          "type": "uint256"
        },
        {
          "internalType": "uint256",
          "name": "age",
          "type": "uint256"
        },
        {
          "internalType": "address",
          "name": "addr",
          "type": "address"
        },
        {
          "internalType": "uint256",
          "name": "pay",
          "type": "uint256"
        },
        {
          "internalType": "uint256",
          "name": "reward",
          "type": "uint256"
        }
      ],
      "name": "render",
      "outputs": [
        {
          "internalType": "string",
          "name": "",
          "type": "string"
        }
      ],
      "stateMutability": "pure",
      "type": "function"
    }
  ],
  "transactionHash": "0x771376fc80f71a56903cdf36e0b349db3333dd4a46a60f2001655b62afb562dd",
  "args": [],
  "numDeployments": 2,
  "solcInputHash": "a5bd01168db8c397ad9dc3625655ec2a",
  "bytecode": "0x614f6c61003a600b82828239805160001a60731461002d57634e487b7160e01b600052600060045260246000fd5b30600052607381538281f3fe73000000000000000000000000000000000000000030146080604052600436106100355760003560e01c8063a48f184a1461003a575b600080fd5b61004d61004836600461078b565b610063565b60405161005a919061085e565b60405180910390f35b606060006100748a8a8a8a8a6100b7565b90506000610083868686610172565b905081816040516020016100989291906108af565b6040516020818303038152906040529250505098975050505050505050565b6060604051806108a001604052806108688152602001610bad610868913986866040518061018001604052806101428152602001614cd361014291396100fc88610227565b6040518060c0016040528060958152602001610b186095913961011e89610227565b6040518060c0016040528060968152602001614c3d609691396101408a610227565b604051602001610158999897969594939291906108de565b604051602081830303815290604052905095945050505050565b60606040518060e0016040528060a28152602001614e9560a29139610196856102c7565b60405180610260016040528061022c815260200161141561022c91396101bb86610227565b6040518060a0016040528060808152602001614e15608091396101dd87610227565b6040518061362001604052806135fc81526020016116416135fc913960405160200161020f979695949392919061097d565b60405160208183030381529060405290509392505050565b6060600061023483610334565b600101905060008167ffffffffffffffff81111561025457610254610a0f565b6040519080825280601f01601f19166020018201604052801561027e576020820181803683370190505b5090508181016020015b600019017f3031323334353637383961626364656600000000000000000000000000000000600a86061a8153600a850494508461028857509392505050565b606073ffffffffffffffffffffffffffffffffffffffff821660006102ed826014610417565b9050806102fd8160006006610665565b61030a826026602a610665565b60405160200161031b929190610a25565b6040516020818303038152906040529350505050919050565b6000807a184f03e93ff9f4daa797ed6e38ed64bf6a1f010000000000000000831061037d577a184f03e93ff9f4daa797ed6e38ed64bf6a1f010000000000000000830492506040015b6d04ee2d6d415b85acef810000000083106103a9576d04ee2d6d415b85acef8100000000830492506020015b662386f26fc1000083106103c757662386f26fc10000830492506010015b6305f5e10083106103df576305f5e100830492506008015b61271083106103f357612710830492506004015b60648310610405576064830492506002015b600a8310610411576001015b92915050565b60606000610426836002610a93565b610431906002610aaa565b67ffffffffffffffff81111561044957610449610a0f565b6040519080825280601f01601f191660200182016040528015610473576020820181803683370190505b5090507f3000000000000000000000000000000000000000000000000000000000000000816000815181106104aa576104aa610abd565b60200101907effffffffffffffffffffffffffffffffffffffffffffffffffffffffffffff1916908160001a9053507f78000000000000000000000000000000000000000000000000000000000000008160018151811061050d5761050d610abd565b60200101907effffffffffffffffffffffffffffffffffffffffffffffffffffffffffffff1916908160001a9053506000610549846002610a93565b610554906001610aaa565b90505b60018111156105f1577f303132333435363738396162636465660000000000000000000000000000000085600f166010811061059557610595610abd565b1a60f81b8282815181106105ab576105ab610abd565b60200101907effffffffffffffffffffffffffffffffffffffffffffffffffffffffffffff1916908160001a90535060049490941c936105ea81610ad3565b9050610557565b50831561065e576040517f08c379a000000000000000000000000000000000000000000000000000000000815260206004820181905260248201527f537472696e67733a20686578206c656e67746820696e73756666696369656e74604482015260640160405180910390fd5b9392505050565b60608360006106748585610aea565b67ffffffffffffffff81111561068c5761068c610a0f565b6040519080825280601f01601f1916602001820160405280156106b6576020820181803683370190505b509050845b84811015610758578281815181106106d5576106d5610abd565b01602001517fff0000000000000000000000000000000000000000000000000000000000000016826107078884610aea565b8151811061071757610717610abd565b60200101907effffffffffffffffffffffffffffffffffffffffffffffffffffffffffffff1916908160001a9053508061075081610afd565b9150506106bb565b5095945050505050565b803573ffffffffffffffffffffffffffffffffffffffff8116811461078657600080fd5b919050565b60008060008060008060008060e0898b0312156107a757600080fd5b883567ffffffffffffffff808211156107bf57600080fd5b818b0191508b601f8301126107d357600080fd5b8135818111156107e257600080fd5b8c60208285010111156107f457600080fd5b60209283019a509850508901359550604089013594506060890135935061081d60808a01610762565b925060a0890135915060c089013590509295985092959890939650565b60005b8381101561085557818101518382015260200161083d565b50506000910152565b602081526000825180602084015261087d81604085016020870161083a565b601f017fffffffffffffffffffffffffffffffffffffffffffffffffffffffffffffffe0169190910160400192915050565b600083516108c181846020880161083a565b8351908301906108d581836020880161083a565b01949350505050565b60008a516108f0818460208f0161083a565b8201898b82376000908a01908152885161090e818360208d0161083a565b8851910190610921818360208c0161083a565b8751910190610934818360208b0161083a565b8651910190610947818360208a0161083a565b855191019061095a81836020890161083a565b845191019061096d81836020880161083a565b019b9a5050505050505050505050565b6000885160206109908285838e0161083a565b8951918401916109a38184848e0161083a565b89519201916109b58184848d0161083a565b88519201916109c78184848c0161083a565b87519201916109d98184848b0161083a565b86519201916109eb8184848a0161083a565b85519201916109fd818484890161083a565b919091019a9950505050505050505050565b634e487b7160e01b600052604160045260246000fd5b60008351610a3781846020880161083a565b7fe280a600000000000000000000000000000000000000000000000000000000009083019081528351610a7181600384016020880161083a565b01600301949350505050565b634e487b7160e01b600052601160045260246000fd5b808202811582820484141761041157610411610a7d565b8082018082111561041157610411610a7d565b634e487b7160e01b600052603260045260246000fd5b600081610ae257610ae2610a7d565b506000190190565b8181038181111561041157610411610a7d565b60006000198203610b1057610b10610a7d565b506001019056fe3c2f746578743e3c746578742064783d22353730222064793d223338352220646f6d696e616e742d626173656c696e653d2263656e7472616c2220746578742d616e63686f723d226c6566742220666f6e742d66616d696c793d2256543332332220666f6e742d7765696768743d223130302220666f6e742d73697a653d223732222066696c6c3d2223363545323530223e52653a3c7376672077696474683d223130363022206865696768743d22363030222066696c6c3d226e6f6e652220786d6c6e733d22687474703a2f2f7777772e77332e6f72672f323030302f737667223e3c7061746820643d224d3130353820327635393648325638312e3832394c38312e383635203248313035387a222066696c6c3d2275726c28237072656669785f5f7061696e74302922207374726f6b653d2275726c28237072656669785f5f7061696e74312922207374726f6b652d77696474683d2234222f3e3c7061746820643d224d31303536203130483734763268393832762d327a4d3636203138683939307632483636762d327a4d3420313436683130353276324834762d327a4d3130353620353048333476326831303232762d327a4d352e393936203137384831303536763248352e393936762d327a4d31303536203832483476326831303532762d327a4d352e393936203238324831303536763248352e393936762d327a4d313035362032313048352e39393676324831303536762d327a4d3420313134683130353276324834762d327a4d313035362032343248352e39393676324831303536762d327a4d353020333468313030367632483530762d327a4d313035362031363248352e39393676324831303536762d327a4d313820363668313033387632483138762d327a4d313035362032363648352e39393676324831303536762d327a4d352e393936203139344831303536763248352e393936762d327a4d31303536203938483476326831303532762d327a4d352e393936203232364831303536763248352e393936762d327a4d3130353620313330483476326831303532762d327a4d352e393936203235384831303536763248352e393936762d327a4d3420313338683130353276324834762d327a4d3130353620343248343276326831303134762d327a4d352e393936203137304831303536763248352e393936762d327a4d3130353620373448313076326831303436762d327a4d352e393936203237344831303536763248352e393936762d327a4d313035362032303248352e39393676324831303536762d327a4d3420313036683130353276324834762d327a4d313035362032333448352e39393676324831303536762d327a4d3538203236683939387632483538762d327a4d313035362031353448352e39393676324831303536762d327a4d323620353868313033307632483236762d327a4d313035362031383648352e39393676324831303536762d327a4d34203930683130353276324834762d327a4d313035362032393048352e39393676324831303536762d327a4d352e393936203231384831303536763248352e393936762d327a4d3130353620313232483476326831303532762d327a4d352e393936203235304831303536763248352e393936762d327a4d3420323938683130353276324834762d327a4d3130353620333036483476326831303532762d327a4d3130353620343334483476326831303532762d327a4d3420333338683130353276324834762d327a4d313035362034363648352e39393676324831303536762d327a4d3420333730683130353276324834762d327a4d352e393936203439384831303536763248352e393936762d327a4d3130353620343032483476326831303532762d327a4d352e393936203533304831303536763248352e393936762d327a4d3130353620333232483476326831303532762d327a4d352e393936203435304831303536763248352e393936762d327a4d3130353620333534483476326831303532762d327a4d352e393936203535344831303536763248352e393936762d327a4d313035362034383248352e39393676324831303536762d327a4d3420333836683130353276324834762d327a4d313035362035313448352e39393676324831303536762d327a4d3420343138683130353276324834762d327a4d313035362035343648352e39393676324831303536762d327a4d3130353620343236483476326831303532762d327a4d3420333330683130353276324834762d327a4d313035362034353848352e39393676324831303536762d327a4d3420333632683130353276324834762d327a4d313035362035363248352e39393676324831303536762d327a4d352e393936203439304831303536763248352e393936762d327a4d3130353620333934483476326831303532762d327a4d352e393936203532324831303536763248352e393936762d327a4d3130353620333134483476326831303532762d327a4d352e393936203434324831303536763248352e393936762d327a4d3130353620333436483476326831303532762d327a4d352e393936203437344831303536763248352e393936762d327a4d3130353620333738483476326831303532762d327a4d352e393936203537384831303536763248352e393936762d327a4d313035362035383648352e39393676324831303536762d327a4d352e393936203530364831303536763248352e393936762d327a4d3130353620343130483476326831303532762d327a4d352e393936203533384831303536763248352e393936762d327a222066696c6c3d2275726c28237072656669785f5f7061696e743229222f3e3c7061746820643d224d3130363020313056304838314c302038317631342e34374c38352e343720313048313036307a222066696c6c3d2223463938373031222f3e3c746578742064783d22353333222064793d223532312220646f6d696e616e742d626173656c696e653d2263656e7472616c2220746578742d616e63686f723d226d6964646c6522207374796c653d226865696768743a31303070782220666f6e742d66616d696c793d2256543332332220666f6e742d73697a653d223536222066696c6c3d2223464638413031223e536565643a203c2f746578743e3c7265637420783d2236342220793d22333434222077696474683d22383022206865696768743d223830222072783d223430222066696c6c3d2275726c28237072656669785f5f7061747465726e3029222f3e3c746578742064783d22373130222064793d2238352220646f6d696e616e742d626173656c696e653d2263656e7472616c2220746578742d616e63686f723d226d6964646c6522207374796c653d226865696768743a31303070782220666f6e742d66616d696c793d22426c61636b204f7073204f6e652220666f6e742d73697a653d223438222066696c6c3d2223464638413031223e446567656e3c2f746578743e3c746578742064783d22393038222064793d2238352220646f6d696e616e742d626173656c696e653d2263656e7472616c2220746578742d616e63686f723d226d6964646c6522207374796c653d226865696768743a31303070782220666f6e742d66616d696c793d22426c61636b204f7073204f6e652220666f6e742d73697a653d223438222066696c6c3d2223464638413031223e5265626f726e3c2f746578743e3c746578742064783d22373535222064793d223136392220646f6d696e616e742d626173656c696e653d2263656e7472616c2220746578742d616e63686f723d22656e642220666f6e742d66616d696c793d2256543332332220666f6e742d7765696768743d223530302220666f6e742d73697a653d223830222066696c6c3d2223464634303430223e2d3c2f746578743e3c706174682066696c6c3d22234646443035382220643d224d393439203134387635682d35762d357a222f3e3c706174682066696c6c3d22234538363630392220643d224d393639203134387635682d35762d357a222f3e3c706174682066696c6c3d22234638433135362220643d224d393839203134387635682d35762d357a222f3e3c706174682066696c6c3d22236666662220643d224d393339203134387635682d35762d357a222f3e3c706174682066696c6c3d22234538363630392220643d224d393539203134387635682d35762d357a222f3e3c706174682066696c6c3d22234638433135362220643d224d393739203134387635682d35762d357a222f3e3c706174682066696c6c3d22233030302220643d224d393939203134387635682d35762d357a4d393334203134387635682d35762d357a222f3e3c706174682066696c6c3d22234646443035382220643d224d393534203134387635682d35762d357a222f3e3c706174682066696c6c3d22234330344130372220643d224d393734203134387635682d35762d357a222f3e3c706174682066696c6c3d22234632393931342220643d224d393934203134387635682d35762d357a222f3e3c706174682066696c6c3d22234646443035382220643d224d393434203134387635682d35762d357a222f3e3c706174682066696c6c3d22234538363630392220643d224d393634203134387635682d35762d357a222f3e3c706174682066696c6c3d22234638433135362220643d224d393834203134387635682d35762d357a222f3e3c706174682066696c6c3d22236666662220643d224d393439203133387635682d35762d357a222f3e3c706174682066696c6c3d22234638433135362220643d224d393639203133387635682d35762d357a222f3e3c706174682066696c6c3d22233030302220643d224d393839203133387635682d35762d357a222f3e3c706174682066696c6c3d22234646443035382220643d224d393539203133387635682d35762d357a222f3e3c706174682066696c6c3d22234632393931342220643d224d393739203133387635682d35762d357a222f3e3c706174682066696c6c3d22236666662220643d224d393534203133387635682d35762d357a222f3e3c706174682066696c6c3d22234638433135362220643d224d393734203133387635682d35762d357a222f3e3c706174682066696c6c3d22233030302220643d224d393434203133387635682d35762d357a222f3e3c706174682066696c6c3d22234646443035382220643d224d393634203133387635682d35762d357a222f3e3c706174682066696c6c3d22234632393931342220643d224d393834203133387635682d35762d357a222f3e3c706174682066696c6c3d22233030302220643d224d3935342031323868357635682d357a4d393239203135387635682d35762d357a222f3e3c706174682066696c6c3d22234646443035382220643d224d393439203135387635682d35762d357a222f3e3c706174682066696c6c3d22234638433135362220643d224d393639203135387635682d35762d357a4d393839203135387635682d35762d357a222f3e3c706174682066696c6c3d22234646443035382220643d224d393339203135387635682d35762d357a222f3e3c706174682066696c6c3d22234330344130372220643d224d393539203135387635682d35762d357a4d393739203135387635682d35762d357a222f3e3c706174682066696c6c3d22234632393931342220643d224d393939203135387635682d35762d357a222f3e3c706174682066696c6c3d22236666662220643d224d393334203135387635682d35762d357a222f3e3c706174682066696c6c3d22234538363630392220643d224d393534203135387635682d35762d357a4d393734203135387635682d35762d357a222f3e3c706174682066696c6c3d22234638433135362220643d224d393934203135387635682d35762d357a222f3e3c706174682066696c6c3d22234646443035382220643d224d393434203135387635682d35762d357a4d393634203135387635682d35762d357a222f3e3c706174682066696c6c3d22234638433135362220643d224d393834203135387635682d35762d357a222f3e3c706174682066696c6c3d22233030302220643d224d31303034203135387635682d35762d357a4d393439203133337635682d35762d357a222f3e3c706174682066696c6c3d22234632393931342220643d224d393639203133337635682d35762d357a222f3e3c706174682066696c6c3d22236666662220643d224d393539203133337635682d35762d357a222f3e3c706174682066696c6c3d22233030302220643d224d393739203133337635682d35762d357a4d393534203133337635682d35762d357a222f3e3c706174682066696c6c3d22234632393931342220643d224d393734203133337635682d35762d357a222f3e3c706174682066696c6c3d22236666662220643d224d393634203133337635682d35762d357a222f3e3c706174682066696c6c3d22233030302220643d224d393834203133337635682d35762d357a222f3e3c706174682066696c6c3d22234646443035382220643d224d393439203135337635682d35762d357a222f3e3c706174682066696c6c3d22234638433035362220643d224d393639203135337635682d35762d357a222f3e3c706174682066696c6c3d22234638433135362220643d224d393839203135337635682d35762d357a222f3e3c706174682066696c6c3d22236666662220643d224d393339203135337635682d35762d357a222f3e3c706174682066696c6c3d22234330344130372220643d224d393539203135337635682d35762d357a4d393739203135337635682d35762d357a222f3e3c706174682066696c6c3d22233030302220643d224d393939203135337635682d35762d357a4d393334203135337635682d35762d357a222f3e3c706174682066696c6c3d22234538363630392220643d224d393534203135337635682d35762d357a4d393734203135337635682d35762d357a222f3e3c706174682066696c6c3d22234632393931342220643d224d393934203135337635682d35762d357a222f3e3c706174682066696c6c3d22234646443035382220643d224d393434203135337635682d35762d357a4d393634203135337635682d35762d357a222f3e3c706174682066696c6c3d22234638433135362220643d224d393834203135337635682d35762d357a222f3e3c706174682066696c6c3d22234646443035382220643d224d393439203134337635682d35762d357a222f3e3c706174682066696c6c3d22234638433135362220643d224d393639203134337635682d35762d357a222f3e3c706174682066696c6c3d22234632393931342220643d224d393839203134337635682d35762d357a222f3e3c706174682066696c6c3d22233030302220643d224d393339203134337635682d35762d357a222f3e3c706174682066696c6c3d22234646443035382220643d224d393539203134337635682d35762d357a222f3e3c706174682066696c6c3d22234638433135362220643d224d393739203134337635682d35762d357a222f3e3c706174682066696c6c3d22234646443035382220643d224d393534203134337635682d35762d357a222f3e3c706174682066696c6c3d22234638433135362220643d224d393734203134337635682d35762d357a222f3e3c706174682066696c6c3d22233030302220643d224d393934203134337635682d35762d357a222f3e3c706174682066696c6c3d22236666662220643d224d393434203134337635682d35762d357a222f3e3c706174682066696c6c3d22234646443035382220643d224d393634203134337635682d35762d357a222f3e3c706174682066696c6c3d22234638433135362220643d224d393834203134337635682d35762d357a222f3e3c706174682066696c6c3d22233030302220643d224d3935392031323868357635682d357a4d393239203136337635682d35762d357a222f3e3c706174682066696c6c3d22234646443035382220643d224d393439203136337635682d35762d357a222f3e3c706174682066696c6c3d22234538363630392220643d224d393639203136337635682d35762d357a222f3e3c706174682066696c6c3d22234638433135362220643d224d393839203136337635682d35762d357a222f3e3c706174682066696c6c3d22234646443035382220643d224d393339203136337635682d35762d357a222f3e3c706174682066696c6c3d22234538363630392220643d224d393539203136337635682d35762d357a222f3e3c706174682066696c6c3d22234638433135362220643d224d393739203136337635682d35762d357a222f3e3c706174682066696c6c3d22234632393931342220643d224d393939203136337635682d35762d357a222f3e3c706174682066696c6c3d22236666662220643d224d393334203136337635682d35762d357a222f3e3c706174682066696c6c3d22234538363630392220643d224d393534203136337635682d35762d357a222f3e3c706174682066696c6c3d22234330344130372220643d224d393734203136337635682d35762d357a222f3e3c706174682066696c6c3d22234638433135362220643d224d393934203136337635682d35762d357a222f3e3c706174682066696c6c3d22234646443035382220643d224d393434203136337635682d35762d357a222f3e3c706174682066696c6c3d22234538363630392220643d224d393634203136337635682d35762d357a222f3e3c706174682066696c6c3d22234638433135362220643d224d393834203136337635682d35762d357a222f3e3c706174682066696c6c3d22233030302220643d224d31303034203136337635682d35762d357a4d3936342031323868357635682d357a4d393239203136387635682d35762d357a222f3e3c706174682066696c6c3d22234646443035382220643d224d393439203136387635682d35762d357a222f3e3c706174682066696c6c3d22234638433035362220643d224d393639203136387635682d35762d357a222f3e3c706174682066696c6c3d22234638433135362220643d224d393839203136387635682d35762d357a222f3e3c706174682066696c6c3d22234646443035382220643d224d393339203136387635682d35762d357a222f3e3c706174682066696c6c3d22234330344130372220643d224d393539203136387635682d35762d357a4d393739203136387635682d35762d357a222f3e3c706174682066696c6c3d22234632393931342220643d224d393939203136387635682d35762d357a222f3e3c706174682066696c6c3d22236666662220643d224d393334203136387635682d35762d357a222f3e3c706174682066696c6c3d22234538363630392220643d224d393534203136387635682d35762d357a4d393734203136387635682d35762d357a222f3e3c706174682066696c6c3d22234638433135362220643d224d393934203136387635682d35762d357a222f3e3c706174682066696c6c3d22234646443035382220643d224d393434203136387635682d35762d357a4d393634203136387635682d35762d357a222f3e3c706174682066696c6c3d22234638433135362220643d224d393834203136387635682d35762d357a222f3e3c706174682066696c6c3d22233030302220643d224d31303034203136387635682d35762d357a222f3e3c706174682066696c6c3d22234646443035382220643d224d393439203138387635682d35762d357a222f3e3c706174682066696c6c3d22234638433135362220643d224d393639203138387635682d35762d357a222f3e3c706174682066696c6c3d22234632393931342220643d224d393839203138387635682d35762d357a222f3e3c706174682066696c6c3d22233030302220643d224d393339203138387635682d35762d357a222f3e3c706174682066696c6c3d22234646443035382220643d224d393539203138387635682d35762d357a222f3e3c706174682066696c6c3d22234638433135362220643d224d393739203138387635682d35762d357a222f3e3c706174682066696c6c3d22234646443035382220643d224d393534203138387635682d35762d357a222f3e3c706174682066696c6c3d22234638433135362220643d224d393734203138387635682d35762d357a222f3e3c706174682066696c6c3d22233030302220643d224d393934203138387635682d35762d357a222f3e3c706174682066696c6c3d22236666662220643d224d393434203138387635682d35762d357a222f3e3c706174682066696c6c3d22234646443035382220643d224d393634203138387635682d35762d357a222f3e3c706174682066696c6c3d22234638433135362220643d224d393834203138387635682d35762d357a222f3e3c706174682066696c6c3d22234646443035382220643d224d393439203137387635682d35762d357a222f3e3c706174682066696c6c3d22234638433135362220643d224d393639203137387635682d35762d357a4d393839203137387635682d35762d357a222f3e3c706174682066696c6c3d22236666662220643d224d393339203137387635682d35762d357a222f3e3c706174682066696c6c3d22234330344130372220643d224d393539203137387635682d35762d357a222f3e3c706174682066696c6c3d22234538363630392220643d224d393739203137387635682d35762d357a222f3e3c706174682066696c6c3d22233030302220643d224d393939203137387635682d35762d357a4d393334203137387635682d35762d357a222f3e3c706174682066696c6c3d22234538363630392220643d224d393534203137387635682d35762d357a222f3e3c706174682066696c6c3d22234638433035362220643d224d393734203137387635682d35762d357a222f3e3c706174682066696c6c3d22234632393931342220643d224d393934203137387635682d35762d357a222f3e3c706174682066696c6c3d22234646443035382220643d224d393434203137387635682d35762d357a4d393634203137387635682d35762d357a222f3e3c706174682066696c6c3d22234330344130372220643d224d393834203137387635682d35762d357a222f3e3c706174682066696c6c3d22233030302220643d224d393439203139387635682d35762d357a222f3e3c706174682066696c6c3d22234632393931342220643d224d393639203139387635682d35762d357a222f3e3c706174682066696c6c3d22234646453641362220643d224d393539203139387635682d35762d357a222f3e3c706174682066696c6c3d22233030302220643d224d393739203139387635682d35762d357a4d393534203139387635682d35762d357a222f3e3c706174682066696c6c3d22234632393931342220643d224d393734203139387635682d35762d357a222f3e3c706174682066696c6c3d22234646453641362220643d224d393634203139387635682d35762d357a222f3e3c706174682066696c6c3d22233030302220643d224d393834203139387635682d35762d357a4d3936392031323868357635682d357a4d393239203137337635682d35762d357a222f3e3c706174682066696c6c3d22234646443035382220643d224d393439203137337635682d35762d357a222f3e3c706174682066696c6c3d22234638433035362220643d224d393639203137337635682d35762d357a222f3e3c706174682066696c6c3d22234638433135362220643d224d393839203137337635682d35762d357a222f3e3c706174682066696c6c3d22234646443035382220643d224d393339203137337635682d35762d357a222f3e3c706174682066696c6c3d22234330344130372220643d224d393539203137337635682d35762d357a4d393739203137337635682d35762d357a222f3e3c706174682066696c6c3d22234632393931342220643d224d393939203137337635682d35762d357a222f3e3c706174682066696c6c3d22236666662220643d224d393334203137337635682d35762d357a222f3e3c706174682066696c6c3d22234538363630392220643d224d393534203137337635682d35762d357a4d393734203137337635682d35762d357a222f3e3c706174682066696c6c3d22234638433135362220643d224d393934203137337635682d35762d357a222f3e3c706174682066696c6c3d22234646443035382220643d224d393434203137337635682d35762d357a4d393634203137337635682d35762d357a222f3e3c706174682066696c6c3d22234638433135362220643d224d393834203137337635682d35762d357a222f3e3c706174682066696c6c3d22233030302220643d224d31303034203137337635682d35762d357a222f3e3c706174682066696c6c3d22236666662220643d224d393439203139337635682d35762d357a222f3e3c706174682066696c6c3d22234638433135362220643d224d393639203139337635682d35762d357a222f3e3c706174682066696c6c3d22233030302220643d224d393839203139337635682d35762d357a222f3e3c706174682066696c6c3d22234646443035382220643d224d393539203139337635682d35762d357a222f3e3c706174682066696c6c3d22234632393931342220643d224d393739203139337635682d35762d357a222f3e3c706174682066696c6c3d22236666662220643d224d393534203139337635682d35762d357a222f3e3c706174682066696c6c3d22234638433135362220643d224d393734203139337635682d35762d357a222f3e3c706174682066696c6c3d22233030302220643d224d393434203139337635682d35762d357a222f3e3c706174682066696c6c3d22234646443035382220643d224d393634203139337635682d35762d357a222f3e3c706174682066696c6c3d22234632393931342220643d224d393834203139337635682d35762d357a222f3e3c706174682066696c6c3d22234646443035382220643d224d393439203138337635682d35762d357a222f3e3c706174682066696c6c3d22234638433135362220643d224d393639203138337635682d35762d357a4d393839203138337635682d35762d357a222f3e3c706174682066696c6c3d22236666662220643d224d393339203138337635682d35762d357a222f3e3c706174682066696c6c3d22234646443035382220643d224d393539203138337635682d35762d357a222f3e3c706174682066696c6c3d22234638433035362220643d224d393739203138337635682d35762d357a222f3e3c706174682066696c6c3d22233030302220643d224d393939203138337635682d35762d357a4d393334203138337635682d35762d357a222f3e3c706174682066696c6c3d22234646443035382220643d224d393534203138337635682d35762d357a222f3e3c706174682066696c6c3d22234638433135362220643d224d393734203138337635682d35762d357a222f3e3c706174682066696c6c3d22234632393931342220643d224d393934203138337635682d35762d357a222f3e3c706174682066696c6c3d22234646443035382220643d224d393434203138337635682d35762d357a4d393634203138337635682d35762d357a222f3e3c706174682066696c6c3d22234638433035362220643d224d393834203138337635682d35762d357a222f3e3c706174682066696c6c3d22233030302220643d224d393639203230337635682d35762d357a4d393539203230337635682d35762d357a4d393734203230337635682d35762d357a4d393634203230337635682d35762d357a222f3e3c646566733e3c6c696e6561724772616469656e742069643d227072656669785f5f7061696e7430222078313d223533302e303337222079313d222d32222078323d223533302e303337222079323d2235373822206772616469656e74556e6974733d227573657253706163654f6e557365223e3c73746f702073746f702d636f6c6f723d2223343532463136222f3e3c73746f70206f66667365743d2231222073746f702d636f6c6f723d2223314232303233222f3e3c2f6c696e6561724772616469656e743e3c6c696e6561724772616469656e742069643d227072656669785f5f7061696e7431222078313d223533302e303337222079313d222d32222078323d223533302e303337222079323d2235373022206772616469656e74556e6974733d227573657253706163654f6e557365223e3c73746f702073746f702d636f6c6f723d2223464638413030222f3e3c73746f70206f66667365743d2231222073746f702d636f6c6f723d2223353233393142222f3e3c2f6c696e6561724772616469656e743e3c6c696e6561724772616469656e742069643d227072656669785f5f7061696e7432222078313d223533302e393938222079313d2230222078323d223533302e393938222079323d2232393822206772616469656e74556e6974733d227573657253706163654f6e557365223e3c73746f702073746f702d636f6c6f723d2223463738363032222073746f702d6f7061636974793d222e3335222f3e3c73746f70206f66667365743d2231222073746f702d636f6c6f723d2223463738363032222073746f702d6f7061636974793d2230222f3e3c2f6c696e6561724772616469656e743e3c7374796c653e40666f6e742d666163657b666f6e742d66616d696c793a2671756f743b56543332332671756f743b3b666f6e742d7374796c653a6e6f726d616c3b666f6e742d7765696768743a3430303b7372633a75726c28646174613a6170706c69636174696f6e2f666f6e743b6261736536342c643039474d6741424141414141416a3041413041414141414b36774141416964414145414141414141414141414141414141414141414141414141414141414150305a4756453063476867475941434449684549437367497545554c584141424e67496b41324945494157465451643847366369555a524e5469714b4b6b6b5552576d534e4f4a6e676f6e586d624a4b534971453630616247796d354561314866655a373141764863597a45632b474233716d2b6b2b54414f57434f53673651416d6f55745232715652477579433436413961515057522f4475455032463846784248372b4c313371586e566e4f50502b324f4b4b69574a5a4c4959494135756a796a7a5143575675507a76742f3572763555585a684d657963794753476349686146354b762f684435656d6d6c6d535361516b516f6137614e5753574c3551727355724a5a3766757a54787a5633534b66497a4a5a46322f642f543268356b5833706c6558773149796d33342f5731696c49363452584444474d58506343586d48715333585a4c66687748454c2f3077594141324e562f3455646738354e2f4332442f3533574f41437141434e414177345846342b5a4b5171413970453041453242444c4f4c546f454b6f6e474243616351377a707878433335676434744f2f6949594554385334696b4138626a6d415855456f457673573041464c3650674b6f4d374d6a45522f6c414e3279574736627657376d35705342534c59484d4d302f4f4f7056795a62496a66496c757338376b50626f61656467653753374351644c496a53707152454e70413461412b4d61364445536f707662734b35444771435561524b474f7865434b5a71746b6f2b2f66554e7a51324e626530576d337448515344644649515254307674736b3837544651655339552f6a4a664e6d414b42694a436259523664536a575542514943545a5a77733067636d4e6f7750326b374f79555179625057746a6b796634746f346248596933395a66714147596b4673566b6a4231747939424333577735663433564b572f715a77523264345a6c756575574b4565355175314d4638336f534d69366c5850554d64356a795258466e7a573562446a2f446a714a774c6e5474474734434264664a647544695a7356314e785841777061614d474c774d503743384d3971636a51335349535050393151464d614b793361747564316a53757a724d6667344731455a6c746774566b555972783047546b516651306b5a7852797942573438772b355574546858737272784446757a6b785879555070753144626e65445377464d7a667053355a4467503470734b595747386b6c3674306e4543694f326d365254786f30643179777431676135305a3776766a447432544536485a545268686e58595864357732446c2b56754b4a77556d784a7344376d62633576685a3678584e577548452b4a4e7a5832784767477448635a652f6e44365a6273516b5079424f4e5967526864437958424f50377a7976626c704d6f43475a36386e546f6a785670525943343342456a5331573670522b47467834736c614b524e56735865347263636b5a444565656a5147533768565332326f434a644c316b71593333313471486679366e70455562356a2f464b4255612f7257524b545044384d394f64424e6b7a5159735334325562526d47755a5537424842436d4662305361484f2b7271522b715832527333736d53323346786f4146335a51664471565a4e34643764684559515a36426f786144694755685a30623635533852366d756174643935426872486931352b785941436465436c6c6d51505a626c342b6639556452426c536c68593235564c6e7a683662712f594d6d58503438736c42536f4c674f5171726a4c5554754e5930536256514f4b6c2f2f4b78456f4d767663796b476b6b646f3454644d4b7071514242693362316a69316c626a496f55327a4262434f3344507a743833367878436b364e366650666a30356d663548787a6555336c434133704b46722b4278636f676a4d506e75737a394d2b5964527861394c346f54684571426e73426950383750416a69716c6f32494e425064544c4b38567335664275515871324d5164566d74394344736d33594c5651754936744838655372564d343567492b71576e416a4450516255306756514c7271396e3367655833327161417342536148526a467a4e6e684c63733365557852304f55524346575838656639326535506e62536c2b474e52795450754573524c47533576493548654d5042484a79644365446736686c437370472b3576496c30386a6777476f366e4f5433575a2f3949706b4d4d716a6371664766364a704f6941736563767767372b73593832587832537359526d354d5a2f64457a506d4675506153634a2b664d435564525546504d4e6c35494b436d43585444646b2f2b4b666f37785866374c6a7769527074596654703943646b6c6f32666c677730696375484243556b704d30682f776e462f33414e344637324d5a566b31784269794472354e4159376f624c4131506768336a53464a7668684e6b392b666967422f5035317335696d502b6b6136727a464a6c3569356b383555434474697942536c504f66373467655337793832506e653574616435566849447a5879497978714f5336675459737a2f75377a3978616c6a31576d55436c4b7550794135706544625a395855314e644e696864362f3956456e6b36485647623538612f574a573039756b57574d73416e536d33304b424e444235324a7a5634323668662b592f4c47306769455141674c6b504f6b4e736c314d38516463627751504d4462753070626d445258343444764f7a596f474d7063496c48326676352f4f754b746b33654f312f5278326d6637616c4a6f2b655278542f4543386d3734595159736257316b62583579534a31734e4e3839544738447773744a516776544f72426d7744356d624c48524d33763454317a637653364550394361754976316663787135504f393667367455646e3538664c485276766c58504c6a4668706d652b5043514a7a7a663171653366692b6d645655744f752b6e53686e58536f757070594a437079536f4d6c7038316371627151614c496639594279717533644675594b2b67324635555563593365765a786d746c4c786d7a327a4136754463673365785a614d4a70546352642f7968774465774847575745484a653837586c6a695a4679626c6b2b2b3758506a5a3956644a7032527a51347342735435795567774d4653303242614359346f64542f61344c664a4f67345769457442416a6b31556144656d72315273397870444e4c4957755671794378565434594e634c5574597a78386e594e36686979564d74494a364d6d576c6f3344434466576861787274574945624c4c436f494d67527a706e2b627a4531574c6a763368645865316357316b2b636a6635313731386965736f425a5767315675655272794658784f3435397a6f325372714b66414c334c704854454748654a6b67476549667a59303971516f474a554e5467533835656c494f394377697431646a755a687a574342556976752b34776c433358435949735a35706c484b55365a69784d494e4b4d594f453647326b684c352b637857393836636a6a484c674475517967655162706c48465671626a4f4f73316171635262776a5348536d686a353952786342384751454a54424c4b3259574363446d36646574555a34614c49324b5741542f5841485555436149643757763557384f6f4642644949694d73567a705348456c63566c4f7857426d49776b41556c2b5551783471724659514866665066637469654e66433741363646637a353941713358535a355a72624a7342696b47715173306471313048564a7642715a42504c6535745357426c7a5a6c4146794f54765462533831554e39595362385243753261662b36574d7775554e4747393679473761524831363636426933546f3844707254464d516a33524867696c466f303870307935514f674646315753474936644c6c477674526d42456f7553715861334973317969353773787469704947754472502b6238537557736f396a71623070525359777058462b2f685470336a76677473494e43496945744953716c68367157335076727170386b6746786970714b53736f71716d446c3669716157746f36756e6232426f5a477869616d5a7559656b4e414141412920666f726d6174282661706f733b776f6666322661706f733b297d3c2f7374796c653e3c7374796c653e40666f6e742d666163657b666f6e742d66616d696c793a2661706f733b426c61636b204f7073204f6e652661706f733b3b7372633a75726c28646174613a6170706c69636174696f6e2f666f6e743b6261736536342c643039474d674142414141414141654d41413041414141414541414141416332414145414141414141414141414141414141414141414141414141414141414150305a4756453063476867475941434457424549436f356f69574d4c4f6741424e67496b4133414549415748517764614731304d555653524f67422b48746875557a703061495174564c55376958386859624167636a74436b6c6d6a2b45312f6e354737694a46556b4a6c5849325a43616861462b4f524254556c466e645163716b612f714a41365359336e33392f596559392f4152706a6a4f426d314768707272745a71794530343339784c5a756b6445317a665a42756476614a647a446b446c434a61626e2f573274316478464e4a496e632b33676e5a434b6c45744b4b2f52764d5a67637a443546515063547a68436558454c6d495a44496c55564a476e557836724534413755736575706d6373364774656d4941444142387264336344514466507a75314241422b4f48766f567a414158414634416c6741664e7056474d7173676741495562774e774a5a734a396147693077585568724d41667832774d2b3033797a67476f4a304c4756767977427967543070416d7342674e6349595142454441414f41416441685145416641774f4441415648756341394f4f4a41304749424e6d4b61656c3139446569737a686b6f4d393745435238717131537464596f333448796b65382f65336a724b6f6c372b2f6a684a59424250346a314d5643465271346d376e6e492b5142383964465867322b6950775541554370534d544b41515759594667434c6441776d636541425165623054465949496a305137696d6a3134462f4a504954766c646639414f672f77315179704978377a584356627a4841784b427551576b34573875614130543463386a54337066454b374538566f78584d656f76586561723054696e4863576739546f6274653572746261436772645939703448375977724c6e513275735174422f6d2f50546331754f6d4856584e6f4b34754b4949516f366949632b697152464a776261757963613167394b304a4d4537326b727249314362444e56596c506b4d724b716f6e534b70724973696b764d4877794d44683652346245435759736c6a476f4a3548575538593136615048547a6932424d6a46592b494c417a5934526b4353613065535351557433575561647a48556a316d6555534b66634749476f71737368676335515849456b32565874736c6469507162585864494675436c5a692b6a496e4578636d746e537850334d306a667650774a67547167594e706e46306137564c4a6c306a323270726f43476b6f7a4967694c414432687965756453574e61646d664b453176675530626a2f4f426f6c66724a535131714379474131394f795850476567524a55596e5262466b4e7376664778304a38312f476e5139767270552b32676d6c5763764e4a48486d58663049345a7a4c4576344f772b3673506c594f392f396a34784c6a45412b6245756a706d333846596a306e615a34342f4f535a445365376361642b352f636e32726661744f334878755632796f3345723070776b524531494e31564b7965765a456448342f764537303379542f4b384e4f64524130667858554a63434a4f5966762f704d7558663251556f2b74327575387a577a37542f61635349382b6f2f6f666963704562615a746931776f30357061375766454e4b6a794c2f684974635359724e593835586f4a59535a70513363686f755a48313755765169554e4737644c6b38344e48362b4f304c566e2b367371427a6c634345306a7044504b566c765852394b4d556d727478684f44366f5055766635747966756f5670434a673635655a75656a68766a594c696e79595341797870544f732f6b543373666b4e4e6a6c4a2f38664b692f2f4766712b2f625a4d572f48584a36535a6e724e2b5a726a6d7649617a6155327063316863375a524853487364744e326b7a6478676763396f443541683776686e48593770634755444b583767347563652b32556a4c534d3345396833504c562b6252486f3559654347475758417a6a674f74632b733268315364682b44484647347352666179773258727666326c64766e55352b74396b66704a4b6152416c4737366f4273306878475751746250614c762f74392b58706e505637306d6e5a6b64384e486346716757444e6464775a636d664233486c504b664768424c71562b424279556b4e6e377278466a5954736e446e546361765459694354377a6e4866504576793139304d694853624c4f6a55707076776b71316e7571334f372f7170756d6e2b43673153336f706c6b6d6d7a6d716c6d56503741754c634a4c4734664f6774342f78356b4b3372556c6756796a4e644771734777666372687258725876372f663978737a52574e4c50634256426f694f58496472554e6171662f596b6441394c527057775634692f4737587a312f4a415142674144434d724d4a6263583238522f494c346b4b7769665874396d365a62496c774377414253366c75484c73356851414159673077614b46716533643741494474416f53647350422f77434a38672b61784569754543326a4f4639436c4857374331326943524a456a6568615534643650595277394d5061664d7263784d546e514a516a6a4534587830314a6f6b6f7a7876527a36464376583044442b685737542b77454463514141467131556e753641516356495a34614267527354434379636d487a676f4b356c774d4f3350676342675a304a4d7368372f64377555505a50344d4477464d417049414d47696e49484675354d5048424972484c6745566864494b43712f67555a4e4e31794d6e664574686c5a32725362716f4e6541783044556154774c415556565533354f697848594373533279716d56554e423267484c6539716d45556c717874454d786870316339704255754c504677304d64354a4559634930304750314e4b6f57716b6262576f54525570456d5762544b564137576866744d7a53617130535245475a2b71414c6a4c577a37564f66502f567671563631756e747258757765716e43625162633166342f32357a6e77613951576573336d30317455757253642b3674307243376772664d615373585171417a454252365739725651656f7643686d64363131514b553644597730465233773673756642534b454368637557684b744b6c6d534f43756777616f68664e7845764d4c446f354f3056566c4a38695358504475452b377a315731586b4e6c5066584c4667773952466875686a7556497369526770566d3969444c487474756d314d70424a324269662b656a4563554c45714a57734967424f374b6b5731496f47512f324251586564767455672b6b3961664376786f6447686353457874544856415844476e43365966565a614c73324b54424a71476d735757766871454b5a4d726d4b49762f596a756b7a534e783941565a586c46692f59363735506442457464796f4141786275384e7762566b414456434b4f3779644d6a46673563755572554b685968557044415141412920666f726d6174282661706f733b776f6666322661706f733b297d3c2f7374796c653e3c2f646566733e3c2f7376673e3c2f746578743e3c746578742064783d22383033222064793d223338352220646f6d696e616e742d626173656c696e653d2263656e7472616c2220746578742d616e63686f723d226c6566742220666f6e742d66616d696c793d2256543332332220666f6e742d7765696768743d223430302220666f6e742d73697a653d223732222066696c6c3d2223363545323530223e4167653a3c2f746578743e3c746578742064783d22323034222064793d223235322220646f6d696e616e742d626173656c696e653d2263656e7472616c2220746578742d616e63686f723d226d6964646c652220666f6e742d66616d696c793d22426c61636b204f7073204f6e652220666f6e742d7765696768743d223430302220666f6e742d73697a653d223438222066696c6c3d2223464638413031223e4c69666553636f72653c2f746578743e3c746578742064783d22313830222064793d223134342220646f6d696e616e742d626173656c696e653d2263656e7472616c2220746578742d616e63686f723d226d6964646c652220666f6e742d66616d696c793d22426c61636b204f7073204f6e652220666f6e742d7765696768743d223430302220666f6e742d73697a653d22313638222066696c6c3d2223464638413031223e3c2f746578743e3c746578742064783d22373635222064793d223136392220646f6d696e616e742d626173656c696e653d2263656e7472616c2220666f6e742d66616d696c793d2256543332332220666f6e742d7765696768743d223530302220666f6e742d73697a653d223830222066696c6c3d2223363545323530223e2b3c2f746578743e3c746578742064783d22333237222064793d223338342220646f6d696e616e742d626173656c696e653d2263656e7472616c2220746578742d616e63686f723d226d6964646c652220666f6e742d66616d696c793d2256543332332220746578744c656e6774683d223331352220666f6e742d7765696768743d223430302220666f6e742d73697a653d223732222066696c6c3d2223464646223ea2646970667358221220de46e658e829745ca514dd28e4d6de26739ae7391ca6e78bf5794f4a19bf1c7e64736f6c63430008110033",
  "devdoc": {
    "kind": "dev",
    "methods": {},
    "version": 1
  },
  "userdoc": {
    "kind": "user",
    "methods": {},
    "version": 1
  },
  "storageLayout": {
    "storage": [],
    "types": null
  }
}