{
  "address": "0xBcF20645Ed5836975c72F99455cC6E837a5ec69E",
  "abi": [
    {
      "inputs": [],
      "name": "DropOff",
      "type": "error"
    },
    {
      "inputs": [],
      "name": "InsufficientAmount",
      "type": "error"
    },
    {
      "inputs": [],
      "name": "NotSigner",
      "type": "error"
    },
    {
      "inputs": [],
      "name": "OnlySimulatedBackend",
      "type": "error"
    },
    {
      "inputs": [],
      "name": "SameSeed",
      "type": "error"
    },
    {
      "inputs": [],
      "name": "SwitchAmountExceedBalance",
      "type": "error"
    },
    {
      "anonymous": false,
      "inputs": [
        {
          "indexed": false,
          "internalType": "address",
          "name": "previousAdmin",
          "type": "address"
        },
        {
          "indexed": false,
          "internalType": "address",
          "name": "newAdmin",
          "type": "address"
        }
      ],
      "name": "AdminChanged",
      "type": "event"
    },
    {
      "anonymous": false,
      "inputs": [
        {
          "indexed": true,
          "internalType": "address",
          "name": "owner",
          "type": "address"
        },
        {
          "indexed": true,
          "internalType": "address",
          "name": "approved",
          "type": "address"
        },
        {
          "indexed": true,
          "internalType": "uint256",
          "name": "tokenId",
          "type": "uint256"
        }
      ],
      "name": "Approval",
      "type": "event"
    },
    {
      "anonymous": false,
      "inputs": [
        {
          "indexed": true,
          "internalType": "address",
          "name": "owner",
          "type": "address"
        },
        {
          "indexed": true,
          "internalType": "address",
          "name": "operator",
          "type": "address"
        },
        {
          "indexed": false,
          "internalType": "bool",
          "name": "approved",
          "type": "bool"
        }
      ],
      "name": "ApprovalForAll",
      "type": "event"
    },
    {
      "anonymous": false,
      "inputs": [
        {
          "indexed": true,
          "internalType": "address",
          "name": "user",
          "type": "address"
        },
        {
          "indexed": false,
          "internalType": "uint256",
          "name": "amount",
          "type": "uint256"
        }
      ],
      "name": "Baptise",
      "type": "event"
    },
    {
      "anonymous": false,
      "inputs": [
        {
          "indexed": true,
          "internalType": "address",
          "name": "beacon",
          "type": "address"
        }
      ],
      "name": "BeaconUpgraded",
      "type": "event"
    },
    {
      "anonymous": false,
      "inputs": [
        {
          "indexed": true,
          "internalType": "address",
          "name": "account",
          "type": "address"
        },
        {
          "indexed": false,
          "internalType": "uint256",
          "name": "tokenId",
          "type": "uint256"
        },
        {
          "indexed": false,
          "internalType": "uint256",
          "name": "amount",
          "type": "uint256"
        }
      ],
      "name": "DecreaseFromPool",
      "type": "event"
    },
    {
      "anonymous": false,
      "inputs": [
        {
          "indexed": false,
          "internalType": "uint256[]",
          "name": "tokenIds",
          "type": "uint256[]"
        }
      ],
      "name": "Drop",
      "type": "event"
    },
    {
      "anonymous": false,
      "inputs": [
        {
          "indexed": true,
          "internalType": "address",
          "name": "user",
          "type": "address"
        },
        {
          "indexed": true,
          "internalType": "uint256",
          "name": "tokenId",
          "type": "uint256"
        },
        {
          "indexed": false,
          "internalType": "uint256",
          "name": "amount",
          "type": "uint256"
        }
      ],
      "name": "Dry",
      "type": "event"
    },
    {
      "anonymous": false,
      "inputs": [
        {
          "indexed": true,
          "internalType": "bytes32",
          "name": "seed",
          "type": "bytes32"
        },
        {
          "indexed": true,
          "internalType": "address",
          "name": "user",
          "type": "address"
        },
        {
          "indexed": true,
          "internalType": "uint256",
          "name": "tokenId",
          "type": "uint256"
        },
        {
          "indexed": false,
          "internalType": "uint256",
          "name": "score",
          "type": "uint256"
        },
        {
          "indexed": false,
          "internalType": "uint256",
          "name": "reward",
          "type": "uint256"
        }
      ],
      "name": "Engrave",
      "type": "event"
    },
    {
      "anonymous": false,
      "inputs": [
        {
          "indexed": true,
          "internalType": "address",
          "name": "user",
          "type": "address"
        },
        {
          "indexed": true,
          "internalType": "uint256",
          "name": "talentPrice",
          "type": "uint256"
        },
        {
          "indexed": true,
          "internalType": "uint256",
          "name": "PropertyPrice",
          "type": "uint256"
        },
        {
          "indexed": false,
          "internalType": "uint256",
          "name": "soupPrice",
          "type": "uint256"
        }
      ],
      "name": "Incarnate",
      "type": "event"
    },
    {
      "anonymous": false,
      "inputs": [
        {
          "indexed": true,
          "internalType": "address",
          "name": "account",
          "type": "address"
        },
        {
          "indexed": false,
          "internalType": "uint256",
          "name": "tokenId",
          "type": "uint256"
        },
        {
          "indexed": false,
          "internalType": "uint256",
          "name": "amount",
          "type": "uint256"
        }
      ],
      "name": "IncreaseToPool",
      "type": "event"
    },
    {
      "anonymous": false,
      "inputs": [
        {
          "indexed": true,
          "internalType": "address",
          "name": "user",
          "type": "address"
        },
        {
          "indexed": true,
          "internalType": "uint256",
          "name": "tokenId",
          "type": "uint256"
        },
        {
          "indexed": false,
          "internalType": "uint256",
          "name": "amount",
          "type": "uint256"
        }
      ],
      "name": "Infuse",
      "type": "event"
    },
    {
      "anonymous": false,
      "inputs": [
        {
          "indexed": false,
          "internalType": "uint8",
          "name": "version",
          "type": "uint8"
        }
      ],
      "name": "Initialized",
      "type": "event"
    },
    {
      "anonymous": false,
      "inputs": [
        {
          "indexed": false,
          "internalType": "uint256",
          "name": "",
          "type": "uint256"
        }
      ],
      "name": "NewSeason",
      "type": "event"
    },
    {
      "anonymous": false,
      "inputs": [
        {
          "indexed": false,
          "internalType": "uint256",
          "name": "price",
          "type": "uint256"
        }
      ],
      "name": "NewSoupPrice",
      "type": "event"
    },
    {
      "anonymous": false,
      "inputs": [
        {
          "indexed": true,
          "internalType": "address",
          "name": "previousOwner",
          "type": "address"
        },
        {
          "indexed": true,
          "internalType": "address",
          "name": "newOwner",
          "type": "address"
        }
      ],
      "name": "OwnershipTransferred",
      "type": "event"
    },
    {
      "anonymous": false,
      "inputs": [
        {
          "indexed": false,
          "internalType": "address",
          "name": "account",
          "type": "address"
        }
      ],
      "name": "Paused",
      "type": "event"
    },
    {
      "anonymous": false,
      "inputs": [
        {
          "indexed": false,
          "internalType": "address",
          "name": "referee",
          "type": "address"
        },
        {
          "indexed": false,
          "internalType": "address",
          "name": "referrer",
          "type": "address"
        }
      ],
      "name": "Refer",
      "type": "event"
    },
    {
      "anonymous": false,
      "inputs": [
        {
          "indexed": true,
          "internalType": "address",
          "name": "user",
          "type": "address"
        },
        {
          "indexed": true,
          "internalType": "address",
          "name": "ref1",
          "type": "address"
        },
        {
          "indexed": false,
          "internalType": "uint256",
          "name": "amount1",
          "type": "uint256"
        },
        {
          "indexed": true,
          "internalType": "address",
          "name": "ref2",
          "type": "address"
        },
        {
          "indexed": false,
          "internalType": "uint256",
          "name": "amount2",
          "type": "uint256"
        },
        {
          "indexed": false,
          "internalType": "enum IRebornDefination.RewardType",
          "name": "rewardType",
          "type": "uint8"
        }
      ],
      "name": "ReferReward",
      "type": "event"
    },
    {
      "anonymous": false,
      "inputs": [
        {
          "indexed": false,
          "internalType": "address",
          "name": "signer",
          "type": "address"
        },
        {
          "indexed": false,
          "internalType": "bool",
          "name": "valid",
          "type": "bool"
        }
      ],
      "name": "SignerUpdate",
      "type": "event"
    },
    {
      "anonymous": false,
      "inputs": [
        {
          "indexed": true,
          "internalType": "address",
          "name": "from",
          "type": "address"
        },
        {
          "indexed": true,
          "internalType": "address",
          "name": "to",
          "type": "address"
        },
        {
          "indexed": true,
          "internalType": "uint256",
          "name": "tokenId",
          "type": "uint256"
        }
      ],
      "name": "Transfer",
      "type": "event"
    },
    {
      "anonymous": false,
      "inputs": [
        {
          "indexed": false,
          "internalType": "address",
          "name": "account",
          "type": "address"
        }
      ],
      "name": "Unpaused",
      "type": "event"
    },
    {
      "anonymous": false,
      "inputs": [
        {
          "indexed": true,
          "internalType": "address",
          "name": "implementation",
          "type": "address"
        }
      ],
      "name": "Upgraded",
      "type": "event"
    },
    {
      "inputs": [
        {
          "internalType": "address",
          "name": "to",
          "type": "address"
        },
        {
          "internalType": "uint256",
          "name": "tokenId",
          "type": "uint256"
        }
      ],
      "name": "approve",
      "outputs": [],
      "stateMutability": "nonpayable",
      "type": "function"
    },
    {
      "inputs": [
        {
          "internalType": "address",
          "name": "owner",
          "type": "address"
        }
      ],
      "name": "balanceOf",
      "outputs": [
        {
          "internalType": "uint256",
          "name": "",
          "type": "uint256"
        }
      ],
      "stateMutability": "view",
      "type": "function"
    },
    {
      "inputs": [
        {
          "internalType": "address",
          "name": "user",
          "type": "address"
        },
        {
          "internalType": "uint256",
          "name": "amount",
          "type": "uint256"
        }
      ],
      "name": "baptise",
      "outputs": [],
      "stateMutability": "nonpayable",
      "type": "function"
    },
    {
      "inputs": [
        {
          "internalType": "address",
          "name": "account",
          "type": "address"
        },
        {
          "internalType": "uint256",
          "name": "amount",
          "type": "uint256"
        },
        {
          "internalType": "enum IRebornDefination.RewardType",
          "name": "rewardType",
          "type": "uint8"
        }
      ],
      "name": "calculateReferReward",
      "outputs": [
        {
          "internalType": "address",
          "name": "ref1",
          "type": "address"
        },
        {
          "internalType": "uint256",
          "name": "ref1Reward",
          "type": "uint256"
        },
        {
          "internalType": "address",
          "name": "ref2",
          "type": "address"
        },
        {
          "internalType": "uint256",
          "name": "ref2Reward",
          "type": "uint256"
        }
      ],
      "stateMutability": "view",
      "type": "function"
    },
    {
      "inputs": [
        {
          "internalType": "bytes",
          "name": "",
          "type": "bytes"
        }
      ],
      "name": "checkUpkeep",
      "outputs": [
        {
          "internalType": "bool",
          "name": "upkeepNeeded",
          "type": "bool"
        },
        {
          "internalType": "bytes",
          "name": "performData",
          "type": "bytes"
        }
      ],
      "stateMutability": "view",
      "type": "function"
    },
    {
      "inputs": [
        {
          "internalType": "uint256[]",
          "name": "tokenIds",
          "type": "uint256[]"
        }
      ],
      "name": "claimDrops",
      "outputs": [],
      "stateMutability": "nonpayable",
      "type": "function"
    },
    {
      "inputs": [
        {
          "internalType": "uint256[]",
          "name": "tokenIds",
          "type": "uint256[]"
        }
      ],
      "name": "claimNativeDrops",
      "outputs": [],
      "stateMutability": "nonpayable",
      "type": "function"
    },
    {
      "inputs": [],
      "name": "claimOwnership",
      "outputs": [],
      "stateMutability": "nonpayable",
      "type": "function"
    },
    {
      "inputs": [
        {
          "internalType": "uint256[]",
          "name": "tokenIds",
          "type": "uint256[]"
        }
      ],
      "name": "claimRebornDrops",
      "outputs": [],
      "stateMutability": "nonpayable",
      "type": "function"
    },
    {
      "inputs": [
        {
          "internalType": "uint256",
          "name": "",
          "type": "uint256"
        }
      ],
      "name": "details",
      "outputs": [
        {
          "internalType": "bytes32",
          "name": "seed",
          "type": "bytes32"
        },
        {
          "internalType": "address",
          "name": "creator",
          "type": "address"
        },
        {
          "internalType": "uint16",
          "name": "age",
          "type": "uint16"
        },
        {
          "internalType": "uint32",
          "name": "round",
          "type": "uint32"
        },
        {
          "internalType": "uint48",
          "name": "nothing",
          "type": "uint48"
        },
        {
          "internalType": "uint128",
          "name": "cost",
          "type": "uint128"
        },
        {
          "internalType": "uint128",
          "name": "reward",
          "type": "uint128"
        },
        {
          "internalType": "uint256",
          "name": "score",
          "type": "uint256"
        }
      ],
      "stateMutability": "view",
      "type": "function"
    },
    {
      "inputs": [
        {
          "internalType": "bytes32",
          "name": "seed",
          "type": "bytes32"
        },
        {
          "internalType": "address",
          "name": "user",
          "type": "address"
        },
        {
          "internalType": "uint256",
          "name": "reward",
          "type": "uint256"
        },
        {
          "internalType": "uint256",
          "name": "score",
          "type": "uint256"
        },
        {
          "internalType": "uint256",
          "name": "age",
          "type": "uint256"
        },
        {
          "internalType": "uint256",
          "name": "cost",
          "type": "uint256"
        }
      ],
      "name": "engrave",
      "outputs": [],
      "stateMutability": "nonpayable",
      "type": "function"
    },
    {
      "inputs": [
        {
          "internalType": "uint256",
          "name": "tokenId",
          "type": "uint256"
        }
      ],
      "name": "getApproved",
      "outputs": [
        {
          "internalType": "address",
          "name": "",
          "type": "address"
        }
      ],
      "stateMutability": "view",
      "type": "function"
    },
    {
      "inputs": [
        {
          "internalType": "uint256",
          "name": "tokenId",
          "type": "uint256"
        }
      ],
      "name": "getPool",
      "outputs": [
        {
          "components": [
            {
              "internalType": "uint256",
              "name": "totalAmount",
              "type": "uint256"
            },
            {
              "internalType": "uint256",
              "name": "accRebornPerShare",
              "type": "uint256"
            },
            {
              "internalType": "uint256",
              "name": "accNativePerShare",
              "type": "uint256"
            },
            {
              "internalType": "uint256",
              "name": "epoch",
              "type": "uint256"
            },
            {
              "internalType": "uint256",
              "name": "lastUpdated",
              "type": "uint256"
            }
          ],
          "internalType": "struct PortalLib.Pool",
          "name": "",
          "type": "tuple"
        }
      ],
      "stateMutability": "view",
      "type": "function"
    },
    {
      "inputs": [
        {
          "internalType": "address",
          "name": "user",
          "type": "address"
        },
        {
          "internalType": "uint256",
          "name": "tokenId",
          "type": "uint256"
        }
      ],
      "name": "getPortfolio",
      "outputs": [
        {
          "components": [
            {
              "internalType": "uint256",
              "name": "accumulativeAmount",
              "type": "uint256"
            },
            {
              "internalType": "uint256",
              "name": "rebornRewardDebt",
              "type": "uint256"
            },
            {
              "internalType": "uint256",
              "name": "nativeRewardDebt",
              "type": "uint256"
            },
            {
              "internalType": "uint256",
              "name": "pendingOwnerRebornReward",
              "type": "uint256"
            },
            {
              "internalType": "uint256",
              "name": "pendingOwernNativeReward",
              "type": "uint256"
            }
          ],
          "internalType": "struct PortalLib.Portfolio",
          "name": "",
          "type": "tuple"
        }
      ],
      "stateMutability": "view",
      "type": "function"
    },
    {
      "inputs": [
        {
          "internalType": "address",
          "name": "account",
          "type": "address"
        }
      ],
      "name": "getRerferrers",
      "outputs": [
        {
          "internalType": "address",
          "name": "referrer1",
          "type": "address"
        },
        {
          "internalType": "address",
          "name": "referrer2",
          "type": "address"
        }
      ],
      "stateMutability": "view",
      "type": "function"
    },
    {
      "inputs": [
        {
          "components": [
            {
              "internalType": "uint256",
              "name": "talentPrice",
              "type": "uint256"
            },
            {
              "internalType": "uint256",
              "name": "propertyPrice",
              "type": "uint256"
            }
          ],
          "internalType": "struct IRebornDefination.Innate",
          "name": "innate",
          "type": "tuple"
        },
        {
          "internalType": "address",
          "name": "referrer",
          "type": "address"
        },
        {
          "internalType": "uint256",
          "name": "_soupPrice",
          "type": "uint256"
        }
      ],
      "name": "incarnate",
      "outputs": [],
      "stateMutability": "payable",
      "type": "function"
    },
    {
      "inputs": [
        {
          "internalType": "uint256",
          "name": "tokenId",
          "type": "uint256"
        },
        {
          "internalType": "uint256",
          "name": "amount",
          "type": "uint256"
        },
        {
          "internalType": "uint256",
          "name": "permitAmount",
          "type": "uint256"
        },
        {
          "internalType": "uint256",
          "name": "deadline",
          "type": "uint256"
        },
        {
          "internalType": "bytes32",
          "name": "r",
          "type": "bytes32"
        },
        {
          "internalType": "bytes32",
          "name": "s",
          "type": "bytes32"
        },
        {
          "internalType": "uint8",
          "name": "v",
          "type": "uint8"
        }
      ],
      "name": "infuse",
      "outputs": [],
      "stateMutability": "nonpayable",
      "type": "function"
    },
    {
      "inputs": [
        {
          "internalType": "uint256",
          "name": "tokenId",
          "type": "uint256"
        },
        {
          "internalType": "uint256",
          "name": "amount",
          "type": "uint256"
        }
      ],
      "name": "infuse",
      "outputs": [],
      "stateMutability": "nonpayable",
      "type": "function"
    },
    {
      "inputs": [
        {
          "internalType": "contract RBT",
          "name": "rebornToken_",
          "type": "address"
        },
        {
          "internalType": "address",
          "name": "owner_",
          "type": "address"
        },
        {
          "internalType": "string",
          "name": "name_",
          "type": "string"
        },
        {
          "internalType": "string",
          "name": "symbol_",
          "type": "string"
        }
      ],
      "name": "initialize",
      "outputs": [],
      "stateMutability": "nonpayable",
      "type": "function"
    },
    {
      "inputs": [
        {
          "internalType": "address",
          "name": "owner",
          "type": "address"
        },
        {
          "internalType": "address",
          "name": "operator",
          "type": "address"
        }
      ],
      "name": "isApprovedForAll",
      "outputs": [
        {
          "internalType": "bool",
          "name": "",
          "type": "bool"
        }
      ],
      "stateMutability": "view",
      "type": "function"
    },
    {
      "inputs": [],
      "name": "name",
      "outputs": [
        {
          "internalType": "string",
          "name": "",
          "type": "string"
        }
      ],
      "stateMutability": "view",
      "type": "function"
    },
    {
      "inputs": [],
      "name": "owner",
      "outputs": [
        {
          "internalType": "address",
          "name": "",
          "type": "address"
        }
      ],
      "stateMutability": "view",
      "type": "function"
    },
    {
      "inputs": [
        {
          "internalType": "uint256",
          "name": "tokenId",
          "type": "uint256"
        }
      ],
      "name": "ownerOf",
      "outputs": [
        {
          "internalType": "address",
          "name": "",
          "type": "address"
        }
      ],
      "stateMutability": "view",
      "type": "function"
    },
    {
      "inputs": [],
      "name": "pause",
      "outputs": [],
      "stateMutability": "nonpayable",
      "type": "function"
    },
    {
      "inputs": [],
      "name": "paused",
      "outputs": [
        {
          "internalType": "bool",
          "name": "",
          "type": "bool"
        }
      ],
      "stateMutability": "view",
      "type": "function"
    },
    {
      "inputs": [
        {
          "internalType": "uint256[]",
          "name": "tokenIds",
          "type": "uint256[]"
        }
      ],
      "name": "pendingDrop",
      "outputs": [
        {
          "internalType": "uint256",
          "name": "pNative",
          "type": "uint256"
        },
        {
          "internalType": "uint256",
          "name": "pReborn",
          "type": "uint256"
        }
      ],
      "stateMutability": "view",
      "type": "function"
    },
    {
      "inputs": [],
      "name": "pendingOwner",
      "outputs": [
        {
          "internalType": "address",
          "name": "",
          "type": "address"
        }
      ],
      "stateMutability": "view",
      "type": "function"
    },
    {
      "inputs": [
        {
          "internalType": "bytes",
          "name": "performData",
          "type": "bytes"
        }
      ],
      "name": "performUpkeep",
      "outputs": [],
      "stateMutability": "nonpayable",
      "type": "function"
    },
    {
      "inputs": [],
      "name": "proxiableUUID",
      "outputs": [
        {
          "internalType": "bytes32",
          "name": "",
          "type": "bytes32"
        }
      ],
      "stateMutability": "view",
      "type": "function"
    },
    {
      "inputs": [],
      "name": "rebornToken",
      "outputs": [
        {
          "internalType": "contract RBT",
          "name": "",
          "type": "address"
        }
      ],
      "stateMutability": "view",
      "type": "function"
    },
    {
      "inputs": [
        {
          "internalType": "address",
          "name": "",
          "type": "address"
        }
      ],
      "name": "referrals",
      "outputs": [
        {
          "internalType": "address",
          "name": "",
          "type": "address"
        }
      ],
      "stateMutability": "view",
      "type": "function"
    },
    {
      "inputs": [],
      "name": "renounceOwnership",
      "outputs": [],
      "stateMutability": "nonpayable",
      "type": "function"
    },
    {
      "inputs": [],
      "name": "rewardFees",
      "outputs": [
        {
          "internalType": "uint16",
          "name": "incarnateRef1Fee",
          "type": "uint16"
        },
        {
          "internalType": "uint16",
          "name": "incarnateRef2Fee",
          "type": "uint16"
        },
        {
          "internalType": "uint16",
          "name": "vaultRef1Fee",
          "type": "uint16"
        },
        {
          "internalType": "uint16",
          "name": "vaultRef2Fee",
          "type": "uint16"
        },
        {
          "internalType": "uint192",
          "name": "_slotPlaceholder",
          "type": "uint192"
        }
      ],
      "stateMutability": "view",
      "type": "function"
    },
    {
      "inputs": [
        {
          "internalType": "address",
          "name": "from",
          "type": "address"
        },
        {
          "internalType": "address",
          "name": "to",
          "type": "address"
        },
        {
          "internalType": "uint256",
          "name": "tokenId",
          "type": "uint256"
        }
      ],
      "name": "safeTransferFrom",
      "outputs": [],
      "stateMutability": "nonpayable",
      "type": "function"
    },
    {
      "inputs": [
        {
          "internalType": "address",
          "name": "from",
          "type": "address"
        },
        {
          "internalType": "address",
          "name": "to",
          "type": "address"
        },
        {
          "internalType": "uint256",
          "name": "tokenId",
          "type": "uint256"
        },
        {
          "internalType": "bytes",
          "name": "data",
          "type": "bytes"
        }
      ],
      "name": "safeTransferFrom",
      "outputs": [],
      "stateMutability": "nonpayable",
      "type": "function"
    },
    {
      "inputs": [
        {
          "internalType": "bytes32",
          "name": "seed",
          "type": "bytes32"
        }
      ],
      "name": "seedExists",
      "outputs": [
        {
          "internalType": "bool",
          "name": "",
          "type": "bool"
        }
      ],
      "stateMutability": "view",
      "type": "function"
    },
    {
      "inputs": [
        {
          "internalType": "address",
          "name": "operator",
          "type": "address"
        },
        {
          "internalType": "bool",
          "name": "approved",
          "type": "bool"
        }
      ],
      "name": "setApprovalForAll",
      "outputs": [],
      "stateMutability": "nonpayable",
      "type": "function"
    },
    {
      "inputs": [
        {
          "components": [
            {
              "internalType": "uint8",
              "name": "_dropOn",
              "type": "uint8"
            },
            {
              "internalType": "uint40",
              "name": "_rebornDropInterval",
              "type": "uint40"
            },
            {
              "internalType": "uint40",
              "name": "_nativeDropInterval",
              "type": "uint40"
            },
            {
              "internalType": "uint40",
              "name": "_rebornDropLastUpdate",
              "type": "uint40"
            },
            {
              "internalType": "uint40",
              "name": "_nativeDropLastUpdate",
              "type": "uint40"
            },
            {
              "internalType": "uint16",
              "name": "_nativeDropRatio",
              "type": "uint16"
            },
            {
              "internalType": "uint72",
              "name": "_rebornDropEthAmount",
              "type": "uint72"
            }
          ],
          "internalType": "struct PortalLib.AirdropConf",
          "name": "conf",
          "type": "tuple"
        }
      ],
      "name": "setDropConf",
      "outputs": [],
      "stateMutability": "nonpayable",
      "type": "function"
    },
    {
      "inputs": [
        {
          "internalType": "uint16",
          "name": "refL1Fee",
          "type": "uint16"
        },
        {
          "internalType": "uint16",
          "name": "refL2Fee",
          "type": "uint16"
        },
        {
          "internalType": "enum IRebornDefination.RewardType",
          "name": "rewardType",
          "type": "uint8"
        }
      ],
      "name": "setReferrerRewardFee",
      "outputs": [],
      "stateMutability": "nonpayable",
      "type": "function"
    },
    {
      "inputs": [
        {
          "internalType": "contract RewardVault",
          "name": "vault_",
          "type": "address"
        }
      ],
      "name": "setVault",
      "outputs": [],
      "stateMutability": "nonpayable",
      "type": "function"
    },
    {
      "inputs": [
        {
          "internalType": "address",
          "name": "",
          "type": "address"
        }
      ],
      "name": "signers",
      "outputs": [
        {
          "internalType": "bool",
          "name": "",
          "type": "bool"
        }
      ],
      "stateMutability": "view",
      "type": "function"
    },
    {
      "inputs": [
        {
          "internalType": "bytes4",
          "name": "interfaceId",
          "type": "bytes4"
        }
      ],
      "name": "supportsInterface",
      "outputs": [
        {
          "internalType": "bool",
          "name": "",
          "type": "bool"
        }
      ],
      "stateMutability": "view",
      "type": "function"
    },
    {
      "inputs": [
        {
          "internalType": "uint256",
          "name": "fromTokenId",
          "type": "uint256"
        },
        {
          "internalType": "uint256",
          "name": "toTokenId",
          "type": "uint256"
        },
        {
          "internalType": "uint256",
          "name": "amount",
          "type": "uint256"
        }
      ],
      "name": "switchPool",
      "outputs": [],
      "stateMutability": "nonpayable",
      "type": "function"
    },
    {
      "inputs": [],
      "name": "symbol",
      "outputs": [
        {
          "internalType": "string",
          "name": "",
          "type": "string"
        }
      ],
      "stateMutability": "view",
      "type": "function"
    },
    {
      "inputs": [],
      "name": "toNextSeason",
      "outputs": [],
      "stateMutability": "nonpayable",
      "type": "function"
    },
    {
      "inputs": [
        {
          "internalType": "uint256",
          "name": "tokenId",
          "type": "uint256"
        }
      ],
      "name": "tokenURI",
      "outputs": [
        {
          "internalType": "string",
          "name": "",
          "type": "string"
        }
      ],
      "stateMutability": "view",
      "type": "function"
    },
    {
      "inputs": [
        {
          "internalType": "address",
          "name": "from",
          "type": "address"
        },
        {
          "internalType": "address",
          "name": "to",
          "type": "address"
        },
        {
          "internalType": "uint256",
          "name": "tokenId",
          "type": "uint256"
        }
      ],
      "name": "transferFrom",
      "outputs": [],
      "stateMutability": "nonpayable",
      "type": "function"
    },
    {
      "inputs": [
        {
          "internalType": "address",
          "name": "newOwner",
          "type": "address"
        },
        {
          "internalType": "bool",
          "name": "direct",
          "type": "bool"
        }
      ],
      "name": "transferOwnership",
      "outputs": [],
      "stateMutability": "nonpayable",
      "type": "function"
    },
    {
      "inputs": [],
      "name": "unPause",
      "outputs": [],
      "stateMutability": "nonpayable",
      "type": "function"
    },
    {
      "inputs": [
        {
          "internalType": "address[]",
          "name": "toAdd",
          "type": "address[]"
        },
        {
          "internalType": "address[]",
          "name": "toRemove",
          "type": "address[]"
        }
      ],
      "name": "updateSigners",
      "outputs": [],
      "stateMutability": "nonpayable",
      "type": "function"
    },
    {
      "inputs": [
        {
          "internalType": "address",
          "name": "newImplementation",
          "type": "address"
        }
      ],
      "name": "upgradeTo",
      "outputs": [],
      "stateMutability": "nonpayable",
      "type": "function"
    },
    {
      "inputs": [
        {
          "internalType": "address",
          "name": "newImplementation",
          "type": "address"
        },
        {
          "internalType": "bytes",
          "name": "data",
          "type": "bytes"
        }
      ],
      "name": "upgradeToAndCall",
      "outputs": [],
      "stateMutability": "payable",
      "type": "function"
    },
    {
      "inputs": [],
      "name": "vault",
      "outputs": [
        {
          "internalType": "contract RewardVault",
          "name": "",
          "type": "address"
        }
      ],
      "stateMutability": "view",
      "type": "function"
    },
    {
      "inputs": [
        {
          "internalType": "uint256",
          "name": "amount",
          "type": "uint256"
        }
      ],
      "name": "withdrawNativeToken",
      "outputs": [],
      "stateMutability": "nonpayable",
      "type": "function"
    },
    {
      "inputs": [
        {
          "internalType": "address",
          "name": "to",
          "type": "address"
        }
      ],
      "name": "withdrawVault",
      "outputs": [],
      "stateMutability": "nonpayable",
      "type": "function"
    }
  ],
  "transactionHash": "0x823baaed1163cef5b3195da23406a86dd4f23cbc168a0a27c404e6a00d4a7421",
  "args": [],
  "numDeployments": 1,
  "solcInputHash": "ee5576cd9d1a90bd97dbc48641d096ea",
  "bytecode": "0x60a06040523060805234801561001457600080fd5b50608051615ccf6200004d60003960008181611b2a01528181611bc001528181611e2301528181611eb90152611fb00152615ccf6000f3fe6080604052600436106103605760003560e01c80636e04ff0d116101c6578063afd5f747116100f7578063db64008111610095578063e985e9c51161006f578063e985e9c514610c2f578063f7b188a514610c79578063fbd7823514610c8e578063fbfa77cf14610cae57600080fd5b8063db64008114610bd1578063e30c397814610bf1578063e4421be214610c0f57600080fd5b8063b9e53a9f116100d1578063b9e53a9f14610b18578063c3b82b8d14610b2b578063c417db6914610b4b578063c87b56dd14610bb157600080fd5b8063afd5f74714610ac3578063b242e53414610ad8578063b88d4fde14610af857600080fd5b80638da5cb5b1161016457806395d89b411161013e57806395d89b411461090d5780639ca423b314610922578063a005ec7a14610959578063a22cb46514610aa357600080fd5b80638da5cb5b146108af578063918c49e4146108cd5780639208b21e146108ed57600080fd5b8063736c0d5b116101a0578063736c0d5b1461082a578063802e9cfa1461085a5780638456cb591461087a5780638d47a30d1461088f57600080fd5b80636e04ff0d146107c757806370a08231146107f5578063715018a61461081557600080fd5b80632bf8e8f6116102a05780634e71e0c81161023e57806358c7a0631161021857806358c7a0631461074e5780635c975abb1461076e5780636352211e146107875780636817031b146107a757600080fd5b80634e71e0c8146107035780634f1ef2861461071857806352d1902d1461072b57600080fd5b80633659cfe61161027a5780633659cfe614610683578063410fa1c4146106a357806342842e0e146106c35780634585e33b146106e357600080fd5b80632bf8e8f61461055857806332eb808a1461060e578063350b23691461066357600080fd5b80630aeb55c81161030d57806317e0f252116102e757806317e0f252146104d85780632016a0d2146104f857806323b872dd14610518578063282753381461053857600080fd5b80630aeb55c8146104785780630e357a6e1461049857806316a065c6146104b857600080fd5b8063081812fc1161033e578063081812fc146103e9578063095ea7b3146104215780630aaef8021461044357600080fd5b806301ffc9a714610365578063068bcd8d1461039a57806306fdde03146103c7575b600080fd5b34801561037157600080fd5b50610385610380366004614ca0565b610ccf565b60405190151581526020015b60405180910390f35b3480156103a657600080fd5b506103ba6103b5366004614cbd565b610d6c565b6040516103919190614cd6565b3480156103d357600080fd5b506103dc610dfa565b6040516103919190614d5f565b3480156103f557600080fd5b50610409610404366004614cbd565b610e8d565b6040516001600160a01b039091168152602001610391565b34801561042d57600080fd5b5061044161043c366004614d87565b610eb5565b005b34801561044f57600080fd5b5061046361045e366004614e1e565b610feb565b60408051928352602083019190915201610391565b34801561048457600080fd5b50610441610493366004614eb4565b6110f0565b3480156104a457600080fd5b506103ba6104b3366004614d87565b611465565b3480156104c457600080fd5b5060fc54610409906001600160a01b031681565b3480156104e457600080fd5b506104416104f3366004614cbd565b611505565b34801561050457600080fd5b50610441610513366004614f7d565b611590565b34801561052457600080fd5b50610441610533366004615006565b6116ea565b34801561054457600080fd5b5061044161055336600461508c565b611771565b34801561056457600080fd5b50610103546105bf9061ffff808216916201000081048216916401000000008204811691660100000000000081049091169068010000000000000000900477ffffffffffffffffffffffffffffffffffffffffffffffff1685565b6040805161ffff9687168152948616602086015292851692840192909252909216606082015277ffffffffffffffffffffffffffffffffffffffffffffffff909116608082015260a001610391565b34801561061a57600080fd5b5061062e6106293660046150e2565b6117b7565b60405161039194939291906001600160a01b039485168152602081019390935292166040820152606081019190915260800190565b34801561066f57600080fd5b5061044161067e366004615120565b611918565b34801561068f57600080fd5b5061044161069e36600461518c565b611b20565b3480156106af57600080fd5b506104416106be3660046151a9565b611cbd565b3480156106cf57600080fd5b506104416106de366004615006565b611d62565b3480156106ef57600080fd5b506104416106fe3660046151c1565b611d7d565b34801561070f57600080fd5b50610441611db5565b610441610726366004615233565b611e19565b34801561073757600080fd5b50610740611fa3565b604051908152602001610391565b34801561075a57600080fd5b50610441610769366004614d87565b612068565b34801561077a57600080fd5b506101915460ff16610385565b34801561079357600080fd5b506104096107a2366004614cbd565b612126565b3480156107b357600080fd5b506104416107c236600461518c565b61218c565b3480156107d357600080fd5b506107e76107e23660046151c1565b612209565b604051610391929190615283565b34801561080157600080fd5b5061074061081036600461518c565b6122e8565b34801561082157600080fd5b50610441612383565b34801561083657600080fd5b5061038561084536600461518c565b60fd6020526000908152604090205460ff1681565b34801561086657600080fd5b5061044161087536600461518c565b6123e7565b34801561088657600080fd5b506104416124b6565b34801561089b57600080fd5b506104416108aa36600461508c565b612518565b3480156108bb57600080fd5b506033546001600160a01b0316610409565b3480156108d957600080fd5b506104416108e83660046152ad565b6125f5565b3480156108f957600080fd5b50610441610908366004615328565b612626565b34801561091957600080fd5b506103dc612762565b34801561092e57600080fd5b5061040961093d36600461518c565b610102602052600090815260409020546001600160a01b031681565b34801561096557600080fd5b50610a36610974366004614cbd565b61010060205260009081526040902080546001820154600283015460039093015491926001600160a01b0382169274010000000000000000000000000000000000000000830461ffff1692760100000000000000000000000000000000000000000000810463ffffffff16927a01000000000000000000000000000000000000000000000000000090910465ffffffffffff16916fffffffffffffffffffffffffffffffff808316927001000000000000000000000000000000009004169088565b604080519889526001600160a01b03909716602089015261ffff9095169587019590955263ffffffff909216606086015265ffffffffffff1660808501526fffffffffffffffffffffffffffffffff90811660a085015290911660c083015260e082015261010001610391565b348015610aaf57600080fd5b50610441610abe366004615366565b612772565b348015610acf57600080fd5b5061044161277d565b348015610ae457600080fd5b50610441610af3366004615366565b612879565b348015610b0457600080fd5b50610441610b133660046153a4565b612957565b610441610b26366004615404565b6129e5565b348015610b3757600080fd5b50610441610b4636600461547f565b612a13565b348015610b5757600080fd5b50610b91610b6636600461518c565b6001600160a01b03908116600090815261010260205260408082205483168083529120549092911690565b604080516001600160a01b03938416815292909116602083015201610391565b348015610bbd57600080fd5b506103dc610bcc366004614cbd565b612a41565b348015610bdd57600080fd5b50610441610bec36600461508c565b612add565b348015610bfd57600080fd5b506034546001600160a01b0316610409565b348015610c1b57600080fd5b50610441610c2a3660046154ab565b612ba8565b348015610c3b57600080fd5b50610385610c4a3660046154cd565b6001600160a01b0391821660009081526101326020908152604080832093909416825291909152205460ff1690565b348015610c8557600080fd5b50610441612bc3565b348015610c9a57600080fd5b50610385610ca9366004614cbd565b612c25565b348015610cba57600080fd5b5061010454610409906001600160a01b031681565b60006001600160e01b031982167f80ac58cd000000000000000000000000000000000000000000000000000000001480610d3257506001600160e01b031982167f5b5e139f00000000000000000000000000000000000000000000000000000000145b80610d6657507f01ffc9a7000000000000000000000000000000000000000000000000000000006001600160e01b03198316145b92915050565b610d9e6040518060a0016040528060008152602001600081526020016000815260200160008152602001600081525090565b5060fb5460009081526101016020908152604080832093835292815290829020825160a0810184528154815260018201549281019290925260028101549282019290925260038201546060820152600490910154608082015290565b606061012d8054610e0a906154fb565b80601f0160208091040260200160405190810160405280929190818152602001828054610e36906154fb565b8015610e835780601f10610e5857610100808354040283529160200191610e83565b820191906000526020600020905b815481529060010190602001808311610e6657829003601f168201915b5050505050905090565b6000610e9882612c49565b50600090815261013160205260409020546001600160a01b031690565b6000610ec082612126565b9050806001600160a01b0316836001600160a01b031603610f4e5760405162461bcd60e51b815260206004820152602160248201527f4552433732313a20617070726f76616c20746f2063757272656e74206f776e6560448201527f720000000000000000000000000000000000000000000000000000000000000060648201526084015b60405180910390fd5b336001600160a01b0382161480610f6a5750610f6a8133610c4a565b610fdc5760405162461bcd60e51b815260206004820152603d60248201527f4552433732313a20617070726f76652063616c6c6572206973206e6f7420746f60448201527f6b656e206f776e6572206f7220617070726f76656420666f7220616c6c0000006064820152608401610f45565b610fe68383612cae565b505050565b60008060005b83518110156110ea57600080738F37E5db879373B409BC05d4cCc4287A220cC57c635cb931f28785815181106110295761102961552f565b60209081029190910181015160fb546000908152610101909252604091829020915160e084901b6001600160e01b0319168152600481019190915260248101829052600190910160448201526064016040805180830381865af4158015611094573d6000803e3d6000fd5b505050506040513d601f19601f820116820180604052508101906110b89190615545565b90925090506110c7828661557f565b94506110d3818561557f565b9350505080806110e290615592565b915050610ff1565b50915091565b6110f8612d1d565b611100612d66565b600886901c60009081526101056020526040902054600160ff88161b1615611154576040517f0490d63100000000000000000000000000000000000000000000000000000000815260040160405180910390fd5b600886901c6000908152610105602052604081208054600160ff8a161b17905561118646670de0b6b3a76400006155ac565b60ff6000815461119590615592565b91829055506111a4919061557f565b60408051610100810182528981526001600160a01b038916602080830182905261ffff881683850152600091825260fe9052918220805493945090926060840192906111f59063ffffffff166155c3565b825463ffffffff91821661010093840a8181029084021990921691909117909355918352600060208085018290526fffffffffffffffffffffffffffffffff8089166040808801919091528c821660608089019190915260809788018d905289855294835292839020875181559187015160018301805494890151958901519789015165ffffffffffff167a0100000000000000000000000000000000000000000000000000000279ffffffffffffffffffffffffffffffffffffffffffffffffffff98909716760100000000000000000000000000000000000000000000029790971675ffffffffffffffffffffffffffffffffffffffffffff61ffff90961674010000000000000000000000000000000000000000027fffffffffffffffffffff000000000000000000000000000000000000000000009095166001600160a01b03909216919091179390931793909316919091179290921790925560a083015160c0840151831670010000000000000000000000000000000002921691909117600282015560e0909101516003909101556113938682612dba565b610104546040516310b3879160e11b81526001600160a01b03888116600483015260248201889052909116906321670f2290604401600060405180830381600087803b1580156113e257600080fd5b505af11580156113f6573d6000803e3d6000fd5b505050506114048185612dd4565b61140e8686612e94565b80866001600160a01b0316887faf1bba31184b4d13e4f756b22fc2755d77b6ad147f10a7b12ea6afa58a2ca5f68789604051611454929190918252602082015260400190565b60405180910390a450505050505050565b6114976040518060a0016040528060008152602001600081526020016000815260200160008152602001600081525090565b5060fb546000908152610101602090815260408083206001600160a01b038616845260019081018352818420858552835292819020815160a0810183528154815293810154928401929092526002820154908301526003810154606083015260040154608082015292915050565b6033546001600160a01b0316331461155f5760405162461bcd60e51b815260206004820152601d60248201527f536166654f776e61626c653a2063616c6c6572206e6f74206f776e65720000006044820152606401610f45565b604051339082156108fc029083906000818181858888f1935050505015801561158c573d6000803e3d6000fd5b5050565b600054610100900460ff16158080156115b05750600054600160ff909116105b806115ca5750303b1580156115ca575060005460ff166001145b61163c5760405162461bcd60e51b815260206004820152602e60248201527f496e697469616c697a61626c653a20636f6e747261637420697320616c72656160448201527f647920696e697469616c697a65640000000000000000000000000000000000006064820152608401610f45565b6000805460ff19166001179055801561165f576000805461ff0019166101001790555b60fc80546001600160a01b0319166001600160a01b03871617905561168384612fef565b61168d8383613063565b6116956130d8565b61169d61314b565b80156116e3576000805461ff0019169055604051600181527f7f26b83ff96e1f2b6a682f133852f6798a09c465da95921460cefb38474024989060200160405180910390a15b5050505050565b6116f433826131be565b6117665760405162461bcd60e51b815260206004820152602d60248201527f4552433732313a2063616c6c6572206973206e6f7420746f6b656e206f776e6560448201527f72206f7220617070726f766564000000000000000000000000000000000000006064820152608401610f45565b610fe683838361323e565b611779612d66565b60005b81811015610fe6576117a58383838181106117995761179961552f565b90506020020135613477565b806117af81615592565b91505061177c565b6001600160a01b03808416600090815261010260205260408082205483168083529082205490921681808560018111156117f3576117f36155e6565b03611871576001600160a01b0384161561182c57610103546127109061181d9061ffff16886155ac565b61182791906155fc565b61182f565b60005b92506001600160a01b0382161561186b57610103546127109061185c9062010000900461ffff16886155ac565b61186691906155fc565b61186e565b60005b90505b6001856001811115611885576118856155e6565b0361190f576001600160a01b038416156118c65761010354612710906118b790640100000000900461ffff16886155ac565b6118c191906155fc565b6118c9565b60005b92506001600160a01b038216156119095761010354612710906118fa906601000000000000900461ffff16886155ac565b61190491906155fc565b61190c565b60005b90505b93509350935093565b6033546001600160a01b031633146119725760405162461bcd60e51b815260206004820152601d60248201527f536166654f776e61626c653a2063616c6c6572206e6f74206f776e65720000006044820152606401610f45565b60005b83811015611a4d57600160fd60008787858181106119955761199561552f565b90506020020160208101906119aa919061518c565b6001600160a01b031681526020810191909152604001600020805460ff19169115159190911790557fc648f6265408cc54c0dc26d24ba51dfc9f35ce1a63baa2228f65d93aaf11cc67858583818110611a0557611a0561552f565b9050602002016020810190611a1a919061518c565b604080516001600160a01b039092168252600160208301520160405180910390a180611a4581615592565b915050611975565b5060005b818110156116e35760fd6000848484818110611a6f57611a6f61552f565b9050602002016020810190611a84919061518c565b6001600160a01b031681526020810191909152604001600020805460ff191690557fc648f6265408cc54c0dc26d24ba51dfc9f35ce1a63baa2228f65d93aaf11cc67838383818110611ad857611ad861552f565b9050602002016020810190611aed919061518c565b604080516001600160a01b039092168252600060208301520160405180910390a180611b1881615592565b915050611a51565b6001600160a01b037f0000000000000000000000000000000000000000000000000000000000000000163003611bbe5760405162461bcd60e51b815260206004820152602c60248201527f46756e6374696f6e206d7573742062652063616c6c6564207468726f7567682060448201527f64656c656761746563616c6c00000000000000000000000000000000000000006064820152608401610f45565b7f00000000000000000000000000000000000000000000000000000000000000006001600160a01b0316611c197f360894a13ba1a3210667c828492db98dca3e2076cc3735a920a3ca505d382bbc546001600160a01b031690565b6001600160a01b031614611c955760405162461bcd60e51b815260206004820152602c60248201527f46756e6374696f6e206d7573742062652063616c6c6564207468726f7567682060448201527f6163746976652070726f787900000000000000000000000000000000000000006064820152608401610f45565b611c9e816135dc565b60408051600080825260208201909252611cba91839190613636565b50565b6033546001600160a01b03163314611d175760405162461bcd60e51b815260206004820152601d60248201527f536166654f776e61626c653a2063616c6c6572206e6f74206f776e65720000006044820152606401610f45565b80610106611d25828261566f565b9050507f177a1f4181d3bdc94a5ee8b6ea0f1270c5da85b3b5671008c48f0b5d51fa850981604051611d57919061587b565b60405180910390a150565b610fe683838360405180602001604052806000815250612957565b611d85612d66565b6000611d9382840184614cbd565b905080600103611da557610fe66137d6565b80600203610fe657610fe66138bd565b6034546001600160a01b03163314611e0f5760405162461bcd60e51b815260206004820152601e60248201527f536166654f776e61626c653a2063616c6c657220213d2070656e64696e6700006044820152606401610f45565b611e17613978565b565b6001600160a01b037f0000000000000000000000000000000000000000000000000000000000000000163003611eb75760405162461bcd60e51b815260206004820152602c60248201527f46756e6374696f6e206d7573742062652063616c6c6564207468726f7567682060448201527f64656c656761746563616c6c00000000000000000000000000000000000000006064820152608401610f45565b7f00000000000000000000000000000000000000000000000000000000000000006001600160a01b0316611f127f360894a13ba1a3210667c828492db98dca3e2076cc3735a920a3ca505d382bbc546001600160a01b031690565b6001600160a01b031614611f8e5760405162461bcd60e51b815260206004820152602c60248201527f46756e6374696f6e206d7573742062652063616c6c6564207468726f7567682060448201527f6163746976652070726f787900000000000000000000000000000000000000006064820152608401610f45565b611f97826135dc565b61158c82826001613636565b6000306001600160a01b037f000000000000000000000000000000000000000000000000000000000000000016146120435760405162461bcd60e51b815260206004820152603860248201527f555550535570677261646561626c653a206d757374206e6f742062652063616c60448201527f6c6564207468726f7567682064656c656761746563616c6c00000000000000006064820152608401610f45565b507f360894a13ba1a3210667c828492db98dca3e2076cc3735a920a3ca505d382bbc90565b612070612d1d565b612078612d66565b610104546040516310b3879160e11b81526001600160a01b03848116600483015260248201849052909116906321670f2290604401600060405180830381600087803b1580156120c757600080fd5b505af11580156120db573d6000803e3d6000fd5b50505050816001600160a01b03167f7a0984e898d33e4bf6ad9f851bfab5517683d3dae5b57ed58fa8c7152d822e328260405161211a91815260200190565b60405180910390a25050565b600081815261012f60205260408120546001600160a01b031680610d665760405162461bcd60e51b815260206004820152601860248201527f4552433732313a20696e76616c696420746f6b656e20494400000000000000006044820152606401610f45565b6033546001600160a01b031633146121e65760405162461bcd60e51b815260206004820152601d60248201527f536166654f776e61626c653a2063616c6c6572206e6f74206f776e65720000006044820152606401610f45565b61010480546001600160a01b0319166001600160a01b0392909216919091179055565b6101065460009060609060ff166001036122e157610106546122489064ffffffffff61010082048116916b010000000000000000000000900416615928565b64ffffffffff1642111561227c576040805160016020820181905293500160405160208183030381529060405290506122e1565b610106546122b19064ffffffffff66010000000000008204811691700100000000000000000000000000000000900416615928565b64ffffffffff164211156122e1576040805160026020820152600193500160405160208183030381529060405290505b9250929050565b60006001600160a01b0382166123665760405162461bcd60e51b815260206004820152602960248201527f4552433732313a2061646472657373207a65726f206973206e6f74206120766160448201527f6c6964206f776e657200000000000000000000000000000000000000000000006064820152608401610f45565b506001600160a01b03166000908152610130602052604090205490565b6033546001600160a01b031633146123dd5760405162461bcd60e51b815260206004820152601d60248201527f536166654f776e61626c653a2063616c6c6572206e6f74206f776e65720000006044820152606401610f45565b611e1760006139e1565b6033546001600160a01b031633146124415760405162461bcd60e51b815260206004820152601d60248201527f536166654f776e61626c653a2063616c6c6572206e6f74206f776e65720000006044820152606401610f45565b610104546040517fa1c04f0e0000000000000000000000000000000000000000000000000000000081526001600160a01b0383811660048301529091169063a1c04f0e90602401600060405180830381600087803b1580156124a257600080fd5b505af11580156116e3573d6000803e3d6000fd5b6033546001600160a01b031633146125105760405162461bcd60e51b815260206004820152601d60248201527f536166654f776e61626c653a2063616c6c6572206e6f74206f776e65720000006044820152606401610f45565b611e17613a57565b612520612d66565b60005b81811015610fe657738F37E5db879373B409BC05d4cCc4287A220cC57c63d4166eb08484848181106125575761255761552f565b6101045460fb5460009081526101016020908152604091829020915160e088901b6001600160e01b031916815293029094013560048301526001600160a01b0316602482015260448101839052600190920160648301525060840160006040518083038186803b1580156125ca57600080fd5b505af41580156125de573d6000803e3d6000fd5b5050505080806125ed90615592565b915050612523565b6125fd612d66565b61260687613477565b6126138585858585613aad565b61261d8787613b55565b50505050505050565b6033546001600160a01b031633146126805760405162461bcd60e51b815260206004820152601d60248201527f536166654f776e61626c653a2063616c6c6572206e6f74206f776e65720000006044820152606401610f45565b6000816001811115612694576126946155e6565b036126d957610103805461ffff84811662010000027fffffffffffffffffffffffffffffffffffffffffffffffffffffffff0000000090921690861617179055505050565b60018160018111156126ed576126ed6155e6565b03610fe6575061010380547fffffffffffffffffffffffffffffffffffffffffffffffff00000000ffffffff1664010000000061ffff948516027fffffffffffffffffffffffffffffffffffffffffffffffff0000ffffffffffff161766010000000000009290931691909102919091179055565b606061012e8054610e0a906154fb565b61158c338383613c23565b6033546001600160a01b031633146127d75760405162461bcd60e51b815260206004820152601d60248201527f536166654f776e61626c653a2063616c6c6572206e6f74206f776e65720000006044820152606401610f45565b600160fb60008282546127ea919061557f565b909155503390506108fc60646128014760106155ac565b61280b91906155fc565b6040518115909202916000818181858888f19350505050158015612833573d6000803e3d6000fd5b5061283c613a57565b7f3bf8992b1ca7018d446bcf1d45dc7a62e50decf5248434be4194aef15446338060fb5460405161286f91815260200190565b60405180910390a1565b6033546001600160a01b031633146128d35760405162461bcd60e51b815260206004820152601d60248201527f536166654f776e61626c653a2063616c6c6572206e6f74206f776e65720000006044820152606401610f45565b6001600160a01b0382166129295760405162461bcd60e51b815260206004820152601b60248201527f536166654f776e61626c653a206e6577206f776e6572206973203000000000006044820152606401610f45565b80156129385761158c826139e1565b603480546001600160a01b0319166001600160a01b0384161790555050565b61296133836131be565b6129d35760405162461bcd60e51b815260206004820152602d60248201527f4552433732313a2063616c6c6572206973206e6f7420746f6b656e206f776e6560448201527f72206f7220617070726f766564000000000000000000000000000000000000006064820152608401610f45565b6129df84848484613cf2565b50505050565b6129ed612d66565b6129f5613d7b565b6129fe82613dd6565b612a088382613e80565b610fe6600161015f55565b612a1b612d66565b612a2483613477565b612a2d82613477565b612a378382613f6c565b610fe68282614056565b6040517fbe0862f4000000000000000000000000000000000000000000000000000000008152610100600482015260248101829052606090732896026275f17800607C8862d82491d0316f9e349063be0862f490604401600060405180830381865af4158015612ab5573d6000803e3d6000fd5b505050506040513d6000823e601f3d908101601f19168201604052610d669190810190615946565b612ae5612d66565b60005b81811015610fe657738F37E5db879373B409BC05d4cCc4287A220cC57c63c4deddb4848484818110612b1c57612b1c61552f565b60fb5460009081526101016020908152604091829020915160e087901b6001600160e01b0319168152920290930135600482015260248101839052600190920160448301525060640160006040518083038186803b158015612b7d57600080fd5b505af4158015612b91573d6000803e3d6000fd5b505050508080612ba090615592565b915050612ae8565b612bb0612d66565b612bb982613477565b61158c8282613b55565b6033546001600160a01b03163314612c1d5760405162461bcd60e51b815260206004820152601d60248201527f536166654f776e61626c653a2063616c6c6572206e6f74206f776e65720000006044820152606401610f45565b611e176140c1565b600881901c60009081526101056020526040812054600160ff84161b161515610d66565b600081815261012f60205260409020546001600160a01b0316611cba5760405162461bcd60e51b815260206004820152601860248201527f4552433732313a20696e76616c696420746f6b656e20494400000000000000006044820152606401610f45565b60008181526101316020526040902080546001600160a01b0319166001600160a01b0384169081179091558190612ce482612126565b6001600160a01b03167f8c5be1e5ebec7d5bd14f71427d1e84f3dd0314c0f7b2291e5b200ac8c7c3b92560405160405180910390a45050565b33600090815260fd602052604090205460ff16611e17576040517fa1b035c800000000000000000000000000000000000000000000000000000000815260040160405180910390fd5b6101915460ff1615611e175760405162461bcd60e51b815260206004820152601060248201527f5061757361626c653a20706175736564000000000000000000000000000000006044820152606401610f45565b61158c8282604051806020016040528060008152506140fb565b60fb54600090815261010160205260409081902090517ff0f2cef7000000000000000000000000000000000000000000000000000000008152600782016004820152600282016024820152600d82016044820152600c90910160648201526084810183905260a48101829052732FDFDc031eCaDeAEE9c07d57F0a6d2536f3B7F9A9063f0f2cef79060c4015b60006040518083038186803b158015612e7857600080fd5b505af4158015612e8c573d6000803e3d6000fd5b505050505050565b600080600080612ea6868660016117b7565b93509350935093506000831115612f1f57610104546040516310b3879160e11b81526001600160a01b03868116600483015260248201869052909116906321670f2290604401600060405180830381600087803b158015612f0657600080fd5b505af1158015612f1a573d6000803e3d6000fd5b505050505b8015612f8d57610104546040516310b3879160e11b81526001600160a01b03848116600483015260248201849052909116906321670f2290604401600060405180830381600087803b158015612f7457600080fd5b505af1158015612f88573d6000803e3d6000fd5b505050505b816001600160a01b0316846001600160a01b0316876001600160a01b03167fba677d62d32cf3ca7ea533245a2128ce25fdbee9811bd67751f522b18e98db4e86856001604051612fdf939291906159b4565b60405180910390a4505050505050565b600054610100900460ff1661305a5760405162461bcd60e51b815260206004820152602b60248201527f496e697469616c697a61626c653a20636f6e7472616374206973206e6f74206960448201526a6e697469616c697a696e6760a81b6064820152608401610f45565b611cba81614184565b600054610100900460ff166130ce5760405162461bcd60e51b815260206004820152602b60248201527f496e697469616c697a61626c653a20636f6e7472616374206973206e6f74206960448201526a6e697469616c697a696e6760a81b6064820152608401610f45565b61158c82826141f8565b600054610100900460ff166131435760405162461bcd60e51b815260206004820152602b60248201527f496e697469616c697a61626c653a20636f6e7472616374206973206e6f74206960448201526a6e697469616c697a696e6760a81b6064820152608401610f45565b611e1761427e565b600054610100900460ff166131b65760405162461bcd60e51b815260206004820152602b60248201527f496e697469616c697a61626c653a20636f6e7472616374206973206e6f74206960448201526a6e697469616c697a696e6760a81b6064820152608401610f45565b611e176142e9565b6000806131ca83612126565b9050806001600160a01b0316846001600160a01b0316148061321257506001600160a01b038082166000908152610132602090815260408083209388168352929052205460ff165b806132365750836001600160a01b031661322b84610e8d565b6001600160a01b0316145b949350505050565b826001600160a01b031661325182612126565b6001600160a01b0316146132cd5760405162461bcd60e51b815260206004820152602560248201527f4552433732313a207472616e736665722066726f6d20696e636f72726563742060448201527f6f776e65720000000000000000000000000000000000000000000000000000006064820152608401610f45565b6001600160a01b0382166133485760405162461bcd60e51b8152602060048201526024808201527f4552433732313a207472616e7366657220746f20746865207a65726f2061646460448201527f72657373000000000000000000000000000000000000000000000000000000006064820152608401610f45565b6133558383836001614361565b826001600160a01b031661336882612126565b6001600160a01b0316146133e45760405162461bcd60e51b815260206004820152602560248201527f4552433732313a207472616e736665722066726f6d20696e636f72726563742060448201527f6f776e65720000000000000000000000000000000000000000000000000000006064820152608401610f45565b60008181526101316020908152604080832080546001600160a01b03199081169091556001600160a01b03878116808652610130855283862080546000190190559087168086528386208054600101905586865261012f90945282852080549092168417909155905184937fddf252ad1be2c89b69c2b068fc378daa952ba7f163c4a11628f55a4df523b3ef91a4505050565b61347f613d7b565b60fb54600090815261010160205260409081902090517fc4deddb4000000000000000000000000000000000000000000000000000000008152600481018390526024810182905260019091016044820152738F37E5db879373B409BC05d4cCc4287A220cC57c9063c4deddb49060640160006040518083038186803b15801561350757600080fd5b505af415801561351b573d6000803e3d6000fd5b50506101045460fb54600090815261010160205260409081902090517fd4166eb0000000000000000000000000000000000000000000000000000000008152600481018690526001600160a01b039092166024830152604482018190526001016064820152738F37E5db879373B409BC05d4cCc4287A220cC57c925063d4166eb0915060840160006040518083038186803b1580156135b957600080fd5b505af41580156135cd573d6000803e3d6000fd5b50505050611cba600161015f55565b6033546001600160a01b03163314611cba5760405162461bcd60e51b815260206004820152601d60248201527f536166654f776e61626c653a2063616c6c6572206e6f74206f776e65720000006044820152606401610f45565b7f4910fdfa16fed3260ed0e7147f7cc6da11a60208b5b9406d12a635614ffd91435460ff161561366957610fe6836143eb565b826001600160a01b03166352d1902d6040518163ffffffff1660e01b8152600401602060405180830381865afa9250505080156136c3575060408051601f3d908101601f191682019092526136c0918101906159ee565b60015b6137355760405162461bcd60e51b815260206004820152602e60248201527f45524331393637557067726164653a206e657720696d706c656d656e7461746960448201527f6f6e206973206e6f7420555550530000000000000000000000000000000000006064820152608401610f45565b7f360894a13ba1a3210667c828492db98dca3e2076cc3735a920a3ca505d382bbc81146137ca5760405162461bcd60e51b815260206004820152602960248201527f45524331393637557067726164653a20756e737570706f727465642070726f7860448201527f6961626c655555494400000000000000000000000000000000000000000000006064820152608401610f45565b50610fe68383836144a9565b6101065460ff16600003613816576040517fa397eb4700000000000000000000000000000000000000000000000000000000815260040160405180910390fd5b600061382260646144ce565b60fb54600090815261010160205260409081902090517fa6a348b3000000000000000000000000000000000000000000000000000000008152919250738F37E5db879373B409BC05d4cCc4287A220cC57c9163a6a348b391613891918591610106916001820190600401615a07565b60006040518083038186803b1580156138a957600080fd5b505af41580156116e3573d6000803e3d6000fd5b6101065460ff166000036138fd576040517fa397eb4700000000000000000000000000000000000000000000000000000000815260040160405180910390fd5b600061390960646144ce565b60fb54600090815261010160205260409081902090517fc8410c5f000000000000000000000000000000000000000000000000000000008152919250738F37E5db879373B409BC05d4cCc4287A220cC57c9163c8410c5f91613891918591610106916001820190600401615a07565b6033546034546040516001600160a01b03928316929091169082907f8be0079c531659141344cd1fd0a4f28419497f9722a3daafe3b4186f6b6457e090600090a35060348054603380546001600160a01b03199081166001600160a01b03841617909155169055565b7fb53127684a568b3173ae13b9f8a6016e243e63b6e8ee1178d6a717850b5d6103819055603380546001600160a01b038084166001600160a01b0319831681179093556040519116919082907f8be0079c531659141344cd1fd0a4f28419497f9722a3daafe3b4186f6b6457e090600090a35050565b613a5f612d66565b610191805460ff191660011790557f62e78cea01bee320cd4e420270b5ea74000d11b0c9f74754ebdbfc544b05a258613a953390565b6040516001600160a01b03909116815260200161286f565b60fc546040517fd505accf000000000000000000000000000000000000000000000000000000008152336004820152306024820152604481018790526064810186905260ff8316608482015260a4810185905260c481018490526001600160a01b039091169063d505accf9060e401600060405180830381600087803b158015613b3657600080fd5b505af1158015613b4a573d6000803e3d6000fd5b505050505050505050565b80600003613b61575050565b60fc546040517f79cc6790000000000000000000000000000000000000000000000000000000008152336004820152602481018390526001600160a01b03909116906379cc679090604401600060405180830381600087803b158015613bc657600080fd5b505af1158015613bda573d6000803e3d6000fd5b50505050613be88282614586565b604051818152829033907f58c7b3bf0b0e168048426c1e9443a72696526292ca664e18b11f934cd6cfbbf39060200160405180910390a35050565b816001600160a01b0316836001600160a01b031603613c845760405162461bcd60e51b815260206004820152601960248201527f4552433732313a20617070726f766520746f2063616c6c6572000000000000006044820152606401610f45565b6001600160a01b0383811660008181526101326020908152604080832094871680845294825291829020805460ff191686151590811790915591519182527f17307eab39ab6107e8899845ad3d59bd9653f200f220920489ca2b5937696c31910160405180910390a3505050565b613cfd84848461323e565b613d098484848461460a565b6129df5760405162461bcd60e51b815260206004820152603260248201527f4552433732313a207472616e7366657220746f206e6f6e20455243373231526560448201527f63656976657220696d706c656d656e74657200000000000000000000000000006064820152608401610f45565b600261015f5403613dce5760405162461bcd60e51b815260206004820152601f60248201527f5265656e7472616e637947756172643a207265656e7472616e742063616c6c006044820152606401610f45565b600261015f55565b33600090815261010260205260409020546001600160a01b0316158015613e0557506001600160a01b03811615155b8015613e1a57506001600160a01b0381163314155b15611cba57336000818152610102602090815260409182902080546001600160a01b0319166001600160a01b0386169081179091558251938452908301527f677cd8c8ce12dc7827579d65be5e6efa74b6ac9ab04ac43d4648dc85d328c2ae9101611d57565b6020820151825160009190613e95908461557f565b613e9f919061557f565b905080341015613edb576040517f5945ea5600000000000000000000000000000000000000000000000000000000815260040160405180910390fd5b336108fc613ee98334615a5e565b6040518115909202916000818181858888f19350505050158015613f11573d6000803e3d6000fd5b50613f1c3382614793565b6020830151835160405133907f617b1a2bf0533cea0c5dd46104e1d48f8b290fc7d7360dba0182dbf07a00e46a90613f579087815260200190565b60405180910390a4505050565b600161015f55565b60fb54600090815261010160209081526040808320338452600181018352818420868552835281842092529091208154831115613fd5576040517ffe8b364f00000000000000000000000000000000000000000000000000000000815260040160405180910390fd5b82826000016000828254613fe99190615a5e565b9091555050805483908290600090614002908490615a5e565b9091555050805461401490859061487e565b604080518581526020810185905233917fe6907eb8ffc12ac27891b5560db15647cae89e2b344f0c34c63bb6f1d4249cff91015b60405180910390a250505050565b600060646140658360056155ac565b61406f91906155fc565b9050600061407d8284615a5e565b90506140898482614586565b604080518581526020810183905233917f7e9ecb928e58cb1d1c8cda62ae789939f9f184616eb26ef72e801f98b6ef556a9101614048565b6140c9614905565b610191805460ff191690557f5db9ee0a495bf2e6ff9c91a7834c1ba4fdd244a5e8aa4e537bd38aeae4b073aa33613a95565b6141058383614958565b614112600084848461460a565b610fe65760405162461bcd60e51b815260206004820152603260248201527f4552433732313a207472616e7366657220746f206e6f6e20455243373231526560448201527f63656976657220696d706c656d656e74657200000000000000000000000000006064820152608401610f45565b600054610100900460ff166141ef5760405162461bcd60e51b815260206004820152602b60248201527f496e697469616c697a61626c653a20636f6e7472616374206973206e6f74206960448201526a6e697469616c697a696e6760a81b6064820152608401610f45565b611cba816139e1565b600054610100900460ff166142635760405162461bcd60e51b815260206004820152602b60248201527f496e697469616c697a61626c653a20636f6e7472616374206973206e6f74206960448201526a6e697469616c697a696e6760a81b6064820152608401610f45565b61012d6142708382615ab7565b5061012e610fe68282615ab7565b600054610100900460ff16613f645760405162461bcd60e51b815260206004820152602b60248201527f496e697469616c697a61626c653a20636f6e7472616374206973206e6f74206960448201526a6e697469616c697a696e6760a81b6064820152608401610f45565b600054610100900460ff166143545760405162461bcd60e51b815260206004820152602b60248201527f496e697469616c697a61626c653a20636f6e7472616374206973206e6f74206960448201526a6e697469616c697a696e6760a81b6064820152608401610f45565b610191805460ff19169055565b60018111156129df576001600160a01b038416156143a8576001600160a01b03841660009081526101306020526040812080548392906143a2908490615a5e565b90915550505b6001600160a01b038316156129df576001600160a01b03831660009081526101306020526040812080548392906143e090849061557f565b909155505050505050565b6001600160a01b0381163b6144685760405162461bcd60e51b815260206004820152602d60248201527f455243313936373a206e657720696d706c656d656e746174696f6e206973206e60448201527f6f74206120636f6e7472616374000000000000000000000000000000000000006064820152608401610f45565b7f360894a13ba1a3210667c828492db98dca3e2076cc3735a920a3ca505d382bbc80546001600160a01b0319166001600160a01b0392909216919091179055565b6144b283614af5565b6000825111806144bf5750805b15610fe6576129df8383614b35565b60fb546000908152610101602052604080822090517f4d63fffd0000000000000000000000000000000000000000000000000000000081526002909101600482015260248101919091526044810182905260609073c3A1d8F206c963E2E1B36B2F20B19435173ca37A90634d63fffd90606401600060405180830381865af415801561455e573d6000803e3d6000fd5b505050506040513d6000823e601f3d908101601f19168201604052610d669190810190615b77565b60fb54600090815261010160209081526040808320338452600101825280832085845290915281208054909183918391906145c290849061557f565b909155505060fb5460009081526101016020908152604080832086845290915281208054909184918391906145f890849061557f565b909155505080546129df90859061487e565b60006001600160a01b0384163b15614788576040517f150b7a020000000000000000000000000000000000000000000000000000000081526001600160a01b0385169063150b7a0290614667903390899088908890600401615bfd565b6020604051808303816000875af19250505080156146a2575060408051601f3d908101601f1916820190925261469f91810190615c39565b60015b614755573d8080156146d0576040519150601f19603f3d011682016040523d82523d6000602084013e6146d5565b606091505b50805160000361474d5760405162461bcd60e51b815260206004820152603260248201527f4552433732313a207472616e7366657220746f206e6f6e20455243373231526560448201527f63656976657220696d706c656d656e74657200000000000000000000000000006064820152608401610f45565b805181602001fd5b6001600160e01b0319167f150b7a0200000000000000000000000000000000000000000000000000000000149050613236565b506001949350505050565b6000806000806147a5868660006117b7565b935093509350935060008311156147ee576040516001600160a01b0385169084156108fc029085906000818181858888f193505050501580156147ec573d6000803e3d6000fd5b505b801561482c576040516001600160a01b0383169082156108fc029083906000818181858888f1935050505015801561482a573d6000803e3d6000fd5b505b816001600160a01b0316846001600160a01b0316876001600160a01b03167fba677d62d32cf3ca7ea533245a2128ce25fdbee9811bd67751f522b18e98db4e86856000604051612fdf939291906159b4565b60fb54600090815261010160205260409081902090517f46dc98fc000000000000000000000000000000000000000000000000000000008152600282016004820152600d82016024820152600c90910160448201526064810183905260848101829052732FDFDc031eCaDeAEE9c07d57F0a6d2536f3B7F9A906346dc98fc9060a401612e60565b6101915460ff16611e175760405162461bcd60e51b815260206004820152601460248201527f5061757361626c653a206e6f74207061757365640000000000000000000000006044820152606401610f45565b6001600160a01b0382166149ae5760405162461bcd60e51b815260206004820181905260248201527f4552433732313a206d696e7420746f20746865207a65726f20616464726573736044820152606401610f45565b600081815261012f60205260409020546001600160a01b031615614a145760405162461bcd60e51b815260206004820152601c60248201527f4552433732313a20746f6b656e20616c7265616479206d696e746564000000006044820152606401610f45565b614a22600083836001614361565b600081815261012f60205260409020546001600160a01b031615614a885760405162461bcd60e51b815260206004820152601c60248201527f4552433732313a20746f6b656e20616c7265616479206d696e746564000000006044820152606401610f45565b6001600160a01b0382166000818152610130602090815260408083208054600101905584835261012f90915280822080546001600160a01b0319168417905551839291907fddf252ad1be2c89b69c2b068fc378daa952ba7f163c4a11628f55a4df523b3ef908290a45050565b614afe816143eb565b6040516001600160a01b038216907fbc7cd75a20ee27fd9adebab32041f755214dbc6bffa90cc0225b39da2e5c2d3b90600090a250565b60606001600160a01b0383163b614bb45760405162461bcd60e51b815260206004820152602660248201527f416464726573733a2064656c65676174652063616c6c20746f206e6f6e2d636f60448201527f6e747261637400000000000000000000000000000000000000000000000000006064820152608401610f45565b600080846001600160a01b031684604051614bcf9190615c56565b600060405180830381855af49150503d8060008114614c0a576040519150601f19603f3d011682016040523d82523d6000602084013e614c0f565b606091505b5091509150614c378282604051806060016040528060278152602001615c7360279139614c40565b95945050505050565b60608315614c4f575081614c59565b614c598383614c60565b9392505050565b815115614c705781518083602001fd5b8060405162461bcd60e51b8152600401610f459190614d5f565b6001600160e01b031981168114611cba57600080fd5b600060208284031215614cb257600080fd5b8135614c5981614c8a565b600060208284031215614ccf57600080fd5b5035919050565b60a08101610d66828480518252602081015160208301526040810151604083015260608101516060830152608081015160808301525050565b60005b83811015614d2a578181015183820152602001614d12565b50506000910152565b60008151808452614d4b816020860160208601614d0f565b601f01601f19169290920160200192915050565b602081526000614c596020830184614d33565b6001600160a01b0381168114611cba57600080fd5b60008060408385031215614d9a57600080fd5b8235614da581614d72565b946020939093013593505050565b634e487b7160e01b600052604160045260246000fd5b604051601f8201601f1916810167ffffffffffffffff81118282101715614df257614df2614db3565b604052919050565b600067ffffffffffffffff821115614e1457614e14614db3565b5060051b60200190565b60006020808385031215614e3157600080fd5b823567ffffffffffffffff811115614e4857600080fd5b8301601f81018513614e5957600080fd5b8035614e6c614e6782614dfa565b614dc9565b81815260059190911b82018301908381019087831115614e8b57600080fd5b928401925b82841015614ea957833582529284019290840190614e90565b979650505050505050565b60008060008060008060c08789031215614ecd57600080fd5b863595506020870135614edf81614d72565b95989597505050506040840135936060810135936080820135935060a0909101359150565b600067ffffffffffffffff821115614f1e57614f1e614db3565b50601f01601f191660200190565b600082601f830112614f3d57600080fd5b8135614f4b614e6782614f04565b818152846020838601011115614f6057600080fd5b816020850160208301376000918101602001919091529392505050565b60008060008060808587031215614f9357600080fd5b8435614f9e81614d72565b93506020850135614fae81614d72565b9250604085013567ffffffffffffffff80821115614fcb57600080fd5b614fd788838901614f2c565b93506060870135915080821115614fed57600080fd5b50614ffa87828801614f2c565b91505092959194509250565b60008060006060848603121561501b57600080fd5b833561502681614d72565b9250602084013561503681614d72565b929592945050506040919091013590565b60008083601f84011261505957600080fd5b50813567ffffffffffffffff81111561507157600080fd5b6020830191508360208260051b85010111156122e157600080fd5b6000806020838503121561509f57600080fd5b823567ffffffffffffffff8111156150b657600080fd5b6150c285828601615047565b90969095509350505050565b8035600281106150dd57600080fd5b919050565b6000806000606084860312156150f757600080fd5b833561510281614d72565b925060208401359150615117604085016150ce565b90509250925092565b6000806000806040858703121561513657600080fd5b843567ffffffffffffffff8082111561514e57600080fd5b61515a88838901615047565b9096509450602087013591508082111561517357600080fd5b5061518087828801615047565b95989497509550505050565b60006020828403121561519e57600080fd5b8135614c5981614d72565b600060e082840312156151bb57600080fd5b50919050565b600080602083850312156151d457600080fd5b823567ffffffffffffffff808211156151ec57600080fd5b818501915085601f83011261520057600080fd5b81358181111561520f57600080fd5b86602082850101111561522157600080fd5b60209290920196919550909350505050565b6000806040838503121561524657600080fd5b823561525181614d72565b9150602083013567ffffffffffffffff81111561526d57600080fd5b61527985828601614f2c565b9150509250929050565b82151581526040602082015260006132366040830184614d33565b60ff81168114611cba57600080fd5b600080600080600080600060e0888a0312156152c857600080fd5b873596506020880135955060408801359450606088013593506080880135925060a0880135915060c08801356152fd8161529e565b8091505092959891949750929550565b61ffff81168114611cba57600080fd5b80356150dd8161530d565b60008060006060848603121561533d57600080fd5b83356153488161530d565b925060208401356153588161530d565b9150615117604085016150ce565b6000806040838503121561537957600080fd5b823561538481614d72565b91506020830135801515811461539957600080fd5b809150509250929050565b600080600080608085870312156153ba57600080fd5b84356153c581614d72565b935060208501356153d581614d72565b925060408501359150606085013567ffffffffffffffff8111156153f857600080fd5b614ffa87828801614f2c565b6000806000838503608081121561541a57600080fd5b604081121561542857600080fd5b506040516040810181811067ffffffffffffffff8211171561544c5761544c614db3565b6040908152853582526020808701359083015290935084013561546e81614d72565b929592945050506060919091013590565b60008060006060848603121561549457600080fd5b505081359360208301359350604090920135919050565b600080604083850312156154be57600080fd5b50508035926020909101359150565b600080604083850312156154e057600080fd5b82356154eb81614d72565b9150602083013561539981614d72565b600181811c9082168061550f57607f821691505b6020821081036151bb57634e487b7160e01b600052602260045260246000fd5b634e487b7160e01b600052603260045260246000fd5b6000806040838503121561555857600080fd5b505080516020909101519092909150565b634e487b7160e01b600052601160045260246000fd5b80820180821115610d6657610d66615569565b600060001982036155a5576155a5615569565b5060010190565b8082028115828204841417610d6657610d66615569565b600063ffffffff8083168181036155dc576155dc615569565b6001019392505050565b634e487b7160e01b600052602160045260246000fd5b60008261561957634e487b7160e01b600052601260045260246000fd5b500490565b64ffffffffff81168114611cba57600080fd5b60008135610d668161561e565b60008135610d668161530d565b68ffffffffffffffffff81168114611cba57600080fd5b60008135610d668161564b565b813561567a8161529e565b60ff8116905081548160ff19821617835560208401356156998161561e565b65ffffffffff008160081b16905080837fffffffffffffffffffffffffffffffffffffffffffffffffffff00000000000084161717845560408501356156de8161561e565b6affffffffff0000000000008160301b16847fffffffffffffffffffffffffffffffffffffffffff000000000000000000000085161783171785555050505061576d61572c60608401615631565b82547fffffffffffffffffffffffffffffffff0000000000ffffffffffffffffffffff1660589190911b6fffffffffff000000000000000000000016178255565b6157c261577c60808401615631565b82547fffffffffffffffffffffff0000000000ffffffffffffffffffffffffffffffff1660809190911b74ffffffffff0000000000000000000000000000000016178255565b6158196157d160a0840161563e565b82547fffffffffffffffffff0000ffffffffffffffffffffffffffffffffffffffffff1660a89190911b76ffff00000000000000000000000000000000000000000016178255565b61158c61582860c08401615662565b825476ffffffffffffffffffffffffffffffffffffffffffffff1660b89190911b7fffffffffffffffffff000000000000000000000000000000000000000000000016178255565b80356150dd8161564b565b60e08101823561588a8161529e565b60ff168252602083013561589d8161561e565b64ffffffffff90811660208401526040840135906158ba8261561e565b90811660408401526060840135906158d18261561e565b90811660608401526080840135906158e88261561e565b1660808301526158fa60a0840161531d565b61ffff1660a083015261590f60c08401615870565b68ffffffffffffffffff811660c08401525b5092915050565b64ffffffffff81811683821601908082111561592157615921615569565b60006020828403121561595857600080fd5b815167ffffffffffffffff81111561596f57600080fd5b8201601f8101841361598057600080fd5b805161598e614e6782614f04565b8181528560208385010111156159a357600080fd5b614c37826020830160208601614d0f565b8381526020810183905260608101600283106159e057634e487b7160e01b600052602160045260246000fd5b826040830152949350505050565b600060208284031215615a0057600080fd5b5051919050565b6080808252855190820181905260009060209060a0840190828901845b82811015615a4057815184529284019290840190600101615a24565b50505090830195909552506040810192909252606090910152919050565b81810381811115610d6657610d66615569565b601f821115610fe657600081815260208120601f850160051c81016020861015615a985750805b601f850160051c820191505b81811015612e8c57828155600101615aa4565b815167ffffffffffffffff811115615ad157615ad1614db3565b615ae581615adf84546154fb565b84615a71565b602080601f831160018114615b1a5760008415615b025750858301515b600019600386901b1c1916600185901b178555612e8c565b600085815260208120601f198616915b82811015615b4957888601518255948401946001909101908401615b2a565b5085821015615b675787850151600019600388901b60f8161c191681555b5050505050600190811b01905550565b60006020808385031215615b8a57600080fd5b825167ffffffffffffffff811115615ba157600080fd5b8301601f81018513615bb257600080fd5b8051615bc0614e6782614dfa565b81815260059190911b82018301908381019087831115615bdf57600080fd5b928401925b82841015614ea957835182529284019290840190615be4565b60006001600160a01b03808716835280861660208401525083604083015260806060830152615c2f6080830184614d33565b9695505050505050565b600060208284031215615c4b57600080fd5b8151614c5981614c8a565b60008251615c68818460208701614d0f565b919091019291505056fe416464726573733a206c6f772d6c6576656c2064656c65676174652063616c6c206661696c6564a264697066735822122045a7316578e8499d96f46b6c8b0567ae387274803b546bf7177d7d101eeb2b6164736f6c63430008110033",
  "deployedBytecode": "0x6080604052600436106103605760003560e01c80636e04ff0d116101c6578063afd5f747116100f7578063db64008111610095578063e985e9c51161006f578063e985e9c514610c2f578063f7b188a514610c79578063fbd7823514610c8e578063fbfa77cf14610cae57600080fd5b8063db64008114610bd1578063e30c397814610bf1578063e4421be214610c0f57600080fd5b8063b9e53a9f116100d1578063b9e53a9f14610b18578063c3b82b8d14610b2b578063c417db6914610b4b578063c87b56dd14610bb157600080fd5b8063afd5f74714610ac3578063b242e53414610ad8578063b88d4fde14610af857600080fd5b80638da5cb5b1161016457806395d89b411161013e57806395d89b411461090d5780639ca423b314610922578063a005ec7a14610959578063a22cb46514610aa357600080fd5b80638da5cb5b146108af578063918c49e4146108cd5780639208b21e146108ed57600080fd5b8063736c0d5b116101a0578063736c0d5b1461082a578063802e9cfa1461085a5780638456cb591461087a5780638d47a30d1461088f57600080fd5b80636e04ff0d146107c757806370a08231146107f5578063715018a61461081557600080fd5b80632bf8e8f6116102a05780634e71e0c81161023e57806358c7a0631161021857806358c7a0631461074e5780635c975abb1461076e5780636352211e146107875780636817031b146107a757600080fd5b80634e71e0c8146107035780634f1ef2861461071857806352d1902d1461072b57600080fd5b80633659cfe61161027a5780633659cfe614610683578063410fa1c4146106a357806342842e0e146106c35780634585e33b146106e357600080fd5b80632bf8e8f61461055857806332eb808a1461060e578063350b23691461066357600080fd5b80630aeb55c81161030d57806317e0f252116102e757806317e0f252146104d85780632016a0d2146104f857806323b872dd14610518578063282753381461053857600080fd5b80630aeb55c8146104785780630e357a6e1461049857806316a065c6146104b857600080fd5b8063081812fc1161033e578063081812fc146103e9578063095ea7b3146104215780630aaef8021461044357600080fd5b806301ffc9a714610365578063068bcd8d1461039a57806306fdde03146103c7575b600080fd5b34801561037157600080fd5b50610385610380366004614ca0565b610ccf565b60405190151581526020015b60405180910390f35b3480156103a657600080fd5b506103ba6103b5366004614cbd565b610d6c565b6040516103919190614cd6565b3480156103d357600080fd5b506103dc610dfa565b6040516103919190614d5f565b3480156103f557600080fd5b50610409610404366004614cbd565b610e8d565b6040516001600160a01b039091168152602001610391565b34801561042d57600080fd5b5061044161043c366004614d87565b610eb5565b005b34801561044f57600080fd5b5061046361045e366004614e1e565b610feb565b60408051928352602083019190915201610391565b34801561048457600080fd5b50610441610493366004614eb4565b6110f0565b3480156104a457600080fd5b506103ba6104b3366004614d87565b611465565b3480156104c457600080fd5b5060fc54610409906001600160a01b031681565b3480156104e457600080fd5b506104416104f3366004614cbd565b611505565b34801561050457600080fd5b50610441610513366004614f7d565b611590565b34801561052457600080fd5b50610441610533366004615006565b6116ea565b34801561054457600080fd5b5061044161055336600461508c565b611771565b34801561056457600080fd5b50610103546105bf9061ffff808216916201000081048216916401000000008204811691660100000000000081049091169068010000000000000000900477ffffffffffffffffffffffffffffffffffffffffffffffff1685565b6040805161ffff9687168152948616602086015292851692840192909252909216606082015277ffffffffffffffffffffffffffffffffffffffffffffffff909116608082015260a001610391565b34801561061a57600080fd5b5061062e6106293660046150e2565b6117b7565b60405161039194939291906001600160a01b039485168152602081019390935292166040820152606081019190915260800190565b34801561066f57600080fd5b5061044161067e366004615120565b611918565b34801561068f57600080fd5b5061044161069e36600461518c565b611b20565b3480156106af57600080fd5b506104416106be3660046151a9565b611cbd565b3480156106cf57600080fd5b506104416106de366004615006565b611d62565b3480156106ef57600080fd5b506104416106fe3660046151c1565b611d7d565b34801561070f57600080fd5b50610441611db5565b610441610726366004615233565b611e19565b34801561073757600080fd5b50610740611fa3565b604051908152602001610391565b34801561075a57600080fd5b50610441610769366004614d87565b612068565b34801561077a57600080fd5b506101915460ff16610385565b34801561079357600080fd5b506104096107a2366004614cbd565b612126565b3480156107b357600080fd5b506104416107c236600461518c565b61218c565b3480156107d357600080fd5b506107e76107e23660046151c1565b612209565b604051610391929190615283565b34801561080157600080fd5b5061074061081036600461518c565b6122e8565b34801561082157600080fd5b50610441612383565b34801561083657600080fd5b5061038561084536600461518c565b60fd6020526000908152604090205460ff1681565b34801561086657600080fd5b5061044161087536600461518c565b6123e7565b34801561088657600080fd5b506104416124b6565b34801561089b57600080fd5b506104416108aa36600461508c565b612518565b3480156108bb57600080fd5b506033546001600160a01b0316610409565b3480156108d957600080fd5b506104416108e83660046152ad565b6125f5565b3480156108f957600080fd5b50610441610908366004615328565b612626565b34801561091957600080fd5b506103dc612762565b34801561092e57600080fd5b5061040961093d36600461518c565b610102602052600090815260409020546001600160a01b031681565b34801561096557600080fd5b50610a36610974366004614cbd565b61010060205260009081526040902080546001820154600283015460039093015491926001600160a01b0382169274010000000000000000000000000000000000000000830461ffff1692760100000000000000000000000000000000000000000000810463ffffffff16927a01000000000000000000000000000000000000000000000000000090910465ffffffffffff16916fffffffffffffffffffffffffffffffff808316927001000000000000000000000000000000009004169088565b604080519889526001600160a01b03909716602089015261ffff9095169587019590955263ffffffff909216606086015265ffffffffffff1660808501526fffffffffffffffffffffffffffffffff90811660a085015290911660c083015260e082015261010001610391565b348015610aaf57600080fd5b50610441610abe366004615366565b612772565b348015610acf57600080fd5b5061044161277d565b348015610ae457600080fd5b50610441610af3366004615366565b612879565b348015610b0457600080fd5b50610441610b133660046153a4565b612957565b610441610b26366004615404565b6129e5565b348015610b3757600080fd5b50610441610b4636600461547f565b612a13565b348015610b5757600080fd5b50610b91610b6636600461518c565b6001600160a01b03908116600090815261010260205260408082205483168083529120549092911690565b604080516001600160a01b03938416815292909116602083015201610391565b348015610bbd57600080fd5b506103dc610bcc366004614cbd565b612a41565b348015610bdd57600080fd5b50610441610bec36600461508c565b612add565b348015610bfd57600080fd5b506034546001600160a01b0316610409565b348015610c1b57600080fd5b50610441610c2a3660046154ab565b612ba8565b348015610c3b57600080fd5b50610385610c4a3660046154cd565b6001600160a01b0391821660009081526101326020908152604080832093909416825291909152205460ff1690565b348015610c8557600080fd5b50610441612bc3565b348015610c9a57600080fd5b50610385610ca9366004614cbd565b612c25565b348015610cba57600080fd5b5061010454610409906001600160a01b031681565b60006001600160e01b031982167f80ac58cd000000000000000000000000000000000000000000000000000000001480610d3257506001600160e01b031982167f5b5e139f00000000000000000000000000000000000000000000000000000000145b80610d6657507f01ffc9a7000000000000000000000000000000000000000000000000000000006001600160e01b03198316145b92915050565b610d9e6040518060a0016040528060008152602001600081526020016000815260200160008152602001600081525090565b5060fb5460009081526101016020908152604080832093835292815290829020825160a0810184528154815260018201549281019290925260028101549282019290925260038201546060820152600490910154608082015290565b606061012d8054610e0a906154fb565b80601f0160208091040260200160405190810160405280929190818152602001828054610e36906154fb565b8015610e835780601f10610e5857610100808354040283529160200191610e83565b820191906000526020600020905b815481529060010190602001808311610e6657829003601f168201915b5050505050905090565b6000610e9882612c49565b50600090815261013160205260409020546001600160a01b031690565b6000610ec082612126565b9050806001600160a01b0316836001600160a01b031603610f4e5760405162461bcd60e51b815260206004820152602160248201527f4552433732313a20617070726f76616c20746f2063757272656e74206f776e6560448201527f720000000000000000000000000000000000000000000000000000000000000060648201526084015b60405180910390fd5b336001600160a01b0382161480610f6a5750610f6a8133610c4a565b610fdc5760405162461bcd60e51b815260206004820152603d60248201527f4552433732313a20617070726f76652063616c6c6572206973206e6f7420746f60448201527f6b656e206f776e6572206f7220617070726f76656420666f7220616c6c0000006064820152608401610f45565b610fe68383612cae565b505050565b60008060005b83518110156110ea5760008073__$bf3a140bdbff42a6137d0acc0952596ca5$__635cb931f28785815181106110295761102961552f565b60209081029190910181015160fb546000908152610101909252604091829020915160e084901b6001600160e01b0319168152600481019190915260248101829052600190910160448201526064016040805180830381865af4158015611094573d6000803e3d6000fd5b505050506040513d601f19601f820116820180604052508101906110b89190615545565b90925090506110c7828661557f565b94506110d3818561557f565b9350505080806110e290615592565b915050610ff1565b50915091565b6110f8612d1d565b611100612d66565b600886901c60009081526101056020526040902054600160ff88161b1615611154576040517f0490d63100000000000000000000000000000000000000000000000000000000815260040160405180910390fd5b600886901c6000908152610105602052604081208054600160ff8a161b17905561118646670de0b6b3a76400006155ac565b60ff6000815461119590615592565b91829055506111a4919061557f565b60408051610100810182528981526001600160a01b038916602080830182905261ffff881683850152600091825260fe9052918220805493945090926060840192906111f59063ffffffff166155c3565b825463ffffffff91821661010093840a8181029084021990921691909117909355918352600060208085018290526fffffffffffffffffffffffffffffffff8089166040808801919091528c821660608089019190915260809788018d905289855294835292839020875181559187015160018301805494890151958901519789015165ffffffffffff167a0100000000000000000000000000000000000000000000000000000279ffffffffffffffffffffffffffffffffffffffffffffffffffff98909716760100000000000000000000000000000000000000000000029790971675ffffffffffffffffffffffffffffffffffffffffffff61ffff90961674010000000000000000000000000000000000000000027fffffffffffffffffffff000000000000000000000000000000000000000000009095166001600160a01b03909216919091179390931793909316919091179290921790925560a083015160c0840151831670010000000000000000000000000000000002921691909117600282015560e0909101516003909101556113938682612dba565b610104546040516310b3879160e11b81526001600160a01b03888116600483015260248201889052909116906321670f2290604401600060405180830381600087803b1580156113e257600080fd5b505af11580156113f6573d6000803e3d6000fd5b505050506114048185612dd4565b61140e8686612e94565b80866001600160a01b0316887faf1bba31184b4d13e4f756b22fc2755d77b6ad147f10a7b12ea6afa58a2ca5f68789604051611454929190918252602082015260400190565b60405180910390a450505050505050565b6114976040518060a0016040528060008152602001600081526020016000815260200160008152602001600081525090565b5060fb546000908152610101602090815260408083206001600160a01b038616845260019081018352818420858552835292819020815160a0810183528154815293810154928401929092526002820154908301526003810154606083015260040154608082015292915050565b6033546001600160a01b0316331461155f5760405162461bcd60e51b815260206004820152601d60248201527f536166654f776e61626c653a2063616c6c6572206e6f74206f776e65720000006044820152606401610f45565b604051339082156108fc029083906000818181858888f1935050505015801561158c573d6000803e3d6000fd5b5050565b600054610100900460ff16158080156115b05750600054600160ff909116105b806115ca5750303b1580156115ca575060005460ff166001145b61163c5760405162461bcd60e51b815260206004820152602e60248201527f496e697469616c697a61626c653a20636f6e747261637420697320616c72656160448201527f647920696e697469616c697a65640000000000000000000000000000000000006064820152608401610f45565b6000805460ff19166001179055801561165f576000805461ff0019166101001790555b60fc80546001600160a01b0319166001600160a01b03871617905561168384612fef565b61168d8383613063565b6116956130d8565b61169d61314b565b80156116e3576000805461ff0019169055604051600181527f7f26b83ff96e1f2b6a682f133852f6798a09c465da95921460cefb38474024989060200160405180910390a15b5050505050565b6116f433826131be565b6117665760405162461bcd60e51b815260206004820152602d60248201527f4552433732313a2063616c6c6572206973206e6f7420746f6b656e206f776e6560448201527f72206f7220617070726f766564000000000000000000000000000000000000006064820152608401610f45565b610fe683838361323e565b611779612d66565b60005b81811015610fe6576117a58383838181106117995761179961552f565b90506020020135613477565b806117af81615592565b91505061177c565b6001600160a01b03808416600090815261010260205260408082205483168083529082205490921681808560018111156117f3576117f36155e6565b03611871576001600160a01b0384161561182c57610103546127109061181d9061ffff16886155ac565b61182791906155fc565b61182f565b60005b92506001600160a01b0382161561186b57610103546127109061185c9062010000900461ffff16886155ac565b61186691906155fc565b61186e565b60005b90505b6001856001811115611885576118856155e6565b0361190f576001600160a01b038416156118c65761010354612710906118b790640100000000900461ffff16886155ac565b6118c191906155fc565b6118c9565b60005b92506001600160a01b038216156119095761010354612710906118fa906601000000000000900461ffff16886155ac565b61190491906155fc565b61190c565b60005b90505b93509350935093565b6033546001600160a01b031633146119725760405162461bcd60e51b815260206004820152601d60248201527f536166654f776e61626c653a2063616c6c6572206e6f74206f776e65720000006044820152606401610f45565b60005b83811015611a4d57600160fd60008787858181106119955761199561552f565b90506020020160208101906119aa919061518c565b6001600160a01b031681526020810191909152604001600020805460ff19169115159190911790557fc648f6265408cc54c0dc26d24ba51dfc9f35ce1a63baa2228f65d93aaf11cc67858583818110611a0557611a0561552f565b9050602002016020810190611a1a919061518c565b604080516001600160a01b039092168252600160208301520160405180910390a180611a4581615592565b915050611975565b5060005b818110156116e35760fd6000848484818110611a6f57611a6f61552f565b9050602002016020810190611a84919061518c565b6001600160a01b031681526020810191909152604001600020805460ff191690557fc648f6265408cc54c0dc26d24ba51dfc9f35ce1a63baa2228f65d93aaf11cc67838383818110611ad857611ad861552f565b9050602002016020810190611aed919061518c565b604080516001600160a01b039092168252600060208301520160405180910390a180611b1881615592565b915050611a51565b6001600160a01b037f0000000000000000000000000000000000000000000000000000000000000000163003611bbe5760405162461bcd60e51b815260206004820152602c60248201527f46756e6374696f6e206d7573742062652063616c6c6564207468726f7567682060448201527f64656c656761746563616c6c00000000000000000000000000000000000000006064820152608401610f45565b7f00000000000000000000000000000000000000000000000000000000000000006001600160a01b0316611c197f360894a13ba1a3210667c828492db98dca3e2076cc3735a920a3ca505d382bbc546001600160a01b031690565b6001600160a01b031614611c955760405162461bcd60e51b815260206004820152602c60248201527f46756e6374696f6e206d7573742062652063616c6c6564207468726f7567682060448201527f6163746976652070726f787900000000000000000000000000000000000000006064820152608401610f45565b611c9e816135dc565b60408051600080825260208201909252611cba91839190613636565b50565b6033546001600160a01b03163314611d175760405162461bcd60e51b815260206004820152601d60248201527f536166654f776e61626c653a2063616c6c6572206e6f74206f776e65720000006044820152606401610f45565b80610106611d25828261566f565b9050507f177a1f4181d3bdc94a5ee8b6ea0f1270c5da85b3b5671008c48f0b5d51fa850981604051611d57919061587b565b60405180910390a150565b610fe683838360405180602001604052806000815250612957565b611d85612d66565b6000611d9382840184614cbd565b905080600103611da557610fe66137d6565b80600203610fe657610fe66138bd565b6034546001600160a01b03163314611e0f5760405162461bcd60e51b815260206004820152601e60248201527f536166654f776e61626c653a2063616c6c657220213d2070656e64696e6700006044820152606401610f45565b611e17613978565b565b6001600160a01b037f0000000000000000000000000000000000000000000000000000000000000000163003611eb75760405162461bcd60e51b815260206004820152602c60248201527f46756e6374696f6e206d7573742062652063616c6c6564207468726f7567682060448201527f64656c656761746563616c6c00000000000000000000000000000000000000006064820152608401610f45565b7f00000000000000000000000000000000000000000000000000000000000000006001600160a01b0316611f127f360894a13ba1a3210667c828492db98dca3e2076cc3735a920a3ca505d382bbc546001600160a01b031690565b6001600160a01b031614611f8e5760405162461bcd60e51b815260206004820152602c60248201527f46756e6374696f6e206d7573742062652063616c6c6564207468726f7567682060448201527f6163746976652070726f787900000000000000000000000000000000000000006064820152608401610f45565b611f97826135dc565b61158c82826001613636565b6000306001600160a01b037f000000000000000000000000000000000000000000000000000000000000000016146120435760405162461bcd60e51b815260206004820152603860248201527f555550535570677261646561626c653a206d757374206e6f742062652063616c60448201527f6c6564207468726f7567682064656c656761746563616c6c00000000000000006064820152608401610f45565b507f360894a13ba1a3210667c828492db98dca3e2076cc3735a920a3ca505d382bbc90565b612070612d1d565b612078612d66565b610104546040516310b3879160e11b81526001600160a01b03848116600483015260248201849052909116906321670f2290604401600060405180830381600087803b1580156120c757600080fd5b505af11580156120db573d6000803e3d6000fd5b50505050816001600160a01b03167f7a0984e898d33e4bf6ad9f851bfab5517683d3dae5b57ed58fa8c7152d822e328260405161211a91815260200190565b60405180910390a25050565b600081815261012f60205260408120546001600160a01b031680610d665760405162461bcd60e51b815260206004820152601860248201527f4552433732313a20696e76616c696420746f6b656e20494400000000000000006044820152606401610f45565b6033546001600160a01b031633146121e65760405162461bcd60e51b815260206004820152601d60248201527f536166654f776e61626c653a2063616c6c6572206e6f74206f776e65720000006044820152606401610f45565b61010480546001600160a01b0319166001600160a01b0392909216919091179055565b6101065460009060609060ff166001036122e157610106546122489064ffffffffff61010082048116916b010000000000000000000000900416615928565b64ffffffffff1642111561227c576040805160016020820181905293500160405160208183030381529060405290506122e1565b610106546122b19064ffffffffff66010000000000008204811691700100000000000000000000000000000000900416615928565b64ffffffffff164211156122e1576040805160026020820152600193500160405160208183030381529060405290505b9250929050565b60006001600160a01b0382166123665760405162461bcd60e51b815260206004820152602960248201527f4552433732313a2061646472657373207a65726f206973206e6f74206120766160448201527f6c6964206f776e657200000000000000000000000000000000000000000000006064820152608401610f45565b506001600160a01b03166000908152610130602052604090205490565b6033546001600160a01b031633146123dd5760405162461bcd60e51b815260206004820152601d60248201527f536166654f776e61626c653a2063616c6c6572206e6f74206f776e65720000006044820152606401610f45565b611e1760006139e1565b6033546001600160a01b031633146124415760405162461bcd60e51b815260206004820152601d60248201527f536166654f776e61626c653a2063616c6c6572206e6f74206f776e65720000006044820152606401610f45565b610104546040517fa1c04f0e0000000000000000000000000000000000000000000000000000000081526001600160a01b0383811660048301529091169063a1c04f0e90602401600060405180830381600087803b1580156124a257600080fd5b505af11580156116e3573d6000803e3d6000fd5b6033546001600160a01b031633146125105760405162461bcd60e51b815260206004820152601d60248201527f536166654f776e61626c653a2063616c6c6572206e6f74206f776e65720000006044820152606401610f45565b611e17613a57565b612520612d66565b60005b81811015610fe65773__$bf3a140bdbff42a6137d0acc0952596ca5$__63d4166eb08484848181106125575761255761552f565b6101045460fb5460009081526101016020908152604091829020915160e088901b6001600160e01b031916815293029094013560048301526001600160a01b0316602482015260448101839052600190920160648301525060840160006040518083038186803b1580156125ca57600080fd5b505af41580156125de573d6000803e3d6000fd5b5050505080806125ed90615592565b915050612523565b6125fd612d66565b61260687613477565b6126138585858585613aad565b61261d8787613b55565b50505050505050565b6033546001600160a01b031633146126805760405162461bcd60e51b815260206004820152601d60248201527f536166654f776e61626c653a2063616c6c6572206e6f74206f776e65720000006044820152606401610f45565b6000816001811115612694576126946155e6565b036126d957610103805461ffff84811662010000027fffffffffffffffffffffffffffffffffffffffffffffffffffffffff0000000090921690861617179055505050565b60018160018111156126ed576126ed6155e6565b03610fe6575061010380547fffffffffffffffffffffffffffffffffffffffffffffffff00000000ffffffff1664010000000061ffff948516027fffffffffffffffffffffffffffffffffffffffffffffffff0000ffffffffffff161766010000000000009290931691909102919091179055565b606061012e8054610e0a906154fb565b61158c338383613c23565b6033546001600160a01b031633146127d75760405162461bcd60e51b815260206004820152601d60248201527f536166654f776e61626c653a2063616c6c6572206e6f74206f776e65720000006044820152606401610f45565b600160fb60008282546127ea919061557f565b909155503390506108fc60646128014760106155ac565b61280b91906155fc565b6040518115909202916000818181858888f19350505050158015612833573d6000803e3d6000fd5b5061283c613a57565b7f3bf8992b1ca7018d446bcf1d45dc7a62e50decf5248434be4194aef15446338060fb5460405161286f91815260200190565b60405180910390a1565b6033546001600160a01b031633146128d35760405162461bcd60e51b815260206004820152601d60248201527f536166654f776e61626c653a2063616c6c6572206e6f74206f776e65720000006044820152606401610f45565b6001600160a01b0382166129295760405162461bcd60e51b815260206004820152601b60248201527f536166654f776e61626c653a206e6577206f776e6572206973203000000000006044820152606401610f45565b80156129385761158c826139e1565b603480546001600160a01b0319166001600160a01b0384161790555050565b61296133836131be565b6129d35760405162461bcd60e51b815260206004820152602d60248201527f4552433732313a2063616c6c6572206973206e6f7420746f6b656e206f776e6560448201527f72206f7220617070726f766564000000000000000000000000000000000000006064820152608401610f45565b6129df84848484613cf2565b50505050565b6129ed612d66565b6129f5613d7b565b6129fe82613dd6565b612a088382613e80565b610fe6600161015f55565b612a1b612d66565b612a2483613477565b612a2d82613477565b612a378382613f6c565b610fe68282614056565b6040517fbe0862f400000000000000000000000000000000000000000000000000000000815261010060048201526024810182905260609073__$3cbd271f598b36a387d6c3d3bdc78254b5$__9063be0862f490604401600060405180830381865af4158015612ab5573d6000803e3d6000fd5b505050506040513d6000823e601f3d908101601f19168201604052610d669190810190615946565b612ae5612d66565b60005b81811015610fe65773__$bf3a140bdbff42a6137d0acc0952596ca5$__63c4deddb4848484818110612b1c57612b1c61552f565b60fb5460009081526101016020908152604091829020915160e087901b6001600160e01b0319168152920290930135600482015260248101839052600190920160448301525060640160006040518083038186803b158015612b7d57600080fd5b505af4158015612b91573d6000803e3d6000fd5b505050508080612ba090615592565b915050612ae8565b612bb0612d66565b612bb982613477565b61158c8282613b55565b6033546001600160a01b03163314612c1d5760405162461bcd60e51b815260206004820152601d60248201527f536166654f776e61626c653a2063616c6c6572206e6f74206f776e65720000006044820152606401610f45565b611e176140c1565b600881901c60009081526101056020526040812054600160ff84161b161515610d66565b600081815261012f60205260409020546001600160a01b0316611cba5760405162461bcd60e51b815260206004820152601860248201527f4552433732313a20696e76616c696420746f6b656e20494400000000000000006044820152606401610f45565b60008181526101316020526040902080546001600160a01b0319166001600160a01b0384169081179091558190612ce482612126565b6001600160a01b03167f8c5be1e5ebec7d5bd14f71427d1e84f3dd0314c0f7b2291e5b200ac8c7c3b92560405160405180910390a45050565b33600090815260fd602052604090205460ff16611e17576040517fa1b035c800000000000000000000000000000000000000000000000000000000815260040160405180910390fd5b6101915460ff1615611e175760405162461bcd60e51b815260206004820152601060248201527f5061757361626c653a20706175736564000000000000000000000000000000006044820152606401610f45565b61158c8282604051806020016040528060008152506140fb565b60fb54600090815261010160205260409081902090517ff0f2cef7000000000000000000000000000000000000000000000000000000008152600782016004820152600282016024820152600d82016044820152600c90910160648201526084810183905260a4810182905273__$b6aef517fe05d85bc7364998255804b986$__9063f0f2cef79060c4015b60006040518083038186803b158015612e7857600080fd5b505af4158015612e8c573d6000803e3d6000fd5b505050505050565b600080600080612ea6868660016117b7565b93509350935093506000831115612f1f57610104546040516310b3879160e11b81526001600160a01b03868116600483015260248201869052909116906321670f2290604401600060405180830381600087803b158015612f0657600080fd5b505af1158015612f1a573d6000803e3d6000fd5b505050505b8015612f8d57610104546040516310b3879160e11b81526001600160a01b03848116600483015260248201849052909116906321670f2290604401600060405180830381600087803b158015612f7457600080fd5b505af1158015612f88573d6000803e3d6000fd5b505050505b816001600160a01b0316846001600160a01b0316876001600160a01b03167fba677d62d32cf3ca7ea533245a2128ce25fdbee9811bd67751f522b18e98db4e86856001604051612fdf939291906159b4565b60405180910390a4505050505050565b600054610100900460ff1661305a5760405162461bcd60e51b815260206004820152602b60248201527f496e697469616c697a61626c653a20636f6e7472616374206973206e6f74206960448201526a6e697469616c697a696e6760a81b6064820152608401610f45565b611cba81614184565b600054610100900460ff166130ce5760405162461bcd60e51b815260206004820152602b60248201527f496e697469616c697a61626c653a20636f6e7472616374206973206e6f74206960448201526a6e697469616c697a696e6760a81b6064820152608401610f45565b61158c82826141f8565b600054610100900460ff166131435760405162461bcd60e51b815260206004820152602b60248201527f496e697469616c697a61626c653a20636f6e7472616374206973206e6f74206960448201526a6e697469616c697a696e6760a81b6064820152608401610f45565b611e1761427e565b600054610100900460ff166131b65760405162461bcd60e51b815260206004820152602b60248201527f496e697469616c697a61626c653a20636f6e7472616374206973206e6f74206960448201526a6e697469616c697a696e6760a81b6064820152608401610f45565b611e176142e9565b6000806131ca83612126565b9050806001600160a01b0316846001600160a01b0316148061321257506001600160a01b038082166000908152610132602090815260408083209388168352929052205460ff165b806132365750836001600160a01b031661322b84610e8d565b6001600160a01b0316145b949350505050565b826001600160a01b031661325182612126565b6001600160a01b0316146132cd5760405162461bcd60e51b815260206004820152602560248201527f4552433732313a207472616e736665722066726f6d20696e636f72726563742060448201527f6f776e65720000000000000000000000000000000000000000000000000000006064820152608401610f45565b6001600160a01b0382166133485760405162461bcd60e51b8152602060048201526024808201527f4552433732313a207472616e7366657220746f20746865207a65726f2061646460448201527f72657373000000000000000000000000000000000000000000000000000000006064820152608401610f45565b6133558383836001614361565b826001600160a01b031661336882612126565b6001600160a01b0316146133e45760405162461bcd60e51b815260206004820152602560248201527f4552433732313a207472616e736665722066726f6d20696e636f72726563742060448201527f6f776e65720000000000000000000000000000000000000000000000000000006064820152608401610f45565b60008181526101316020908152604080832080546001600160a01b03199081169091556001600160a01b03878116808652610130855283862080546000190190559087168086528386208054600101905586865261012f90945282852080549092168417909155905184937fddf252ad1be2c89b69c2b068fc378daa952ba7f163c4a11628f55a4df523b3ef91a4505050565b61347f613d7b565b60fb54600090815261010160205260409081902090517fc4deddb400000000000000000000000000000000000000000000000000000000815260048101839052602481018290526001909101604482015273__$bf3a140bdbff42a6137d0acc0952596ca5$__9063c4deddb49060640160006040518083038186803b15801561350757600080fd5b505af415801561351b573d6000803e3d6000fd5b50506101045460fb54600090815261010160205260409081902090517fd4166eb0000000000000000000000000000000000000000000000000000000008152600481018690526001600160a01b03909216602483015260448201819052600101606482015273__$bf3a140bdbff42a6137d0acc0952596ca5$__925063d4166eb0915060840160006040518083038186803b1580156135b957600080fd5b505af41580156135cd573d6000803e3d6000fd5b50505050611cba600161015f55565b6033546001600160a01b03163314611cba5760405162461bcd60e51b815260206004820152601d60248201527f536166654f776e61626c653a2063616c6c6572206e6f74206f776e65720000006044820152606401610f45565b7f4910fdfa16fed3260ed0e7147f7cc6da11a60208b5b9406d12a635614ffd91435460ff161561366957610fe6836143eb565b826001600160a01b03166352d1902d6040518163ffffffff1660e01b8152600401602060405180830381865afa9250505080156136c3575060408051601f3d908101601f191682019092526136c0918101906159ee565b60015b6137355760405162461bcd60e51b815260206004820152602e60248201527f45524331393637557067726164653a206e657720696d706c656d656e7461746960448201527f6f6e206973206e6f7420555550530000000000000000000000000000000000006064820152608401610f45565b7f360894a13ba1a3210667c828492db98dca3e2076cc3735a920a3ca505d382bbc81146137ca5760405162461bcd60e51b815260206004820152602960248201527f45524331393637557067726164653a20756e737570706f727465642070726f7860448201527f6961626c655555494400000000000000000000000000000000000000000000006064820152608401610f45565b50610fe68383836144a9565b6101065460ff16600003613816576040517fa397eb4700000000000000000000000000000000000000000000000000000000815260040160405180910390fd5b600061382260646144ce565b60fb54600090815261010160205260409081902090517fa6a348b300000000000000000000000000000000000000000000000000000000815291925073__$bf3a140bdbff42a6137d0acc0952596ca5$__9163a6a348b391613891918591610106916001820190600401615a07565b60006040518083038186803b1580156138a957600080fd5b505af41580156116e3573d6000803e3d6000fd5b6101065460ff166000036138fd576040517fa397eb4700000000000000000000000000000000000000000000000000000000815260040160405180910390fd5b600061390960646144ce565b60fb54600090815261010160205260409081902090517fc8410c5f00000000000000000000000000000000000000000000000000000000815291925073__$bf3a140bdbff42a6137d0acc0952596ca5$__9163c8410c5f91613891918591610106916001820190600401615a07565b6033546034546040516001600160a01b03928316929091169082907f8be0079c531659141344cd1fd0a4f28419497f9722a3daafe3b4186f6b6457e090600090a35060348054603380546001600160a01b03199081166001600160a01b03841617909155169055565b7fb53127684a568b3173ae13b9f8a6016e243e63b6e8ee1178d6a717850b5d6103819055603380546001600160a01b038084166001600160a01b0319831681179093556040519116919082907f8be0079c531659141344cd1fd0a4f28419497f9722a3daafe3b4186f6b6457e090600090a35050565b613a5f612d66565b610191805460ff191660011790557f62e78cea01bee320cd4e420270b5ea74000d11b0c9f74754ebdbfc544b05a258613a953390565b6040516001600160a01b03909116815260200161286f565b60fc546040517fd505accf000000000000000000000000000000000000000000000000000000008152336004820152306024820152604481018790526064810186905260ff8316608482015260a4810185905260c481018490526001600160a01b039091169063d505accf9060e401600060405180830381600087803b158015613b3657600080fd5b505af1158015613b4a573d6000803e3d6000fd5b505050505050505050565b80600003613b61575050565b60fc546040517f79cc6790000000000000000000000000000000000000000000000000000000008152336004820152602481018390526001600160a01b03909116906379cc679090604401600060405180830381600087803b158015613bc657600080fd5b505af1158015613bda573d6000803e3d6000fd5b50505050613be88282614586565b604051818152829033907f58c7b3bf0b0e168048426c1e9443a72696526292ca664e18b11f934cd6cfbbf39060200160405180910390a35050565b816001600160a01b0316836001600160a01b031603613c845760405162461bcd60e51b815260206004820152601960248201527f4552433732313a20617070726f766520746f2063616c6c6572000000000000006044820152606401610f45565b6001600160a01b0383811660008181526101326020908152604080832094871680845294825291829020805460ff191686151590811790915591519182527f17307eab39ab6107e8899845ad3d59bd9653f200f220920489ca2b5937696c31910160405180910390a3505050565b613cfd84848461323e565b613d098484848461460a565b6129df5760405162461bcd60e51b815260206004820152603260248201527f4552433732313a207472616e7366657220746f206e6f6e20455243373231526560448201527f63656976657220696d706c656d656e74657200000000000000000000000000006064820152608401610f45565b600261015f5403613dce5760405162461bcd60e51b815260206004820152601f60248201527f5265656e7472616e637947756172643a207265656e7472616e742063616c6c006044820152606401610f45565b600261015f55565b33600090815261010260205260409020546001600160a01b0316158015613e0557506001600160a01b03811615155b8015613e1a57506001600160a01b0381163314155b15611cba57336000818152610102602090815260409182902080546001600160a01b0319166001600160a01b0386169081179091558251938452908301527f677cd8c8ce12dc7827579d65be5e6efa74b6ac9ab04ac43d4648dc85d328c2ae9101611d57565b6020820151825160009190613e95908461557f565b613e9f919061557f565b905080341015613edb576040517f5945ea5600000000000000000000000000000000000000000000000000000000815260040160405180910390fd5b336108fc613ee98334615a5e565b6040518115909202916000818181858888f19350505050158015613f11573d6000803e3d6000fd5b50613f1c3382614793565b6020830151835160405133907f617b1a2bf0533cea0c5dd46104e1d48f8b290fc7d7360dba0182dbf07a00e46a90613f579087815260200190565b60405180910390a4505050565b600161015f55565b60fb54600090815261010160209081526040808320338452600181018352818420868552835281842092529091208154831115613fd5576040517ffe8b364f00000000000000000000000000000000000000000000000000000000815260040160405180910390fd5b82826000016000828254613fe99190615a5e565b9091555050805483908290600090614002908490615a5e565b9091555050805461401490859061487e565b604080518581526020810185905233917fe6907eb8ffc12ac27891b5560db15647cae89e2b344f0c34c63bb6f1d4249cff91015b60405180910390a250505050565b600060646140658360056155ac565b61406f91906155fc565b9050600061407d8284615a5e565b90506140898482614586565b604080518581526020810183905233917f7e9ecb928e58cb1d1c8cda62ae789939f9f184616eb26ef72e801f98b6ef556a9101614048565b6140c9614905565b610191805460ff191690557f5db9ee0a495bf2e6ff9c91a7834c1ba4fdd244a5e8aa4e537bd38aeae4b073aa33613a95565b6141058383614958565b614112600084848461460a565b610fe65760405162461bcd60e51b815260206004820152603260248201527f4552433732313a207472616e7366657220746f206e6f6e20455243373231526560448201527f63656976657220696d706c656d656e74657200000000000000000000000000006064820152608401610f45565b600054610100900460ff166141ef5760405162461bcd60e51b815260206004820152602b60248201527f496e697469616c697a61626c653a20636f6e7472616374206973206e6f74206960448201526a6e697469616c697a696e6760a81b6064820152608401610f45565b611cba816139e1565b600054610100900460ff166142635760405162461bcd60e51b815260206004820152602b60248201527f496e697469616c697a61626c653a20636f6e7472616374206973206e6f74206960448201526a6e697469616c697a696e6760a81b6064820152608401610f45565b61012d6142708382615ab7565b5061012e610fe68282615ab7565b600054610100900460ff16613f645760405162461bcd60e51b815260206004820152602b60248201527f496e697469616c697a61626c653a20636f6e7472616374206973206e6f74206960448201526a6e697469616c697a696e6760a81b6064820152608401610f45565b600054610100900460ff166143545760405162461bcd60e51b815260206004820152602b60248201527f496e697469616c697a61626c653a20636f6e7472616374206973206e6f74206960448201526a6e697469616c697a696e6760a81b6064820152608401610f45565b610191805460ff19169055565b60018111156129df576001600160a01b038416156143a8576001600160a01b03841660009081526101306020526040812080548392906143a2908490615a5e565b90915550505b6001600160a01b038316156129df576001600160a01b03831660009081526101306020526040812080548392906143e090849061557f565b909155505050505050565b6001600160a01b0381163b6144685760405162461bcd60e51b815260206004820152602d60248201527f455243313936373a206e657720696d706c656d656e746174696f6e206973206e60448201527f6f74206120636f6e7472616374000000000000000000000000000000000000006064820152608401610f45565b7f360894a13ba1a3210667c828492db98dca3e2076cc3735a920a3ca505d382bbc80546001600160a01b0319166001600160a01b0392909216919091179055565b6144b283614af5565b6000825111806144bf5750805b15610fe6576129df8383614b35565b60fb546000908152610101602052604080822090517f4d63fffd0000000000000000000000000000000000000000000000000000000081526002909101600482015260248101919091526044810182905260609073__$69292ab8e6f98571d324d08d63c6dae4eb$__90634d63fffd90606401600060405180830381865af415801561455e573d6000803e3d6000fd5b505050506040513d6000823e601f3d908101601f19168201604052610d669190810190615b77565b60fb54600090815261010160209081526040808320338452600101825280832085845290915281208054909183918391906145c290849061557f565b909155505060fb5460009081526101016020908152604080832086845290915281208054909184918391906145f890849061557f565b909155505080546129df90859061487e565b60006001600160a01b0384163b15614788576040517f150b7a020000000000000000000000000000000000000000000000000000000081526001600160a01b0385169063150b7a0290614667903390899088908890600401615bfd565b6020604051808303816000875af19250505080156146a2575060408051601f3d908101601f1916820190925261469f91810190615c39565b60015b614755573d8080156146d0576040519150601f19603f3d011682016040523d82523d6000602084013e6146d5565b606091505b50805160000361474d5760405162461bcd60e51b815260206004820152603260248201527f4552433732313a207472616e7366657220746f206e6f6e20455243373231526560448201527f63656976657220696d706c656d656e74657200000000000000000000000000006064820152608401610f45565b805181602001fd5b6001600160e01b0319167f150b7a0200000000000000000000000000000000000000000000000000000000149050613236565b506001949350505050565b6000806000806147a5868660006117b7565b935093509350935060008311156147ee576040516001600160a01b0385169084156108fc029085906000818181858888f193505050501580156147ec573d6000803e3d6000fd5b505b801561482c576040516001600160a01b0383169082156108fc029083906000818181858888f1935050505015801561482a573d6000803e3d6000fd5b505b816001600160a01b0316846001600160a01b0316876001600160a01b03167fba677d62d32cf3ca7ea533245a2128ce25fdbee9811bd67751f522b18e98db4e86856000604051612fdf939291906159b4565b60fb54600090815261010160205260409081902090517f46dc98fc000000000000000000000000000000000000000000000000000000008152600282016004820152600d82016024820152600c9091016044820152606481018390526084810182905273__$b6aef517fe05d85bc7364998255804b986$__906346dc98fc9060a401612e60565b6101915460ff16611e175760405162461bcd60e51b815260206004820152601460248201527f5061757361626c653a206e6f74207061757365640000000000000000000000006044820152606401610f45565b6001600160a01b0382166149ae5760405162461bcd60e51b815260206004820181905260248201527f4552433732313a206d696e7420746f20746865207a65726f20616464726573736044820152606401610f45565b600081815261012f60205260409020546001600160a01b031615614a145760405162461bcd60e51b815260206004820152601c60248201527f4552433732313a20746f6b656e20616c7265616479206d696e746564000000006044820152606401610f45565b614a22600083836001614361565b600081815261012f60205260409020546001600160a01b031615614a885760405162461bcd60e51b815260206004820152601c60248201527f4552433732313a20746f6b656e20616c7265616479206d696e746564000000006044820152606401610f45565b6001600160a01b0382166000818152610130602090815260408083208054600101905584835261012f90915280822080546001600160a01b0319168417905551839291907fddf252ad1be2c89b69c2b068fc378daa952ba7f163c4a11628f55a4df523b3ef908290a45050565b614afe816143eb565b6040516001600160a01b038216907fbc7cd75a20ee27fd9adebab32041f755214dbc6bffa90cc0225b39da2e5c2d3b90600090a250565b60606001600160a01b0383163b614bb45760405162461bcd60e51b815260206004820152602660248201527f416464726573733a2064656c65676174652063616c6c20746f206e6f6e2d636f60448201527f6e747261637400000000000000000000000000000000000000000000000000006064820152608401610f45565b600080846001600160a01b031684604051614bcf9190615c56565b600060405180830381855af49150503d8060008114614c0a576040519150601f19603f3d011682016040523d82523d6000602084013e614c0f565b606091505b5091509150614c378282604051806060016040528060278152602001615c7360279139614c40565b95945050505050565b60608315614c4f575081614c59565b614c598383614c60565b9392505050565b815115614c705781518083602001fd5b8060405162461bcd60e51b8152600401610f459190614d5f565b6001600160e01b031981168114611cba57600080fd5b600060208284031215614cb257600080fd5b8135614c5981614c8a565b600060208284031215614ccf57600080fd5b5035919050565b60a08101610d66828480518252602081015160208301526040810151604083015260608101516060830152608081015160808301525050565b60005b83811015614d2a578181015183820152602001614d12565b50506000910152565b60008151808452614d4b816020860160208601614d0f565b601f01601f19169290920160200192915050565b602081526000614c596020830184614d33565b6001600160a01b0381168114611cba57600080fd5b60008060408385031215614d9a57600080fd5b8235614da581614d72565b946020939093013593505050565b634e487b7160e01b600052604160045260246000fd5b604051601f8201601f1916810167ffffffffffffffff81118282101715614df257614df2614db3565b604052919050565b600067ffffffffffffffff821115614e1457614e14614db3565b5060051b60200190565b60006020808385031215614e3157600080fd5b823567ffffffffffffffff811115614e4857600080fd5b8301601f81018513614e5957600080fd5b8035614e6c614e6782614dfa565b614dc9565b81815260059190911b82018301908381019087831115614e8b57600080fd5b928401925b82841015614ea957833582529284019290840190614e90565b979650505050505050565b60008060008060008060c08789031215614ecd57600080fd5b863595506020870135614edf81614d72565b95989597505050506040840135936060810135936080820135935060a0909101359150565b600067ffffffffffffffff821115614f1e57614f1e614db3565b50601f01601f191660200190565b600082601f830112614f3d57600080fd5b8135614f4b614e6782614f04565b818152846020838601011115614f6057600080fd5b816020850160208301376000918101602001919091529392505050565b60008060008060808587031215614f9357600080fd5b8435614f9e81614d72565b93506020850135614fae81614d72565b9250604085013567ffffffffffffffff80821115614fcb57600080fd5b614fd788838901614f2c565b93506060870135915080821115614fed57600080fd5b50614ffa87828801614f2c565b91505092959194509250565b60008060006060848603121561501b57600080fd5b833561502681614d72565b9250602084013561503681614d72565b929592945050506040919091013590565b60008083601f84011261505957600080fd5b50813567ffffffffffffffff81111561507157600080fd5b6020830191508360208260051b85010111156122e157600080fd5b6000806020838503121561509f57600080fd5b823567ffffffffffffffff8111156150b657600080fd5b6150c285828601615047565b90969095509350505050565b8035600281106150dd57600080fd5b919050565b6000806000606084860312156150f757600080fd5b833561510281614d72565b925060208401359150615117604085016150ce565b90509250925092565b6000806000806040858703121561513657600080fd5b843567ffffffffffffffff8082111561514e57600080fd5b61515a88838901615047565b9096509450602087013591508082111561517357600080fd5b5061518087828801615047565b95989497509550505050565b60006020828403121561519e57600080fd5b8135614c5981614d72565b600060e082840312156151bb57600080fd5b50919050565b600080602083850312156151d457600080fd5b823567ffffffffffffffff808211156151ec57600080fd5b818501915085601f83011261520057600080fd5b81358181111561520f57600080fd5b86602082850101111561522157600080fd5b60209290920196919550909350505050565b6000806040838503121561524657600080fd5b823561525181614d72565b9150602083013567ffffffffffffffff81111561526d57600080fd5b61527985828601614f2c565b9150509250929050565b82151581526040602082015260006132366040830184614d33565b60ff81168114611cba57600080fd5b600080600080600080600060e0888a0312156152c857600080fd5b873596506020880135955060408801359450606088013593506080880135925060a0880135915060c08801356152fd8161529e565b8091505092959891949750929550565b61ffff81168114611cba57600080fd5b80356150dd8161530d565b60008060006060848603121561533d57600080fd5b83356153488161530d565b925060208401356153588161530d565b9150615117604085016150ce565b6000806040838503121561537957600080fd5b823561538481614d72565b91506020830135801515811461539957600080fd5b809150509250929050565b600080600080608085870312156153ba57600080fd5b84356153c581614d72565b935060208501356153d581614d72565b925060408501359150606085013567ffffffffffffffff8111156153f857600080fd5b614ffa87828801614f2c565b6000806000838503608081121561541a57600080fd5b604081121561542857600080fd5b506040516040810181811067ffffffffffffffff8211171561544c5761544c614db3565b6040908152853582526020808701359083015290935084013561546e81614d72565b929592945050506060919091013590565b60008060006060848603121561549457600080fd5b505081359360208301359350604090920135919050565b600080604083850312156154be57600080fd5b50508035926020909101359150565b600080604083850312156154e057600080fd5b82356154eb81614d72565b9150602083013561539981614d72565b600181811c9082168061550f57607f821691505b6020821081036151bb57634e487b7160e01b600052602260045260246000fd5b634e487b7160e01b600052603260045260246000fd5b6000806040838503121561555857600080fd5b505080516020909101519092909150565b634e487b7160e01b600052601160045260246000fd5b80820180821115610d6657610d66615569565b600060001982036155a5576155a5615569565b5060010190565b8082028115828204841417610d6657610d66615569565b600063ffffffff8083168181036155dc576155dc615569565b6001019392505050565b634e487b7160e01b600052602160045260246000fd5b60008261561957634e487b7160e01b600052601260045260246000fd5b500490565b64ffffffffff81168114611cba57600080fd5b60008135610d668161561e565b60008135610d668161530d565b68ffffffffffffffffff81168114611cba57600080fd5b60008135610d668161564b565b813561567a8161529e565b60ff8116905081548160ff19821617835560208401356156998161561e565b65ffffffffff008160081b16905080837fffffffffffffffffffffffffffffffffffffffffffffffffffff00000000000084161717845560408501356156de8161561e565b6affffffffff0000000000008160301b16847fffffffffffffffffffffffffffffffffffffffffff000000000000000000000085161783171785555050505061576d61572c60608401615631565b82547fffffffffffffffffffffffffffffffff0000000000ffffffffffffffffffffff1660589190911b6fffffffffff000000000000000000000016178255565b6157c261577c60808401615631565b82547fffffffffffffffffffffff0000000000ffffffffffffffffffffffffffffffff1660809190911b74ffffffffff0000000000000000000000000000000016178255565b6158196157d160a0840161563e565b82547fffffffffffffffffff0000ffffffffffffffffffffffffffffffffffffffffff1660a89190911b76ffff00000000000000000000000000000000000000000016178255565b61158c61582860c08401615662565b825476ffffffffffffffffffffffffffffffffffffffffffffff1660b89190911b7fffffffffffffffffff000000000000000000000000000000000000000000000016178255565b80356150dd8161564b565b60e08101823561588a8161529e565b60ff168252602083013561589d8161561e565b64ffffffffff90811660208401526040840135906158ba8261561e565b90811660408401526060840135906158d18261561e565b90811660608401526080840135906158e88261561e565b1660808301526158fa60a0840161531d565b61ffff1660a083015261590f60c08401615870565b68ffffffffffffffffff811660c08401525b5092915050565b64ffffffffff81811683821601908082111561592157615921615569565b60006020828403121561595857600080fd5b815167ffffffffffffffff81111561596f57600080fd5b8201601f8101841361598057600080fd5b805161598e614e6782614f04565b8181528560208385010111156159a357600080fd5b614c37826020830160208601614d0f565b8381526020810183905260608101600283106159e057634e487b7160e01b600052602160045260246000fd5b826040830152949350505050565b600060208284031215615a0057600080fd5b5051919050565b6080808252855190820181905260009060209060a0840190828901845b82811015615a4057815184529284019290840190600101615a24565b50505090830195909552506040810192909252606090910152919050565b81810381811115610d6657610d66615569565b601f821115610fe657600081815260208120601f850160051c81016020861015615a985750805b601f850160051c820191505b81811015612e8c57828155600101615aa4565b815167ffffffffffffffff811115615ad157615ad1614db3565b615ae581615adf84546154fb565b84615a71565b602080601f831160018114615b1a5760008415615b025750858301515b600019600386901b1c1916600185901b178555612e8c565b600085815260208120601f198616915b82811015615b4957888601518255948401946001909101908401615b2a565b5085821015615b675787850151600019600388901b60f8161c191681555b5050505050600190811b01905550565b60006020808385031215615b8a57600080fd5b825167ffffffffffffffff811115615ba157600080fd5b8301601f81018513615bb257600080fd5b8051615bc0614e6782614dfa565b81815260059190911b82018301908381019087831115615bdf57600080fd5b928401925b82841015614ea957835182529284019290840190615be4565b60006001600160a01b03808716835280861660208401525083604083015260806060830152615c2f6080830184614d33565b9695505050505050565b600060208284031215615c4b57600080fd5b8151614c5981614c8a565b60008251615c68818460208701614d0f565b919091019291505056fe416464726573733a206c6f772d6c6576656c2064656c65676174652063616c6c206661696c6564a264697066735822122045a7316578e8499d96f46b6c8b0567ae387274803b546bf7177d7d101eeb2b6164736f6c63430008110033",
  "libraries": {
    "RenderEngine": "0x99Bc9aeb837Db5C07C3094cB2bC6Ea6bee055198",
    "Renderer": "0x2896026275f17800607C8862d82491d0316f9e34",
    "FastArray": "0x9FFEC691D21aC1Ec21BF6de9A1f310C471BeC8F4",
    "RankingRedBlackTree": "0xbb789f1A22BA24bd757D021DE2CAF43b3fb3a881",
    "SingleRanking": "0xc3A1d8F206c963E2E1B36B2F20B19435173ca37A",
    "DegenRank": "0x2FDFDc031eCaDeAEE9c07d57F0a6d2536f3B7F9A",
    "PortalLib": "0x8F37E5db879373B409BC05d4cCc4287A220cC57c"
  },
  "devdoc": {
    "errors": {
      "DropOff()": [
        {
          "details": "revert when the drop is not on"
        }
      ],
      "InsufficientAmount()": [
        {
          "details": "revert when msg.value is insufficient"
        }
      ],
      "NotSigner()": [
        {
          "details": "revert when to caller is not signer"
        }
      ],
      "SameSeed()": [
        {
          "details": "revert when the random seed is duplicated"
        }
      ],
      "SwitchAmountExceedBalance()": [
        {
          "details": "revert when swith amount from pool exceed staked balance"
        }
      ]
    },
    "kind": "dev",
    "methods": {
      "approve(address,uint256)": {
        "details": "See {IERC721-approve}."
      },
      "balanceOf(address)": {
        "details": "See {IERC721-balanceOf}."
      },
      "baptise(address,uint256)": {
        "details": "reward for share the game",
        "params": {
          "amount": "amount for reward",
          "user": "user address"
        }
      },
      "calculateReferReward(address,uint256,uint8)": {
        "details": "returns referrer and referer reward",
        "returns": {
          "ref1": " level1 of referrer. direct referrer",
          "ref1Reward": " level 1 referrer reward",
          "ref2": " level2 of referrer. referrer's referrer",
          "ref2Reward": " level 2 referrer reward"
        }
      },
      "checkUpkeep(bytes)": {
        "details": "checkUpkeep for chainlink automation"
      },
      "claimDrops(uint256[])": {
        "details": "user claim many pools' airdrop",
        "params": {
          "tokenIds": "pools' tokenId array to claim"
        }
      },
      "claimNativeDrops(uint256[])": {
        "details": "user claim many pools' native token airdrop",
        "params": {
          "tokenIds": "pools' tokenId array to claim"
        }
      },
      "claimOwnership()": {
        "details": "pending owner call this function to claim ownership"
      },
      "claimRebornDrops(uint256[])": {
        "details": "user claim many pools' reborn token airdrop",
        "params": {
          "tokenIds": "pools' tokenId array to claim"
        }
      },
      "engrave(bytes32,address,uint256,uint256,uint256,uint256)": {
        "details": "engrave the result on chain and reward",
        "params": {
          "cost": "user cost for this life",
          "reward": "$REBORN user earns, decimal 10^18",
          "score": "life score",
          "seed": "random seed in bytes32",
          "user": "user address"
        }
      },
      "getApproved(uint256)": {
        "details": "See {IERC721-getApproved}."
      },
      "getPool(uint256)": {
        "details": "read pool attribute"
      },
      "getPortfolio(address,uint256)": {
        "details": "read pool attribute"
      },
      "getRerferrers(address)": {
        "details": "referrer1: level1 of referrers referrer2: level2 of referrers"
      },
      "infuse(uint256,uint256)": {
        "details": "stake $REBORN on this tombstone",
        "params": {
          "amount": "stake amount, decimal 10^18",
          "tokenId": "tokenId of the life to stake"
        }
      },
      "infuse(uint256,uint256,uint256,uint256,bytes32,bytes32,uint8)": {
        "details": "stake $REBORN with permit",
        "params": {
          "amount": "amount of $REBORN to stake",
          "permitAmount": "amount of $REBORN to approve",
          "r": "r of signature",
          "s": "v of signature",
          "tokenId": "tokenId of the life to stake",
          "v": "v of signature"
        }
      },
      "isApprovedForAll(address,address)": {
        "details": "See {IERC721-isApprovedForAll}."
      },
      "name()": {
        "details": "See {IERC721Metadata-name}."
      },
      "owner()": {
        "details": "Returns the address of the current owner."
      },
      "ownerOf(uint256)": {
        "details": "See {IERC721-ownerOf}."
      },
      "paused()": {
        "details": "Returns true if the contract is paused, and false otherwise."
      },
      "pendingDrop(uint256[])": {
        "details": "read pending reward from specific pool",
        "params": {
          "tokenIds": "tokenId array of the pools"
        }
      },
      "pendingOwner()": {
        "details": "Return the address of the pending owner"
      },
      "performUpkeep(bytes)": {
        "details": "Upkeep perform of chainlink automation"
      },
      "proxiableUUID()": {
        "details": "Implementation of the ERC1822 {proxiableUUID} function. This returns the storage slot used by the implementation. It is used to validate the implementation's compatibility when performing an upgrade. IMPORTANT: A proxy pointing at a proxiable contract should not be considered proxiable itself, because this risks bricking a proxy that upgrades to it, by delegating to itself until out of gas. Thus it is critical that this function revert if invoked through a proxy. This is guaranteed by the `notDelegated` modifier."
      },
      "renounceOwnership()": {
        "details": "Leaves the contract without owner. It will not be possible to call `onlyOwner` functions anymore. Can only be called by the current owner. NOTE: Renouncing ownership will leave the contract without an owner, thereby removing any functionality that is only available to the owner."
      },
      "safeTransferFrom(address,address,uint256)": {
        "details": "See {IERC721-safeTransferFrom}."
      },
      "safeTransferFrom(address,address,uint256,bytes)": {
        "details": "See {IERC721-safeTransferFrom}."
      },
      "seedExists(bytes32)": {
        "details": "check whether the seed is used on-chain",
        "params": {
          "seed": "random seed in bytes32"
        }
      },
      "setApprovalForAll(address,bool)": {
        "details": "See {IERC721-setApprovalForAll}."
      },
      "setDropConf((uint8,uint40,uint40,uint40,uint40,uint16,uint72))": {
        "details": "set new airdrop config"
      },
      "setReferrerRewardFee(uint16,uint16,uint8)": {
        "details": "set percentage of referrer reward",
        "params": {
          "rewardType": "0: incarnate reward 1: engrave reward"
        }
      },
      "setVault(address)": {
        "details": "set vault",
        "params": {
          "vault_": "new vault address"
        }
      },
      "supportsInterface(bytes4)": {
        "details": "See {IERC165-supportsInterface}."
      },
      "switchPool(uint256,uint256,uint256)": {
        "details": "switch stake amount from poolFrom to poolTo",
        "params": {
          "amount": "amount to switch",
          "fromTokenId": "tokenId of from pool",
          "toTokenId": "tokenId of to pool"
        }
      },
      "symbol()": {
        "details": "See {IERC721Metadata-symbol}."
      },
      "toNextSeason()": {
        "details": "switch to next season, call by owner"
      },
      "tokenURI(uint256)": {
        "details": "See {IERC721Metadata-tokenURI}."
      },
      "transferFrom(address,address,uint256)": {
        "details": "See {IERC721-transferFrom}."
      },
      "transferOwnership(address,bool)": {
        "details": "Transfers ownership of the contract to a new account (`newOwner`). Can only be called by the current owner. Note If direct is false, it will set an pending owner and the OwnerShipTransferring only happens when the pending owner claim the ownership"
      },
      "updateSigners(address[],address[])": {
        "details": "update signers",
        "params": {
          "toAdd": "list of to be added signer",
          "toRemove": "list of to be removed signer"
        }
      },
      "upgradeTo(address)": {
        "details": "Upgrade the implementation of the proxy to `newImplementation`. Calls {_authorizeUpgrade}. Emits an {Upgraded} event."
      },
      "upgradeToAndCall(address,bytes)": {
        "details": "Upgrade the implementation of the proxy to `newImplementation`, and subsequently execute the function call encoded in `data`. Calls {_authorizeUpgrade}. Emits an {Upgraded} event."
      },
      "withdrawNativeToken(uint256)": {
        "details": "withdraw native token for reward distributionamount how much to withdraw"
      },
      "withdrawVault(address)": {
        "details": "withdraw token from vault",
        "params": {
          "to": "the address which owner withdraw token to"
        }
      }
    },
    "version": 1
  },
  "userdoc": {
    "kind": "user",
    "methods": {
      "getRerferrers(address)": {
        "notice": "A -> B -> C: B: level1 A: level2"
      },
      "setReferrerRewardFee(uint16,uint16,uint8)": {
        "notice": "mul 100 when set. eg: 8% -> 800 18%-> 1800"
      }
    },
    "version": 1
  },
  "storageLayout": {
    "storage": [
      {
        "astId": 453,
        "contract": "src/RebornPortal.sol:RebornPortal",
        "label": "_initialized",
        "offset": 0,
        "slot": "0",
        "type": "t_uint8"
      },
      {
        "astId": 456,
        "contract": "src/RebornPortal.sol:RebornPortal",
        "label": "_initializing",
        "offset": 1,
        "slot": "0",
        "type": "t_bool"
      },
      {
        "astId": 3500,
        "contract": "src/RebornPortal.sol:RebornPortal",
        "label": "__gap",
        "offset": 0,
        "slot": "1",
        "type": "t_array(t_uint256)50_storage"
      },
      {
        "astId": 8109,
        "contract": "src/RebornPortal.sol:RebornPortal",
        "label": "_owner",
        "offset": 0,
        "slot": "51",
        "type": "t_address"
      },
      {
        "astId": 8111,
        "contract": "src/RebornPortal.sol:RebornPortal",
        "label": "_pendingOwner",
        "offset": 0,
        "slot": "52",
        "type": "t_address"
      },
      {
        "astId": 8299,
        "contract": "src/RebornPortal.sol:RebornPortal",
        "label": "__gap",
        "offset": 0,
        "slot": "53",
        "type": "t_array(t_uint256)48_storage"
      },
      {
        "astId": 435,
        "contract": "src/RebornPortal.sol:RebornPortal",
        "label": "__gap",
        "offset": 0,
        "slot": "101",
        "type": "t_array(t_uint256)50_storage"
      },
      {
        "astId": 750,
        "contract": "src/RebornPortal.sol:RebornPortal",
        "label": "__gap",
        "offset": 0,
        "slot": "151",
        "type": "t_array(t_uint256)50_storage"
      },
      {
        "astId": 4364,
        "contract": "src/RebornPortal.sol:RebornPortal",
        "label": "__gap",
        "offset": 0,
        "slot": "201",
        "type": "t_array(t_uint256)50_storage"
      },
      {
        "astId": 11138,
        "contract": "src/RebornPortal.sol:RebornPortal",
        "label": "_season",
        "offset": 0,
        "slot": "251",
        "type": "t_uint256"
      },
      {
        "astId": 11141,
        "contract": "src/RebornPortal.sol:RebornPortal",
        "label": "rebornToken",
        "offset": 0,
        "slot": "252",
        "type": "t_contract(RBT)9370"
      },
      {
        "astId": 11145,
        "contract": "src/RebornPortal.sol:RebornPortal",
        "label": "signers",
        "offset": 0,
        "slot": "253",
        "type": "t_mapping(t_address,t_bool)"
      },
      {
        "astId": 11149,
        "contract": "src/RebornPortal.sol:RebornPortal",
        "label": "rounds",
        "offset": 0,
        "slot": "254",
        "type": "t_mapping(t_address,t_uint32)"
      },
      {
        "astId": 11151,
        "contract": "src/RebornPortal.sol:RebornPortal",
        "label": "idx",
        "offset": 0,
        "slot": "255",
        "type": "t_uint256"
      },
      {
        "astId": 11156,
        "contract": "src/RebornPortal.sol:RebornPortal",
        "label": "details",
        "offset": 0,
        "slot": "256",
        "type": "t_mapping(t_uint256,t_struct(LifeDetail)11714_storage)"
      },
      {
        "astId": 11161,
        "contract": "src/RebornPortal.sol:RebornPortal",
        "label": "_seasonData",
        "offset": 0,
        "slot": "257",
        "type": "t_mapping(t_uint256,t_struct(SeasonData)11753_storage)"
      },
      {
        "astId": 11165,
        "contract": "src/RebornPortal.sol:RebornPortal",
        "label": "referrals",
        "offset": 0,
        "slot": "258",
        "type": "t_mapping(t_address,t_address)"
      },
      {
        "astId": 11168,
        "contract": "src/RebornPortal.sol:RebornPortal",
        "label": "rewardFees",
        "offset": 0,
        "slot": "259",
        "type": "t_struct(ReferrerRewardFees)11725_storage"
      },
      {
        "astId": 11171,
        "contract": "src/RebornPortal.sol:RebornPortal",
        "label": "vault",
        "offset": 0,
        "slot": "260",
        "type": "t_contract(RewardVault)11554"
      },
      {
        "astId": 11174,
        "contract": "src/RebornPortal.sol:RebornPortal",
        "label": "_seeds",
        "offset": 0,
        "slot": "261",
        "type": "t_struct(BitMap)5250_storage"
      },
      {
        "astId": 11177,
        "contract": "src/RebornPortal.sol:RebornPortal",
        "label": "_dropConf",
        "offset": 0,
        "slot": "262",
        "type": "t_struct(AirdropConf)8556_storage"
      },
      {
        "astId": 11182,
        "contract": "src/RebornPortal.sol:RebornPortal",
        "label": "_gap",
        "offset": 0,
        "slot": "263",
        "type": "t_array(t_uint256)38_storage"
      },
      {
        "astId": 2073,
        "contract": "src/RebornPortal.sol:RebornPortal",
        "label": "_name",
        "offset": 0,
        "slot": "301",
        "type": "t_string_storage"
      },
      {
        "astId": 2075,
        "contract": "src/RebornPortal.sol:RebornPortal",
        "label": "_symbol",
        "offset": 0,
        "slot": "302",
        "type": "t_string_storage"
      },
      {
        "astId": 2079,
        "contract": "src/RebornPortal.sol:RebornPortal",
        "label": "_owners",
        "offset": 0,
        "slot": "303",
        "type": "t_mapping(t_uint256,t_address)"
      },
      {
        "astId": 2083,
        "contract": "src/RebornPortal.sol:RebornPortal",
        "label": "_balances",
        "offset": 0,
        "slot": "304",
        "type": "t_mapping(t_address,t_uint256)"
      },
      {
        "astId": 2087,
        "contract": "src/RebornPortal.sol:RebornPortal",
        "label": "_tokenApprovals",
        "offset": 0,
        "slot": "305",
        "type": "t_mapping(t_uint256,t_address)"
      },
      {
        "astId": 2093,
        "contract": "src/RebornPortal.sol:RebornPortal",
        "label": "_operatorApprovals",
        "offset": 0,
        "slot": "306",
        "type": "t_mapping(t_address,t_mapping(t_address,t_bool))"
      },
      {
        "astId": 3013,
        "contract": "src/RebornPortal.sol:RebornPortal",
        "label": "__gap",
        "offset": 0,
        "slot": "307",
        "type": "t_array(t_uint256)44_storage"
      },
      {
        "astId": 892,
        "contract": "src/RebornPortal.sol:RebornPortal",
        "label": "_status",
        "offset": 0,
        "slot": "351",
        "type": "t_uint256"
      },
      {
        "astId": 950,
        "contract": "src/RebornPortal.sol:RebornPortal",
        "label": "__gap",
        "offset": 0,
        "slot": "352",
        "type": "t_array(t_uint256)49_storage"
      },
      {
        "astId": 772,
        "contract": "src/RebornPortal.sol:RebornPortal",
        "label": "_paused",
        "offset": 0,
        "slot": "401",
        "type": "t_bool"
      },
      {
        "astId": 877,
        "contract": "src/RebornPortal.sol:RebornPortal",
        "label": "__gap",
        "offset": 0,
        "slot": "402",
        "type": "t_array(t_uint256)49_storage"
      }
    ],
    "types": {
      "t_address": {
        "encoding": "inplace",
        "label": "address",
        "numberOfBytes": "20"
      },
      "t_array(t_uint256)38_storage": {
        "base": "t_uint256",
        "encoding": "inplace",
        "label": "uint256[38]",
        "numberOfBytes": "1216"
      },
      "t_array(t_uint256)44_storage": {
        "base": "t_uint256",
        "encoding": "inplace",
        "label": "uint256[44]",
        "numberOfBytes": "1408"
      },
      "t_array(t_uint256)48_storage": {
        "base": "t_uint256",
        "encoding": "inplace",
        "label": "uint256[48]",
        "numberOfBytes": "1536"
      },
      "t_array(t_uint256)49_storage": {
        "base": "t_uint256",
        "encoding": "inplace",
        "label": "uint256[49]",
        "numberOfBytes": "1568"
      },
      "t_array(t_uint256)50_storage": {
        "base": "t_uint256",
        "encoding": "inplace",
        "label": "uint256[50]",
        "numberOfBytes": "1600"
      },
      "t_bool": {
        "encoding": "inplace",
        "label": "bool",
        "numberOfBytes": "1"
      },
      "t_bytes32": {
        "encoding": "inplace",
        "label": "bytes32",
        "numberOfBytes": "32"
      },
      "t_contract(RBT)9370": {
        "encoding": "inplace",
        "label": "contract RBT",
        "numberOfBytes": "20"
      },
      "t_contract(RewardVault)11554": {
        "encoding": "inplace",
        "label": "contract RewardVault",
        "numberOfBytes": "20"
      },
      "t_mapping(t_address,t_address)": {
        "encoding": "mapping",
        "key": "t_address",
        "label": "mapping(address => address)",
        "numberOfBytes": "32",
        "value": "t_address"
      },
      "t_mapping(t_address,t_bool)": {
        "encoding": "mapping",
        "key": "t_address",
        "label": "mapping(address => bool)",
        "numberOfBytes": "32",
        "value": "t_bool"
      },
      "t_mapping(t_address,t_mapping(t_address,t_bool))": {
        "encoding": "mapping",
        "key": "t_address",
        "label": "mapping(address => mapping(address => bool))",
        "numberOfBytes": "32",
        "value": "t_mapping(t_address,t_bool)"
      },
      "t_mapping(t_address,t_mapping(t_uint256,t_struct(Portfolio)8541_storage))": {
        "encoding": "mapping",
        "key": "t_address",
        "label": "mapping(address => mapping(uint256 => struct PortalLib.Portfolio))",
        "numberOfBytes": "32",
        "value": "t_mapping(t_uint256,t_struct(Portfolio)8541_storage)"
      },
      "t_mapping(t_address,t_uint256)": {
        "encoding": "mapping",
        "key": "t_address",
        "label": "mapping(address => uint256)",
        "numberOfBytes": "32",
        "value": "t_uint256"
      },
      "t_mapping(t_address,t_uint32)": {
        "encoding": "mapping",
        "key": "t_address",
        "label": "mapping(address => uint32)",
        "numberOfBytes": "32",
        "value": "t_uint32"
      },
      "t_mapping(t_uint256,t_address)": {
        "encoding": "mapping",
        "key": "t_uint256",
        "label": "mapping(uint256 => address)",
        "numberOfBytes": "32",
        "value": "t_address"
      },
      "t_mapping(t_uint256,t_struct(Data)12082_storage)": {
        "encoding": "mapping",
        "key": "t_uint256",
        "label": "mapping(uint256 => struct FastArray.Data)",
        "numberOfBytes": "32",
        "value": "t_struct(Data)12082_storage"
      },
      "t_mapping(t_uint256,t_struct(LifeDetail)11714_storage)": {
        "encoding": "mapping",
        "key": "t_uint256",
        "label": "mapping(uint256 => struct IRebornDefination.LifeDetail)",
        "numberOfBytes": "32",
        "value": "t_struct(LifeDetail)11714_storage"
      },
      "t_mapping(t_uint256,t_struct(Node)12322_storage)": {
        "encoding": "mapping",
        "key": "t_uint256",
        "label": "mapping(uint256 => struct RankingRedBlackTree.Node)",
        "numberOfBytes": "32",
        "value": "t_struct(Node)12322_storage"
      },
      "t_mapping(t_uint256,t_struct(Pool)8529_storage)": {
        "encoding": "mapping",
        "key": "t_uint256",
        "label": "mapping(uint256 => struct PortalLib.Pool)",
        "numberOfBytes": "32",
        "value": "t_struct(Pool)8529_storage"
      },
      "t_mapping(t_uint256,t_struct(Portfolio)8541_storage)": {
        "encoding": "mapping",
        "key": "t_uint256",
        "label": "mapping(uint256 => struct PortalLib.Portfolio)",
        "numberOfBytes": "32",
        "value": "t_struct(Portfolio)8541_storage"
      },
      "t_mapping(t_uint256,t_struct(SeasonData)11753_storage)": {
        "encoding": "mapping",
        "key": "t_uint256",
        "label": "mapping(uint256 => struct IRebornDefination.SeasonData)",
        "numberOfBytes": "32",
        "value": "t_struct(SeasonData)11753_storage"
      },
      "t_mapping(t_uint256,t_uint256)": {
        "encoding": "mapping",
        "key": "t_uint256",
        "label": "mapping(uint256 => uint256)",
        "numberOfBytes": "32",
        "value": "t_uint256"
      },
      "t_string_storage": {
        "encoding": "bytes",
        "label": "string",
        "numberOfBytes": "32"
      },
      "t_struct(AirdropConf)8556_storage": {
        "encoding": "inplace",
        "label": "struct PortalLib.AirdropConf",
        "members": [
          {
            "astId": 8543,
            "contract": "src/RebornPortal.sol:RebornPortal",
            "label": "_dropOn",
            "offset": 0,
            "slot": "0",
            "type": "t_uint8"
          },
          {
            "astId": 8545,
            "contract": "src/RebornPortal.sol:RebornPortal",
            "label": "_rebornDropInterval",
            "offset": 1,
            "slot": "0",
            "type": "t_uint40"
          },
          {
            "astId": 8547,
            "contract": "src/RebornPortal.sol:RebornPortal",
            "label": "_nativeDropInterval",
            "offset": 6,
            "slot": "0",
            "type": "t_uint40"
          },
          {
            "astId": 8549,
            "contract": "src/RebornPortal.sol:RebornPortal",
            "label": "_rebornDropLastUpdate",
            "offset": 11,
            "slot": "0",
            "type": "t_uint40"
          },
          {
            "astId": 8551,
            "contract": "src/RebornPortal.sol:RebornPortal",
            "label": "_nativeDropLastUpdate",
            "offset": 16,
            "slot": "0",
            "type": "t_uint40"
          },
          {
            "astId": 8553,
            "contract": "src/RebornPortal.sol:RebornPortal",
            "label": "_nativeDropRatio",
            "offset": 21,
            "slot": "0",
            "type": "t_uint16"
          },
          {
            "astId": 8555,
            "contract": "src/RebornPortal.sol:RebornPortal",
            "label": "_rebornDropEthAmount",
            "offset": 23,
            "slot": "0",
            "type": "t_uint72"
          }
        ],
        "numberOfBytes": "32"
      },
      "t_struct(BitMap)5250_storage": {
        "encoding": "inplace",
        "label": "struct BitMapsUpgradeable.BitMap",
        "members": [
          {
            "astId": 5249,
            "contract": "src/RebornPortal.sol:RebornPortal",
            "label": "_data",
            "offset": 0,
            "slot": "0",
            "type": "t_mapping(t_uint256,t_uint256)"
          }
        ],
        "numberOfBytes": "32"
      },
      "t_struct(Data)12082_storage": {
        "encoding": "inplace",
        "label": "struct FastArray.Data",
        "members": [
          {
            "astId": 12075,
            "contract": "src/RebornPortal.sol:RebornPortal",
            "label": "array",
            "offset": 0,
            "slot": "0",
            "type": "t_mapping(t_uint256,t_uint256)"
          },
          {
            "astId": 12079,
            "contract": "src/RebornPortal.sol:RebornPortal",
            "label": "indexMap",
            "offset": 0,
            "slot": "1",
            "type": "t_mapping(t_uint256,t_uint256)"
          },
          {
            "astId": 12081,
            "contract": "src/RebornPortal.sol:RebornPortal",
            "label": "length",
            "offset": 0,
            "slot": "2",
            "type": "t_uint256"
          }
        ],
        "numberOfBytes": "96"
      },
      "t_struct(Data)15149_storage": {
        "encoding": "inplace",
        "label": "struct SingleRanking.Data",
        "members": [
          {
            "astId": 15141,
            "contract": "src/RebornPortal.sol:RebornPortal",
            "label": "tree",
            "offset": 0,
            "slot": "0",
            "type": "t_struct(Tree)12332_storage"
          },
          {
            "astId": 15146,
            "contract": "src/RebornPortal.sol:RebornPortal",
            "label": "keys",
            "offset": 0,
            "slot": "3",
            "type": "t_mapping(t_uint256,t_struct(Data)12082_storage)"
          },
          {
            "astId": 15148,
            "contract": "src/RebornPortal.sol:RebornPortal",
            "label": "length",
            "offset": 0,
            "slot": "4",
            "type": "t_uint256"
          }
        ],
        "numberOfBytes": "160"
      },
      "t_struct(LifeDetail)11714_storage": {
        "encoding": "inplace",
        "label": "struct IRebornDefination.LifeDetail",
        "members": [
          {
            "astId": 11699,
            "contract": "src/RebornPortal.sol:RebornPortal",
            "label": "seed",
            "offset": 0,
            "slot": "0",
            "type": "t_bytes32"
          },
          {
            "astId": 11701,
            "contract": "src/RebornPortal.sol:RebornPortal",
            "label": "creator",
            "offset": 0,
            "slot": "1",
            "type": "t_address"
          },
          {
            "astId": 11703,
            "contract": "src/RebornPortal.sol:RebornPortal",
            "label": "age",
            "offset": 20,
            "slot": "1",
            "type": "t_uint16"
          },
          {
            "astId": 11705,
            "contract": "src/RebornPortal.sol:RebornPortal",
            "label": "round",
            "offset": 22,
            "slot": "1",
            "type": "t_uint32"
          },
          {
            "astId": 11707,
            "contract": "src/RebornPortal.sol:RebornPortal",
            "label": "nothing",
            "offset": 26,
            "slot": "1",
            "type": "t_uint48"
          },
          {
            "astId": 11709,
            "contract": "src/RebornPortal.sol:RebornPortal",
            "label": "cost",
            "offset": 0,
            "slot": "2",
            "type": "t_uint128"
          },
          {
            "astId": 11711,
            "contract": "src/RebornPortal.sol:RebornPortal",
            "label": "reward",
            "offset": 16,
            "slot": "2",
            "type": "t_uint128"
          },
          {
            "astId": 11713,
            "contract": "src/RebornPortal.sol:RebornPortal",
            "label": "score",
            "offset": 0,
            "slot": "3",
            "type": "t_uint256"
          }
        ],
        "numberOfBytes": "128"
      },
      "t_struct(Node)12322_storage": {
        "encoding": "inplace",
        "label": "struct RankingRedBlackTree.Node",
        "members": [
          {
            "astId": 12309,
            "contract": "src/RebornPortal.sol:RebornPortal",
            "label": "id",
            "offset": 0,
            "slot": "0",
            "type": "t_uint256"
          },
          {
            "astId": 12311,
            "contract": "src/RebornPortal.sol:RebornPortal",
            "label": "value",
            "offset": 0,
            "slot": "1",
            "type": "t_uint256"
          },
          {
            "astId": 12313,
            "contract": "src/RebornPortal.sol:RebornPortal",
            "label": "count",
            "offset": 0,
            "slot": "2",
            "type": "t_uint256"
          },
          {
            "astId": 12315,
            "contract": "src/RebornPortal.sol:RebornPortal",
            "label": "parent",
            "offset": 0,
            "slot": "3",
            "type": "t_uint256"
          },
          {
            "astId": 12317,
            "contract": "src/RebornPortal.sol:RebornPortal",
            "label": "left",
            "offset": 0,
            "slot": "4",
            "type": "t_uint256"
          },
          {
            "astId": 12319,
            "contract": "src/RebornPortal.sol:RebornPortal",
            "label": "right",
            "offset": 0,
            "slot": "5",
            "type": "t_uint256"
          },
          {
            "astId": 12321,
            "contract": "src/RebornPortal.sol:RebornPortal",
            "label": "red",
            "offset": 0,
            "slot": "6",
            "type": "t_bool"
          }
        ],
        "numberOfBytes": "224"
      },
      "t_struct(Pool)8529_storage": {
        "encoding": "inplace",
        "label": "struct PortalLib.Pool",
        "members": [
          {
            "astId": 8520,
            "contract": "src/RebornPortal.sol:RebornPortal",
            "label": "totalAmount",
            "offset": 0,
            "slot": "0",
            "type": "t_uint256"
          },
          {
            "astId": 8522,
            "contract": "src/RebornPortal.sol:RebornPortal",
            "label": "accRebornPerShare",
            "offset": 0,
            "slot": "1",
            "type": "t_uint256"
          },
          {
            "astId": 8524,
            "contract": "src/RebornPortal.sol:RebornPortal",
            "label": "accNativePerShare",
            "offset": 0,
            "slot": "2",
            "type": "t_uint256"
          },
          {
            "astId": 8526,
            "contract": "src/RebornPortal.sol:RebornPortal",
            "label": "epoch",
            "offset": 0,
            "slot": "3",
            "type": "t_uint256"
          },
          {
            "astId": 8528,
            "contract": "src/RebornPortal.sol:RebornPortal",
            "label": "lastUpdated",
            "offset": 0,
            "slot": "4",
            "type": "t_uint256"
          }
        ],
        "numberOfBytes": "160"
      },
      "t_struct(Portfolio)8541_storage": {
        "encoding": "inplace",
        "label": "struct PortalLib.Portfolio",
        "members": [
          {
            "astId": 8531,
            "contract": "src/RebornPortal.sol:RebornPortal",
            "label": "accumulativeAmount",
            "offset": 0,
            "slot": "0",
            "type": "t_uint256"
          },
          {
            "astId": 8533,
            "contract": "src/RebornPortal.sol:RebornPortal",
            "label": "rebornRewardDebt",
            "offset": 0,
            "slot": "1",
            "type": "t_uint256"
          },
          {
            "astId": 8535,
            "contract": "src/RebornPortal.sol:RebornPortal",
            "label": "nativeRewardDebt",
            "offset": 0,
            "slot": "2",
            "type": "t_uint256"
          },
          {
            "astId": 8538,
            "contract": "src/RebornPortal.sol:RebornPortal",
            "label": "pendingOwnerRebornReward",
            "offset": 0,
            "slot": "3",
            "type": "t_uint256"
          },
          {
            "astId": 8540,
            "contract": "src/RebornPortal.sol:RebornPortal",
            "label": "pendingOwernNativeReward",
            "offset": 0,
            "slot": "4",
            "type": "t_uint256"
          }
        ],
        "numberOfBytes": "160"
      },
      "t_struct(ReferrerRewardFees)11725_storage": {
        "encoding": "inplace",
        "label": "struct IRebornDefination.ReferrerRewardFees",
        "members": [
          {
            "astId": 11716,
            "contract": "src/RebornPortal.sol:RebornPortal",
            "label": "incarnateRef1Fee",
            "offset": 0,
            "slot": "0",
            "type": "t_uint16"
          },
          {
            "astId": 11718,
            "contract": "src/RebornPortal.sol:RebornPortal",
            "label": "incarnateRef2Fee",
            "offset": 2,
            "slot": "0",
            "type": "t_uint16"
          },
          {
            "astId": 11720,
            "contract": "src/RebornPortal.sol:RebornPortal",
            "label": "vaultRef1Fee",
            "offset": 4,
            "slot": "0",
            "type": "t_uint16"
          },
          {
            "astId": 11722,
            "contract": "src/RebornPortal.sol:RebornPortal",
            "label": "vaultRef2Fee",
            "offset": 6,
            "slot": "0",
            "type": "t_uint16"
          },
          {
            "astId": 11724,
            "contract": "src/RebornPortal.sol:RebornPortal",
            "label": "_slotPlaceholder",
            "offset": 8,
            "slot": "0",
            "type": "t_uint192"
          }
        ],
        "numberOfBytes": "32"
      },
      "t_struct(SeasonData)11753_storage": {
        "encoding": "inplace",
        "label": "struct IRebornDefination.SeasonData",
        "members": [
          {
            "astId": 11730,
            "contract": "src/RebornPortal.sol:RebornPortal",
            "label": "pools",
            "offset": 0,
            "slot": "0",
            "type": "t_mapping(t_uint256,t_struct(Pool)8529_storage)"
          },
          {
            "astId": 11738,
            "contract": "src/RebornPortal.sol:RebornPortal",
            "label": "portfolios",
            "offset": 0,
            "slot": "1",
            "type": "t_mapping(t_address,t_mapping(t_uint256,t_struct(Portfolio)8541_storage))"
          },
          {
            "astId": 11741,
            "contract": "src/RebornPortal.sol:RebornPortal",
            "label": "_tributeRank",
            "offset": 0,
            "slot": "2",
            "type": "t_struct(Data)15149_storage"
          },
          {
            "astId": 11744,
            "contract": "src/RebornPortal.sol:RebornPortal",
            "label": "_scoreRank",
            "offset": 0,
            "slot": "7",
            "type": "t_struct(Data)15149_storage"
          },
          {
            "astId": 11748,
            "contract": "src/RebornPortal.sol:RebornPortal",
            "label": "_oldStakeAmounts",
            "offset": 0,
            "slot": "12",
            "type": "t_mapping(t_uint256,t_uint256)"
          },
          {
            "astId": 11752,
            "contract": "src/RebornPortal.sol:RebornPortal",
            "label": "_isTopHundredScore",
            "offset": 0,
            "slot": "13",
            "type": "t_struct(BitMap)5250_storage"
          }
        ],
        "numberOfBytes": "448"
      },
      "t_struct(Tree)12332_storage": {
        "encoding": "inplace",
        "label": "struct RankingRedBlackTree.Tree",
        "members": [
          {
            "astId": 12324,
            "contract": "src/RebornPortal.sol:RebornPortal",
            "label": "root",
            "offset": 0,
            "slot": "0",
            "type": "t_uint256"
          },
          {
            "astId": 12329,
            "contract": "src/RebornPortal.sol:RebornPortal",
            "label": "nodes",
            "offset": 0,
            "slot": "1",
            "type": "t_mapping(t_uint256,t_struct(Node)12322_storage)"
          },
          {
            "astId": 12331,
            "contract": "src/RebornPortal.sol:RebornPortal",
            "label": "counter",
            "offset": 0,
            "slot": "2",
            "type": "t_uint256"
          }
        ],
        "numberOfBytes": "96"
      },
      "t_uint128": {
        "encoding": "inplace",
        "label": "uint128",
        "numberOfBytes": "16"
      },
      "t_uint16": {
        "encoding": "inplace",
        "label": "uint16",
        "numberOfBytes": "2"
      },
      "t_uint192": {
        "encoding": "inplace",
        "label": "uint192",
        "numberOfBytes": "24"
      },
      "t_uint256": {
        "encoding": "inplace",
        "label": "uint256",
        "numberOfBytes": "32"
      },
      "t_uint32": {
        "encoding": "inplace",
        "label": "uint32",
        "numberOfBytes": "4"
      },
      "t_uint40": {
        "encoding": "inplace",
        "label": "uint40",
        "numberOfBytes": "5"
      },
      "t_uint48": {
        "encoding": "inplace",
        "label": "uint48",
        "numberOfBytes": "6"
      },
      "t_uint72": {
        "encoding": "inplace",
        "label": "uint72",
        "numberOfBytes": "9"
      },
      "t_uint8": {
        "encoding": "inplace",
        "label": "uint8",
        "numberOfBytes": "1"
      }
    }
  }
}