{
  "address": "0xA5398E751098D7B04C366297605ACB469A88C889",
  "abi": [
    {
      "inputs": [
        {
          "internalType": "address",
          "name": "owner_",
          "type": "address"
        },
        {
          "internalType": "address",
          "name": "rebornToken_",
          "type": "address"
        }
      ],
      "stateMutability": "nonpayable",
      "type": "constructor"
    },
    {
      "inputs": [],
      "name": "ZeroAddressSet",
      "type": "error"
    },
    {
      "anonymous": false,
      "inputs": [
        {
          "indexed": true,
          "internalType": "address",
          "name": "previousOwner",
          "type": "address"
        },
        {
          "indexed": true,
          "internalType": "address",
          "name": "newOwner",
          "type": "address"
        }
      ],
      "name": "OwnershipTransferred",
      "type": "event"
    },
    {
      "anonymous": false,
      "inputs": [
        {
          "indexed": false,
          "internalType": "address",
          "name": "p12Token",
          "type": "address"
        },
        {
          "indexed": false,
          "internalType": "uint256",
          "name": "amount",
          "type": "uint256"
        }
      ],
      "name": "WithdrawEmergency",
      "type": "event"
    },
    {
      "inputs": [],
      "name": "owner",
      "outputs": [
        {
          "internalType": "address",
          "name": "",
          "type": "address"
        }
      ],
      "stateMutability": "view",
      "type": "function"
    },
    {
      "inputs": [],
      "name": "rebornToken",
      "outputs": [
        {
          "internalType": "address",
          "name": "",
          "type": "address"
        }
      ],
      "stateMutability": "view",
      "type": "function"
    },
    {
      "inputs": [],
      "name": "renounceOwnership",
      "outputs": [],
      "stateMutability": "nonpayable",
      "type": "function"
    },
    {
      "inputs": [
        {
          "internalType": "address",
          "name": "to",
          "type": "address"
        },
        {
          "internalType": "uint256",
          "name": "amount",
          "type": "uint256"
        }
      ],
      "name": "reward",
      "outputs": [],
      "stateMutability": "nonpayable",
      "type": "function"
    },
    {
      "inputs": [
        {
          "internalType": "address",
          "name": "newOwner",
          "type": "address"
        }
      ],
      "name": "transferOwnership",
      "outputs": [],
      "stateMutability": "nonpayable",
      "type": "function"
    },
    {
      "inputs": [
        {
          "internalType": "address",
          "name": "to",
          "type": "address"
        }
      ],
      "name": "withdrawEmergency",
      "outputs": [],
      "stateMutability": "nonpayable",
      "type": "function"
    }
  ],
  "transactionHash": "0x7bacef53a860202c678aad5ae8fe6c004c39050f670110c69c7a3f4631b44a1a",
  "args": [
    "0xd54B0B8BeDD798B3ce4388cCB7a74253a938e781",
    "0xe39094861C1C21f2eF0Bda632780Ea74ea46a7B5"
  ],
  "numDeployments": 1,
  "solcInputHash": "ee5576cd9d1a90bd97dbc48641d096ea",
  "bytecode": "0x608060405234801561001057600080fd5b506040516109f13803806109f183398101604081905261002f916100fa565b6100383361008e565b6001600160a01b03811661005f57604051630ae8f22360e21b815260040160405180910390fd5b6100688261008e565b600180546001600160a01b0319166001600160a01b03929092169190911790555061012d565b600080546001600160a01b038381166001600160a01b0319831681178455604051919092169283917f8be0079c531659141344cd1fd0a4f28419497f9722a3daafe3b4186f6b6457e09190a35050565b80516001600160a01b03811681146100f557600080fd5b919050565b6000806040838503121561010d57600080fd5b610116836100de565b9150610124602084016100de565b90509250929050565b6108b58061013c6000396000f3fe608060405234801561001057600080fd5b50600436106100725760003560e01c80638da5cb5b116100505780638da5cb5b146100c3578063a1c04f0e146100d4578063f2fde38b146100e757600080fd5b806316a065c61461007757806321670f22146100a6578063715018a6146100bb575b600080fd5b60015461008a906001600160a01b031681565b6040516001600160a01b03909116815260200160405180910390f35b6100b96100b4366004610767565b6100fa565b005b6100b961011d565b6000546001600160a01b031661008a565b6100b96100e2366004610791565b610131565b6100b96100f5366004610791565b6102e3565b610102610378565b600154610119906001600160a01b031683836103d2565b5050565b610125610378565b61012f6000610457565b565b610139610378565b6001600160a01b038116610179576040517f2ba3c88c00000000000000000000000000000000000000000000000000000000815260040160405180910390fd5b6001546040517f70a082310000000000000000000000000000000000000000000000000000000081523060048201526102179183916001600160a01b03909116906370a0823190602401602060405180830381865afa1580156101e0573d6000803e3d6000fd5b505050506040513d601f19601f8201168201806040525081019061020491906107b3565b6001546001600160a01b031691906103d2565b6001546040517f70a082310000000000000000000000000000000000000000000000000000000081523060048201527ff58b081c2d077b17c9ef90e17090bd89e8b8b98933872e29c9352269eda3823f916001600160a01b03169081906370a0823190602401602060405180830381865afa15801561029a573d6000803e3d6000fd5b505050506040513d601f19601f820116820180604052508101906102be91906107b3565b604080516001600160a01b03909316835260208301919091520160405180910390a150565b6102eb610378565b6001600160a01b03811661036c5760405162461bcd60e51b815260206004820152602660248201527f4f776e61626c653a206e6577206f776e657220697320746865207a65726f206160448201527f646472657373000000000000000000000000000000000000000000000000000060648201526084015b60405180910390fd5b61037581610457565b50565b6000546001600160a01b0316331461012f5760405162461bcd60e51b815260206004820181905260248201527f4f776e61626c653a2063616c6c6572206973206e6f7420746865206f776e65726044820152606401610363565b604080516001600160a01b038416602482015260448082018490528251808303909101815260649091019091526020810180517bffffffffffffffffffffffffffffffffffffffffffffffffffffffff167fa9059cbb000000000000000000000000000000000000000000000000000000001790526104529084906104bf565b505050565b600080546001600160a01b038381167fffffffffffffffffffffffff0000000000000000000000000000000000000000831681178455604051919092169283917f8be0079c531659141344cd1fd0a4f28419497f9722a3daafe3b4186f6b6457e09190a35050565b6000610514826040518060400160405280602081526020017f5361666545524332303a206c6f772d6c6576656c2063616c6c206661696c6564815250856001600160a01b03166105a49092919063ffffffff16565b805190915015610452578080602001905181019061053291906107cc565b6104525760405162461bcd60e51b815260206004820152602a60248201527f5361666545524332303a204552433230206f7065726174696f6e20646964206e60448201527f6f742073756363656564000000000000000000000000000000000000000000006064820152608401610363565b60606105b384846000856105bb565b949350505050565b6060824710156106335760405162461bcd60e51b815260206004820152602660248201527f416464726573733a20696e73756666696369656e742062616c616e636520666f60448201527f722063616c6c00000000000000000000000000000000000000000000000000006064820152608401610363565b600080866001600160a01b0316858760405161064f9190610812565b60006040518083038185875af1925050503d806000811461068c576040519150601f19603f3d011682016040523d82523d6000602084013e610691565b606091505b50915091506106a2878383876106ad565b979650505050505050565b6060831561071c578251600003610715576001600160a01b0385163b6107155760405162461bcd60e51b815260206004820152601d60248201527f416464726573733a2063616c6c20746f206e6f6e2d636f6e74726163740000006044820152606401610363565b50816105b3565b6105b383838151156107315781518083602001fd5b8060405162461bcd60e51b8152600401610363919061082e565b80356001600160a01b038116811461076257600080fd5b919050565b6000806040838503121561077a57600080fd5b6107838361074b565b946020939093013593505050565b6000602082840312156107a357600080fd5b6107ac8261074b565b9392505050565b6000602082840312156107c557600080fd5b5051919050565b6000602082840312156107de57600080fd5b815180151581146107ac57600080fd5b60005b838110156108095781810151838201526020016107f1565b50506000910152565b600082516108248184602087016107ee565b9190910192915050565b602081526000825180602084015261084d8160408501602087016107ee565b601f017fffffffffffffffffffffffffffffffffffffffffffffffffffffffffffffffe016919091016040019291505056fea264697066735822122054d71aa58195859cf8373dd6f9942fe27db2cac5c512c91b401b13b44aaac5ae64736f6c63430008110033",
  "devdoc": {
    "kind": "dev",
    "methods": {
      "owner()": {
        "details": "Returns the address of the current owner."
      },
      "renounceOwnership()": {
        "details": "Leaves the contract without owner. It will not be possible to call `onlyOwner` functions anymore. Can only be called by the current owner. NOTE: Renouncing ownership will leave the contract without an owner, thereby removing any functionality that is only available to the owner."
      },
      "reward(address,uint256)": {
        "params": {
          "amount": "number of awards",
          "to": "The address of awards"
        }
      },
      "transferOwnership(address)": {
        "details": "Transfers ownership of the contract to a new account (`newOwner`). Can only be called by the current owner."
      }
    },
    "version": 1
  },
  "userdoc": {
    "kind": "user",
    "methods": {
      "reward(address,uint256)": {
        "notice": "Send reward to user"
      },
      "withdrawEmergency(address)": {
        "notice": "withdraw token Emergency"
      }
    },
    "version": 1
  },
  "storageLayout": {
    "storage": [
      {
        "astId": 5388,
        "contract": "src/RewardVault.sol:RewardVault",
        "label": "_owner",
        "offset": 0,
        "slot": "0",
        "type": "t_address"
      },
      {
        "astId": 11458,
        "contract": "src/RewardVault.sol:RewardVault",
        "label": "rebornToken",
        "offset": 0,
        "slot": "1",
        "type": "t_address"
      }
    ],
    "types": {
      "t_address": {
        "encoding": "inplace",
        "label": "address",
        "numberOfBytes": "20"
      }
    }
  }
}